{
  "_format": "hh-sol-artifact-1",
  "contractName": "SliceDummy",
  "sourceName": "contracts/test/slice_test_v1.sol",
  "abi": [
    {
      "anonymous": false,
      "inputs": [
        {
          "indexed": false,
          "internalType": "address",
          "name": "previousAdmin",
          "type": "address"
        },
        {
          "indexed": false,
          "internalType": "address",
          "name": "newAdmin",
          "type": "address"
        }
      ],
      "name": "AdminChanged",
      "type": "event"
    },
    {
      "anonymous": false,
      "inputs": [
        {
          "indexed": true,
          "internalType": "address",
          "name": "beacon",
          "type": "address"
        }
      ],
      "name": "BeaconUpgraded",
      "type": "event"
    },
    {
      "anonymous": false,
      "inputs": [
        {
          "indexed": true,
          "internalType": "address",
          "name": "previousOwner",
          "type": "address"
        },
        {
          "indexed": true,
          "internalType": "address",
          "name": "newOwner",
          "type": "address"
        }
      ],
      "name": "OwnershipTransferred",
      "type": "event"
    },
    {
      "anonymous": false,
      "inputs": [
        {
          "indexed": false,
          "internalType": "address",
          "name": "account",
          "type": "address"
        }
      ],
      "name": "Paused",
      "type": "event"
    },
    {
      "anonymous": false,
      "inputs": [
        {
          "indexed": true,
          "internalType": "address payable[]",
          "name": "slicerAddresses",
          "type": "address[]"
        },
        {
          "indexed": true,
          "internalType": "uint32[]",
          "name": "productIds",
          "type": "uint32[]"
        },
        {
          "indexed": false,
          "internalType": "uint16[]",
          "name": "quantities",
          "type": "uint16[]"
        },
        {
          "indexed": false,
          "internalType": "uint256",
          "name": "totalPaid",
          "type": "uint256"
        }
      ],
      "name": "ProductsPaid",
      "type": "event"
    },
    {
      "anonymous": false,
      "inputs": [
        {
          "indexed": false,
          "internalType": "address",
          "name": "slicerAddress",
          "type": "address"
        },
        {
          "indexed": false,
          "internalType": "uint256",
          "name": "tokenId",
          "type": "uint256"
        },
        {
          "indexed": true,
          "internalType": "address[]",
          "name": "payees",
          "type": "address[]"
        },
        {
          "indexed": false,
          "internalType": "uint256[]",
          "name": "shares",
          "type": "uint256[]"
        },
        {
          "indexed": false,
          "internalType": "uint256",
          "name": "minimumShares",
          "type": "uint256"
        }
      ],
      "name": "TokenSliced",
      "type": "event"
    },
    {
      "anonymous": false,
      "inputs": [
        {
          "indexed": true,
          "internalType": "address",
          "name": "account",
          "type": "address"
        },
        {
          "indexed": false,
          "internalType": "uint256",
          "name": "totalReleased",
          "type": "uint256"
        },
        {
          "indexed": false,
          "internalType": "uint8",
          "name": "slicerPercentage",
          "type": "uint8"
        }
      ],
      "name": "TriggeredRelease",
      "type": "event"
    },
    {
      "anonymous": false,
      "inputs": [
        {
          "indexed": false,
          "internalType": "address",
          "name": "account",
          "type": "address"
        }
      ],
      "name": "Unpaused",
      "type": "event"
    },
    {
      "anonymous": false,
      "inputs": [
        {
          "indexed": true,
          "internalType": "address",
          "name": "implementation",
          "type": "address"
        }
      ],
      "name": "Upgraded",
      "type": "event"
    },
    {
      "inputs": [
        {
          "internalType": "uint32",
          "name": "categoryIndex",
          "type": "uint32"
        }
      ],
      "name": "_addToSliceCategory",
      "outputs": [],
      "stateMutability": "nonpayable",
      "type": "function"
    },
    {
      "inputs": [
        {
          "internalType": "address",
          "name": "from",
          "type": "address"
        },
        {
          "internalType": "address",
          "name": "to",
          "type": "address"
        },
        {
          "internalType": "address[]",
          "name": "slicerAddresses",
          "type": "address[]"
        },
        {
          "internalType": "uint256[]",
          "name": "amounts",
          "type": "uint256[]"
        }
      ],
      "name": "_beforeTransfer",
      "outputs": [],
      "stateMutability": "nonpayable",
      "type": "function"
    },
    {
      "inputs": [
        {
          "internalType": "uint256",
          "name": "id",
          "type": "uint256"
        },
        {
          "internalType": "uint256",
          "name": "minimumShares",
          "type": "uint256"
        }
      ],
      "name": "_createSlicer",
      "outputs": [
        {
          "internalType": "address payable",
          "name": "",
          "type": "address"
        }
      ],
      "stateMutability": "nonpayable",
      "type": "function"
    },
    {
      "inputs": [
        {
          "internalType": "uint16",
          "name": "newValueSlice",
          "type": "uint16"
        },
        {
          "internalType": "uint16",
          "name": "newValueRelease",
          "type": "uint16"
        }
      ],
      "name": "_setMaximumBatch",
      "outputs": [],
      "stateMutability": "nonpayable",
      "type": "function"
    },
    {
      "inputs": [
        {
          "internalType": "address",
          "name": "newLogicImpl",
          "type": "address"
        }
      ],
      "name": "_upgradeSlicers",
      "outputs": [],
      "stateMutability": "nonpayable",
      "type": "function"
    },
    {
      "inputs": [],
      "name": "getEthUsd",
      "outputs": [
        {
          "internalType": "int256",
          "name": "",
          "type": "int256"
        }
      ],
      "stateMutability": "view",
      "type": "function"
    },
    {
      "inputs": [
        {
          "internalType": "address",
          "name": "SLCAddress",
          "type": "address"
        },
        {
          "internalType": "address",
          "name": "sliceCoreAddress",
          "type": "address"
        },
        {
          "internalType": "address",
          "name": "_logic",
          "type": "address"
        }
      ],
      "name": "initialize",
      "outputs": [],
      "stateMutability": "nonpayable",
      "type": "function"
    },
    {
      "inputs": [],
      "name": "owner",
      "outputs": [
        {
          "internalType": "address",
          "name": "",
          "type": "address"
        }
      ],
      "stateMutability": "view",
      "type": "function"
    },
    {
      "inputs": [],
      "name": "paused",
      "outputs": [
        {
          "internalType": "bool",
          "name": "",
          "type": "bool"
        }
      ],
      "stateMutability": "view",
      "type": "function"
    },
    {
      "inputs": [
        {
          "internalType": "address payable[]",
          "name": "slicerAddresses",
          "type": "address[]"
        },
        {
          "internalType": "uint32[]",
          "name": "productIds",
          "type": "uint32[]"
        },
        {
          "internalType": "uint16[]",
          "name": "quantities",
          "type": "uint16[]"
        }
      ],
      "name": "payProducts",
      "outputs": [],
      "stateMutability": "payable",
      "type": "function"
    },
    {
      "inputs": [],
      "name": "renounceOwnership",
      "outputs": [],
      "stateMutability": "nonpayable",
      "type": "function"
    },
    {
      "inputs": [
        {
          "internalType": "address[]",
          "name": "accounts",
          "type": "address[]"
        },
        {
          "internalType": "uint256[]",
          "name": "shares",
          "type": "uint256[]"
        },
        {
          "internalType": "uint256",
          "name": "minimumShares",
          "type": "uint256"
        }
      ],
      "name": "slice",
      "outputs": [],
      "stateMutability": "nonpayable",
      "type": "function"
    },
    {
      "inputs": [
        {
          "internalType": "uint256",
          "name": "id",
          "type": "uint256"
        }
      ],
      "name": "slicers",
      "outputs": [
        {
          "internalType": "address",
          "name": "",
          "type": "address"
        }
      ],
      "stateMutability": "view",
      "type": "function"
    },
    {
      "inputs": [],
      "name": "testDummy",
      "outputs": [
        {
          "internalType": "int8",
          "name": "",
          "type": "int8"
        }
      ],
      "stateMutability": "pure",
      "type": "function"
    },
    {
      "inputs": [],
      "name": "togglePause",
      "outputs": [],
      "stateMutability": "nonpayable",
      "type": "function"
    },
    {
      "inputs": [],
      "name": "totalTokens",
      "outputs": [
        {
          "internalType": "uint256",
          "name": "",
          "type": "uint256"
        }
      ],
      "stateMutability": "view",
      "type": "function"
    },
    {
      "inputs": [
        {
          "internalType": "address",
          "name": "newOwner",
          "type": "address"
        }
      ],
      "name": "transferOwnership",
      "outputs": [],
      "stateMutability": "nonpayable",
      "type": "function"
    },
    {
      "inputs": [
        {
          "internalType": "address",
          "name": "account",
          "type": "address"
        },
        {
          "internalType": "address[]",
          "name": "slicerAddresses",
          "type": "address[]"
        },
        {
          "internalType": "uint8",
          "name": "slicerPercentage",
          "type": "uint8"
        }
      ],
      "name": "triggerRelease",
      "outputs": [],
      "stateMutability": "nonpayable",
      "type": "function"
    },
    {
      "inputs": [
        {
          "internalType": "address",
          "name": "newImplementation",
          "type": "address"
        }
      ],
      "name": "upgradeTo",
      "outputs": [],
      "stateMutability": "nonpayable",
      "type": "function"
    },
    {
      "inputs": [
        {
          "internalType": "address",
          "name": "newImplementation",
          "type": "address"
        },
        {
          "internalType": "bytes",
          "name": "data",
          "type": "bytes"
        }
      ],
      "name": "upgradeToAndCall",
      "outputs": [],
      "stateMutability": "payable",
      "type": "function"
    }
  ],
  "bytecode": "0x608060405234801561001057600080fd5b50613983806100206000396000f3fe608060405260043610620001375760003560e01c80638ba78c0711620000ad578063d33f5845116200006c578063d33f58451462000339578063dae7d518146200035e578063e4b546141462000383578063efab35b814620003a5578063f2fde38b14620003ca57600080fd5b80638ba78c0714620002a65780638da5cb5b14620002c4578063bb27e0ce14620002e4578063c0c53b8b14620002fc578063c4ae3168146200032157600080fd5b80635c975abb11620000fa5780635c975abb14620001f8578063715018a6146200021d5780637e1c0c091462000235578063817115f1146200025c5780638913ea42146200028157600080fd5b8063175fa7ea146200013c5780632f1f3154146200017e57806334d5ca0714620001975780633659cfe614620001bc5780634f1ef28614620001e1575b600080fd5b3480156200014957600080fd5b50620001616200015b366004620024b5565b620003ef565b6040516001600160a01b0390911681526020015b60405180910390f35b620001956200018f3660046200237f565b62000477565b005b348015620001a457600080fd5b5062000161620001b636600462002520565b62000869565b348015620001c957600080fd5b5062000195620001db366004620020d1565b62000901565b62000195620001f236600462002258565b62000929565b3480156200020557600080fd5b5060c95460ff16604051901515815260200162000175565b3480156200022a57600080fd5b506200019562000946565b3480156200024257600080fd5b506200024d62000981565b60405190815260200162000175565b3480156200026957600080fd5b50620001956200027b366004620021f7565b62000993565b3480156200028e57600080fd5b5062000195620002a03660046200247d565b62000ca7565b348015620002b357600080fd5b50604051602a815260200162000175565b348015620002d157600080fd5b506097546001600160a01b031662000161565b348015620002f157600080fd5b506200024d62000cfd565b3480156200030957600080fd5b50620001956200031b36600462002111565b62000d96565b3480156200032e57600080fd5b506200019562000edb565b3480156200034657600080fd5b5062000195620003583660046200230b565b62000f28565b3480156200036b57600080fd5b50620001956200037d36600462002163565b62001362565b3480156200039057600080fd5b5062000195620003a236600462002591565b50565b348015620003b257600080fd5b5062000195620003c4366004620020d1565b6200154a565b348015620003d757600080fd5b5062000195620003e9366004620020d1565b620015dc565b61012f54604051630bafd3f560e11b8152600481018390526000916001600160a01b03169063175fa7ea9060240160206040518083038186803b1580156200043657600080fd5b505afa1580156200044b573d6000803e3d6000fd5b505050506040513d601f19601f82011682018060405250810190620004719190620020f1565b92915050565b600260fb541415620004a65760405162461bcd60e51b81526004016200049d90620028b2565b60405180910390fd5b600260fb5581518351148015620004be575080518351145b6200050c5760405162461bcd60e51b815260206004820152601860248201527f4c656e6774687320646f6e277420636f72726573706f6e64000000000000000060448201526064016200049d565b6000805b84518161ffff161015620007f2576000858261ffff168151811062000539576200053962002a0e565b60200260200101519050600080826001600160a01b031663bfe5d835888661ffff16815181106200056e576200056e62002a0e565b60200260200101516040518263ffffffff1660e01b81526004016200059f919063ffffffff91909116815260200190565b604080518083038186803b158015620005b757600080fd5b505afa158015620005cc573d6000803e3d6000fd5b505050506040513d601f19601f82011682018060405250810190620005f29190620024e9565b91509150600081156200066b5760006200060b62000cfd565b905080888761ffff168151811062000627576200062762002a0e565b602002602001015161ffff168562000640919062002982565b620006569069d3c21bcecceda100000062002982565b6200066291906200295f565b915050620006a0565b868561ffff168151811062000684576200068462002a0e565b602002602001015161ffff16836200069d919062002982565b90505b6000898661ffff1681518110620006bb57620006bb62002a0e565b60200260200101516001600160a01b031682338b8961ffff1681518110620006e757620006e762002a0e565b60200260200101518b8a61ffff168151811062000708576200070862002a0e565b60209081029190910101516040516001600160a01b03909316602484015263ffffffff909116604483015261ffff16606482015260840160408051601f198184030181529181526020820180516001600160e01b031663061caa4960e31b17905251620007769190620026e2565b60006040518083038185875af1925050503d8060008114620007b5576040519150601f19603f3d011682016040523d82523d6000602084013e620007ba565b606091505b5050905080620007c957600080fd5b620007d5828862002944565b965050505050508080620007e990620029d3565b91505062000510565b5082604051620008039190620026b0565b6040518091039020846040516200081b91906200266f565b60405180910390207ff9c0c1c7138692bd4bff6843cde7f313f634c42eca9375fbd6ae91c4f3269a8c848460405162000856929190620027cc565b60405180910390a35050600160fb555050565b61012d54604051602481018490523360448201526064810183905260009182916001600160a01b039091169060840160408051601f198184030181529181526020820180516001600160e01b0316631530a81360e21b17905251620008ce9062001ea1565b620008db9291906200273a565b604051809103906000f080158015620008f8573d6000803e3d6000fd5b50949350505050565b6200090c816200167b565b620003a281604051806020016040528060008152506000620016a8565b62000934826200167b565b6200094282826001620016a8565b5050565b6097546001600160a01b03163314620009735760405162461bcd60e51b81526004016200049d906200287d565b6200097f600062001837565b565b60006200098e6101315490565b905090565b600260fb541415620009b95760405162461bcd60e51b81526004016200049d90620028b2565b600260fb556101325482516201000090910461ffff16101562000a1f5760405162461bcd60e51b815260206004820152601960248201527f546f6f206d616e7920736c69636572732072656c65617365640000000000000060448201526064016200049d565b823b156000805b84518161ffff16101562000c4c576000858261ffff168151811062000a4f5762000a4f62002a0e565b6020908102919091010151604051632a67293d60e01b81526001600160a01b038981166004830152919250600091831690632a67293d9060240160206040518083038186803b15801562000aa257600080fd5b505afa15801562000ab7573d6000803e3d6000fd5b505050506040513d601f19601f8201168201806040525081019062000add9190620024cf565b111562000c3657604051631916558760e01b81526001600160a01b03888116600483015260009190831690631916558790602401602060405180830381600087803b15801562000b2c57600080fd5b505af115801562000b41573d6000803e3d6000fd5b505050506040513d601f19601f8201168201806040525081019062000b679190620024cf565b9050841562000c265761012e5487516001600160a01b039091169063deb0e991908a9084908b9061ffff891690811062000ba55762000ba562002a0e565b60209081029190910101516040516001600160e01b031960e086901b1681526001600160a01b039384166004820152602481019290925291909116604482015260ff89166064820152608401600060405180830381600087803b15801562000c0c57600080fd5b505af115801562000c21573d6000803e3d6000fd5b505050505b62000c32818562002944565b9350505b508062000c4381620029d3565b91505062000a26565b50801562000c9b576040805182815260ff851660208201526001600160a01b038716917fc3fb528a4237f3152c096612970ef465ede8418e8e76bf125a4af53c8284ec43910160405180910390a25b5050600160fb55505050565b6097546001600160a01b0316331462000cd45760405162461bcd60e51b81526004016200049d906200287d565b610132805461ffff928316620100000263ffffffff199091169290931691909117919091179055565b60008061013060009054906101000a90046001600160a01b03166001600160a01b031663feaf968c6040518163ffffffff1660e01b815260040160a06040518083038186803b15801562000d5057600080fd5b505afa15801562000d65573d6000803e3d6000fd5b505050506040513d601f19601f8201168201806040525081019062000d8b9190620025af565b509195945050505050565b600054610100900460ff168062000db0575060005460ff16155b62000dcf5760405162461bcd60e51b81526004016200049d906200282f565b600054610100900460ff1615801562000df2576000805461ffff19166101011790555b62000dfc62001889565b61012e80546001600160a01b038087166001600160a01b03199283161790925561012f8054928616928216929092179091556101328054621e001e63ffffffff199091161790556101308054909116738a753747a1fa494ec906ce90e9f37563a8af630e179055604051829062000e739062001eaf565b6001600160a01b039091168152602001604051809103906000f08015801562000ea0573d6000803e3d6000fd5b5061012d80546001600160a01b0319166001600160a01b0392909216919091179055801562000ed5576000805461ff00191690555b50505050565b6097546001600160a01b0316331462000f085760405162461bcd60e51b81526004016200049d906200287d565b60c95460ff161562000f1e576200097f6200190e565b6200097f620019a3565b60c95460ff161562000f705760405162461bcd60e51b815260206004820152601060248201526f14185d5cd8589b194e881c185d5cd95960821b60448201526064016200049d565b600260fb54141562000f965760405162461bcd60e51b81526004016200049d90620028b2565b600260fb55600062000fa86101315490565b61013254855191925060009161ffff909116101562000ffe5760405162461bcd60e51b8152602060048201526011602482015270546f6f206d616e79206163636f756e747360781b60448201526064016200049d565b8351855114620010515760405162461bcd60e51b815260206004820152601760248201527f496e7075747320646f6e277420636f72726573706f6e6400000000000000000060448201526064016200049d565b600083116200109c5760405162461bcd60e51b815260206004820152601660248201527553706563696679206d696e696d756d2073686172657360501b60448201526064016200049d565b6000620010aa838562000869565b90508060005b87518161ffff1610156200123957620010e9888261ffff1681518110620010db57620010db62002a0e565b60200260200101513b151590565b156200111b576200111b83898361ffff16815181106200110d576200110d62002a0e565b602002602001015162001a21565b831580156200114a575085878261ffff16815181106200113f576200113f62002a0e565b602002602001015110155b156200115557600193505b61012f5488516001600160a01b039091169063303cd08a908a9061ffff851690811062001186576200118662002a0e565b6020026020010151878a8561ffff1681518110620011a857620011a862002a0e565b60209081029190910101516040516001600160e01b031960e086901b1681526001600160a01b039384166004820152602481019290925260448201529086166064820152608401600060405180830381600087803b1580156200120a57600080fd5b505af11580156200121f573d6000803e3d6000fd5b5050505080806200123090620029d3565b915050620010b0565b5082620012895760405162461bcd60e51b815260206004820152601c60248201527f4e6f206163636f756e742068617320656e6f756768207368617265730000000060448201526064016200049d565b60405163fd5e12e360e01b81526001600160a01b0382169063fd5e12e390620012b9908a908a9060040162002768565b600060405180830381600087803b158015620012d457600080fd5b505af1158015620012e9573d6000803e3d6000fd5b50505050620012fd61013180546001019055565b866040516200130d91906200266f565b60405180910390207fabb4a0d49573e631c30bbcf7a3c6e5cf60283225f4a12dcd3d75a60376096069838689896040516200134c949392919062002700565b60405180910390a25050600160fb555050505050565b61012f546001600160a01b03163314620013ae5760405162461bcd60e51b815260206004820152600c60248201526b155b985d5d1a1bdc9a5e995960a21b60448201526064016200049d565b823b1515620013c08584600062000993565b60005b83518161ffff1610156200154257828161ffff1681518110620013ea57620013ea62002a0e565b602002602001015160001415620014395760405162461bcd60e51b81526020600482015260126024820152710416d6f756e742063616e6e6f7420626520360741b60448201526064016200049d565b8115620014df57838161ffff168151811062001459576200145962002a0e565b60200260200101516001600160a01b0316856001600160a01b03161415620014b35760405162461bcd60e51b815260206004820152600c60248201526b05061796d656e74206c6f6f760a41b60448201526064016200049d565b620014df848261ffff1681518110620014d057620014d062002a0e565b60200260200101518662001a21565b6200152d8686868461ffff1681518110620014fe57620014fe62002a0e565b6020026020010151868561ffff16815181106200151f576200151f62002a0e565b602002602001015162001b67565b806200153981620029d3565b915050620013c3565b505050505050565b6097546001600160a01b03163314620015775760405162461bcd60e51b81526004016200049d906200287d565b61012d54604051631b2ce7f360e11b81526001600160a01b03838116600483015290911690633659cfe690602401600060405180830381600087803b158015620015c057600080fd5b505af1158015620015d5573d6000803e3d6000fd5b5050505050565b6097546001600160a01b03163314620016095760405162461bcd60e51b81526004016200049d906200287d565b6001600160a01b038116620016705760405162461bcd60e51b815260206004820152602660248201527f4f776e61626c653a206e6577206f776e657220697320746865207a65726f206160448201526564647265737360d01b60648201526084016200049d565b620003a28162001837565b6097546001600160a01b03163314620003a25760405162461bcd60e51b81526004016200049d906200287d565b6000620016dc7f360894a13ba1a3210667c828492db98dca3e2076cc3735a920a3ca505d382bbc546001600160a01b031690565b9050620016e98462001ba8565b600083511180620016f75750815b156200170b5762001709848462001c4f565b505b7f4910fdfa16fed3260ed0e7147f7cc6da11a60208b5b9406d12a635614ffd9143805460ff16620015d557805460ff191660011781556040516001600160a01b03831660248201526200178d90869060440160408051601f198184030181529190526020810180516001600160e01b0316631b2ce7f360e11b17905262001c4f565b50805460ff191681557f360894a13ba1a3210667c828492db98dca3e2076cc3735a920a3ca505d382bbc546001600160a01b038381169116146200182c5760405162461bcd60e51b815260206004820152602f60248201527f45524331393637557067726164653a207570677261646520627265616b73206660448201526e75727468657220757067726164657360881b60648201526084016200049d565b620015d58562001d43565b609780546001600160a01b038381166001600160a01b0319831681179093556040519116919082907f8be0079c531659141344cd1fd0a4f28419497f9722a3daafe3b4186f6b6457e090600090a35050565b600054610100900460ff1680620018a3575060005460ff16155b620018c25760405162461bcd60e51b81526004016200049d906200282f565b600054610100900460ff16158015620018e5576000805461ffff19166101011790555b620018ef62001d85565b620018f962001df5565b8015620003a2576000805461ff001916905550565b60c95460ff16620019595760405162461bcd60e51b815260206004820152601460248201527314185d5cd8589b194e881b9bdd081c185d5cd95960621b60448201526064016200049d565b60c9805460ff191690557f5db9ee0a495bf2e6ff9c91a7834c1ba4fdd244a5e8aa4e537bd38aeae4b073aa335b6040516001600160a01b03909116815260200160405180910390a1565b60c95460ff1615620019eb5760405162461bcd60e51b815260206004820152601060248201526f14185d5cd8589b194e881c185d5cd95960821b60448201526064016200049d565b60c9805460ff191660011790557f62e78cea01bee320cd4e420270b5ea74000d11b0c9f74754ebdbfc544b05a258620019863390565b600082905060008290506000816001600160a01b031663957e07b66040518163ffffffff1660e01b815260040160806040518083038186803b15801562001a6757600080fd5b505afa15801562001a7c573d6000803e3d6000fd5b505050506040513d601f19601f8201168201806040525081019062001aa2919062002543565b5050509050836001600160a01b031662001abc82620003ef565b6001600160a01b03161462001b035760405162461bcd60e51b815260206004820152600c60248201526b2737ba10309029b634b1b2b960a11b60448201526064016200049d565b60405163044eecfd60e41b8152600481018290526001600160a01b038416906344eecfd0906024015b600060405180830381600087803b15801562001b4757600080fd5b505af115801562001b5c573d6000803e3d6000fd5b505050505050505050565b60405163177e569160e31b81526001600160a01b03858116600483015284811660248301526044820183905283919082169063bbf2b4889060640162001b2c565b803b62001c0e5760405162461bcd60e51b815260206004820152602d60248201527f455243313936373a206e657720696d706c656d656e746174696f6e206973206e60448201526c1bdd08184818dbdb9d1c9858dd609a1b60648201526084016200049d565b7f360894a13ba1a3210667c828492db98dca3e2076cc3735a920a3ca505d382bbc80546001600160a01b0319166001600160a01b0392909216919091179055565b6060823b62001cb05760405162461bcd60e51b815260206004820152602660248201527f416464726573733a2064656c65676174652063616c6c20746f206e6f6e2d636f6044820152651b9d1c9858dd60d21b60648201526084016200049d565b600080846001600160a01b03168460405162001ccd9190620026e2565b600060405180830381855af49150503d806000811462001d0a576040519150601f19603f3d011682016040523d82523d6000602084013e62001d0f565b606091505b509150915062001d3a8282604051806060016040528060278152602001620039276027913962001e5c565b95945050505050565b62001d4e8162001ba8565b6040516001600160a01b038216907fbc7cd75a20ee27fd9adebab32041f755214dbc6bffa90cc0225b39da2e5c2d3b90600090a250565b600054610100900460ff168062001d9f575060005460ff16155b62001dbe5760405162461bcd60e51b81526004016200049d906200282f565b600054610100900460ff16158015620018f9576000805461ffff19166101011790558015620003a2576000805461ff001916905550565b600054610100900460ff168062001e0f575060005460ff16155b62001e2e5760405162461bcd60e51b81526004016200049d906200282f565b600054610100900460ff1615801562001e51576000805461ffff19166101011790555b620018f93362001837565b6060831562001e6d57508162001e9a565b82511562001e7e5782518084602001fd5b8160405162461bcd60e51b81526004016200049d91906200281a565b9392505050565b6109938062002a6183390190565b61053380620033f483390190565b600082601f83011262001ecf57600080fd5b8135602062001ee862001ee2836200291d565b620028e9565b80838252828201915082860187848660051b890101111562001f0957600080fd5b60005b8581101562001f3557813562001f228162002a3a565b8452928401929084019060010162001f0c565b5090979650505050505050565b600082601f83011262001f5457600080fd5b8135602062001f6762001ee2836200291d565b80838252828201915082860187848660051b890101111562001f8857600080fd5b60005b8581101562001f355762001f9f8262002089565b8452928401929084019060010162001f8b565b600082601f83011262001fc457600080fd5b8135602062001fd762001ee2836200291d565b80838252828201915082860187848660051b890101111562001ff857600080fd5b60005b8581101562001f355781358452928401929084019060010162001ffb565b600082601f8301126200202b57600080fd5b813560206200203e62001ee2836200291d565b80838252828201915082860187848660051b89010111156200205f57600080fd5b60005b8581101562001f35576200207682620020a1565b8452928401929084019060010162002062565b803561ffff811681146200209c57600080fd5b919050565b803563ffffffff811681146200209c57600080fd5b805169ffffffffffffffffffff811681146200209c57600080fd5b600060208284031215620020e457600080fd5b813562001e9a8162002a3a565b6000602082840312156200210457600080fd5b815162001e9a8162002a3a565b6000806000606084860312156200212757600080fd5b8335620021348162002a3a565b92506020840135620021468162002a3a565b91506040840135620021588162002a3a565b809150509250925092565b600080600080608085870312156200217a57600080fd5b8435620021878162002a3a565b93506020850135620021998162002a3a565b9250604085013567ffffffffffffffff80821115620021b757600080fd5b620021c58883890162001ebd565b93506060870135915080821115620021dc57600080fd5b50620021eb8782880162001fb2565b91505092959194509250565b6000806000606084860312156200220d57600080fd5b83356200221a8162002a3a565b9250602084013567ffffffffffffffff8111156200223757600080fd5b620022458682870162001ebd565b9250506040840135620021588162002a50565b600080604083850312156200226c57600080fd5b8235620022798162002a3a565b915060208381013567ffffffffffffffff808211156200229857600080fd5b818601915086601f830112620022ad57600080fd5b813581811115620022c257620022c262002a24565b620022d6601f8201601f19168501620028e9565b91508082528784828501011115620022ed57600080fd5b80848401858401376000848284010152508093505050509250929050565b6000806000606084860312156200232157600080fd5b833567ffffffffffffffff808211156200233a57600080fd5b620023488783880162001ebd565b945060208601359150808211156200235f57600080fd5b506200236e8682870162001fb2565b925050604084013590509250925092565b6000806000606084860312156200239557600080fd5b833567ffffffffffffffff80821115620023ae57600080fd5b818601915086601f830112620023c357600080fd5b81356020620023d662001ee2836200291d565b8083825282820191508286018b848660051b8901011115620023f757600080fd5b600096505b8487101562002427578035620024128162002a3a565b835260019690960195918301918301620023fc565b50975050870135925050808211156200243f57600080fd5b6200244d8783880162002019565b935060408601359150808211156200246457600080fd5b50620024738682870162001f42565b9150509250925092565b600080604083850312156200249157600080fd5b6200249c8362002089565b9150620024ac6020840162002089565b90509250929050565b600060208284031215620024c857600080fd5b5035919050565b600060208284031215620024e257600080fd5b5051919050565b60008060408385031215620024fd57600080fd5b82519150602083015180151581146200251557600080fd5b809150509250929050565b600080604083850312156200253457600080fd5b50508035926020909101359150565b600080600080608085870312156200255a57600080fd5b8451935060208501516200256e8162002a50565b6040860151909350620025818162002a3a565b6060959095015193969295505050565b600060208284031215620025a457600080fd5b62001e9a82620020a1565b600080600080600060a08688031215620025c857600080fd5b620025d386620020b6565b9450602086015193506040860151925060608601519150620025f860808701620020b6565b90509295509295909350565b600081518084526020808501945080840160005b83811015620026365781518752958201959082019060010162002618565b509495945050505050565b600081518084526200265b816020860160208601620029a4565b601f01601f19169290920160200192915050565b815160009082906020808601845b83811015620026a45781516001600160a01b0316855293820193908201906001016200267d565b50929695505050505050565b815160009082906020808601845b83811015620026a457815163ffffffff1685529382019390820190600101620026be565b60008251620026f6818460208701620029a4565b9190910192915050565b60018060a01b038516815283602082015260806040820152600062002729608083018562002604565b905082606083015295945050505050565b6001600160a01b0383168152604060208201819052600090620027609083018462002641565b949350505050565b604080825283519082018190526000906020906060840190828701845b82811015620027ac5781516001600160a01b03168452928401929084019060010162002785565b50505083810382850152620027c2818662002604565b9695505050505050565b604080825283519082018190526000906020906060840190828701845b828110156200280b57815161ffff1684529284019290840190600101620027e9565b50505092019290925292915050565b60208152600062001e9a602083018462002641565b6020808252602e908201527f496e697469616c697a61626c653a20636f6e747261637420697320616c72656160408201526d191e481a5b9a5d1a585b1a5e995960921b606082015260800190565b6020808252818101527f4f776e61626c653a2063616c6c6572206973206e6f7420746865206f776e6572604082015260600190565b6020808252601f908201527f5265656e7472616e637947756172643a207265656e7472616e742063616c6c00604082015260600190565b604051601f8201601f1916810167ffffffffffffffff8111828210171562002915576200291562002a24565b604052919050565b600067ffffffffffffffff8211156200293a576200293a62002a24565b5060051b60200190565b600082198211156200295a576200295a620029f8565b500190565b6000826200297d57634e487b7160e01b600052601260045260246000fd5b500490565b60008160001904831182151516156200299f576200299f620029f8565b500290565b60005b83811015620029c1578181015183820152602001620029a7565b8381111562000ed55750506000910152565b600061ffff80831681811415620029ee57620029ee620029f8565b6001019392505050565b634e487b7160e01b600052601160045260246000fd5b634e487b7160e01b600052603260045260246000fd5b634e487b7160e01b600052604160045260246000fd5b6001600160a01b0381168114620003a257600080fd5b60ff81168114620003a257600080fdfe608060405260405161099338038061099383398101604081905261002291610470565b61004d60017fa3f0ad74e5423aebfd80d3ef4346578335a9a72aeaee59ff6cb3582b35133d5161057f565b60008051602061094c83398151915214610069576100696105d0565b6100758282600061007c565b50506105fc565b61008583610156565b6040516001600160a01b038416907f1cf3b03a6cf19fa2baba4df148e9dcabedea7f8a5c07840e207e5c089be95d3e90600090a26000825111806100c65750805b156101515761014f836001600160a01b0316635c60da1b6040518163ffffffff1660e01b815260040160206040518083038186803b15801561010757600080fd5b505afa15801561011b573d6000803e3d6000fd5b505050506040513d601f19601f8201168201806040525081019061013f9190610455565b836102f660201b6100291760201c565b505b505050565b6101698161032260201b6100551760201c565b6101c85760405162461bcd60e51b815260206004820152602560248201527f455243313936373a206e657720626561636f6e206973206e6f74206120636f6e6044820152641d1c9858dd60da1b60648201526084015b60405180910390fd5b61024b816001600160a01b0316635c60da1b6040518163ffffffff1660e01b815260040160206040518083038186803b15801561020457600080fd5b505afa158015610218573d6000803e3d6000fd5b505050506040513d601f19601f8201168201806040525081019061023c9190610455565b61032260201b6100551760201c565b6102b05760405162461bcd60e51b815260206004820152603060248201527f455243313936373a20626561636f6e20696d706c656d656e746174696f6e206960448201526f1cc81b9bdd08184818dbdb9d1c9858dd60821b60648201526084016101bf565b806102d560008051602061094c83398151915260001b61032860201b61005b1760201c565b80546001600160a01b0319166001600160a01b039290921691909117905550565b606061031b838360405180606001604052806027815260200161096c6027913961032b565b9392505050565b3b151590565b90565b6060833b61038a5760405162461bcd60e51b815260206004820152602660248201527f416464726573733a2064656c65676174652063616c6c20746f206e6f6e2d636f6044820152651b9d1c9858dd60d21b60648201526084016101bf565b600080856001600160a01b0316856040516103a59190610530565b600060405180830381855af49150503d80600081146103e0576040519150601f19603f3d011682016040523d82523d6000602084013e6103e5565b606091505b5090925090506103f6828286610400565b9695505050505050565b6060831561040f57508161031b565b82511561041f5782518084602001fd5b8160405162461bcd60e51b81526004016101bf919061054c565b80516001600160a01b038116811461045057600080fd5b919050565b60006020828403121561046757600080fd5b61031b82610439565b6000806040838503121561048357600080fd5b61048c83610439565b60208401519092506001600160401b03808211156104a957600080fd5b818501915085601f8301126104bd57600080fd5b8151818111156104cf576104cf6105e6565b604051601f8201601f19908116603f011681019083821181831017156104f7576104f76105e6565b8160405282815288602084870101111561051057600080fd5b6105218360208301602088016105a4565b80955050505050509250929050565b600082516105428184602087016105a4565b9190910192915050565b602081526000825180602084015261056b8160408501602087016105a4565b601f01601f19169190910160400192915050565b60008282101561059f57634e487b7160e01b600052601160045260246000fd5b500390565b60005b838110156105bf5781810151838201526020016105a7565b8381111561014f5750506000910152565b634e487b7160e01b600052600160045260246000fd5b634e487b7160e01b600052604160045260246000fd5b6103418061060b6000396000f3fe60806040523661001357610011610017565b005b6100115b61002761002261005e565b610106565b565b606061004e83836040518060600160405280602781526020016102e56027913961012a565b9392505050565b3b151590565b90565b60006100917fa3f0ad74e5423aebfd80d3ef4346578335a9a72aeaee59ff6cb3582b35133d50546001600160a01b031690565b6001600160a01b0316635c60da1b6040518163ffffffff1660e01b815260040160206040518083038186803b1580156100c957600080fd5b505afa1580156100dd573d6000803e3d6000fd5b505050506040513d601f19601f82011682018060405250810190610101919061023c565b905090565b3660008037600080366000845af43d6000803e808015610125573d6000f35b3d6000fd5b6060833b61018e5760405162461bcd60e51b815260206004820152602660248201527f416464726573733a2064656c65676174652063616c6c20746f206e6f6e2d636f6044820152651b9d1c9858dd60d21b60648201526084015b60405180910390fd5b600080856001600160a01b0316856040516101a99190610265565b600060405180830381855af49150503d80600081146101e4576040519150601f19603f3d011682016040523d82523d6000602084013e6101e9565b606091505b50915091506101f9828286610203565b9695505050505050565b6060831561021257508161004e565b8251156102225782518084602001fd5b8160405162461bcd60e51b81526004016101859190610281565b60006020828403121561024e57600080fd5b81516001600160a01b038116811461004e57600080fd5b600082516102778184602087016102b4565b9190910192915050565b60208152600082518060208401526102a08160408501602087016102b4565b601f01601f19169190910160400192915050565b60005b838110156102cf5781810151838201526020016102b7565b838111156102de576000848401525b5050505056fe416464726573733a206c6f772d6c6576656c2064656c65676174652063616c6c206661696c6564a2646970667358221220083f5423fec368aabbb0acd6db8adae396291ef41caa6b7829ce8e6ae4b7618364736f6c63430008070033a3f0ad74e5423aebfd80d3ef4346578335a9a72aeaee59ff6cb3582b35133d50416464726573733a206c6f772d6c6576656c2064656c65676174652063616c6c206661696c6564608060405234801561001057600080fd5b5060405161053338038061053383398101604081905261002f91610130565b600080546001600160a01b031916339081178255604051909182917f8be0079c531659141344cd1fd0a4f28419497f9722a3daafe3b4186f6b6457e0908290a3506100798161007f565b50610160565b6100928161012a60201b6102971760201c565b6101085760405162461bcd60e51b815260206004820152603360248201527f5570677261646561626c65426561636f6e3a20696d706c656d656e746174696f60448201527f6e206973206e6f74206120636f6e747261637400000000000000000000000000606482015260840160405180910390fd5b600180546001600160a01b0319166001600160a01b0392909216919091179055565b3b151590565b60006020828403121561014257600080fd5b81516001600160a01b038116811461015957600080fd5b9392505050565b6103c48061016f6000396000f3fe608060405234801561001057600080fd5b50600436106100575760003560e01c80633659cfe61461005c5780635c60da1b14610071578063715018a61461009a5780638da5cb5b146100a2578063f2fde38b146100b3575b600080fd5b61006f61006a366004610329565b6100c6565b005b6001546001600160a01b03165b6040516001600160a01b03909116815260200160405180910390f35b61006f610139565b6000546001600160a01b031661007e565b61006f6100c1366004610329565b6101ad565b6000546001600160a01b031633146100f95760405162461bcd60e51b81526004016100f090610359565b60405180910390fd5b6101028161029d565b6040516001600160a01b038216907fbc7cd75a20ee27fd9adebab32041f755214dbc6bffa90cc0225b39da2e5c2d3b90600090a250565b6000546001600160a01b031633146101635760405162461bcd60e51b81526004016100f090610359565b600080546040516001600160a01b03909116907f8be0079c531659141344cd1fd0a4f28419497f9722a3daafe3b4186f6b6457e0908390a3600080546001600160a01b0319169055565b6000546001600160a01b031633146101d75760405162461bcd60e51b81526004016100f090610359565b6001600160a01b03811661023c5760405162461bcd60e51b815260206004820152602660248201527f4f776e61626c653a206e6577206f776e657220697320746865207a65726f206160448201526564647265737360d01b60648201526084016100f0565b600080546040516001600160a01b03808516939216917f8be0079c531659141344cd1fd0a4f28419497f9722a3daafe3b4186f6b6457e091a3600080546001600160a01b0319166001600160a01b0392909216919091179055565b3b151590565b803b6103075760405162461bcd60e51b815260206004820152603360248201527f5570677261646561626c65426561636f6e3a20696d706c656d656e746174696f6044820152721b881a5cc81b9bdd08184818dbdb9d1c9858dd606a1b60648201526084016100f0565b600180546001600160a01b0319166001600160a01b0392909216919091179055565b60006020828403121561033b57600080fd5b81356001600160a01b038116811461035257600080fd5b9392505050565b6020808252818101527f4f776e61626c653a2063616c6c6572206973206e6f7420746865206f776e657260408201526060019056fea26469706673582212207275df78dfd66d143bcc8b7c3154fdd858d9beab0bf0447ae30d752300bb428764736f6c63430008070033416464726573733a206c6f772d6c6576656c2064656c65676174652063616c6c206661696c6564a2646970667358221220ceeb89004f7d028e00d3fb585e742f435267d81744231edd453060b6b0137b2d64736f6c63430008070033",
  "linkReferences": {},
  "deployedLinkReferences": {}
}