{
  "_format": "hh-sol-artifact-1",
  "contractName": "SliceDummy",
  "sourceName": "contracts/test/slice_test_v1.sol",
  "abi": [
    {
      "anonymous": false,
      "inputs": [
        {
          "indexed": false,
          "internalType": "address",
          "name": "previousAdmin",
          "type": "address"
        },
        {
          "indexed": false,
          "internalType": "address",
          "name": "newAdmin",
          "type": "address"
        }
      ],
      "name": "AdminChanged",
      "type": "event"
    },
    {
      "anonymous": false,
      "inputs": [
        {
          "indexed": true,
          "internalType": "address",
          "name": "beacon",
          "type": "address"
        }
      ],
      "name": "BeaconUpgraded",
      "type": "event"
    },
    {
      "anonymous": false,
      "inputs": [
        {
          "indexed": true,
          "internalType": "address",
          "name": "previousOwner",
          "type": "address"
        },
        {
          "indexed": true,
          "internalType": "address",
          "name": "newOwner",
          "type": "address"
        }
      ],
      "name": "OwnershipTransferred",
      "type": "event"
    },
    {
      "anonymous": false,
      "inputs": [
        {
          "indexed": false,
          "internalType": "address",
          "name": "account",
          "type": "address"
        }
      ],
      "name": "Paused",
      "type": "event"
    },
    {
      "anonymous": false,
      "inputs": [
        {
          "indexed": false,
          "internalType": "address payable[]",
          "name": "slicerAddresses",
          "type": "address[]"
        },
        {
          "indexed": false,
          "internalType": "uint32[]",
          "name": "productIds",
          "type": "uint32[]"
        },
        {
          "indexed": false,
          "internalType": "uint16[]",
          "name": "quantities",
          "type": "uint16[]"
        },
        {
          "indexed": false,
          "internalType": "uint256",
          "name": "totalPaid",
          "type": "uint256"
        }
      ],
      "name": "ProductsPaid",
      "type": "event"
    },
    {
      "anonymous": false,
      "inputs": [
        {
          "indexed": false,
          "internalType": "address",
          "name": "slicerAddress",
          "type": "address"
        },
        {
          "indexed": false,
          "internalType": "uint256",
          "name": "tokenId",
          "type": "uint256"
        },
        {
          "indexed": false,
          "internalType": "address[]",
          "name": "payees",
          "type": "address[]"
        },
        {
          "indexed": false,
          "internalType": "uint256[]",
          "name": "shares",
          "type": "uint256[]"
        },
        {
          "indexed": false,
          "internalType": "uint256",
          "name": "minimumShares",
          "type": "uint256"
        }
      ],
      "name": "TokenSliced",
      "type": "event"
    },
    {
      "anonymous": false,
      "inputs": [
        {
          "indexed": true,
          "internalType": "address",
          "name": "account",
          "type": "address"
        },
        {
          "indexed": false,
          "internalType": "uint256",
          "name": "totalReleased",
          "type": "uint256"
        },
        {
          "indexed": false,
          "internalType": "uint8",
          "name": "slicerPercentage",
          "type": "uint8"
        }
      ],
      "name": "TriggeredRelease",
      "type": "event"
    },
    {
      "anonymous": false,
      "inputs": [
        {
          "indexed": false,
          "internalType": "address",
          "name": "account",
          "type": "address"
        }
      ],
      "name": "Unpaused",
      "type": "event"
    },
    {
      "anonymous": false,
      "inputs": [
        {
          "indexed": true,
          "internalType": "address",
          "name": "implementation",
          "type": "address"
        }
      ],
      "name": "Upgraded",
      "type": "event"
    },
    {
      "inputs": [
        {
          "internalType": "uint32",
          "name": "categoryIndex",
          "type": "uint32"
        }
      ],
      "name": "_addToSliceCategory",
      "outputs": [],
      "stateMutability": "nonpayable",
      "type": "function"
    },
    {
      "inputs": [
        {
          "internalType": "address",
          "name": "from",
          "type": "address"
        },
        {
          "internalType": "address",
          "name": "to",
          "type": "address"
        },
        {
          "internalType": "address[]",
          "name": "slicerAddresses",
          "type": "address[]"
        },
        {
          "internalType": "uint256[]",
          "name": "amounts",
          "type": "uint256[]"
        }
      ],
      "name": "_beforeTransfer",
      "outputs": [],
      "stateMutability": "nonpayable",
      "type": "function"
    },
    {
      "inputs": [
        {
          "internalType": "uint256",
          "name": "id",
          "type": "uint256"
        },
        {
          "internalType": "uint256",
          "name": "minimumShares",
          "type": "uint256"
        }
      ],
      "name": "_createSlicer",
      "outputs": [
        {
          "internalType": "address payable",
          "name": "",
          "type": "address"
        }
      ],
      "stateMutability": "nonpayable",
      "type": "function"
    },
    {
      "inputs": [],
      "name": "_implementation",
      "outputs": [
        {
          "internalType": "address",
          "name": "",
          "type": "address"
        }
      ],
      "stateMutability": "view",
      "type": "function"
    },
    {
      "inputs": [
        {
          "internalType": "uint16",
          "name": "newValueSlice",
          "type": "uint16"
        },
        {
          "internalType": "uint16",
          "name": "newValueRelease",
          "type": "uint16"
        }
      ],
      "name": "_setMaximumBatch",
      "outputs": [],
      "stateMutability": "nonpayable",
      "type": "function"
    },
    {
      "inputs": [],
      "name": "_togglePause",
      "outputs": [],
      "stateMutability": "nonpayable",
      "type": "function"
    },
    {
      "inputs": [
        {
          "internalType": "address",
          "name": "newLogicImpl",
          "type": "address"
        }
      ],
      "name": "_upgradeSlicers",
      "outputs": [],
      "stateMutability": "nonpayable",
      "type": "function"
    },
    {
      "inputs": [],
      "name": "getEthUsd",
      "outputs": [
        {
          "internalType": "int256",
          "name": "",
          "type": "int256"
        }
      ],
      "stateMutability": "view",
      "type": "function"
    },
    {
      "inputs": [
        {
          "internalType": "address",
          "name": "SLCAddress",
          "type": "address"
        },
        {
          "internalType": "address",
          "name": "sliceCoreAddress",
          "type": "address"
        }
      ],
      "name": "initialize",
      "outputs": [],
      "stateMutability": "nonpayable",
      "type": "function"
    },
    {
      "inputs": [],
      "name": "owner",
      "outputs": [
        {
          "internalType": "address",
          "name": "",
          "type": "address"
        }
      ],
      "stateMutability": "view",
      "type": "function"
    },
    {
      "inputs": [],
      "name": "paused",
      "outputs": [
        {
          "internalType": "bool",
          "name": "",
          "type": "bool"
        }
      ],
      "stateMutability": "view",
      "type": "function"
    },
    {
      "inputs": [
        {
          "internalType": "address payable[]",
          "name": "slicerAddresses",
          "type": "address[]"
        },
        {
          "internalType": "uint32[]",
          "name": "productIds",
          "type": "uint32[]"
        },
        {
          "internalType": "uint16[]",
          "name": "quantities",
          "type": "uint16[]"
        }
      ],
      "name": "payProducts",
      "outputs": [],
      "stateMutability": "payable",
      "type": "function"
    },
    {
      "inputs": [],
      "name": "renounceOwnership",
      "outputs": [],
      "stateMutability": "nonpayable",
      "type": "function"
    },
    {
      "inputs": [
        {
          "internalType": "address[]",
          "name": "accounts",
          "type": "address[]"
        },
        {
          "internalType": "uint256[]",
          "name": "shares",
          "type": "uint256[]"
        },
        {
          "internalType": "uint256",
          "name": "minimumShares",
          "type": "uint256"
        }
      ],
      "name": "slice",
      "outputs": [],
      "stateMutability": "nonpayable",
      "type": "function"
    },
    {
      "inputs": [
        {
          "internalType": "uint256",
          "name": "id",
          "type": "uint256"
        }
      ],
      "name": "slicers",
      "outputs": [
        {
          "internalType": "address",
          "name": "",
          "type": "address"
        }
      ],
      "stateMutability": "view",
      "type": "function"
    },
    {
      "inputs": [],
      "name": "testDummy",
      "outputs": [
        {
          "internalType": "int8",
          "name": "",
          "type": "int8"
        }
      ],
      "stateMutability": "pure",
      "type": "function"
    },
    {
      "inputs": [],
      "name": "totalTokens",
      "outputs": [
        {
          "internalType": "uint256",
          "name": "",
          "type": "uint256"
        }
      ],
      "stateMutability": "view",
      "type": "function"
    },
    {
      "inputs": [
        {
          "internalType": "address",
          "name": "newOwner",
          "type": "address"
        }
      ],
      "name": "transferOwnership",
      "outputs": [],
      "stateMutability": "nonpayable",
      "type": "function"
    },
    {
      "inputs": [
        {
          "internalType": "address",
          "name": "account",
          "type": "address"
        },
        {
          "internalType": "address[]",
          "name": "slicerAddresses",
          "type": "address[]"
        },
        {
          "internalType": "uint8",
          "name": "slicerPercentage",
          "type": "uint8"
        }
      ],
      "name": "triggerRelease",
      "outputs": [],
      "stateMutability": "nonpayable",
      "type": "function"
    },
    {
      "inputs": [
        {
          "internalType": "address",
          "name": "account",
          "type": "address"
        },
        {
          "internalType": "address[]",
          "name": "slicerAddresses",
          "type": "address[]"
        }
      ],
      "name": "unreleasedBatch",
      "outputs": [
        {
          "internalType": "uint256[]",
          "name": "",
          "type": "uint256[]"
        }
      ],
      "stateMutability": "view",
      "type": "function"
    },
    {
      "inputs": [
        {
          "internalType": "address",
          "name": "newImplementation",
          "type": "address"
        }
      ],
      "name": "upgradeTo",
      "outputs": [],
      "stateMutability": "nonpayable",
      "type": "function"
    },
    {
      "inputs": [
        {
          "internalType": "address",
          "name": "newImplementation",
          "type": "address"
        },
        {
          "internalType": "bytes",
          "name": "data",
          "type": "bytes"
        }
      ],
      "name": "upgradeToAndCall",
      "outputs": [],
      "stateMutability": "payable",
      "type": "function"
    }
  ],
  "bytecode": "0x608060405234801561001057600080fd5b50613b6c806100206000396000f3fe6080604052600436106200014f5760003560e01c8063817115f111620000b9578063d33f58451162000078578063d33f58451462000369578063dae7d518146200038e578063e4b5461414620003b3578063edeb64ba14620003d5578063efab35b81462000409578063f2fde38b146200042e57600080fd5b8063817115f114620002c95780638913ea4214620002ee5780638ba78c0714620003135780638da5cb5b1462000331578063bb27e0ce146200035157600080fd5b8063485cc9551162000112578063485cc95514620002115780634f1ef286146200023657806359679b0f146200024d5780635c975abb1462000265578063715018a6146200028a5780637e1c0c0914620002a257600080fd5b8063175fa7ea14620001545780632f1f3154146200019657806334d5ca0714620001af5780633659cfe614620001d4578063405b4c3614620001f9575b600080fd5b3480156200016157600080fd5b506200017962000173366004620026a9565b62000453565b6040516001600160a01b0390911681526020015b60405180910390f35b620001ad620001a736600462002573565b620004db565b005b348015620001bc57600080fd5b5062000179620001ce366004620026dd565b62000824565b348015620001e157600080fd5b50620001ad620001f336600462002278565b620008bc565b3480156200020657600080fd5b50620001ad620008e4565b3480156200021e57600080fd5b50620001ad62000230366004620022b8565b62000933565b620001ad620002473660046200244c565b62000a77565b3480156200025a57600080fd5b506200017962000a94565b3480156200027257600080fd5b5060c95460ff1660405190151581526020016200018d565b3480156200029757600080fd5b50620001ad62000b54565b348015620002af57600080fd5b50620002ba62000b8d565b6040519081526020016200018d565b348015620002d657600080fd5b50620001ad620002e8366004620023e0565b62000b9a565b348015620002fb57600080fd5b50620001ad6200030d36600462002671565b62000eae565b3480156200032057600080fd5b50604051602a81526020016200018d565b3480156200033e57600080fd5b506097546001600160a01b031662000179565b3480156200035e57600080fd5b50620002ba62000f04565b3480156200037657600080fd5b50620001ad62000388366004620024ff565b62000f9d565b3480156200039b57600080fd5b50620001ad620003ad366004620022f6565b620013c1565b348015620003c057600080fd5b50620001ad620003d23660046200274e565b50565b348015620003e257600080fd5b50620003fa620003f43660046200238a565b620015a9565b6040516200018d919062002a0d565b3480156200041657600080fd5b50620001ad6200042836600462002278565b620016f1565b3480156200043b57600080fd5b50620001ad6200044d36600462002278565b62001783565b61012f54604051630bafd3f560e11b8152600481018390526000916001600160a01b03169063175fa7ea9060240160206040518083038186803b1580156200049a57600080fd5b505afa158015620004af573d6000803e3d6000fd5b505050506040513d601f19601f82011682018060405250810190620004d5919062002298565b92915050565b600260fb5414156200050a5760405162461bcd60e51b8152600401620005019062002aba565b60405180910390fd5b600260fb558151835114801562000522575080518351145b620005705760405162461bcd60e51b815260206004820152601860248201527f4c656e6774687320646f6e277420636f72726573706f6e640000000000000000604482015260640162000501565b6000805b84518161ffff161015620007d9576000858261ffff16815181106200059d576200059d62002bf7565b602002602001015190506000848361ffff1681518110620005c257620005c262002bf7565b602002602001015161ffff16826001600160a01b031663bfe5d835888661ffff1681518110620005f657620005f662002bf7565b60200260200101516040518263ffffffff1660e01b815260040162000627919063ffffffff91909116815260200190565b60206040518083038186803b1580156200064057600080fd5b505afa15801562000655573d6000803e3d6000fd5b505050506040513d601f19601f820116820180604052508101906200067b9190620026c3565b62000687919062002b67565b90506000878461ffff1681518110620006a457620006a462002bf7565b60200260200101516001600160a01b03168233898761ffff1681518110620006d057620006d062002bf7565b6020026020010151898861ffff1681518110620006f157620006f162002bf7565b60209081029190910101516040516001600160a01b03909316602484015263ffffffff909116604483015261ffff16606482015260840160408051601f198184030181529181526020820180516001600160e01b0316635f938d5360e11b179052516200075f91906200289d565b60006040518083038185875af1925050503d80600081146200079e576040519150601f19603f3d011682016040523d82523d6000602084013e620007a3565b606091505b5050905080620007b257600080fd5b620007be828662002b4c565b94505050508080620007d09062002bbc565b91505062000574565b507ff9c0c1c7138692bd4bff6843cde7f313f634c42eca9375fbd6ae91c4f3269a8c8484848460405162000811949392919062002962565b60405180910390a15050600160fb555050565b61012d54604051602481018490523360448201526064810183905260009182916001600160a01b039091169060840160408051601f198184030181529181526020820180516001600160e01b0316631530a81360e21b17905251620008899062002048565b620008969291906200290b565b604051809103906000f080158015620008b3573d6000803e3d6000fd5b50949350505050565b620008c78162001822565b620003d2816040518060200160405280600081525060006200184f565b6097546001600160a01b03163314620009115760405162461bcd60e51b8152600401620005019062002a85565b60c95460ff1615620009295762000927620019de565b565b6200092762001a73565b600054610100900460ff16806200094d575060005460ff16155b6200096c5760405162461bcd60e51b8152600401620005019062002a37565b600054610100900460ff161580156200098f576000805461ffff19166101011790555b6200099962001af1565b61012e80546001600160a01b038086166001600160a01b03199283161790925561012f8054928516928216929092179091556101328054621e001e63ffffffff199091161790556101308054909116738a753747a1fa494ec906ce90e9f37563a8af630e179055604051839062000a109062002056565b6001600160a01b039091168152602001604051809103906000f08015801562000a3d573d6000803e3d6000fd5b5061012d80546001600160a01b0319166001600160a01b0392909216919091179055801562000a72576000805461ff00191690555b505050565b62000a828262001822565b62000a90828260016200184f565b5050565b6097546000906001600160a01b0316331462000ac45760405162461bcd60e51b8152600401620005019062002a85565b61012d60009054906101000a90046001600160a01b03166001600160a01b0316635c60da1b6040518163ffffffff1660e01b815260040160206040518083038186803b15801562000b1457600080fd5b505afa15801562000b29573d6000803e3d6000fd5b505050506040513d601f19601f8201168201806040525081019062000b4f919062002298565b905090565b6097546001600160a01b0316331462000b815760405162461bcd60e51b8152600401620005019062002a85565b62000927600062001b76565b600062000b4f6101315490565b600260fb54141562000bc05760405162461bcd60e51b8152600401620005019062002aba565b600260fb556101325482516201000090910461ffff16101562000c265760405162461bcd60e51b815260206004820152601960248201527f546f6f206d616e7920736c69636572732072656c656173656400000000000000604482015260640162000501565b823b156000805b84518161ffff16101562000e53576000858261ffff168151811062000c565762000c5662002bf7565b6020908102919091010151604051632a67293d60e01b81526001600160a01b038981166004830152919250600091831690632a67293d9060240160206040518083038186803b15801562000ca957600080fd5b505afa15801562000cbe573d6000803e3d6000fd5b505050506040513d601f19601f8201168201806040525081019062000ce49190620026c3565b111562000e3d57604051631916558760e01b81526001600160a01b03888116600483015260009190831690631916558790602401602060405180830381600087803b15801562000d3357600080fd5b505af115801562000d48573d6000803e3d6000fd5b505050506040513d601f19601f8201168201806040525081019062000d6e9190620026c3565b9050841562000e2d5761012e5487516001600160a01b039091169063deb0e991908a9084908b9061ffff891690811062000dac5762000dac62002bf7565b60209081029190910101516040516001600160e01b031960e086901b1681526001600160a01b039384166004820152602481019290925291909116604482015260ff89166064820152608401600060405180830381600087803b15801562000e1357600080fd5b505af115801562000e28573d6000803e3d6000fd5b505050505b62000e39818562002b4c565b9350505b508062000e4a8162002bbc565b91505062000c2d565b50801562000ea2576040805182815260ff851660208201526001600160a01b038716917fc3fb528a4237f3152c096612970ef465ede8418e8e76bf125a4af53c8284ec43910160405180910390a25b5050600160fb55505050565b6097546001600160a01b0316331462000edb5760405162461bcd60e51b8152600401620005019062002a85565b610132805461ffff928316620100000263ffffffff199091169290931691909117919091179055565b60008061013060009054906101000a90046001600160a01b03166001600160a01b031663feaf968c6040518163ffffffff1660e01b815260040160a06040518083038186803b15801562000f5757600080fd5b505afa15801562000f6c573d6000803e3d6000fd5b505050506040513d601f19601f8201168201806040525081019062000f9291906200276c565b509195945050505050565b60c95460ff161562000fe55760405162461bcd60e51b815260206004820152601060248201526f14185d5cd8589b194e881c185d5cd95960821b604482015260640162000501565b600260fb5414156200100b5760405162461bcd60e51b8152600401620005019062002aba565b600260fb5560006200101d6101315490565b61013254855191925060009161ffff9091161015620010735760405162461bcd60e51b8152602060048201526011602482015270546f6f206d616e79206163636f756e747360781b604482015260640162000501565b8351855114620010c65760405162461bcd60e51b815260206004820152601760248201527f496e7075747320646f6e277420636f72726573706f6e64000000000000000000604482015260640162000501565b60008311620011115760405162461bcd60e51b815260206004820152601660248201527553706563696679206d696e696d756d2073686172657360501b604482015260640162000501565b60006200111f838562000824565b90508060005b87518161ffff161015620012ae576200115e888261ffff168151811062001150576200115062002bf7565b60200260200101513b151590565b1562001190576200119083898361ffff168151811062001182576200118262002bf7565b602002602001015162001bc8565b83158015620011bf575085878261ffff1681518110620011b457620011b462002bf7565b602002602001015110155b15620011ca57600193505b61012f5488516001600160a01b039091169063303cd08a908a9061ffff8516908110620011fb57620011fb62002bf7565b6020026020010151878a8561ffff16815181106200121d576200121d62002bf7565b60209081029190910101516040516001600160e01b031960e086901b1681526001600160a01b039384166004820152602481019290925260448201529086166064820152608401600060405180830381600087803b1580156200127f57600080fd5b505af115801562001294573d6000803e3d6000fd5b505050508080620012a59062002bbc565b91505062001125565b5082620012fe5760405162461bcd60e51b815260206004820152601c60248201527f4e6f206163636f756e742068617320656e6f7567682073686172657300000000604482015260640162000501565b60405163fd5e12e360e01b81526001600160a01b0382169063fd5e12e3906200132e908a908a9060040162002939565b600060405180830381600087803b1580156200134957600080fd5b505af11580156200135e573d6000803e3d6000fd5b505050506200137261013180546001019055565b7fabb4a0d49573e631c30bbcf7a3c6e5cf60283225f4a12dcd3d75a603760960698285898989604051620013ab959493929190620028bb565b60405180910390a15050600160fb555050505050565b61012f546001600160a01b031633146200140d5760405162461bcd60e51b815260206004820152600c60248201526b155b985d5d1a1bdc9a5e995960a21b604482015260640162000501565b823b15156200141f8584600062000b9a565b60005b83518161ffff161015620015a157828161ffff168151811062001449576200144962002bf7565b602002602001015160001415620014985760405162461bcd60e51b81526020600482015260126024820152710416d6f756e742063616e6e6f7420626520360741b604482015260640162000501565b81156200153e57838161ffff1681518110620014b857620014b862002bf7565b60200260200101516001600160a01b0316856001600160a01b03161415620015125760405162461bcd60e51b815260206004820152600c60248201526b05061796d656e74206c6f6f760a41b604482015260640162000501565b6200153e848261ffff16815181106200152f576200152f62002bf7565b60200260200101518662001bc8565b6200158c8686868461ffff16815181106200155d576200155d62002bf7565b6020026020010151868561ffff16815181106200157e576200157e62002bf7565b602002602001015162001d0e565b80620015988162002bbc565b91505062001422565b505050505050565b60606000825167ffffffffffffffff811115620015ca57620015ca62002c0d565b604051908082528060200260200182016040528015620015f4578160200160208202803683370190505b50905060005b83518161ffff161015620016e9576000848261ffff168151811062001623576200162362002bf7565b6020908102919091010151604051632a67293d60e01b81526001600160a01b03888116600483015291925090821690632a67293d9060240160206040518083038186803b1580156200167457600080fd5b505afa15801562001689573d6000803e3d6000fd5b505050506040513d601f19601f82011682018060405250810190620016af9190620026c3565b838361ffff1681518110620016c857620016c862002bf7565b60209081029190910101525080620016e08162002bbc565b915050620015fa565b509392505050565b6097546001600160a01b031633146200171e5760405162461bcd60e51b8152600401620005019062002a85565b61012d54604051631b2ce7f360e11b81526001600160a01b03838116600483015290911690633659cfe690602401600060405180830381600087803b1580156200176757600080fd5b505af11580156200177c573d6000803e3d6000fd5b5050505050565b6097546001600160a01b03163314620017b05760405162461bcd60e51b8152600401620005019062002a85565b6001600160a01b038116620018175760405162461bcd60e51b815260206004820152602660248201527f4f776e61626c653a206e6577206f776e657220697320746865207a65726f206160448201526564647265737360d01b606482015260840162000501565b620003d28162001b76565b6097546001600160a01b03163314620003d25760405162461bcd60e51b8152600401620005019062002a85565b6000620018837f360894a13ba1a3210667c828492db98dca3e2076cc3735a920a3ca505d382bbc546001600160a01b031690565b9050620018908462001d4f565b6000835111806200189e5750815b15620018b257620018b0848462001df6565b505b7f4910fdfa16fed3260ed0e7147f7cc6da11a60208b5b9406d12a635614ffd9143805460ff166200177c57805460ff191660011781556040516001600160a01b03831660248201526200193490869060440160408051601f198184030181529190526020810180516001600160e01b0316631b2ce7f360e11b17905262001df6565b50805460ff191681557f360894a13ba1a3210667c828492db98dca3e2076cc3735a920a3ca505d382bbc546001600160a01b03838116911614620019d35760405162461bcd60e51b815260206004820152602f60248201527f45524331393637557067726164653a207570677261646520627265616b73206660448201526e75727468657220757067726164657360881b606482015260840162000501565b6200177c8562001eea565b60c95460ff1662001a295760405162461bcd60e51b815260206004820152601460248201527314185d5cd8589b194e881b9bdd081c185d5cd95960621b604482015260640162000501565b60c9805460ff191690557f5db9ee0a495bf2e6ff9c91a7834c1ba4fdd244a5e8aa4e537bd38aeae4b073aa335b6040516001600160a01b03909116815260200160405180910390a1565b60c95460ff161562001abb5760405162461bcd60e51b815260206004820152601060248201526f14185d5cd8589b194e881c185d5cd95960821b604482015260640162000501565b60c9805460ff191660011790557f62e78cea01bee320cd4e420270b5ea74000d11b0c9f74754ebdbfc544b05a25862001a563390565b600054610100900460ff168062001b0b575060005460ff16155b62001b2a5760405162461bcd60e51b8152600401620005019062002a37565b600054610100900460ff1615801562001b4d576000805461ffff19166101011790555b62001b5762001f2c565b62001b6162001f9c565b8015620003d2576000805461ff001916905550565b609780546001600160a01b038381166001600160a01b0319831681179093556040519116919082907f8be0079c531659141344cd1fd0a4f28419497f9722a3daafe3b4186f6b6457e090600090a35050565b600082905060008290506000816001600160a01b031663957e07b66040518163ffffffff1660e01b815260040160806040518083038186803b15801562001c0e57600080fd5b505afa15801562001c23573d6000803e3d6000fd5b505050506040513d601f19601f8201168201806040525081019062001c49919062002700565b5050509050836001600160a01b031662001c638262000453565b6001600160a01b03161462001caa5760405162461bcd60e51b815260206004820152600c60248201526b2737ba10309029b634b1b2b960a11b604482015260640162000501565b60405163044eecfd60e41b8152600481018290526001600160a01b038416906344eecfd0906024015b600060405180830381600087803b15801562001cee57600080fd5b505af115801562001d03573d6000803e3d6000fd5b505050505050505050565b60405163177e569160e31b81526001600160a01b03858116600483015284811660248301526044820183905283919082169063bbf2b4889060640162001cd3565b803b62001db55760405162461bcd60e51b815260206004820152602d60248201527f455243313936373a206e657720696d706c656d656e746174696f6e206973206e60448201526c1bdd08184818dbdb9d1c9858dd609a1b606482015260840162000501565b7f360894a13ba1a3210667c828492db98dca3e2076cc3735a920a3ca505d382bbc80546001600160a01b0319166001600160a01b0392909216919091179055565b6060823b62001e575760405162461bcd60e51b815260206004820152602660248201527f416464726573733a2064656c65676174652063616c6c20746f206e6f6e2d636f6044820152651b9d1c9858dd60d21b606482015260840162000501565b600080846001600160a01b03168460405162001e7491906200289d565b600060405180830381855af49150503d806000811462001eb1576040519150601f19603f3d011682016040523d82523d6000602084013e62001eb6565b606091505b509150915062001ee1828260405180606001604052806027815260200162003b106027913962002003565b95945050505050565b62001ef58162001d4f565b6040516001600160a01b038216907fbc7cd75a20ee27fd9adebab32041f755214dbc6bffa90cc0225b39da2e5c2d3b90600090a250565b600054610100900460ff168062001f46575060005460ff16155b62001f655760405162461bcd60e51b8152600401620005019062002a37565b600054610100900460ff1615801562001b61576000805461ffff19166101011790558015620003d2576000805461ff001916905550565b600054610100900460ff168062001fb6575060005460ff16155b62001fd55760405162461bcd60e51b8152600401620005019062002a37565b600054610100900460ff1615801562001ff8576000805461ffff19166101011790555b62001b613362001b76565b606083156200201457508162002041565b825115620020255782518084602001fd5b8160405162461bcd60e51b815260040162000501919062002a22565b9392505050565b6109938062002c4a83390190565b61053380620035dd83390190565b600082601f8301126200207657600080fd5b813560206200208f620020898362002b25565b62002af1565b80838252828201915082860187848660051b8901011115620020b057600080fd5b60005b85811015620020dc578135620020c98162002c23565b84529284019290840190600101620020b3565b5090979650505050505050565b600082601f830112620020fb57600080fd5b813560206200210e620020898362002b25565b80838252828201915082860187848660051b89010111156200212f57600080fd5b60005b85811015620020dc57620021468262002230565b8452928401929084019060010162002132565b600082601f8301126200216b57600080fd5b813560206200217e620020898362002b25565b80838252828201915082860187848660051b89010111156200219f57600080fd5b60005b85811015620020dc57813584529284019290840190600101620021a2565b600082601f830112620021d257600080fd5b81356020620021e5620020898362002b25565b80838252828201915082860187848660051b89010111156200220657600080fd5b60005b85811015620020dc576200221d8262002248565b8452928401929084019060010162002209565b803561ffff811681146200224357600080fd5b919050565b803563ffffffff811681146200224357600080fd5b805169ffffffffffffffffffff811681146200224357600080fd5b6000602082840312156200228b57600080fd5b8135620020418162002c23565b600060208284031215620022ab57600080fd5b8151620020418162002c23565b60008060408385031215620022cc57600080fd5b8235620022d98162002c23565b91506020830135620022eb8162002c23565b809150509250929050565b600080600080608085870312156200230d57600080fd5b84356200231a8162002c23565b935060208501356200232c8162002c23565b9250604085013567ffffffffffffffff808211156200234a57600080fd5b620023588883890162002064565b935060608701359150808211156200236f57600080fd5b506200237e8782880162002159565b91505092959194509250565b600080604083850312156200239e57600080fd5b8235620023ab8162002c23565b9150602083013567ffffffffffffffff811115620023c857600080fd5b620023d68582860162002064565b9150509250929050565b600080600060608486031215620023f657600080fd5b8335620024038162002c23565b9250602084013567ffffffffffffffff8111156200242057600080fd5b6200242e8682870162002064565b9250506040840135620024418162002c39565b809150509250925092565b600080604083850312156200246057600080fd5b82356200246d8162002c23565b915060208381013567ffffffffffffffff808211156200248c57600080fd5b818601915086601f830112620024a157600080fd5b813581811115620024b657620024b662002c0d565b620024ca601f8201601f1916850162002af1565b91508082528784828501011115620024e157600080fd5b80848401858401376000848284010152508093505050509250929050565b6000806000606084860312156200251557600080fd5b833567ffffffffffffffff808211156200252e57600080fd5b6200253c8783880162002064565b945060208601359150808211156200255357600080fd5b50620025628682870162002159565b925050604084013590509250925092565b6000806000606084860312156200258957600080fd5b833567ffffffffffffffff80821115620025a257600080fd5b818601915086601f830112620025b757600080fd5b81356020620025ca620020898362002b25565b8083825282820191508286018b848660051b8901011115620025eb57600080fd5b600096505b848710156200261b578035620026068162002c23565b835260019690960195918301918301620025f0565b50975050870135925050808211156200263357600080fd5b6200264187838801620021c0565b935060408601359150808211156200265857600080fd5b506200266786828701620020e9565b9150509250925092565b600080604083850312156200268557600080fd5b620026908362002230565b9150620026a06020840162002230565b90509250929050565b600060208284031215620026bc57600080fd5b5035919050565b600060208284031215620026d657600080fd5b5051919050565b60008060408385031215620026f157600080fd5b50508035926020909101359150565b600080600080608085870312156200271757600080fd5b8451935060208501516200272b8162002c39565b60408601519093506200273e8162002c23565b6060959095015193969295505050565b6000602082840312156200276157600080fd5b620020418262002248565b600080600080600060a086880312156200278557600080fd5b62002790866200225d565b9450602086015193506040860151925060608601519150620027b5608087016200225d565b90509295509295909350565b600081518084526020808501945080840160005b83811015620027fc5781516001600160a01b031687529582019590820190600101620027d5565b509495945050505050565b600081518084526020808501945080840160005b83811015620027fc57815161ffff16875295820195908201906001016200281b565b600081518084526020808501945080840160005b83811015620027fc5781518752958201959082019060010162002851565b600081518084526200288981602086016020860162002b89565b601f01601f19169290920160200192915050565b60008251620028b181846020870162002b89565b9190910192915050565b60018060a01b038616815284602082015260a060408201526000620028e460a0830186620027c1565b8281036060840152620028f881866200283d565b9150508260808301529695505050505050565b6001600160a01b038316815260406020820181905260009062002931908301846200286f565b949350505050565b6040815260006200294e6040830185620027c1565b828103602084015262001ee181856200283d565b6080808252855190820181905260009060209060a0840190828901845b82811015620029a65781516001600160a01b0316845292840192908401906001016200297f565b5050508381038285015286518082528783019183019060005b81811015620029e357835163ffffffff1683529284019291840191600101620029bf565b50508481036040860152620029f9818862002807565b935050505082606083015295945050505050565b6020815260006200204160208301846200283d565b6020815260006200204160208301846200286f565b6020808252602e908201527f496e697469616c697a61626c653a20636f6e747261637420697320616c72656160408201526d191e481a5b9a5d1a585b1a5e995960921b606082015260800190565b6020808252818101527f4f776e61626c653a2063616c6c6572206973206e6f7420746865206f776e6572604082015260600190565b6020808252601f908201527f5265656e7472616e637947756172643a207265656e7472616e742063616c6c00604082015260600190565b604051601f8201601f1916810167ffffffffffffffff8111828210171562002b1d5762002b1d62002c0d565b604052919050565b600067ffffffffffffffff82111562002b425762002b4262002c0d565b5060051b60200190565b6000821982111562002b625762002b6262002be1565b500190565b600081600019048311821515161562002b845762002b8462002be1565b500290565b60005b8381101562002ba657818101518382015260200162002b8c565b8381111562002bb6576000848401525b50505050565b600061ffff8083168181141562002bd75762002bd762002be1565b6001019392505050565b634e487b7160e01b600052601160045260246000fd5b634e487b7160e01b600052603260045260246000fd5b634e487b7160e01b600052604160045260246000fd5b6001600160a01b0381168114620003d257600080fd5b60ff81168114620003d257600080fdfe608060405260405161099338038061099383398101604081905261002291610470565b61004d60017fa3f0ad74e5423aebfd80d3ef4346578335a9a72aeaee59ff6cb3582b35133d5161057f565b60008051602061094c83398151915214610069576100696105d0565b6100758282600061007c565b50506105fc565b61008583610156565b6040516001600160a01b038416907f1cf3b03a6cf19fa2baba4df148e9dcabedea7f8a5c07840e207e5c089be95d3e90600090a26000825111806100c65750805b156101515761014f836001600160a01b0316635c60da1b6040518163ffffffff1660e01b815260040160206040518083038186803b15801561010757600080fd5b505afa15801561011b573d6000803e3d6000fd5b505050506040513d601f19601f8201168201806040525081019061013f9190610455565b836102f660201b6100291760201c565b505b505050565b6101698161032260201b6100551760201c565b6101c85760405162461bcd60e51b815260206004820152602560248201527f455243313936373a206e657720626561636f6e206973206e6f74206120636f6e6044820152641d1c9858dd60da1b60648201526084015b60405180910390fd5b61024b816001600160a01b0316635c60da1b6040518163ffffffff1660e01b815260040160206040518083038186803b15801561020457600080fd5b505afa158015610218573d6000803e3d6000fd5b505050506040513d601f19601f8201168201806040525081019061023c9190610455565b61032260201b6100551760201c565b6102b05760405162461bcd60e51b815260206004820152603060248201527f455243313936373a20626561636f6e20696d706c656d656e746174696f6e206960448201526f1cc81b9bdd08184818dbdb9d1c9858dd60821b60648201526084016101bf565b806102d560008051602061094c83398151915260001b61032860201b61005b1760201c565b80546001600160a01b0319166001600160a01b039290921691909117905550565b606061031b838360405180606001604052806027815260200161096c6027913961032b565b9392505050565b3b151590565b90565b6060833b61038a5760405162461bcd60e51b815260206004820152602660248201527f416464726573733a2064656c65676174652063616c6c20746f206e6f6e2d636f6044820152651b9d1c9858dd60d21b60648201526084016101bf565b600080856001600160a01b0316856040516103a59190610530565b600060405180830381855af49150503d80600081146103e0576040519150601f19603f3d011682016040523d82523d6000602084013e6103e5565b606091505b5090925090506103f6828286610400565b9695505050505050565b6060831561040f57508161031b565b82511561041f5782518084602001fd5b8160405162461bcd60e51b81526004016101bf919061054c565b80516001600160a01b038116811461045057600080fd5b919050565b60006020828403121561046757600080fd5b61031b82610439565b6000806040838503121561048357600080fd5b61048c83610439565b60208401519092506001600160401b03808211156104a957600080fd5b818501915085601f8301126104bd57600080fd5b8151818111156104cf576104cf6105e6565b604051601f8201601f19908116603f011681019083821181831017156104f7576104f76105e6565b8160405282815288602084870101111561051057600080fd5b6105218360208301602088016105a4565b80955050505050509250929050565b600082516105428184602087016105a4565b9190910192915050565b602081526000825180602084015261056b8160408501602087016105a4565b601f01601f19169190910160400192915050565b60008282101561059f57634e487b7160e01b600052601160045260246000fd5b500390565b60005b838110156105bf5781810151838201526020016105a7565b8381111561014f5750506000910152565b634e487b7160e01b600052600160045260246000fd5b634e487b7160e01b600052604160045260246000fd5b6103418061060b6000396000f3fe60806040523661001357610011610017565b005b6100115b61002761002261005e565b610106565b565b606061004e83836040518060600160405280602781526020016102e56027913961012a565b9392505050565b3b151590565b90565b60006100917fa3f0ad74e5423aebfd80d3ef4346578335a9a72aeaee59ff6cb3582b35133d50546001600160a01b031690565b6001600160a01b0316635c60da1b6040518163ffffffff1660e01b815260040160206040518083038186803b1580156100c957600080fd5b505afa1580156100dd573d6000803e3d6000fd5b505050506040513d601f19601f82011682018060405250810190610101919061023c565b905090565b3660008037600080366000845af43d6000803e808015610125573d6000f35b3d6000fd5b6060833b61018e5760405162461bcd60e51b815260206004820152602660248201527f416464726573733a2064656c65676174652063616c6c20746f206e6f6e2d636f6044820152651b9d1c9858dd60d21b60648201526084015b60405180910390fd5b600080856001600160a01b0316856040516101a99190610265565b600060405180830381855af49150503d80600081146101e4576040519150601f19603f3d011682016040523d82523d6000602084013e6101e9565b606091505b50915091506101f9828286610203565b9695505050505050565b6060831561021257508161004e565b8251156102225782518084602001fd5b8160405162461bcd60e51b81526004016101859190610281565b60006020828403121561024e57600080fd5b81516001600160a01b038116811461004e57600080fd5b600082516102778184602087016102b4565b9190910192915050565b60208152600082518060208401526102a08160408501602087016102b4565b601f01601f19169190910160400192915050565b60005b838110156102cf5781810151838201526020016102b7565b838111156102de576000848401525b5050505056fe416464726573733a206c6f772d6c6576656c2064656c65676174652063616c6c206661696c6564a2646970667358221220083f5423fec368aabbb0acd6db8adae396291ef41caa6b7829ce8e6ae4b7618364736f6c63430008070033a3f0ad74e5423aebfd80d3ef4346578335a9a72aeaee59ff6cb3582b35133d50416464726573733a206c6f772d6c6576656c2064656c65676174652063616c6c206661696c6564608060405234801561001057600080fd5b5060405161053338038061053383398101604081905261002f91610130565b600080546001600160a01b031916339081178255604051909182917f8be0079c531659141344cd1fd0a4f28419497f9722a3daafe3b4186f6b6457e0908290a3506100798161007f565b50610160565b6100928161012a60201b6102971760201c565b6101085760405162461bcd60e51b815260206004820152603360248201527f5570677261646561626c65426561636f6e3a20696d706c656d656e746174696f60448201527f6e206973206e6f74206120636f6e747261637400000000000000000000000000606482015260840160405180910390fd5b600180546001600160a01b0319166001600160a01b0392909216919091179055565b3b151590565b60006020828403121561014257600080fd5b81516001600160a01b038116811461015957600080fd5b9392505050565b6103c48061016f6000396000f3fe608060405234801561001057600080fd5b50600436106100575760003560e01c80633659cfe61461005c5780635c60da1b14610071578063715018a61461009a5780638da5cb5b146100a2578063f2fde38b146100b3575b600080fd5b61006f61006a366004610329565b6100c6565b005b6001546001600160a01b03165b6040516001600160a01b03909116815260200160405180910390f35b61006f610139565b6000546001600160a01b031661007e565b61006f6100c1366004610329565b6101ad565b6000546001600160a01b031633146100f95760405162461bcd60e51b81526004016100f090610359565b60405180910390fd5b6101028161029d565b6040516001600160a01b038216907fbc7cd75a20ee27fd9adebab32041f755214dbc6bffa90cc0225b39da2e5c2d3b90600090a250565b6000546001600160a01b031633146101635760405162461bcd60e51b81526004016100f090610359565b600080546040516001600160a01b03909116907f8be0079c531659141344cd1fd0a4f28419497f9722a3daafe3b4186f6b6457e0908390a3600080546001600160a01b0319169055565b6000546001600160a01b031633146101d75760405162461bcd60e51b81526004016100f090610359565b6001600160a01b03811661023c5760405162461bcd60e51b815260206004820152602660248201527f4f776e61626c653a206e6577206f776e657220697320746865207a65726f206160448201526564647265737360d01b60648201526084016100f0565b600080546040516001600160a01b03808516939216917f8be0079c531659141344cd1fd0a4f28419497f9722a3daafe3b4186f6b6457e091a3600080546001600160a01b0319166001600160a01b0392909216919091179055565b3b151590565b803b6103075760405162461bcd60e51b815260206004820152603360248201527f5570677261646561626c65426561636f6e3a20696d706c656d656e746174696f6044820152721b881a5cc81b9bdd08184818dbdb9d1c9858dd606a1b60648201526084016100f0565b600180546001600160a01b0319166001600160a01b0392909216919091179055565b60006020828403121561033b57600080fd5b81356001600160a01b038116811461035257600080fd5b9392505050565b6020808252818101527f4f776e61626c653a2063616c6c6572206973206e6f7420746865206f776e657260408201526060019056fea26469706673582212207275df78dfd66d143bcc8b7c3154fdd858d9beab0bf0447ae30d752300bb428764736f6c63430008070033416464726573733a206c6f772d6c6576656c2064656c65676174652063616c6c206661696c6564a26469706673582212208b492021f7e034408080b16721fca334665ea76eb607a96e5039ad254851706e64736f6c63430008070033",
  "linkReferences": {},
  "deployedLinkReferences": {}
}