{
  "_format": "hh-sol-artifact-1",
  "contractName": "SlicerDummyV1",
  "sourceName": "contracts/test/slicer_test_v1.sol",
  "abi": [
    {
      "anonymous": false,
      "inputs": [
        {
          "indexed": true,
          "internalType": "uint256",
          "name": "slicerId",
          "type": "uint256"
        }
      ],
      "name": "AddedChildrenSlicer",
      "type": "event"
    },
    {
      "anonymous": false,
      "inputs": [
        {
          "indexed": false,
          "internalType": "address",
          "name": "account",
          "type": "address"
        }
      ],
      "name": "Paused",
      "type": "event"
    },
    {
      "anonymous": false,
      "inputs": [
        {
          "indexed": true,
          "internalType": "address",
          "name": "from",
          "type": "address"
        },
        {
          "indexed": false,
          "internalType": "uint256",
          "name": "amount",
          "type": "uint256"
        }
      ],
      "name": "PaymentReceived",
      "type": "event"
    },
    {
      "anonymous": false,
      "inputs": [
        {
          "indexed": true,
          "internalType": "uint32",
          "name": "productId",
          "type": "uint32"
        },
        {
          "indexed": true,
          "internalType": "uint32",
          "name": "categoryIndex",
          "type": "uint32"
        },
        {
          "indexed": false,
          "internalType": "uint256",
          "name": "price",
          "type": "uint256"
        },
        {
          "indexed": false,
          "internalType": "bool",
          "name": "isUSD",
          "type": "bool"
        },
        {
          "indexed": false,
          "internalType": "bool",
          "name": "isMultiple",
          "type": "bool"
        },
        {
          "indexed": false,
          "internalType": "bool",
          "name": "isInfinite",
          "type": "bool"
        },
        {
          "indexed": false,
          "internalType": "uint32",
          "name": "availableUnits",
          "type": "uint32"
        },
        {
          "indexed": true,
          "internalType": "address",
          "name": "creator",
          "type": "address"
        },
        {
          "indexed": false,
          "internalType": "bytes",
          "name": "data",
          "type": "bytes"
        },
        {
          "indexed": false,
          "internalType": "uint256[]",
          "name": "subSlicersId",
          "type": "uint256[]"
        },
        {
          "indexed": false,
          "internalType": "uint32[]",
          "name": "subProducts",
          "type": "uint32[]"
        }
      ],
      "name": "ProductAdded",
      "type": "event"
    },
    {
      "anonymous": false,
      "inputs": [
        {
          "indexed": true,
          "internalType": "uint32",
          "name": "productId",
          "type": "uint32"
        },
        {
          "indexed": false,
          "internalType": "uint32",
          "name": "categoryIndex",
          "type": "uint32"
        }
      ],
      "name": "ProductCategoryChanged",
      "type": "event"
    },
    {
      "anonymous": false,
      "inputs": [
        {
          "indexed": true,
          "internalType": "uint32",
          "name": "productId",
          "type": "uint32"
        },
        {
          "indexed": false,
          "internalType": "uint256",
          "name": "productPrice",
          "type": "uint256"
        },
        {
          "indexed": false,
          "internalType": "bool",
          "name": "isUSD",
          "type": "bool"
        }
      ],
      "name": "ProductCurrencyChanged",
      "type": "event"
    },
    {
      "anonymous": false,
      "inputs": [
        {
          "indexed": true,
          "internalType": "uint32",
          "name": "productId",
          "type": "uint32"
        },
        {
          "indexed": false,
          "internalType": "bool",
          "name": "isInfinite",
          "type": "bool"
        },
        {
          "indexed": false,
          "internalType": "uint32",
          "name": "units",
          "type": "uint32"
        },
        {
          "indexed": false,
          "internalType": "uint256",
          "name": "productPrice",
          "type": "uint256"
        }
      ],
      "name": "ProductInfoChanged",
      "type": "event"
    },
    {
      "anonymous": false,
      "inputs": [
        {
          "indexed": true,
          "internalType": "address",
          "name": "from",
          "type": "address"
        },
        {
          "indexed": true,
          "internalType": "uint32",
          "name": "productId",
          "type": "uint32"
        },
        {
          "indexed": false,
          "internalType": "uint16",
          "name": "quantity",
          "type": "uint16"
        },
        {
          "indexed": false,
          "internalType": "uint256",
          "name": "productPrice",
          "type": "uint256"
        }
      ],
      "name": "ProductPaid",
      "type": "event"
    },
    {
      "anonymous": false,
      "inputs": [
        {
          "indexed": true,
          "internalType": "uint32",
          "name": "productId",
          "type": "uint32"
        }
      ],
      "name": "ProductRemoved",
      "type": "event"
    },
    {
      "anonymous": false,
      "inputs": [
        {
          "indexed": false,
          "internalType": "uint32[]",
          "name": "serviceIds",
          "type": "uint32[]"
        },
        {
          "indexed": false,
          "internalType": "uint16[]",
          "name": "quantities",
          "type": "uint16[]"
        },
        {
          "indexed": false,
          "internalType": "uint256",
          "name": "amount",
          "type": "uint256"
        }
      ],
      "name": "SLCPaid",
      "type": "event"
    },
    {
      "anonymous": false,
      "inputs": [
        {
          "indexed": true,
          "internalType": "address",
          "name": "payee",
          "type": "address"
        },
        {
          "indexed": false,
          "internalType": "uint256",
          "name": "released",
          "type": "uint256"
        }
      ],
      "name": "TriggeredRelease",
      "type": "event"
    },
    {
      "anonymous": false,
      "inputs": [
        {
          "indexed": false,
          "internalType": "address",
          "name": "account",
          "type": "address"
        }
      ],
      "name": "Unpaused",
      "type": "event"
    },
    {
      "inputs": [
        {
          "internalType": "uint256",
          "name": "id",
          "type": "uint256"
        }
      ],
      "name": "_addChildrenSlicer",
      "outputs": [],
      "stateMutability": "nonpayable",
      "type": "function"
    },
    {
      "inputs": [
        {
          "internalType": "address[]",
          "name": "accounts",
          "type": "address[]"
        },
        {
          "internalType": "uint256[]",
          "name": "shares_",
          "type": "uint256[]"
        }
      ],
      "name": "_addPayees",
      "outputs": [],
      "stateMutability": "nonpayable",
      "type": "function"
    },
    {
      "inputs": [
        {
          "internalType": "uint256",
          "name": "tokenId_",
          "type": "uint256"
        },
        {
          "internalType": "address",
          "name": "slicerCreator_",
          "type": "address"
        },
        {
          "internalType": "uint256",
          "name": "minimumShares_",
          "type": "uint256"
        },
        {
          "internalType": "bool",
          "name": "isCollectible_",
          "type": "bool"
        }
      ],
      "name": "_initialize",
      "outputs": [],
      "stateMutability": "nonpayable",
      "type": "function"
    },
    {
      "inputs": [
        {
          "internalType": "address",
          "name": "account",
          "type": "address"
        },
        {
          "internalType": "uint32",
          "name": "productId",
          "type": "uint32"
        },
        {
          "internalType": "uint16",
          "name": "quantity",
          "type": "uint16"
        }
      ],
      "name": "_payProductFromSlice",
      "outputs": [],
      "stateMutability": "payable",
      "type": "function"
    },
    {
      "inputs": [
        {
          "internalType": "uint256",
          "name": "tokenId",
          "type": "uint256"
        },
        {
          "internalType": "address",
          "name": "account",
          "type": "address"
        },
        {
          "internalType": "uint32",
          "name": "productId",
          "type": "uint32"
        },
        {
          "internalType": "uint16",
          "name": "quantity",
          "type": "uint16"
        }
      ],
      "name": "_payProductFromSlicer",
      "outputs": [],
      "stateMutability": "payable",
      "type": "function"
    },
    {
      "inputs": [
        {
          "internalType": "address",
          "name": "accountFrom",
          "type": "address"
        },
        {
          "internalType": "address",
          "name": "accountTo",
          "type": "address"
        },
        {
          "internalType": "uint256",
          "name": "transferredShares",
          "type": "uint256"
        }
      ],
      "name": "_updatePayees",
      "outputs": [],
      "stateMutability": "nonpayable",
      "type": "function"
    },
    {
      "inputs": [
        {
          "internalType": "uint32",
          "name": "categoryIndex",
          "type": "uint32"
        },
        {
          "internalType": "uint256",
          "name": "price",
          "type": "uint256"
        },
        {
          "internalType": "bool",
          "name": "isUSD",
          "type": "bool"
        },
        {
          "internalType": "bool",
          "name": "isMultiple",
          "type": "bool"
        },
        {
          "internalType": "bool",
          "name": "isInfinite",
          "type": "bool"
        },
        {
          "internalType": "uint32",
          "name": "units",
          "type": "uint32"
        },
        {
          "internalType": "bytes",
          "name": "data",
          "type": "bytes"
        },
        {
          "internalType": "bytes",
          "name": "purchaseData",
          "type": "bytes"
        },
        {
          "internalType": "uint256[]",
          "name": "subSlicersId_",
          "type": "uint256[]"
        },
        {
          "internalType": "uint32[]",
          "name": "subProducts_",
          "type": "uint32[]"
        }
      ],
      "name": "addProduct",
      "outputs": [],
      "stateMutability": "nonpayable",
      "type": "function"
    },
    {
      "inputs": [
        {
          "internalType": "address",
          "name": "payee",
          "type": "address"
        }
      ],
      "name": "isPayeeAllowed",
      "outputs": [
        {
          "internalType": "bool",
          "name": "",
          "type": "bool"
        }
      ],
      "stateMutability": "view",
      "type": "function"
    },
    {
      "inputs": [
        {
          "internalType": "uint32",
          "name": "productId",
          "type": "uint32"
        }
      ],
      "name": "isProduct",
      "outputs": [],
      "stateMutability": "view",
      "type": "function"
    },
    {
      "inputs": [
        {
          "internalType": "address",
          "name": "",
          "type": "address"
        },
        {
          "internalType": "address",
          "name": "",
          "type": "address"
        },
        {
          "internalType": "uint256[]",
          "name": "ids",
          "type": "uint256[]"
        },
        {
          "internalType": "uint256[]",
          "name": "",
          "type": "uint256[]"
        },
        {
          "internalType": "bytes",
          "name": "",
          "type": "bytes"
        }
      ],
      "name": "onERC1155BatchReceived",
      "outputs": [
        {
          "internalType": "bytes4",
          "name": "",
          "type": "bytes4"
        }
      ],
      "stateMutability": "nonpayable",
      "type": "function"
    },
    {
      "inputs": [
        {
          "internalType": "address",
          "name": "",
          "type": "address"
        },
        {
          "internalType": "address",
          "name": "",
          "type": "address"
        },
        {
          "internalType": "uint256",
          "name": "id",
          "type": "uint256"
        },
        {
          "internalType": "uint256",
          "name": "",
          "type": "uint256"
        },
        {
          "internalType": "bytes",
          "name": "",
          "type": "bytes"
        }
      ],
      "name": "onERC1155Received",
      "outputs": [
        {
          "internalType": "bytes4",
          "name": "",
          "type": "bytes4"
        }
      ],
      "stateMutability": "nonpayable",
      "type": "function"
    },
    {
      "inputs": [
        {
          "internalType": "address",
          "name": "",
          "type": "address"
        },
        {
          "internalType": "address",
          "name": "from",
          "type": "address"
        },
        {
          "internalType": "uint256",
          "name": "",
          "type": "uint256"
        },
        {
          "internalType": "bytes",
          "name": "",
          "type": "bytes"
        }
      ],
      "name": "onERC721Received",
      "outputs": [
        {
          "internalType": "bytes4",
          "name": "",
          "type": "bytes4"
        }
      ],
      "stateMutability": "nonpayable",
      "type": "function"
    },
    {
      "inputs": [],
      "name": "paused",
      "outputs": [
        {
          "internalType": "bool",
          "name": "",
          "type": "bool"
        }
      ],
      "stateMutability": "view",
      "type": "function"
    },
    {
      "inputs": [
        {
          "internalType": "uint32[]",
          "name": "serviceIds",
          "type": "uint32[]"
        },
        {
          "internalType": "uint16[]",
          "name": "quantities",
          "type": "uint16[]"
        }
      ],
      "name": "paySLC",
      "outputs": [],
      "stateMutability": "nonpayable",
      "type": "function"
    },
    {
      "inputs": [
        {
          "internalType": "uint32",
          "name": "productId",
          "type": "uint32"
        }
      ],
      "name": "productPrice",
      "outputs": [
        {
          "internalType": "uint256",
          "name": "price",
          "type": "uint256"
        }
      ],
      "stateMutability": "view",
      "type": "function"
    },
    {
      "inputs": [
        {
          "internalType": "address payable",
          "name": "account",
          "type": "address"
        }
      ],
      "name": "release",
      "outputs": [
        {
          "internalType": "uint256",
          "name": "",
          "type": "uint256"
        }
      ],
      "stateMutability": "nonpayable",
      "type": "function"
    },
    {
      "inputs": [
        {
          "internalType": "address",
          "name": "account",
          "type": "address"
        }
      ],
      "name": "released",
      "outputs": [
        {
          "internalType": "uint256",
          "name": "",
          "type": "uint256"
        }
      ],
      "stateMutability": "view",
      "type": "function"
    },
    {
      "inputs": [
        {
          "internalType": "uint32",
          "name": "productId",
          "type": "uint32"
        }
      ],
      "name": "removeProduct",
      "outputs": [],
      "stateMutability": "nonpayable",
      "type": "function"
    },
    {
      "inputs": [
        {
          "internalType": "uint32",
          "name": "productId",
          "type": "uint32"
        },
        {
          "internalType": "uint32",
          "name": "categoryIndex",
          "type": "uint32"
        }
      ],
      "name": "setProductCategory",
      "outputs": [],
      "stateMutability": "nonpayable",
      "type": "function"
    },
    {
      "inputs": [
        {
          "internalType": "uint32",
          "name": "productId",
          "type": "uint32"
        },
        {
          "internalType": "bool",
          "name": "isInfinite",
          "type": "bool"
        },
        {
          "internalType": "uint32",
          "name": "newUnits",
          "type": "uint32"
        },
        {
          "internalType": "uint256",
          "name": "newPrice",
          "type": "uint256"
        }
      ],
      "name": "setProductInfo",
      "outputs": [],
      "stateMutability": "nonpayable",
      "type": "function"
    },
    {
      "inputs": [],
      "name": "slicerInfo",
      "outputs": [
        {
          "internalType": "uint256",
          "name": "",
          "type": "uint256"
        },
        {
          "internalType": "uint8",
          "name": "version",
          "type": "uint8"
        },
        {
          "internalType": "address",
          "name": "creator",
          "type": "address"
        },
        {
          "internalType": "uint256",
          "name": "",
          "type": "uint256"
        }
      ],
      "stateMutability": "view",
      "type": "function"
    },
    {
      "inputs": [
        {
          "internalType": "bytes4",
          "name": "interfaceId",
          "type": "bytes4"
        }
      ],
      "name": "supportsInterface",
      "outputs": [
        {
          "internalType": "bool",
          "name": "",
          "type": "bool"
        }
      ],
      "stateMutability": "view",
      "type": "function"
    },
    {
      "inputs": [],
      "name": "testDummy",
      "outputs": [
        {
          "internalType": "uint8",
          "name": "",
          "type": "uint8"
        }
      ],
      "stateMutability": "pure",
      "type": "function"
    },
    {
      "inputs": [
        {
          "internalType": "uint32",
          "name": "productId",
          "type": "uint32"
        },
        {
          "internalType": "bool",
          "name": "isUSD",
          "type": "bool"
        }
      ],
      "name": "toggleUSDPrice",
      "outputs": [],
      "stateMutability": "nonpayable",
      "type": "function"
    },
    {
      "inputs": [],
      "name": "totalReceived",
      "outputs": [
        {
          "internalType": "uint256",
          "name": "",
          "type": "uint256"
        }
      ],
      "stateMutability": "view",
      "type": "function"
    },
    {
      "inputs": [
        {
          "internalType": "address",
          "name": "account",
          "type": "address"
        }
      ],
      "name": "unreleased",
      "outputs": [
        {
          "internalType": "uint256",
          "name": "",
          "type": "uint256"
        }
      ],
      "stateMutability": "view",
      "type": "function"
    },
    {
      "inputs": [
        {
          "internalType": "uint32",
          "name": "productId",
          "type": "uint32"
        }
      ],
      "name": "validatePurchase",
      "outputs": [
        {
          "internalType": "uint256",
          "name": "purchases",
          "type": "uint256"
        },
        {
          "internalType": "bytes",
          "name": "purchaseData",
          "type": "bytes"
        }
      ],
      "stateMutability": "view",
      "type": "function"
    },
    {
      "stateMutability": "payable",
      "type": "receive"
    }
  ],
  "bytecode": "0x608060405234801561001057600080fd5b506001805460ff1916815560025561398f8061002d6000396000f3fe6080604052600436106101a05760003560e01c80638ba78c07116100ec578063bc197c811161008a578063dd102d5e11610064578063dd102d5e1461057f578063f23a6e611461059f578063f664929d146105bf578063fd5e12e3146105df57600080fd5b8063bc197c811461052c578063bf271aa61461054c578063bfe5d8351461055f57600080fd5b8063a3c2c462116100c6578063a3c2c462146104b7578063b1b47357146104cc578063b78ee767146104ec578063bbf2b4881461050c57600080fd5b80638ba78c071461041f578063957e07b61461043b5780639852595c1461047e57600080fd5b80633739e11b1161015957806359bac56c1161013357806359bac56c146103b45780635c975abb146103d45780636a54ead8146103ec578063800ddcaa146103ff57600080fd5b80633739e11b1461035457806344eecfd014610374578063525e2ad51461039457600080fd5b806301ffc9a7146102485780630c170ffd1461027d578063150b7a021461029f57806319165587146102d85780632a67293d14610306578063344603231461032657600080fd5b366102435760015460ff16156101d15760405162461bcd60e51b81526004016101c89061360f565b60405180910390fd5b60006103e86101e16019346137d8565b6101eb91906137b6565b905061020b73f39fd6e51aad88f6f4ce6ab8827279cfffb92266826105ff565b60405134815233907f6ef95f06320e7a25a04a175ca677b7052bdd97131872c2192525a629f51be7709060200160405180910390a250005b600080fd5b34801561025457600080fd5b506102686102633660046131cf565b61071d565b60405190151581526020015b60405180910390f35b34801561028957600080fd5b5061029d6102983660046132c4565b610754565b005b3480156102ab57600080fd5b506102bf6102ba366004612f06565b6108d3565b6040516001600160e01b03199091168152602001610274565b3480156102e457600080fd5b506102f86102f3366004612ddd565b61090e565b604051908152602001610274565b34801561031257600080fd5b506102f8610321366004612ddd565b610a85565b34801561033257600080fd5b506103466103413660046132c4565b610b14565b604051610274929190613700565b34801561036057600080fd5b5061029d61036f3660046132c4565b610c46565b34801561038057600080fd5b5061029d61038f366004613212565b610c81565b3480156103a057600080fd5b5061029d6103af366004613363565b610d11565b3480156103c057600080fd5b506102686103cf366004612ddd565b6111f9565b3480156103e057600080fd5b5060015460ff16610268565b61029d6103fa366004613275565b6113c2565b34801561040b57600080fd5b5061029d61041a36600461346f565b611473565b34801561042b57600080fd5b50604051602a8152602001610274565b34801561044757600080fd5b5060045460035460055460408051938452600260208501526001600160a01b03909216918301919091526060820152608001610274565b34801561048a57600080fd5b506102f8610499366004612ddd565b6001600160a01b031660009081526009602052604090206001015490565b3480156104c357600080fd5b506102f861164a565b3480156104d857600080fd5b5061029d6104e73660046130e9565b61165f565b3480156104f857600080fd5b5061029d610507366004613316565b611870565b34801561051857600080fd5b5061029d610527366004612ec5565b611ad1565b34801561053857600080fd5b506102bf610547366004612e17565b611c1f565b61029d61055a366004612fdb565b611d18565b34801561056b57600080fd5b506102f861057a3660046132c4565b611d43565b34801561058b57600080fd5b5061029d61059a3660046132df565b612001565b3480156105ab57600080fd5b506102bf6105ba366004612f72565b6122ff565b3480156105cb57600080fd5b5061029d6105da36600461322b565b6123b6565b3480156105eb57600080fd5b5061029d6105fa366004613020565b612422565b8047101561064f5760405162461bcd60e51b815260206004820152601d60248201527f416464726573733a20696e73756666696369656e742062616c616e636500000060448201526064016101c8565b6000826001600160a01b03168260405160006040518083038185875af1925050503d806000811461069c576040519150601f19603f3d011682016040523d82523d6000602084013e6106a1565b606091505b50509050806107185760405162461bcd60e51b815260206004820152603a60248201527f416464726573733a20756e61626c6520746f2073656e642076616c75652c207260448201527f6563697069656e74206d6179206861766520726576657274656400000000000060648201526084016101c8565b505050565b60006001600160e01b03198216630271189760e51b148061074e57506301ffc9a760e01b6001600160e01b03198316145b92915050565b63ffffffff8116600090815260208190526040902060010154819061078b5760405162461bcd60e51b81526004016101c89061358f565b63ffffffff821660009081526020819052604090206002015482906107bf90600160381b90046001600160a01b03166111f9565b156108105763ffffffff8116600090815260208190526040902060020154600160381b90046001600160a01b0316331461080b5760405162461bcd60e51b81526004016101c890613639565b61083a565b610819336111f9565b151560011461083a5760405162461bcd60e51b81526004016101c8906135e4565b63ffffffff8316600081815260208181526040808320805463ffffffff19168155600181018490556002810180546301000000600160d81b031916905581518084019283905284815294845292909152915161089c9260039092019190612bc5565b5060405163ffffffff8416907f761b291efc1cf42f36eac86ac2f397b06b9606dfb16059c83eb3ab8cc7e53e3090600090a2505050565b600354600090600160a01b900460ff161580156108f457506108f4846111f9565b6108fd57600080fd5b50630a85bd0160e11b949350505050565b60006002805414156109625760405162461bcd60e51b815260206004820152601f60248201527f5265656e7472616e637947756172643a207265656e7472616e742063616c6c0060448201526064016101c8565b60028055600061097183610a85565b9050806109b55760405162461bcd60e51b81526020600482015260126024820152715061796d656e74206973206e6f742064756560701b60448201526064016101c8565b6001600160a01b038316600090815260096020526040812080548392906109dd908490613776565b90915550506001600160a01b038316600090815260096020526040902081906001016000828254610a0e9190613776565b925050819055508060076000828254610a279190613776565b90915550610a37905083826105ff565b826001600160a01b03167fd01a8cc9ab129109f449ed0a777705c57b0aa086d3e08fe4a8de773b397143e782604051610a7291815260200190565b60405180910390a2600160025592915050565b6006546001600160a01b03821660009081526008602052604081205490918291610aad61164a565b610ab791906137d8565b610ac191906137b6565b6001600160a01b0384166000908152600960205260409020549091508111610aea576000610b0d565b6001600160a01b038316600090815260096020526040902054610b0d90826137f7565b9392505050565b63ffffffff808216600090815260208181526040808320338452600501909152812054909160609116610b7d5760405162461bcd60e51b8152602060048201526011602482015270139bdd081c1d5c98da185cd959081e595d607a1b60448201526064016101c8565b63ffffffff8084166000818152602081815260408083203384526005810183529083205493835291905260040180549190921691908190610bbd9061385f565b80601f0160208091040260200160405190810160405280929190818152602001828054610be99061385f565b8015610c365780601f10610c0b57610100808354040283529160200191610c36565b820191906000526020600020905b815481529060010190602001808311610c1957829003601f168201915b5050505050905091509150915091565b63ffffffff81166000908152602081905260409020600101548190610c7d5760405162461bcd60e51b81526004016101c89061358f565b5050565b60015460ff1615610ca45760405162461bcd60e51b81526004016101c89061360f565b33735fc8d32690cc91d4c39d9d3abcbd16989f87570714610cd75760405162461bcd60e51b81526004016101c8906135be565b610ce2600a82612593565b5060405181907f0d29335611f0a3110c445dd4bbfb88a2cde38f18cf9cf36d6154d714cb097c5b90600090a250565b610d1a336111f9565b610d365760405162461bcd60e51b81526004016101c8906135e4565b60008911610d7c5760405162461bcd60e51b815260206004820152601360248201527241646420612070726f6475637420707269636560681b60448201526064016101c8565b610d8a600c80546001019055565b6000610d95600c5490565b63ffffffff80821660009081526020819052604090209192508c1615610dbf57610dbf828d611473565b83511561106457835160141015610e185760405162461bcd60e51b815260206004820152601760248201527f4d617820737562736c696365727320657863656564656400000000000000000060448201526064016101c8565b8251845114610e695760405162461bcd60e51b815260206004820152601760248201527f496e7075747320646f6e277420636f72726573706f6e6400000000000000000060448201526064016101c8565b73e7f1725e7734ce288f8367e1bb143e90bb3f051260005b85518160ff161015611061576000826001600160a01b031663175fa7ea888460ff1681518110610eb357610eb3613907565b60200260200101516040518263ffffffff1660e01b8152600401610ed991815260200190565b60206040518083038186803b158015610ef157600080fd5b505afa158015610f05573d6000803e3d6000fd5b505050506040513d601f19601f82011682018060405250810190610f299190612dfa565b9050806001600160a01b0316633739e11b878460ff1681518110610f4f57610f4f613907565b60200260200101516040518263ffffffff1660e01b8152600401610f7f919063ffffffff91909116815260200190565b60006040518083038186803b158015610f9757600080fd5b505afa158015610fab573d6000803e3d6000fd5b505050506006840180546001810182556000918252602080832090910180546001600160a01b0319166001600160a01b0385169081179091558252600786019052604090208651879060ff851690811061100757611007613907565b60209081029190910181015182546001810184556000938452919092206008820401805460079092166004026101000a63ffffffff8181021990931692909316929092021790555080611059816138d1565b915050610e81565b50505b8b8160000160006101000a81548163ffffffff021916908363ffffffff1602179055508a8160010181905550898160020160006101000a81548160ff021916908315150217905550888160020160016101000a81548160ff021916908315150217905550878160020160026101000a81548160ff021916908315150217905550338160020160076101000a8154816001600160a01b0302191690836001600160a01b0316021790555085816003019080519060200190611125929190612bc5565b50845161113b9060048301906020880190612bc5565b5087156111595760028101805466ffffffff0000001916905561117a565b60028101805466ffffffff0000001916630100000063ffffffff8a16021790555b336001600160a01b03168c63ffffffff168363ffffffff167f187c18d66acd4fc31dae101d63e1343e7c24743a802cbb44b8b813101cf58b788e8e8e8e8860020160039054906101000a900463ffffffff168e8d8d6040516111e3989796959493929190613667565b60405180910390a4505050505050505050505050565b6005546001600160a01b03821660009081526008602052604081205490911161122457506001919050565b6000611230600a61259f565b11156113ba57735fc8d32690cc91d4c39d9d3abcbd16989f87570760005b611258600a61259f565b8161ffff1610156113b75760006001600160a01b03831663175fa7ea611283600a61ffff86166125a9565b6040518263ffffffff1660e01b81526004016112a191815260200190565b60206040518083038186803b1580156112b957600080fd5b505afa1580156112cd573d6000803e3d6000fd5b505050506040513d601f19601f820116820180604052508101906112f19190612dfa565b6005546001600160a01b038216600090815260086020526040902054919250116113a45760405163166eb15b60e21b81526001600160a01b0386811660048301528291908216906359bac56c9060240160206040518083038186803b15801561135957600080fd5b505afa15801561136d573d6000803e3d6000fd5b505050506040513d601f19601f8201168201806040525081019061139191906131b2565b156113a25750600195945050505050565b505b50806113af81613894565b91505061124e565b50505b506000919050565b604051630bafd3f560e11b815260048101859052735fc8d32690cc91d4c39d9d3abcbd16989f8757079063175fa7ea9060240160206040518083038186803b15801561140d57600080fd5b505afa158015611421573d6000803e3d6000fd5b505050506040513d601f19601f820116820180604052508101906114459190612dfa565b6001600160a01b0316336001600160a01b03161461146257600080fd5b61146d8383836125b5565b50505050565b61147c336111f9565b8061148657503330145b6114a25760405162461bcd60e51b81526004016101c8906135e4565b73e7f1725e7734ce288f8367e1bb143e90bb3f051263ffffffff82161580611551575060405163588d1be760e01b815263ffffffff831660048201526000906001600160a01b0383169063588d1be79060240160206040518083038186803b15801561150d57600080fd5b505afa158015611521573d6000803e3d6000fd5b505050506040513d601f19601f820116820180604052508101906115459190612dfa565b6001600160a01b031614155b6115955760405162461bcd60e51b81526020600482015260156024820152744e6f6e2d6578697374656e742063617465676f727960581b60448201526064016101c8565b60405163392d518560e21b815263ffffffff83166004820152735fc8d32690cc91d4c39d9d3abcbd16989f8757079063e4b5461490602401600060405180830381600087803b1580156115e757600080fd5b505af11580156115fb573d6000803e3d6000fd5b5050333014915061071890505760405163ffffffff83811682528416907f06430051821ecb8819b754999dfd1a452d9907849169f3ca411dc854bdb0f2b29060200160405180910390a2505050565b60006007544761165a9190613776565b905090565b611668336111f9565b6116845760405162461bcd60e51b81526004016101c8906135e4565b73cf7ed3acca5a467e9e704c703e8d87f634fb0fc96000805b84518161ffff16101561179957838161ffff16815181106116c0576116c0613907565b602002602001015161ffff16836001600160a01b0316633941a604878461ffff16815181106116f1576116f1613907565b60200260200101516040518263ffffffff1660e01b8152600401611721919063ffffffff91909116815260200190565b60206040518083038186803b15801561173957600080fd5b505afa15801561174d573d6000803e3d6000fd5b505050506040513d601f19601f8201168201806040525081019061177191906131f9565b61177b91906137d8565b6117859083613776565b91508061179181613894565b91505061169d565b5060405163a9059cbb60e01b815273f39fd6e51aad88f6f4ce6ab8827279cfffb922666004820152602481018290526001600160a01b0383169063a9059cbb90604401602060405180830381600087803b1580156117f657600080fd5b505af115801561180a573d6000803e3d6000fd5b505050506040513d601f19601f8201168201806040525081019061182e91906131b2565b507fd0e7280fe218f387be224105631180630e7d8cdb9d48bbc504aa1584cf8d62d58484836040516118629392919061352b565b60405180910390a150505050565b63ffffffff841660009081526020819052604090206001015484906118a75760405162461bcd60e51b81526004016101c89061358f565b63ffffffff851660009081526020819052604090206002015485906118db90600160381b90046001600160a01b03166111f9565b1561192c5763ffffffff8116600090815260208190526040902060020154600160381b90046001600160a01b031633146119275760405162461bcd60e51b81526004016101c890613639565b611956565b611935336111f9565b15156001146119565760405162461bcd60e51b81526004016101c8906135e4565b60008311801561197e575063ffffffff86166000908152602081905260409020600101548311155b6119c25760405162461bcd60e51b8152602060048201526015602482015274496e76616c69642070726f6475637420707269636560581b60448201526064016101c8565b63ffffffff8616600090815260208190526040902060028101805487158015620100000262ff000019909216919091179091556001909101849055611a2c5763ffffffff86166000908152602081905260409020600201805466ffffffff00000019169055611a63565b63ffffffff8087166000908152602081905260409020600201805491861663010000000266ffffffff000000199092169190911790555b63ffffffff868116600081815260208181526040918290206002015482518a151581526301000000909104909416908401528201859052907f1abdbaff3523be69e62e6a19e7ec8f2972a1e6f84f79517dbca0f63b8d852df3906060015b60405180910390a2505050505050565b60015460ff1615611af45760405162461bcd60e51b81526004016101c89061360f565b33735fc8d32690cc91d4c39d9d3abcbd16989f87570714611b275760405162461bcd60e51b81526004016101c8906135be565b6001600160a01b0383166000908152600860209081526040808320546009909252822054611b569084906137d8565b611b6091906137b6565b6001600160a01b03841660009081526009602052604081209192508291016000828254611b8d9190613776565b90915550506001600160a01b03841660009081526009602052604081208054839290611bba9084906137f7565b90915550506001600160a01b03841660009081526008602052604081208054849290611be79084906137f7565b90915550506001600160a01b03831660009081526008602052604081208054849290611c14908490613776565b909155505050505050565b6000611c2d60015460ff1690565b15611c4a5760405162461bcd60e51b81526004016101c89061360f565b600354600160a01b900460ff1615611c6157600080fd5b3373e7f1725e7734ce288f8367e1bb143e90bb3f05121415611d065760005b8451811015611d0457611cb6858281518110611c9e57611c9e613907565b6020026020010151600a612ad890919063ffffffff16565b15611cf25760405162461bcd60e51b815260206004820152600c60248201526b05061796d656e74206c6f6f760a41b60448201526064016101c8565b80611cfc816138b6565b915050611c80565b505b5063bc197c8160e01b95945050505050565b33735fc8d32690cc91d4c39d9d3abcbd16989f87570714611d3857600080fd5b6107188383836125b5565b63ffffffff81166000908152602081905260408120600101548290611d7a5760405162461bcd60e51b81526004016101c89061358f565b63ffffffff83166000908152602081905260408120600181015460029091015490919060ff1615611e6f576000735fc8d32690cc91d4c39d9d3abcbd16989f8757079050806001600160a01b031663bb27e0ce6040518163ffffffff1660e01b815260040160206040518083038186803b158015611df757600080fd5b505afa158015611e0b573d6000803e3d6000fd5b505050506040513d601f19601f82011682018060405250810190611e2f91906131f9565b63ffffffff87166000908152602081905260409020600101549092508290611e619069d3c21bcecceda10000006137d8565b611e6b91906137b6565b9250505b63ffffffff851660009081526020819052604090206006015415611ff75760005b63ffffffff861660009081526020819052604090206006015460ff82161015611ff55763ffffffff86166000908152602081905260408120600601805460ff8416908110611ee057611ee0613907565b600091825260208083209091015463ffffffff8a16835282825260408084206001600160a01b03909216808552600790920190925290822080549193509060ff8516908110611f3157611f31613907565b6000918252602090912060088204015460405163bfe5d83560e01b8152600790921660049081026101000a90910463ffffffff16908201819052915082906001600160a01b0382169063bfe5d8359060240160206040518083038186803b158015611f9b57600080fd5b505afa158015611faf573d6000803e3d6000fd5b505050506040513d601f19601f82011682018060405250810190611fd391906131f9565b611fdd9087613776565b95505050508080611fed906138d1565b915050611e90565b505b5091505b50919050565b63ffffffff821660009081526020819052604090206001015482906120385760405162461bcd60e51b81526004016101c89061358f565b63ffffffff8316600090815260208190526040902060020154839061206c90600160381b90046001600160a01b03166111f9565b156120bd5763ffffffff8116600090815260208190526040902060020154600160381b90046001600160a01b031633146120b85760405162461bcd60e51b81526004016101c890613639565b6120e7565b6120c6336111f9565b15156001146120e75760405162461bcd60e51b81526004016101c8906135e4565b63ffffffff841660009081526020819052604090206002015460ff16151583151514156121485760405162461bcd60e51b815260206004820152600f60248201526e14d85b59481c1c9a58d9481d5b9a5d608a1b60448201526064016101c8565b6000735fc8d32690cc91d4c39d9d3abcbd16989f8757076001600160a01b031663bb27e0ce6040518163ffffffff1660e01b815260040160206040518083038186803b15801561219757600080fd5b505afa1580156121ab573d6000803e3d6000fd5b505050506040513d601f19601f820116820180604052508101906121cf91906131f9565b63ffffffff8616600090815260208190526040902060010154909150841561226257600064e8d4a510008361220482856137b6565b61220e91906137d8565b61221891906137b6565b905080156122405763ffffffff8716600090815260208190526040902060010181905561225c565b63ffffffff871660009081526020819052604090206001908101555b5061229e565b6000826122798369d3c21bcecceda10000006137d8565b61228391906137b6565b63ffffffff8816600090815260208190526040902060010155505b63ffffffff86166000818152602081815260409182902060028101805460ff19168a15159081179091556001909101548351908152918201527f9313b010c2388a1c2903afa4afe83485c3f52d0a177eda33cc12b480cee4be309101611ac1565b600061230d60015460ff1690565b1561232a5760405162461bcd60e51b81526004016101c89061360f565b600354600160a01b900460ff161561234157600080fd5b3373e7f1725e7734ce288f8367e1bb143e90bb3f051214156123a457612368600a85612ad8565b156123a45760405162461bcd60e51b815260206004820152600c60248201526b05061796d656e74206c6f6f760a41b60448201526064016101c8565b5063f23a6e6160e01b95945050505050565b33735fc8d32690cc91d4c39d9d3abcbd16989f875707146123e95760405162461bcd60e51b81526004016101c8906135be565b60049390935560038054600592909255921515600160a01b026001600160a81b03199091166001600160a01b0390921691909117179055565b60015460ff16156124455760405162461bcd60e51b81526004016101c89061360f565b33735fc8d32690cc91d4c39d9d3abcbd16989f875707146124785760405162461bcd60e51b81526004016101c8906135be565b60005b82518161ffff1610156107185760006001600160a01b0316838261ffff16815181106124a9576124a9613907565b60200260200101516001600160a01b031614156124c557600080fd5b6000828261ffff16815181106124dd576124dd613907565b6020026020010151116124ef57600080fd5b818161ffff168151811061250557612505613907565b602002602001015160086000858461ffff168151811061252757612527613907565b60200260200101516001600160a01b03166001600160a01b0316815260200190815260200160002081905550818161ffff168151811061256957612569613907565b602002602001015160065461257e9190613776565b6006558061258b81613894565b91505061247b565b6000610b0d8383612af0565b600061074e825490565b6000610b0d8383612b3f565b63ffffffff821660009081526020819052604090206001015482906125ec5760405162461bcd60e51b81526004016101c89061358f565b61ffff82166125fa57600080fd5b63ffffffff8316600090815260208190526040902060020154610100900460ff166126b05763ffffffff8084166000908152602081815260408083206001600160a01b038916845260050190915290205461265b9161ffff8516911661378e565b63ffffffff166001146126b05760405162461bcd60e51b815260206004820152601960248201527f4d6178696d756d207175616e746974792065786365656465640000000000000060448201526064016101c8565b63ffffffff8084166000908152602081815260408083206001600160a01b03891684526005019091528120805461ffff8616939192916126f29185911661378e565b92506101000a81548163ffffffff021916908363ffffffff1602179055506000808463ffffffff1663ffffffff16815260200190815260200160002060020160029054906101000a900460ff1661280e5763ffffffff808416600090815260208190526040902060020154630100000090041661ffff831611156127b85760405162461bcd60e51b815260206004820152601860248201527f417661696c61626c6520756e697473206578636565646564000000000000000060448201526064016101c8565b63ffffffff8084166000908152602081905260409020600201805461ffff8516926003916127ef918591630100000090041661380e565b92506101000a81548163ffffffff021916908363ffffffff1602179055505b63ffffffff831660009081526020819052604081206006015415612a6f5760005b63ffffffff851660009081526020819052604090206006015460ff82161015612a6d5763ffffffff85166000908152602081905260408120600601805460ff841690811061287f5761287f613907565b600091825260208083209091015463ffffffff8916835282825260408084206001600160a01b03909216808552600790920190925290822080549193509060ff85169081106128d0576128d0613907565b60009182526020822060088204015460405163bfe5d83560e01b8152600790921660049081026101000a90910463ffffffff16908201819052925083919061ffff8916906001600160a01b0384169063bfe5d8359060240160206040518083038186803b15801561294057600080fd5b505afa158015612954573d6000803e3d6000fd5b505050506040513d601f19601f8201168201806040525081019061297891906131f9565b61298291906137d8565b60045460405160248101919091526001600160a01b038c8116604483015263ffffffff8616606483015261ffff8b166084830152919250600091861690839060a40160408051601f198184030181529181526020820180516001600160e01b0316630d4a9d5b60e31b179052516129f9919061350f565b60006040518083038185875af1925050503d8060008114612a36576040519150601f19603f3d011682016040523d82523d6000602084013e612a3b565b606091505b5050905080612a4957600080fd5b612a538288613776565b965050505050508080612a65906138d1565b91505061282f565b505b612a8230612a7d83346137f7565b6105ff565b6040805161ffff8516815234602082015263ffffffff8616916001600160a01b038816917fcb35e6328d171aabe8c666c3fcc2ba3401887c5504bf5dfaa8b8c3be5ced01bc910160405180910390a35050505050565b60008181526001830160205260408120541515610b0d565b6000818152600183016020526040812054612b375750815460018181018455600084815260208082209093018490558454848252828601909352604090209190915561074e565b50600061074e565b81546000908210612b9d5760405162461bcd60e51b815260206004820152602260248201527f456e756d657261626c655365743a20696e646578206f7574206f6620626f756e604482015261647360f01b60648201526084016101c8565b826000018281548110612bb257612bb2613907565b9060005260206000200154905092915050565b828054612bd19061385f565b90600052602060002090601f016020900481019282612bf35760008555612c39565b82601f10612c0c57805160ff1916838001178555612c39565b82800160010185558215612c39579182015b82811115612c39578251825591602001919060010190612c1e565b50612c45929150612c49565b5090565b5b80821115612c455760008155600101612c4a565b600082601f830112612c6f57600080fd5b81356020612c84612c7f83613752565b613721565b80838252828201915082860187848660051b8901011115612ca457600080fd5b60005b85811015612cc357813584529284019290840190600101612ca7565b5090979650505050505050565b600082601f830112612ce157600080fd5b81356020612cf1612c7f83613752565b80838252828201915082860187848660051b8901011115612d1157600080fd5b60005b85811015612cc357612d2582612dc9565b84529284019290840190600101612d14565b8035612d428161394b565b919050565b600082601f830112612d5857600080fd5b813567ffffffffffffffff811115612d7257612d7261391d565b612d85601f8201601f1916602001613721565b818152846020838601011115612d9a57600080fd5b816020850160208301376000918101602001919091529392505050565b803561ffff81168114612d4257600080fd5b803563ffffffff81168114612d4257600080fd5b600060208284031215612def57600080fd5b8135610b0d81613933565b600060208284031215612e0c57600080fd5b8151610b0d81613933565b600080600080600060a08688031215612e2f57600080fd5b8535612e3a81613933565b94506020860135612e4a81613933565b9350604086013567ffffffffffffffff80821115612e6757600080fd5b612e7389838a01612c5e565b94506060880135915080821115612e8957600080fd5b612e9589838a01612c5e565b93506080880135915080821115612eab57600080fd5b50612eb888828901612d47565b9150509295509295909350565b600080600060608486031215612eda57600080fd5b8335612ee581613933565b92506020840135612ef581613933565b929592945050506040919091013590565b60008060008060808587031215612f1c57600080fd5b8435612f2781613933565b93506020850135612f3781613933565b925060408501359150606085013567ffffffffffffffff811115612f5a57600080fd5b612f6687828801612d47565b91505092959194509250565b600080600080600060a08688031215612f8a57600080fd5b8535612f9581613933565b94506020860135612fa581613933565b93506040860135925060608601359150608086013567ffffffffffffffff811115612fcf57600080fd5b612eb888828901612d47565b600080600060608486031215612ff057600080fd5b8335612ffb81613933565b925061300960208501612dc9565b915061301760408501612db7565b90509250925092565b6000806040838503121561303357600080fd5b823567ffffffffffffffff8082111561304b57600080fd5b818501915085601f83011261305f57600080fd5b8135602061306f612c7f83613752565b8083825282820191508286018a848660051b890101111561308f57600080fd5b600096505b848710156130bb5780356130a781613933565b835260019690960195918301918301613094565b50965050860135925050808211156130d257600080fd5b506130df85828601612c5e565b9150509250929050565b600080604083850312156130fc57600080fd5b823567ffffffffffffffff8082111561311457600080fd5b61312086838701612cd0565b935060209150818501358181111561313757600080fd5b85019050601f8101861361314a57600080fd5b8035613158612c7f82613752565b80828252848201915084840189868560051b870101111561317857600080fd5b600094505b838510156131a25761318e81612db7565b83526001949094019391850191850161317d565b5080955050505050509250929050565b6000602082840312156131c457600080fd5b8151610b0d8161394b565b6000602082840312156131e157600080fd5b81356001600160e01b031981168114610b0d57600080fd5b60006020828403121561320b57600080fd5b5051919050565b60006020828403121561322457600080fd5b5035919050565b6000806000806080858703121561324157600080fd5b84359350602085013561325381613933565b925060408501359150606085013561326a8161394b565b939692955090935050565b6000806000806080858703121561328b57600080fd5b84359350602085013561329d81613933565b92506132ab60408601612dc9565b91506132b960608601612db7565b905092959194509250565b6000602082840312156132d657600080fd5b610b0d82612dc9565b600080604083850312156132f257600080fd5b6132fb83612dc9565b9150602083013561330b8161394b565b809150509250929050565b6000806000806080858703121561332c57600080fd5b61333585612dc9565b935060208501356133458161394b565b925061335360408601612dc9565b9396929550929360600135925050565b6000806000806000806000806000806101408b8d03121561338357600080fd5b61338c8b612dc9565b995060208b013598506133a160408c01612d37565b97506133af60608c01612d37565b96506133bd60808c01612d37565b95506133cb60a08c01612dc9565b945060c08b013567ffffffffffffffff808211156133e857600080fd5b6133f48e838f01612d47565b955060e08d013591508082111561340a57600080fd5b6134168e838f01612d47565b94506101008d013591508082111561342d57600080fd5b6134398e838f01612c5e565b93506101208d013591508082111561345057600080fd5b5061345d8d828e01612cd0565b9150509295989b9194979a5092959850565b6000806040838503121561348257600080fd5b61348b83612dc9565b915061349960208401612dc9565b90509250929050565b600081518084526020808501945080840160005b838110156134d857815163ffffffff16875295820195908201906001016134b6565b509495945050505050565b600081518084526134fb816020860160208601613833565b601f01601f19169290920160200192915050565b60008251613521818460208701613833565b9190910192915050565b60608152600061353e60608301866134a2565b82810360208481019190915285518083528682019282019060005b8181101561357957845161ffff1683529383019391830191600101613559565b5050809350505050826040830152949350505050565b602080825260159082015274141c9bd91d58dd08191bd95cdb89dd08195e1a5cdd605a1b604082015260600190565b6020808252600c908201526b155b985d5d1a1bdc9a5e995960a21b604082015260600190565b6020808252601190820152704e6f7420656e6f75676820736c6963657360781b604082015260600190565b60208082526010908201526f14185d5cd8589b194e881c185d5cd95960821b604082015260600190565b60208082526014908201527313db9b1e4818dc99585d1bdc88185b1b1bddd95960621b604082015260600190565b60006101008a835260208a1515818501528915156040850152881515606085015263ffffffff881660808501528160a08501526136a6828501886134e3565b84810360c0860152865180825282880193509082019060005b818110156136db578451835293830193918301916001016136bf565b505084810360e08601526136ef81876134a2565b9d9c50505050505050505050505050565b82815260406020820152600061371960408301846134e3565b949350505050565b604051601f8201601f1916810167ffffffffffffffff8111828210171561374a5761374a61391d565b604052919050565b600067ffffffffffffffff82111561376c5761376c61391d565b5060051b60200190565b60008219821115613789576137896138f1565b500190565b600063ffffffff8083168185168083038211156137ad576137ad6138f1565b01949350505050565b6000826137d357634e487b7160e01b600052601260045260246000fd5b500490565b60008160001904831182151516156137f2576137f26138f1565b500290565b600082821015613809576138096138f1565b500390565b600063ffffffff8381169083168181101561382b5761382b6138f1565b039392505050565b60005b8381101561384e578181015183820152602001613836565b8381111561146d5750506000910152565b600181811c9082168061387357607f821691505b60208210811415611ffb57634e487b7160e01b600052602260045260246000fd5b600061ffff808316818114156138ac576138ac6138f1565b6001019392505050565b60006000198214156138ca576138ca6138f1565b5060010190565b600060ff821660ff8114156138e8576138e86138f1565b60010192915050565b634e487b7160e01b600052601160045260246000fd5b634e487b7160e01b600052603260045260246000fd5b634e487b7160e01b600052604160045260246000fd5b6001600160a01b038116811461394857600080fd5b50565b801515811461394857600080fdfea264697066735822122020a475f701c4054bd7b65986d4a4f304a2779e9d0f06302c68003c716753b0db64736f6c63430008070033",
  "linkReferences": {},
  "deployedLinkReferences": {}
}