{
  "_format": "hh-sol-artifact-1",
  "contractName": "SlicerDummyV1",
  "sourceName": "contracts/test/slicer_test_v1.sol",
  "abi": [
    {
      "anonymous": false,
      "inputs": [
        {
          "indexed": true,
          "internalType": "uint256",
          "name": "slicerId",
          "type": "uint256"
        }
      ],
      "name": "AddedChildrenSlicer",
      "type": "event"
    },
    {
      "anonymous": false,
      "inputs": [
        {
          "indexed": true,
          "internalType": "address",
          "name": "contractAddress",
          "type": "address"
        },
        {
          "indexed": true,
          "internalType": "address",
          "name": "from",
          "type": "address"
        },
        {
          "indexed": false,
          "internalType": "uint256[]",
          "name": "tokenIds",
          "type": "uint256[]"
        },
        {
          "indexed": false,
          "internalType": "uint256[]",
          "name": "amounts",
          "type": "uint256[]"
        }
      ],
      "name": "ERC1155BatchReceived",
      "type": "event"
    },
    {
      "anonymous": false,
      "inputs": [
        {
          "indexed": true,
          "internalType": "address",
          "name": "contractAddress",
          "type": "address"
        },
        {
          "indexed": true,
          "internalType": "address",
          "name": "from",
          "type": "address"
        },
        {
          "indexed": false,
          "internalType": "uint256",
          "name": "tokenId",
          "type": "uint256"
        },
        {
          "indexed": false,
          "internalType": "uint256",
          "name": "amount",
          "type": "uint256"
        }
      ],
      "name": "ERC1155Received",
      "type": "event"
    },
    {
      "anonymous": false,
      "inputs": [
        {
          "indexed": true,
          "internalType": "address",
          "name": "contractAddress",
          "type": "address"
        },
        {
          "indexed": true,
          "internalType": "address",
          "name": "from",
          "type": "address"
        },
        {
          "indexed": false,
          "internalType": "uint256",
          "name": "tokenId",
          "type": "uint256"
        }
      ],
      "name": "ERC721Received",
      "type": "event"
    },
    {
      "anonymous": false,
      "inputs": [
        {
          "indexed": false,
          "internalType": "address",
          "name": "account",
          "type": "address"
        }
      ],
      "name": "Paused",
      "type": "event"
    },
    {
      "anonymous": false,
      "inputs": [
        {
          "indexed": true,
          "internalType": "address",
          "name": "from",
          "type": "address"
        },
        {
          "indexed": false,
          "internalType": "uint256",
          "name": "amount",
          "type": "uint256"
        }
      ],
      "name": "PaymentReceived",
      "type": "event"
    },
    {
      "anonymous": false,
      "inputs": [
        {
          "indexed": true,
          "internalType": "uint32",
          "name": "productId",
          "type": "uint32"
        },
        {
          "indexed": true,
          "internalType": "uint32",
          "name": "categoryIndex",
          "type": "uint32"
        },
        {
          "indexed": false,
          "internalType": "uint256",
          "name": "price",
          "type": "uint256"
        },
        {
          "indexed": false,
          "internalType": "bool",
          "name": "isUSD",
          "type": "bool"
        },
        {
          "indexed": false,
          "internalType": "bool",
          "name": "isMultiple",
          "type": "bool"
        },
        {
          "indexed": false,
          "internalType": "bool",
          "name": "isInfinite",
          "type": "bool"
        },
        {
          "indexed": false,
          "internalType": "uint32",
          "name": "availableUnits",
          "type": "uint32"
        },
        {
          "indexed": true,
          "internalType": "address",
          "name": "creator",
          "type": "address"
        },
        {
          "indexed": false,
          "internalType": "bytes",
          "name": "data",
          "type": "bytes"
        },
        {
          "indexed": false,
          "internalType": "uint256[]",
          "name": "subSlicersId",
          "type": "uint256[]"
        },
        {
          "indexed": false,
          "internalType": "uint32[]",
          "name": "subProducts",
          "type": "uint32[]"
        }
      ],
      "name": "ProductAdded",
      "type": "event"
    },
    {
      "anonymous": false,
      "inputs": [
        {
          "indexed": true,
          "internalType": "uint32",
          "name": "productId",
          "type": "uint32"
        },
        {
          "indexed": false,
          "internalType": "uint32",
          "name": "categoryIndex",
          "type": "uint32"
        }
      ],
      "name": "ProductCategoryChanged",
      "type": "event"
    },
    {
      "anonymous": false,
      "inputs": [
        {
          "indexed": true,
          "internalType": "uint32",
          "name": "productId",
          "type": "uint32"
        },
        {
          "indexed": false,
          "internalType": "uint256",
          "name": "productPrice",
          "type": "uint256"
        },
        {
          "indexed": false,
          "internalType": "bool",
          "name": "isUSD",
          "type": "bool"
        }
      ],
      "name": "ProductCurrencyChanged",
      "type": "event"
    },
    {
      "anonymous": false,
      "inputs": [
        {
          "indexed": true,
          "internalType": "uint32",
          "name": "productId",
          "type": "uint32"
        },
        {
          "indexed": false,
          "internalType": "bool",
          "name": "isInfinite",
          "type": "bool"
        },
        {
          "indexed": false,
          "internalType": "uint32",
          "name": "units",
          "type": "uint32"
        },
        {
          "indexed": false,
          "internalType": "uint256",
          "name": "productPrice",
          "type": "uint256"
        }
      ],
      "name": "ProductInfoChanged",
      "type": "event"
    },
    {
      "anonymous": false,
      "inputs": [
        {
          "indexed": true,
          "internalType": "address",
          "name": "from",
          "type": "address"
        },
        {
          "indexed": true,
          "internalType": "uint32",
          "name": "productId",
          "type": "uint32"
        },
        {
          "indexed": false,
          "internalType": "uint16",
          "name": "quantity",
          "type": "uint16"
        },
        {
          "indexed": false,
          "internalType": "uint256",
          "name": "productPrice",
          "type": "uint256"
        }
      ],
      "name": "ProductPaid",
      "type": "event"
    },
    {
      "anonymous": false,
      "inputs": [
        {
          "indexed": true,
          "internalType": "uint32",
          "name": "productId",
          "type": "uint32"
        }
      ],
      "name": "ProductRemoved",
      "type": "event"
    },
    {
      "anonymous": false,
      "inputs": [
        {
          "indexed": false,
          "internalType": "uint32[]",
          "name": "serviceIds",
          "type": "uint32[]"
        },
        {
          "indexed": false,
          "internalType": "uint16[]",
          "name": "quantities",
          "type": "uint16[]"
        },
        {
          "indexed": false,
          "internalType": "uint256",
          "name": "amount",
          "type": "uint256"
        }
      ],
      "name": "SLCPaid",
      "type": "event"
    },
    {
      "anonymous": false,
      "inputs": [
        {
          "indexed": true,
          "internalType": "address",
          "name": "payee",
          "type": "address"
        },
        {
          "indexed": false,
          "internalType": "uint256",
          "name": "released",
          "type": "uint256"
        }
      ],
      "name": "TriggeredRelease",
      "type": "event"
    },
    {
      "anonymous": false,
      "inputs": [
        {
          "indexed": false,
          "internalType": "address",
          "name": "account",
          "type": "address"
        }
      ],
      "name": "Unpaused",
      "type": "event"
    },
    {
      "inputs": [
        {
          "internalType": "uint256",
          "name": "id",
          "type": "uint256"
        }
      ],
      "name": "_addChildrenSlicer",
      "outputs": [],
      "stateMutability": "nonpayable",
      "type": "function"
    },
    {
      "inputs": [
        {
          "internalType": "address[]",
          "name": "accounts",
          "type": "address[]"
        },
        {
          "internalType": "uint256[]",
          "name": "shares_",
          "type": "uint256[]"
        }
      ],
      "name": "_addPayees",
      "outputs": [],
      "stateMutability": "nonpayable",
      "type": "function"
    },
    {
      "inputs": [
        {
          "internalType": "uint256",
          "name": "tokenId_",
          "type": "uint256"
        },
        {
          "internalType": "address",
          "name": "slicerCreator_",
          "type": "address"
        },
        {
          "internalType": "uint256",
          "name": "minimumShares_",
          "type": "uint256"
        },
        {
          "internalType": "bool",
          "name": "isCollectible_",
          "type": "bool"
        }
      ],
      "name": "_initialize",
      "outputs": [],
      "stateMutability": "nonpayable",
      "type": "function"
    },
    {
      "inputs": [
        {
          "internalType": "address",
          "name": "account",
          "type": "address"
        },
        {
          "internalType": "uint32",
          "name": "productId",
          "type": "uint32"
        },
        {
          "internalType": "uint16",
          "name": "quantity",
          "type": "uint16"
        }
      ],
      "name": "_payProductFromSlice",
      "outputs": [],
      "stateMutability": "payable",
      "type": "function"
    },
    {
      "inputs": [
        {
          "internalType": "uint256",
          "name": "tokenId",
          "type": "uint256"
        },
        {
          "internalType": "address",
          "name": "account",
          "type": "address"
        },
        {
          "internalType": "uint32",
          "name": "productId",
          "type": "uint32"
        },
        {
          "internalType": "uint16",
          "name": "quantity",
          "type": "uint16"
        }
      ],
      "name": "_payProductFromSlicer",
      "outputs": [],
      "stateMutability": "payable",
      "type": "function"
    },
    {
      "inputs": [
        {
          "internalType": "address",
          "name": "accountFrom",
          "type": "address"
        },
        {
          "internalType": "address",
          "name": "accountTo",
          "type": "address"
        },
        {
          "internalType": "uint256",
          "name": "transferredShares",
          "type": "uint256"
        }
      ],
      "name": "_updatePayees",
      "outputs": [],
      "stateMutability": "nonpayable",
      "type": "function"
    },
    {
      "inputs": [
        {
          "internalType": "uint32",
          "name": "categoryIndex",
          "type": "uint32"
        },
        {
          "internalType": "uint256",
          "name": "price",
          "type": "uint256"
        },
        {
          "internalType": "bool",
          "name": "isUSD",
          "type": "bool"
        },
        {
          "internalType": "bool",
          "name": "isMultiple",
          "type": "bool"
        },
        {
          "internalType": "bool",
          "name": "isInfinite",
          "type": "bool"
        },
        {
          "internalType": "uint32",
          "name": "units",
          "type": "uint32"
        },
        {
          "internalType": "bytes",
          "name": "data",
          "type": "bytes"
        },
        {
          "internalType": "bytes",
          "name": "purchaseData",
          "type": "bytes"
        },
        {
          "internalType": "uint256[]",
          "name": "subSlicersId_",
          "type": "uint256[]"
        },
        {
          "internalType": "uint32[]",
          "name": "subProducts_",
          "type": "uint32[]"
        }
      ],
      "name": "addProduct",
      "outputs": [],
      "stateMutability": "nonpayable",
      "type": "function"
    },
    {
      "inputs": [
        {
          "internalType": "address",
          "name": "payee",
          "type": "address"
        }
      ],
      "name": "isPayeeAllowed",
      "outputs": [
        {
          "internalType": "bool",
          "name": "",
          "type": "bool"
        }
      ],
      "stateMutability": "view",
      "type": "function"
    },
    {
      "inputs": [
        {
          "internalType": "uint32",
          "name": "productId",
          "type": "uint32"
        }
      ],
      "name": "isProduct",
      "outputs": [],
      "stateMutability": "view",
      "type": "function"
    },
    {
      "inputs": [
        {
          "internalType": "address",
          "name": "",
          "type": "address"
        },
        {
          "internalType": "address",
          "name": "from",
          "type": "address"
        },
        {
          "internalType": "uint256[]",
          "name": "tokenIds",
          "type": "uint256[]"
        },
        {
          "internalType": "uint256[]",
          "name": "amounts",
          "type": "uint256[]"
        },
        {
          "internalType": "bytes",
          "name": "",
          "type": "bytes"
        }
      ],
      "name": "onERC1155BatchReceived",
      "outputs": [
        {
          "internalType": "bytes4",
          "name": "",
          "type": "bytes4"
        }
      ],
      "stateMutability": "nonpayable",
      "type": "function"
    },
    {
      "inputs": [
        {
          "internalType": "address",
          "name": "",
          "type": "address"
        },
        {
          "internalType": "address",
          "name": "from",
          "type": "address"
        },
        {
          "internalType": "uint256",
          "name": "tokenId",
          "type": "uint256"
        },
        {
          "internalType": "uint256",
          "name": "amount",
          "type": "uint256"
        },
        {
          "internalType": "bytes",
          "name": "",
          "type": "bytes"
        }
      ],
      "name": "onERC1155Received",
      "outputs": [
        {
          "internalType": "bytes4",
          "name": "",
          "type": "bytes4"
        }
      ],
      "stateMutability": "nonpayable",
      "type": "function"
    },
    {
      "inputs": [
        {
          "internalType": "address",
          "name": "",
          "type": "address"
        },
        {
          "internalType": "address",
          "name": "from",
          "type": "address"
        },
        {
          "internalType": "uint256",
          "name": "tokenId",
          "type": "uint256"
        },
        {
          "internalType": "bytes",
          "name": "",
          "type": "bytes"
        }
      ],
      "name": "onERC721Received",
      "outputs": [
        {
          "internalType": "bytes4",
          "name": "",
          "type": "bytes4"
        }
      ],
      "stateMutability": "nonpayable",
      "type": "function"
    },
    {
      "inputs": [],
      "name": "paused",
      "outputs": [
        {
          "internalType": "bool",
          "name": "",
          "type": "bool"
        }
      ],
      "stateMutability": "view",
      "type": "function"
    },
    {
      "inputs": [
        {
          "internalType": "uint32[]",
          "name": "serviceIds",
          "type": "uint32[]"
        },
        {
          "internalType": "uint16[]",
          "name": "quantities",
          "type": "uint16[]"
        }
      ],
      "name": "paySLC",
      "outputs": [],
      "stateMutability": "nonpayable",
      "type": "function"
    },
    {
      "inputs": [
        {
          "internalType": "uint32",
          "name": "productId",
          "type": "uint32"
        }
      ],
      "name": "productPrice",
      "outputs": [
        {
          "internalType": "uint256",
          "name": "price",
          "type": "uint256"
        }
      ],
      "stateMutability": "view",
      "type": "function"
    },
    {
      "inputs": [
        {
          "internalType": "address payable",
          "name": "account",
          "type": "address"
        }
      ],
      "name": "release",
      "outputs": [
        {
          "internalType": "uint256",
          "name": "",
          "type": "uint256"
        }
      ],
      "stateMutability": "nonpayable",
      "type": "function"
    },
    {
      "inputs": [
        {
          "internalType": "address",
          "name": "account",
          "type": "address"
        }
      ],
      "name": "released",
      "outputs": [
        {
          "internalType": "uint256",
          "name": "",
          "type": "uint256"
        }
      ],
      "stateMutability": "view",
      "type": "function"
    },
    {
      "inputs": [
        {
          "internalType": "uint32",
          "name": "productId",
          "type": "uint32"
        }
      ],
      "name": "removeProduct",
      "outputs": [],
      "stateMutability": "nonpayable",
      "type": "function"
    },
    {
      "inputs": [
        {
          "internalType": "uint32",
          "name": "productId",
          "type": "uint32"
        },
        {
          "internalType": "uint32",
          "name": "categoryIndex",
          "type": "uint32"
        }
      ],
      "name": "setProductCategory",
      "outputs": [],
      "stateMutability": "nonpayable",
      "type": "function"
    },
    {
      "inputs": [
        {
          "internalType": "uint32",
          "name": "productId",
          "type": "uint32"
        },
        {
          "internalType": "bool",
          "name": "isInfinite",
          "type": "bool"
        },
        {
          "internalType": "uint32",
          "name": "newUnits",
          "type": "uint32"
        },
        {
          "internalType": "uint256",
          "name": "newPrice",
          "type": "uint256"
        }
      ],
      "name": "setProductInfo",
      "outputs": [],
      "stateMutability": "nonpayable",
      "type": "function"
    },
    {
      "inputs": [],
      "name": "slicerInfo",
      "outputs": [
        {
          "internalType": "uint256",
          "name": "",
          "type": "uint256"
        },
        {
          "internalType": "uint8",
          "name": "version",
          "type": "uint8"
        },
        {
          "internalType": "address",
          "name": "creator",
          "type": "address"
        },
        {
          "internalType": "uint256",
          "name": "",
          "type": "uint256"
        }
      ],
      "stateMutability": "view",
      "type": "function"
    },
    {
      "inputs": [
        {
          "internalType": "bytes4",
          "name": "interfaceId",
          "type": "bytes4"
        }
      ],
      "name": "supportsInterface",
      "outputs": [
        {
          "internalType": "bool",
          "name": "",
          "type": "bool"
        }
      ],
      "stateMutability": "view",
      "type": "function"
    },
    {
      "inputs": [],
      "name": "testDummy",
      "outputs": [
        {
          "internalType": "uint8",
          "name": "",
          "type": "uint8"
        }
      ],
      "stateMutability": "pure",
      "type": "function"
    },
    {
      "inputs": [
        {
          "internalType": "uint32",
          "name": "productId",
          "type": "uint32"
        },
        {
          "internalType": "bool",
          "name": "isUSD",
          "type": "bool"
        }
      ],
      "name": "toggleUSDPrice",
      "outputs": [],
      "stateMutability": "nonpayable",
      "type": "function"
    },
    {
      "inputs": [],
      "name": "totalReceived",
      "outputs": [
        {
          "internalType": "uint256",
          "name": "",
          "type": "uint256"
        }
      ],
      "stateMutability": "view",
      "type": "function"
    },
    {
      "inputs": [
        {
          "internalType": "address",
          "name": "account",
          "type": "address"
        }
      ],
      "name": "unreleased",
      "outputs": [
        {
          "internalType": "uint256",
          "name": "",
          "type": "uint256"
        }
      ],
      "stateMutability": "view",
      "type": "function"
    },
    {
      "inputs": [
        {
          "internalType": "uint32",
          "name": "productId",
          "type": "uint32"
        }
      ],
      "name": "validatePurchase",
      "outputs": [
        {
          "internalType": "uint256",
          "name": "purchases",
          "type": "uint256"
        },
        {
          "internalType": "bytes",
          "name": "purchaseData",
          "type": "bytes"
        }
      ],
      "stateMutability": "view",
      "type": "function"
    },
    {
      "stateMutability": "payable",
      "type": "receive"
    }
  ],
  "bytecode": "0x608060405234801561001057600080fd5b506001805460ff19168155600255613a268061002d6000396000f3fe6080604052600436106101a05760003560e01c80638ba78c07116100ec578063bc197c811161008a578063dd102d5e11610064578063dd102d5e1461057f578063f23a6e611461059f578063f664929d146105bf578063fd5e12e3146105df57600080fd5b8063bc197c811461052c578063bf271aa61461054c578063bfe5d8351461055f57600080fd5b8063a3c2c462116100c6578063a3c2c462146104b7578063b1b47357146104cc578063b78ee767146104ec578063bbf2b4881461050c57600080fd5b80638ba78c071461041f578063957e07b61461043b5780639852595c1461047e57600080fd5b80633739e11b1161015957806359bac56c1161013357806359bac56c146103b45780635c975abb146103d45780636a54ead8146103ec578063800ddcaa146103ff57600080fd5b80633739e11b1461035457806344eecfd014610374578063525e2ad51461039457600080fd5b806301ffc9a7146102485780630c170ffd1461027d578063150b7a021461029f57806319165587146102d85780632a67293d14610306578063344603231461032657600080fd5b366102435760015460ff16156101d15760405162461bcd60e51b81526004016101c890612cd5565b60405180910390fd5b60006103e86101e1601934612d15565b6101eb9190612d34565b905061020b73f39fd6e51aad88f6f4ce6ab8827279cfffb92266826105ff565b60405134815233907f6ef95f06320e7a25a04a175ca677b7052bdd97131872c2192525a629f51be7709060200160405180910390a250005b600080fd5b34801561025457600080fd5b50610268610263366004612d56565b61071d565b60405190151581526020015b60405180910390f35b34801561028957600080fd5b5061029d610298366004612d99565b610754565b005b3480156102ab57600080fd5b506102bf6102ba366004612e83565b6108d3565b6040516001600160e01b03199091168152602001610274565b3480156102e457600080fd5b506102f86102f3366004612eef565b61094e565b604051908152602001610274565b34801561031257600080fd5b506102f8610321366004612eef565b610ac5565b34801561033257600080fd5b50610346610341366004612d99565b610b54565b604051610274929190612f64565b34801561036057600080fd5b5061029d61036f366004612d99565b610c86565b34801561038057600080fd5b5061029d61038f366004612f85565b610cc1565b3480156103a057600080fd5b5061029d6103af3660046130a8565b610d51565b3480156103c057600080fd5b506102686103cf366004612eef565b611239565b3480156103e057600080fd5b5060015460ff16610268565b61029d6103fa3660046131c6565b611402565b34801561040b57600080fd5b5061029d61041a366004613215565b6114b3565b34801561042b57600080fd5b50604051602a8152602001610274565b34801561044757600080fd5b5060045460035460055460408051938452600260208501526001600160a01b03909216918301919091526060820152608001610274565b34801561048a57600080fd5b506102f8610499366004612eef565b6001600160a01b031660009081526009602052604090206001015490565b3480156104c357600080fd5b506102f861168a565b3480156104d857600080fd5b5061029d6104e7366004613248565b61169f565b3480156104f857600080fd5b5061029d61050736600461330a565b6118b0565b34801561051857600080fd5b5061029d610527366004613357565b611b11565b34801561053857600080fd5b506102bf610547366004613398565b611c5f565b61029d61055a366004613446565b611da5565b34801561056b57600080fd5b506102f861057a366004612d99565b611dd0565b34801561058b57600080fd5b5061029d61059a36600461348b565b61208e565b3480156105ab57600080fd5b506102bf6105ba3660046134c2565b61238c565b3480156105cb57600080fd5b5061029d6105da36600461352b565b612489565b3480156105eb57600080fd5b5061029d6105fa366004613575565b6124f5565b8047101561064f5760405162461bcd60e51b815260206004820152601d60248201527f416464726573733a20696e73756666696369656e742062616c616e636500000060448201526064016101c8565b6000826001600160a01b03168260405160006040518083038185875af1925050503d806000811461069c576040519150601f19603f3d011682016040523d82523d6000602084013e6106a1565b606091505b50509050806107185760405162461bcd60e51b815260206004820152603a60248201527f416464726573733a20756e61626c6520746f2073656e642076616c75652c207260448201527f6563697069656e74206d6179206861766520726576657274656400000000000060648201526084016101c8565b505050565b60006001600160e01b03198216630271189760e51b148061074e57506301ffc9a760e01b6001600160e01b03198316145b92915050565b63ffffffff8116600090815260208190526040902060010154819061078b5760405162461bcd60e51b81526004016101c890613637565b63ffffffff821660009081526020819052604090206002015482906107bf90600160381b90046001600160a01b0316611239565b156108105763ffffffff8116600090815260208190526040902060020154600160381b90046001600160a01b0316331461080b5760405162461bcd60e51b81526004016101c890613666565b61083a565b61081933611239565b151560011461083a5760405162461bcd60e51b81526004016101c890613694565b63ffffffff8316600081815260208181526040808320805463ffffffff19168155600181018490556002810180546301000000600160d81b031916905581518084019283905284815294845292909152915161089c9260039092019190612c3c565b5060405163ffffffff8416907f761b291efc1cf42f36eac86ac2f397b06b9606dfb16059c83eb3ab8cc7e53e3090600090a2505050565b600354600090600160a01b900460ff161580156108f457506108f484611239565b6108fd57600080fd5b6040518381526001600160a01b0385169033907f941a9d9a9af7f97737c018d13918859e12f44e16c4b4c6ac922dacf021cfbf149060200160405180910390a350630a85bd0160e11b949350505050565b60006002805414156109a25760405162461bcd60e51b815260206004820152601f60248201527f5265656e7472616e637947756172643a207265656e7472616e742063616c6c0060448201526064016101c8565b6002805560006109b183610ac5565b9050806109f55760405162461bcd60e51b81526020600482015260126024820152715061796d656e74206973206e6f742064756560701b60448201526064016101c8565b6001600160a01b03831660009081526009602052604081208054839290610a1d9084906136d5565b90915550506001600160a01b038316600090815260096020526040902081906001016000828254610a4e91906136d5565b925050819055508060076000828254610a6791906136d5565b90915550610a77905083826105ff565b826001600160a01b03167fd01a8cc9ab129109f449ed0a777705c57b0aa086d3e08fe4a8de773b397143e782604051610ab291815260200190565b60405180910390a2600160025592915050565b6006546001600160a01b03821660009081526008602052604081205490918291610aed61168a565b610af79190612d15565b610b019190612d34565b6001600160a01b0384166000908152600960205260409020549091508111610b2a576000610b4d565b6001600160a01b038316600090815260096020526040902054610b4d90826136ed565b9392505050565b63ffffffff808216600090815260208181526040808320338452600501909152812054909160609116610bbd5760405162461bcd60e51b8152602060048201526011602482015270139bdd081c1d5c98da185cd959081e595d607a1b60448201526064016101c8565b63ffffffff8084166000818152602081815260408083203384526005810183529083205493835291905260040180549190921691908190610bfd90613704565b80601f0160208091040260200160405190810160405280929190818152602001828054610c2990613704565b8015610c765780601f10610c4b57610100808354040283529160200191610c76565b820191906000526020600020905b815481529060010190602001808311610c5957829003601f168201915b5050505050905091509150915091565b63ffffffff81166000908152602081905260409020600101548190610cbd5760405162461bcd60e51b81526004016101c890613637565b5050565b60015460ff1615610ce45760405162461bcd60e51b81526004016101c890612cd5565b33735fc8d32690cc91d4c39d9d3abcbd16989f87570714610d175760405162461bcd60e51b81526004016101c890613739565b610d22600a82612666565b5060405181907f0d29335611f0a3110c445dd4bbfb88a2cde38f18cf9cf36d6154d714cb097c5b90600090a250565b610d5a33611239565b610d765760405162461bcd60e51b81526004016101c890613694565b60008911610dbc5760405162461bcd60e51b815260206004820152601360248201527241646420612070726f6475637420707269636560681b60448201526064016101c8565b610dca600c80546001019055565b6000610dd5600c5490565b63ffffffff80821660009081526020819052604090209192508c1615610dff57610dff828d6114b3565b8351156110a457835160141015610e585760405162461bcd60e51b815260206004820152601760248201527f4d617820737562736c696365727320657863656564656400000000000000000060448201526064016101c8565b8251845114610ea95760405162461bcd60e51b815260206004820152601760248201527f496e7075747320646f6e277420636f72726573706f6e6400000000000000000060448201526064016101c8565b73e7f1725e7734ce288f8367e1bb143e90bb3f051260005b85518160ff1610156110a1576000826001600160a01b031663175fa7ea888460ff1681518110610ef357610ef36136bf565b60200260200101516040518263ffffffff1660e01b8152600401610f1991815260200190565b60206040518083038186803b158015610f3157600080fd5b505afa158015610f45573d6000803e3d6000fd5b505050506040513d601f19601f82011682018060405250810190610f69919061375f565b9050806001600160a01b0316633739e11b878460ff1681518110610f8f57610f8f6136bf565b60200260200101516040518263ffffffff1660e01b8152600401610fbf919063ffffffff91909116815260200190565b60006040518083038186803b158015610fd757600080fd5b505afa158015610feb573d6000803e3d6000fd5b505050506006840180546001810182556000918252602080832090910180546001600160a01b0319166001600160a01b0385169081179091558252600786019052604090208651879060ff8516908110611047576110476136bf565b60209081029190910181015182546001810184556000938452919092206008820401805460079092166004026101000a63ffffffff81810219909316929093169290920217905550806110998161377c565b915050610ec1565b50505b8b8160000160006101000a81548163ffffffff021916908363ffffffff1602179055508a8160010181905550898160020160006101000a81548160ff021916908315150217905550888160020160016101000a81548160ff021916908315150217905550878160020160026101000a81548160ff021916908315150217905550338160020160076101000a8154816001600160a01b0302191690836001600160a01b0316021790555085816003019080519060200190611165929190612c3c565b50845161117b9060048301906020880190612c3c565b5087156111995760028101805466ffffffff000000191690556111ba565b60028101805466ffffffff0000001916630100000063ffffffff8a16021790555b336001600160a01b03168c63ffffffff168363ffffffff167f187c18d66acd4fc31dae101d63e1343e7c24743a802cbb44b8b813101cf58b788e8e8e8e8860020160039054906101000a900463ffffffff168e8d8d60405161122398979695949392919061380d565b60405180910390a4505050505050505050505050565b6005546001600160a01b03821660009081526008602052604081205490911161126457506001919050565b6000611270600a612672565b11156113fa57735fc8d32690cc91d4c39d9d3abcbd16989f87570760005b611298600a612672565b8161ffff1610156113f75760006001600160a01b03831663175fa7ea6112c3600a61ffff861661267c565b6040518263ffffffff1660e01b81526004016112e191815260200190565b60206040518083038186803b1580156112f957600080fd5b505afa15801561130d573d6000803e3d6000fd5b505050506040513d601f19601f82011682018060405250810190611331919061375f565b6005546001600160a01b038216600090815260086020526040902054919250116113e45760405163166eb15b60e21b81526001600160a01b0386811660048301528291908216906359bac56c9060240160206040518083038186803b15801561139957600080fd5b505afa1580156113ad573d6000803e3d6000fd5b505050506040513d601f19601f820116820180604052508101906113d19190613882565b156113e25750600195945050505050565b505b50806113ef8161389f565b91505061128e565b50505b506000919050565b604051630bafd3f560e11b815260048101859052735fc8d32690cc91d4c39d9d3abcbd16989f8757079063175fa7ea9060240160206040518083038186803b15801561144d57600080fd5b505afa158015611461573d6000803e3d6000fd5b505050506040513d601f19601f82011682018060405250810190611485919061375f565b6001600160a01b0316336001600160a01b0316146114a257600080fd5b6114ad838383612688565b50505050565b6114bc33611239565b806114c657503330145b6114e25760405162461bcd60e51b81526004016101c890613694565b73e7f1725e7734ce288f8367e1bb143e90bb3f051263ffffffff82161580611591575060405163588d1be760e01b815263ffffffff831660048201526000906001600160a01b0383169063588d1be79060240160206040518083038186803b15801561154d57600080fd5b505afa158015611561573d6000803e3d6000fd5b505050506040513d601f19601f82011682018060405250810190611585919061375f565b6001600160a01b031614155b6115d55760405162461bcd60e51b81526020600482015260156024820152744e6f6e2d6578697374656e742063617465676f727960581b60448201526064016101c8565b60405163392d518560e21b815263ffffffff83166004820152735fc8d32690cc91d4c39d9d3abcbd16989f8757079063e4b5461490602401600060405180830381600087803b15801561162757600080fd5b505af115801561163b573d6000803e3d6000fd5b5050333014915061071890505760405163ffffffff83811682528416907f06430051821ecb8819b754999dfd1a452d9907849169f3ca411dc854bdb0f2b29060200160405180910390a2505050565b60006007544761169a91906136d5565b905090565b6116a833611239565b6116c45760405162461bcd60e51b81526004016101c890613694565b73cf7ed3acca5a467e9e704c703e8d87f634fb0fc96000805b84518161ffff1610156117d957838161ffff1681518110611700576117006136bf565b602002602001015161ffff16836001600160a01b0316633941a604878461ffff1681518110611731576117316136bf565b60200260200101516040518263ffffffff1660e01b8152600401611761919063ffffffff91909116815260200190565b60206040518083038186803b15801561177957600080fd5b505afa15801561178d573d6000803e3d6000fd5b505050506040513d601f19601f820116820180604052508101906117b191906138c1565b6117bb9190612d15565b6117c590836136d5565b9150806117d18161389f565b9150506116dd565b5060405163a9059cbb60e01b815273f39fd6e51aad88f6f4ce6ab8827279cfffb922666004820152602481018290526001600160a01b0383169063a9059cbb90604401602060405180830381600087803b15801561183657600080fd5b505af115801561184a573d6000803e3d6000fd5b505050506040513d601f19601f8201168201806040525081019061186e9190613882565b507fd0e7280fe218f387be224105631180630e7d8cdb9d48bbc504aa1584cf8d62d58484836040516118a2939291906138da565b60405180910390a150505050565b63ffffffff841660009081526020819052604090206001015484906118e75760405162461bcd60e51b81526004016101c890613637565b63ffffffff8516600090815260208190526040902060020154859061191b90600160381b90046001600160a01b0316611239565b1561196c5763ffffffff8116600090815260208190526040902060020154600160381b90046001600160a01b031633146119675760405162461bcd60e51b81526004016101c890613666565b611996565b61197533611239565b15156001146119965760405162461bcd60e51b81526004016101c890613694565b6000831180156119be575063ffffffff86166000908152602081905260409020600101548311155b611a025760405162461bcd60e51b8152602060048201526015602482015274496e76616c69642070726f6475637420707269636560581b60448201526064016101c8565b63ffffffff8616600090815260208190526040902060028101805487158015620100000262ff000019909216919091179091556001909101849055611a6c5763ffffffff86166000908152602081905260409020600201805466ffffffff00000019169055611aa3565b63ffffffff8087166000908152602081905260409020600201805491861663010000000266ffffffff000000199092169190911790555b63ffffffff868116600081815260208181526040918290206002015482518a151581526301000000909104909416908401528201859052907f1abdbaff3523be69e62e6a19e7ec8f2972a1e6f84f79517dbca0f63b8d852df3906060015b60405180910390a2505050505050565b60015460ff1615611b345760405162461bcd60e51b81526004016101c890612cd5565b33735fc8d32690cc91d4c39d9d3abcbd16989f87570714611b675760405162461bcd60e51b81526004016101c890613739565b6001600160a01b0383166000908152600860209081526040808320546009909252822054611b96908490612d15565b611ba09190612d34565b6001600160a01b03841660009081526009602052604081209192508291016000828254611bcd91906136d5565b90915550506001600160a01b03841660009081526009602052604081208054839290611bfa9084906136ed565b90915550506001600160a01b03841660009081526008602052604081208054849290611c279084906136ed565b90915550506001600160a01b03831660009081526008602052604081208054849290611c549084906136d5565b909155505050505050565b6000611c6d60015460ff1690565b15611c8a5760405162461bcd60e51b81526004016101c890612cd5565b600354600160a01b900460ff1615611ca157600080fd5b3373e7f1725e7734ce288f8367e1bb143e90bb3f05121415611d465760005b8451811015611d4457611cf6858281518110611cde57611cde6136bf565b6020026020010151600a612bab90919063ffffffff16565b15611d325760405162461bcd60e51b815260206004820152600c60248201526b05061796d656e74206c6f6f760a41b60448201526064016101c8565b80611d3c8161393e565b915050611cc0565b505b846001600160a01b0316336001600160a01b03167f1edfbe4132ea17d8154ccc1c03cdbf3f2406087a6989a7d7ebe742504adeb5468686604051611d8b929190613959565b60405180910390a35063bc197c8160e01b95945050505050565b33735fc8d32690cc91d4c39d9d3abcbd16989f87570714611dc557600080fd5b610718838383612688565b63ffffffff81166000908152602081905260408120600101548290611e075760405162461bcd60e51b81526004016101c890613637565b63ffffffff83166000908152602081905260408120600181015460029091015490919060ff1615611efc576000735fc8d32690cc91d4c39d9d3abcbd16989f8757079050806001600160a01b031663bb27e0ce6040518163ffffffff1660e01b815260040160206040518083038186803b158015611e8457600080fd5b505afa158015611e98573d6000803e3d6000fd5b505050506040513d601f19601f82011682018060405250810190611ebc91906138c1565b63ffffffff87166000908152602081905260409020600101549092508290611eee9069d3c21bcecceda1000000612d15565b611ef89190612d34565b9250505b63ffffffff8516600090815260208190526040902060060154156120845760005b63ffffffff861660009081526020819052604090206006015460ff821610156120825763ffffffff86166000908152602081905260408120600601805460ff8416908110611f6d57611f6d6136bf565b600091825260208083209091015463ffffffff8a16835282825260408084206001600160a01b03909216808552600790920190925290822080549193509060ff8516908110611fbe57611fbe6136bf565b6000918252602090912060088204015460405163bfe5d83560e01b8152600790921660049081026101000a90910463ffffffff16908201819052915082906001600160a01b0382169063bfe5d8359060240160206040518083038186803b15801561202857600080fd5b505afa15801561203c573d6000803e3d6000fd5b505050506040513d601f19601f8201168201806040525081019061206091906138c1565b61206a90876136d5565b9550505050808061207a9061377c565b915050611f1d565b505b5091505b50919050565b63ffffffff821660009081526020819052604090206001015482906120c55760405162461bcd60e51b81526004016101c890613637565b63ffffffff831660009081526020819052604090206002015483906120f990600160381b90046001600160a01b0316611239565b1561214a5763ffffffff8116600090815260208190526040902060020154600160381b90046001600160a01b031633146121455760405162461bcd60e51b81526004016101c890613666565b612174565b61215333611239565b15156001146121745760405162461bcd60e51b81526004016101c890613694565b63ffffffff841660009081526020819052604090206002015460ff16151583151514156121d55760405162461bcd60e51b815260206004820152600f60248201526e14d85b59481c1c9a58d9481d5b9a5d608a1b60448201526064016101c8565b6000735fc8d32690cc91d4c39d9d3abcbd16989f8757076001600160a01b031663bb27e0ce6040518163ffffffff1660e01b815260040160206040518083038186803b15801561222457600080fd5b505afa158015612238573d6000803e3d6000fd5b505050506040513d601f19601f8201168201806040525081019061225c91906138c1565b63ffffffff861660009081526020819052604090206001015490915084156122ef57600064e8d4a51000836122918285612d34565b61229b9190612d15565b6122a59190612d34565b905080156122cd5763ffffffff871660009081526020819052604090206001018190556122e9565b63ffffffff871660009081526020819052604090206001908101555b5061232b565b6000826123068369d3c21bcecceda1000000612d15565b6123109190612d34565b63ffffffff8816600090815260208190526040902060010155505b63ffffffff86166000818152602081815260409182902060028101805460ff19168a15159081179091556001909101548351908152918201527f9313b010c2388a1c2903afa4afe83485c3f52d0a177eda33cc12b480cee4be309101611b01565b600061239a60015460ff1690565b156123b75760405162461bcd60e51b81526004016101c890612cd5565b600354600160a01b900460ff16156123ce57600080fd5b3373e7f1725e7734ce288f8367e1bb143e90bb3f05121415612431576123f5600a85612bab565b156124315760405162461bcd60e51b815260206004820152600c60248201526b05061796d656e74206c6f6f760a41b60448201526064016101c8565b60408051858152602081018590526001600160a01b0387169133917ffae60880665b87af033fc873390c3749e126b4cd010b87a7f1191dbd2b32f197910160405180910390a35063f23a6e6160e01b95945050505050565b33735fc8d32690cc91d4c39d9d3abcbd16989f875707146124bc5760405162461bcd60e51b81526004016101c890613739565b60049390935560038054600592909255921515600160a01b026001600160a81b03199091166001600160a01b0390921691909117179055565b60015460ff16156125185760405162461bcd60e51b81526004016101c890612cd5565b33735fc8d32690cc91d4c39d9d3abcbd16989f8757071461254b5760405162461bcd60e51b81526004016101c890613739565b60005b82518161ffff1610156107185760006001600160a01b0316838261ffff168151811061257c5761257c6136bf565b60200260200101516001600160a01b0316141561259857600080fd5b6000828261ffff16815181106125b0576125b06136bf565b6020026020010151116125c257600080fd5b818161ffff16815181106125d8576125d86136bf565b602002602001015160086000858461ffff16815181106125fa576125fa6136bf565b60200260200101516001600160a01b03166001600160a01b0316815260200190815260200160002081905550818161ffff168151811061263c5761263c6136bf565b602002602001015160065461265191906136d5565b6006558061265e8161389f565b91505061254e565b6000610b4d8383612bc3565b600061074e825490565b6000610b4d8383612c12565b63ffffffff821660009081526020819052604090206001015482906126bf5760405162461bcd60e51b81526004016101c890613637565b61ffff82166126cd57600080fd5b63ffffffff8316600090815260208190526040902060020154610100900460ff166127835763ffffffff8084166000908152602081815260408083206001600160a01b038916845260050190915290205461272e9161ffff85169116613987565b63ffffffff166001146127835760405162461bcd60e51b815260206004820152601960248201527f4d6178696d756d207175616e746974792065786365656465640000000000000060448201526064016101c8565b63ffffffff8084166000908152602081815260408083206001600160a01b03891684526005019091528120805461ffff8616939192916127c591859116613987565b92506101000a81548163ffffffff021916908363ffffffff1602179055506000808463ffffffff1663ffffffff16815260200190815260200160002060020160029054906101000a900460ff166128e15763ffffffff808416600090815260208190526040902060020154630100000090041661ffff8316111561288b5760405162461bcd60e51b815260206004820152601860248201527f417661696c61626c6520756e697473206578636565646564000000000000000060448201526064016101c8565b63ffffffff8084166000908152602081905260409020600201805461ffff8516926003916128c291859163010000009004166139af565b92506101000a81548163ffffffff021916908363ffffffff1602179055505b63ffffffff831660009081526020819052604081206006015415612b425760005b63ffffffff851660009081526020819052604090206006015460ff82161015612b405763ffffffff85166000908152602081905260408120600601805460ff8416908110612952576129526136bf565b600091825260208083209091015463ffffffff8916835282825260408084206001600160a01b03909216808552600790920190925290822080549193509060ff85169081106129a3576129a36136bf565b60009182526020822060088204015460405163bfe5d83560e01b8152600790921660049081026101000a90910463ffffffff16908201819052925083919061ffff8916906001600160a01b0384169063bfe5d8359060240160206040518083038186803b158015612a1357600080fd5b505afa158015612a27573d6000803e3d6000fd5b505050506040513d601f19601f82011682018060405250810190612a4b91906138c1565b612a559190612d15565b60045460405160248101919091526001600160a01b038c8116604483015263ffffffff8616606483015261ffff8b166084830152919250600091861690839060a40160408051601f198184030181529181526020820180516001600160e01b0316630d4a9d5b60e31b17905251612acc91906139d4565b60006040518083038185875af1925050503d8060008114612b09576040519150601f19603f3d011682016040523d82523d6000602084013e612b0e565b606091505b5050905080612b1c57600080fd5b612b2682886136d5565b965050505050508080612b389061377c565b915050612902565b505b612b5530612b5083346136ed565b6105ff565b6040805161ffff8516815234602082015263ffffffff8616916001600160a01b038816917fcb35e6328d171aabe8c666c3fcc2ba3401887c5504bf5dfaa8b8c3be5ced01bc910160405180910390a35050505050565b60008181526001830160205260408120541515610b4d565b6000818152600183016020526040812054612c0a5750815460018181018455600084815260208082209093018490558454848252828601909352604090209190915561074e565b50600061074e565b6000826000018281548110612c2957612c296136bf565b9060005260206000200154905092915050565b828054612c4890613704565b90600052602060002090601f016020900481019282612c6a5760008555612cb0565b82601f10612c8357805160ff1916838001178555612cb0565b82800160010185558215612cb0579182015b82811115612cb0578251825591602001919060010190612c95565b50612cbc929150612cc0565b5090565b5b80821115612cbc5760008155600101612cc1565b60208082526010908201526f14185d5cd8589b194e881c185d5cd95960821b604082015260600190565b634e487b7160e01b600052601160045260246000fd5b6000816000190483118215151615612d2f57612d2f612cff565b500290565b600082612d5157634e487b7160e01b600052601260045260246000fd5b500490565b600060208284031215612d6857600080fd5b81356001600160e01b031981168114610b4d57600080fd5b803563ffffffff81168114612d9457600080fd5b919050565b600060208284031215612dab57600080fd5b610b4d82612d80565b6001600160a01b0381168114612dc957600080fd5b50565b634e487b7160e01b600052604160045260246000fd5b604051601f8201601f1916810167ffffffffffffffff81118282101715612e0b57612e0b612dcc565b604052919050565b600082601f830112612e2457600080fd5b813567ffffffffffffffff811115612e3e57612e3e612dcc565b612e51601f8201601f1916602001612de2565b818152846020838601011115612e6657600080fd5b816020850160208301376000918101602001919091529392505050565b60008060008060808587031215612e9957600080fd5b8435612ea481612db4565b93506020850135612eb481612db4565b925060408501359150606085013567ffffffffffffffff811115612ed757600080fd5b612ee387828801612e13565b91505092959194509250565b600060208284031215612f0157600080fd5b8135610b4d81612db4565b60005b83811015612f27578181015183820152602001612f0f565b838111156114ad5750506000910152565b60008151808452612f50816020860160208601612f0c565b601f01601f19169290920160200192915050565b828152604060208201526000612f7d6040830184612f38565b949350505050565b600060208284031215612f9757600080fd5b5035919050565b8015158114612dc957600080fd5b8035612d9481612f9e565b600067ffffffffffffffff821115612fd157612fd1612dcc565b5060051b60200190565b600082601f830112612fec57600080fd5b81356020613001612ffc83612fb7565b612de2565b82815260059290921b8401810191818101908684111561302057600080fd5b8286015b8481101561303b5780358352918301918301613024565b509695505050505050565b600082601f83011261305757600080fd5b81356020613067612ffc83612fb7565b82815260059290921b8401810191818101908684111561308657600080fd5b8286015b8481101561303b5761309b81612d80565b835291830191830161308a565b6000806000806000806000806000806101408b8d0312156130c857600080fd5b6130d18b612d80565b995060208b013598506130e660408c01612fac565b97506130f460608c01612fac565b965061310260808c01612fac565b955061311060a08c01612d80565b945060c08b013567ffffffffffffffff8082111561312d57600080fd5b6131398e838f01612e13565b955060e08d013591508082111561314f57600080fd5b61315b8e838f01612e13565b94506101008d013591508082111561317257600080fd5b61317e8e838f01612fdb565b93506101208d013591508082111561319557600080fd5b506131a28d828e01613046565b9150509295989b9194979a5092959850565b803561ffff81168114612d9457600080fd5b600080600080608085870312156131dc57600080fd5b8435935060208501356131ee81612db4565b92506131fc60408601612d80565b915061320a606086016131b4565b905092959194509250565b6000806040838503121561322857600080fd5b61323183612d80565b915061323f60208401612d80565b90509250929050565b6000806040838503121561325b57600080fd5b823567ffffffffffffffff8082111561327357600080fd5b61327f86838701613046565b935060209150818501358181111561329657600080fd5b85019050601f810186136132a957600080fd5b80356132b7612ffc82612fb7565b81815260059190911b820183019083810190888311156132d657600080fd5b928401925b828410156132fb576132ec846131b4565b825292840192908401906132db565b80955050505050509250929050565b6000806000806080858703121561332057600080fd5b61332985612d80565b9350602085013561333981612f9e565b925061334760408601612d80565b9396929550929360600135925050565b60008060006060848603121561336c57600080fd5b833561337781612db4565b9250602084013561338781612db4565b929592945050506040919091013590565b600080600080600060a086880312156133b057600080fd5b85356133bb81612db4565b945060208601356133cb81612db4565b9350604086013567ffffffffffffffff808211156133e857600080fd5b6133f489838a01612fdb565b9450606088013591508082111561340a57600080fd5b61341689838a01612fdb565b9350608088013591508082111561342c57600080fd5b5061343988828901612e13565b9150509295509295909350565b60008060006060848603121561345b57600080fd5b833561346681612db4565b925061347460208501612d80565b9150613482604085016131b4565b90509250925092565b6000806040838503121561349e57600080fd5b6134a783612d80565b915060208301356134b781612f9e565b809150509250929050565b600080600080600060a086880312156134da57600080fd5b85356134e581612db4565b945060208601356134f581612db4565b93506040860135925060608601359150608086013567ffffffffffffffff81111561351f57600080fd5b61343988828901612e13565b6000806000806080858703121561354157600080fd5b84359350602085013561355381612db4565b925060408501359150606085013561356a81612f9e565b939692955090935050565b6000806040838503121561358857600080fd5b823567ffffffffffffffff808211156135a057600080fd5b818501915085601f8301126135b457600080fd5b813560206135c4612ffc83612fb7565b82815260059290921b840181019181810190898411156135e357600080fd5b948201945b8386101561360a5785356135fb81612db4565b825294820194908201906135e8565b9650508601359250508082111561362057600080fd5b5061362d85828601612fdb565b9150509250929050565b602080825260159082015274141c9bd91d58dd08191bd95cdb89dd08195e1a5cdd605a1b604082015260600190565b60208082526014908201527313db9b1e4818dc99585d1bdc88185b1b1bddd95960621b604082015260600190565b6020808252601190820152704e6f7420656e6f75676820736c6963657360781b604082015260600190565b634e487b7160e01b600052603260045260246000fd5b600082198211156136e8576136e8612cff565b500190565b6000828210156136ff576136ff612cff565b500390565b600181811c9082168061371857607f821691505b6020821081141561208857634e487b7160e01b600052602260045260246000fd5b6020808252600c908201526b155b985d5d1a1bdc9a5e995960a21b604082015260600190565b60006020828403121561377157600080fd5b8151610b4d81612db4565b600060ff821660ff81141561379357613793612cff565b60010192915050565b600081518084526020808501945080840160005b838110156137cc578151875295820195908201906001016137b0565b509495945050505050565b600081518084526020808501945080840160005b838110156137cc57815163ffffffff16875295820195908201906001016137eb565b60006101008a835289151560208401528815156040840152871515606084015263ffffffff871660808401528060a084015261384b81840187612f38565b905082810360c084015261385f818661379c565b905082810360e084015261387381856137d7565b9b9a5050505050505050505050565b60006020828403121561389457600080fd5b8151610b4d81612f9e565b600061ffff808316818114156138b7576138b7612cff565b6001019392505050565b6000602082840312156138d357600080fd5b5051919050565b6060815260006138ed60608301866137d7565b82810360208481019190915285518083528682019282019060005b8181101561392857845161ffff1683529383019391830191600101613908565b5050809350505050826040830152949350505050565b600060001982141561395257613952612cff565b5060010190565b60408152600061396c604083018561379c565b828103602084015261397e818561379c565b95945050505050565b600063ffffffff8083168185168083038211156139a6576139a6612cff565b01949350505050565b600063ffffffff838116908316818110156139cc576139cc612cff565b039392505050565b600082516139e6818460208701612f0c565b919091019291505056fea2646970667358221220eb7b0b8ce332a3113f543f288fa2b342ccddf7c630845c709efb022be828ef7c64736f6c63430008080033",
  "linkReferences": {},
  "deployedLinkReferences": {}
}