{
  "_format": "hh-sol-artifact-1",
  "contractName": "SlicerDummyV1",
  "sourceName": "contracts/test/slicer_test_v1.sol",
  "abi": [
    {
      "anonymous": false,
      "inputs": [
        {
          "indexed": true,
          "internalType": "uint256",
          "name": "slicerId",
          "type": "uint256"
        }
      ],
      "name": "AddedChildrenSlicer",
      "type": "event"
    },
    {
      "anonymous": false,
      "inputs": [
        {
          "indexed": false,
          "internalType": "address",
          "name": "account",
          "type": "address"
        }
      ],
      "name": "Paused",
      "type": "event"
    },
    {
      "anonymous": false,
      "inputs": [
        {
          "indexed": true,
          "internalType": "address",
          "name": "from",
          "type": "address"
        },
        {
          "indexed": false,
          "internalType": "uint256",
          "name": "amount",
          "type": "uint256"
        }
      ],
      "name": "PaymentReceived",
      "type": "event"
    },
    {
      "anonymous": false,
      "inputs": [
        {
          "indexed": true,
          "internalType": "uint32",
          "name": "productId",
          "type": "uint32"
        },
        {
          "indexed": true,
          "internalType": "uint32",
          "name": "categoryIndex",
          "type": "uint32"
        },
        {
          "indexed": false,
          "internalType": "uint256",
          "name": "price",
          "type": "uint256"
        },
        {
          "indexed": false,
          "internalType": "bool",
          "name": "isUSD",
          "type": "bool"
        },
        {
          "indexed": false,
          "internalType": "bool",
          "name": "isMultiple",
          "type": "bool"
        },
        {
          "indexed": false,
          "internalType": "bool",
          "name": "isInfinite",
          "type": "bool"
        },
        {
          "indexed": false,
          "internalType": "uint32",
          "name": "availableUnits",
          "type": "uint32"
        },
        {
          "indexed": true,
          "internalType": "address",
          "name": "creator",
          "type": "address"
        },
        {
          "indexed": false,
          "internalType": "bytes",
          "name": "data",
          "type": "bytes"
        },
        {
          "indexed": false,
          "internalType": "uint256[]",
          "name": "subSlicersId",
          "type": "uint256[]"
        },
        {
          "indexed": false,
          "internalType": "uint32[]",
          "name": "subProducts",
          "type": "uint32[]"
        }
      ],
      "name": "ProductAdded",
      "type": "event"
    },
    {
      "anonymous": false,
      "inputs": [
        {
          "indexed": true,
          "internalType": "uint32",
          "name": "productId",
          "type": "uint32"
        },
        {
          "indexed": false,
          "internalType": "uint32",
          "name": "categoryIndex",
          "type": "uint32"
        }
      ],
      "name": "ProductCategoryChanged",
      "type": "event"
    },
    {
      "anonymous": false,
      "inputs": [
        {
          "indexed": true,
          "internalType": "uint32",
          "name": "productId",
          "type": "uint32"
        },
        {
          "indexed": false,
          "internalType": "uint256",
          "name": "productPrice",
          "type": "uint256"
        },
        {
          "indexed": false,
          "internalType": "bool",
          "name": "isUSD",
          "type": "bool"
        }
      ],
      "name": "ProductCurrencyChanged",
      "type": "event"
    },
    {
      "anonymous": false,
      "inputs": [
        {
          "indexed": true,
          "internalType": "uint32",
          "name": "productId",
          "type": "uint32"
        },
        {
          "indexed": false,
          "internalType": "bool",
          "name": "isInfinite",
          "type": "bool"
        },
        {
          "indexed": false,
          "internalType": "uint32",
          "name": "units",
          "type": "uint32"
        },
        {
          "indexed": false,
          "internalType": "uint256",
          "name": "productPrice",
          "type": "uint256"
        }
      ],
      "name": "ProductInfoChanged",
      "type": "event"
    },
    {
      "anonymous": false,
      "inputs": [
        {
          "indexed": true,
          "internalType": "address",
          "name": "from",
          "type": "address"
        },
        {
          "indexed": true,
          "internalType": "uint32",
          "name": "productId",
          "type": "uint32"
        },
        {
          "indexed": false,
          "internalType": "uint16",
          "name": "quantity",
          "type": "uint16"
        },
        {
          "indexed": false,
          "internalType": "uint256",
          "name": "productPrice",
          "type": "uint256"
        }
      ],
      "name": "ProductPaid",
      "type": "event"
    },
    {
      "anonymous": false,
      "inputs": [
        {
          "indexed": true,
          "internalType": "uint32",
          "name": "productId",
          "type": "uint32"
        }
      ],
      "name": "ProductRemoved",
      "type": "event"
    },
    {
      "anonymous": false,
      "inputs": [
        {
          "indexed": false,
          "internalType": "uint32[]",
          "name": "serviceIds",
          "type": "uint32[]"
        },
        {
          "indexed": false,
          "internalType": "uint16[]",
          "name": "quantities",
          "type": "uint16[]"
        },
        {
          "indexed": false,
          "internalType": "uint256",
          "name": "amount",
          "type": "uint256"
        }
      ],
      "name": "SLCPaid",
      "type": "event"
    },
    {
      "anonymous": false,
      "inputs": [
        {
          "indexed": true,
          "internalType": "address",
          "name": "payee",
          "type": "address"
        },
        {
          "indexed": false,
          "internalType": "uint256",
          "name": "released",
          "type": "uint256"
        }
      ],
      "name": "TriggeredRelease",
      "type": "event"
    },
    {
      "anonymous": false,
      "inputs": [
        {
          "indexed": false,
          "internalType": "address",
          "name": "account",
          "type": "address"
        }
      ],
      "name": "Unpaused",
      "type": "event"
    },
    {
      "inputs": [
        {
          "internalType": "uint256",
          "name": "id",
          "type": "uint256"
        }
      ],
      "name": "_addChildrenSlicer",
      "outputs": [],
      "stateMutability": "nonpayable",
      "type": "function"
    },
    {
      "inputs": [
        {
          "internalType": "address[]",
          "name": "accounts",
          "type": "address[]"
        },
        {
          "internalType": "uint256[]",
          "name": "shares_",
          "type": "uint256[]"
        }
      ],
      "name": "_addPayees",
      "outputs": [],
      "stateMutability": "nonpayable",
      "type": "function"
    },
    {
      "inputs": [
        {
          "internalType": "uint256",
          "name": "tokenId_",
          "type": "uint256"
        },
        {
          "internalType": "address",
          "name": "slicerCreator_",
          "type": "address"
        },
        {
          "internalType": "uint256",
          "name": "minimumShares_",
          "type": "uint256"
        }
      ],
      "name": "_initialize",
      "outputs": [],
      "stateMutability": "nonpayable",
      "type": "function"
    },
    {
      "inputs": [
        {
          "internalType": "address",
          "name": "account",
          "type": "address"
        },
        {
          "internalType": "uint32",
          "name": "productId",
          "type": "uint32"
        },
        {
          "internalType": "uint16",
          "name": "quantity",
          "type": "uint16"
        }
      ],
      "name": "_payProductFromSlice",
      "outputs": [],
      "stateMutability": "payable",
      "type": "function"
    },
    {
      "inputs": [
        {
          "internalType": "uint256",
          "name": "tokenId",
          "type": "uint256"
        },
        {
          "internalType": "address",
          "name": "account",
          "type": "address"
        },
        {
          "internalType": "uint32",
          "name": "productId",
          "type": "uint32"
        },
        {
          "internalType": "uint16",
          "name": "quantity",
          "type": "uint16"
        }
      ],
      "name": "_payProductFromSlicer",
      "outputs": [],
      "stateMutability": "payable",
      "type": "function"
    },
    {
      "inputs": [
        {
          "internalType": "address",
          "name": "accountFrom",
          "type": "address"
        },
        {
          "internalType": "address",
          "name": "accountTo",
          "type": "address"
        },
        {
          "internalType": "uint256",
          "name": "transferredShares",
          "type": "uint256"
        }
      ],
      "name": "_updatePayees",
      "outputs": [],
      "stateMutability": "nonpayable",
      "type": "function"
    },
    {
      "inputs": [
        {
          "internalType": "uint32",
          "name": "categoryIndex",
          "type": "uint32"
        },
        {
          "internalType": "uint256",
          "name": "price",
          "type": "uint256"
        },
        {
          "internalType": "bool",
          "name": "isUSD",
          "type": "bool"
        },
        {
          "internalType": "bool",
          "name": "isMultiple",
          "type": "bool"
        },
        {
          "internalType": "bool",
          "name": "isInfinite",
          "type": "bool"
        },
        {
          "internalType": "uint32",
          "name": "units",
          "type": "uint32"
        },
        {
          "internalType": "bytes",
          "name": "data",
          "type": "bytes"
        },
        {
          "internalType": "bytes",
          "name": "purchaseData",
          "type": "bytes"
        },
        {
          "internalType": "uint256[]",
          "name": "subSlicersId_",
          "type": "uint256[]"
        },
        {
          "internalType": "uint32[]",
          "name": "subProducts_",
          "type": "uint32[]"
        }
      ],
      "name": "addProduct",
      "outputs": [],
      "stateMutability": "nonpayable",
      "type": "function"
    },
    {
      "inputs": [
        {
          "internalType": "address",
          "name": "payee",
          "type": "address"
        }
      ],
      "name": "isPayeeAllowed",
      "outputs": [
        {
          "internalType": "bool",
          "name": "",
          "type": "bool"
        }
      ],
      "stateMutability": "view",
      "type": "function"
    },
    {
      "inputs": [
        {
          "internalType": "uint32",
          "name": "productId",
          "type": "uint32"
        }
      ],
      "name": "isProduct",
      "outputs": [],
      "stateMutability": "view",
      "type": "function"
    },
    {
      "inputs": [
        {
          "internalType": "address",
          "name": "",
          "type": "address"
        },
        {
          "internalType": "address",
          "name": "",
          "type": "address"
        },
        {
          "internalType": "uint256[]",
          "name": "ids",
          "type": "uint256[]"
        },
        {
          "internalType": "uint256[]",
          "name": "",
          "type": "uint256[]"
        },
        {
          "internalType": "bytes",
          "name": "",
          "type": "bytes"
        }
      ],
      "name": "onERC1155BatchReceived",
      "outputs": [
        {
          "internalType": "bytes4",
          "name": "",
          "type": "bytes4"
        }
      ],
      "stateMutability": "nonpayable",
      "type": "function"
    },
    {
      "inputs": [
        {
          "internalType": "address",
          "name": "",
          "type": "address"
        },
        {
          "internalType": "address",
          "name": "",
          "type": "address"
        },
        {
          "internalType": "uint256",
          "name": "id",
          "type": "uint256"
        },
        {
          "internalType": "uint256",
          "name": "",
          "type": "uint256"
        },
        {
          "internalType": "bytes",
          "name": "",
          "type": "bytes"
        }
      ],
      "name": "onERC1155Received",
      "outputs": [
        {
          "internalType": "bytes4",
          "name": "",
          "type": "bytes4"
        }
      ],
      "stateMutability": "nonpayable",
      "type": "function"
    },
    {
      "inputs": [
        {
          "internalType": "address",
          "name": "",
          "type": "address"
        },
        {
          "internalType": "address",
          "name": "from",
          "type": "address"
        },
        {
          "internalType": "uint256",
          "name": "",
          "type": "uint256"
        },
        {
          "internalType": "bytes",
          "name": "",
          "type": "bytes"
        }
      ],
      "name": "onERC721Received",
      "outputs": [
        {
          "internalType": "bytes4",
          "name": "",
          "type": "bytes4"
        }
      ],
      "stateMutability": "nonpayable",
      "type": "function"
    },
    {
      "inputs": [],
      "name": "paused",
      "outputs": [
        {
          "internalType": "bool",
          "name": "",
          "type": "bool"
        }
      ],
      "stateMutability": "view",
      "type": "function"
    },
    {
      "inputs": [
        {
          "internalType": "uint32[]",
          "name": "serviceIds",
          "type": "uint32[]"
        },
        {
          "internalType": "uint16[]",
          "name": "quantities",
          "type": "uint16[]"
        }
      ],
      "name": "paySLC",
      "outputs": [],
      "stateMutability": "nonpayable",
      "type": "function"
    },
    {
      "inputs": [
        {
          "internalType": "uint32",
          "name": "productId",
          "type": "uint32"
        }
      ],
      "name": "productPrice",
      "outputs": [
        {
          "internalType": "uint256",
          "name": "price",
          "type": "uint256"
        }
      ],
      "stateMutability": "view",
      "type": "function"
    },
    {
      "inputs": [
        {
          "internalType": "address payable",
          "name": "account",
          "type": "address"
        }
      ],
      "name": "release",
      "outputs": [
        {
          "internalType": "uint256",
          "name": "",
          "type": "uint256"
        }
      ],
      "stateMutability": "nonpayable",
      "type": "function"
    },
    {
      "inputs": [
        {
          "internalType": "address",
          "name": "account",
          "type": "address"
        }
      ],
      "name": "released",
      "outputs": [
        {
          "internalType": "uint256",
          "name": "",
          "type": "uint256"
        }
      ],
      "stateMutability": "view",
      "type": "function"
    },
    {
      "inputs": [
        {
          "internalType": "uint32",
          "name": "productId",
          "type": "uint32"
        }
      ],
      "name": "removeProduct",
      "outputs": [],
      "stateMutability": "nonpayable",
      "type": "function"
    },
    {
      "inputs": [
        {
          "internalType": "uint32",
          "name": "productId",
          "type": "uint32"
        },
        {
          "internalType": "uint32",
          "name": "categoryIndex",
          "type": "uint32"
        }
      ],
      "name": "setProductCategory",
      "outputs": [],
      "stateMutability": "nonpayable",
      "type": "function"
    },
    {
      "inputs": [
        {
          "internalType": "uint32",
          "name": "productId",
          "type": "uint32"
        },
        {
          "internalType": "bool",
          "name": "isInfinite",
          "type": "bool"
        },
        {
          "internalType": "uint32",
          "name": "newUnits",
          "type": "uint32"
        },
        {
          "internalType": "uint256",
          "name": "newPrice",
          "type": "uint256"
        }
      ],
      "name": "setProductInfo",
      "outputs": [],
      "stateMutability": "nonpayable",
      "type": "function"
    },
    {
      "inputs": [],
      "name": "slicerInfo",
      "outputs": [
        {
          "internalType": "uint256",
          "name": "",
          "type": "uint256"
        },
        {
          "internalType": "uint8",
          "name": "version",
          "type": "uint8"
        },
        {
          "internalType": "address",
          "name": "creator",
          "type": "address"
        },
        {
          "internalType": "uint256",
          "name": "",
          "type": "uint256"
        }
      ],
      "stateMutability": "view",
      "type": "function"
    },
    {
      "inputs": [
        {
          "internalType": "bytes4",
          "name": "interfaceId",
          "type": "bytes4"
        }
      ],
      "name": "supportsInterface",
      "outputs": [
        {
          "internalType": "bool",
          "name": "",
          "type": "bool"
        }
      ],
      "stateMutability": "view",
      "type": "function"
    },
    {
      "inputs": [],
      "name": "testDummy",
      "outputs": [
        {
          "internalType": "int8",
          "name": "",
          "type": "int8"
        }
      ],
      "stateMutability": "pure",
      "type": "function"
    },
    {
      "inputs": [
        {
          "internalType": "uint32",
          "name": "productId",
          "type": "uint32"
        },
        {
          "internalType": "bool",
          "name": "isUSD",
          "type": "bool"
        }
      ],
      "name": "toggleUSDPrice",
      "outputs": [],
      "stateMutability": "nonpayable",
      "type": "function"
    },
    {
      "inputs": [],
      "name": "totalReceived",
      "outputs": [
        {
          "internalType": "uint256",
          "name": "",
          "type": "uint256"
        }
      ],
      "stateMutability": "view",
      "type": "function"
    },
    {
      "inputs": [
        {
          "internalType": "address",
          "name": "account",
          "type": "address"
        }
      ],
      "name": "unreleased",
      "outputs": [
        {
          "internalType": "uint256",
          "name": "",
          "type": "uint256"
        }
      ],
      "stateMutability": "view",
      "type": "function"
    },
    {
      "inputs": [
        {
          "internalType": "uint32",
          "name": "productId",
          "type": "uint32"
        }
      ],
      "name": "validatePurchase",
      "outputs": [
        {
          "internalType": "uint256",
          "name": "purchases",
          "type": "uint256"
        },
        {
          "internalType": "bytes",
          "name": "purchaseData",
          "type": "bytes"
        }
      ],
      "stateMutability": "view",
      "type": "function"
    },
    {
      "stateMutability": "payable",
      "type": "receive"
    }
  ],
  "bytecode": "0x608060405234801561001057600080fd5b506001805460ff1916815560025561392d8061002d6000396000f3fe6080604052600436106101a05760003560e01c8063800ddcaa116100ec578063bbf2b4881161008a578063bfe5d83511610064578063bfe5d8351461057f578063dd102d5e1461059f578063f23a6e61146105bf578063fd5e12e3146105df57600080fd5b8063bbf2b4881461052c578063bc197c811461054c578063bf271aa61461056c57600080fd5b80639852595c116100c65780639852595c1461049e578063a3c2c462146104d7578063b1b47357146104ec578063b78ee7671461050c57600080fd5b8063800ddcaa1461041f5780638ba78c071461043f578063957e07b61461045b57600080fd5b80633739e11b1161015957806354c2a04c1161013357806354c2a04c146103b457806359bac56c146103d45780635c975abb146103f45780636a54ead81461040c57600080fd5b80633739e11b1461035457806344eecfd014610374578063525e2ad51461039457600080fd5b806301ffc9a7146102485780630c170ffd1461027d578063150b7a021461029f57806319165587146102d85780632a67293d14610306578063344603231461032657600080fd5b366102435760015460ff16156101d15760405162461bcd60e51b81526004016101c8906135ad565b60405180910390fd5b60006103e86101e1601934613776565b6101eb9190613754565b905061020b73f39fd6e51aad88f6f4ce6ab8827279cfffb92266826105ff565b60405134815233907f6ef95f06320e7a25a04a175ca677b7052bdd97131872c2192525a629f51be7709060200160405180910390a250005b600080fd5b34801561025457600080fd5b50610268610263366004613190565b61071d565b60405190151581526020015b60405180910390f35b34801561028957600080fd5b5061029d610298366004613262565b610754565b005b3480156102ab57600080fd5b506102bf6102ba366004612ec7565b6108d3565b6040516001600160e01b03199091168152602001610274565b3480156102e457600080fd5b506102f86102f3366004612d9e565b61090b565b604051908152602001610274565b34801561031257600080fd5b506102f8610321366004612d9e565b610a82565b34801561033257600080fd5b50610346610341366004613262565b610b11565b60405161027492919061369e565b34801561036057600080fd5b5061029d61036f366004613262565b610c43565b34801561038057600080fd5b5061029d61038f3660046131d3565b610c7e565b3480156103a057600080fd5b5061029d6103af366004613301565b610d0e565b3480156103c057600080fd5b5061029d6103cf3660046131ec565b6111f6565b3480156103e057600080fd5b506102686103ef366004612d9e565b611254565b34801561040057600080fd5b5060015460ff16610268565b61029d61041a366004613213565b61141d565b34801561042b57600080fd5b5061029d61043a36600461340d565b6114ce565b34801561044b57600080fd5b50604051602a8152602001610274565b34801561046757600080fd5b5060045460035460055460408051938452600260208501526001600160a01b03909216918301919091526060820152608001610274565b3480156104aa57600080fd5b506102f86104b9366004612d9e565b6001600160a01b031660009081526009602052604090206001015490565b3480156104e357600080fd5b506102f86116a5565b3480156104f857600080fd5b5061029d6105073660046130aa565b6116ba565b34801561051857600080fd5b5061029d6105273660046132b4565b6118cb565b34801561053857600080fd5b5061029d610547366004612e86565b611b2c565b34801561055857600080fd5b506102bf610567366004612dd8565b611c7a565b61029d61057a366004612f9c565b611d5c565b34801561058b57600080fd5b506102f861059a366004613262565b611d87565b3480156105ab57600080fd5b5061029d6105ba36600461327d565b612045565b3480156105cb57600080fd5b506102bf6105da366004612f33565b612343565b3480156105eb57600080fd5b5061029d6105fa366004612fe1565b6123e3565b8047101561064f5760405162461bcd60e51b815260206004820152601d60248201527f416464726573733a20696e73756666696369656e742062616c616e636500000060448201526064016101c8565b6000826001600160a01b03168260405160006040518083038185875af1925050503d806000811461069c576040519150601f19603f3d011682016040523d82523d6000602084013e6106a1565b606091505b50509050806107185760405162461bcd60e51b815260206004820152603a60248201527f416464726573733a20756e61626c6520746f2073656e642076616c75652c207260448201527f6563697069656e74206d6179206861766520726576657274656400000000000060648201526084016101c8565b505050565b60006001600160e01b03198216630271189760e51b148061074e57506301ffc9a760e01b6001600160e01b03198316145b92915050565b63ffffffff8116600090815260208190526040902060010154819061078b5760405162461bcd60e51b81526004016101c89061352d565b63ffffffff821660009081526020819052604090206002015482906107bf90600160381b90046001600160a01b0316611254565b156108105763ffffffff8116600090815260208190526040902060020154600160381b90046001600160a01b0316331461080b5760405162461bcd60e51b81526004016101c8906135d7565b61083a565b61081933611254565b151560011461083a5760405162461bcd60e51b81526004016101c890613582565b63ffffffff8316600081815260208181526040808320805463ffffffff19168155600181018490556002810180546301000000600160d81b031916905581518084019283905284815294845292909152915161089c9260039092019190612b86565b5060405163ffffffff8416907f761b291efc1cf42f36eac86ac2f397b06b9606dfb16059c83eb3ab8cc7e53e3090600090a2505050565b60006108de84611254565b6108fa5760405162461bcd60e51b81526004016101c890613582565b50630a85bd0160e11b949350505050565b600060028054141561095f5760405162461bcd60e51b815260206004820152601f60248201527f5265656e7472616e637947756172643a207265656e7472616e742063616c6c0060448201526064016101c8565b60028055600061096e83610a82565b9050806109b25760405162461bcd60e51b81526020600482015260126024820152715061796d656e74206973206e6f742064756560701b60448201526064016101c8565b6001600160a01b038316600090815260096020526040812080548392906109da908490613714565b90915550506001600160a01b038316600090815260096020526040902081906001016000828254610a0b9190613714565b925050819055508060076000828254610a249190613714565b90915550610a34905083826105ff565b826001600160a01b03167fd01a8cc9ab129109f449ed0a777705c57b0aa086d3e08fe4a8de773b397143e782604051610a6f91815260200190565b60405180910390a2600160025592915050565b6006546001600160a01b03821660009081526008602052604081205490918291610aaa6116a5565b610ab49190613776565b610abe9190613754565b6001600160a01b0384166000908152600960205260409020549091508111610ae7576000610b0a565b6001600160a01b038316600090815260096020526040902054610b0a9082613795565b9392505050565b63ffffffff808216600090815260208181526040808320338452600501909152812054909160609116610b7a5760405162461bcd60e51b8152602060048201526011602482015270139bdd081c1d5c98da185cd959081e595d607a1b60448201526064016101c8565b63ffffffff8084166000818152602081815260408083203384526005810183529083205493835291905260040180549190921691908190610bba906137fd565b80601f0160208091040260200160405190810160405280929190818152602001828054610be6906137fd565b8015610c335780601f10610c0857610100808354040283529160200191610c33565b820191906000526020600020905b815481529060010190602001808311610c1657829003601f168201915b5050505050905091509150915091565b63ffffffff81166000908152602081905260409020600101548190610c7a5760405162461bcd60e51b81526004016101c89061352d565b5050565b60015460ff1615610ca15760405162461bcd60e51b81526004016101c8906135ad565b33735fc8d32690cc91d4c39d9d3abcbd16989f87570714610cd45760405162461bcd60e51b81526004016101c89061355c565b610cdf600a82612554565b5060405181907f0d29335611f0a3110c445dd4bbfb88a2cde38f18cf9cf36d6154d714cb097c5b90600090a250565b610d1733611254565b610d335760405162461bcd60e51b81526004016101c890613582565b60008911610d795760405162461bcd60e51b815260206004820152601360248201527241646420612070726f6475637420707269636560681b60448201526064016101c8565b610d87600c80546001019055565b6000610d92600c5490565b63ffffffff80821660009081526020819052604090209192508c1615610dbc57610dbc828d6114ce565b83511561106157835160141015610e155760405162461bcd60e51b815260206004820152601760248201527f4d617820737562736c696365727320657863656564656400000000000000000060448201526064016101c8565b8251845114610e665760405162461bcd60e51b815260206004820152601760248201527f496e7075747320646f6e277420636f72726573706f6e6400000000000000000060448201526064016101c8565b73e7f1725e7734ce288f8367e1bb143e90bb3f051260005b85518160ff16101561105e576000826001600160a01b031663175fa7ea888460ff1681518110610eb057610eb06138a5565b60200260200101516040518263ffffffff1660e01b8152600401610ed691815260200190565b60206040518083038186803b158015610eee57600080fd5b505afa158015610f02573d6000803e3d6000fd5b505050506040513d601f19601f82011682018060405250810190610f269190612dbb565b9050806001600160a01b0316633739e11b878460ff1681518110610f4c57610f4c6138a5565b60200260200101516040518263ffffffff1660e01b8152600401610f7c919063ffffffff91909116815260200190565b60006040518083038186803b158015610f9457600080fd5b505afa158015610fa8573d6000803e3d6000fd5b505050506006840180546001810182556000918252602080832090910180546001600160a01b0319166001600160a01b0385169081179091558252600786019052604090208651879060ff8516908110611004576110046138a5565b60209081029190910181015182546001810184556000938452919092206008820401805460079092166004026101000a63ffffffff81810219909316929093169290920217905550806110568161386f565b915050610e7e565b50505b8b8160000160006101000a81548163ffffffff021916908363ffffffff1602179055508a8160010181905550898160020160006101000a81548160ff021916908315150217905550888160020160016101000a81548160ff021916908315150217905550878160020160026101000a81548160ff021916908315150217905550338160020160076101000a8154816001600160a01b0302191690836001600160a01b0316021790555085816003019080519060200190611122929190612b86565b5084516111389060048301906020880190612b86565b5087156111565760028101805466ffffffff00000019169055611177565b60028101805466ffffffff0000001916630100000063ffffffff8a16021790555b336001600160a01b03168c63ffffffff168363ffffffff167f187c18d66acd4fc31dae101d63e1343e7c24743a802cbb44b8b813101cf58b788e8e8e8e8860020160039054906101000a900463ffffffff168e8d8d6040516111e0989796959493929190613605565b60405180910390a4505050505050505050505050565b33735fc8d32690cc91d4c39d9d3abcbd16989f875707146112295760405162461bcd60e51b81526004016101c89061355c565b600492909255600380546001600160a01b0319166001600160a01b0392909216919091179055600555565b6005546001600160a01b03821660009081526008602052604081205490911161127f57506001919050565b600061128b600a612560565b111561141557735fc8d32690cc91d4c39d9d3abcbd16989f87570760005b6112b3600a612560565b8161ffff1610156114125760006001600160a01b03831663175fa7ea6112de600a61ffff861661256a565b6040518263ffffffff1660e01b81526004016112fc91815260200190565b60206040518083038186803b15801561131457600080fd5b505afa158015611328573d6000803e3d6000fd5b505050506040513d601f19601f8201168201806040525081019061134c9190612dbb565b6005546001600160a01b038216600090815260086020526040902054919250116113ff5760405163166eb15b60e21b81526001600160a01b0386811660048301528291908216906359bac56c9060240160206040518083038186803b1580156113b457600080fd5b505afa1580156113c8573d6000803e3d6000fd5b505050506040513d601f19601f820116820180604052508101906113ec9190613173565b156113fd5750600195945050505050565b505b508061140a81613832565b9150506112a9565b50505b506000919050565b604051630bafd3f560e11b815260048101859052735fc8d32690cc91d4c39d9d3abcbd16989f8757079063175fa7ea9060240160206040518083038186803b15801561146857600080fd5b505afa15801561147c573d6000803e3d6000fd5b505050506040513d601f19601f820116820180604052508101906114a09190612dbb565b6001600160a01b0316336001600160a01b0316146114bd57600080fd5b6114c8838383612576565b50505050565b6114d733611254565b806114e157503330145b6114fd5760405162461bcd60e51b81526004016101c890613582565b73e7f1725e7734ce288f8367e1bb143e90bb3f051263ffffffff821615806115ac575060405163588d1be760e01b815263ffffffff831660048201526000906001600160a01b0383169063588d1be79060240160206040518083038186803b15801561156857600080fd5b505afa15801561157c573d6000803e3d6000fd5b505050506040513d601f19601f820116820180604052508101906115a09190612dbb565b6001600160a01b031614155b6115f05760405162461bcd60e51b81526020600482015260156024820152744e6f6e2d6578697374656e742063617465676f727960581b60448201526064016101c8565b60405163392d518560e21b815263ffffffff83166004820152735fc8d32690cc91d4c39d9d3abcbd16989f8757079063e4b5461490602401600060405180830381600087803b15801561164257600080fd5b505af1158015611656573d6000803e3d6000fd5b5050333014915061071890505760405163ffffffff83811682528416907f06430051821ecb8819b754999dfd1a452d9907849169f3ca411dc854bdb0f2b29060200160405180910390a2505050565b6000600754476116b59190613714565b905090565b6116c333611254565b6116df5760405162461bcd60e51b81526004016101c890613582565b73cf7ed3acca5a467e9e704c703e8d87f634fb0fc96000805b84518161ffff1610156117f457838161ffff168151811061171b5761171b6138a5565b602002602001015161ffff16836001600160a01b0316633941a604878461ffff168151811061174c5761174c6138a5565b60200260200101516040518263ffffffff1660e01b815260040161177c919063ffffffff91909116815260200190565b60206040518083038186803b15801561179457600080fd5b505afa1580156117a8573d6000803e3d6000fd5b505050506040513d601f19601f820116820180604052508101906117cc91906131ba565b6117d69190613776565b6117e09083613714565b9150806117ec81613832565b9150506116f8565b5060405163a9059cbb60e01b815273f39fd6e51aad88f6f4ce6ab8827279cfffb922666004820152602481018290526001600160a01b0383169063a9059cbb90604401602060405180830381600087803b15801561185157600080fd5b505af1158015611865573d6000803e3d6000fd5b505050506040513d601f19601f820116820180604052508101906118899190613173565b507fd0e7280fe218f387be224105631180630e7d8cdb9d48bbc504aa1584cf8d62d58484836040516118bd939291906134c9565b60405180910390a150505050565b63ffffffff841660009081526020819052604090206001015484906119025760405162461bcd60e51b81526004016101c89061352d565b63ffffffff8516600090815260208190526040902060020154859061193690600160381b90046001600160a01b0316611254565b156119875763ffffffff8116600090815260208190526040902060020154600160381b90046001600160a01b031633146119825760405162461bcd60e51b81526004016101c8906135d7565b6119b1565b61199033611254565b15156001146119b15760405162461bcd60e51b81526004016101c890613582565b6000831180156119d9575063ffffffff86166000908152602081905260409020600101548311155b611a1d5760405162461bcd60e51b8152602060048201526015602482015274496e76616c69642070726f6475637420707269636560581b60448201526064016101c8565b63ffffffff8616600090815260208190526040902060028101805487158015620100000262ff000019909216919091179091556001909101849055611a875763ffffffff86166000908152602081905260409020600201805466ffffffff00000019169055611abe565b63ffffffff8087166000908152602081905260409020600201805491861663010000000266ffffffff000000199092169190911790555b63ffffffff868116600081815260208181526040918290206002015482518a151581526301000000909104909416908401528201859052907f1abdbaff3523be69e62e6a19e7ec8f2972a1e6f84f79517dbca0f63b8d852df3906060015b60405180910390a2505050505050565b60015460ff1615611b4f5760405162461bcd60e51b81526004016101c8906135ad565b33735fc8d32690cc91d4c39d9d3abcbd16989f87570714611b825760405162461bcd60e51b81526004016101c89061355c565b6001600160a01b0383166000908152600860209081526040808320546009909252822054611bb1908490613776565b611bbb9190613754565b6001600160a01b03841660009081526009602052604081209192508291016000828254611be89190613714565b90915550506001600160a01b03841660009081526009602052604081208054839290611c15908490613795565b90915550506001600160a01b03841660009081526008602052604081208054849290611c42908490613795565b90915550506001600160a01b03831660009081526008602052604081208054849290611c6f908490613714565b909155505050505050565b6000611c8860015460ff1690565b15611ca55760405162461bcd60e51b81526004016101c8906135ad565b3373e7f1725e7734ce288f8367e1bb143e90bb3f05121415611d4a5760005b8451811015611d4857611cfa858281518110611ce257611ce26138a5565b6020026020010151600a612a9990919063ffffffff16565b15611d365760405162461bcd60e51b815260206004820152600c60248201526b05061796d656e74206c6f6f760a41b60448201526064016101c8565b80611d4081613854565b915050611cc4565b505b5063bc197c8160e01b95945050505050565b33735fc8d32690cc91d4c39d9d3abcbd16989f87570714611d7c57600080fd5b610718838383612576565b63ffffffff81166000908152602081905260408120600101548290611dbe5760405162461bcd60e51b81526004016101c89061352d565b63ffffffff83166000908152602081905260408120600181015460029091015490919060ff1615611eb3576000735fc8d32690cc91d4c39d9d3abcbd16989f8757079050806001600160a01b031663bb27e0ce6040518163ffffffff1660e01b815260040160206040518083038186803b158015611e3b57600080fd5b505afa158015611e4f573d6000803e3d6000fd5b505050506040513d601f19601f82011682018060405250810190611e7391906131ba565b63ffffffff87166000908152602081905260409020600101549092508290611ea59069d3c21bcecceda1000000613776565b611eaf9190613754565b9250505b63ffffffff85166000908152602081905260409020600601541561203b5760005b63ffffffff861660009081526020819052604090206006015460ff821610156120395763ffffffff86166000908152602081905260408120600601805460ff8416908110611f2457611f246138a5565b600091825260208083209091015463ffffffff8a16835282825260408084206001600160a01b03909216808552600790920190925290822080549193509060ff8516908110611f7557611f756138a5565b6000918252602090912060088204015460405163bfe5d83560e01b8152600790921660049081026101000a90910463ffffffff16908201819052915082906001600160a01b0382169063bfe5d8359060240160206040518083038186803b158015611fdf57600080fd5b505afa158015611ff3573d6000803e3d6000fd5b505050506040513d601f19601f8201168201806040525081019061201791906131ba565b6120219087613714565b955050505080806120319061386f565b915050611ed4565b505b5091505b50919050565b63ffffffff8216600090815260208190526040902060010154829061207c5760405162461bcd60e51b81526004016101c89061352d565b63ffffffff831660009081526020819052604090206002015483906120b090600160381b90046001600160a01b0316611254565b156121015763ffffffff8116600090815260208190526040902060020154600160381b90046001600160a01b031633146120fc5760405162461bcd60e51b81526004016101c8906135d7565b61212b565b61210a33611254565b151560011461212b5760405162461bcd60e51b81526004016101c890613582565b63ffffffff841660009081526020819052604090206002015460ff161515831515141561218c5760405162461bcd60e51b815260206004820152600f60248201526e14d85b59481c1c9a58d9481d5b9a5d608a1b60448201526064016101c8565b6000735fc8d32690cc91d4c39d9d3abcbd16989f8757076001600160a01b031663bb27e0ce6040518163ffffffff1660e01b815260040160206040518083038186803b1580156121db57600080fd5b505afa1580156121ef573d6000803e3d6000fd5b505050506040513d601f19601f8201168201806040525081019061221391906131ba565b63ffffffff861660009081526020819052604090206001015490915084156122a657600064e8d4a51000836122488285613754565b6122529190613776565b61225c9190613754565b905080156122845763ffffffff871660009081526020819052604090206001018190556122a0565b63ffffffff871660009081526020819052604090206001908101555b506122e2565b6000826122bd8369d3c21bcecceda1000000613776565b6122c79190613754565b63ffffffff8816600090815260208190526040902060010155505b63ffffffff86166000818152602081815260409182902060028101805460ff19168a15159081179091556001909101548351908152918201527f9313b010c2388a1c2903afa4afe83485c3f52d0a177eda33cc12b480cee4be309101611b1c565b600061235160015460ff1690565b1561236e5760405162461bcd60e51b81526004016101c8906135ad565b3373e7f1725e7734ce288f8367e1bb143e90bb3f051214156123d157612395600a85612a99565b156123d15760405162461bcd60e51b815260206004820152600c60248201526b05061796d656e74206c6f6f760a41b60448201526064016101c8565b5063f23a6e6160e01b95945050505050565b60015460ff16156124065760405162461bcd60e51b81526004016101c8906135ad565b33735fc8d32690cc91d4c39d9d3abcbd16989f875707146124395760405162461bcd60e51b81526004016101c89061355c565b60005b82518161ffff1610156107185760006001600160a01b0316838261ffff168151811061246a5761246a6138a5565b60200260200101516001600160a01b0316141561248657600080fd5b6000828261ffff168151811061249e5761249e6138a5565b6020026020010151116124b057600080fd5b818161ffff16815181106124c6576124c66138a5565b602002602001015160086000858461ffff16815181106124e8576124e86138a5565b60200260200101516001600160a01b03166001600160a01b0316815260200190815260200160002081905550818161ffff168151811061252a5761252a6138a5565b602002602001015160065461253f9190613714565b6006558061254c81613832565b91505061243c565b6000610b0a8383612ab1565b600061074e825490565b6000610b0a8383612b00565b63ffffffff821660009081526020819052604090206001015482906125ad5760405162461bcd60e51b81526004016101c89061352d565b61ffff82166125bb57600080fd5b63ffffffff8316600090815260208190526040902060020154610100900460ff166126715763ffffffff8084166000908152602081815260408083206001600160a01b038916845260050190915290205461261c9161ffff8516911661372c565b63ffffffff166001146126715760405162461bcd60e51b815260206004820152601960248201527f4d6178696d756d207175616e746974792065786365656465640000000000000060448201526064016101c8565b63ffffffff8084166000908152602081815260408083206001600160a01b03891684526005019091528120805461ffff8616939192916126b39185911661372c565b92506101000a81548163ffffffff021916908363ffffffff1602179055506000808463ffffffff1663ffffffff16815260200190815260200160002060020160029054906101000a900460ff166127cf5763ffffffff808416600090815260208190526040902060020154630100000090041661ffff831611156127795760405162461bcd60e51b815260206004820152601860248201527f417661696c61626c6520756e697473206578636565646564000000000000000060448201526064016101c8565b63ffffffff8084166000908152602081905260409020600201805461ffff8516926003916127b091859163010000009004166137ac565b92506101000a81548163ffffffff021916908363ffffffff1602179055505b63ffffffff831660009081526020819052604081206006015415612a305760005b63ffffffff851660009081526020819052604090206006015460ff82161015612a2e5763ffffffff85166000908152602081905260408120600601805460ff8416908110612840576128406138a5565b600091825260208083209091015463ffffffff8916835282825260408084206001600160a01b03909216808552600790920190925290822080549193509060ff8516908110612891576128916138a5565b60009182526020822060088204015460405163bfe5d83560e01b8152600790921660049081026101000a90910463ffffffff16908201819052925083919061ffff8916906001600160a01b0384169063bfe5d8359060240160206040518083038186803b15801561290157600080fd5b505afa158015612915573d6000803e3d6000fd5b505050506040513d601f19601f8201168201806040525081019061293991906131ba565b6129439190613776565b60045460405160248101919091526001600160a01b038c8116604483015263ffffffff8616606483015261ffff8b166084830152919250600091861690839060a40160408051601f198184030181529181526020820180516001600160e01b0316630d4a9d5b60e31b179052516129ba91906134ad565b60006040518083038185875af1925050503d80600081146129f7576040519150601f19603f3d011682016040523d82523d6000602084013e6129fc565b606091505b5050905080612a0a57600080fd5b612a148288613714565b965050505050508080612a269061386f565b9150506127f0565b505b612a4330612a3e8334613795565b6105ff565b6040805161ffff8516815234602082015263ffffffff8616916001600160a01b038816917fcb35e6328d171aabe8c666c3fcc2ba3401887c5504bf5dfaa8b8c3be5ced01bc910160405180910390a35050505050565b60008181526001830160205260408120541515610b0a565b6000818152600183016020526040812054612af85750815460018181018455600084815260208082209093018490558454848252828601909352604090209190915561074e565b50600061074e565b81546000908210612b5e5760405162461bcd60e51b815260206004820152602260248201527f456e756d657261626c655365743a20696e646578206f7574206f6620626f756e604482015261647360f01b60648201526084016101c8565b826000018281548110612b7357612b736138a5565b9060005260206000200154905092915050565b828054612b92906137fd565b90600052602060002090601f016020900481019282612bb45760008555612bfa565b82601f10612bcd57805160ff1916838001178555612bfa565b82800160010185558215612bfa579182015b82811115612bfa578251825591602001919060010190612bdf565b50612c06929150612c0a565b5090565b5b80821115612c065760008155600101612c0b565b600082601f830112612c3057600080fd5b81356020612c45612c40836136f0565b6136bf565b80838252828201915082860187848660051b8901011115612c6557600080fd5b60005b85811015612c8457813584529284019290840190600101612c68565b5090979650505050505050565b600082601f830112612ca257600080fd5b81356020612cb2612c40836136f0565b80838252828201915082860187848660051b8901011115612cd257600080fd5b60005b85811015612c8457612ce682612d8a565b84529284019290840190600101612cd5565b8035612d03816138e9565b919050565b600082601f830112612d1957600080fd5b813567ffffffffffffffff811115612d3357612d336138bb565b612d46601f8201601f19166020016136bf565b818152846020838601011115612d5b57600080fd5b816020850160208301376000918101602001919091529392505050565b803561ffff81168114612d0357600080fd5b803563ffffffff81168114612d0357600080fd5b600060208284031215612db057600080fd5b8135610b0a816138d1565b600060208284031215612dcd57600080fd5b8151610b0a816138d1565b600080600080600060a08688031215612df057600080fd5b8535612dfb816138d1565b94506020860135612e0b816138d1565b9350604086013567ffffffffffffffff80821115612e2857600080fd5b612e3489838a01612c1f565b94506060880135915080821115612e4a57600080fd5b612e5689838a01612c1f565b93506080880135915080821115612e6c57600080fd5b50612e7988828901612d08565b9150509295509295909350565b600080600060608486031215612e9b57600080fd5b8335612ea6816138d1565b92506020840135612eb6816138d1565b929592945050506040919091013590565b60008060008060808587031215612edd57600080fd5b8435612ee8816138d1565b93506020850135612ef8816138d1565b925060408501359150606085013567ffffffffffffffff811115612f1b57600080fd5b612f2787828801612d08565b91505092959194509250565b600080600080600060a08688031215612f4b57600080fd5b8535612f56816138d1565b94506020860135612f66816138d1565b93506040860135925060608601359150608086013567ffffffffffffffff811115612f9057600080fd5b612e7988828901612d08565b600080600060608486031215612fb157600080fd5b8335612fbc816138d1565b9250612fca60208501612d8a565b9150612fd860408501612d78565b90509250925092565b60008060408385031215612ff457600080fd5b823567ffffffffffffffff8082111561300c57600080fd5b818501915085601f83011261302057600080fd5b81356020613030612c40836136f0565b8083825282820191508286018a848660051b890101111561305057600080fd5b600096505b8487101561307c578035613068816138d1565b835260019690960195918301918301613055565b509650508601359250508082111561309357600080fd5b506130a085828601612c1f565b9150509250929050565b600080604083850312156130bd57600080fd5b823567ffffffffffffffff808211156130d557600080fd5b6130e186838701612c91565b93506020915081850135818111156130f857600080fd5b85019050601f8101861361310b57600080fd5b8035613119612c40826136f0565b80828252848201915084840189868560051b870101111561313957600080fd5b600094505b838510156131635761314f81612d78565b83526001949094019391850191850161313e565b5080955050505050509250929050565b60006020828403121561318557600080fd5b8151610b0a816138e9565b6000602082840312156131a257600080fd5b81356001600160e01b031981168114610b0a57600080fd5b6000602082840312156131cc57600080fd5b5051919050565b6000602082840312156131e557600080fd5b5035919050565b60008060006060848603121561320157600080fd5b833592506020840135612eb6816138d1565b6000806000806080858703121561322957600080fd5b84359350602085013561323b816138d1565b925061324960408601612d8a565b915061325760608601612d78565b905092959194509250565b60006020828403121561327457600080fd5b610b0a82612d8a565b6000806040838503121561329057600080fd5b61329983612d8a565b915060208301356132a9816138e9565b809150509250929050565b600080600080608085870312156132ca57600080fd5b6132d385612d8a565b935060208501356132e3816138e9565b92506132f160408601612d8a565b9396929550929360600135925050565b6000806000806000806000806000806101408b8d03121561332157600080fd5b61332a8b612d8a565b995060208b0135985061333f60408c01612cf8565b975061334d60608c01612cf8565b965061335b60808c01612cf8565b955061336960a08c01612d8a565b945060c08b013567ffffffffffffffff8082111561338657600080fd5b6133928e838f01612d08565b955060e08d01359150808211156133a857600080fd5b6133b48e838f01612d08565b94506101008d01359150808211156133cb57600080fd5b6133d78e838f01612c1f565b93506101208d01359150808211156133ee57600080fd5b506133fb8d828e01612c91565b9150509295989b9194979a5092959850565b6000806040838503121561342057600080fd5b61342983612d8a565b915061343760208401612d8a565b90509250929050565b600081518084526020808501945080840160005b8381101561347657815163ffffffff1687529582019590820190600101613454565b509495945050505050565b600081518084526134998160208601602086016137d1565b601f01601f19169290920160200192915050565b600082516134bf8184602087016137d1565b9190910192915050565b6060815260006134dc6060830186613440565b82810360208481019190915285518083528682019282019060005b8181101561351757845161ffff16835293830193918301916001016134f7565b5050809350505050826040830152949350505050565b602080825260159082015274141c9bd91d58dd08191bd95cdb89dd08195e1a5cdd605a1b604082015260600190565b6020808252600c908201526b155b985d5d1a1bdc9a5e995960a21b604082015260600190565b6020808252601190820152704e6f7420656e6f75676820736c6963657360781b604082015260600190565b60208082526010908201526f14185d5cd8589b194e881c185d5cd95960821b604082015260600190565b60208082526014908201527313db9b1e4818dc99585d1bdc88185b1b1bddd95960621b604082015260600190565b60006101008a835260208a1515818501528915156040850152881515606085015263ffffffff881660808501528160a085015261364482850188613481565b84810360c0860152865180825282880193509082019060005b818110156136795784518352938301939183019160010161365d565b505084810360e086015261368d8187613440565b9d9c50505050505050505050505050565b8281526040602082015260006136b76040830184613481565b949350505050565b604051601f8201601f1916810167ffffffffffffffff811182821017156136e8576136e86138bb565b604052919050565b600067ffffffffffffffff82111561370a5761370a6138bb565b5060051b60200190565b600082198211156137275761372761388f565b500190565b600063ffffffff80831681851680830382111561374b5761374b61388f565b01949350505050565b60008261377157634e487b7160e01b600052601260045260246000fd5b500490565b60008160001904831182151516156137905761379061388f565b500290565b6000828210156137a7576137a761388f565b500390565b600063ffffffff838116908316818110156137c9576137c961388f565b039392505050565b60005b838110156137ec5781810151838201526020016137d4565b838111156114c85750506000910152565b600181811c9082168061381157607f821691505b6020821081141561203f57634e487b7160e01b600052602260045260246000fd5b600061ffff8083168181141561384a5761384a61388f565b6001019392505050565b60006000198214156138685761386861388f565b5060010190565b600060ff821660ff8114156138865761388661388f565b60010192915050565b634e487b7160e01b600052601160045260246000fd5b634e487b7160e01b600052603260045260246000fd5b634e487b7160e01b600052604160045260246000fd5b6001600160a01b03811681146138e657600080fd5b50565b80151581146138e657600080fdfea26469706673582212200947dc09be7fa05ceab12e14e775bdc6b23513e27717258296feb29d4a5e96cf64736f6c63430008070033",
  "linkReferences": {},
  "deployedLinkReferences": {}
}