{
  "_format": "hh-sol-artifact-1",
  "contractName": "SlicerDummyV1",
  "sourceName": "contracts/test/slicer_test_v1.sol",
  "abi": [
    {
      "anonymous": false,
      "inputs": [
        {
          "indexed": true,
          "internalType": "uint256",
          "name": "slicerId",
          "type": "uint256"
        }
      ],
      "name": "AddedChildrenSlicer",
      "type": "event"
    },
    {
      "anonymous": false,
      "inputs": [
        {
          "indexed": false,
          "internalType": "address",
          "name": "account",
          "type": "address"
        }
      ],
      "name": "Paused",
      "type": "event"
    },
    {
      "anonymous": false,
      "inputs": [
        {
          "indexed": true,
          "internalType": "address",
          "name": "from",
          "type": "address"
        },
        {
          "indexed": false,
          "internalType": "uint256",
          "name": "amount",
          "type": "uint256"
        }
      ],
      "name": "PaymentReceived",
      "type": "event"
    },
    {
      "anonymous": false,
      "inputs": [
        {
          "indexed": true,
          "internalType": "uint32",
          "name": "productId",
          "type": "uint32"
        },
        {
          "indexed": true,
          "internalType": "uint32",
          "name": "categoryIndex",
          "type": "uint32"
        },
        {
          "indexed": false,
          "internalType": "uint256",
          "name": "price",
          "type": "uint256"
        },
        {
          "indexed": false,
          "internalType": "bool",
          "name": "isUSD",
          "type": "bool"
        },
        {
          "indexed": false,
          "internalType": "bool",
          "name": "isMultiple",
          "type": "bool"
        },
        {
          "indexed": false,
          "internalType": "bool",
          "name": "isInfinite",
          "type": "bool"
        },
        {
          "indexed": false,
          "internalType": "uint32",
          "name": "availableUnits",
          "type": "uint32"
        },
        {
          "indexed": true,
          "internalType": "address",
          "name": "creator",
          "type": "address"
        },
        {
          "indexed": false,
          "internalType": "bytes",
          "name": "data",
          "type": "bytes"
        }
      ],
      "name": "ProductAdded",
      "type": "event"
    },
    {
      "anonymous": false,
      "inputs": [
        {
          "indexed": true,
          "internalType": "uint32",
          "name": "productId",
          "type": "uint32"
        },
        {
          "indexed": false,
          "internalType": "uint32",
          "name": "categoryIndex",
          "type": "uint32"
        }
      ],
      "name": "ProductCategoryChanged",
      "type": "event"
    },
    {
      "anonymous": false,
      "inputs": [
        {
          "indexed": true,
          "internalType": "uint32",
          "name": "productId",
          "type": "uint32"
        },
        {
          "indexed": false,
          "internalType": "uint256",
          "name": "productPrice",
          "type": "uint256"
        },
        {
          "indexed": false,
          "internalType": "bool",
          "name": "isUSD",
          "type": "bool"
        }
      ],
      "name": "ProductCurrencyChanged",
      "type": "event"
    },
    {
      "anonymous": false,
      "inputs": [
        {
          "indexed": true,
          "internalType": "uint32",
          "name": "productId",
          "type": "uint32"
        },
        {
          "indexed": false,
          "internalType": "bool",
          "name": "isInfinite",
          "type": "bool"
        },
        {
          "indexed": false,
          "internalType": "uint32",
          "name": "units",
          "type": "uint32"
        },
        {
          "indexed": false,
          "internalType": "uint256",
          "name": "productPrice",
          "type": "uint256"
        }
      ],
      "name": "ProductInfoChanged",
      "type": "event"
    },
    {
      "anonymous": false,
      "inputs": [
        {
          "indexed": true,
          "internalType": "address",
          "name": "from",
          "type": "address"
        },
        {
          "indexed": true,
          "internalType": "uint32",
          "name": "productId",
          "type": "uint32"
        },
        {
          "indexed": false,
          "internalType": "uint16",
          "name": "quantity",
          "type": "uint16"
        },
        {
          "indexed": false,
          "internalType": "uint256",
          "name": "productPrice",
          "type": "uint256"
        }
      ],
      "name": "ProductPaid",
      "type": "event"
    },
    {
      "anonymous": false,
      "inputs": [
        {
          "indexed": true,
          "internalType": "uint32",
          "name": "productId",
          "type": "uint32"
        }
      ],
      "name": "ProductRemoved",
      "type": "event"
    },
    {
      "anonymous": false,
      "inputs": [
        {
          "indexed": false,
          "internalType": "uint32[]",
          "name": "serviceIds",
          "type": "uint32[]"
        },
        {
          "indexed": false,
          "internalType": "uint16[]",
          "name": "quantities",
          "type": "uint16[]"
        },
        {
          "indexed": false,
          "internalType": "uint256",
          "name": "amount",
          "type": "uint256"
        }
      ],
      "name": "SLCPaid",
      "type": "event"
    },
    {
      "anonymous": false,
      "inputs": [
        {
          "indexed": true,
          "internalType": "address",
          "name": "payee",
          "type": "address"
        },
        {
          "indexed": false,
          "internalType": "uint256",
          "name": "released",
          "type": "uint256"
        }
      ],
      "name": "TriggeredRelease",
      "type": "event"
    },
    {
      "anonymous": false,
      "inputs": [
        {
          "indexed": false,
          "internalType": "address",
          "name": "account",
          "type": "address"
        }
      ],
      "name": "Unpaused",
      "type": "event"
    },
    {
      "inputs": [
        {
          "internalType": "uint256",
          "name": "id",
          "type": "uint256"
        }
      ],
      "name": "_addChildrenSlicer",
      "outputs": [],
      "stateMutability": "nonpayable",
      "type": "function"
    },
    {
      "inputs": [
        {
          "internalType": "address[]",
          "name": "accounts",
          "type": "address[]"
        },
        {
          "internalType": "uint256[]",
          "name": "shares_",
          "type": "uint256[]"
        }
      ],
      "name": "_addPayees",
      "outputs": [],
      "stateMutability": "nonpayable",
      "type": "function"
    },
    {
      "inputs": [
        {
          "internalType": "uint256",
          "name": "tokenId_",
          "type": "uint256"
        },
        {
          "internalType": "address",
          "name": "slicerCreator_",
          "type": "address"
        },
        {
          "internalType": "uint256",
          "name": "minimumShares_",
          "type": "uint256"
        }
      ],
      "name": "_initialize",
      "outputs": [],
      "stateMutability": "nonpayable",
      "type": "function"
    },
    {
      "inputs": [
        {
          "internalType": "address",
          "name": "account",
          "type": "address"
        },
        {
          "internalType": "uint32",
          "name": "productId",
          "type": "uint32"
        },
        {
          "internalType": "uint16",
          "name": "quantity",
          "type": "uint16"
        }
      ],
      "name": "_payProduct",
      "outputs": [],
      "stateMutability": "payable",
      "type": "function"
    },
    {
      "inputs": [
        {
          "internalType": "address",
          "name": "accountFrom",
          "type": "address"
        },
        {
          "internalType": "address",
          "name": "accountTo",
          "type": "address"
        },
        {
          "internalType": "uint256",
          "name": "transferredShares",
          "type": "uint256"
        }
      ],
      "name": "_updatePayees",
      "outputs": [],
      "stateMutability": "nonpayable",
      "type": "function"
    },
    {
      "inputs": [
        {
          "internalType": "uint32",
          "name": "categoryIndex",
          "type": "uint32"
        },
        {
          "internalType": "uint256",
          "name": "price",
          "type": "uint256"
        },
        {
          "internalType": "bool",
          "name": "isUSD",
          "type": "bool"
        },
        {
          "internalType": "bool",
          "name": "isMultiple",
          "type": "bool"
        },
        {
          "internalType": "bool",
          "name": "isInfinite",
          "type": "bool"
        },
        {
          "internalType": "uint32",
          "name": "units",
          "type": "uint32"
        },
        {
          "internalType": "bytes",
          "name": "data",
          "type": "bytes"
        },
        {
          "internalType": "bytes",
          "name": "purchaseData",
          "type": "bytes"
        }
      ],
      "name": "addProduct",
      "outputs": [],
      "stateMutability": "nonpayable",
      "type": "function"
    },
    {
      "inputs": [
        {
          "internalType": "address",
          "name": "payee",
          "type": "address"
        }
      ],
      "name": "isPayeeAllowed",
      "outputs": [
        {
          "internalType": "bool",
          "name": "",
          "type": "bool"
        }
      ],
      "stateMutability": "view",
      "type": "function"
    },
    {
      "inputs": [
        {
          "internalType": "address",
          "name": "",
          "type": "address"
        },
        {
          "internalType": "address",
          "name": "",
          "type": "address"
        },
        {
          "internalType": "uint256[]",
          "name": "ids",
          "type": "uint256[]"
        },
        {
          "internalType": "uint256[]",
          "name": "",
          "type": "uint256[]"
        },
        {
          "internalType": "bytes",
          "name": "",
          "type": "bytes"
        }
      ],
      "name": "onERC1155BatchReceived",
      "outputs": [
        {
          "internalType": "bytes4",
          "name": "",
          "type": "bytes4"
        }
      ],
      "stateMutability": "nonpayable",
      "type": "function"
    },
    {
      "inputs": [
        {
          "internalType": "address",
          "name": "",
          "type": "address"
        },
        {
          "internalType": "address",
          "name": "",
          "type": "address"
        },
        {
          "internalType": "uint256",
          "name": "id",
          "type": "uint256"
        },
        {
          "internalType": "uint256",
          "name": "",
          "type": "uint256"
        },
        {
          "internalType": "bytes",
          "name": "",
          "type": "bytes"
        }
      ],
      "name": "onERC1155Received",
      "outputs": [
        {
          "internalType": "bytes4",
          "name": "",
          "type": "bytes4"
        }
      ],
      "stateMutability": "nonpayable",
      "type": "function"
    },
    {
      "inputs": [],
      "name": "paused",
      "outputs": [
        {
          "internalType": "bool",
          "name": "",
          "type": "bool"
        }
      ],
      "stateMutability": "view",
      "type": "function"
    },
    {
      "inputs": [
        {
          "internalType": "uint32[]",
          "name": "serviceIds",
          "type": "uint32[]"
        },
        {
          "internalType": "uint16[]",
          "name": "quantities",
          "type": "uint16[]"
        }
      ],
      "name": "paySLC",
      "outputs": [],
      "stateMutability": "nonpayable",
      "type": "function"
    },
    {
      "inputs": [
        {
          "internalType": "uint32",
          "name": "productId",
          "type": "uint32"
        }
      ],
      "name": "productPrice",
      "outputs": [
        {
          "internalType": "uint256",
          "name": "price",
          "type": "uint256"
        },
        {
          "internalType": "bool",
          "name": "isUSD",
          "type": "bool"
        }
      ],
      "stateMutability": "view",
      "type": "function"
    },
    {
      "inputs": [
        {
          "internalType": "address payable",
          "name": "account",
          "type": "address"
        }
      ],
      "name": "release",
      "outputs": [
        {
          "internalType": "uint256",
          "name": "",
          "type": "uint256"
        }
      ],
      "stateMutability": "nonpayable",
      "type": "function"
    },
    {
      "inputs": [
        {
          "internalType": "address",
          "name": "account",
          "type": "address"
        }
      ],
      "name": "released",
      "outputs": [
        {
          "internalType": "uint256",
          "name": "",
          "type": "uint256"
        }
      ],
      "stateMutability": "view",
      "type": "function"
    },
    {
      "inputs": [
        {
          "internalType": "uint32",
          "name": "productId",
          "type": "uint32"
        }
      ],
      "name": "removeProduct",
      "outputs": [],
      "stateMutability": "nonpayable",
      "type": "function"
    },
    {
      "inputs": [
        {
          "internalType": "uint32",
          "name": "productId",
          "type": "uint32"
        },
        {
          "internalType": "uint32",
          "name": "categoryIndex",
          "type": "uint32"
        }
      ],
      "name": "setProductCategory",
      "outputs": [],
      "stateMutability": "nonpayable",
      "type": "function"
    },
    {
      "inputs": [
        {
          "internalType": "uint32",
          "name": "productId",
          "type": "uint32"
        },
        {
          "internalType": "bool",
          "name": "isInfinite",
          "type": "bool"
        },
        {
          "internalType": "uint32",
          "name": "newUnits",
          "type": "uint32"
        },
        {
          "internalType": "uint256",
          "name": "newPrice",
          "type": "uint256"
        }
      ],
      "name": "setProductInfo",
      "outputs": [],
      "stateMutability": "nonpayable",
      "type": "function"
    },
    {
      "inputs": [],
      "name": "slicerInfo",
      "outputs": [
        {
          "internalType": "uint256",
          "name": "",
          "type": "uint256"
        },
        {
          "internalType": "uint8",
          "name": "version",
          "type": "uint8"
        },
        {
          "internalType": "address",
          "name": "creator",
          "type": "address"
        },
        {
          "internalType": "uint256",
          "name": "",
          "type": "uint256"
        }
      ],
      "stateMutability": "view",
      "type": "function"
    },
    {
      "inputs": [
        {
          "internalType": "bytes4",
          "name": "interfaceId",
          "type": "bytes4"
        }
      ],
      "name": "supportsInterface",
      "outputs": [
        {
          "internalType": "bool",
          "name": "",
          "type": "bool"
        }
      ],
      "stateMutability": "view",
      "type": "function"
    },
    {
      "inputs": [],
      "name": "testDummy",
      "outputs": [
        {
          "internalType": "int8",
          "name": "",
          "type": "int8"
        }
      ],
      "stateMutability": "pure",
      "type": "function"
    },
    {
      "inputs": [
        {
          "internalType": "uint32",
          "name": "productId",
          "type": "uint32"
        },
        {
          "internalType": "bool",
          "name": "isUSD",
          "type": "bool"
        }
      ],
      "name": "toggleUSDPrice",
      "outputs": [],
      "stateMutability": "nonpayable",
      "type": "function"
    },
    {
      "inputs": [],
      "name": "totalReceived",
      "outputs": [
        {
          "internalType": "uint256",
          "name": "",
          "type": "uint256"
        }
      ],
      "stateMutability": "view",
      "type": "function"
    },
    {
      "inputs": [
        {
          "internalType": "address",
          "name": "account",
          "type": "address"
        }
      ],
      "name": "unreleased",
      "outputs": [
        {
          "internalType": "uint256",
          "name": "",
          "type": "uint256"
        }
      ],
      "stateMutability": "view",
      "type": "function"
    },
    {
      "inputs": [
        {
          "internalType": "uint32",
          "name": "productId",
          "type": "uint32"
        }
      ],
      "name": "validatePurchase",
      "outputs": [
        {
          "internalType": "uint256",
          "name": "purchases",
          "type": "uint256"
        },
        {
          "internalType": "bytes",
          "name": "purchaseData",
          "type": "bytes"
        }
      ],
      "stateMutability": "view",
      "type": "function"
    },
    {
      "stateMutability": "payable",
      "type": "receive"
    }
  ],
  "bytecode": "0x608060405234801561001057600080fd5b506001805460ff19168155600255612e368061002d6000396000f3fe60806040526004361061014f5760003560e01c80638ba78c07116100b6578063bbf2b4881161006f578063bbf2b48814610482578063bc197c81146104a2578063bfe5d835146104db578063dd102d5e14610510578063f23a6e6114610530578063fd5e12e31461055057600080fd5b80638ba78c0714610395578063957e07b6146103b15780639852595c146103f4578063a3c2c4621461042d578063b1b4735714610442578063b78ee7671461046257600080fd5b806344eecfd01161010857806344eecfd0146102dd57806345c47233146102fd57806354c2a04c1461031d57806359bac56c1461033d5780635c975abb1461035d578063800ddcaa1461037557600080fd5b806301ffc9a7146101f75780630c170ffd1461022c578063191655871461024e5780632a67293d1461027c57806330e552481461029c57806334460323146102af57600080fd5b366101f25760015460ff16156101805760405162461bcd60e51b815260040161017790612b21565b60405180910390fd5b60006103e8610190601934612cc5565b61019a9190612ca3565b90506101ba73f39fd6e51aad88f6f4ce6ab8827279cfffb9226682610570565b60405134815233907f6ef95f06320e7a25a04a175ca677b7052bdd97131872c2192525a629f51be7709060200160405180910390a250005b600080fd5b34801561020357600080fd5b506102176102123660046127d5565b61068e565b60405190151581526020015b60405180910390f35b34801561023857600080fd5b5061024c610247366004612858565b6106c5565b005b34801561025a57600080fd5b5061026e61026936600461245b565b610844565b604051908152602001610223565b34801561028857600080fd5b5061026e61029736600461245b565b610a18565b61024c6102aa3660046125ed565b610aa7565b3480156102bb57600080fd5b506102cf6102ca366004612858565b610d92565b604051610223929190612bed565b3480156102e957600080fd5b5061024c6102f8366004612818565b610ec4565b34801561030957600080fd5b5061024c6103183660046128f7565b610f54565b34801561032957600080fd5b5061024c610338366004612831565b61114f565b34801561034957600080fd5b5061021761035836600461245b565b6111ad565b34801561036957600080fd5b5060015460ff16610217565b34801561038157600080fd5b5061024c6103903660046129be565b611376565b3480156103a157600080fd5b50604051602a8152602001610223565b3480156103bd57600080fd5b5060035460045460055460408051938452600260208501526001600160a01b03909216918301919091526060820152608001610223565b34801561040057600080fd5b5061026e61040f36600461245b565b6001600160a01b031660009081526009602052604090206001015490565b34801561043957600080fd5b5061026e61154d565b34801561044e57600080fd5b5061024c61045d3660046126fb565b611562565b34801561046e57600080fd5b5061024c61047d3660046128aa565b611773565b34801561048e57600080fd5b5061024c61049d366004612543565b6119d4565b3480156104ae57600080fd5b506104c26104bd366004612495565b611b22565b6040516001600160e01b03199091168152602001610223565b3480156104e757600080fd5b506104fb6104f6366004612858565b611be7565b60408051928352901515602083015201610223565b34801561051c57600080fd5b5061024c61052b366004612873565b611c4c565b34801561053c57600080fd5b506104c261054b366004612584565b611f4a565b34801561055c57600080fd5b5061024c61056b366004612632565b611fce565b804710156105c05760405162461bcd60e51b815260206004820152601d60248201527f416464726573733a20696e73756666696369656e742062616c616e63650000006044820152606401610177565b6000826001600160a01b03168260405160006040518083038185875af1925050503d806000811461060d576040519150601f19603f3d011682016040523d82523d6000602084013e610612565b606091505b50509050806106895760405162461bcd60e51b815260206004820152603a60248201527f416464726573733a20756e61626c6520746f2073656e642076616c75652c207260448201527f6563697069656e74206d617920686176652072657665727465640000000000006064820152608401610177565b505050565b60006001600160e01b03198216630271189760e51b14806106bf57506301ffc9a760e01b6001600160e01b03198316145b92915050565b63ffffffff811660009081526020819052604090206001015481906106fc5760405162461bcd60e51b815260040161017790612acc565b63ffffffff8216600090815260208190526040902060020154829061073090600160381b90046001600160a01b03166111ad565b156107815763ffffffff8116600090815260208190526040902060020154600160381b90046001600160a01b0316331461077c5760405162461bcd60e51b815260040161017790612b4b565b6107ab565b61078a336111ad565b15156001146107ab5760405162461bcd60e51b815260040161017790612b79565b63ffffffff8316600081815260208181526040808320805463ffffffff19168155600181018490556002810180546301000000600160d81b031916905581518084019283905284815294845292909152915161080d926003909201919061224e565b5060405163ffffffff8416907f761b291efc1cf42f36eac86ac2f397b06b9606dfb16059c83eb3ab8cc7e53e3090600090a2505050565b60006002805414156108985760405162461bcd60e51b815260206004820152601f60248201527f5265656e7472616e637947756172643a207265656e7472616e742063616c6c006044820152606401610177565b600280556001600160a01b0382166000908152600860205260409020546108f95760405162461bcd60e51b81526020600482015260156024820152746163636f756e7420686173206e6f2073686172657360581b6044820152606401610177565b600061090483610a18565b9050806109485760405162461bcd60e51b81526020600482015260126024820152715061796d656e74206973206e6f742064756560701b6044820152606401610177565b6001600160a01b03831660009081526009602052604081208054839290610970908490612c63565b90915550506001600160a01b0383166000908152600960205260409020819060010160008282546109a19190612c63565b9250508190555080600760008282546109ba9190612c63565b909155506109ca90508382610570565b826001600160a01b03167fd01a8cc9ab129109f449ed0a777705c57b0aa086d3e08fe4a8de773b397143e782604051610a0591815260200190565b60405180910390a2600160025592915050565b6006546001600160a01b03821660009081526008602052604081205490918291610a4061154d565b610a4a9190612cc5565b610a549190612ca3565b6001600160a01b0384166000908152600960205260409020549091508111610a7d576000610aa0565b6001600160a01b038316600090815260096020526040902054610aa09082612ce4565b9392505050565b33735fc8d32690cc91d4c39d9d3abcbd16989f87570714610ada5760405162461bcd60e51b815260040161017790612afb565b63ffffffff82166000908152602081905260409020600101548290610b115760405162461bcd60e51b815260040161017790612acc565b61ffff8216610b1f57600080fd5b63ffffffff8316600090815260208190526040902060020154610100900460ff16610bd55763ffffffff8084166000908152602081815260408083206001600160a01b0389168452600501909152902054610b809161ffff85169116612c7b565b63ffffffff16600114610bd55760405162461bcd60e51b815260206004820152601960248201527f4d6178696d756d207175616e74697479206578636565646564000000000000006044820152606401610177565b610bdf3034610570565b63ffffffff8084166000908152602081815260408083206001600160a01b03891684526005019091528120805461ffff861693919291610c2191859116612c7b565b92506101000a81548163ffffffff021916908363ffffffff1602179055506000808463ffffffff1663ffffffff16815260200190815260200160002060020160029054906101000a900460ff16610d3d5763ffffffff808416600090815260208190526040902060020154630100000090041661ffff83161115610ce75760405162461bcd60e51b815260206004820152601860248201527f417661696c61626c6520756e69747320657863656564656400000000000000006044820152606401610177565b63ffffffff8084166000908152602081905260409020600201805461ffff851692600391610d1e9185916301000000900416612cfb565b92506101000a81548163ffffffff021916908363ffffffff1602179055505b6040805161ffff8416815234602082015263ffffffff8516916001600160a01b038716917fcb35e6328d171aabe8c666c3fcc2ba3401887c5504bf5dfaa8b8c3be5ced01bc910160405180910390a350505050565b63ffffffff808216600090815260208181526040808320338452600501909152812054909160609116610dfb5760405162461bcd60e51b8152602060048201526011602482015270139bdd081c1d5c98da185cd959081e595d607a1b6044820152606401610177565b63ffffffff8084166000818152602081815260408083203384526005810183529083205493835291905260040180549190921691908190610e3b90612d20565b80601f0160208091040260200160405190810160405280929190818152602001828054610e6790612d20565b8015610eb45780601f10610e8957610100808354040283529160200191610eb4565b820191906000526020600020905b815481529060010190602001808311610e9757829003601f168201915b5050505050905091509150915091565b60015460ff1615610ee75760405162461bcd60e51b815260040161017790612b21565b33735fc8d32690cc91d4c39d9d3abcbd16989f87570714610f1a5760405162461bcd60e51b815260040161017790612afb565b610f25600a8261213f565b5060405181907f0d29335611f0a3110c445dd4bbfb88a2cde38f18cf9cf36d6154d714cb097c5b90600090a250565b610f5d336111ad565b610f795760405162461bcd60e51b815260040161017790612b79565b60008711610fbf5760405162461bcd60e51b815260206004820152601360248201527241646420612070726f6475637420707269636560681b6044820152606401610177565b610fcd600c80546001019055565b6000610fd8600c5490565b63ffffffff80821660009081526020819052604090209192508a161561100257611002828b611376565b805463ffffffff191663ffffffff8b161781556001810189905560028101805461ffff191689151561ff00191617610100891515021766ffffffff010000600160d81b0319166201000088151502670100000000000000600160d81b0319161733600160381b021790558351611081906003830190602087019061224e565b508251611097906004830190602086019061224e565b5085156110b55760028101805466ffffffff000000191690556110d6565b60028101805466ffffffff0000001916630100000063ffffffff8816021790555b336001600160a01b03168a63ffffffff168363ffffffff167fe3127f9c6bfb40ed0d48ee64afbe28821682c3d483effa9256a15fc8ccffd48a8c8c8c8c8860020160039054906101000a900463ffffffff168c60405161113b96959493929190612ba4565b60405180910390a450505050505050505050565b33735fc8d32690cc91d4c39d9d3abcbd16989f875707146111825760405162461bcd60e51b815260040161017790612afb565b600392909255600480546001600160a01b0319166001600160a01b0392909216919091179055600555565b6005546001600160a01b0382166000908152600860205260408120549091116111d857506001919050565b60006111e4600a61214b565b111561136e57735fc8d32690cc91d4c39d9d3abcbd16989f87570760005b61120c600a61214b565b8161ffff16101561136b5760006001600160a01b03831663175fa7ea611237600a61ffff8616612155565b6040518263ffffffff1660e01b815260040161125591815260200190565b60206040518083038186803b15801561126d57600080fd5b505afa158015611281573d6000803e3d6000fd5b505050506040513d601f19601f820116820180604052508101906112a59190612478565b6005546001600160a01b038216600090815260086020526040902054919250116113585760405163166eb15b60e21b81526001600160a01b0386811660048301528291908216906359bac56c9060240160206040518083038186803b15801561130d57600080fd5b505afa158015611321573d6000803e3d6000fd5b505050506040513d601f19601f8201168201806040525081019061134591906127b8565b156113565750600195945050505050565b505b508061136381612d5b565b915050611202565b50505b506000919050565b61137f336111ad565b8061138957503330145b6113a55760405162461bcd60e51b815260040161017790612b79565b73e7f1725e7734ce288f8367e1bb143e90bb3f051263ffffffff82161580611454575060405163588d1be760e01b815263ffffffff831660048201526000906001600160a01b0383169063588d1be79060240160206040518083038186803b15801561141057600080fd5b505afa158015611424573d6000803e3d6000fd5b505050506040513d601f19601f820116820180604052508101906114489190612478565b6001600160a01b031614155b6114985760405162461bcd60e51b81526020600482015260156024820152744e6f6e2d6578697374656e742063617465676f727960581b6044820152606401610177565b60405163392d518560e21b815263ffffffff83166004820152735fc8d32690cc91d4c39d9d3abcbd16989f8757079063e4b5461490602401600060405180830381600087803b1580156114ea57600080fd5b505af11580156114fe573d6000803e3d6000fd5b5050333014915061068990505760405163ffffffff83811682528416907f06430051821ecb8819b754999dfd1a452d9907849169f3ca411dc854bdb0f2b29060200160405180910390a2505050565b60006007544761155d9190612c63565b905090565b61156b336111ad565b6115875760405162461bcd60e51b815260040161017790612b79565b73cf7ed3acca5a467e9e704c703e8d87f634fb0fc96000805b84518161ffff16101561169c57838161ffff16815181106115c3576115c3612dae565b602002602001015161ffff16836001600160a01b0316633941a604878461ffff16815181106115f4576115f4612dae565b60200260200101516040518263ffffffff1660e01b8152600401611624919063ffffffff91909116815260200190565b60206040518083038186803b15801561163c57600080fd5b505afa158015611650573d6000803e3d6000fd5b505050506040513d601f19601f8201168201806040525081019061167491906127ff565b61167e9190612cc5565b6116889083612c63565b91508061169481612d5b565b9150506115a0565b5060405163a9059cbb60e01b815273f39fd6e51aad88f6f4ce6ab8827279cfffb922666004820152602481018290526001600160a01b0383169063a9059cbb90604401602060405180830381600087803b1580156116f957600080fd5b505af115801561170d573d6000803e3d6000fd5b505050506040513d601f19601f8201168201806040525081019061173191906127b8565b507fd0e7280fe218f387be224105631180630e7d8cdb9d48bbc504aa1584cf8d62d584848360405161176593929190612a3e565b60405180910390a150505050565b63ffffffff841660009081526020819052604090206001015484906117aa5760405162461bcd60e51b815260040161017790612acc565b63ffffffff851660009081526020819052604090206002015485906117de90600160381b90046001600160a01b03166111ad565b1561182f5763ffffffff8116600090815260208190526040902060020154600160381b90046001600160a01b0316331461182a5760405162461bcd60e51b815260040161017790612b4b565b611859565b611838336111ad565b15156001146118595760405162461bcd60e51b815260040161017790612b79565b600083118015611881575063ffffffff86166000908152602081905260409020600101548311155b6118c55760405162461bcd60e51b8152602060048201526015602482015274496e76616c69642070726f6475637420707269636560581b6044820152606401610177565b63ffffffff8616600090815260208190526040902060028101805487158015620100000262ff00001990921691909117909155600190910184905561192f5763ffffffff86166000908152602081905260409020600201805466ffffffff00000019169055611966565b63ffffffff8087166000908152602081905260409020600201805491861663010000000266ffffffff000000199092169190911790555b63ffffffff868116600081815260208181526040918290206002015482518a151581526301000000909104909416908401528201859052907f1abdbaff3523be69e62e6a19e7ec8f2972a1e6f84f79517dbca0f63b8d852df3906060015b60405180910390a2505050505050565b60015460ff16156119f75760405162461bcd60e51b815260040161017790612b21565b33735fc8d32690cc91d4c39d9d3abcbd16989f87570714611a2a5760405162461bcd60e51b815260040161017790612afb565b6001600160a01b0383166000908152600860209081526040808320546009909252822054611a59908490612cc5565b611a639190612ca3565b6001600160a01b03841660009081526009602052604081209192508291016000828254611a909190612c63565b90915550506001600160a01b03841660009081526009602052604081208054839290611abd908490612ce4565b90915550506001600160a01b03841660009081526008602052604081208054849290611aea908490612ce4565b90915550506001600160a01b03831660009081526008602052604081208054849290611b17908490612c63565b909155505050505050565b6000611b3060015460ff1690565b15611b4d5760405162461bcd60e51b815260040161017790612b21565b60005b8451811015611bd457611b86858281518110611b6e57611b6e612dae565b6020026020010151600a61216190919063ffffffff16565b15611bc25760405162461bcd60e51b815260206004820152600c60248201526b05061796d656e74206c6f6f760a41b6044820152606401610177565b80611bcc81612d7d565b915050611b50565b5063bc197c8160e01b9695505050505050565b63ffffffff811660009081526020819052604081206001015481908390611c205760405162461bcd60e51b815260040161017790612acc565b50505063ffffffff1660009081526020819052604090206001810154600290910154909160ff90911690565b63ffffffff82166000908152602081905260409020600101548290611c835760405162461bcd60e51b815260040161017790612acc565b63ffffffff83166000908152602081905260409020600201548390611cb790600160381b90046001600160a01b03166111ad565b15611d085763ffffffff8116600090815260208190526040902060020154600160381b90046001600160a01b03163314611d035760405162461bcd60e51b815260040161017790612b4b565b611d32565b611d11336111ad565b1515600114611d325760405162461bcd60e51b815260040161017790612b79565b63ffffffff841660009081526020819052604090206002015460ff1615158315151415611d935760405162461bcd60e51b815260206004820152600f60248201526e14d85b59481c1c9a58d9481d5b9a5d608a1b6044820152606401610177565b6000735fc8d32690cc91d4c39d9d3abcbd16989f8757076001600160a01b031663bb27e0ce6040518163ffffffff1660e01b815260040160206040518083038186803b158015611de257600080fd5b505afa158015611df6573d6000803e3d6000fd5b505050506040513d601f19601f82011682018060405250810190611e1a91906127ff565b63ffffffff86166000908152602081905260409020600101549091508415611ead57600064e8d4a5100083611e4f8285612ca3565b611e599190612cc5565b611e639190612ca3565b90508015611e8b5763ffffffff87166000908152602081905260409020600101819055611ea7565b63ffffffff871660009081526020819052604090206001908101555b50611ee9565b600082611ec48369d3c21bcecceda1000000612cc5565b611ece9190612ca3565b63ffffffff8816600090815260208190526040902060010155505b63ffffffff86166000818152602081815260409182902060028101805460ff19168a15159081179091556001909101548351908152918201527f9313b010c2388a1c2903afa4afe83485c3f52d0a177eda33cc12b480cee4be3091016119c4565b6000611f5860015460ff1690565b15611f755760405162461bcd60e51b815260040161017790612b21565b611f80600a85612161565b15611fbc5760405162461bcd60e51b815260206004820152600c60248201526b05061796d656e74206c6f6f760a41b6044820152606401610177565b5063f23a6e6160e01b95945050505050565b60015460ff1615611ff15760405162461bcd60e51b815260040161017790612b21565b33735fc8d32690cc91d4c39d9d3abcbd16989f875707146120245760405162461bcd60e51b815260040161017790612afb565b60005b82518161ffff1610156106895760006001600160a01b0316838261ffff168151811061205557612055612dae565b60200260200101516001600160a01b0316141561207157600080fd5b6000828261ffff168151811061208957612089612dae565b60200260200101511161209b57600080fd5b818161ffff16815181106120b1576120b1612dae565b602002602001015160086000858461ffff16815181106120d3576120d3612dae565b60200260200101516001600160a01b03166001600160a01b0316815260200190815260200160002081905550818161ffff168151811061211557612115612dae565b602002602001015160065461212a9190612c63565b6006558061213781612d5b565b915050612027565b6000610aa08383612179565b60006106bf825490565b6000610aa083836121c8565b60008181526001830160205260408120541515610aa0565b60008181526001830160205260408120546121c0575081546001818101845560008481526020808220909301849055845484825282860190935260409020919091556106bf565b5060006106bf565b815460009082106122265760405162461bcd60e51b815260206004820152602260248201527f456e756d657261626c655365743a20696e646578206f7574206f6620626f756e604482015261647360f01b6064820152608401610177565b82600001828154811061223b5761223b612dae565b9060005260206000200154905092915050565b82805461225a90612d20565b90600052602060002090601f01602090048101928261227c57600085556122c2565b82601f1061229557805160ff19168380011785556122c2565b828001600101855582156122c2579182015b828111156122c25782518255916020019190600101906122a7565b506122ce9291506122d2565b5090565b5b808211156122ce57600081556001016122d3565b600082601f8301126122f857600080fd5b8135602061230d61230883612c3f565b612c0e565b80838252828201915082860187848660051b890101111561232d57600080fd5b60005b858110156123535761234182612430565b84529284019290840190600101612330565b5090979650505050505050565b600082601f83011261237157600080fd5b8135602061238161230883612c3f565b80838252828201915082860187848660051b89010111156123a157600080fd5b60005b85811015612353578135845292840192908401906001016123a4565b600082601f8301126123d157600080fd5b813567ffffffffffffffff8111156123eb576123eb612dc4565b6123fe601f8201601f1916602001612c0e565b81815284602083860101111561241357600080fd5b816020850160208301376000918101602001919091529392505050565b803561ffff8116811461244257600080fd5b919050565b803563ffffffff8116811461244257600080fd5b60006020828403121561246d57600080fd5b8135610aa081612dda565b60006020828403121561248a57600080fd5b8151610aa081612dda565b600080600080600060a086880312156124ad57600080fd5b85356124b881612dda565b945060208601356124c881612dda565b9350604086013567ffffffffffffffff808211156124e557600080fd5b6124f189838a01612360565b9450606088013591508082111561250757600080fd5b61251389838a01612360565b9350608088013591508082111561252957600080fd5b50612536888289016123c0565b9150509295509295909350565b60008060006060848603121561255857600080fd5b833561256381612dda565b9250602084013561257381612dda565b929592945050506040919091013590565b600080600080600060a0868803121561259c57600080fd5b85356125a781612dda565b945060208601356125b781612dda565b93506040860135925060608601359150608086013567ffffffffffffffff8111156125e157600080fd5b612536888289016123c0565b60008060006060848603121561260257600080fd5b833561260d81612dda565b925061261b60208501612447565b915061262960408501612430565b90509250925092565b6000806040838503121561264557600080fd5b823567ffffffffffffffff8082111561265d57600080fd5b818501915085601f83011261267157600080fd5b8135602061268161230883612c3f565b8083825282820191508286018a848660051b89010111156126a157600080fd5b600096505b848710156126cd5780356126b981612dda565b8352600196909601959183019183016126a6565b50965050860135925050808211156126e457600080fd5b506126f185828601612360565b9150509250929050565b6000806040838503121561270e57600080fd5b823567ffffffffffffffff8082111561272657600080fd5b818501915085601f83011261273a57600080fd5b8135602061274a61230883612c3f565b8083825282820191508286018a848660051b890101111561276a57600080fd5b600096505b848710156127945761278081612447565b83526001969096019591830191830161276f565b50965050860135925050808211156127ab57600080fd5b506126f1858286016122e7565b6000602082840312156127ca57600080fd5b8151610aa081612df2565b6000602082840312156127e757600080fd5b81356001600160e01b031981168114610aa057600080fd5b60006020828403121561281157600080fd5b5051919050565b60006020828403121561282a57600080fd5b5035919050565b60008060006060848603121561284657600080fd5b83359250602084013561257381612dda565b60006020828403121561286a57600080fd5b610aa082612447565b6000806040838503121561288657600080fd5b61288f83612447565b9150602083013561289f81612df2565b809150509250929050565b600080600080608085870312156128c057600080fd5b6128c985612447565b935060208501356128d981612df2565b92506128e760408601612447565b9396929550929360600135925050565b600080600080600080600080610100898b03121561291457600080fd5b61291d89612447565b975060208901359650604089013561293481612df2565b9550606089013561294481612df2565b9450608089013561295481612df2565b935061296260a08a01612447565b925060c089013567ffffffffffffffff8082111561297f57600080fd5b61298b8c838d016123c0565b935060e08b01359150808211156129a157600080fd5b506129ae8b828c016123c0565b9150509295985092959890939650565b600080604083850312156129d157600080fd5b6129da83612447565b91506129e860208401612447565b90509250929050565b6000815180845260005b81811015612a17576020818501810151868301820152016129fb565b81811115612a29576000602083870101525b50601f01601f19169290920160200192915050565b606080825284519082018190526000906020906080840190828801845b82811015612a7d57815163ffffffff1684529284019290840190600101612a5b565b5050508381038285015285518082528683019183019060005b81811015612ab657835161ffff1683529284019291840191600101612a96565b5050809350505050826040830152949350505050565b602080825260159082015274141c9bd91d58dd08191bd95cdb89dd08195e1a5cdd605a1b604082015260600190565b6020808252600c908201526b155b985d5d1a1bdc9a5e995960a21b604082015260600190565b60208082526010908201526f14185d5cd8589b194e881c185d5cd95960821b604082015260600190565b60208082526014908201527313db9b1e4818dc99585d1bdc88185b1b1bddd95960621b604082015260600190565b6020808252601190820152704e6f7420656e6f7567682073686172657360781b604082015260600190565b86815285151560208201528415156040820152831515606082015263ffffffff8316608082015260c060a08201526000612be160c08301846129f1565b98975050505050505050565b828152604060208201526000612c0660408301846129f1565b949350505050565b604051601f8201601f1916810167ffffffffffffffff81118282101715612c3757612c37612dc4565b604052919050565b600067ffffffffffffffff821115612c5957612c59612dc4565b5060051b60200190565b60008219821115612c7657612c76612d98565b500190565b600063ffffffff808316818516808303821115612c9a57612c9a612d98565b01949350505050565b600082612cc057634e487b7160e01b600052601260045260246000fd5b500490565b6000816000190483118215151615612cdf57612cdf612d98565b500290565b600082821015612cf657612cf6612d98565b500390565b600063ffffffff83811690831681811015612d1857612d18612d98565b039392505050565b600181811c90821680612d3457607f821691505b60208210811415612d5557634e487b7160e01b600052602260045260246000fd5b50919050565b600061ffff80831681811415612d7357612d73612d98565b6001019392505050565b6000600019821415612d9157612d91612d98565b5060010190565b634e487b7160e01b600052601160045260246000fd5b634e487b7160e01b600052603260045260246000fd5b634e487b7160e01b600052604160045260246000fd5b6001600160a01b0381168114612def57600080fd5b50565b8015158114612def57600080fdfea264697066735822122041c38adc68dee5cb59275eb034123b9449f986bbb84865b12687c6088cbd82aa64736f6c63430008070033",
  "linkReferences": {},
  "deployedLinkReferences": {}
}