{
  "_format": "hh-sol-artifact-1",
  "contractName": "SlicerManager",
  "sourceName": "contracts/SlicerManager.sol",
  "abi": [
    {
      "inputs": [],
      "stateMutability": "nonpayable",
      "type": "constructor"
    },
    {
      "inputs": [],
      "name": "NotAuthorized",
      "type": "error"
    },
    {
      "anonymous": false,
      "inputs": [
        {
          "indexed": false,
          "internalType": "address",
          "name": "previousAdmin",
          "type": "address"
        },
        {
          "indexed": false,
          "internalType": "address",
          "name": "newAdmin",
          "type": "address"
        }
      ],
      "name": "AdminChanged",
      "type": "event"
    },
    {
      "anonymous": false,
      "inputs": [
        {
          "indexed": true,
          "internalType": "address",
          "name": "beacon",
          "type": "address"
        }
      ],
      "name": "BeaconUpgraded",
      "type": "event"
    },
    {
      "anonymous": false,
      "inputs": [
        {
          "indexed": false,
          "internalType": "uint8",
          "name": "version",
          "type": "uint8"
        }
      ],
      "name": "Initialized",
      "type": "event"
    },
    {
      "anonymous": false,
      "inputs": [
        {
          "indexed": true,
          "internalType": "address",
          "name": "previousOwner",
          "type": "address"
        },
        {
          "indexed": true,
          "internalType": "address",
          "name": "newOwner",
          "type": "address"
        }
      ],
      "name": "OwnershipTransferred",
      "type": "event"
    },
    {
      "anonymous": false,
      "inputs": [
        {
          "indexed": true,
          "internalType": "address",
          "name": "implementation",
          "type": "address"
        }
      ],
      "name": "Upgraded",
      "type": "event"
    },
    {
      "inputs": [
        {
          "internalType": "address",
          "name": "creator",
          "type": "address"
        },
        {
          "internalType": "uint256",
          "name": "id",
          "type": "uint256"
        },
        {
          "components": [
            {
              "components": [
                {
                  "internalType": "address",
                  "name": "account",
                  "type": "address"
                },
                {
                  "internalType": "uint32",
                  "name": "shares",
                  "type": "uint32"
                },
                {
                  "internalType": "bool",
                  "name": "transfersAllowedWhileLocked",
                  "type": "bool"
                }
              ],
              "internalType": "struct Payee[]",
              "name": "payees",
              "type": "tuple[]"
            },
            {
              "internalType": "uint256",
              "name": "minimumShares",
              "type": "uint256"
            },
            {
              "internalType": "address[]",
              "name": "currencies",
              "type": "address[]"
            },
            {
              "internalType": "uint256",
              "name": "releaseTimelock",
              "type": "uint256"
            },
            {
              "internalType": "uint40",
              "name": "transferTimelock",
              "type": "uint40"
            },
            {
              "internalType": "address",
              "name": "controller",
              "type": "address"
            },
            {
              "internalType": "uint8",
              "name": "slicerFlags",
              "type": "uint8"
            },
            {
              "internalType": "uint8",
              "name": "sliceCoreFlags",
              "type": "uint8"
            }
          ],
          "internalType": "struct SliceParams",
          "name": "params",
          "type": "tuple"
        }
      ],
      "name": "_createSlicer",
      "outputs": [
        {
          "internalType": "address",
          "name": "",
          "type": "address"
        }
      ],
      "stateMutability": "nonpayable",
      "type": "function"
    },
    {
      "inputs": [
        {
          "internalType": "address",
          "name": "newLogicImpl",
          "type": "address"
        }
      ],
      "name": "_upgradeSlicers",
      "outputs": [],
      "stateMutability": "nonpayable",
      "type": "function"
    },
    {
      "inputs": [],
      "name": "implementation",
      "outputs": [
        {
          "internalType": "address",
          "name": "",
          "type": "address"
        }
      ],
      "stateMutability": "view",
      "type": "function"
    },
    {
      "inputs": [
        {
          "internalType": "address",
          "name": "implementationAddress",
          "type": "address"
        }
      ],
      "name": "initialize",
      "outputs": [],
      "stateMutability": "nonpayable",
      "type": "function"
    },
    {
      "inputs": [],
      "name": "owner",
      "outputs": [
        {
          "internalType": "address",
          "name": "",
          "type": "address"
        }
      ],
      "stateMutability": "view",
      "type": "function"
    },
    {
      "inputs": [],
      "name": "proxiableUUID",
      "outputs": [
        {
          "internalType": "bytes32",
          "name": "",
          "type": "bytes32"
        }
      ],
      "stateMutability": "view",
      "type": "function"
    },
    {
      "inputs": [],
      "name": "renounceOwnership",
      "outputs": [],
      "stateMutability": "nonpayable",
      "type": "function"
    },
    {
      "inputs": [
        {
          "internalType": "address",
          "name": "newOwner",
          "type": "address"
        }
      ],
      "name": "transferOwnership",
      "outputs": [],
      "stateMutability": "nonpayable",
      "type": "function"
    },
    {
      "inputs": [
        {
          "internalType": "address",
          "name": "newImplementation",
          "type": "address"
        }
      ],
      "name": "upgradeTo",
      "outputs": [],
      "stateMutability": "nonpayable",
      "type": "function"
    },
    {
      "inputs": [
        {
          "internalType": "address",
          "name": "newImplementation",
          "type": "address"
        },
        {
          "internalType": "bytes",
          "name": "data",
          "type": "bytes"
        }
      ],
      "name": "upgradeToAndCall",
      "outputs": [],
      "stateMutability": "payable",
      "type": "function"
    }
  ],
  "bytecode": "0x60a06040523060805234801561001457600080fd5b5061001d610022565b6100e2565b600054610100900460ff161561008e5760405162461bcd60e51b815260206004820152602760248201527f496e697469616c697a61626c653a20636f6e747261637420697320696e697469604482015266616c697a696e6760c81b606482015260840160405180910390fd5b60005460ff90811610156100e0576000805460ff191660ff9081179091556040519081527f7f26b83ff96e1f2b6a682f133852f6798a09c465da95921460cefb38474024989060200160405180910390a15b565b6080516120466101196000396000818161031a015281816103660152818161040e0152818161045101526104ed01526120466000f3fe6080604052600436106200009d5760003560e01c8063715018a61162000060578063715018a614620001615780638da5cb5b1462000179578063c4d66de81462000199578063efab35b814620001be578063f2fde38b14620001e357600080fd5b806331d3055114620000a25780633659cfe614620000e45780634f1ef286146200010b57806352d1902d14620001225780635c60da1b1462000149575b600080fd5b348015620000af57600080fd5b50620000c7620000c136600462000da8565b62000208565b6040516001600160a01b0390911681526020015b60405180910390f35b348015620000f157600080fd5b50620001096200010336600462000e0e565b62000310565b005b620001096200011c36600462000e44565b62000404565b3480156200012f57600080fd5b506200013a620004e0565b604051908152602001620000db565b3480156200015657600080fd5b50620000c762000596565b3480156200016e57600080fd5b50620001096200060c565b3480156200018657600080fd5b506097546001600160a01b0316620000c7565b348015620001a657600080fd5b5062000109620001b836600462000e0e565b62000624565b348015620001cb57600080fd5b5062000109620001dd36600462000e0e565b6200079b565b348015620001f057600080fd5b50620001096200020236600462000e0e565b62000809565b60003373115978100953d0aa6f2f8865d11dc5888f728370146200023f5760405163ea8e4eb560e01b815260040160405180910390fd5b60c9546000906001600160a01b0316635f4df1db60e11b856200026960e0870160c0880162000f14565b88602088013560608901356200028360408b018b62000f39565b6040516024016200029b979695949392919062000f8d565b60408051601f198184030181529181526020820180516001600160e01b03166001600160e01b0319909416939093179092529051620002da9062000d76565b620002e79291906200106d565b604051809103906000f08015801562000304573d6000803e3d6000fd5b509150505b9392505050565b6001600160a01b037f0000000000000000000000000000000000000000000000000000000000000000163003620003645760405162461bcd60e51b81526004016200035b906200109b565b60405180910390fd5b7f00000000000000000000000000000000000000000000000000000000000000006001600160a01b0316620003af60008051602062001fca833981519152546001600160a01b031690565b6001600160a01b031614620003d85760405162461bcd60e51b81526004016200035b90620010e7565b620003e38162000885565b6040805160008082526020820190925262000401918391906200088f565b50565b6001600160a01b037f00000000000000000000000000000000000000000000000000000000000000001630036200044f5760405162461bcd60e51b81526004016200035b906200109b565b7f00000000000000000000000000000000000000000000000000000000000000006001600160a01b03166200049a60008051602062001fca833981519152546001600160a01b031690565b6001600160a01b031614620004c35760405162461bcd60e51b81526004016200035b90620010e7565b620004ce8262000885565b620004dc828260016200088f565b5050565b6000306001600160a01b037f00000000000000000000000000000000000000000000000000000000000000001614620005825760405162461bcd60e51b815260206004820152603860248201527f555550535570677261646561626c653a206d757374206e6f742062652063616c60448201527f6c6564207468726f7567682064656c656761746563616c6c000000000000000060648201526084016200035b565b5060008051602062001fca83398151915290565b60c95460408051635c60da1b60e01b815290516000926001600160a01b031691635c60da1b9160048083019260209291908290030181865afa158015620005e1573d6000803e3d6000fd5b505050506040513d601f19601f8201168201806040525081019062000607919062001133565b905090565b6200061662000a0c565b62000622600062000a68565b565b600054610100900460ff1615808015620006455750600054600160ff909116105b80620006615750303b15801562000661575060005460ff166001145b620006c65760405162461bcd60e51b815260206004820152602e60248201527f496e697469616c697a61626c653a20636f6e747261637420697320616c72656160448201526d191e481a5b9a5d1a585b1a5e995960921b60648201526084016200035b565b6000805460ff191660011790558015620006ea576000805461ff0019166101001790555b620006f462000aba565b81604051620007039062000d84565b6001600160a01b039091168152602001604051809103906000f08015801562000730573d6000803e3d6000fd5b5060c980546001600160a01b0319166001600160a01b03929092169190911790558015620004dc576000805461ff0019169055604051600181527f7f26b83ff96e1f2b6a682f133852f6798a09c465da95921460cefb38474024989060200160405180910390a15050565b620007a562000a0c565b60c954604051631b2ce7f360e11b81526001600160a01b03838116600483015290911690633659cfe690602401600060405180830381600087803b158015620007ed57600080fd5b505af115801562000802573d6000803e3d6000fd5b5050505050565b6200081362000a0c565b6001600160a01b0381166200087a5760405162461bcd60e51b815260206004820152602660248201527f4f776e61626c653a206e6577206f776e657220697320746865207a65726f206160448201526564647265737360d01b60648201526084016200035b565b620004018162000a68565b6200040162000a0c565b7f4910fdfa16fed3260ed0e7147f7cc6da11a60208b5b9406d12a635614ffd91435460ff1615620008ca57620008c58362000aee565b505050565b826001600160a01b03166352d1902d6040518163ffffffff1660e01b8152600401602060405180830381865afa92505050801562000927575060408051601f3d908101601f19168201909252620009249181019062001153565b60015b6200098c5760405162461bcd60e51b815260206004820152602e60248201527f45524331393637557067726164653a206e657720696d706c656d656e7461746960448201526d6f6e206973206e6f74205555505360901b60648201526084016200035b565b60008051602062001fca8339815191528114620009fe5760405162461bcd60e51b815260206004820152602960248201527f45524331393637557067726164653a20756e737570706f727465642070726f786044820152681a58589b195555525160ba1b60648201526084016200035b565b50620008c583838362000b8d565b6097546001600160a01b03163314620006225760405162461bcd60e51b815260206004820181905260248201527f4f776e61626c653a2063616c6c6572206973206e6f7420746865206f776e657260448201526064016200035b565b609780546001600160a01b038381166001600160a01b0319831681179093556040519116919082907f8be0079c531659141344cd1fd0a4f28419497f9722a3daafe3b4186f6b6457e090600090a35050565b600054610100900460ff1662000ae45760405162461bcd60e51b81526004016200035b906200116d565b6200062262000bbe565b6001600160a01b0381163b62000b5d5760405162461bcd60e51b815260206004820152602d60248201527f455243313936373a206e657720696d706c656d656e746174696f6e206973206e60448201526c1bdd08184818dbdb9d1c9858dd609a1b60648201526084016200035b565b60008051602062001fca83398151915280546001600160a01b0319166001600160a01b0392909216919091179055565b62000b988362000bf3565b60008251118062000ba65750805b15620008c55762000bb8838362000c35565b50505050565b600054610100900460ff1662000be85760405162461bcd60e51b81526004016200035b906200116d565b620006223362000a68565b62000bfe8162000aee565b6040516001600160a01b038216907fbc7cd75a20ee27fd9adebab32041f755214dbc6bffa90cc0225b39da2e5c2d3b90600090a250565b60606001600160a01b0383163b62000c9f5760405162461bcd60e51b815260206004820152602660248201527f416464726573733a2064656c65676174652063616c6c20746f206e6f6e2d636f6044820152651b9d1c9858dd60d21b60648201526084016200035b565b600080846001600160a01b03168460405162000cbc9190620011b8565b600060405180830381855af49150503d806000811462000cf9576040519150601f19603f3d011682016040523d82523d6000602084013e62000cfe565b606091505b509150915062000d29828260405180606001604052806027815260200162001fea6027913962000d32565b95945050505050565b6060831562000d4357508162000309565b62000309838381511562000d5a5781518083602001fd5b8060405162461bcd60e51b81526004016200035b9190620011d6565b6108fa80620011ec83390190565b6104e48062001ae683390190565b6001600160a01b03811681146200040157600080fd5b60008060006060848603121562000dbe57600080fd5b833562000dcb8162000d92565b925060208401359150604084013567ffffffffffffffff81111562000def57600080fd5b8401610100818703121562000e0357600080fd5b809150509250925092565b60006020828403121562000e2157600080fd5b8135620003098162000d92565b634e487b7160e01b600052604160045260246000fd5b6000806040838503121562000e5857600080fd5b823562000e658162000d92565b9150602083013567ffffffffffffffff8082111562000e8357600080fd5b818501915085601f83011262000e9857600080fd5b81358181111562000ead5762000ead62000e2e565b604051601f8201601f19908116603f0116810190838211818310171562000ed85762000ed862000e2e565b8160405282815288602084870101111562000ef257600080fd5b8260208601602083013760006020848301015280955050505050509250929050565b60006020828403121562000f2757600080fd5b813560ff811681146200030957600080fd5b6000808335601e1984360301811262000f5157600080fd5b83018035915067ffffffffffffffff82111562000f6d57600080fd5b6020019150600581901b360382131562000f8657600080fd5b9250929050565b87815260ff87166020808301919091526001600160a01b038781166040840152606083018790526080830186905260c060a084018190528301849052600091859160e08501845b8781101562000fff57843562000fea8162000d92565b83168252938301939083019060010162000fd4565b509c9b505050505050505050505050565b60005b838110156200102d57818101518382015260200162001013565b8381111562000bb85750506000910152565b600081518084526200105981602086016020860162001010565b601f01601f19169290920160200192915050565b6001600160a01b038316815260406020820181905260009062001093908301846200103f565b949350505050565b6020808252602c908201527f46756e6374696f6e206d7573742062652063616c6c6564207468726f7567682060408201526b19195b1959d85d1958d85b1b60a21b606082015260800190565b6020808252602c908201527f46756e6374696f6e206d7573742062652063616c6c6564207468726f7567682060408201526b6163746976652070726f787960a01b606082015260800190565b6000602082840312156200114657600080fd5b8151620003098162000d92565b6000602082840312156200116657600080fd5b5051919050565b6020808252602b908201527f496e697469616c697a61626c653a20636f6e7472616374206973206e6f74206960408201526a6e697469616c697a696e6760a81b606082015260800190565b60008251620011cc81846020870162001010565b9190910192915050565b6020815260006200030960208301846200103f56fe60806040526040516108fa3803806108fa83398101604081905261002291610456565b61002e82826000610035565b5050610580565b61003e83610100565b6040516001600160a01b038416907f1cf3b03a6cf19fa2baba4df148e9dcabedea7f8a5c07840e207e5c089be95d3e90600090a260008251118061007f5750805b156100fb576100f9836001600160a01b0316635c60da1b6040518163ffffffff1660e01b8152600401602060405180830381865afa1580156100c5573d6000803e3d6000fd5b505050506040513d601f19601f820116820180604052508101906100e99190610516565b836102a360201b6100291760201c565b505b505050565b610113816102cf60201b6100551760201c565b6101725760405162461bcd60e51b815260206004820152602560248201527f455243313936373a206e657720626561636f6e206973206e6f74206120636f6e6044820152641d1c9858dd60da1b60648201526084015b60405180910390fd5b6101e6816001600160a01b0316635c60da1b6040518163ffffffff1660e01b8152600401602060405180830381865afa1580156101b3573d6000803e3d6000fd5b505050506040513d601f19601f820116820180604052508101906101d79190610516565b6102cf60201b6100551760201c565b61024b5760405162461bcd60e51b815260206004820152603060248201527f455243313936373a20626561636f6e20696d706c656d656e746174696f6e206960448201526f1cc81b9bdd08184818dbdb9d1c9858dd60821b6064820152608401610169565b806102827fa3f0ad74e5423aebfd80d3ef4346578335a9a72aeaee59ff6cb3582b35133d5060001b6102de60201b6100641760201c565b80546001600160a01b0319166001600160a01b039290921691909117905550565b60606102c883836040518060600160405280602781526020016108d3602791396102e1565b9392505050565b6001600160a01b03163b151590565b90565b60606001600160a01b0384163b6103495760405162461bcd60e51b815260206004820152602660248201527f416464726573733a2064656c65676174652063616c6c20746f206e6f6e2d636f6044820152651b9d1c9858dd60d21b6064820152608401610169565b600080856001600160a01b0316856040516103649190610531565b600060405180830381855af49150503d806000811461039f576040519150601f19603f3d011682016040523d82523d6000602084013e6103a4565b606091505b5090925090506103b58282866103bf565b9695505050505050565b606083156103ce5750816102c8565b8251156103de5782518084602001fd5b8160405162461bcd60e51b8152600401610169919061054d565b80516001600160a01b038116811461040f57600080fd5b919050565b634e487b7160e01b600052604160045260246000fd5b60005b8381101561044557818101518382015260200161042d565b838111156100f95750506000910152565b6000806040838503121561046957600080fd5b610472836103f8565b60208401519092506001600160401b038082111561048f57600080fd5b818501915085601f8301126104a357600080fd5b8151818111156104b5576104b5610414565b604051601f8201601f19908116603f011681019083821181831017156104dd576104dd610414565b816040528281528860208487010111156104f657600080fd5b61050783602083016020880161042a565b80955050505050509250929050565b60006020828403121561052857600080fd5b6102c8826103f8565b6000825161054381846020870161042a565b9190910192915050565b602081526000825180602084015261056c81604085016020870161042a565b601f01601f19169190910160400192915050565b6103448061058f6000396000f3fe60806040523661001357610011610017565b005b6100115b610027610022610067565b610100565b565b606061004e83836040518060600160405280602781526020016102e860279139610124565b9392505050565b6001600160a01b03163b151590565b90565b600061009a7fa3f0ad74e5423aebfd80d3ef4346578335a9a72aeaee59ff6cb3582b35133d50546001600160a01b031690565b6001600160a01b0316635c60da1b6040518163ffffffff1660e01b8152600401602060405180830381865afa1580156100d7573d6000803e3d6000fd5b505050506040513d601f19601f820116820180604052508101906100fb919061023f565b905090565b3660008037600080366000845af43d6000803e80801561011f573d6000f35b3d6000fd5b60606001600160a01b0384163b6101915760405162461bcd60e51b815260206004820152602660248201527f416464726573733a2064656c65676174652063616c6c20746f206e6f6e2d636f6044820152651b9d1c9858dd60d21b60648201526084015b60405180910390fd5b600080856001600160a01b0316856040516101ac9190610298565b600060405180830381855af49150503d80600081146101e7576040519150601f19603f3d011682016040523d82523d6000602084013e6101ec565b606091505b50915091506101fc828286610206565b9695505050505050565b6060831561021557508161004e565b8251156102255782518084602001fd5b8160405162461bcd60e51b815260040161018891906102b4565b60006020828403121561025157600080fd5b81516001600160a01b038116811461004e57600080fd5b60005b8381101561028357818101518382015260200161026b565b83811115610292576000848401525b50505050565b600082516102aa818460208701610268565b9190910192915050565b60208152600082518060208401526102d3816040850160208701610268565b601f01601f1916919091016040019291505056fe416464726573733a206c6f772d6c6576656c2064656c65676174652063616c6c206661696c6564a26469706673582212209d11f6b792b44bdcc12984b746d6869c77be4aa1884503fc5b37d0b6504edca364736f6c634300080d0033416464726573733a206c6f772d6c6576656c2064656c65676174652063616c6c206661696c6564608060405234801561001057600080fd5b506040516104e43803806104e483398101604081905261002f91610151565b61003833610047565b61004181610097565b50610181565b600080546001600160a01b038381166001600160a01b0319831681178455604051919092169283917f8be0079c531659141344cd1fd0a4f28419497f9722a3daafe3b4186f6b6457e09190a35050565b6100aa8161014260201b6101a01760201c565b6101205760405162461bcd60e51b815260206004820152603360248201527f5570677261646561626c65426561636f6e3a20696d706c656d656e746174696f60448201527f6e206973206e6f74206120636f6e747261637400000000000000000000000000606482015260840160405180910390fd5b600180546001600160a01b0319166001600160a01b0392909216919091179055565b6001600160a01b03163b151590565b60006020828403121561016357600080fd5b81516001600160a01b038116811461017a57600080fd5b9392505050565b610354806101906000396000f3fe608060405234801561001057600080fd5b50600436106100575760003560e01c80633659cfe61461005c5780635c60da1b14610071578063715018a61461009a5780638da5cb5b146100a2578063f2fde38b146100b3575b600080fd5b61006f61006a3660046102ee565b6100c6565b005b6001546001600160a01b03165b6040516001600160a01b03909116815260200160405180910390f35b61006f61010e565b6000546001600160a01b031661007e565b61006f6100c13660046102ee565b610122565b6100ce6101af565b6100d781610209565b6040516001600160a01b038216907fbc7cd75a20ee27fd9adebab32041f755214dbc6bffa90cc0225b39da2e5c2d3b90600090a250565b6101166101af565b610120600061029e565b565b61012a6101af565b6001600160a01b0381166101945760405162461bcd60e51b815260206004820152602660248201527f4f776e61626c653a206e6577206f776e657220697320746865207a65726f206160448201526564647265737360d01b60648201526084015b60405180910390fd5b61019d8161029e565b50565b6001600160a01b03163b151590565b6000546001600160a01b031633146101205760405162461bcd60e51b815260206004820181905260248201527f4f776e61626c653a2063616c6c6572206973206e6f7420746865206f776e6572604482015260640161018b565b6001600160a01b0381163b61027c5760405162461bcd60e51b815260206004820152603360248201527f5570677261646561626c65426561636f6e3a20696d706c656d656e746174696f6044820152721b881a5cc81b9bdd08184818dbdb9d1c9858dd606a1b606482015260840161018b565b600180546001600160a01b0319166001600160a01b0392909216919091179055565b600080546001600160a01b038381166001600160a01b0319831681178455604051919092169283917f8be0079c531659141344cd1fd0a4f28419497f9722a3daafe3b4186f6b6457e09190a35050565b60006020828403121561030057600080fd5b81356001600160a01b038116811461031757600080fd5b939250505056fea26469706673582212208bcb5cd95b9b1ac81cdacdedb32698bde4905e037b917236a70d8acc31f8fa9464736f6c634300080d0033360894a13ba1a3210667c828492db98dca3e2076cc3735a920a3ca505d382bbc416464726573733a206c6f772d6c6576656c2064656c65676174652063616c6c206661696c6564a2646970667358221220afabbb655f17010a9906fb2f388b7112df04ecdf5fa47fc9271fd4ea1372fb6564736f6c634300080d0033",
  "linkReferences": {},
  "deployedLinkReferences": {}
}