{
  "_format": "hh-sol-artifact-1",
  "contractName": "SlicerDummyV0",
  "sourceName": "contracts/test/slicer_test_v0.sol",
  "abi": [
    {
      "anonymous": false,
      "inputs": [
        {
          "indexed": true,
          "internalType": "uint256",
          "name": "slicerId",
          "type": "uint256"
        }
      ],
      "name": "AddedChildrenSlicer",
      "type": "event"
    },
    {
      "anonymous": false,
      "inputs": [
        {
          "indexed": false,
          "internalType": "address",
          "name": "account",
          "type": "address"
        }
      ],
      "name": "Paused",
      "type": "event"
    },
    {
      "anonymous": false,
      "inputs": [
        {
          "indexed": true,
          "internalType": "address",
          "name": "from",
          "type": "address"
        },
        {
          "indexed": false,
          "internalType": "uint256",
          "name": "amount",
          "type": "uint256"
        }
      ],
      "name": "PaymentReceived",
      "type": "event"
    },
    {
      "anonymous": false,
      "inputs": [
        {
          "indexed": true,
          "internalType": "uint32",
          "name": "productId",
          "type": "uint32"
        },
        {
          "indexed": true,
          "internalType": "uint32",
          "name": "categoryIndex",
          "type": "uint32"
        },
        {
          "indexed": false,
          "internalType": "uint256",
          "name": "price",
          "type": "uint256"
        },
        {
          "indexed": false,
          "internalType": "bool",
          "name": "isUSD",
          "type": "bool"
        },
        {
          "indexed": false,
          "internalType": "bool",
          "name": "isMultiple",
          "type": "bool"
        },
        {
          "indexed": false,
          "internalType": "bool",
          "name": "isInfinite",
          "type": "bool"
        },
        {
          "indexed": false,
          "internalType": "uint32",
          "name": "availableUnits",
          "type": "uint32"
        },
        {
          "indexed": true,
          "internalType": "address",
          "name": "creator",
          "type": "address"
        },
        {
          "indexed": false,
          "internalType": "bytes",
          "name": "data",
          "type": "bytes"
        },
        {
          "indexed": false,
          "internalType": "uint256[]",
          "name": "subSlicersId",
          "type": "uint256[]"
        },
        {
          "indexed": false,
          "internalType": "uint32[]",
          "name": "subProducts",
          "type": "uint32[]"
        }
      ],
      "name": "ProductAdded",
      "type": "event"
    },
    {
      "anonymous": false,
      "inputs": [
        {
          "indexed": true,
          "internalType": "uint32",
          "name": "productId",
          "type": "uint32"
        },
        {
          "indexed": false,
          "internalType": "uint32",
          "name": "categoryIndex",
          "type": "uint32"
        }
      ],
      "name": "ProductCategoryChanged",
      "type": "event"
    },
    {
      "anonymous": false,
      "inputs": [
        {
          "indexed": true,
          "internalType": "uint32",
          "name": "productId",
          "type": "uint32"
        },
        {
          "indexed": false,
          "internalType": "uint256",
          "name": "productPrice",
          "type": "uint256"
        },
        {
          "indexed": false,
          "internalType": "bool",
          "name": "isUSD",
          "type": "bool"
        }
      ],
      "name": "ProductCurrencyChanged",
      "type": "event"
    },
    {
      "anonymous": false,
      "inputs": [
        {
          "indexed": true,
          "internalType": "uint32",
          "name": "productId",
          "type": "uint32"
        },
        {
          "indexed": false,
          "internalType": "bool",
          "name": "isInfinite",
          "type": "bool"
        },
        {
          "indexed": false,
          "internalType": "uint32",
          "name": "units",
          "type": "uint32"
        },
        {
          "indexed": false,
          "internalType": "uint256",
          "name": "productPrice",
          "type": "uint256"
        }
      ],
      "name": "ProductInfoChanged",
      "type": "event"
    },
    {
      "anonymous": false,
      "inputs": [
        {
          "indexed": true,
          "internalType": "address",
          "name": "from",
          "type": "address"
        },
        {
          "indexed": true,
          "internalType": "uint32",
          "name": "productId",
          "type": "uint32"
        },
        {
          "indexed": false,
          "internalType": "uint16",
          "name": "quantity",
          "type": "uint16"
        },
        {
          "indexed": false,
          "internalType": "uint256",
          "name": "productPrice",
          "type": "uint256"
        }
      ],
      "name": "ProductPaid",
      "type": "event"
    },
    {
      "anonymous": false,
      "inputs": [
        {
          "indexed": true,
          "internalType": "uint32",
          "name": "productId",
          "type": "uint32"
        }
      ],
      "name": "ProductRemoved",
      "type": "event"
    },
    {
      "anonymous": false,
      "inputs": [
        {
          "indexed": false,
          "internalType": "uint32[]",
          "name": "serviceIds",
          "type": "uint32[]"
        },
        {
          "indexed": false,
          "internalType": "uint16[]",
          "name": "quantities",
          "type": "uint16[]"
        },
        {
          "indexed": false,
          "internalType": "uint256",
          "name": "amount",
          "type": "uint256"
        }
      ],
      "name": "SLCPaid",
      "type": "event"
    },
    {
      "anonymous": false,
      "inputs": [
        {
          "indexed": true,
          "internalType": "address",
          "name": "payee",
          "type": "address"
        },
        {
          "indexed": false,
          "internalType": "uint256",
          "name": "released",
          "type": "uint256"
        }
      ],
      "name": "TriggeredRelease",
      "type": "event"
    },
    {
      "anonymous": false,
      "inputs": [
        {
          "indexed": false,
          "internalType": "address",
          "name": "account",
          "type": "address"
        }
      ],
      "name": "Unpaused",
      "type": "event"
    },
    {
      "inputs": [
        {
          "internalType": "uint256",
          "name": "id",
          "type": "uint256"
        }
      ],
      "name": "_addChildrenSlicer",
      "outputs": [],
      "stateMutability": "nonpayable",
      "type": "function"
    },
    {
      "inputs": [
        {
          "internalType": "address[]",
          "name": "accounts",
          "type": "address[]"
        },
        {
          "internalType": "uint256[]",
          "name": "shares_",
          "type": "uint256[]"
        }
      ],
      "name": "_addPayees",
      "outputs": [],
      "stateMutability": "nonpayable",
      "type": "function"
    },
    {
      "inputs": [
        {
          "internalType": "uint256",
          "name": "tokenId_",
          "type": "uint256"
        },
        {
          "internalType": "address",
          "name": "slicerCreator_",
          "type": "address"
        },
        {
          "internalType": "uint256",
          "name": "minimumShares_",
          "type": "uint256"
        }
      ],
      "name": "_initialize",
      "outputs": [],
      "stateMutability": "nonpayable",
      "type": "function"
    },
    {
      "inputs": [
        {
          "internalType": "address",
          "name": "account",
          "type": "address"
        },
        {
          "internalType": "uint32",
          "name": "productId",
          "type": "uint32"
        },
        {
          "internalType": "uint16",
          "name": "quantity",
          "type": "uint16"
        }
      ],
      "name": "_payProductFromSlice",
      "outputs": [],
      "stateMutability": "payable",
      "type": "function"
    },
    {
      "inputs": [
        {
          "internalType": "uint256",
          "name": "tokenId",
          "type": "uint256"
        },
        {
          "internalType": "address",
          "name": "account",
          "type": "address"
        },
        {
          "internalType": "uint32",
          "name": "productId",
          "type": "uint32"
        },
        {
          "internalType": "uint16",
          "name": "quantity",
          "type": "uint16"
        }
      ],
      "name": "_payProductFromSlicer",
      "outputs": [],
      "stateMutability": "payable",
      "type": "function"
    },
    {
      "inputs": [
        {
          "internalType": "address",
          "name": "accountFrom",
          "type": "address"
        },
        {
          "internalType": "address",
          "name": "accountTo",
          "type": "address"
        },
        {
          "internalType": "uint256",
          "name": "transferredShares",
          "type": "uint256"
        }
      ],
      "name": "_updatePayees",
      "outputs": [],
      "stateMutability": "nonpayable",
      "type": "function"
    },
    {
      "inputs": [
        {
          "internalType": "uint32",
          "name": "categoryIndex",
          "type": "uint32"
        },
        {
          "internalType": "uint256",
          "name": "price",
          "type": "uint256"
        },
        {
          "internalType": "bool",
          "name": "isUSD",
          "type": "bool"
        },
        {
          "internalType": "bool",
          "name": "isMultiple",
          "type": "bool"
        },
        {
          "internalType": "bool",
          "name": "isInfinite",
          "type": "bool"
        },
        {
          "internalType": "uint32",
          "name": "units",
          "type": "uint32"
        },
        {
          "internalType": "bytes",
          "name": "data",
          "type": "bytes"
        },
        {
          "internalType": "bytes",
          "name": "purchaseData",
          "type": "bytes"
        },
        {
          "internalType": "uint256[]",
          "name": "subSlicersId_",
          "type": "uint256[]"
        },
        {
          "internalType": "uint32[]",
          "name": "subProducts_",
          "type": "uint32[]"
        }
      ],
      "name": "addProduct",
      "outputs": [],
      "stateMutability": "nonpayable",
      "type": "function"
    },
    {
      "inputs": [
        {
          "internalType": "address",
          "name": "payee",
          "type": "address"
        }
      ],
      "name": "isPayeeAllowed",
      "outputs": [
        {
          "internalType": "bool",
          "name": "",
          "type": "bool"
        }
      ],
      "stateMutability": "view",
      "type": "function"
    },
    {
      "inputs": [
        {
          "internalType": "uint32",
          "name": "productId",
          "type": "uint32"
        }
      ],
      "name": "isProduct",
      "outputs": [],
      "stateMutability": "view",
      "type": "function"
    },
    {
      "inputs": [
        {
          "internalType": "address",
          "name": "",
          "type": "address"
        },
        {
          "internalType": "address",
          "name": "",
          "type": "address"
        },
        {
          "internalType": "uint256[]",
          "name": "ids",
          "type": "uint256[]"
        },
        {
          "internalType": "uint256[]",
          "name": "",
          "type": "uint256[]"
        },
        {
          "internalType": "bytes",
          "name": "",
          "type": "bytes"
        }
      ],
      "name": "onERC1155BatchReceived",
      "outputs": [
        {
          "internalType": "bytes4",
          "name": "",
          "type": "bytes4"
        }
      ],
      "stateMutability": "nonpayable",
      "type": "function"
    },
    {
      "inputs": [
        {
          "internalType": "address",
          "name": "",
          "type": "address"
        },
        {
          "internalType": "address",
          "name": "",
          "type": "address"
        },
        {
          "internalType": "uint256",
          "name": "id",
          "type": "uint256"
        },
        {
          "internalType": "uint256",
          "name": "",
          "type": "uint256"
        },
        {
          "internalType": "bytes",
          "name": "",
          "type": "bytes"
        }
      ],
      "name": "onERC1155Received",
      "outputs": [
        {
          "internalType": "bytes4",
          "name": "",
          "type": "bytes4"
        }
      ],
      "stateMutability": "nonpayable",
      "type": "function"
    },
    {
      "inputs": [
        {
          "internalType": "address",
          "name": "",
          "type": "address"
        },
        {
          "internalType": "address",
          "name": "from",
          "type": "address"
        },
        {
          "internalType": "uint256",
          "name": "",
          "type": "uint256"
        },
        {
          "internalType": "bytes",
          "name": "",
          "type": "bytes"
        }
      ],
      "name": "onERC721Received",
      "outputs": [
        {
          "internalType": "bytes4",
          "name": "",
          "type": "bytes4"
        }
      ],
      "stateMutability": "nonpayable",
      "type": "function"
    },
    {
      "inputs": [],
      "name": "paused",
      "outputs": [
        {
          "internalType": "bool",
          "name": "",
          "type": "bool"
        }
      ],
      "stateMutability": "view",
      "type": "function"
    },
    {
      "inputs": [
        {
          "internalType": "uint32[]",
          "name": "serviceIds",
          "type": "uint32[]"
        },
        {
          "internalType": "uint16[]",
          "name": "quantities",
          "type": "uint16[]"
        }
      ],
      "name": "paySLC",
      "outputs": [],
      "stateMutability": "nonpayable",
      "type": "function"
    },
    {
      "inputs": [
        {
          "internalType": "uint32",
          "name": "productId",
          "type": "uint32"
        }
      ],
      "name": "productPrice",
      "outputs": [
        {
          "internalType": "uint256",
          "name": "price",
          "type": "uint256"
        }
      ],
      "stateMutability": "view",
      "type": "function"
    },
    {
      "inputs": [
        {
          "internalType": "address payable",
          "name": "account",
          "type": "address"
        }
      ],
      "name": "release",
      "outputs": [
        {
          "internalType": "uint256",
          "name": "",
          "type": "uint256"
        }
      ],
      "stateMutability": "nonpayable",
      "type": "function"
    },
    {
      "inputs": [
        {
          "internalType": "address",
          "name": "account",
          "type": "address"
        }
      ],
      "name": "released",
      "outputs": [
        {
          "internalType": "uint256",
          "name": "",
          "type": "uint256"
        }
      ],
      "stateMutability": "view",
      "type": "function"
    },
    {
      "inputs": [
        {
          "internalType": "uint32",
          "name": "productId",
          "type": "uint32"
        }
      ],
      "name": "removeProduct",
      "outputs": [],
      "stateMutability": "nonpayable",
      "type": "function"
    },
    {
      "inputs": [
        {
          "internalType": "uint32",
          "name": "productId",
          "type": "uint32"
        },
        {
          "internalType": "uint32",
          "name": "categoryIndex",
          "type": "uint32"
        }
      ],
      "name": "setProductCategory",
      "outputs": [],
      "stateMutability": "nonpayable",
      "type": "function"
    },
    {
      "inputs": [
        {
          "internalType": "uint32",
          "name": "productId",
          "type": "uint32"
        },
        {
          "internalType": "bool",
          "name": "isInfinite",
          "type": "bool"
        },
        {
          "internalType": "uint32",
          "name": "newUnits",
          "type": "uint32"
        },
        {
          "internalType": "uint256",
          "name": "newPrice",
          "type": "uint256"
        }
      ],
      "name": "setProductInfo",
      "outputs": [],
      "stateMutability": "nonpayable",
      "type": "function"
    },
    {
      "inputs": [],
      "name": "slicerInfo",
      "outputs": [
        {
          "internalType": "uint256",
          "name": "",
          "type": "uint256"
        },
        {
          "internalType": "uint8",
          "name": "version",
          "type": "uint8"
        },
        {
          "internalType": "address",
          "name": "creator",
          "type": "address"
        },
        {
          "internalType": "uint256",
          "name": "",
          "type": "uint256"
        }
      ],
      "stateMutability": "view",
      "type": "function"
    },
    {
      "inputs": [
        {
          "internalType": "bytes4",
          "name": "interfaceId",
          "type": "bytes4"
        }
      ],
      "name": "supportsInterface",
      "outputs": [
        {
          "internalType": "bool",
          "name": "",
          "type": "bool"
        }
      ],
      "stateMutability": "view",
      "type": "function"
    },
    {
      "inputs": [
        {
          "internalType": "uint32",
          "name": "productId",
          "type": "uint32"
        },
        {
          "internalType": "bool",
          "name": "isUSD",
          "type": "bool"
        }
      ],
      "name": "toggleUSDPrice",
      "outputs": [],
      "stateMutability": "nonpayable",
      "type": "function"
    },
    {
      "inputs": [],
      "name": "totalReceived",
      "outputs": [
        {
          "internalType": "uint256",
          "name": "",
          "type": "uint256"
        }
      ],
      "stateMutability": "view",
      "type": "function"
    },
    {
      "inputs": [
        {
          "internalType": "address",
          "name": "account",
          "type": "address"
        }
      ],
      "name": "unreleased",
      "outputs": [
        {
          "internalType": "uint256",
          "name": "",
          "type": "uint256"
        }
      ],
      "stateMutability": "view",
      "type": "function"
    },
    {
      "inputs": [
        {
          "internalType": "uint32",
          "name": "productId",
          "type": "uint32"
        }
      ],
      "name": "validatePurchase",
      "outputs": [
        {
          "internalType": "uint256",
          "name": "purchases",
          "type": "uint256"
        },
        {
          "internalType": "bytes",
          "name": "purchaseData",
          "type": "bytes"
        }
      ],
      "stateMutability": "view",
      "type": "function"
    },
    {
      "stateMutability": "payable",
      "type": "receive"
    }
  ],
  "bytecode": "0x608060405234801561001057600080fd5b506001805460ff191681556002556138f68061002d6000396000f3fe6080604052600436106101855760003560e01c8063800ddcaa116100d1578063bbf2b4881161008a578063bfe5d83511610064578063bfe5d83514610548578063dd102d5e14610568578063f23a6e6114610588578063fd5e12e3146105a857600080fd5b8063bbf2b488146104f5578063bc197c8114610515578063bf271aa61461053557600080fd5b8063800ddcaa14610404578063957e07b6146104245780639852595c14610467578063a3c2c462146104a0578063b1b47357146104b5578063b78ee767146104d557600080fd5b80633739e11b1161013e57806354c2a04c1161011857806354c2a04c1461039957806359bac56c146103b95780635c975abb146103d95780636a54ead8146103f157600080fd5b80633739e11b1461033957806344eecfd014610359578063525e2ad51461037957600080fd5b806301ffc9a71461022d5780630c170ffd14610262578063150b7a021461028457806319165587146102bd5780632a67293d146102eb578063344603231461030b57600080fd5b366102285760015460ff16156101b65760405162461bcd60e51b81526004016101ad90613576565b60405180910390fd5b60006103e86101c660193461373f565b6101d0919061371d565b90506101f073f39fd6e51aad88f6f4ce6ab8827279cfffb92266826105c8565b60405134815233907f6ef95f06320e7a25a04a175ca677b7052bdd97131872c2192525a629f51be7709060200160405180910390a250005b600080fd5b34801561023957600080fd5b5061024d610248366004613159565b6106e6565b60405190151581526020015b60405180910390f35b34801561026e57600080fd5b5061028261027d36600461322b565b61071d565b005b34801561029057600080fd5b506102a461029f366004612e90565b61089c565b6040516001600160e01b03199091168152602001610259565b3480156102c957600080fd5b506102dd6102d8366004612d67565b6108d4565b604051908152602001610259565b3480156102f757600080fd5b506102dd610306366004612d67565b610a4b565b34801561031757600080fd5b5061032b61032636600461322b565b610ada565b604051610259929190613667565b34801561034557600080fd5b5061028261035436600461322b565b610c0c565b34801561036557600080fd5b5061028261037436600461319c565b610c47565b34801561038557600080fd5b506102826103943660046132ca565b610cd7565b3480156103a557600080fd5b506102826103b43660046131b5565b6111bf565b3480156103c557600080fd5b5061024d6103d4366004612d67565b61121d565b3480156103e557600080fd5b5060015460ff1661024d565b6102826103ff3660046131dc565b6113e6565b34801561041057600080fd5b5061028261041f3660046133d6565b611497565b34801561043057600080fd5b5060045460035460055460408051938452600160208501526001600160a01b03909216918301919091526060820152608001610259565b34801561047357600080fd5b506102dd610482366004612d67565b6001600160a01b031660009081526009602052604090206001015490565b3480156104ac57600080fd5b506102dd61166e565b3480156104c157600080fd5b506102826104d0366004613073565b611683565b3480156104e157600080fd5b506102826104f036600461327d565b611894565b34801561050157600080fd5b50610282610510366004612e4f565b611af5565b34801561052157600080fd5b506102a4610530366004612da1565b611c43565b610282610543366004612f65565b611d25565b34801561055457600080fd5b506102dd61056336600461322b565b611d50565b34801561057457600080fd5b50610282610583366004613246565b61200e565b34801561059457600080fd5b506102a46105a3366004612efc565b61230c565b3480156105b457600080fd5b506102826105c3366004612faa565b6123ac565b804710156106185760405162461bcd60e51b815260206004820152601d60248201527f416464726573733a20696e73756666696369656e742062616c616e636500000060448201526064016101ad565b6000826001600160a01b03168260405160006040518083038185875af1925050503d8060008114610665576040519150601f19603f3d011682016040523d82523d6000602084013e61066a565b606091505b50509050806106e15760405162461bcd60e51b815260206004820152603a60248201527f416464726573733a20756e61626c6520746f2073656e642076616c75652c207260448201527f6563697069656e74206d6179206861766520726576657274656400000000000060648201526084016101ad565b505050565b60006001600160e01b03198216630271189760e51b148061071757506301ffc9a760e01b6001600160e01b03198316145b92915050565b63ffffffff811660009081526020819052604090206001015481906107545760405162461bcd60e51b81526004016101ad906134f6565b63ffffffff8216600090815260208190526040902060020154829061078890600160381b90046001600160a01b031661121d565b156107d95763ffffffff8116600090815260208190526040902060020154600160381b90046001600160a01b031633146107d45760405162461bcd60e51b81526004016101ad906135a0565b610803565b6107e23361121d565b15156001146108035760405162461bcd60e51b81526004016101ad9061354b565b63ffffffff8316600081815260208181526040808320805463ffffffff19168155600181018490556002810180546301000000600160d81b03191690558151808401928390528481529484529290915291516108659260039092019190612b4f565b5060405163ffffffff8416907f761b291efc1cf42f36eac86ac2f397b06b9606dfb16059c83eb3ab8cc7e53e3090600090a2505050565b60006108a78461121d565b6108c35760405162461bcd60e51b81526004016101ad9061354b565b50630a85bd0160e11b949350505050565b60006002805414156109285760405162461bcd60e51b815260206004820152601f60248201527f5265656e7472616e637947756172643a207265656e7472616e742063616c6c0060448201526064016101ad565b60028055600061093783610a4b565b90508061097b5760405162461bcd60e51b81526020600482015260126024820152715061796d656e74206973206e6f742064756560701b60448201526064016101ad565b6001600160a01b038316600090815260096020526040812080548392906109a39084906136dd565b90915550506001600160a01b0383166000908152600960205260409020819060010160008282546109d491906136dd565b9250508190555080600760008282546109ed91906136dd565b909155506109fd905083826105c8565b826001600160a01b03167fd01a8cc9ab129109f449ed0a777705c57b0aa086d3e08fe4a8de773b397143e782604051610a3891815260200190565b60405180910390a2600160025592915050565b6006546001600160a01b03821660009081526008602052604081205490918291610a7361166e565b610a7d919061373f565b610a87919061371d565b6001600160a01b0384166000908152600960205260409020549091508111610ab0576000610ad3565b6001600160a01b038316600090815260096020526040902054610ad3908261375e565b9392505050565b63ffffffff808216600090815260208181526040808320338452600501909152812054909160609116610b435760405162461bcd60e51b8152602060048201526011602482015270139bdd081c1d5c98da185cd959081e595d607a1b60448201526064016101ad565b63ffffffff8084166000818152602081815260408083203384526005810183529083205493835291905260040180549190921691908190610b83906137c6565b80601f0160208091040260200160405190810160405280929190818152602001828054610baf906137c6565b8015610bfc5780601f10610bd157610100808354040283529160200191610bfc565b820191906000526020600020905b815481529060010190602001808311610bdf57829003601f168201915b5050505050905091509150915091565b63ffffffff81166000908152602081905260409020600101548190610c435760405162461bcd60e51b81526004016101ad906134f6565b5050565b60015460ff1615610c6a5760405162461bcd60e51b81526004016101ad90613576565b33735fc8d32690cc91d4c39d9d3abcbd16989f87570714610c9d5760405162461bcd60e51b81526004016101ad90613525565b610ca8600a8261251d565b5060405181907f0d29335611f0a3110c445dd4bbfb88a2cde38f18cf9cf36d6154d714cb097c5b90600090a250565b610ce03361121d565b610cfc5760405162461bcd60e51b81526004016101ad9061354b565b60008911610d425760405162461bcd60e51b815260206004820152601360248201527241646420612070726f6475637420707269636560681b60448201526064016101ad565b610d50600c80546001019055565b6000610d5b600c5490565b63ffffffff80821660009081526020819052604090209192508c1615610d8557610d85828d611497565b83511561102a57835160141015610dde5760405162461bcd60e51b815260206004820152601760248201527f4d617820737562736c696365727320657863656564656400000000000000000060448201526064016101ad565b8251845114610e2f5760405162461bcd60e51b815260206004820152601760248201527f496e7075747320646f6e277420636f72726573706f6e6400000000000000000060448201526064016101ad565b73e7f1725e7734ce288f8367e1bb143e90bb3f051260005b85518160ff161015611027576000826001600160a01b031663175fa7ea888460ff1681518110610e7957610e7961386e565b60200260200101516040518263ffffffff1660e01b8152600401610e9f91815260200190565b60206040518083038186803b158015610eb757600080fd5b505afa158015610ecb573d6000803e3d6000fd5b505050506040513d601f19601f82011682018060405250810190610eef9190612d84565b9050806001600160a01b0316633739e11b878460ff1681518110610f1557610f1561386e565b60200260200101516040518263ffffffff1660e01b8152600401610f45919063ffffffff91909116815260200190565b60006040518083038186803b158015610f5d57600080fd5b505afa158015610f71573d6000803e3d6000fd5b505050506006840180546001810182556000918252602080832090910180546001600160a01b0319166001600160a01b0385169081179091558252600786019052604090208651879060ff8516908110610fcd57610fcd61386e565b60209081029190910181015182546001810184556000938452919092206008820401805460079092166004026101000a63ffffffff818102199093169290931692909202179055508061101f81613838565b915050610e47565b50505b8b8160000160006101000a81548163ffffffff021916908363ffffffff1602179055508a8160010181905550898160020160006101000a81548160ff021916908315150217905550888160020160016101000a81548160ff021916908315150217905550878160020160026101000a81548160ff021916908315150217905550338160020160076101000a8154816001600160a01b0302191690836001600160a01b03160217905550858160030190805190602001906110eb929190612b4f565b5084516111019060048301906020880190612b4f565b50871561111f5760028101805466ffffffff00000019169055611140565b60028101805466ffffffff0000001916630100000063ffffffff8a16021790555b336001600160a01b03168c63ffffffff168363ffffffff167f187c18d66acd4fc31dae101d63e1343e7c24743a802cbb44b8b813101cf58b788e8e8e8e8860020160039054906101000a900463ffffffff168e8d8d6040516111a99897969594939291906135ce565b60405180910390a4505050505050505050505050565b33735fc8d32690cc91d4c39d9d3abcbd16989f875707146111f25760405162461bcd60e51b81526004016101ad90613525565b600492909255600380546001600160a01b0319166001600160a01b0392909216919091179055600555565b6005546001600160a01b03821660009081526008602052604081205490911161124857506001919050565b6000611254600a612529565b11156113de57735fc8d32690cc91d4c39d9d3abcbd16989f87570760005b61127c600a612529565b8161ffff1610156113db5760006001600160a01b03831663175fa7ea6112a7600a61ffff8616612533565b6040518263ffffffff1660e01b81526004016112c591815260200190565b60206040518083038186803b1580156112dd57600080fd5b505afa1580156112f1573d6000803e3d6000fd5b505050506040513d601f19601f820116820180604052508101906113159190612d84565b6005546001600160a01b038216600090815260086020526040902054919250116113c85760405163166eb15b60e21b81526001600160a01b0386811660048301528291908216906359bac56c9060240160206040518083038186803b15801561137d57600080fd5b505afa158015611391573d6000803e3d6000fd5b505050506040513d601f19601f820116820180604052508101906113b5919061313c565b156113c65750600195945050505050565b505b50806113d3816137fb565b915050611272565b50505b506000919050565b604051630bafd3f560e11b815260048101859052735fc8d32690cc91d4c39d9d3abcbd16989f8757079063175fa7ea9060240160206040518083038186803b15801561143157600080fd5b505afa158015611445573d6000803e3d6000fd5b505050506040513d601f19601f820116820180604052508101906114699190612d84565b6001600160a01b0316336001600160a01b03161461148657600080fd5b61149183838361253f565b50505050565b6114a03361121d565b806114aa57503330145b6114c65760405162461bcd60e51b81526004016101ad9061354b565b73e7f1725e7734ce288f8367e1bb143e90bb3f051263ffffffff82161580611575575060405163588d1be760e01b815263ffffffff831660048201526000906001600160a01b0383169063588d1be79060240160206040518083038186803b15801561153157600080fd5b505afa158015611545573d6000803e3d6000fd5b505050506040513d601f19601f820116820180604052508101906115699190612d84565b6001600160a01b031614155b6115b95760405162461bcd60e51b81526020600482015260156024820152744e6f6e2d6578697374656e742063617465676f727960581b60448201526064016101ad565b60405163392d518560e21b815263ffffffff83166004820152735fc8d32690cc91d4c39d9d3abcbd16989f8757079063e4b5461490602401600060405180830381600087803b15801561160b57600080fd5b505af115801561161f573d6000803e3d6000fd5b505033301491506106e190505760405163ffffffff83811682528416907f06430051821ecb8819b754999dfd1a452d9907849169f3ca411dc854bdb0f2b29060200160405180910390a2505050565b60006007544761167e91906136dd565b905090565b61168c3361121d565b6116a85760405162461bcd60e51b81526004016101ad9061354b565b73cf7ed3acca5a467e9e704c703e8d87f634fb0fc96000805b84518161ffff1610156117bd57838161ffff16815181106116e4576116e461386e565b602002602001015161ffff16836001600160a01b0316633941a604878461ffff16815181106117155761171561386e565b60200260200101516040518263ffffffff1660e01b8152600401611745919063ffffffff91909116815260200190565b60206040518083038186803b15801561175d57600080fd5b505afa158015611771573d6000803e3d6000fd5b505050506040513d601f19601f820116820180604052508101906117959190613183565b61179f919061373f565b6117a990836136dd565b9150806117b5816137fb565b9150506116c1565b5060405163a9059cbb60e01b815273f39fd6e51aad88f6f4ce6ab8827279cfffb922666004820152602481018290526001600160a01b0383169063a9059cbb90604401602060405180830381600087803b15801561181a57600080fd5b505af115801561182e573d6000803e3d6000fd5b505050506040513d601f19601f82011682018060405250810190611852919061313c565b507fd0e7280fe218f387be224105631180630e7d8cdb9d48bbc504aa1584cf8d62d584848360405161188693929190613492565b60405180910390a150505050565b63ffffffff841660009081526020819052604090206001015484906118cb5760405162461bcd60e51b81526004016101ad906134f6565b63ffffffff851660009081526020819052604090206002015485906118ff90600160381b90046001600160a01b031661121d565b156119505763ffffffff8116600090815260208190526040902060020154600160381b90046001600160a01b0316331461194b5760405162461bcd60e51b81526004016101ad906135a0565b61197a565b6119593361121d565b151560011461197a5760405162461bcd60e51b81526004016101ad9061354b565b6000831180156119a2575063ffffffff86166000908152602081905260409020600101548311155b6119e65760405162461bcd60e51b8152602060048201526015602482015274496e76616c69642070726f6475637420707269636560581b60448201526064016101ad565b63ffffffff8616600090815260208190526040902060028101805487158015620100000262ff000019909216919091179091556001909101849055611a505763ffffffff86166000908152602081905260409020600201805466ffffffff00000019169055611a87565b63ffffffff8087166000908152602081905260409020600201805491861663010000000266ffffffff000000199092169190911790555b63ffffffff868116600081815260208181526040918290206002015482518a151581526301000000909104909416908401528201859052907f1abdbaff3523be69e62e6a19e7ec8f2972a1e6f84f79517dbca0f63b8d852df3906060015b60405180910390a2505050505050565b60015460ff1615611b185760405162461bcd60e51b81526004016101ad90613576565b33735fc8d32690cc91d4c39d9d3abcbd16989f87570714611b4b5760405162461bcd60e51b81526004016101ad90613525565b6001600160a01b0383166000908152600860209081526040808320546009909252822054611b7a90849061373f565b611b84919061371d565b6001600160a01b03841660009081526009602052604081209192508291016000828254611bb191906136dd565b90915550506001600160a01b03841660009081526009602052604081208054839290611bde90849061375e565b90915550506001600160a01b03841660009081526008602052604081208054849290611c0b90849061375e565b90915550506001600160a01b03831660009081526008602052604081208054849290611c389084906136dd565b909155505050505050565b6000611c5160015460ff1690565b15611c6e5760405162461bcd60e51b81526004016101ad90613576565b3373e7f1725e7734ce288f8367e1bb143e90bb3f05121415611d135760005b8451811015611d1157611cc3858281518110611cab57611cab61386e565b6020026020010151600a612a6290919063ffffffff16565b15611cff5760405162461bcd60e51b815260206004820152600c60248201526b05061796d656e74206c6f6f760a41b60448201526064016101ad565b80611d098161381d565b915050611c8d565b505b5063bc197c8160e01b95945050505050565b33735fc8d32690cc91d4c39d9d3abcbd16989f87570714611d4557600080fd5b6106e183838361253f565b63ffffffff81166000908152602081905260408120600101548290611d875760405162461bcd60e51b81526004016101ad906134f6565b63ffffffff83166000908152602081905260408120600181015460029091015490919060ff1615611e7c576000735fc8d32690cc91d4c39d9d3abcbd16989f8757079050806001600160a01b031663bb27e0ce6040518163ffffffff1660e01b815260040160206040518083038186803b158015611e0457600080fd5b505afa158015611e18573d6000803e3d6000fd5b505050506040513d601f19601f82011682018060405250810190611e3c9190613183565b63ffffffff87166000908152602081905260409020600101549092508290611e6e9069d3c21bcecceda100000061373f565b611e78919061371d565b9250505b63ffffffff8516600090815260208190526040902060060154156120045760005b63ffffffff861660009081526020819052604090206006015460ff821610156120025763ffffffff86166000908152602081905260408120600601805460ff8416908110611eed57611eed61386e565b600091825260208083209091015463ffffffff8a16835282825260408084206001600160a01b03909216808552600790920190925290822080549193509060ff8516908110611f3e57611f3e61386e565b6000918252602090912060088204015460405163bfe5d83560e01b8152600790921660049081026101000a90910463ffffffff16908201819052915082906001600160a01b0382169063bfe5d8359060240160206040518083038186803b158015611fa857600080fd5b505afa158015611fbc573d6000803e3d6000fd5b505050506040513d601f19601f82011682018060405250810190611fe09190613183565b611fea90876136dd565b95505050508080611ffa90613838565b915050611e9d565b505b5091505b50919050565b63ffffffff821660009081526020819052604090206001015482906120455760405162461bcd60e51b81526004016101ad906134f6565b63ffffffff8316600090815260208190526040902060020154839061207990600160381b90046001600160a01b031661121d565b156120ca5763ffffffff8116600090815260208190526040902060020154600160381b90046001600160a01b031633146120c55760405162461bcd60e51b81526004016101ad906135a0565b6120f4565b6120d33361121d565b15156001146120f45760405162461bcd60e51b81526004016101ad9061354b565b63ffffffff841660009081526020819052604090206002015460ff16151583151514156121555760405162461bcd60e51b815260206004820152600f60248201526e14d85b59481c1c9a58d9481d5b9a5d608a1b60448201526064016101ad565b6000735fc8d32690cc91d4c39d9d3abcbd16989f8757076001600160a01b031663bb27e0ce6040518163ffffffff1660e01b815260040160206040518083038186803b1580156121a457600080fd5b505afa1580156121b8573d6000803e3d6000fd5b505050506040513d601f19601f820116820180604052508101906121dc9190613183565b63ffffffff8616600090815260208190526040902060010154909150841561226f57600064e8d4a5100083612211828561371d565b61221b919061373f565b612225919061371d565b9050801561224d5763ffffffff87166000908152602081905260409020600101819055612269565b63ffffffff871660009081526020819052604090206001908101555b506122ab565b6000826122868369d3c21bcecceda100000061373f565b612290919061371d565b63ffffffff8816600090815260208190526040902060010155505b63ffffffff86166000818152602081815260409182902060028101805460ff19168a15159081179091556001909101548351908152918201527f9313b010c2388a1c2903afa4afe83485c3f52d0a177eda33cc12b480cee4be309101611ae5565b600061231a60015460ff1690565b156123375760405162461bcd60e51b81526004016101ad90613576565b3373e7f1725e7734ce288f8367e1bb143e90bb3f0512141561239a5761235e600a85612a62565b1561239a5760405162461bcd60e51b815260206004820152600c60248201526b05061796d656e74206c6f6f760a41b60448201526064016101ad565b5063f23a6e6160e01b95945050505050565b60015460ff16156123cf5760405162461bcd60e51b81526004016101ad90613576565b33735fc8d32690cc91d4c39d9d3abcbd16989f875707146124025760405162461bcd60e51b81526004016101ad90613525565b60005b82518161ffff1610156106e15760006001600160a01b0316838261ffff16815181106124335761243361386e565b60200260200101516001600160a01b0316141561244f57600080fd5b6000828261ffff16815181106124675761246761386e565b60200260200101511161247957600080fd5b818161ffff168151811061248f5761248f61386e565b602002602001015160086000858461ffff16815181106124b1576124b161386e565b60200260200101516001600160a01b03166001600160a01b0316815260200190815260200160002081905550818161ffff16815181106124f3576124f361386e565b602002602001015160065461250891906136dd565b60065580612515816137fb565b915050612405565b6000610ad38383612a7a565b6000610717825490565b6000610ad38383612ac9565b63ffffffff821660009081526020819052604090206001015482906125765760405162461bcd60e51b81526004016101ad906134f6565b61ffff821661258457600080fd5b63ffffffff8316600090815260208190526040902060020154610100900460ff1661263a5763ffffffff8084166000908152602081815260408083206001600160a01b03891684526005019091529020546125e59161ffff851691166136f5565b63ffffffff1660011461263a5760405162461bcd60e51b815260206004820152601960248201527f4d6178696d756d207175616e746974792065786365656465640000000000000060448201526064016101ad565b63ffffffff8084166000908152602081815260408083206001600160a01b03891684526005019091528120805461ffff86169391929161267c918591166136f5565b92506101000a81548163ffffffff021916908363ffffffff1602179055506000808463ffffffff1663ffffffff16815260200190815260200160002060020160029054906101000a900460ff166127985763ffffffff808416600090815260208190526040902060020154630100000090041661ffff831611156127425760405162461bcd60e51b815260206004820152601860248201527f417661696c61626c6520756e697473206578636565646564000000000000000060448201526064016101ad565b63ffffffff8084166000908152602081905260409020600201805461ffff8516926003916127799185916301000000900416613775565b92506101000a81548163ffffffff021916908363ffffffff1602179055505b63ffffffff8316600090815260208190526040812060060154156129f95760005b63ffffffff851660009081526020819052604090206006015460ff821610156129f75763ffffffff85166000908152602081905260408120600601805460ff84169081106128095761280961386e565b600091825260208083209091015463ffffffff8916835282825260408084206001600160a01b03909216808552600790920190925290822080549193509060ff851690811061285a5761285a61386e565b60009182526020822060088204015460405163bfe5d83560e01b8152600790921660049081026101000a90910463ffffffff16908201819052925083919061ffff8916906001600160a01b0384169063bfe5d8359060240160206040518083038186803b1580156128ca57600080fd5b505afa1580156128de573d6000803e3d6000fd5b505050506040513d601f19601f820116820180604052508101906129029190613183565b61290c919061373f565b60045460405160248101919091526001600160a01b038c8116604483015263ffffffff8616606483015261ffff8b166084830152919250600091861690839060a40160408051601f198184030181529181526020820180516001600160e01b0316630d4a9d5b60e31b179052516129839190613476565b60006040518083038185875af1925050503d80600081146129c0576040519150601f19603f3d011682016040523d82523d6000602084013e6129c5565b606091505b50509050806129d357600080fd5b6129dd82886136dd565b9650505050505080806129ef90613838565b9150506127b9565b505b612a0c30612a07833461375e565b6105c8565b6040805161ffff8516815234602082015263ffffffff8616916001600160a01b038816917fcb35e6328d171aabe8c666c3fcc2ba3401887c5504bf5dfaa8b8c3be5ced01bc910160405180910390a35050505050565b60008181526001830160205260408120541515610ad3565b6000818152600183016020526040812054612ac157508154600181810184556000848152602080822090930184905584548482528286019093526040902091909155610717565b506000610717565b81546000908210612b275760405162461bcd60e51b815260206004820152602260248201527f456e756d657261626c655365743a20696e646578206f7574206f6620626f756e604482015261647360f01b60648201526084016101ad565b826000018281548110612b3c57612b3c61386e565b9060005260206000200154905092915050565b828054612b5b906137c6565b90600052602060002090601f016020900481019282612b7d5760008555612bc3565b82601f10612b9657805160ff1916838001178555612bc3565b82800160010185558215612bc3579182015b82811115612bc3578251825591602001919060010190612ba8565b50612bcf929150612bd3565b5090565b5b80821115612bcf5760008155600101612bd4565b600082601f830112612bf957600080fd5b81356020612c0e612c09836136b9565b613688565b80838252828201915082860187848660051b8901011115612c2e57600080fd5b60005b85811015612c4d57813584529284019290840190600101612c31565b5090979650505050505050565b600082601f830112612c6b57600080fd5b81356020612c7b612c09836136b9565b80838252828201915082860187848660051b8901011115612c9b57600080fd5b60005b85811015612c4d57612caf82612d53565b84529284019290840190600101612c9e565b8035612ccc816138b2565b919050565b600082601f830112612ce257600080fd5b813567ffffffffffffffff811115612cfc57612cfc613884565b612d0f601f8201601f1916602001613688565b818152846020838601011115612d2457600080fd5b816020850160208301376000918101602001919091529392505050565b803561ffff81168114612ccc57600080fd5b803563ffffffff81168114612ccc57600080fd5b600060208284031215612d7957600080fd5b8135610ad38161389a565b600060208284031215612d9657600080fd5b8151610ad38161389a565b600080600080600060a08688031215612db957600080fd5b8535612dc48161389a565b94506020860135612dd48161389a565b9350604086013567ffffffffffffffff80821115612df157600080fd5b612dfd89838a01612be8565b94506060880135915080821115612e1357600080fd5b612e1f89838a01612be8565b93506080880135915080821115612e3557600080fd5b50612e4288828901612cd1565b9150509295509295909350565b600080600060608486031215612e6457600080fd5b8335612e6f8161389a565b92506020840135612e7f8161389a565b929592945050506040919091013590565b60008060008060808587031215612ea657600080fd5b8435612eb18161389a565b93506020850135612ec18161389a565b925060408501359150606085013567ffffffffffffffff811115612ee457600080fd5b612ef087828801612cd1565b91505092959194509250565b600080600080600060a08688031215612f1457600080fd5b8535612f1f8161389a565b94506020860135612f2f8161389a565b93506040860135925060608601359150608086013567ffffffffffffffff811115612f5957600080fd5b612e4288828901612cd1565b600080600060608486031215612f7a57600080fd5b8335612f858161389a565b9250612f9360208501612d53565b9150612fa160408501612d41565b90509250925092565b60008060408385031215612fbd57600080fd5b823567ffffffffffffffff80821115612fd557600080fd5b818501915085601f830112612fe957600080fd5b81356020612ff9612c09836136b9565b8083825282820191508286018a848660051b890101111561301957600080fd5b600096505b848710156130455780356130318161389a565b83526001969096019591830191830161301e565b509650508601359250508082111561305c57600080fd5b5061306985828601612be8565b9150509250929050565b6000806040838503121561308657600080fd5b823567ffffffffffffffff8082111561309e57600080fd5b6130aa86838701612c5a565b93506020915081850135818111156130c157600080fd5b85019050601f810186136130d457600080fd5b80356130e2612c09826136b9565b80828252848201915084840189868560051b870101111561310257600080fd5b600094505b8385101561312c5761311881612d41565b835260019490940193918501918501613107565b5080955050505050509250929050565b60006020828403121561314e57600080fd5b8151610ad3816138b2565b60006020828403121561316b57600080fd5b81356001600160e01b031981168114610ad357600080fd5b60006020828403121561319557600080fd5b5051919050565b6000602082840312156131ae57600080fd5b5035919050565b6000806000606084860312156131ca57600080fd5b833592506020840135612e7f8161389a565b600080600080608085870312156131f257600080fd5b8435935060208501356132048161389a565b925061321260408601612d53565b915061322060608601612d41565b905092959194509250565b60006020828403121561323d57600080fd5b610ad382612d53565b6000806040838503121561325957600080fd5b61326283612d53565b91506020830135613272816138b2565b809150509250929050565b6000806000806080858703121561329357600080fd5b61329c85612d53565b935060208501356132ac816138b2565b92506132ba60408601612d53565b9396929550929360600135925050565b6000806000806000806000806000806101408b8d0312156132ea57600080fd5b6132f38b612d53565b995060208b0135985061330860408c01612cc1565b975061331660608c01612cc1565b965061332460808c01612cc1565b955061333260a08c01612d53565b945060c08b013567ffffffffffffffff8082111561334f57600080fd5b61335b8e838f01612cd1565b955060e08d013591508082111561337157600080fd5b61337d8e838f01612cd1565b94506101008d013591508082111561339457600080fd5b6133a08e838f01612be8565b93506101208d01359150808211156133b757600080fd5b506133c48d828e01612c5a565b9150509295989b9194979a5092959850565b600080604083850312156133e957600080fd5b6133f283612d53565b915061340060208401612d53565b90509250929050565b600081518084526020808501945080840160005b8381101561343f57815163ffffffff168752958201959082019060010161341d565b509495945050505050565b6000815180845261346281602086016020860161379a565b601f01601f19169290920160200192915050565b6000825161348881846020870161379a565b9190910192915050565b6060815260006134a56060830186613409565b82810360208481019190915285518083528682019282019060005b818110156134e057845161ffff16835293830193918301916001016134c0565b5050809350505050826040830152949350505050565b602080825260159082015274141c9bd91d58dd08191bd95cdb89dd08195e1a5cdd605a1b604082015260600190565b6020808252600c908201526b155b985d5d1a1bdc9a5e995960a21b604082015260600190565b6020808252601190820152704e6f7420656e6f75676820736c6963657360781b604082015260600190565b60208082526010908201526f14185d5cd8589b194e881c185d5cd95960821b604082015260600190565b60208082526014908201527313db9b1e4818dc99585d1bdc88185b1b1bddd95960621b604082015260600190565b60006101008a835260208a1515818501528915156040850152881515606085015263ffffffff881660808501528160a085015261360d8285018861344a565b84810360c0860152865180825282880193509082019060005b8181101561364257845183529383019391830191600101613626565b505084810360e08601526136568187613409565b9d9c50505050505050505050505050565b828152604060208201526000613680604083018461344a565b949350505050565b604051601f8201601f1916810167ffffffffffffffff811182821017156136b1576136b1613884565b604052919050565b600067ffffffffffffffff8211156136d3576136d3613884565b5060051b60200190565b600082198211156136f0576136f0613858565b500190565b600063ffffffff80831681851680830382111561371457613714613858565b01949350505050565b60008261373a57634e487b7160e01b600052601260045260246000fd5b500490565b600081600019048311821515161561375957613759613858565b500290565b60008282101561377057613770613858565b500390565b600063ffffffff8381169083168181101561379257613792613858565b039392505050565b60005b838110156137b557818101518382015260200161379d565b838111156114915750506000910152565b600181811c908216806137da57607f821691505b6020821081141561200857634e487b7160e01b600052602260045260246000fd5b600061ffff8083168181141561381357613813613858565b6001019392505050565b600060001982141561383157613831613858565b5060010190565b600060ff821660ff81141561384f5761384f613858565b60010192915050565b634e487b7160e01b600052601160045260246000fd5b634e487b7160e01b600052603260045260246000fd5b634e487b7160e01b600052604160045260246000fd5b6001600160a01b03811681146138af57600080fd5b50565b80151581146138af57600080fdfea26469706673582212200cbc8ff570694603c9386efcbd39af9f17ade3709a24ca63ef28d94296ca7bc364736f6c63430008070033",
  "linkReferences": {},
  "deployedLinkReferences": {}
}