{
  "_format": "hh-sol-artifact-1",
  "contractName": "ERC721AMintCloner",
  "sourceName": "contracts/hooks/ERC721Mint/clones/ERC721AMintCloner.sol",
  "abi": [
    {
      "inputs": [],
      "stateMutability": "nonpayable",
      "type": "constructor"
    },
    {
      "inputs": [
        {
          "internalType": "address",
          "name": "productsModuleAddress_",
          "type": "address"
        },
        {
          "internalType": "uint256",
          "name": "slicerId_",
          "type": "uint256"
        },
        {
          "internalType": "string",
          "name": "name_",
          "type": "string"
        },
        {
          "internalType": "string",
          "name": "symbol_",
          "type": "string"
        },
        {
          "internalType": "string",
          "name": "baseURI__",
          "type": "string"
        },
        {
          "internalType": "string",
          "name": "tokenURI__",
          "type": "string"
        }
      ],
      "name": "clone",
      "outputs": [
        {
          "internalType": "address",
          "name": "contractAddress",
          "type": "address"
        }
      ],
      "stateMutability": "nonpayable",
      "type": "function"
    }
  ],
  "bytecode": "0x60a060405234801561001057600080fd5b5060405161001d9061004b565b604051809103906000f080158015610039573d6000803e3d6000fd5b506001600160a01b0316608052610058565b61172e8061048083390190565b60805161040e61007260003960006066015261040e6000f3fe608060405234801561001057600080fd5b506004361061002b5760003560e01c80631acae68d14610030575b600080fd5b61004361003e366004610257565b61005f565b6040516001600160a01b03909116815260200160405180910390f35b600061008a7f00000000000000000000000000000000000000000000000000000000000000006100ff565b60405163ae25972b60e01b81529091506001600160a01b0382169063ae25972b906100c3908a908a908a908a908a908a9060040161036a565b600060405180830381600087803b1580156100dd57600080fd5b505af11580156100f1573d6000803e3d6000fd5b505050509695505050505050565b6000763d602d80600a3d3981f3363d3d373d3d3d363d730000008260601b60e81c176000526e5af43d82803e903d91602b57fd5bf38260781b17602052603760096000f090506001600160a01b0381166101985760405162461bcd60e51b8152602060048201526016602482015275115490cc4c4d8dce8818dc99585d194819985a5b195960521b604482015260640160405180910390fd5b919050565b80356001600160a01b038116811461019857600080fd5b634e487b7160e01b600052604160045260246000fd5b600082601f8301126101db57600080fd5b813567ffffffffffffffff808211156101f6576101f66101b4565b604051601f8301601f19908116603f0116810190828211818310171561021e5761021e6101b4565b8160405283815286602085880101111561023757600080fd5b836020870160208301376000602085830101528094505050505092915050565b60008060008060008060c0878903121561027057600080fd5b6102798761019d565b955060208701359450604087013567ffffffffffffffff8082111561029d57600080fd5b6102a98a838b016101ca565b955060608901359150808211156102bf57600080fd5b6102cb8a838b016101ca565b945060808901359150808211156102e157600080fd5b6102ed8a838b016101ca565b935060a089013591508082111561030357600080fd5b5061031089828a016101ca565b9150509295509295509295565b6000815180845260005b8181101561034357602081850181015186830182015201610327565b81811115610355576000602083870101525b50601f01601f19169290920160200192915050565b60018060a01b038716815285602082015260c06040820152600061039160c083018761031d565b82810360608401526103a3818761031d565b905082810360808401526103b7818661031d565b905082810360a08401526103cb818561031d565b999850505050505050505056fea26469706673582212206a033b3d339edf314701820b4976910676749930cceedeac4a4f2dd30a41c14964736f6c634300080d0033608060405234801561001057600080fd5b5061170e806100206000396000f3fe6080604052600436106100fe5760003560e01c806370a0823111610095578063a23fffb911610064578063a23fffb91461028c578063ae25972b1461029f578063b88d4fde146102bf578063c87b56dd146102d2578063e985e9c5146102f257600080fd5b806370a082311461021057806395d89b411461023057806395db936814610245578063a22cb4651461026c57600080fd5b806318160ddd116100d157806318160ddd146101a757806323b872dd146101ca57806342842e0e146101dd5780636352211e146101f057600080fd5b806301ffc9a71461010357806306fdde0314610138578063081812fc1461015a578063095ea7b314610192575b600080fd5b34801561010f57600080fd5b5061012361011e3660046111d4565b610312565b60405190151581526020015b60405180910390f35b34801561014457600080fd5b5061014d610364565b60405161012f9190611249565b34801561016657600080fd5b5061017a61017536600461125c565b6103ff565b6040516001600160a01b03909116815260200161012f565b6101a56101a036600461128c565b61044c565b005b3480156101b357600080fd5b506101bc61045c565b60405190815260200161012f565b6101a56101d83660046112b6565b61047b565b6101a56101eb3660046112b6565b610671565b3480156101fc57600080fd5b5061017a61020b36600461125c565b610691565b34801561021c57600080fd5b506101bc61022b3660046112f2565b61069c565b34801561023c57600080fd5b5061014d610705565b34801561025157600080fd5b506101236102603660046113b0565b60019695505050505050565b34801561027857600080fd5b506101a5610287366004611440565b61071d565b6101a561029a3660046113b0565b61079a565b3480156102ab57600080fd5b506101a56102ba36600461147c565b6107b7565b6101a56102cd366004611506565b610a33565b3480156102de57600080fd5b5061014d6102ed36600461125c565b610a7d565b3480156102fe57600080fd5b5061012361030d36600461156e565b610b7c565b60006301ffc9a760e01b6001600160e01b03198316148061034357506380ac58cd60e01b6001600160e01b03198316145b8061035e5750635b5e139f60e01b6001600160e01b03198316145b92915050565b606061036e610bb9565b600201805461037c906115a1565b80601f01602080910402602001604051908101604052809291908181526020018280546103a8906115a1565b80156103f55780601f106103ca576101008083540402835291602001916103f5565b820191906000526020600020905b8154815290600101906020018083116103d857829003601f168201915b5050505050905090565b600061040a82610bdd565b610427576040516333d1c03960e21b815260040160405180910390fd5b61042f610bb9565b60009283526006016020525060409020546001600160a01b031690565b61045882826001610c19565b5050565b600080610467610bb9565b60010154610473610bb9565b540303919050565b600061048682610cce565b9050836001600160a01b0316816001600160a01b0316146104b95760405162a1148160e81b815260040160405180910390fd5b6000806104c584610d73565b915091506104ea81876104d53390565b6001600160a01b039081169116811491141790565b610515576104f88633610b7c565b61051557604051632ce44b5f60e11b815260040160405180910390fd5b6001600160a01b03851661053c57604051633a954ecd60e21b815260040160405180910390fd5b801561054757600082555b61054f610bb9565b6001600160a01b038716600090815260059190910160205260409020805460001901905561057b610bb9565b6001600160a01b03861660008181526005929092016020526040909120805460010190554260a01b17600160e11b176105b2610bb9565b60008681526004919091016020526040812091909155600160e11b8416900361062857600184016105e1610bb9565b60008281526004919091016020526040812054900361062657610602610bb9565b5481146106265783610612610bb9565b600083815260049190910160205260409020555b505b83856001600160a01b0316876001600160a01b03167fddf252ad1be2c89b69c2b068fc378daa952ba7f163c4a11628f55a4df523b3ef60405160405180910390a4505050505050565b61068c83838360405180602001604052806000815250610a33565b505050565b600061035e82610cce565b60006001600160a01b0382166106c5576040516323d3ad8160e21b815260040160405180910390fd5b67ffffffffffffffff6106d6610bb9565b6005016000846001600160a01b03166001600160a01b0316815260200190815260200160002054169050919050565b606061070f610bb9565b600301805461037c906115a1565b80610726610bb9565b336000818152600792909201602090815260408084206001600160a01b03881680865290835293819020805460ff19169515159590951790945592518415158152919290917f17307eab39ab6107e8899845ad3d59bd9653f200f220920489ca2b5937696c31910160405180910390a35050565b856107a481610d9b565b6107ae8585610deb565b50505050505050565b6000805160206116b983398151915254610100900460ff166107ec576000805160206116b98339815191525460ff16156107f0565b303b155b6108675760405162461bcd60e51b815260206004820152603760248201527f455243373231415f5f496e697469616c697a61626c653a20636f6e747261637460448201527f20697320616c726561647920696e697469616c697a656400000000000000000060648201526084015b60405180910390fd5b6000805160206116b983398151915254610100900460ff161580156108a3576000805160206116b9833981519152805461ffff19166101011790555b600254610100900460ff16158080156108c35750600254600160ff909116105b806108dd5750303b1580156108dd575060025460ff166001145b6109405760405162461bcd60e51b815260206004820152602e60248201527f496e697469616c697a61626c653a20636f6e747261637420697320616c72656160448201526d191e481a5b9a5d1a585b1a5e995960921b606482015260840161085e565b6002805460ff191660011790558015610963576002805461ff0019166101001790555b600080546001600160a01b0319166001600160a01b038a16179055600187905561098d8686610f26565b8351156109a95783516109a7906003906020870190611125565b505b8251156109c55782516109c3906004906020860190611125565b505b8015610a0b576002805461ff0019169055604051600181527f7f26b83ff96e1f2b6a682f133852f6798a09c465da95921460cefb38474024989060200160405180910390a15b5080156107ae5750506000805160206116b9833981519152805461ff00191690555050505050565b610a3e84848461047b565b6001600160a01b0383163b15610a7757610a5a84848484610f64565b610a77576040516368d2bf6b60e11b815260040160405180910390fd5b50505050565b6060610a8882610bdd565b610aa557604051630a14c4b560e41b815260040160405180910390fd5b6000610aaf61104f565b90508051600003610b4a5760048054610ac7906115a1565b80601f0160208091040260200160405190810160405280929190818152602001828054610af3906115a1565b8015610b405780601f10610b1557610100808354040283529160200191610b40565b820191906000526020600020905b815481529060010190602001808311610b2357829003601f168201915b5050505050610b75565b80610b548461105e565b604051602001610b659291906115db565b6040516020818303038152906040525b9392505050565b6000610b86610bb9565b6001600160a01b039384166000908152600791909101602090815260408083209490951682529290925250205460ff1690565b7f2569078dfb4b0305704d3008e7403993ae9601b85f7ae5e742de3de8f8011c4090565b6000610be7610bb9565b548210801561035e5750600160e01b610bfe610bb9565b60008481526004919091016020526040902054161592915050565b6000610c2483610691565b90508115610c6357336001600160a01b03821614610c6357610c468133610b7c565b610c63576040516367d9dca160e11b815260040160405180910390fd5b83610c6c610bb9565b6000858152600691909101602052604080822080546001600160a01b0319166001600160a01b0394851617905551859287811692908516917f8c5be1e5ebec7d5bd14f71427d1e84f3dd0314c0f7b2291e5b200ac8c7c3b9259190a450505050565b6000610cd8610bb9565b600083815260049190910160205260408120549150600160e01b82169003610d5a5780600003610d5557610d0a610bb9565b548210610d2a57604051636f96cda160e11b815260040160405180910390fd5b610d32610bb9565b600019909201600081815260049390930160205260409092205490508015610d2a575b919050565b604051636f96cda160e11b815260040160405180910390fd5b6000806000610d80610bb9565b60009485526006016020525050604090912080549092909150565b8060015414610dbd57604051632eafdb6960e01b815260040160405180910390fd5b6000546001600160a01b03163314610de8576040516347322d0360e01b815260040160405180910390fd5b50565b6000610df5610bb9565b5490506000829003610e1a5760405163b562e8dd60e01b815260040160405180910390fd5b680100000000000000018202610e2e610bb9565b6001600160a01b038516600081815260059290920160205260409091208054929092019091554260a01b6001841460e11b1717610e69610bb9565b600083815260049190910160205260408120919091556001600160a01b0384169083830190839083907fddf252ad1be2c89b69c2b068fc378daa952ba7f163c4a11628f55a4df523b3ef8180a4600183015b818114610ef357808360007fddf252ad1be2c89b69c2b068fc378daa952ba7f163c4a11628f55a4df523b3ef600080a4600101610ebb565b5081600003610f1457604051622e076360e81b815260040160405180910390fd5b80610f1d610bb9565b555061068c9050565b6000805160206116b983398151915254610100900460ff16610f5a5760405162461bcd60e51b815260040161085e9061160a565b61045882826110a2565b604051630a85bd0160e11b81526000906001600160a01b0385169063150b7a0290610f9990339089908890889060040161165e565b6020604051808303816000875af1925050508015610fd4575060408051601f3d908101601f19168201909252610fd19181019061169b565b60015b611032573d808015611002576040519150601f19603f3d011682016040523d82523d6000602084013e611007565b606091505b50805160000361102a576040516368d2bf6b60e11b815260040160405180910390fd5b805181602001fd5b6001600160e01b031916630a85bd0160e11b149050949350505050565b60606003805461037c906115a1565b606060a06040510180604052602081039150506000815280825b600183039250600a81066030018353600a9004806110785750819003601f19909101908152919050565b6000805160206116b983398151915254610100900460ff166110d65760405162461bcd60e51b815260040161085e9061160a565b816110df610bb9565b60020190805190602001906110f5929190611125565b50806110ff610bb9565b6003019080519060200190611115929190611125565b506000611120610bb9565b555050565b828054611131906115a1565b90600052602060002090601f0160209004810192826111535760008555611199565b82601f1061116c57805160ff1916838001178555611199565b82800160010185558215611199579182015b8281111561119957825182559160200191906001019061117e565b506111a59291506111a9565b5090565b5b808211156111a557600081556001016111aa565b6001600160e01b031981168114610de857600080fd5b6000602082840312156111e657600080fd5b8135610b75816111be565b60005b8381101561120c5781810151838201526020016111f4565b83811115610a775750506000910152565b600081518084526112358160208601602086016111f1565b601f01601f19169290920160200192915050565b602081526000610b75602083018461121d565b60006020828403121561126e57600080fd5b5035919050565b80356001600160a01b0381168114610d5557600080fd5b6000806040838503121561129f57600080fd5b6112a883611275565b946020939093013593505050565b6000806000606084860312156112cb57600080fd5b6112d484611275565b92506112e260208501611275565b9150604084013590509250925092565b60006020828403121561130457600080fd5b610b7582611275565b634e487b7160e01b600052604160045260246000fd5b600082601f83011261133457600080fd5b813567ffffffffffffffff8082111561134f5761134f61130d565b604051601f8301601f19908116603f011681019082821181831017156113775761137761130d565b8160405283815286602085880101111561139057600080fd5b836020870160208301376000602085830101528094505050505092915050565b60008060008060008060c087890312156113c957600080fd5b86359550602087013594506113e060408801611275565b935060608701359250608087013567ffffffffffffffff8082111561140457600080fd5b6114108a838b01611323565b935060a089013591508082111561142657600080fd5b5061143389828a01611323565b9150509295509295509295565b6000806040838503121561145357600080fd5b61145c83611275565b91506020830135801515811461147157600080fd5b809150509250929050565b60008060008060008060c0878903121561149557600080fd5b61149e87611275565b955060208701359450604087013567ffffffffffffffff808211156114c257600080fd5b6114ce8a838b01611323565b955060608901359150808211156114e457600080fd5b6114f08a838b01611323565b9450608089013591508082111561140457600080fd5b6000806000806080858703121561151c57600080fd5b61152585611275565b935061153360208601611275565b925060408501359150606085013567ffffffffffffffff81111561155657600080fd5b61156287828801611323565b91505092959194509250565b6000806040838503121561158157600080fd5b61158a83611275565b915061159860208401611275565b90509250929050565b600181811c908216806115b557607f821691505b6020821081036115d557634e487b7160e01b600052602260045260246000fd5b50919050565b600083516115ed8184602088016111f1565b8351908301906116018183602088016111f1565b01949350505050565b60208082526034908201527f455243373231415f5f496e697469616c697a61626c653a20636f6e7472616374604082015273206973206e6f7420696e697469616c697a696e6760601b606082015260800190565b6001600160a01b03858116825284166020820152604081018390526080606082018190526000906116919083018461121d565b9695505050505050565b6000602082840312156116ad57600080fd5b8151610b75816111be56feee151c8401928dc223602bb187aff91b9a56c7cae5476ef1b3287b085a16c85fa2646970667358221220ae1a2c470d9f1902faebc960b72f1585f3f2a2bd2d2df704def4f93e14b75a9264736f6c634300080d0033",
  "linkReferences": {},
  "deployedLinkReferences": {}
}