{
  "_format": "hh-sol-artifact-1",
  "contractName": "ERC721AMintFactory",
  "sourceName": "contracts/hooks/ERC721Mint/immutable/ERC721AMintFactory.sol",
  "abi": [
    {
      "anonymous": false,
      "inputs": [
        {
          "indexed": false,
          "internalType": "address",
          "name": "contractAddress",
          "type": "address"
        }
      ],
      "name": "ContractCreated",
      "type": "event"
    },
    {
      "inputs": [
        {
          "internalType": "address",
          "name": "productsModuleAddress_",
          "type": "address"
        },
        {
          "internalType": "uint256",
          "name": "slicerId_",
          "type": "uint256"
        },
        {
          "internalType": "string",
          "name": "name_",
          "type": "string"
        },
        {
          "internalType": "string",
          "name": "symbol_",
          "type": "string"
        },
        {
          "internalType": "string",
          "name": "baseURI__",
          "type": "string"
        },
        {
          "internalType": "string",
          "name": "tokenURI__",
          "type": "string"
        }
      ],
      "name": "deploy",
      "outputs": [
        {
          "internalType": "address",
          "name": "contractAddress",
          "type": "address"
        }
      ],
      "stateMutability": "nonpayable",
      "type": "function"
    }
  ],
  "bytecode": "0x608060405234801561001057600080fd5b5061172c806100206000396000f3fe608060405234801561001057600080fd5b506004361061002b5760003560e01c8063cf6b6f6d14610030575b600080fd5b61004361003e3660046101b4565b61005f565b6040516001600160a01b03909116815260200160405180910390f35b6000868686868686604051610073906100e8565b610082969594939291906102c7565b604051809103906000f08015801561009e573d6000803e3d6000fd5b506040516001600160a01b03821681529091507fcf78cf0d6f3d8371e1075c69c492ab4ec5d8cf23a1a239b6a51a1d00be7ca3129060200160405180910390a19695505050505050565b6113c18061033683390190565b80356001600160a01b038116811461010c57600080fd5b919050565b634e487b7160e01b600052604160045260246000fd5b600082601f83011261013857600080fd5b813567ffffffffffffffff8082111561015357610153610111565b604051601f8301601f19908116603f0116810190828211818310171561017b5761017b610111565b8160405283815286602085880101111561019457600080fd5b836020870160208301376000602085830101528094505050505092915050565b60008060008060008060c087890312156101cd57600080fd5b6101d6876100f5565b955060208701359450604087013567ffffffffffffffff808211156101fa57600080fd5b6102068a838b01610127565b9550606089013591508082111561021c57600080fd5b6102288a838b01610127565b9450608089013591508082111561023e57600080fd5b61024a8a838b01610127565b935060a089013591508082111561026057600080fd5b5061026d89828a01610127565b9150509295509295509295565b6000815180845260005b818110156102a057602081850181015186830182015201610284565b818111156102b2576000602083870101525b50601f01601f19169290920160200192915050565b60018060a01b038716815285602082015260c0604082015260006102ee60c083018761027a565b8281036060840152610300818761027a565b90508281036080840152610314818661027a565b905082810360a0840152610328818561027a565b999850505050505050505056fe60806040523480156200001157600080fd5b50604051620013c1380380620013c1833981016040819052620000349162000264565b8351849084906200004d906002906020850190620000d4565b50805162000063906003906020840190620000d4565b50600080555050600880546001600160a01b0319166001600160a01b0388161790556009859055815115620000a9578151620000a790600a906020850190620000d4565b505b805115620000c8578051620000c690600b906020840190620000d4565b505b50505050505062000375565b828054620000e29062000339565b90600052602060002090601f01602090048101928262000106576000855562000151565b82601f106200012157805160ff191683800117855562000151565b8280016001018555821562000151579182015b828111156200015157825182559160200191906001019062000134565b506200015f92915062000163565b5090565b5b808211156200015f576000815560010162000164565b80516001600160a01b03811681146200019257600080fd5b919050565b634e487b7160e01b600052604160045260246000fd5b600082601f830112620001bf57600080fd5b81516001600160401b0380821115620001dc57620001dc62000197565b604051601f8301601f19908116603f0116810190828211818310171562000207576200020762000197565b816040528381526020925086838588010111156200022457600080fd5b600091505b8382101562000248578582018301518183018401529082019062000229565b838211156200025a5760008385830101525b9695505050505050565b60008060008060008060c087890312156200027e57600080fd5b62000289876200017a565b6020880151604089015191975095506001600160401b0380821115620002ae57600080fd5b620002bc8a838b01620001ad565b95506060890151915080821115620002d357600080fd5b620002e18a838b01620001ad565b94506080890151915080821115620002f857600080fd5b620003068a838b01620001ad565b935060a08901519150808211156200031d57600080fd5b506200032c89828a01620001ad565b9150509295509295509295565b600181811c908216806200034e57607f821691505b6020821081036200036f57634e487b7160e01b600052602260045260246000fd5b50919050565b61103c80620003856000396000f3fe6080604052600436106100f35760003560e01c806370a082311161008a578063a23fffb911610059578063a23fffb914610281578063b88d4fde14610294578063c87b56dd146102a7578063e985e9c5146102c757600080fd5b806370a082311461020557806395d89b411461022557806395db93681461023a578063a22cb4651461026157600080fd5b806318160ddd116100c657806318160ddd1461019c57806323b872dd146101bf57806342842e0e146101d25780636352211e146101e557600080fd5b806301ffc9a7146100f857806306fdde031461012d578063081812fc1461014f578063095ea7b314610187575b600080fd5b34801561010457600080fd5b50610118610113366004610bfb565b610310565b60405190151581526020015b60405180910390f35b34801561013957600080fd5b50610142610362565b6040516101249190610c70565b34801561015b57600080fd5b5061016f61016a366004610c83565b6103f4565b6040516001600160a01b039091168152602001610124565b61019a610195366004610cb8565b610438565b005b3480156101a857600080fd5b50600154600054035b604051908152602001610124565b61019a6101cd366004610ce2565b6104d8565b61019a6101e0366004610ce2565b610670565b3480156101f157600080fd5b5061016f610200366004610c83565b610690565b34801561021157600080fd5b506101b1610220366004610d1e565b61069b565b34801561023157600080fd5b506101426106ea565b34801561024657600080fd5b50610118610255366004610ddc565b60019695505050505050565b34801561026d57600080fd5b5061019a61027c366004610e6c565b6106f9565b61019a61028f366004610ddc565b610765565b61019a6102a2366004610ea8565b610782565b3480156102b357600080fd5b506101426102c2366004610c83565b6107cc565b3480156102d357600080fd5b506101186102e2366004610f10565b6001600160a01b03918216600090815260076020908152604080832093909416825291909152205460ff1690565b60006301ffc9a760e01b6001600160e01b03198316148061034157506380ac58cd60e01b6001600160e01b03198316145b8061035c5750635b5e139f60e01b6001600160e01b03198316145b92915050565b60606002805461037190610f43565b80601f016020809104026020016040519081016040528092919081815260200182805461039d90610f43565b80156103ea5780601f106103bf576101008083540402835291602001916103ea565b820191906000526020600020905b8154815290600101906020018083116103cd57829003601f168201915b5050505050905090565b60006103ff826108cb565b61041c576040516333d1c03960e21b815260040160405180910390fd5b506000908152600660205260409020546001600160a01b031690565b600061044382610690565b9050336001600160a01b0382161461047c5761045f81336102e2565b61047c576040516367d9dca160e11b815260040160405180910390fd5b60008281526006602052604080822080546001600160a01b0319166001600160a01b0387811691821790925591518593918516917f8c5be1e5ebec7d5bd14f71427d1e84f3dd0314c0f7b2291e5b200ac8c7c3b92591a4505050565b60006104e3826108f2565b9050836001600160a01b0316816001600160a01b0316146105165760405162a1148160e81b815260040160405180910390fd5b60008281526006602052604090208054338082146001600160a01b038816909114176105635761054686336102e2565b61056357604051632ce44b5f60e11b815260040160405180910390fd5b6001600160a01b03851661058a57604051633a954ecd60e21b815260040160405180910390fd5b801561059557600082555b6001600160a01b038681166000908152600560205260408082208054600019019055918716808252919020805460010190554260a01b17600160e11b17600085815260046020526040812091909155600160e11b84169003610627576001840160008181526004602052604081205490036106255760005481146106255760008181526004602052604090208490555b505b83856001600160a01b0316876001600160a01b03167fddf252ad1be2c89b69c2b068fc378daa952ba7f163c4a11628f55a4df523b3ef60405160405180910390a4505050505050565b61068b83838360405180602001604052806000815250610782565b505050565b600061035c826108f2565b60006001600160a01b0382166106c4576040516323d3ad8160e21b815260040160405180910390fd5b506001600160a01b031660009081526005602052604090205467ffffffffffffffff1690565b60606003805461037190610f43565b3360008181526007602090815260408083206001600160a01b03871680855290835292819020805460ff191686151590811790915590519081529192917f17307eab39ab6107e8899845ad3d59bd9653f200f220920489ca2b5937696c31910160405180910390a35050565b8561076f81610959565b61077985856109a9565b50505050505050565b61078d8484846104d8565b6001600160a01b0383163b156107c6576107a984848484610aa7565b6107c6576040516368d2bf6b60e11b815260040160405180910390fd5b50505050565b60606107d7826108cb565b6107f457604051630a14c4b560e41b815260040160405180910390fd5b60006107fe610b92565b9050805160000361089957600b805461081690610f43565b80601f016020809104026020016040519081016040528092919081815260200182805461084290610f43565b801561088f5780601f106108645761010080835404028352916020019161088f565b820191906000526020600020905b81548152906001019060200180831161087257829003601f168201915b50505050506108c4565b806108a384610ba1565b6040516020016108b4929190610f7d565b6040516020818303038152906040525b9392505050565b600080548210801561035c575050600090815260046020526040902054600160e01b161590565b6000816000548110156109405760008181526004602052604081205490600160e01b8216900361093e575b806000036108c457506000190160008181526004602052604090205461091d565b505b604051636f96cda160e11b815260040160405180910390fd5b806009541461097b57604051632eafdb6960e01b815260040160405180910390fd5b6008546001600160a01b031633146109a6576040516347322d0360e01b815260040160405180910390fd5b50565b60008054908290036109ce5760405163b562e8dd60e01b815260040160405180910390fd5b6001600160a01b03831660008181526005602090815260408083208054680100000000000000018802019055848352600490915281206001851460e11b4260a01b178317905582840190839083907fddf252ad1be2c89b69c2b068fc378daa952ba7f163c4a11628f55a4df523b3ef8180a4600183015b818114610a7d57808360007fddf252ad1be2c89b69c2b068fc378daa952ba7f163c4a11628f55a4df523b3ef600080a4600101610a45565b5081600003610a9e57604051622e076360e81b815260040160405180910390fd5b60005550505050565b604051630a85bd0160e11b81526000906001600160a01b0385169063150b7a0290610adc903390899088908890600401610fac565b6020604051808303816000875af1925050508015610b17575060408051601f3d908101601f19168201909252610b1491810190610fe9565b60015b610b75573d808015610b45576040519150601f19603f3d011682016040523d82523d6000602084013e610b4a565b606091505b508051600003610b6d576040516368d2bf6b60e11b815260040160405180910390fd5b805181602001fd5b6001600160e01b031916630a85bd0160e11b149050949350505050565b6060600a805461037190610f43565b606060a06040510180604052602081039150506000815280825b600183039250600a81066030018353600a900480610bbb5750819003601f19909101908152919050565b6001600160e01b0319811681146109a657600080fd5b600060208284031215610c0d57600080fd5b81356108c481610be5565b60005b83811015610c33578181015183820152602001610c1b565b838111156107c65750506000910152565b60008151808452610c5c816020860160208601610c18565b601f01601f19169290920160200192915050565b6020815260006108c46020830184610c44565b600060208284031215610c9557600080fd5b5035919050565b80356001600160a01b0381168114610cb357600080fd5b919050565b60008060408385031215610ccb57600080fd5b610cd483610c9c565b946020939093013593505050565b600080600060608486031215610cf757600080fd5b610d0084610c9c565b9250610d0e60208501610c9c565b9150604084013590509250925092565b600060208284031215610d3057600080fd5b6108c482610c9c565b634e487b7160e01b600052604160045260246000fd5b600082601f830112610d6057600080fd5b813567ffffffffffffffff80821115610d7b57610d7b610d39565b604051601f8301601f19908116603f01168101908282118183101715610da357610da3610d39565b81604052838152866020858801011115610dbc57600080fd5b836020870160208301376000602085830101528094505050505092915050565b60008060008060008060c08789031215610df557600080fd5b8635955060208701359450610e0c60408801610c9c565b935060608701359250608087013567ffffffffffffffff80821115610e3057600080fd5b610e3c8a838b01610d4f565b935060a0890135915080821115610e5257600080fd5b50610e5f89828a01610d4f565b9150509295509295509295565b60008060408385031215610e7f57600080fd5b610e8883610c9c565b915060208301358015158114610e9d57600080fd5b809150509250929050565b60008060008060808587031215610ebe57600080fd5b610ec785610c9c565b9350610ed560208601610c9c565b925060408501359150606085013567ffffffffffffffff811115610ef857600080fd5b610f0487828801610d4f565b91505092959194509250565b60008060408385031215610f2357600080fd5b610f2c83610c9c565b9150610f3a60208401610c9c565b90509250929050565b600181811c90821680610f5757607f821691505b602082108103610f7757634e487b7160e01b600052602260045260246000fd5b50919050565b60008351610f8f818460208801610c18565b835190830190610fa3818360208801610c18565b01949350505050565b6001600160a01b0385811682528416602082015260408101839052608060608201819052600090610fdf90830184610c44565b9695505050505050565b600060208284031215610ffb57600080fd5b81516108c481610be556fea26469706673582212201b55f3e7b638c7c8024e7a0ca3186efef37218a8f70f253673fe8e63da6f3c1064736f6c634300080d0033a26469706673582212201a45e868e3e483d519cf12a6a32b323e41d4e95ff9844b198499d2379db1e46e64736f6c634300080d0033",
  "linkReferences": {},
  "deployedLinkReferences": {}
}