{
  "_format": "hh-sol-artifact-1",
  "contractName": "SLC",
  "sourceName": "contracts/slice.sol",
  "abi": [
    {
      "inputs": [
        {
          "internalType": "address",
          "name": "sliceCoreAddress",
          "type": "address"
        }
      ],
      "stateMutability": "nonpayable",
      "type": "constructor"
    },
    {
      "anonymous": false,
      "inputs": [
        {
          "indexed": true,
          "internalType": "address",
          "name": "owner",
          "type": "address"
        },
        {
          "indexed": true,
          "internalType": "address",
          "name": "spender",
          "type": "address"
        },
        {
          "indexed": false,
          "internalType": "uint256",
          "name": "value",
          "type": "uint256"
        }
      ],
      "name": "Approval",
      "type": "event"
    },
    {
      "anonymous": false,
      "inputs": [
        {
          "indexed": false,
          "internalType": "address",
          "name": "receiver",
          "type": "address"
        },
        {
          "indexed": false,
          "internalType": "uint256",
          "name": "amount",
          "type": "uint256"
        },
        {
          "indexed": false,
          "internalType": "address",
          "name": "slicerAddress",
          "type": "address"
        },
        {
          "indexed": false,
          "internalType": "uint8",
          "name": "slicerPercentage",
          "type": "uint8"
        }
      ],
      "name": "MintTriggered",
      "type": "event"
    },
    {
      "anonymous": false,
      "inputs": [
        {
          "indexed": false,
          "internalType": "address",
          "name": "receiver",
          "type": "address"
        },
        {
          "indexed": false,
          "internalType": "uint256",
          "name": "amount",
          "type": "uint256"
        }
      ],
      "name": "MintedSLC",
      "type": "event"
    },
    {
      "anonymous": false,
      "inputs": [
        {
          "indexed": true,
          "internalType": "address",
          "name": "previousOwner",
          "type": "address"
        },
        {
          "indexed": true,
          "internalType": "address",
          "name": "newOwner",
          "type": "address"
        }
      ],
      "name": "OwnershipTransferred",
      "type": "event"
    },
    {
      "anonymous": false,
      "inputs": [
        {
          "indexed": true,
          "internalType": "address",
          "name": "from",
          "type": "address"
        },
        {
          "indexed": true,
          "internalType": "address",
          "name": "to",
          "type": "address"
        },
        {
          "indexed": false,
          "internalType": "uint256",
          "name": "value",
          "type": "uint256"
        }
      ],
      "name": "Transfer",
      "type": "event"
    },
    {
      "inputs": [
        {
          "internalType": "address",
          "name": "account",
          "type": "address"
        },
        {
          "internalType": "uint256",
          "name": "amount",
          "type": "uint256"
        },
        {
          "internalType": "uint256",
          "name": "contractId",
          "type": "uint256"
        }
      ],
      "name": "_mintSLC",
      "outputs": [],
      "stateMutability": "nonpayable",
      "type": "function"
    },
    {
      "inputs": [
        {
          "internalType": "uint32",
          "name": "upgradeFunction",
          "type": "uint32"
        },
        {
          "internalType": "uint256",
          "name": "slcPrice",
          "type": "uint256"
        }
      ],
      "name": "_setFunctionPrice",
      "outputs": [],
      "stateMutability": "nonpayable",
      "type": "function"
    },
    {
      "inputs": [
        {
          "internalType": "address",
          "name": "account",
          "type": "address"
        },
        {
          "internalType": "uint256",
          "name": "amount",
          "type": "uint256"
        },
        {
          "internalType": "address",
          "name": "slicerAddress",
          "type": "address"
        },
        {
          "internalType": "uint8",
          "name": "slicerPercentage",
          "type": "uint8"
        }
      ],
      "name": "_triggerMint",
      "outputs": [],
      "stateMutability": "nonpayable",
      "type": "function"
    },
    {
      "inputs": [
        {
          "internalType": "address",
          "name": "owner",
          "type": "address"
        },
        {
          "internalType": "address",
          "name": "spender",
          "type": "address"
        }
      ],
      "name": "allowance",
      "outputs": [
        {
          "internalType": "uint256",
          "name": "",
          "type": "uint256"
        }
      ],
      "stateMutability": "view",
      "type": "function"
    },
    {
      "inputs": [
        {
          "internalType": "address",
          "name": "spender",
          "type": "address"
        },
        {
          "internalType": "uint256",
          "name": "amount",
          "type": "uint256"
        }
      ],
      "name": "approve",
      "outputs": [
        {
          "internalType": "bool",
          "name": "",
          "type": "bool"
        }
      ],
      "stateMutability": "nonpayable",
      "type": "function"
    },
    {
      "inputs": [
        {
          "internalType": "address",
          "name": "account",
          "type": "address"
        }
      ],
      "name": "balanceOf",
      "outputs": [
        {
          "internalType": "uint256",
          "name": "",
          "type": "uint256"
        }
      ],
      "stateMutability": "view",
      "type": "function"
    },
    {
      "inputs": [],
      "name": "decimals",
      "outputs": [
        {
          "internalType": "uint8",
          "name": "",
          "type": "uint8"
        }
      ],
      "stateMutability": "view",
      "type": "function"
    },
    {
      "inputs": [
        {
          "internalType": "address",
          "name": "spender",
          "type": "address"
        },
        {
          "internalType": "uint256",
          "name": "subtractedValue",
          "type": "uint256"
        }
      ],
      "name": "decreaseAllowance",
      "outputs": [
        {
          "internalType": "bool",
          "name": "",
          "type": "bool"
        }
      ],
      "stateMutability": "nonpayable",
      "type": "function"
    },
    {
      "inputs": [
        {
          "internalType": "uint32",
          "name": "upgradeFunction",
          "type": "uint32"
        }
      ],
      "name": "getFunctionPrice",
      "outputs": [
        {
          "internalType": "uint256",
          "name": "price",
          "type": "uint256"
        }
      ],
      "stateMutability": "view",
      "type": "function"
    },
    {
      "inputs": [
        {
          "internalType": "address",
          "name": "spender",
          "type": "address"
        },
        {
          "internalType": "uint256",
          "name": "addedValue",
          "type": "uint256"
        }
      ],
      "name": "increaseAllowance",
      "outputs": [
        {
          "internalType": "bool",
          "name": "",
          "type": "bool"
        }
      ],
      "stateMutability": "nonpayable",
      "type": "function"
    },
    {
      "inputs": [],
      "name": "name",
      "outputs": [
        {
          "internalType": "string",
          "name": "",
          "type": "string"
        }
      ],
      "stateMutability": "view",
      "type": "function"
    },
    {
      "inputs": [],
      "name": "owner",
      "outputs": [
        {
          "internalType": "address",
          "name": "",
          "type": "address"
        }
      ],
      "stateMutability": "view",
      "type": "function"
    },
    {
      "inputs": [],
      "name": "symbol",
      "outputs": [
        {
          "internalType": "string",
          "name": "",
          "type": "string"
        }
      ],
      "stateMutability": "view",
      "type": "function"
    },
    {
      "inputs": [],
      "name": "totalSupply",
      "outputs": [
        {
          "internalType": "uint256",
          "name": "",
          "type": "uint256"
        }
      ],
      "stateMutability": "view",
      "type": "function"
    },
    {
      "inputs": [
        {
          "internalType": "address",
          "name": "recipient",
          "type": "address"
        },
        {
          "internalType": "uint256",
          "name": "amount",
          "type": "uint256"
        }
      ],
      "name": "transfer",
      "outputs": [
        {
          "internalType": "bool",
          "name": "",
          "type": "bool"
        }
      ],
      "stateMutability": "nonpayable",
      "type": "function"
    },
    {
      "inputs": [
        {
          "internalType": "address",
          "name": "sender",
          "type": "address"
        },
        {
          "internalType": "address",
          "name": "recipient",
          "type": "address"
        },
        {
          "internalType": "uint256",
          "name": "amount",
          "type": "uint256"
        }
      ],
      "name": "transferFrom",
      "outputs": [
        {
          "internalType": "bool",
          "name": "",
          "type": "bool"
        }
      ],
      "stateMutability": "nonpayable",
      "type": "function"
    },
    {
      "inputs": [
        {
          "internalType": "address",
          "name": "newOwner",
          "type": "address"
        }
      ],
      "name": "transferOwnership",
      "outputs": [],
      "stateMutability": "nonpayable",
      "type": "function"
    }
  ],
  "bytecode": "0x60a06040523480156200001157600080fd5b50604051620013ce380380620013ce8339810160408190526200003491620002cc565b6040805180820182526005815264536c69636560d81b60208083019182528351808501909452600380855262534c4360e81b9185019190915282513394926200007e929162000226565b5080516200009490600490602084019062000226565b5050506000620000a96200013a60201b60201c565b600580546001600160a01b038086166001600160a01b031992831617909255600680549284169290911682179055604051919250906000907f8be0079c531659141344cd1fd0a4f28419497f9722a3daafe3b4186f6b6457e0908290a350506001600160601b0319606082901b1660805262000133336c0c9f2c9cd04674edea400000006200013e565b5062000362565b3390565b6001600160a01b038216620001995760405162461bcd60e51b815260206004820152601f60248201527f45524332303a206d696e7420746f20746865207a65726f206164647265737300604482015260640160405180910390fd5b8060026000828254620001ad9190620002fe565b90915550506001600160a01b03821660009081526020819052604081208054839290620001dc908490620002fe565b90915550506040518181526001600160a01b038316906000907fddf252ad1be2c89b69c2b068fc378daa952ba7f163c4a11628f55a4df523b3ef9060200160405180910390a35050565b828054620002349062000325565b90600052602060002090601f016020900481019282620002585760008555620002a3565b82601f106200027357805160ff1916838001178555620002a3565b82800160010185558215620002a3579182015b82811115620002a357825182559160200191906001019062000286565b50620002b1929150620002b5565b5090565b5b80821115620002b15760008155600101620002b6565b600060208284031215620002df57600080fd5b81516001600160a01b0381168114620002f757600080fd5b9392505050565b600082198211156200032057634e487b7160e01b600052601160045260246000fd5b500190565b600181811c908216806200033a57607f821691505b602082108114156200035c57634e487b7160e01b600052602260045260246000fd5b50919050565b60805160601c61104d620003816000396000610389015261104d6000f3fe608060405234801561001057600080fd5b506004361061010b5760003560e01c806370a08231116100a2578063a9059cbb11610071578063a9059cbb14610232578063dd62ed3e14610245578063deb0e9911461027e578063f2fde38b14610291578063f9dee3dd146102a457600080fd5b806370a08231146101d35780638da5cb5b146101fc57806395d89b4114610217578063a457c2d71461021f57600080fd5b806323b872dd116100de57806323b872dd146101785780632517c2801461018b578063313ce567146101b157806339509351146101c057600080fd5b806306fdde0314610110578063095ea7b31461012e57806318160ddd146101515780631e62886e14610163575b600080fd5b6101186102b7565b6040516101259190610e91565b60405180910390f35b61014161013c366004610da0565b610349565b6040519015158152602001610125565b6002545b604051908152602001610125565b610176610171366004610e25565b61035f565b005b610141610186366004610d5f565b61047a565b610155610199366004610e5a565b63ffffffff1660009081526007602052604090205490565b60405160128152602001610125565b6101416101ce366004610da0565b610530565b6101556101e1366004610ce5565b6001600160a01b031660009081526020819052604090205490565b6006546040516001600160a01b039091168152602001610125565b610118610567565b61014161022d366004610da0565b610576565b610141610240366004610da0565b610611565b610155610253366004610d26565b6001600160a01b03918216600090815260016020908152604080832093909416825291909152205490565b61017661028c366004610dcc565b61061e565b61017661029f366004610ce5565b6107a8565b6101766102b2366004610e75565b610899565b6060600380546102c690610fae565b80601f01602080910402602001604051908101604052809291908181526020018280546102f290610fae565b801561033f5780601f106103145761010080835404028352916020019161033f565b820191906000526020600020905b81548152906001019060200180831161032257829003601f168201915b5050505050905090565b60006103563384846108f1565b50600192915050565b6006546001600160a01b03163314806104205750604051635563a16160e01b8152600481018290527f00000000000000000000000000000000000000000000000000000000000000006001600160a01b031690635563a1619060240160206040518083038186803b1580156103d357600080fd5b505afa1580156103e7573d6000803e3d6000fd5b505050506040513d601f19601f8201168201806040525081019061040b9190610d09565b6001600160a01b0316336001600160a01b0316145b61042957600080fd5b6104338383610a15565b604080516001600160a01b0385168152602081018490527f6b0f6e93733b0b0b8d5cf4087f58b25241f1a1a9a1d196004fef371df8b24824910160405180910390a1505050565b6000610487848484610af4565b6001600160a01b0384166000908152600160209081526040808320338452909152902054828110156105115760405162461bcd60e51b815260206004820152602860248201527f45524332303a207472616e7366657220616d6f756e74206578636565647320616044820152676c6c6f77616e636560c01b60648201526084015b60405180910390fd5b61052585336105208685610f74565b6108f1565b506001949350505050565b3360008181526001602090815260408083206001600160a01b03871684529091528120549091610356918590610520908690610f1b565b6060600480546102c690610fae565b3360009081526001602090815260408083206001600160a01b0386168452909152812054828110156105f85760405162461bcd60e51b815260206004820152602560248201527f45524332303a2064656372656173656420616c6c6f77616e63652062656c6f77604482015264207a65726f60d81b6064820152608401610508565b61060733856105208685610f74565b5060019392505050565b6000610356338484610af4565b6006546001600160a01b031633146106485760405162461bcd60e51b815260040161050890610ee6565b60648160ff16111561069c5760405162461bcd60e51b815260206004820152601e60248201527f534c433a20496e76616c696420536c696365722070657263656e7461676500006044820152606401610508565b60006106a760025490565b6106c16c0c9f2c9cd04674edea4000000062989680610f55565b6106cb9190610f33565b6106d6906064610f1b565b6106e09085610f55565b905060ff821615610744578160ff1660641461073a576107228560646107068582610f8b565b6107139060ff1685610f55565b61071d9190610f33565b610a15565b61073583606461071360ff861685610f55565b61074e565b6107358382610a15565b61074e8582610a15565b604080516001600160a01b0387811682526020820184905285168183015260ff8416606082015290517f370d437095ad9bf0ea811e8473ef1a6460e4e4d596a5c3c2970d1c0c6c4ed2da9181900360800190a15050505050565b6006546001600160a01b03163314806107cb57506005546001600160a01b031633145b6107e75760405162461bcd60e51b815260040161050890610ee6565b6001600160a01b03811661083d5760405162461bcd60e51b815260206004820152601d60248201527f4e6577206f776e657220697320746865207a65726f20616464726573730000006044820152606401610508565b6006546040516001600160a01b038084169216907f8be0079c531659141344cd1fd0a4f28419497f9722a3daafe3b4186f6b6457e090600090a3600680546001600160a01b0319166001600160a01b0392909216919091179055565b6006546001600160a01b03163314806108bc57506005546001600160a01b031633145b6108d85760405162461bcd60e51b815260040161050890610ee6565b63ffffffff909116600090815260076020526040902055565b6001600160a01b0383166109535760405162461bcd60e51b8152602060048201526024808201527f45524332303a20617070726f76652066726f6d20746865207a65726f206164646044820152637265737360e01b6064820152608401610508565b6001600160a01b0382166109b45760405162461bcd60e51b815260206004820152602260248201527f45524332303a20617070726f766520746f20746865207a65726f206164647265604482015261737360f01b6064820152608401610508565b6001600160a01b0383811660008181526001602090815260408083209487168084529482529182902085905590518481527f8c5be1e5ebec7d5bd14f71427d1e84f3dd0314c0f7b2291e5b200ac8c7c3b925910160405180910390a3505050565b6001600160a01b038216610a6b5760405162461bcd60e51b815260206004820152601f60248201527f45524332303a206d696e7420746f20746865207a65726f2061646472657373006044820152606401610508565b8060026000828254610a7d9190610f1b565b90915550506001600160a01b03821660009081526020819052604081208054839290610aaa908490610f1b565b90915550506040518181526001600160a01b038316906000907fddf252ad1be2c89b69c2b068fc378daa952ba7f163c4a11628f55a4df523b3ef9060200160405180910390a35050565b6001600160a01b038316610b585760405162461bcd60e51b815260206004820152602560248201527f45524332303a207472616e736665722066726f6d20746865207a65726f206164604482015264647265737360d81b6064820152608401610508565b6001600160a01b038216610bba5760405162461bcd60e51b815260206004820152602360248201527f45524332303a207472616e7366657220746f20746865207a65726f206164647260448201526265737360e81b6064820152608401610508565b6001600160a01b03831660009081526020819052604090205481811015610c325760405162461bcd60e51b815260206004820152602660248201527f45524332303a207472616e7366657220616d6f756e7420657863656564732062604482015265616c616e636560d01b6064820152608401610508565b610c3c8282610f74565b6001600160a01b038086166000908152602081905260408082209390935590851681529081208054849290610c72908490610f1b565b92505081905550826001600160a01b0316846001600160a01b03167fddf252ad1be2c89b69c2b068fc378daa952ba7f163c4a11628f55a4df523b3ef84604051610cbe91815260200190565b60405180910390a350505050565b803563ffffffff81168114610ce057600080fd5b919050565b600060208284031215610cf757600080fd5b8135610d0281610fff565b9392505050565b600060208284031215610d1b57600080fd5b8151610d0281610fff565b60008060408385031215610d3957600080fd5b8235610d4481610fff565b91506020830135610d5481610fff565b809150509250929050565b600080600060608486031215610d7457600080fd5b8335610d7f81610fff565b92506020840135610d8f81610fff565b929592945050506040919091013590565b60008060408385031215610db357600080fd5b8235610dbe81610fff565b946020939093013593505050565b60008060008060808587031215610de257600080fd5b8435610ded81610fff565b9350602085013592506040850135610e0481610fff565b9150606085013560ff81168114610e1a57600080fd5b939692955090935050565b600080600060608486031215610e3a57600080fd5b8335610e4581610fff565b95602085013595506040909401359392505050565b600060208284031215610e6c57600080fd5b610d0282610ccc565b60008060408385031215610e8857600080fd5b610dbe83610ccc565b600060208083528351808285015260005b81811015610ebe57858101830151858201604001528201610ea2565b81811115610ed0576000604083870101525b50601f01601f1916929092016040019392505050565b6020808252818101527f4f776e61626c653a2063616c6c6572206973206e6f7420746865206f776e6572604082015260600190565b60008219821115610f2e57610f2e610fe9565b500190565b600082610f5057634e487b7160e01b600052601260045260246000fd5b500490565b6000816000190483118215151615610f6f57610f6f610fe9565b500290565b600082821015610f8657610f86610fe9565b500390565b600060ff821660ff841680821015610fa557610fa5610fe9565b90039392505050565b600181811c90821680610fc257607f821691505b60208210811415610fe357634e487b7160e01b600052602260045260246000fd5b50919050565b634e487b7160e01b600052601160045260246000fd5b6001600160a01b038116811461101457600080fd5b5056fea2646970667358221220d681e5d00b92685f5c8adda7c638676ecd920db8c1cd4762db5d4c47f98acc4664736f6c63430008060033",
  "linkReferences": {},
  "deployedLinkReferences": {}
}