{
  "_format": "hh-sol-artifact-1",
  "contractName": "SliceCore",
  "sourceName": "contracts/slice.sol",
  "abi": [
    {
      "inputs": [],
      "stateMutability": "nonpayable",
      "type": "constructor"
    },
    {
      "anonymous": false,
      "inputs": [
        {
          "indexed": true,
          "internalType": "address",
          "name": "account",
          "type": "address"
        },
        {
          "indexed": true,
          "internalType": "address",
          "name": "operator",
          "type": "address"
        },
        {
          "indexed": false,
          "internalType": "bool",
          "name": "approved",
          "type": "bool"
        }
      ],
      "name": "ApprovalForAll",
      "type": "event"
    },
    {
      "anonymous": false,
      "inputs": [
        {
          "indexed": true,
          "internalType": "address",
          "name": "previousOwner",
          "type": "address"
        },
        {
          "indexed": true,
          "internalType": "address",
          "name": "newOwner",
          "type": "address"
        }
      ],
      "name": "OwnershipTransferred",
      "type": "event"
    },
    {
      "anonymous": false,
      "inputs": [
        {
          "indexed": false,
          "internalType": "address",
          "name": "account",
          "type": "address"
        }
      ],
      "name": "Paused",
      "type": "event"
    },
    {
      "anonymous": false,
      "inputs": [
        {
          "indexed": true,
          "internalType": "address",
          "name": "operator",
          "type": "address"
        },
        {
          "indexed": true,
          "internalType": "address",
          "name": "from",
          "type": "address"
        },
        {
          "indexed": true,
          "internalType": "address",
          "name": "to",
          "type": "address"
        },
        {
          "indexed": false,
          "internalType": "uint256[]",
          "name": "ids",
          "type": "uint256[]"
        },
        {
          "indexed": false,
          "internalType": "uint256[]",
          "name": "values",
          "type": "uint256[]"
        }
      ],
      "name": "TransferBatch",
      "type": "event"
    },
    {
      "anonymous": false,
      "inputs": [
        {
          "indexed": true,
          "internalType": "address",
          "name": "operator",
          "type": "address"
        },
        {
          "indexed": true,
          "internalType": "address",
          "name": "from",
          "type": "address"
        },
        {
          "indexed": true,
          "internalType": "address",
          "name": "to",
          "type": "address"
        },
        {
          "indexed": false,
          "internalType": "uint256",
          "name": "id",
          "type": "uint256"
        },
        {
          "indexed": false,
          "internalType": "uint256",
          "name": "value",
          "type": "uint256"
        }
      ],
      "name": "TransferSingle",
      "type": "event"
    },
    {
      "anonymous": false,
      "inputs": [
        {
          "indexed": false,
          "internalType": "string",
          "name": "value",
          "type": "string"
        },
        {
          "indexed": true,
          "internalType": "uint256",
          "name": "id",
          "type": "uint256"
        }
      ],
      "name": "URI",
      "type": "event"
    },
    {
      "anonymous": false,
      "inputs": [
        {
          "indexed": false,
          "internalType": "address",
          "name": "account",
          "type": "address"
        }
      ],
      "name": "Unpaused",
      "type": "event"
    },
    {
      "inputs": [
        {
          "internalType": "address",
          "name": "categoryAddress_",
          "type": "address"
        }
      ],
      "name": "_addCategory",
      "outputs": [],
      "stateMutability": "nonpayable",
      "type": "function"
    },
    {
      "inputs": [
        {
          "internalType": "uint256",
          "name": "tokenId",
          "type": "uint256"
        },
        {
          "internalType": "uint256",
          "name": "productId",
          "type": "uint256"
        },
        {
          "internalType": "address",
          "name": "account",
          "type": "address"
        }
      ],
      "name": "_addToPurchased",
      "outputs": [],
      "stateMutability": "nonpayable",
      "type": "function"
    },
    {
      "inputs": [
        {
          "internalType": "uint256",
          "name": "categoryIndex",
          "type": "uint256"
        },
        {
          "internalType": "address",
          "name": "newCategoryAddress",
          "type": "address"
        }
      ],
      "name": "_changeCategoryAddress",
      "outputs": [],
      "stateMutability": "nonpayable",
      "type": "function"
    },
    {
      "inputs": [
        {
          "internalType": "address",
          "name": "account",
          "type": "address"
        },
        {
          "internalType": "uint256",
          "name": "id",
          "type": "uint256"
        },
        {
          "internalType": "uint256",
          "name": "amount",
          "type": "uint256"
        },
        {
          "internalType": "address",
          "name": "slicerAddress",
          "type": "address"
        }
      ],
      "name": "_mintSlice",
      "outputs": [],
      "stateMutability": "nonpayable",
      "type": "function"
    },
    {
      "inputs": [
        {
          "internalType": "string",
          "name": "basePath_",
          "type": "string"
        }
      ],
      "name": "_setBasePath",
      "outputs": [],
      "stateMutability": "nonpayable",
      "type": "function"
    },
    {
      "inputs": [
        {
          "internalType": "uint8",
          "name": "newValue",
          "type": "uint8"
        }
      ],
      "name": "_setMaximumTransferBatch",
      "outputs": [],
      "stateMutability": "nonpayable",
      "type": "function"
    },
    {
      "inputs": [],
      "name": "_togglePause",
      "outputs": [],
      "stateMutability": "nonpayable",
      "type": "function"
    },
    {
      "inputs": [
        {
          "internalType": "address",
          "name": "account",
          "type": "address"
        },
        {
          "internalType": "uint256",
          "name": "id",
          "type": "uint256"
        }
      ],
      "name": "balanceOf",
      "outputs": [
        {
          "internalType": "uint256",
          "name": "",
          "type": "uint256"
        }
      ],
      "stateMutability": "view",
      "type": "function"
    },
    {
      "inputs": [
        {
          "internalType": "address[]",
          "name": "accounts",
          "type": "address[]"
        },
        {
          "internalType": "uint256[]",
          "name": "ids",
          "type": "uint256[]"
        }
      ],
      "name": "balanceOfBatch",
      "outputs": [
        {
          "internalType": "uint256[]",
          "name": "",
          "type": "uint256[]"
        }
      ],
      "stateMutability": "view",
      "type": "function"
    },
    {
      "inputs": [
        {
          "internalType": "uint256",
          "name": "categoryIndex",
          "type": "uint256"
        }
      ],
      "name": "categoryAddress",
      "outputs": [
        {
          "internalType": "address",
          "name": "",
          "type": "address"
        }
      ],
      "stateMutability": "view",
      "type": "function"
    },
    {
      "inputs": [
        {
          "internalType": "uint256",
          "name": "id",
          "type": "uint256"
        }
      ],
      "name": "exists",
      "outputs": [
        {
          "internalType": "bool",
          "name": "",
          "type": "bool"
        }
      ],
      "stateMutability": "view",
      "type": "function"
    },
    {
      "inputs": [
        {
          "internalType": "address",
          "name": "account",
          "type": "address"
        },
        {
          "internalType": "address",
          "name": "operator",
          "type": "address"
        }
      ],
      "name": "isApprovedForAll",
      "outputs": [
        {
          "internalType": "bool",
          "name": "",
          "type": "bool"
        }
      ],
      "stateMutability": "view",
      "type": "function"
    },
    {
      "inputs": [
        {
          "internalType": "address",
          "name": "account",
          "type": "address"
        }
      ],
      "name": "ownedSlicerShares",
      "outputs": [
        {
          "internalType": "uint256",
          "name": "",
          "type": "uint256"
        },
        {
          "internalType": "uint256[]",
          "name": "",
          "type": "uint256[]"
        },
        {
          "internalType": "uint256[]",
          "name": "",
          "type": "uint256[]"
        }
      ],
      "stateMutability": "view",
      "type": "function"
    },
    {
      "inputs": [],
      "name": "owner",
      "outputs": [
        {
          "internalType": "address",
          "name": "",
          "type": "address"
        }
      ],
      "stateMutability": "view",
      "type": "function"
    },
    {
      "inputs": [],
      "name": "paused",
      "outputs": [
        {
          "internalType": "bool",
          "name": "",
          "type": "bool"
        }
      ],
      "stateMutability": "view",
      "type": "function"
    },
    {
      "inputs": [
        {
          "internalType": "uint256",
          "name": "id",
          "type": "uint256"
        }
      ],
      "name": "productsPurchasedFromSlicer",
      "outputs": [
        {
          "internalType": "uint256",
          "name": "",
          "type": "uint256"
        },
        {
          "internalType": "bytes32[]",
          "name": "",
          "type": "bytes32[]"
        }
      ],
      "stateMutability": "view",
      "type": "function"
    },
    {
      "inputs": [],
      "name": "purchasedFromSlicers",
      "outputs": [
        {
          "internalType": "uint256",
          "name": "",
          "type": "uint256"
        },
        {
          "internalType": "bytes32[]",
          "name": "",
          "type": "bytes32[]"
        }
      ],
      "stateMutability": "view",
      "type": "function"
    },
    {
      "inputs": [
        {
          "internalType": "address",
          "name": "from",
          "type": "address"
        },
        {
          "internalType": "address",
          "name": "to",
          "type": "address"
        },
        {
          "internalType": "uint256[]",
          "name": "ids",
          "type": "uint256[]"
        },
        {
          "internalType": "uint256[]",
          "name": "amounts",
          "type": "uint256[]"
        },
        {
          "internalType": "bytes",
          "name": "data",
          "type": "bytes"
        }
      ],
      "name": "safeBatchTransferFrom",
      "outputs": [],
      "stateMutability": "nonpayable",
      "type": "function"
    },
    {
      "inputs": [
        {
          "internalType": "address",
          "name": "from",
          "type": "address"
        },
        {
          "internalType": "address",
          "name": "to",
          "type": "address"
        },
        {
          "internalType": "uint256",
          "name": "id",
          "type": "uint256"
        },
        {
          "internalType": "uint256",
          "name": "amount",
          "type": "uint256"
        },
        {
          "internalType": "bytes",
          "name": "data",
          "type": "bytes"
        }
      ],
      "name": "safeTransferFrom",
      "outputs": [],
      "stateMutability": "nonpayable",
      "type": "function"
    },
    {
      "inputs": [
        {
          "internalType": "address",
          "name": "operator",
          "type": "address"
        },
        {
          "internalType": "bool",
          "name": "approved",
          "type": "bool"
        }
      ],
      "name": "setApprovalForAll",
      "outputs": [],
      "stateMutability": "nonpayable",
      "type": "function"
    },
    {
      "inputs": [
        {
          "internalType": "uint256",
          "name": "id",
          "type": "uint256"
        }
      ],
      "name": "slicers",
      "outputs": [
        {
          "internalType": "address",
          "name": "",
          "type": "address"
        }
      ],
      "stateMutability": "view",
      "type": "function"
    },
    {
      "inputs": [
        {
          "internalType": "bytes4",
          "name": "interfaceId",
          "type": "bytes4"
        }
      ],
      "name": "supportsInterface",
      "outputs": [
        {
          "internalType": "bool",
          "name": "",
          "type": "bool"
        }
      ],
      "stateMutability": "view",
      "type": "function"
    },
    {
      "inputs": [
        {
          "internalType": "uint256",
          "name": "id",
          "type": "uint256"
        }
      ],
      "name": "totalSupply",
      "outputs": [
        {
          "internalType": "uint256",
          "name": "",
          "type": "uint256"
        }
      ],
      "stateMutability": "view",
      "type": "function"
    },
    {
      "inputs": [
        {
          "internalType": "address",
          "name": "newOwner",
          "type": "address"
        }
      ],
      "name": "transferOwnership",
      "outputs": [],
      "stateMutability": "nonpayable",
      "type": "function"
    },
    {
      "inputs": [
        {
          "internalType": "uint256",
          "name": "id",
          "type": "uint256"
        }
      ],
      "name": "upgradeSlicer",
      "outputs": [],
      "stateMutability": "nonpayable",
      "type": "function"
    },
    {
      "inputs": [
        {
          "internalType": "uint256",
          "name": "",
          "type": "uint256"
        }
      ],
      "name": "uri",
      "outputs": [
        {
          "internalType": "string",
          "name": "",
          "type": "string"
        }
      ],
      "stateMutability": "view",
      "type": "function"
    }
  ],
  "bytecode": "0x6006805460ff60a01b1916600f60a11b17905560c0604052601c60808190527f68747470733a2f2f736c6963652e736f2f6170692f736c696365722f0000000060a090815262000053916007919062000134565b503480156200006157600080fd5b50336040518060400160405280602081526020017f68747470733a2f2f736c6963652e736f2f6170692f736c696365722f7b69647d815250620000aa816200011b60201b60201c565b50600380546001600160a01b0383166001600160a01b031991821617909155600480543392168217905560405181906000907f8be0079c531659141344cd1fd0a4f28419497f9722a3daafe3b4186f6b6457e0908290a350506004805460ff60a01b19169055600160055562000217565b80516200013090600290602084019062000134565b5050565b8280546200014290620001da565b90600052602060002090601f016020900481019282620001665760008555620001b1565b82601f106200018157805160ff1916838001178555620001b1565b82800160010185558215620001b1579182015b82811115620001b157825182559160200191906001019062000194565b50620001bf929150620001c3565b5090565b5b80821115620001bf5760008155600101620001c4565b600181811c90821680620001ef57607f821691505b602082108114156200021157634e487b7160e01b600052602260045260246000fd5b50919050565b61304380620002276000396000f3fe608060405234801561001057600080fd5b506004361061018d5760003560e01c80635563a161116100de578063a22cb46511610097578063ea8afc8a11610071578063ea8afc8a146103ea578063f242432a146103fd578063f2fde38b14610410578063fab86d921461042357600080fd5b8063a22cb4651461037b578063bd85b0391461038e578063e985e9c5146103ae57600080fd5b80635563a161146102f35780635c975abb1461031c57806362395aa91461032e5780638cf6e14d146103415780638d77c273146103575780638da5cb5b1461036a57600080fd5b8063175fa7ea1161014b578063405b4c3611610125578063405b4c36146102965780634b8464331461029e5780634e1273f4146102b15780634f558e79146102d157600080fd5b8063175fa7ea146102455780632eb2c2d614610270578063303cd08a1461028357600080fd5b8062fdd58e1461019257806301ffc9a7146101b8578063059f424f146101db57806308edd70c146101f0578063090c738d146102035780630e89341c14610225575b600080fd5b6101a56101a0366004612744565b610436565b6040519081526020015b60405180910390f35b6101cb6101c636600461288d565b6104d0565b60405190151581526020016101af565b6101ee6101e93660046128c7565b610520565b005b6101ee6101fe366004612587565b61059e565b610216610211366004612587565b61062e565b6040516101af93929190612d96565b610238610233366004612918565b6107f5565b6040516101af9190612b9b565b610258610253366004612918565b610889565b6040516001600160a01b0390911681526020016101af565b6101ee61027e3660046125fa565b610905565b6101ee610291366004612770565b610bdd565b6101ee610c6d565b6101ee6102ac366004612918565b610cd0565b6102c46102bf3660046127ba565b611027565b6040516101af9190612b5a565b6101cb6102df366004612918565b600090815260086020526040902054151590565b610258610301366004612918565b6000908152600e60205260409020546001600160a01b031690565b600454600160a01b900460ff166101cb565b6101ee61033c36600461298f565b611144565b6103496111a3565b6040516101af929190612d55565b6101ee610365366004612931565b611226565b6004546001600160a01b0316610258565b6101ee610389366004612711565b6112f0565b6101a561039c366004612918565b60009081526008602052604090205490565b6101cb6103bc3660046125c1565b6001600160a01b03918216600090815260016020908152604080832093909416825291909152205460ff1690565b6103496103f8366004612918565b6113c7565b6101ee61040b3660046126a8565b61145e565b6101ee61041e366004612587565b61161d565b6101ee610431366004612956565b61170e565b60006001600160a01b0383166104a75760405162461bcd60e51b815260206004820152602b60248201527f455243313135353a2062616c616e636520717565727920666f7220746865207a60448201526a65726f206164647265737360a81b60648201526084015b60405180910390fd5b506000818152602081815260408083206001600160a01b03861684529091529020545b92915050565b60006001600160e01b03198216636cdb3d1360e11b148061050157506001600160e01b031982166303a24d0760e21b145b806104ca57506301ffc9a760e01b6001600160e01b03198316146104ca565b6004546001600160a01b031633148061054357506003546001600160a01b031633145b61055f5760405162461bcd60e51b815260040161049e90612d20565b80516105729060079060208401906123f9565b5061059b816040516020016105879190612a19565b6040516020818303038152906040526117ca565b50565b6004546001600160a01b03163314806105c157506003546001600160a01b031633145b6105dd5760405162461bcd60e51b815260040161049e90612d20565b6105eb600d80546001019055565b80600e60006105f9600d5490565b815260200190815260200160002060006101000a8154816001600160a01b0302191690836001600160a01b0316021790555050565b6001600160a01b0381166000908152600a6020526040812060609081908390610656906117e1565b6001600160a01b0386166000908152600a60209081526040808320805482518185028101850190935280835294955092939092918301828280156106b957602002820191906000526020600020905b8154815260200190600101908083116106a5575b5050505050905060008267ffffffffffffffff8111156106db576106db612f26565b604051908082528060200260200182016040528015610704578160200160208202803683370190505b50905060008367ffffffffffffffff81111561072257610722612f26565b60405190808252806020026020018201604052801561074b578160200160208202803683370190505b50905060005b848110156107d8578883828151811061076c5761076c612f10565b60200260200101906001600160a01b031690816001600160a01b03168152505083818151811061079e5761079e612f10565b602002602001015160001c8282815181106107bb576107bb612f10565b6020908102919091010152806107d081612ec9565b915050610751565b5060006107e58383611027565b9499919850939650945050505050565b60606002805461080490612e61565b80601f016020809104026020016040519081016040528092919081815260200182805461083090612e61565b801561087d5780601f106108525761010080835404028352916020019161087d565b820191906000526020600020905b81548152906001019060200180831161086057829003601f168201915b50505050509050919050565b60008181526008602052604081205415156001146108e95760405162461bcd60e51b815260206004820152601f60248201527f536c696365436f72653a20536c6963657220646f65736e277420657869737400604482015260640161049e565b506000908152600960205260409020546001600160a01b031690565b6001600160a01b038516331480610921575061092185336103bc565b61093d5760405162461bcd60e51b815260040161049e90612c84565b6006548351600160a01b90910460ff1610156109aa5760405162461bcd60e51b815260206004820152602660248201527f536c696365436f72653a20546f6f206d616e7920746f6b656e73207472616e7360448201526519995c9c995960d21b606482015260840161049e565b6000835167ffffffffffffffff8111156109c6576109c6612f26565b6040519080825280602002602001820160405280156109ef578160200160208202803683370190505b50905060005b8451811015610b6057610a4e858281518110610a1357610a13612f10565b6020026020010151600a6000896001600160a01b03166001600160a01b031681526020019081526020016000206117eb90919063ffffffff16565b50838181518110610a6157610a61612f10565b6020026020010151610a8c88878481518110610a7f57610a7f612f10565b6020026020010151610436565b1415610ae457610ae2858281518110610aa757610aa7612f10565b6020026020010151600a60008a6001600160a01b03166001600160a01b031681526020019081526020016000206117fe90919063ffffffff16565b505b60096000868381518110610afa57610afa612f10565b6020026020010151815260200190815260200160002060009054906101000a90046001600160a01b0316828281518110610b3657610b36612f10565b6001600160a01b039092166020928302919091019091015280610b5881612ec9565b9150506109f5565b5060048054604051631b5cfaa360e31b81526001600160a01b039091169163dae7d51891610b96918a918a9187918a9101612a41565b600060405180830381600087803b158015610bb057600080fd5b505af1158015610bc4573d6000803e3d6000fd5b50505050610bd5868686868661180a565b505050505050565b6004546001600160a01b03163314610c075760405162461bcd60e51b815260040161049e90612d20565b610c2284848460405180602001604052806000815250611a70565b600083815260096020908152604080832080546001600160a01b0319166001600160a01b038681169190911790915587168352600a9091529020610c6690846117eb565b5050505050565b6004546001600160a01b0316331480610c9057506003546001600160a01b031633145b610cac5760405162461bcd60e51b815260040161049e90612d20565b600454600160a01b900460ff1615610cc857610cc6611aa5565b565b610cc6611b42565b60026005541415610d235760405162461bcd60e51b815260206004820152601f60248201527f5265656e7472616e637947756172643a207265656e7472616e742063616c6c00604482015260640161049e565b60026005556000610d3c6004546001600160a01b031690565b60405163094a928b60e01b8152600481018490529091506000906001600160a01b0383169063094a928b9060240160206040518083038186803b158015610d8257600080fd5b505afa158015610d96573d6000803e3d6000fd5b505050506040513d601f19601f82011682018060405250810190610dba91906125a4565b6001600160a01b03161415610e115760405162461bcd60e51b815260206004820152601d60248201527f536c696365436f72653a204e6f2070656e64696e672075706461746573000000604482015260640161049e565b60405163094a928b60e01b8152600481018390526000906001600160a01b0383169063094a928b9060240160206040518083038186803b158015610e5457600080fd5b505afa158015610e68573d6000803e3d6000fd5b505050506040513d601f19601f82011682018060405250810190610e8c91906125a4565b60008481526009602052604090819020549051630c3484fd60e01b81523360048201529192506001600160a01b0316908190630c3484fd90602401600060405180830381600087803b158015610ee157600080fd5b505af1158015610ef5573d6000803e3d6000fd5b5050506000858152600960205260408120549091508190610f1e906001600160a01b031661062e565b6000898152600960209081526040808320548151928301909152918152929550909350610f5b92506001600160a01b031690869085908590610905565b604051630c667a8160e21b81526001600160a01b038581166004830152841690633199ea0490602401600060405180830381600087803b158015610f9e57600080fd5b505af1158015610fb2573d6000803e3d6000fd5b50505050610fc08685611bca565b604051632a93df1d60e01b8152600481018790526001600160a01b03861690632a93df1d90602401600060405180830381600087803b15801561100257600080fd5b505af1158015611016573d6000803e3d6000fd5b505060016005555050505050505050565b6060815183511461108c5760405162461bcd60e51b815260206004820152602960248201527f455243313135353a206163636f756e747320616e6420696473206c656e677468604482015268040dad2e6dac2e8c6d60bb1b606482015260840161049e565b6000835167ffffffffffffffff8111156110a8576110a8612f26565b6040519080825280602002602001820160405280156110d1578160200160208202803683370190505b50905060005b845181101561113c5761110f8582815181106110f5576110f5612f10565b6020026020010151858381518110610a7f57610a7f612f10565b82828151811061112157611121612f10565b602090810291909101015261113581612ec9565b90506110d7565b509392505050565b6004546001600160a01b031633148061116757506003546001600160a01b031633145b6111835760405162461bcd60e51b815260040161049e90612d20565b6006805460ff909216600160a01b0260ff60a01b19909216919091179055565b336000908152600b602052604081206060906111be906117e1565b336000908152600b6020908152604091829020805483518184028101840190945280845290929183919083018282801561121757602002820191906000526020600020905b815481526020019060010190808311611203575b50505050509050915091509091565b6004546001600160a01b031633148061124957506003546001600160a01b031633145b6112655760405162461bcd60e51b815260040161049e90612d20565b81158015906112765750600d548211155b6112c25760405162461bcd60e51b815260206004820181905260248201527f536c696365436f72653a204e6f6e2d6578697374656e742063617465676f7279604482015260640161049e565b6000918252600e602052604090912080546001600160a01b0319166001600160a01b03909216919091179055565b336001600160a01b038316141561135b5760405162461bcd60e51b815260206004820152602960248201527f455243313135353a2073657474696e6720617070726f76616c20737461747573604482015268103337b91039b2b63360b91b606482015260840161049e565b3360008181526001602090815260408083206001600160a01b03871680855290835292819020805460ff191686151590811790915590519081529192917f17307eab39ab6107e8899845ad3d59bd9653f200f220920489ca2b5937696c31910160405180910390a35050565b336000908152600c6020908152604080832084845290915281206060906113ed906117e1565b336000908152600c60209081526040808320878452825291829020805483518184028101840190945280845290929183919083018282801561144e57602002820191906000526020600020905b81548152602001906001019080831161143a575b5050505050905091509150915091565b6001600160a01b03851633148061147a575061147a85336103bc565b6114965760405162461bcd60e51b815260040161049e90612bf6565b60408051600180825281830190925260009160208083019080368337505060408051600180825281830190925292935060009291506020808301908036833750505060008681526009602052604081205484519293506001600160a01b03169184919061150557611505612f10565b60200260200101906001600160a01b031690816001600160a01b031681525050838160008151811061153957611539612f10565b6020908102919091018101919091526001600160a01b0387166000908152600a9091526040902061156a90866117eb565b50836115768887610436565b14156115a0576001600160a01b0387166000908152600a6020526040902061159e90866117fe565b505b60048054604051631b5cfaa360e31b81526001600160a01b039091169163dae7d518916115d5918b918b918891889101612a41565b600060405180830381600087803b1580156115ef57600080fd5b505af1158015611603573d6000803e3d6000fd5b505050506116148787878787611cd7565b50505050505050565b6004546001600160a01b031633148061164057506003546001600160a01b031633145b61165c5760405162461bcd60e51b815260040161049e90612d20565b6001600160a01b0381166116b25760405162461bcd60e51b815260206004820152601d60248201527f4e6577206f776e657220697320746865207a65726f2061646472657373000000604482015260640161049e565b6004546040516001600160a01b038084169216907f8be0079c531659141344cd1fd0a4f28419497f9722a3daafe3b4186f6b6457e090600090a3600480546001600160a01b0319166001600160a01b0392909216919091179055565b6000838152600960205260409020546001600160a01b031633146117745760405162461bcd60e51b815260206004820152601760248201527f536c696365436f72653a20556e617574686f72697a6564000000000000000000604482015260640161049e565b6001600160a01b0381166000908152600b6020526040902061179690846117eb565b506001600160a01b0381166000908152600c6020908152604080832086845290915290206117c490836117eb565b50505050565b80516117dd9060029060208401906123f9565b5050565b60006104ca825490565b60006117f78383611e3b565b9392505050565b60006117f78383611e8a565b815183511461186c5760405162461bcd60e51b815260206004820152602860248201527f455243313135353a2069647320616e6420616d6f756e7473206c656e677468206044820152670dad2e6dac2e8c6d60c31b606482015260840161049e565b6001600160a01b0384166118925760405162461bcd60e51b815260040161049e90612c3f565b6001600160a01b0385163314806118ae57506118ae85336103bc565b6118ca5760405162461bcd60e51b815260040161049e90612c84565b336118d9818787878787611f77565b60005b8451811015611a0a5760008582815181106118f9576118f9612f10565b60200260200101519050600085838151811061191757611917612f10565b602090810291909101810151600084815280835260408082206001600160a01b038e1683529093529190912054909150818110156119675760405162461bcd60e51b815260040161049e90612cd6565b6119718282612e07565b60008085815260200190815260200160002060008c6001600160a01b03166001600160a01b03168152602001908152602001600020819055508160008085815260200190815260200160002060008b6001600160a01b03166001600160a01b0316815260200190815260200160002060008282546119ef9190612def565b9250508190555050505080611a0390612ec9565b90506118dc565b50846001600160a01b0316866001600160a01b0316826001600160a01b03167f4a39dc06d4c0dbc64b70af90fd698a233a518aa5d07e595d983b8c0526c8f7fb8787604051611a5a929190612b6d565b60405180910390a4610bd5818787878787611fe6565b611a7c84848484612151565b60008381526008602052604081208054849290611a9a908490612def565b909155505050505050565b600454600160a01b900460ff16611af55760405162461bcd60e51b815260206004820152601460248201527314185d5cd8589b194e881b9bdd081c185d5cd95960621b604482015260640161049e565b6004805460ff60a01b191690557f5db9ee0a495bf2e6ff9c91a7834c1ba4fdd244a5e8aa4e537bd38aeae4b073aa335b6040516001600160a01b03909116815260200160405180910390a1565b600454600160a01b900460ff1615611b8f5760405162461bcd60e51b815260206004820152601060248201526f14185d5cd8589b194e881c185d5cd95960821b604482015260640161049e565b6004805460ff60a01b1916600160a01b1790557f62e78cea01bee320cd4e420270b5ea74000d11b0c9f74754ebdbfc544b05a258611b253390565b6000828152600960209081526040808320546001600160a01b03168352600a9091528120611bf7906117e1565b90505b8015611ca8576000611c0d600183612e07565b6000858152600960209081526040808320546001600160a01b03168352600a909152812091925090611c3f9083612252565b6001600160a01b0385166000908152600a60205260409020909150611c6490826117eb565b506000858152600960209081526040808320546001600160a01b03168352600a9091529020611c9390826117fe565b5082611c9e81612e4a565b9350505050611bfa565b5060009182526009602052604090912080546001600160a01b0319166001600160a01b03909216919091179055565b6001600160a01b038416611cfd5760405162461bcd60e51b815260040161049e90612c3f565b6001600160a01b038516331480611d195750611d1985336103bc565b611d355760405162461bcd60e51b815260040161049e90612bf6565b33611d54818787611d458861225e565b611d4e8861225e565b87611f77565b6000848152602081815260408083206001600160a01b038a16845290915290205483811015611d955760405162461bcd60e51b815260040161049e90612cd6565b611d9f8482612e07565b6000868152602081815260408083206001600160a01b038c81168552925280832093909355881681529081208054869290611ddb908490612def565b909155505060408051868152602081018690526001600160a01b03808916928a821692918616917fc3d58168c5ae7397731d063d5bbf3d657854427343f4c083240f7aacaa2d0f62910160405180910390a46116148288888888886122a9565b6000818152600183016020526040812054611e82575081546001818101845560008481526020808220909301849055845484825282860190935260409020919091556104ca565b5060006104ca565b60008181526001830160205260408120548015611f6d576000611eae600183612e07565b8554909150600090611ec290600190612e07565b90506000866000018281548110611edb57611edb612f10565b9060005260206000200154905080876000018481548110611efe57611efe612f10565b600091825260208083209091019290925582815260018901909152604090208490558654879080611f3157611f31612efa565b600190038181906000526020600020016000905590558660010160008781526020019081526020016000206000905560019450505050506104ca565b60009150506104ca565b600454600160a01b900460ff1615610bd55760405162461bcd60e51b815260206004820152602c60248201527f455243313135355061757361626c653a20746f6b656e207472616e736665722060448201526b1dda1a5b19481c185d5cd95960a21b606482015260840161049e565b6001600160a01b0384163b15610bd55760405163bc197c8160e01b81526001600160a01b0385169063bc197c819061202a9089908990889088908890600401612ab7565b602060405180830381600087803b15801561204457600080fd5b505af1925050508015612074575060408051601f3d908101601f19168201909252612071918101906128aa565b60015b61212157612080612f3c565b806308c379a014156120ba5750612095612f58565b806120a057506120bc565b8060405162461bcd60e51b815260040161049e9190612b9b565b505b60405162461bcd60e51b815260206004820152603460248201527f455243313135353a207472616e7366657220746f206e6f6e20455243313135356044820152732932b1b2b4bb32b91034b6b83632b6b2b73a32b960611b606482015260840161049e565b6001600160e01b0319811663bc197c8160e01b146116145760405162461bcd60e51b815260040161049e90612bae565b6001600160a01b0384166121b15760405162461bcd60e51b815260206004820152602160248201527f455243313135353a206d696e7420746f20746865207a65726f206164647265736044820152607360f81b606482015260840161049e565b336121c281600087611d458861225e565b6000848152602081815260408083206001600160a01b0389168452909152812080548592906121f2908490612def565b909155505060408051858152602081018590526001600160a01b0380881692600092918516917fc3d58168c5ae7397731d063d5bbf3d657854427343f4c083240f7aacaa2d0f62910160405180910390a4610c66816000878787876122a9565b60006117f78383612373565b6040805160018082528183019092526060916000919060208083019080368337019050509050828160008151811061229857612298612f10565b602090810291909101015292915050565b6001600160a01b0384163b15610bd55760405163f23a6e6160e01b81526001600160a01b0385169063f23a6e61906122ed9089908990889088908890600401612b15565b602060405180830381600087803b15801561230757600080fd5b505af1925050508015612337575060408051601f3d908101601f19168201909252612334918101906128aa565b60015b61234357612080612f3c565b6001600160e01b0319811663f23a6e6160e01b146116145760405162461bcd60e51b815260040161049e90612bae565b815460009082106123d15760405162461bcd60e51b815260206004820152602260248201527f456e756d657261626c655365743a20696e646578206f7574206f6620626f756e604482015261647360f01b606482015260840161049e565b8260000182815481106123e6576123e6612f10565b9060005260206000200154905092915050565b82805461240590612e61565b90600052602060002090601f016020900481019282612427576000855561246d565b82601f1061244057805160ff191683800117855561246d565b8280016001018555821561246d579182015b8281111561246d578251825591602001919060010190612452565b5061247992915061247d565b5090565b5b80821115612479576000815560010161247e565b600067ffffffffffffffff8311156124ac576124ac612f26565b6040516124c3601f8501601f191660200182612e9c565b8091508381528484840111156124d857600080fd5b83836020830137600060208583010152509392505050565b600082601f83011261250157600080fd5b8135602061250e82612dcb565b60405161251b8282612e9c565b8381528281019150858301600585901b8701840188101561253b57600080fd5b60005b8581101561255a5781358452928401929084019060010161253e565b5090979650505050505050565b600082601f83011261257857600080fd5b6117f783833560208501612492565b60006020828403121561259957600080fd5b81356117f781612fe2565b6000602082840312156125b657600080fd5b81516117f781612fe2565b600080604083850312156125d457600080fd5b82356125df81612fe2565b915060208301356125ef81612fe2565b809150509250929050565b600080600080600060a0868803121561261257600080fd5b853561261d81612fe2565b9450602086013561262d81612fe2565b9350604086013567ffffffffffffffff8082111561264a57600080fd5b61265689838a016124f0565b9450606088013591508082111561266c57600080fd5b61267889838a016124f0565b9350608088013591508082111561268e57600080fd5b5061269b88828901612567565b9150509295509295909350565b600080600080600060a086880312156126c057600080fd5b85356126cb81612fe2565b945060208601356126db81612fe2565b93506040860135925060608601359150608086013567ffffffffffffffff81111561270557600080fd5b61269b88828901612567565b6000806040838503121561272457600080fd5b823561272f81612fe2565b9150602083013580151581146125ef57600080fd5b6000806040838503121561275757600080fd5b823561276281612fe2565b946020939093013593505050565b6000806000806080858703121561278657600080fd5b843561279181612fe2565b9350602085013592506040850135915060608501356127af81612fe2565b939692955090935050565b600080604083850312156127cd57600080fd5b823567ffffffffffffffff808211156127e557600080fd5b818501915085601f8301126127f957600080fd5b8135602061280682612dcb565b6040516128138282612e9c565b8381528281019150858301600585901b870184018b101561283357600080fd5b600096505b8487101561285f57803561284b81612fe2565b835260019690960195918301918301612838565b509650508601359250508082111561287657600080fd5b50612883858286016124f0565b9150509250929050565b60006020828403121561289f57600080fd5b81356117f781612ff7565b6000602082840312156128bc57600080fd5b81516117f781612ff7565b6000602082840312156128d957600080fd5b813567ffffffffffffffff8111156128f057600080fd5b8201601f8101841361290157600080fd5b61291084823560208401612492565b949350505050565b60006020828403121561292a57600080fd5b5035919050565b6000806040838503121561294457600080fd5b8235915060208301356125ef81612fe2565b60008060006060848603121561296b57600080fd5b8335925060208401359150604084013561298481612fe2565b809150509250925092565b6000602082840312156129a157600080fd5b813560ff811681146117f757600080fd5b600081518084526020808501945080840160005b838110156129e2578151875295820195908201906001016129c6565b509495945050505050565b60008151808452612a05816020860160208601612e1e565b601f01601f19169290920160200192915050565b60008251612a2b818460208701612e1e565b637b69647d60e01b920191825250600401919050565b60006080820160018060a01b0380881684526020818816818601526080604086015282875180855260a087019150828901945060005b81811015612a95578551851683529483019491830191600101612a77565b50508581036060870152612aa981886129b2565b9a9950505050505050505050565b6001600160a01b0386811682528516602082015260a060408201819052600090612ae3908301866129b2565b8281036060840152612af581866129b2565b90508281036080840152612b0981856129ed565b98975050505050505050565b6001600160a01b03868116825285166020820152604081018490526060810183905260a060808201819052600090612b4f908301846129ed565b979650505050505050565b6020815260006117f760208301846129b2565b604081526000612b8060408301856129b2565b8281036020840152612b9281856129b2565b95945050505050565b6020815260006117f760208301846129ed565b60208082526028908201527f455243313135353a204552433131353552656365697665722072656a656374656040820152676420746f6b656e7360c01b606082015260800190565b60208082526029908201527f455243313135353a2063616c6c6572206973206e6f74206f776e6572206e6f7260408201526808185c1c1c9bdd995960ba1b606082015260800190565b60208082526025908201527f455243313135353a207472616e7366657220746f20746865207a65726f206164604082015264647265737360d81b606082015260800190565b60208082526032908201527f455243313135353a207472616e736665722063616c6c6572206973206e6f74206040820152711bdddb995c881b9bdc88185c1c1c9bdd995960721b606082015260800190565b6020808252602a908201527f455243313135353a20696e73756666696369656e742062616c616e636520666f60408201526939103a3930b739b332b960b11b606082015260800190565b6020808252818101527f4f776e61626c653a2063616c6c6572206973206e6f7420746865206f776e6572604082015260600190565b6000604082018483526020604081850152818551808452606086019150828701935060005b8181101561255a57845183529383019391830191600101612d7a565b838152606060208201526000612daf60608301856129b2565b8281036040840152612dc181856129b2565b9695505050505050565b600067ffffffffffffffff821115612de557612de5612f26565b5060051b60200190565b60008219821115612e0257612e02612ee4565b500190565b600082821015612e1957612e19612ee4565b500390565b60005b83811015612e39578181015183820152602001612e21565b838111156117c45750506000910152565b600081612e5957612e59612ee4565b506000190190565b600181811c90821680612e7557607f821691505b60208210811415612e9657634e487b7160e01b600052602260045260246000fd5b50919050565b601f8201601f1916810167ffffffffffffffff81118282101715612ec257612ec2612f26565b6040525050565b6000600019821415612edd57612edd612ee4565b5060010190565b634e487b7160e01b600052601160045260246000fd5b634e487b7160e01b600052603160045260246000fd5b634e487b7160e01b600052603260045260246000fd5b634e487b7160e01b600052604160045260246000fd5b600060033d1115612f555760046000803e5060005160e01c5b90565b600060443d1015612f665790565b6040516003193d81016004833e81513d67ffffffffffffffff8160248401118184111715612f9657505050505090565b8285019150815181811115612fae5750505050505090565b843d8701016020828501011115612fc85750505050505090565b612fd760208286010187612e9c565b509095945050505050565b6001600160a01b038116811461059b57600080fd5b6001600160e01b03198116811461059b57600080fdfea2646970667358221220b6f3b356f48a63d524c1bd3d565dc51ab4bb082c26bfa1871c0b5532afcc34a364736f6c63430008060033",
  "linkReferences": {},
  "deployedLinkReferences": {}
}