{
  "_format": "hh-sol-artifact-1",
  "contractName": "Slicer",
  "sourceName": "contracts/slice.sol",
  "abi": [
    {
      "inputs": [
        {
          "internalType": "uint256",
          "name": "tokenId_",
          "type": "uint256"
        },
        {
          "internalType": "address",
          "name": "sliceCoreAddress_",
          "type": "address"
        },
        {
          "internalType": "address",
          "name": "SLCAddress_",
          "type": "address"
        },
        {
          "internalType": "address",
          "name": "sliceProtocolAddress_",
          "type": "address"
        },
        {
          "internalType": "address",
          "name": "slicerCreator_",
          "type": "address"
        },
        {
          "internalType": "uint256",
          "name": "minimumShares_",
          "type": "uint256"
        }
      ],
      "stateMutability": "payable",
      "type": "constructor"
    },
    {
      "anonymous": false,
      "inputs": [
        {
          "indexed": false,
          "internalType": "address",
          "name": "account",
          "type": "address"
        }
      ],
      "name": "Paused",
      "type": "event"
    },
    {
      "anonymous": false,
      "inputs": [
        {
          "indexed": false,
          "internalType": "address",
          "name": "from",
          "type": "address"
        },
        {
          "indexed": false,
          "internalType": "uint256",
          "name": "amount",
          "type": "uint256"
        }
      ],
      "name": "PaymentReceived",
      "type": "event"
    },
    {
      "anonymous": false,
      "inputs": [
        {
          "indexed": false,
          "internalType": "address",
          "name": "from",
          "type": "address"
        },
        {
          "indexed": false,
          "internalType": "uint256",
          "name": "productId",
          "type": "uint256"
        },
        {
          "indexed": false,
          "internalType": "uint256",
          "name": "productPrice",
          "type": "uint256"
        },
        {
          "indexed": false,
          "internalType": "bytes",
          "name": "data",
          "type": "bytes"
        }
      ],
      "name": "ProductAdded",
      "type": "event"
    },
    {
      "anonymous": false,
      "inputs": [
        {
          "indexed": false,
          "internalType": "address",
          "name": "from",
          "type": "address"
        },
        {
          "indexed": false,
          "internalType": "uint256",
          "name": "productId",
          "type": "uint256"
        },
        {
          "indexed": false,
          "internalType": "bool",
          "name": "isUSD",
          "type": "bool"
        }
      ],
      "name": "ProductCurrencyChanged",
      "type": "event"
    },
    {
      "anonymous": false,
      "inputs": [
        {
          "indexed": false,
          "internalType": "address",
          "name": "from",
          "type": "address"
        },
        {
          "indexed": false,
          "internalType": "uint256",
          "name": "productId",
          "type": "uint256"
        },
        {
          "indexed": false,
          "internalType": "uint256",
          "name": "quantity",
          "type": "uint256"
        },
        {
          "indexed": false,
          "internalType": "uint256",
          "name": "productPrice",
          "type": "uint256"
        }
      ],
      "name": "ProductPaid",
      "type": "event"
    },
    {
      "anonymous": false,
      "inputs": [
        {
          "indexed": false,
          "internalType": "address",
          "name": "from",
          "type": "address"
        },
        {
          "indexed": false,
          "internalType": "uint256",
          "name": "productId",
          "type": "uint256"
        },
        {
          "indexed": false,
          "internalType": "uint256",
          "name": "productPrice",
          "type": "uint256"
        }
      ],
      "name": "ProductPriceChanged",
      "type": "event"
    },
    {
      "anonymous": false,
      "inputs": [
        {
          "indexed": false,
          "internalType": "address",
          "name": "from",
          "type": "address"
        },
        {
          "indexed": false,
          "internalType": "uint256",
          "name": "productId",
          "type": "uint256"
        }
      ],
      "name": "ProductRemoved",
      "type": "event"
    },
    {
      "anonymous": false,
      "inputs": [
        {
          "indexed": false,
          "internalType": "uint32[]",
          "name": "upgradeFunctions",
          "type": "uint32[]"
        },
        {
          "indexed": false,
          "internalType": "uint256",
          "name": "amount",
          "type": "uint256"
        }
      ],
      "name": "SLCPaid",
      "type": "event"
    },
    {
      "anonymous": false,
      "inputs": [
        {
          "indexed": false,
          "internalType": "address",
          "name": "payee",
          "type": "address"
        },
        {
          "indexed": false,
          "internalType": "uint256",
          "name": "tokenId",
          "type": "uint256"
        },
        {
          "indexed": false,
          "internalType": "uint256",
          "name": "released",
          "type": "uint256"
        }
      ],
      "name": "TriggeredRelease",
      "type": "event"
    },
    {
      "anonymous": false,
      "inputs": [
        {
          "indexed": false,
          "internalType": "address",
          "name": "account",
          "type": "address"
        }
      ],
      "name": "Unpaused",
      "type": "event"
    },
    {
      "inputs": [
        {
          "internalType": "uint256",
          "name": "id",
          "type": "uint256"
        }
      ],
      "name": "_addChildrenSlicer",
      "outputs": [],
      "stateMutability": "nonpayable",
      "type": "function"
    },
    {
      "inputs": [
        {
          "internalType": "address[]",
          "name": "accounts",
          "type": "address[]"
        },
        {
          "internalType": "uint256[]",
          "name": "shares_",
          "type": "uint256[]"
        }
      ],
      "name": "_addPayees",
      "outputs": [],
      "stateMutability": "nonpayable",
      "type": "function"
    },
    {
      "inputs": [
        {
          "internalType": "address",
          "name": "operator",
          "type": "address"
        }
      ],
      "name": "_getApproved",
      "outputs": [],
      "stateMutability": "nonpayable",
      "type": "function"
    },
    {
      "inputs": [
        {
          "internalType": "address",
          "name": "accountFrom",
          "type": "address"
        },
        {
          "internalType": "address",
          "name": "accountTo",
          "type": "address"
        },
        {
          "internalType": "uint256",
          "name": "transferredShares",
          "type": "uint256"
        }
      ],
      "name": "_updatePayees",
      "outputs": [],
      "stateMutability": "nonpayable",
      "type": "function"
    },
    {
      "inputs": [
        {
          "internalType": "address payable",
          "name": "newAddress",
          "type": "address"
        }
      ],
      "name": "_upgrade",
      "outputs": [],
      "stateMutability": "nonpayable",
      "type": "function"
    },
    {
      "inputs": [
        {
          "internalType": "uint256",
          "name": "categoryIndex",
          "type": "uint256"
        },
        {
          "internalType": "uint256",
          "name": "price",
          "type": "uint256"
        },
        {
          "internalType": "bool",
          "name": "isUSD",
          "type": "bool"
        },
        {
          "internalType": "bool",
          "name": "isMultiple",
          "type": "bool"
        },
        {
          "internalType": "uint256",
          "name": "units",
          "type": "uint256"
        },
        {
          "internalType": "bytes",
          "name": "data",
          "type": "bytes"
        },
        {
          "internalType": "bytes",
          "name": "purchaseData",
          "type": "bytes"
        }
      ],
      "name": "addProduct",
      "outputs": [],
      "stateMutability": "nonpayable",
      "type": "function"
    },
    {
      "inputs": [],
      "name": "childrenSlicers",
      "outputs": [
        {
          "internalType": "bytes32[]",
          "name": "",
          "type": "bytes32[]"
        }
      ],
      "stateMutability": "view",
      "type": "function"
    },
    {
      "inputs": [
        {
          "internalType": "address",
          "name": "payee",
          "type": "address"
        }
      ],
      "name": "isInPayees",
      "outputs": [
        {
          "internalType": "bool",
          "name": "",
          "type": "bool"
        }
      ],
      "stateMutability": "view",
      "type": "function"
    },
    {
      "inputs": [
        {
          "internalType": "address",
          "name": "payee",
          "type": "address"
        }
      ],
      "name": "isPayeeAllowed",
      "outputs": [
        {
          "internalType": "bool",
          "name": "",
          "type": "bool"
        }
      ],
      "stateMutability": "view",
      "type": "function"
    },
    {
      "inputs": [],
      "name": "minimumShares",
      "outputs": [
        {
          "internalType": "uint256",
          "name": "",
          "type": "uint256"
        }
      ],
      "stateMutability": "view",
      "type": "function"
    },
    {
      "inputs": [
        {
          "internalType": "address",
          "name": "",
          "type": "address"
        },
        {
          "internalType": "address",
          "name": "",
          "type": "address"
        },
        {
          "internalType": "uint256[]",
          "name": "ids",
          "type": "uint256[]"
        },
        {
          "internalType": "uint256[]",
          "name": "",
          "type": "uint256[]"
        },
        {
          "internalType": "bytes",
          "name": "",
          "type": "bytes"
        }
      ],
      "name": "onERC1155BatchReceived",
      "outputs": [
        {
          "internalType": "bytes4",
          "name": "",
          "type": "bytes4"
        }
      ],
      "stateMutability": "nonpayable",
      "type": "function"
    },
    {
      "inputs": [
        {
          "internalType": "address",
          "name": "",
          "type": "address"
        },
        {
          "internalType": "address",
          "name": "",
          "type": "address"
        },
        {
          "internalType": "uint256",
          "name": "id",
          "type": "uint256"
        },
        {
          "internalType": "uint256",
          "name": "",
          "type": "uint256"
        },
        {
          "internalType": "bytes",
          "name": "",
          "type": "bytes"
        }
      ],
      "name": "onERC1155Received",
      "outputs": [
        {
          "internalType": "bytes4",
          "name": "",
          "type": "bytes4"
        }
      ],
      "stateMutability": "nonpayable",
      "type": "function"
    },
    {
      "inputs": [],
      "name": "paused",
      "outputs": [
        {
          "internalType": "bool",
          "name": "",
          "type": "bool"
        }
      ],
      "stateMutability": "view",
      "type": "function"
    },
    {
      "inputs": [
        {
          "internalType": "address",
          "name": "account",
          "type": "address"
        },
        {
          "internalType": "uint256",
          "name": "productId",
          "type": "uint256"
        },
        {
          "internalType": "uint256",
          "name": "quantity",
          "type": "uint256"
        }
      ],
      "name": "payProduct",
      "outputs": [],
      "stateMutability": "payable",
      "type": "function"
    },
    {
      "inputs": [
        {
          "internalType": "uint32[]",
          "name": "upgradeFunctions",
          "type": "uint32[]"
        }
      ],
      "name": "paySLC",
      "outputs": [],
      "stateMutability": "nonpayable",
      "type": "function"
    },
    {
      "inputs": [],
      "name": "payees",
      "outputs": [
        {
          "internalType": "bytes32[]",
          "name": "",
          "type": "bytes32[]"
        }
      ],
      "stateMutability": "view",
      "type": "function"
    },
    {
      "inputs": [
        {
          "internalType": "uint256",
          "name": "productId",
          "type": "uint256"
        }
      ],
      "name": "productInfo",
      "outputs": [
        {
          "internalType": "uint256",
          "name": "",
          "type": "uint256"
        },
        {
          "internalType": "uint256",
          "name": "",
          "type": "uint256"
        },
        {
          "internalType": "bool",
          "name": "",
          "type": "bool"
        },
        {
          "internalType": "bool",
          "name": "",
          "type": "bool"
        },
        {
          "internalType": "uint256",
          "name": "",
          "type": "uint256"
        },
        {
          "internalType": "uint256",
          "name": "",
          "type": "uint256"
        },
        {
          "internalType": "address",
          "name": "",
          "type": "address"
        },
        {
          "internalType": "bytes",
          "name": "",
          "type": "bytes"
        }
      ],
      "stateMutability": "view",
      "type": "function"
    },
    {
      "inputs": [],
      "name": "products",
      "outputs": [
        {
          "internalType": "bytes32[]",
          "name": "",
          "type": "bytes32[]"
        }
      ],
      "stateMutability": "view",
      "type": "function"
    },
    {
      "inputs": [
        {
          "internalType": "address payable",
          "name": "account",
          "type": "address"
        }
      ],
      "name": "release",
      "outputs": [
        {
          "internalType": "uint256",
          "name": "",
          "type": "uint256"
        }
      ],
      "stateMutability": "nonpayable",
      "type": "function"
    },
    {
      "inputs": [
        {
          "internalType": "address",
          "name": "account",
          "type": "address"
        }
      ],
      "name": "released",
      "outputs": [
        {
          "internalType": "uint256",
          "name": "",
          "type": "uint256"
        }
      ],
      "stateMutability": "view",
      "type": "function"
    },
    {
      "inputs": [
        {
          "internalType": "uint256",
          "name": "productId",
          "type": "uint256"
        }
      ],
      "name": "removeProduct",
      "outputs": [],
      "stateMutability": "nonpayable",
      "type": "function"
    },
    {
      "inputs": [
        {
          "internalType": "uint256",
          "name": "productId",
          "type": "uint256"
        },
        {
          "internalType": "uint256",
          "name": "newUnits",
          "type": "uint256"
        },
        {
          "internalType": "uint256",
          "name": "newPrice",
          "type": "uint256"
        }
      ],
      "name": "setProductInfo",
      "outputs": [],
      "stateMutability": "nonpayable",
      "type": "function"
    },
    {
      "inputs": [],
      "name": "slicerCreator",
      "outputs": [
        {
          "internalType": "address",
          "name": "",
          "type": "address"
        }
      ],
      "stateMutability": "view",
      "type": "function"
    },
    {
      "inputs": [],
      "name": "slicerVersion",
      "outputs": [
        {
          "internalType": "uint8",
          "name": "",
          "type": "uint8"
        }
      ],
      "stateMutability": "pure",
      "type": "function"
    },
    {
      "inputs": [
        {
          "internalType": "bytes4",
          "name": "interfaceId",
          "type": "bytes4"
        }
      ],
      "name": "supportsInterface",
      "outputs": [
        {
          "internalType": "bool",
          "name": "",
          "type": "bool"
        }
      ],
      "stateMutability": "view",
      "type": "function"
    },
    {
      "inputs": [
        {
          "internalType": "uint256",
          "name": "productId",
          "type": "uint256"
        },
        {
          "internalType": "bool",
          "name": "isUSD",
          "type": "bool"
        }
      ],
      "name": "toggleUSDPrice",
      "outputs": [],
      "stateMutability": "nonpayable",
      "type": "function"
    },
    {
      "inputs": [],
      "name": "tokenId",
      "outputs": [
        {
          "internalType": "uint256",
          "name": "",
          "type": "uint256"
        }
      ],
      "stateMutability": "view",
      "type": "function"
    },
    {
      "inputs": [],
      "name": "totalReceived",
      "outputs": [
        {
          "internalType": "uint256",
          "name": "",
          "type": "uint256"
        }
      ],
      "stateMutability": "view",
      "type": "function"
    },
    {
      "inputs": [
        {
          "internalType": "address",
          "name": "account",
          "type": "address"
        }
      ],
      "name": "unreleased",
      "outputs": [
        {
          "internalType": "uint256",
          "name": "",
          "type": "uint256"
        }
      ],
      "stateMutability": "view",
      "type": "function"
    },
    {
      "inputs": [
        {
          "internalType": "uint256",
          "name": "productId",
          "type": "uint256"
        }
      ],
      "name": "validatePurchase",
      "outputs": [
        {
          "internalType": "uint256[]",
          "name": "",
          "type": "uint256[]"
        },
        {
          "internalType": "bytes",
          "name": "",
          "type": "bytes"
        }
      ],
      "stateMutability": "view",
      "type": "function"
    },
    {
      "stateMutability": "payable",
      "type": "receive"
    }
  ],
  "bytecode": "0x61014060405260405162003b8e38038062003b8e83398101604081905262000027916200008e565b6003805460ff19169055600160045560e0959095526001600160601b0319606094851b811660805292841b831660a05290831b821660c05290911b166101005261012052620000fd565b80516001600160a01b03811681146200008957600080fd5b919050565b60008060008060008060c08789031215620000a857600080fd5b86519550620000ba6020880162000071565b9450620000ca6040880162000071565b9350620000da6060880162000071565b9250620000ea6080880162000071565b915060a087015190509295509295509295565b60805160601c60a05160601c60c05160601c60e0516101005160601c610120516139be620001d0600039600081816104e40152818161133401526114c4015260006102e101526000818161033c01528181610b2701526128a9015260008181610223015261123f0152600061113c01526000818161088e0152818161091b01528181610cb901528181610f4f01528181610ff0015281816113760152818161178d01528181611ac301528181611e1f015281816124070152818161269d015281816128e601526129ca01526139be6000f3fe6080604052600436106101d15760003560e01c806360b6e6c3116100f7578063bbf2b48811610095578063e66c182511610064578063e66c182514610666578063f23a6e6114610686578063f3750430146106a6578063fd5e12e3146106b957600080fd5b8063bbf2b488146105d8578063bc197c81146105f8578063c71e261f14610631578063e311d6111461064657600080fd5b80639eeae853116100d15780639eeae85314610541578063a3c2c46214610561578063b5d11d3914610576578063bb119f6e146105a457600080fd5b806360b6e6c3146104c05780638d78fd0b146104d55780639852595c1461050857600080fd5b80632a67293d1161016f57806351a5d8b01161013e57806351a5d8b01461044857806359bac56c146104685780635c975abb146104885780635ee95cae146104a057600080fd5b80632a67293d146103c65780633199ea04146103e657806344eecfd0146104065780634e8086aa1461042657600080fd5b806317d70f7c116101ab57806317d70f7c1461032d578063191655871461036a57806322001c2b1461038a57806328591b13146103a657600080fd5b806301ffc9a714610292578063035eb528146102c75780630c3484fd1461030b57600080fd5b3661028d5760035460ff16156102025760405162461bcd60e51b81526004016101f9906136ca565b60405180910390fd5b60006103e8610212601934613881565b61021c919061385f565b90506102487f0000000000000000000000000000000000000000000000000000000000000000826106d9565b7f6ef95f06320e7a25a04a175ca677b7052bdd97131872c2192525a629f51be77033604080516001600160a01b0390921682523460208301520160405180910390a150005b600080fd5b34801561029e57600080fd5b506102b26102ad3660046133db565b6107f7565b60405190151581526020015b60405180910390f35b3480156102d357600080fd5b506040516001600160a01b037f00000000000000000000000000000000000000000000000000000000000000001681526020016102be565b34801561031757600080fd5b5061032b610326366004613084565b61082e565b005b34801561033957600080fd5b507f00000000000000000000000000000000000000000000000000000000000000005b6040519081526020016102be565b34801561037657600080fd5b5061035c610385366004613084565b61097a565b34801561039657600080fd5b50604051600181526020016102be565b3480156103b257600080fd5b5061032b6103c1366004613437565b610b89565b3480156103d257600080fd5b5061035c6103e1366004613084565b610eb5565b3480156103f257600080fd5b5061032b610401366004613084565b610f44565b34801561041257600080fd5b5061032b61042136600461341e565b610fcb565b34801561043257600080fd5b5061043b6110be565b6040516102be91906135bd565b34801561045457600080fd5b5061032b610463366004613314565b611115565b34801561047457600080fd5b506102b2610483366004613084565b611309565b34801561049457600080fd5b5060035460ff166102b2565b3480156104ac57600080fd5b5061032b6104bb36600461341e565b611597565b3480156104cc57600080fd5b5061043b6116f7565b3480156104e157600080fd5b507f000000000000000000000000000000000000000000000000000000000000000061035c565b34801561051457600080fd5b5061035c610523366004613084565b6001600160a01b031660009081526008602052604090206001015490565b34801561054d57600080fd5b5061032b61055c366004613467565b61174c565b34801561056d57600080fd5b5061035c611a82565b34801561058257600080fd5b5061059661059136600461341e565b611a97565b6040516102be929190613601565b3480156105b057600080fd5b506105c46105bf36600461341e565b611cbe565b6040516102be989796959493929190613799565b3480156105e457600080fd5b5061032b6105f336600461316c565b611dfa565b34801561060457600080fd5b506106186106133660046130be565b61200b565b6040516001600160e01b031990911681526020016102be565b34801561063d57600080fd5b5061043b6120d8565b34801561065257600080fd5b5061032b61066136600461350d565b61212d565b34801561067257600080fd5b506102b2610681366004613084565b61232a565b34801561069257600080fd5b506106186106a13660046131ad565b612337565b61032b6106b4366004613216565b6123c3565b3480156106c557600080fd5b5061032b6106d436600461324b565b6129a5565b804710156107295760405162461bcd60e51b815260206004820152601d60248201527f416464726573733a20696e73756666696369656e742062616c616e636500000060448201526064016101f9565b6000826001600160a01b03168260405160006040518083038185875af1925050503d8060008114610776576040519150601f19603f3d011682016040523d82523d6000602084013e61077b565b606091505b50509050806107f25760405162461bcd60e51b815260206004820152603a60248201527f416464726573733a20756e61626c6520746f2073656e642076616c75652c207260448201527f6563697069656e74206d6179206861766520726576657274656400000000000060648201526084016101f9565b505050565b60006001600160e01b03198216630271189760e51b148061082857506301ffc9a760e01b6001600160e01b03198316145b92915050565b61083781611309565b6108835760405162461bcd60e51b815260206004820152601b60248201527f536c696365723a20596f7520617265206e6f7420616c6c6f776564000000000060448201526064016101f9565b336001600160a01b037f000000000000000000000000000000000000000000000000000000000000000016146108f55760405162461bcd60e51b8152602060048201526017602482015276536c696365723a204f6e6c79206f6e207570677261646560481b60448201526064016101f9565b60405163a22cb46560e01b81526001600160a01b038281166004830152600160248301527f0000000000000000000000000000000000000000000000000000000000000000169063a22cb46590604401600060405180830381600087803b15801561095f57600080fd5b505af1158015610973573d6000803e3d6000fd5b5050505050565b6000600260045414156109cf5760405162461bcd60e51b815260206004820152601f60248201527f5265656e7472616e637947756172643a207265656e7472616e742063616c6c0060448201526064016101f9565b60026004556001600160a01b038216600090815260076020526040902054610a395760405162461bcd60e51b815260206004820152601d60248201527f536c696365723a206163636f756e7420686173206e6f2073686172657300000060448201526064016101f9565b6000610a4483610eb5565b905080610a935760405162461bcd60e51b815260206004820152601a60248201527f536c696365723a205061796d656e74206973206e6f742064756500000000000060448201526064016101f9565b6001600160a01b03831660009081526008602052604081208054839290610abb908490613847565b90915550506001600160a01b038316600090815260086020526040902081906001016000828254610aec9190613847565b925050819055508060066000828254610b059190613847565b90915550610b15905083826106d9565b604080516001600160a01b03851681527f000000000000000000000000000000000000000000000000000000000000000060208201529081018290527f1f9bce86e150bb414d02275a3f50f6fe0e6e7a98882a4f3daaeb7699b26676949060600160405180910390a1600160045592915050565b6000828152600260205260409020600101548290610bb95760405162461bcd60e51b81526004016101f990613762565b6000838152600260205260409020600501548390610bdf906001600160a01b0316611309565b15610c22576000818152600260205260409020600501546001600160a01b03163314610c1d5760405162461bcd60e51b81526004016101f9906136f4565b610c4c565b610c2b33611309565b1515600114610c4c5760405162461bcd60e51b81526004016101f99061372b565b6000848152600260208190526040909120015460ff1615158315151415610cb55760405162461bcd60e51b815260206004820152601760248201527f536c696365723a2053616d6520707269636520756e697400000000000000000060448201526064016101f9565b60007f00000000000000000000000000000000000000000000000000000000000000006001600160a01b0316638da5cb5b6040518163ffffffff1660e01b815260040160206040518083038186803b158015610d1057600080fd5b505afa158015610d24573d6000803e3d6000fd5b505050506040513d601f19601f82011682018060405250810190610d4891906130a1565b90506000816001600160a01b031663bb27e0ce6040518163ffffffff1660e01b815260040160206040518083038186803b158015610d8557600080fd5b505afa158015610d99573d6000803e3d6000fd5b505050506040513d601f19601f82011682018060405250810190610dbd9190613405565b6000878152600260205260409020600101549091508515610e1757600064e8d4a5100083610deb828561385f565b610df59190613881565b610dff919061385f565b60008981526002602052604090206001015550610e4c565b600082610e2e8369d3c21bcecceda1000000613881565b610e38919061385f565b600089815260026020526040902060010155505b600087815260026020818152604092839020909101805489151560ff19909116811790915582513381529182018a90528183015290517f6b1d5c6bd685a9850939463ba701476d70ab067412e13190b34549230b1675379181900360600190a150505050505050565b6005546001600160a01b03821660009081526007602052604081205490918291610edd611a82565b610ee79190613881565b610ef1919061385f565b6001600160a01b0384166000908152600860205260409020549091508111610f1a576000610f3d565b6001600160a01b038316600090815260086020526040902054610f3d90826138a0565b9392505050565b336001600160a01b037f00000000000000000000000000000000000000000000000000000000000000001614610fb65760405162461bcd60e51b8152602060048201526017602482015276536c696365723a204f6e6c79206f6e207570677261646560481b60448201526064016101f9565b610fc081476106d9565b610fc8612c40565b50565b60035460ff1615610fee5760405162461bcd60e51b81526004016101f9906136ca565b7f00000000000000000000000000000000000000000000000000000000000000006001600160a01b0316638da5cb5b6040518163ffffffff1660e01b815260040160206040518083038186803b15801561104757600080fd5b505afa15801561105b573d6000803e3d6000fd5b505050506040513d601f19601f8201168201806040525081019061107f91906130a1565b6001600160a01b0316336001600160a01b0316146110af5760405162461bcd60e51b81526004016101f99061369c565b6110ba600b82612cb5565b5050565b60098054604080516020808402820181019092528281526060939092909183018282801561110b57602002820191906000526020600020905b8154815260200190600101908083116110f7575b5050505050905090565b61111e33611309565b61113a5760405162461bcd60e51b81526004016101f99061372b565b7f00000000000000000000000000000000000000000000000000000000000000006000805b835181101561122757826001600160a01b0316632517c28085838151811061118957611189613939565b60200260200101516040518263ffffffff1660e01b81526004016111b9919063ffffffff91909116815260200190565b60206040518083038186803b1580156111d157600080fd5b505afa1580156111e5573d6000803e3d6000fd5b505050506040513d601f19601f820116820180604052508101906112099190613405565b6112139083613847565b91508061121f816138f2565b91505061115f565b5060405163a9059cbb60e01b81526001600160a01b037f0000000000000000000000000000000000000000000000000000000000000000811660048301526024820183905283169063a9059cbb90604401602060405180830381600087803b15801561129257600080fd5b505af11580156112a6573d6000803e3d6000fd5b505050506040513d601f19601f820116820180604052508101906112ca91906133be565b507f2f60d430a7fb33e0403788734dc2a2077634bc73a778b4c47b37e56a1083795e83826040516112fc92919061364e565b60405180910390a1505050565b60006113148261232a565b15611360576001600160a01b0382166000908152600760205260409020547f00000000000000000000000000000000000000000000000000000000000000001161136057506001919050565b600061136c600b612cc1565b111561158f5760007f00000000000000000000000000000000000000000000000000000000000000006001600160a01b0316638da5cb5b6040518163ffffffff1660e01b815260040160206040518083038186803b1580156113cd57600080fd5b505afa1580156113e1573d6000803e3d6000fd5b505050506040513d601f19601f8201168201806040525081019061140591906130a1565b90508060005b611415600b612cc1565b81101561158b5760006001600160a01b03831663175fa7ea611438600b85612ccb565b6040518263ffffffff1660e01b815260040161145691815260200190565b60206040518083038186803b15801561146e57600080fd5b505afa158015611482573d6000803e3d6000fd5b505050506040513d601f19601f820116820180604052508101906114a691906130a1565b6001600160a01b0381166000908152600760205260409020549091507f0000000000000000000000000000000000000000000000000000000000000000116115785760405163166eb15b60e21b81526001600160a01b0387811660048301528291908216906359bac56c9060240160206040518083038186803b15801561152c57600080fd5b505afa158015611540573d6000803e3d6000fd5b505050506040513d601f19601f8201168201806040525081019061156491906133be565b15611576575060019695505050505050565b505b5080611583816138f2565b91505061140b565b5050505b506000919050565b60008181526002602052604090206001015481906115c75760405162461bcd60e51b81526004016101f990613762565b60008281526002602052604090206005015482906115ed906001600160a01b0316611309565b15611630576000818152600260205260409020600501546001600160a01b0316331461162b5760405162461bcd60e51b81526004016101f9906136f4565b61165a565b61163933611309565b151560011461165a5760405162461bcd60e51b81526004016101f99061372b565b611665600084612cd7565b50600083815260026020908152604080832083815560018101849055600381018490556005810180546001600160a01b03191690558151928301918290529183905290916116b7916006840191612f09565b5060408051338152602081018690527f8d73b39fd1c1240bd6b0e38e6190cfa73f69346002fdbfa18c2156e6f91474d3910160405180910390a150505050565b600b8054604080516020808402820181019092528281526060939092909183018282801561110b57602002820191906000526020600020908154815260200190600101908083116110f7575050505050905090565b61175533611309565b6117715760405162461bcd60e51b81526004016101f99061372b565b861561193d57604051635563a16160e01b8152600481018890527f0000000000000000000000000000000000000000000000000000000000000000906000906001600160a01b03831690635563a1619060240160206040518083038186803b1580156117dc57600080fd5b505afa1580156117f0573d6000803e3d6000fd5b505050506040513d601f19601f8201168201806040525081019061181491906130a1565b6001600160a01b0316141561186b5760405162461bcd60e51b815260206004820181905260248201527f536c696365436f72653a204e6f6e2d6578697374656e742063617465676f727960448201526064016101f9565b806001600160a01b0316638da5cb5b6040518163ffffffff1660e01b815260040160206040518083038186803b1580156118a457600080fd5b505afa1580156118b8573d6000803e3d6000fd5b505050506040513d601f19601f820116820180604052508101906118dc91906130a1565b6001600160a01b031663ecb26264896040518263ffffffff1660e01b815260040161190991815260200190565b600060405180830381600087803b15801561192357600080fd5b505af1158015611937573d6000803e3d6000fd5b50505050505b6000861161198d5760405162461bcd60e51b815260206004820152601b60248201527f536c696365723a2041646420612070726f64756374207072696365000000000060448201526064016101f9565b61199b600d80546001019055565b60006119a6600d5490565b60008181526002602052604081209192506119c19083612cb5565b508881556001810188905560028101805461ffff191688151561ff00191617610100881515021790556003810185905560006004820155600581018054336001600160a01b03199091161790558351611a239060068301906020870190612f09565b508251611a399060078301906020860190612f09565b507fab839608f4f4047a42143dd467f4b119ebe97496c7477a71bad583328212451733838a87604051611a6f9493929190613586565b60405180910390a1505050505050505050565b600060065447611a929190613847565b905090565b60008181526002602090815260408083203384526008019091529020546060908190151580611b6757507f00000000000000000000000000000000000000000000000000000000000000006001600160a01b0316638da5cb5b6040518163ffffffff1660e01b815260040160206040518083038186803b158015611b1a57600080fd5b505afa158015611b2e573d6000803e3d6000fd5b505050506040513d601f19601f82011682018060405250810190611b5291906130a1565b6001600160a01b0316336001600160a01b0316145b611bb35760405162461bcd60e51b815260206004820152601960248201527f536c696365723a204e6f7420707572636861736564207965740000000000000060448201526064016101f9565b60008381526002602081815260408084203385526008810183528185209488905292825283548151818402810184019092528082526007909301929091849190830182828015611c2257602002820191906000526020600020905b815481526020019060010190808311611c0e575b50505050509150808054611c35906138b7565b80601f0160208091040260200160405190810160405280929190818152602001828054611c61906138b7565b8015611cae5780601f10611c8357610100808354040283529160200191611cae565b820191906000526020600020905b815481529060010190602001808311611c9157829003601f168201915b5050505050905091509150915091565b6000806000806000806000606088600260008281526020019081526020016000206001015460001415611d035760405162461bcd60e51b81526004016101f990613762565b60008a815260026020819052604090912080546001820154928201546003830154600484015460058501546006860180549697959660ff808716966101009004169493926001600160a01b031691908190611d5d906138b7565b80601f0160208091040260200160405190810160405280929190818152602001828054611d89906138b7565b8015611dd65780601f10611dab57610100808354040283529160200191611dd6565b820191906000526020600020905b815481529060010190602001808311611db957829003601f168201915b50505050509050995099509950995099509950995099505050919395975091939597565b60035460ff1615611e1d5760405162461bcd60e51b81526004016101f9906136ca565b7f00000000000000000000000000000000000000000000000000000000000000006001600160a01b0316638da5cb5b6040518163ffffffff1660e01b815260040160206040518083038186803b158015611e7657600080fd5b505afa158015611e8a573d6000803e3d6000fd5b505050506040513d601f19601f82011682018060405250810190611eae91906130a1565b6001600160a01b0316336001600160a01b031614611ede5760405162461bcd60e51b81526004016101f99061369c565b6001600160a01b0383166000908152600760209081526040808320546008909252822054611f0d908490613881565b611f17919061385f565b6001600160a01b03841660009081526008602052604081209192508291016000828254611f449190613847565b90915550506001600160a01b03841660009081526008602052604081208054839290611f719084906138a0565b90915550506001600160a01b03841660009081526007602052604081208054849290611f9e9084906138a0565b90915550506001600160a01b03831660009081526007602052604081208054849290611fcb908490613847565b90915550611fdc9050600984612ce3565b506001600160a01b03841660009081526007602052604090205461200557610973600985612cf8565b50505050565b600061201960035460ff1690565b156120365760405162461bcd60e51b81526004016101f9906136ca565b60005b84518110156120c55761206f85828151811061205757612057613939565b6020026020010151600b612d0d90919063ffffffff16565b156120b35760405162461bcd60e51b81526020600482015260146024820152730536c696365723a205061796d656e74206c6f6f760641b60448201526064016101f9565b806120bd816138f2565b915050612039565b5063bc197c8160e01b9695505050505050565b60008054604080516020808402820181019092528281526060939092909183018282801561110b57602002820191906000526020600020908154815260200190600101908083116110f7575050505050905090565b600083815260026020526040902060010154839061215d5760405162461bcd60e51b81526004016101f990613762565b6000848152600260205260409020600501548490612183906001600160a01b0316611309565b156121c6576000818152600260205260409020600501546001600160a01b031633146121c15760405162461bcd60e51b81526004016101f9906136f4565b6121f0565b6121cf33611309565b15156001146121f05760405162461bcd60e51b81526004016101f99061372b565b60008311801561221157506000858152600260205260409020600101548311155b61225d5760405162461bcd60e51b815260206004820152601d60248201527f536c696365723a20496e76616c69642070726f6475637420707269636500000060448201526064016101f9565b60008581526002602052604090206004015484118061227a575083155b6122c65760405162461bcd60e51b815260206004820152601b60248201527f536c696365723a20496e76616c696420756e6974732076616c7565000000000060448201526064016101f9565b6000858152600260209081526040918290206003810187905560010185905581513381529081018790529081018490527fe010e0ffb0edd9cec84ae11e21aae4c7d27ca6c7c4c353115e2024dddbfc81319060600160405180910390a15050505050565b6000610828600983612d25565b600061234560035460ff1690565b156123625760405162461bcd60e51b81526004016101f9906136ca565b61236d600b85612d0d565b156123b15760405162461bcd60e51b81526020600482015260146024820152730536c696365723a205061796d656e74206c6f6f760641b60448201526064016101f9565b5063f23a6e6160e01b95945050505050565b60008281526002602052604090206001015482906123f35760405162461bcd60e51b81526004016101f990613762565b336001600160a01b03851614806124ab57507f00000000000000000000000000000000000000000000000000000000000000006001600160a01b0316638da5cb5b6040518163ffffffff1660e01b815260040160206040518083038186803b15801561245e57600080fd5b505afa158015612472573d6000803e3d6000fd5b505050506040513d601f19601f8201168201806040525081019061249691906130a1565b6001600160a01b0316336001600160a01b0316145b6124c75760405162461bcd60e51b81526004016101f99061369c565b816125145760405162461bcd60e51b815260206004820152601a60248201527f536c696365723a20537065636966792061207175616e7469747900000000000060448201526064016101f9565b60008381526002602081905260409091200154610100900460ff166125f65760008381526002602090815260408083206001600160a01b0388168452600801909152902054156125a65760405162461bcd60e51b815260206004820152601960248201527f536c696365723a20416c7265616479207075726368617365640000000000000060448201526064016101f9565b816001146125f65760405162461bcd60e51b815260206004820152601a60248201527f536c696365723a204d6178696d756d203120707572636861736500000000000060448201526064016101f9565b6000838152600260205260409020600301541561267f5760008381526002602052604090206003810154600490910154612631908490613847565b111561267f5760405162461bcd60e51b815260206004820181905260248201527f536c696365723a20417661696c61626c6520756e69747320657863656564656460448201526064016101f9565b60008381526002602081905260408220015460ff16156127e25760007f00000000000000000000000000000000000000000000000000000000000000006001600160a01b0316638da5cb5b6040518163ffffffff1660e01b815260040160206040518083038186803b1580156126f457600080fd5b505afa158015612708573d6000803e3d6000fd5b505050506040513d601f19601f8201168201806040525081019061272c91906130a1565b90506000816001600160a01b031663bb27e0ce6040518163ffffffff1660e01b815260040160206040518083038186803b15801561276957600080fd5b505afa15801561277d573d6000803e3d6000fd5b505050506040513d601f19601f820116820180604052508101906127a19190613405565b6000878152600260205260408120600101549192509082906127cd9069d3c21bcecceda1000000613881565b6127d7919061385f565b93506127f692505050565b506000838152600260205260409020600101545b60006128028483613881565b905060005b848110156128735760008681526002602081815260408084206001600160a01b038c168552600881018352908420938a90529190526004015461284b908390613847565b815460018101835560009283526020909220909101558061286b816138f2565b915050612807565b5060008581526002602052604081206004018054869290612895908490613847565b9091555050604051637d5c36c960e11b81527f00000000000000000000000000000000000000000000000000000000000000006004820152602481018690526001600160a01b0387811660448301527f0000000000000000000000000000000000000000000000000000000000000000169063fab86d9290606401600060405180830381600087803b15801561292a57600080fd5b505af115801561293e573d6000803e3d6000fd5b5050505061294c30826106d9565b604080516001600160a01b038816815260208101879052908101859052606081018290527f60d6f49c386a464a1e459748383fc40506261360e7deafa59693623b19a716b59060800160405180910390a1505050505050565b60035460ff16156129c85760405162461bcd60e51b81526004016101f9906136ca565b7f00000000000000000000000000000000000000000000000000000000000000006001600160a01b0316638da5cb5b6040518163ffffffff1660e01b815260040160206040518083038186803b158015612a2157600080fd5b505afa158015612a35573d6000803e3d6000fd5b505050506040513d601f19601f82011682018060405250810190612a5991906130a1565b6001600160a01b0316336001600160a01b031614612a895760405162461bcd60e51b81526004016101f99061369c565b60005b82518110156107f25760006001600160a01b0316838281518110612ab257612ab2613939565b60200260200101516001600160a01b03161415612b115760405162461bcd60e51b815260206004820152601960248201527f536c696365723a204163636f756e74206e6f742076616c69640000000000000060448201526064016101f9565b6000828281518110612b2557612b25613939565b602002602001015111612b7a5760405162461bcd60e51b815260206004820152601d60248201527f536c696365723a20537065636966792073686172657320616d6f756e7400000060448201526064016101f9565b612ba7838281518110612b8f57612b8f613939565b60200260200101516009612ce390919063ffffffff16565b50818181518110612bba57612bba613939565b602002602001015160076000858481518110612bd857612bd8613939565b60200260200101516001600160a01b03166001600160a01b0316815260200190815260200160002081905550818181518110612c1657612c16613939565b6020026020010151600554612c2b9190613847565b60055580612c38816138f2565b915050612a8c565b60035460ff1615612c635760405162461bcd60e51b81526004016101f9906136ca565b6003805460ff191660011790557f62e78cea01bee320cd4e420270b5ea74000d11b0c9f74754ebdbfc544b05a258612c983390565b6040516001600160a01b03909116815260200160405180910390a1565b6000610f3d8383612d47565b6000610828825490565b6000610f3d8383612d96565b6000610f3d8383612e1c565b6000610f3d836001600160a01b038416612d47565b6000610f3d836001600160a01b038416612e1c565b60008181526001830160205260408120541515610f3d565b6001600160a01b03811660009081526001830160205260408120541515610f3d565b6000818152600183016020526040812054612d8e57508154600181810184556000848152602080822090930184905584548482528286019093526040902091909155610828565b506000610828565b81546000908210612df45760405162461bcd60e51b815260206004820152602260248201527f456e756d657261626c655365743a20696e646578206f7574206f6620626f756e604482015261647360f01b60648201526084016101f9565b826000018281548110612e0957612e09613939565b9060005260206000200154905092915050565b60008181526001830160205260408120548015612eff576000612e406001836138a0565b8554909150600090612e54906001906138a0565b90506000866000018281548110612e6d57612e6d613939565b9060005260206000200154905080876000018481548110612e9057612e90613939565b600091825260208083209091019290925582815260018901909152604090208490558654879080612ec357612ec3613923565b60019003818190600052602060002001600090559055866001016000878152602001908152602001600020600090556001945050505050610828565b6000915050610828565b828054612f15906138b7565b90600052602060002090601f016020900481019282612f375760008555612f7d565b82601f10612f5057805160ff1916838001178555612f7d565b82800160010185558215612f7d579182015b82811115612f7d578251825591602001919060010190612f62565b50612f89929150612f8d565b5090565b5b80821115612f895760008155600101612f8e565b600082601f830112612fb357600080fd5b81356020612fc8612fc383613823565b6137f2565b80838252828201915082860187848660051b8901011115612fe857600080fd5b60005b8581101561300757813584529284019290840190600101612feb565b5090979650505050505050565b600082601f83011261302557600080fd5b813567ffffffffffffffff81111561303f5761303f61394f565b613052601f8201601f19166020016137f2565b81815284602083860101111561306757600080fd5b816020850160208301376000918101602001919091529392505050565b60006020828403121561309657600080fd5b8135610f3d81613965565b6000602082840312156130b357600080fd5b8151610f3d81613965565b600080600080600060a086880312156130d657600080fd5b85356130e181613965565b945060208601356130f181613965565b9350604086013567ffffffffffffffff8082111561310e57600080fd5b61311a89838a01612fa2565b9450606088013591508082111561313057600080fd5b61313c89838a01612fa2565b9350608088013591508082111561315257600080fd5b5061315f88828901613014565b9150509295509295909350565b60008060006060848603121561318157600080fd5b833561318c81613965565b9250602084013561319c81613965565b929592945050506040919091013590565b600080600080600060a086880312156131c557600080fd5b85356131d081613965565b945060208601356131e081613965565b93506040860135925060608601359150608086013567ffffffffffffffff81111561320a57600080fd5b61315f88828901613014565b60008060006060848603121561322b57600080fd5b833561323681613965565b95602085013595506040909401359392505050565b6000806040838503121561325e57600080fd5b823567ffffffffffffffff8082111561327657600080fd5b818501915085601f83011261328a57600080fd5b8135602061329a612fc383613823565b8083825282820191508286018a848660051b89010111156132ba57600080fd5b600096505b848710156132e65780356132d281613965565b8352600196909601959183019183016132bf565b50965050860135925050808211156132fd57600080fd5b5061330a85828601612fa2565b9150509250929050565b6000602080838503121561332757600080fd5b823567ffffffffffffffff81111561333e57600080fd5b8301601f8101851361334f57600080fd5b803561335d612fc382613823565b80828252848201915084840188868560051b870101111561337d57600080fd5b60009450845b848110156133b057813563ffffffff8116811461339e578687fd5b84529286019290860190600101613383565b509098975050505050505050565b6000602082840312156133d057600080fd5b8151610f3d8161397a565b6000602082840312156133ed57600080fd5b81356001600160e01b031981168114610f3d57600080fd5b60006020828403121561341757600080fd5b5051919050565b60006020828403121561343057600080fd5b5035919050565b6000806040838503121561344a57600080fd5b82359150602083013561345c8161397a565b809150509250929050565b600080600080600080600060e0888a03121561348257600080fd5b8735965060208801359550604088013561349b8161397a565b945060608801356134ab8161397a565b93506080880135925060a088013567ffffffffffffffff808211156134cf57600080fd5b6134db8b838c01613014565b935060c08a01359150808211156134f157600080fd5b506134fe8a828b01613014565b91505092959891949750929550565b60008060006060848603121561352257600080fd5b505081359360208301359350604090920135919050565b6000815180845260005b8181101561355f57602081850181015186830182015201613543565b81811115613571576000602083870101525b50601f01601f19169290920160200192915050565b60018060a01b03851681528360208201528260408201526080606082015260006135b36080830184613539565b9695505050505050565b6020808252825182820181905260009190848201906040850190845b818110156135f5578351835292840192918401916001016135d9565b50909695505050505050565b604080825283519082018190526000906020906060840190828701845b8281101561363a5781518452928401929084019060010161361e565b505050838103828501526135b38186613539565b604080825283519082018190526000906020906060840190828701845b8281101561368d57815163ffffffff168452928401929084019060010161366b565b50505092019290925292915050565b60208082526014908201527314db1a58d95c8e88155b985d5d1a1bdc9a5e995960621b604082015260600190565b60208082526010908201526f14185d5cd8589b194e881c185d5cd95960821b604082015260600190565b6020808252601c908201527f536c696365723a204f6e6c792063726561746f7220616c6c6f77656400000000604082015260600190565b60208082526019908201527f536c696365723a204e6f7420656e6f7567682073686172657300000000000000604082015260600190565b6020808252601d908201527f536c696365723a2050726f6475637420646f65736e2774206578697374000000604082015260600190565b60006101008a8352896020840152881515604084015287151560608401528660808401528560a084015260018060a01b03851660c08401528060e08401526137e381840185613539565b9b9a5050505050505050505050565b604051601f8201601f1916810167ffffffffffffffff8111828210171561381b5761381b61394f565b604052919050565b600067ffffffffffffffff82111561383d5761383d61394f565b5060051b60200190565b6000821982111561385a5761385a61390d565b500190565b60008261387c57634e487b7160e01b600052601260045260246000fd5b500490565b600081600019048311821515161561389b5761389b61390d565b500290565b6000828210156138b2576138b261390d565b500390565b600181811c908216806138cb57607f821691505b602082108114156138ec57634e487b7160e01b600052602260045260246000fd5b50919050565b60006000198214156139065761390661390d565b5060010190565b634e487b7160e01b600052601160045260246000fd5b634e487b7160e01b600052603160045260246000fd5b634e487b7160e01b600052603260045260246000fd5b634e487b7160e01b600052604160045260246000fd5b6001600160a01b0381168114610fc857600080fd5b8015158114610fc857600080fdfea264697066735822122024cd6baeb13028075606ae3e024e9c842cfc66ed772a877692ebcd44a21d5a2c64736f6c63430008060033",
  "linkReferences": {},
  "deployedLinkReferences": {}
}