{
  "_format": "hh-sol-artifact-1",
  "contractName": "Slice",
  "sourceName": "contracts/slice.sol",
  "abi": [
    {
      "inputs": [
        {
          "internalType": "address",
          "name": "SLCAddress",
          "type": "address"
        },
        {
          "internalType": "address",
          "name": "sliceCoreAddress",
          "type": "address"
        }
      ],
      "stateMutability": "nonpayable",
      "type": "constructor"
    },
    {
      "anonymous": false,
      "inputs": [
        {
          "indexed": true,
          "internalType": "address",
          "name": "previousOwner",
          "type": "address"
        },
        {
          "indexed": true,
          "internalType": "address",
          "name": "newOwner",
          "type": "address"
        }
      ],
      "name": "OwnershipTransferred",
      "type": "event"
    },
    {
      "anonymous": false,
      "inputs": [
        {
          "indexed": false,
          "internalType": "address",
          "name": "account",
          "type": "address"
        }
      ],
      "name": "Paused",
      "type": "event"
    },
    {
      "anonymous": false,
      "inputs": [
        {
          "indexed": false,
          "internalType": "address payable[]",
          "name": "slicerAddresses",
          "type": "address[]"
        },
        {
          "indexed": false,
          "internalType": "uint256[]",
          "name": "productIds",
          "type": "uint256[]"
        },
        {
          "indexed": false,
          "internalType": "uint256[]",
          "name": "quantities",
          "type": "uint256[]"
        },
        {
          "indexed": false,
          "internalType": "uint256",
          "name": "totalPaid",
          "type": "uint256"
        }
      ],
      "name": "ProductsPaid",
      "type": "event"
    },
    {
      "anonymous": false,
      "inputs": [
        {
          "indexed": false,
          "internalType": "address",
          "name": "slicerAddress",
          "type": "address"
        },
        {
          "indexed": false,
          "internalType": "uint256",
          "name": "tokenId",
          "type": "uint256"
        },
        {
          "indexed": false,
          "internalType": "address[]",
          "name": "payees",
          "type": "address[]"
        },
        {
          "indexed": false,
          "internalType": "uint256[]",
          "name": "shares",
          "type": "uint256[]"
        }
      ],
      "name": "TokenSliced",
      "type": "event"
    },
    {
      "anonymous": false,
      "inputs": [
        {
          "indexed": false,
          "internalType": "address",
          "name": "account",
          "type": "address"
        },
        {
          "indexed": false,
          "internalType": "uint256",
          "name": "totalReleased",
          "type": "uint256"
        },
        {
          "indexed": false,
          "internalType": "uint8",
          "name": "slicerPercentage",
          "type": "uint8"
        }
      ],
      "name": "TriggeredRelease",
      "type": "event"
    },
    {
      "anonymous": false,
      "inputs": [
        {
          "indexed": false,
          "internalType": "address",
          "name": "account",
          "type": "address"
        }
      ],
      "name": "Unpaused",
      "type": "event"
    },
    {
      "inputs": [
        {
          "internalType": "uint256",
          "name": "id",
          "type": "uint256"
        }
      ],
      "name": "_activatePendingSlicer",
      "outputs": [],
      "stateMutability": "nonpayable",
      "type": "function"
    },
    {
      "inputs": [
        {
          "internalType": "uint256",
          "name": "categoryIndex",
          "type": "uint256"
        }
      ],
      "name": "_addToSliceCategory",
      "outputs": [],
      "stateMutability": "nonpayable",
      "type": "function"
    },
    {
      "inputs": [
        {
          "internalType": "address",
          "name": "from",
          "type": "address"
        },
        {
          "internalType": "address",
          "name": "to",
          "type": "address"
        },
        {
          "internalType": "address[]",
          "name": "slicerAddresses",
          "type": "address[]"
        },
        {
          "internalType": "uint256[]",
          "name": "amounts",
          "type": "uint256[]"
        }
      ],
      "name": "_beforeTransfer",
      "outputs": [],
      "stateMutability": "nonpayable",
      "type": "function"
    },
    {
      "inputs": [
        {
          "internalType": "uint256",
          "name": "id",
          "type": "uint256"
        }
      ],
      "name": "_pendingSlicer",
      "outputs": [
        {
          "internalType": "address",
          "name": "",
          "type": "address"
        }
      ],
      "stateMutability": "view",
      "type": "function"
    },
    {
      "inputs": [
        {
          "internalType": "address",
          "name": "newSliceAddress",
          "type": "address"
        }
      ],
      "name": "_setNewSliceAddress",
      "outputs": [],
      "stateMutability": "nonpayable",
      "type": "function"
    },
    {
      "inputs": [],
      "name": "getEthUsd",
      "outputs": [
        {
          "internalType": "int256",
          "name": "",
          "type": "int256"
        }
      ],
      "stateMutability": "view",
      "type": "function"
    },
    {
      "inputs": [],
      "name": "owner",
      "outputs": [
        {
          "internalType": "address",
          "name": "",
          "type": "address"
        }
      ],
      "stateMutability": "view",
      "type": "function"
    },
    {
      "inputs": [],
      "name": "paused",
      "outputs": [
        {
          "internalType": "bool",
          "name": "",
          "type": "bool"
        }
      ],
      "stateMutability": "view",
      "type": "function"
    },
    {
      "inputs": [
        {
          "internalType": "address payable[]",
          "name": "slicerAddresses",
          "type": "address[]"
        },
        {
          "internalType": "uint256[]",
          "name": "productIds",
          "type": "uint256[]"
        },
        {
          "internalType": "uint256[]",
          "name": "quantities",
          "type": "uint256[]"
        }
      ],
      "name": "payProducts",
      "outputs": [],
      "stateMutability": "payable",
      "type": "function"
    },
    {
      "inputs": [],
      "name": "renounceOwnership",
      "outputs": [],
      "stateMutability": "nonpayable",
      "type": "function"
    },
    {
      "inputs": [
        {
          "internalType": "address[]",
          "name": "accounts",
          "type": "address[]"
        },
        {
          "internalType": "uint256[]",
          "name": "shares",
          "type": "uint256[]"
        },
        {
          "internalType": "uint256",
          "name": "minimumShares",
          "type": "uint256"
        }
      ],
      "name": "slice",
      "outputs": [],
      "stateMutability": "nonpayable",
      "type": "function"
    },
    {
      "inputs": [
        {
          "internalType": "uint256",
          "name": "id",
          "type": "uint256"
        }
      ],
      "name": "slicers",
      "outputs": [
        {
          "internalType": "address",
          "name": "",
          "type": "address"
        }
      ],
      "stateMutability": "view",
      "type": "function"
    },
    {
      "inputs": [],
      "name": "togglePause",
      "outputs": [],
      "stateMutability": "nonpayable",
      "type": "function"
    },
    {
      "inputs": [],
      "name": "totalTokens",
      "outputs": [
        {
          "internalType": "uint256",
          "name": "",
          "type": "uint256"
        }
      ],
      "stateMutability": "view",
      "type": "function"
    },
    {
      "inputs": [
        {
          "internalType": "address",
          "name": "newOwner",
          "type": "address"
        }
      ],
      "name": "transferOwnership",
      "outputs": [],
      "stateMutability": "nonpayable",
      "type": "function"
    },
    {
      "inputs": [
        {
          "internalType": "address",
          "name": "account",
          "type": "address"
        },
        {
          "internalType": "address[]",
          "name": "slicerAddresses",
          "type": "address[]"
        },
        {
          "internalType": "uint8",
          "name": "slicerPercentage",
          "type": "uint8"
        }
      ],
      "name": "triggerRelease",
      "outputs": [],
      "stateMutability": "nonpayable",
      "type": "function"
    }
  ],
  "bytecode": "0x60e0604052600280546001600160a01b0319163017905560048054621e1e1e62ffffff199091161790553480156200003657600080fd5b50604051620061963803806200619683398101604081905262000059916200010b565b600080546001600160a01b031916339081178255604051909182917f8be0079c531659141344cd1fd0a4f28419497f9722a3daafe3b4186f6b6457e0908290a3506000805460ff60a01b19169055600180556001600160601b0319606092831b8116608052911b1660a0527f8a753747a1fa494ec906ce90e9f37563a8af630e00000000000000000000000060c05262000143565b80516001600160a01b03811681146200010657600080fd5b919050565b600080604083850312156200011f57600080fd5b6200012a83620000ee565b91506200013a60208401620000ee565b90509250929050565b60805160601c60a05160601c60c05160601c615fdb620001bb6000396000610d09015260008181610354015281816103d50152818161046c01528181610ca1015281816110320152818161124301528181611654015261180d015260008181610a7c01528181610c2401526116750152615fdb6000f3fe608060405260043610620001075760003560e01c80638da5cb5b1162000095578063d33f58451162000060578063d33f584514620002b6578063dae7d51814620002db578063ecb262641462000300578063f2fde38b146200032257600080fd5b80638da5cb5b1462000241578063ba3feb041462000261578063bb27e0ce1462000286578063c4ae3168146200029e57600080fd5b80635c975abb11620000d65780635c975abb14620001b1578063715018a614620001dd5780637e1c0c0914620001f5578063817115f1146200021c57600080fd5b8063094a928b146200010c578063175fa7ea146200014e5780632a93df1d14620001735780635a0dd6d5146200019a575b600080fd5b3480156200011957600080fd5b50620001316200012b36600462001e91565b62000347565b6040516001600160a01b0390911681526020015b60405180910390f35b3480156200015b57600080fd5b50620001316200016d36600462001e91565b620003bc565b3480156200018057600080fd5b50620001986200019236600462001e91565b62000461565b005b62000198620001ab36600462001d93565b620004ac565b348015620001be57600080fd5b50600054600160a01b900460ff16604051901515815260200162000145565b348015620001ea57600080fd5b5062000198620007c9565b3480156200020257600080fd5b506200020d62000840565b60405190815260200162000145565b3480156200022957600080fd5b50620001986200023b36600462001cae565b62000851565b3480156200024e57600080fd5b506000546001600160a01b031662000131565b3480156200026e57600080fd5b50620001986200028036600462001bd3565b62000bc1565b3480156200029357600080fd5b506200020d62000d04565b348015620002ab57600080fd5b506200019862000da7565b348015620002c357600080fd5b5062000198620002d536600462001d1f565b62000dfd565b348015620002e857600080fd5b5062000198620002fa36600462001c1a565b62001238565b3480156200030d57600080fd5b50620001986200031f36600462001e91565b50565b3480156200032f57600080fd5b50620001986200034136600462001bd3565b62001435565b6000336001600160a01b037f000000000000000000000000000000000000000000000000000000000000000016146200039d5760405162461bcd60e51b815260040162000394906200221a565b60405180910390fd5b506000818152600560205260409020546001600160a01b03165b919050565b604051630bafd3f560e11b8152600481018290526000907f00000000000000000000000000000000000000000000000000000000000000006001600160a01b03169063175fa7ea9060240160206040518083038186803b1580156200042057600080fd5b505afa15801562000435573d6000803e3d6000fd5b505050506040513d601f19601f820116820180604052508101906200045b919062001bfa565b92915050565b336001600160a01b037f000000000000000000000000000000000000000000000000000000000000000016146200031f5760405162461bcd60e51b815260040162000394906200221a565b60026001541415620004d25760405162461bcd60e51b815260040162000394906200227c565b600260015581518351148015620004ea575080518351145b620005385760405162461bcd60e51b815260206004820152601f60248201527f536c6963653a204c656e6774687320646f6e277420636f72726573706f6e6400604482015260640162000394565b6000805b84518110156200077f5760008582815181106200055d576200055d620023d5565b602002602001015190506000816001600160a01b031663bb119f6e8785815181106200058d576200058d620023d5565b60200260200101516040518263ffffffff1660e01b8152600401620005b491815260200190565b60006040518083038186803b158015620005cd57600080fd5b505afa158015620005e2573d6000803e3d6000fd5b505050506040513d6000823e601f3d908101601f191682016040526200060c919081019062001f2f565b50505050505091505060008584815181106200062c576200062c620023d5565b60200260200101518262000641919062002329565b905060008885815181106200065a576200065a620023d5565b60200260200101516001600160a01b031682338a8881518110620006825762000682620023d5565b60200260200101518a89815181106200069f576200069f620023d5565b60209081029190910101516040516001600160a01b0390931660248401526044830191909152606482015260840160408051601f198184030181529181526020820180516001600160e01b0316630f37504360e41b17905251620007049190620020ff565b60006040518083038185875af1925050503d806000811462000743576040519150601f19603f3d011682016040523d82523d6000602084013e62000748565b606091505b50509050806200075757600080fd5b6200076382876200230e565b955050505050808062000776906200237e565b9150506200053c565b507f6c457f232472d3dc857c916ef49e2073cb898e0b45bac27009b562ebda3db43984848484604051620007b7949392919062002197565b60405180910390a15050600180555050565b6000546001600160a01b03163314620007f65760405162461bcd60e51b8152600401620003949062002247565b600080546040516001600160a01b03909116907f8be0079c531659141344cd1fd0a4f28419497f9722a3daafe3b4186f6b6457e0908390a3600080546001600160a01b0319169055565b60006200084c60035490565b905090565b60026001541415620008775760405162461bcd60e51b815260040162000394906200227c565b60026001819055546001600160a01b03163014620008cd5760405162461bcd60e51b815260206004820152601260248201527129b634b1b29d1027b632103b32b939b4b7b760711b604482015260640162000394565b600454825161010090910460ff1610156200092b5760405162461bcd60e51b815260206004820181905260248201527f536c6963653a20546f6f206d616e7920736c69636572732072656c6561736564604482015260640162000394565b823b156000805b84518160ff16101562000b6a576000858260ff1681518110620009595762000959620023d5565b6020908102919091010151604051632a67293d60e01b81526001600160a01b038981166004830152919250600091831690632a67293d9060240160206040518083038186803b158015620009ac57600080fd5b505afa158015620009c1573d6000803e3d6000fd5b505050506040513d601f19601f82011682018060405250810190620009e7919062001eab565b111562000b5457604051631916558760e01b81526001600160a01b03888116600483015260009190831690631916558790602401602060405180830381600087803b15801562000a3657600080fd5b505af115801562000a4b573d6000803e3d6000fd5b505050506040513d601f19601f8201168201806040525081019062000a71919062001eab565b9050841562000b44577f00000000000000000000000000000000000000000000000000000000000000006001600160a01b031663deb0e99189838a8760ff168151811062000ac35762000ac3620023d5565b60209081029190910101516040516001600160e01b031960e086901b1681526001600160a01b039384166004820152602481019290925291909116604482015260ff89166064820152608401600060405180830381600087803b15801562000b2a57600080fd5b505af115801562000b3f573d6000803e3d6000fd5b505050505b62000b5081856200230e565b9350505b508062000b61816200239c565b91505062000932565b50604080516001600160a01b03871681526020810183905260ff85168183015290517fc3fb528a4237f3152c096612970ef465ede8418e8e76bf125a4af53c8284ec439181900360600190a1505060018055505050565b6000546001600160a01b0316331462000bee5760405162461bcd60e51b8152600401620003949062002247565b600280546001600160a01b0319166001600160a01b0383811691821790925560405163f2fde38b60e01b815260048101919091527f00000000000000000000000000000000000000000000000000000000000000009091169063f2fde38b90602401600060405180830381600087803b15801562000c6b57600080fd5b505af115801562000c80573d6000803e3d6000fd5b505060405163f2fde38b60e01b81526001600160a01b0384811660048301527f000000000000000000000000000000000000000000000000000000000000000016925063f2fde38b9150602401600060405180830381600087803b15801562000ce857600080fd5b505af115801562000cfd573d6000803e3d6000fd5b5050505050565b6000807f00000000000000000000000000000000000000000000000000000000000000006001600160a01b031663feaf968c6040518163ffffffff1660e01b815260040160a06040518083038186803b15801562000d6157600080fd5b505afa15801562000d76573d6000803e3d6000fd5b505050506040513d601f19601f8201168201806040525081019062000d9c919062002032565b509195945050505050565b6000546001600160a01b0316331462000dd45760405162461bcd60e51b8152600401620003949062002247565b600054600160a01b900460ff161562000df35762000df162001524565b565b62000df1620015c3565b600054600160a01b900460ff161562000e4c5760405162461bcd60e51b815260206004820152601060248201526f14185d5cd8589b194e881c185d5cd95960821b604482015260640162000394565b6002600154141562000e725760405162461bcd60e51b815260040162000394906200227c565b6002600155600062000e8360035490565b600454855191925060009160ff909116101562000ee35760405162461bcd60e51b815260206004820152601860248201527f536c6963653a20546f6f206d616e79206163636f756e74730000000000000000604482015260640162000394565b835185511462000f365760405162461bcd60e51b815260206004820152601e60248201527f536c6963653a20496e7075747320646f6e277420636f72726573706f6e640000604482015260640162000394565b6000831162000f885760405162461bcd60e51b815260206004820152601d60248201527f536c6963653a2053706563696679206d696e696d756d20736861726573000000604482015260640162000394565b600062000f9683856200164e565b90508060005b87518160ff161015620011295762000fd3888260ff168151811062000fc55762000fc5620023d5565b60200260200101513b151590565b1562001004576200100483898360ff168151811062000ff65762000ff6620023d5565b602002602001015162001710565b85878260ff16815181106200101d576200101d620023d5565b6020026020010151106200103057600193505b7f00000000000000000000000000000000000000000000000000000000000000006001600160a01b031663303cd08a898360ff1681518110620010775762001077620023d5565b6020026020010151878a8560ff1681518110620010985762001098620023d5565b60209081029190910101516040516001600160e01b031960e086901b1681526001600160a01b039384166004820152602481019290925260448201529086166064820152608401600060405180830381600087803b158015620010fa57600080fd5b505af11580156200110f573d6000803e3d6000fd5b50505050808062001120906200239c565b91505062000f9c565b5082620011795760405162461bcd60e51b815260206004820152601c60248201527f4e6f206163636f756e742068617320656e6f7567682073686172657300000000604482015260640162000394565b60405163fd5e12e360e01b81526001600160a01b0382169063fd5e12e390620011a9908a908a9060040162002165565b600060405180830381600087803b158015620011c457600080fd5b505af1158015620011d9573d6000803e3d6000fd5b50505050620011ec600380546001019055565b7f19577496b80ce512b7fa91c90bb7fa221377ad466ca35540a3a4ae64e04e831a828589896040516200122394939291906200211d565b60405180910390a15050600180555050505050565b336001600160a01b037f00000000000000000000000000000000000000000000000000000000000000001614620012835760405162461bcd60e51b815260040162000394906200221a565b823b1515620012958584600062000851565b60005b83518160ff1610156200142d57828160ff1681518110620012bd57620012bd620023d5565b602002602001015160001415620013175760405162461bcd60e51b815260206004820152601960248201527f536c6963653a20416d6f756e742063616e6e6f74206265203000000000000000604482015260640162000394565b8115620013cc57838160ff1681518110620013365762001336620023d5565b60200260200101516001600160a01b0316856001600160a01b03161415620013a15760405162461bcd60e51b815260206004820152601760248201527f536c696365436f72653a205061796d656e74206c6f6f70000000000000000000604482015260640162000394565b620013cc848260ff1681518110620013bd57620013bd620023d5565b60200260200101518662001710565b620014188686868460ff1681518110620013ea57620013ea620023d5565b6020026020010151868560ff16815181106200140a576200140a620023d5565b6020026020010151620019d0565b8062001424816200239c565b91505062001298565b505050505050565b6000546001600160a01b03163314620014625760405162461bcd60e51b8152600401620003949062002247565b6001600160a01b038116620014c95760405162461bcd60e51b815260206004820152602660248201527f4f776e61626c653a206e6577206f776e657220697320746865207a65726f206160448201526564647265737360d01b606482015260840162000394565b600080546040516001600160a01b03808516939216917f8be0079c531659141344cd1fd0a4f28419497f9722a3daafe3b4186f6b6457e091a3600080546001600160a01b0319166001600160a01b0392909216919091179055565b600054600160a01b900460ff16620015765760405162461bcd60e51b815260206004820152601460248201527314185d5cd8589b194e881b9bdd081c185d5cd95960621b604482015260640162000394565b6000805460ff60a01b191690557f5db9ee0a495bf2e6ff9c91a7834c1ba4fdd244a5e8aa4e537bd38aeae4b073aa335b6040516001600160a01b03909116815260200160405180910390a1565b600054600160a01b900460ff1615620016125760405162461bcd60e51b815260206004820152601060248201526f14185d5cd8589b194e881c185d5cd95960821b604482015260640162000394565b6000805460ff60a01b1916600160a01b1790557f62e78cea01bee320cd4e420270b5ea74000d11b0c9f74754ebdbfc544b05a258620015a63390565b600080837f00000000000000000000000000000000000000000000000000000000000000007f0000000000000000000000000000000000000000000000000000000000000000620016a76000546001600160a01b031690565b3387604051620016b79062001a46565b9586526001600160a01b03948516602087015292841660408601529083166060850152909116608083015260a082015260c001604051809103906000f08015801562001707573d6000803e3d6000fd5b50949350505050565b60008290506000829050826001600160a01b03166200179d826001600160a01b03166317d70f7c6040518163ffffffff1660e01b815260040160206040518083038186803b1580156200176257600080fd5b505afa15801562001777573d6000803e3d6000fd5b505050506040513d601f19601f820116820180604052508101906200016d919062001eab565b6001600160a01b031614620017eb5760405162461bcd60e51b815260206004820152601360248201527229b634b1b29d102737ba10309029b634b1b2b960691b604482015260640162000394565b60405163090c738d60e01b81526001600160a01b0384811660048301526000917f00000000000000000000000000000000000000000000000000000000000000009091169063090c738d9060240160006040518083038186803b1580156200185257600080fd5b505afa15801562001867573d6000803e3d6000fd5b505050506040513d6000823e601f3d908101601f1916820160405262001891919081019062001ec5565b505060045490915062010000900460ff168110620018f25760405162461bcd60e51b815260206004820152601c60248201527f536c6963653a20536c6963657273206c696d6974207265616368656400000000604482015260640162000394565b6000826001600160a01b03166317d70f7c6040518163ffffffff1660e01b815260040160206040518083038186803b1580156200192e57600080fd5b505afa15801562001943573d6000803e3d6000fd5b505050506040513d601f19601f8201168201806040525081019062001969919062001eab565b60405163044eecfd60e41b8152600481018290529091506001600160a01b038516906344eecfd090602401600060405180830381600087803b158015620019af57600080fd5b505af1158015620019c4573d6000803e3d6000fd5b50505050505050505050565b60405163177e569160e31b81526001600160a01b03858116600483015284811660248301526044820183905283919082169063bbf2b48890606401600060405180830381600087803b15801562001a2657600080fd5b505af115801562001a3b573d6000803e3d6000fd5b505050505050505050565b613b8e806200241883390190565b600082601f83011262001a6657600080fd5b8135602062001a7f62001a7983620022e7565b620022b3565b80838252828201915082860187848660051b890101111562001aa057600080fd5b60005b8581101562001acc57813562001ab98162002401565b8452928401929084019060010162001aa3565b5090979650505050505050565b600082601f83011262001aeb57600080fd5b8135602062001afe62001a7983620022e7565b80838252828201915082860187848660051b890101111562001b1f57600080fd5b60005b8581101562001acc5781358452928401929084019060010162001b22565b600082601f83011262001b5257600080fd5b8151602062001b6562001a7983620022e7565b80838252828201915082860187848660051b890101111562001b8657600080fd5b60005b8581101562001acc5781518452928401929084019060010162001b89565b80518015158114620003b757600080fd5b805169ffffffffffffffffffff81168114620003b757600080fd5b60006020828403121562001be657600080fd5b813562001bf38162002401565b9392505050565b60006020828403121562001c0d57600080fd5b815162001bf38162002401565b6000806000806080858703121562001c3157600080fd5b843562001c3e8162002401565b9350602085013562001c508162002401565b9250604085013567ffffffffffffffff8082111562001c6e57600080fd5b62001c7c8883890162001a54565b9350606087013591508082111562001c9357600080fd5b5062001ca28782880162001ad9565b91505092959194509250565b60008060006060848603121562001cc457600080fd5b833562001cd18162002401565b9250602084013567ffffffffffffffff81111562001cee57600080fd5b62001cfc8682870162001a54565b925050604084013560ff8116811462001d1457600080fd5b809150509250925092565b60008060006060848603121562001d3557600080fd5b833567ffffffffffffffff8082111562001d4e57600080fd5b62001d5c8783880162001a54565b9450602086013591508082111562001d7357600080fd5b5062001d828682870162001ad9565b925050604084013590509250925092565b60008060006060848603121562001da957600080fd5b833567ffffffffffffffff8082111562001dc257600080fd5b818601915086601f83011262001dd757600080fd5b8135602062001dea62001a7983620022e7565b8083825282820191508286018b848660051b890101111562001e0b57600080fd5b600096505b8487101562001e3b57803562001e268162002401565b83526001969096019591830191830162001e10565b509750508701359250508082111562001e5357600080fd5b62001e618783880162001ad9565b9350604086013591508082111562001e7857600080fd5b5062001e878682870162001ad9565b9150509250925092565b60006020828403121562001ea457600080fd5b5035919050565b60006020828403121562001ebe57600080fd5b5051919050565b60008060006060848603121562001edb57600080fd5b83519250602084015167ffffffffffffffff8082111562001efb57600080fd5b62001f098783880162001b40565b9350604086015191508082111562001f2057600080fd5b5062001e878682870162001b40565b600080600080600080600080610100898b03121562001f4d57600080fd5b885197506020890151965062001f6660408a0162001ba7565b955062001f7660608a0162001ba7565b94506080890151935060a0890151925060c089015162001f968162002401565b60e08a015190925067ffffffffffffffff8082111562001fb557600080fd5b818b0191508b601f83011262001fca57600080fd5b81518181111562001fdf5762001fdf620023eb565b62001ff4601f8201601f1916602001620022b3565b91508082528c60208285010111156200200c57600080fd5b6200201f8160208401602086016200234b565b5080925050509295985092959890939650565b600080600080600060a086880312156200204b57600080fd5b620020568662001bb8565b94506020860151935060408601519250606086015191506200207b6080870162001bb8565b90509295509295909350565b600081518084526020808501945080840160005b83811015620020c25781516001600160a01b0316875295820195908201906001016200209b565b509495945050505050565b600081518084526020808501945080840160005b83811015620020c257815187529582019590820190600101620020e1565b60008251620021138184602087016200234b565b9190910192915050565b60018060a01b038516815283602082015260806040820152600062002146608083018562002087565b82810360608401526200215a8185620020cd565b979650505050505050565b6040815260006200217a604083018562002087565b82810360208401526200218e8185620020cd565b95945050505050565b6080808252855190820181905260009060209060a0840190828901845b82811015620021db5781516001600160a01b031684529284019290840190600101620021b4565b50505083810382850152620021f18188620020cd565b9150508281036040840152620022088186620020cd565b91505082606083015295945050505050565b60208082526013908201527214db1a58d94e88155b985d5d1a1bdc9a5e9959606a1b604082015260600190565b6020808252818101527f4f776e61626c653a2063616c6c6572206973206e6f7420746865206f776e6572604082015260600190565b6020808252601f908201527f5265656e7472616e637947756172643a207265656e7472616e742063616c6c00604082015260600190565b604051601f8201601f1916810167ffffffffffffffff81118282101715620022df57620022df620023eb565b604052919050565b600067ffffffffffffffff821115620023045762002304620023eb565b5060051b60200190565b60008219821115620023245762002324620023bf565b500190565b6000816000190483118215151615620023465762002346620023bf565b500290565b60005b83811015620023685781810151838201526020016200234e565b8381111562002378576000848401525b50505050565b6000600019821415620023955762002395620023bf565b5060010190565b600060ff821660ff811415620023b657620023b6620023bf565b60010192915050565b634e487b7160e01b600052601160045260246000fd5b634e487b7160e01b600052603260045260246000fd5b634e487b7160e01b600052604160045260246000fd5b6001600160a01b03811681146200031f57600080fdfe61014060405260405162003b8e38038062003b8e83398101604081905262000027916200008e565b6003805460ff19169055600160045560e0959095526001600160601b0319606094851b811660805292841b831660a05290831b821660c05290911b166101005261012052620000fd565b80516001600160a01b03811681146200008957600080fd5b919050565b60008060008060008060c08789031215620000a857600080fd5b86519550620000ba6020880162000071565b9450620000ca6040880162000071565b9350620000da6060880162000071565b9250620000ea6080880162000071565b915060a087015190509295509295509295565b60805160601c60a05160601c60c05160601c60e0516101005160601c610120516139be620001d0600039600081816104e40152818161133401526114c4015260006102e101526000818161033c01528181610b2701526128a9015260008181610223015261123f0152600061113c01526000818161088e0152818161091b01528181610cb901528181610f4f01528181610ff0015281816113760152818161178d01528181611ac301528181611e1f015281816124070152818161269d015281816128e601526129ca01526139be6000f3fe6080604052600436106101d15760003560e01c806360b6e6c3116100f7578063bbf2b48811610095578063e66c182511610064578063e66c182514610666578063f23a6e6114610686578063f3750430146106a6578063fd5e12e3146106b957600080fd5b8063bbf2b488146105d8578063bc197c81146105f8578063c71e261f14610631578063e311d6111461064657600080fd5b80639eeae853116100d15780639eeae85314610541578063a3c2c46214610561578063b5d11d3914610576578063bb119f6e146105a457600080fd5b806360b6e6c3146104c05780638d78fd0b146104d55780639852595c1461050857600080fd5b80632a67293d1161016f57806351a5d8b01161013e57806351a5d8b01461044857806359bac56c146104685780635c975abb146104885780635ee95cae146104a057600080fd5b80632a67293d146103c65780633199ea04146103e657806344eecfd0146104065780634e8086aa1461042657600080fd5b806317d70f7c116101ab57806317d70f7c1461032d578063191655871461036a57806322001c2b1461038a57806328591b13146103a657600080fd5b806301ffc9a714610292578063035eb528146102c75780630c3484fd1461030b57600080fd5b3661028d5760035460ff16156102025760405162461bcd60e51b81526004016101f9906136ca565b60405180910390fd5b60006103e8610212601934613881565b61021c919061385f565b90506102487f0000000000000000000000000000000000000000000000000000000000000000826106d9565b7f6ef95f06320e7a25a04a175ca677b7052bdd97131872c2192525a629f51be77033604080516001600160a01b0390921682523460208301520160405180910390a150005b600080fd5b34801561029e57600080fd5b506102b26102ad3660046133db565b6107f7565b60405190151581526020015b60405180910390f35b3480156102d357600080fd5b506040516001600160a01b037f00000000000000000000000000000000000000000000000000000000000000001681526020016102be565b34801561031757600080fd5b5061032b610326366004613084565b61082e565b005b34801561033957600080fd5b507f00000000000000000000000000000000000000000000000000000000000000005b6040519081526020016102be565b34801561037657600080fd5b5061035c610385366004613084565b61097a565b34801561039657600080fd5b50604051600181526020016102be565b3480156103b257600080fd5b5061032b6103c1366004613437565b610b89565b3480156103d257600080fd5b5061035c6103e1366004613084565b610eb5565b3480156103f257600080fd5b5061032b610401366004613084565b610f44565b34801561041257600080fd5b5061032b61042136600461341e565b610fcb565b34801561043257600080fd5b5061043b6110be565b6040516102be91906135bd565b34801561045457600080fd5b5061032b610463366004613314565b611115565b34801561047457600080fd5b506102b2610483366004613084565b611309565b34801561049457600080fd5b5060035460ff166102b2565b3480156104ac57600080fd5b5061032b6104bb36600461341e565b611597565b3480156104cc57600080fd5b5061043b6116f7565b3480156104e157600080fd5b507f000000000000000000000000000000000000000000000000000000000000000061035c565b34801561051457600080fd5b5061035c610523366004613084565b6001600160a01b031660009081526008602052604090206001015490565b34801561054d57600080fd5b5061032b61055c366004613467565b61174c565b34801561056d57600080fd5b5061035c611a82565b34801561058257600080fd5b5061059661059136600461341e565b611a97565b6040516102be929190613601565b3480156105b057600080fd5b506105c46105bf36600461341e565b611cbe565b6040516102be989796959493929190613799565b3480156105e457600080fd5b5061032b6105f336600461316c565b611dfa565b34801561060457600080fd5b506106186106133660046130be565b61200b565b6040516001600160e01b031990911681526020016102be565b34801561063d57600080fd5b5061043b6120d8565b34801561065257600080fd5b5061032b61066136600461350d565b61212d565b34801561067257600080fd5b506102b2610681366004613084565b61232a565b34801561069257600080fd5b506106186106a13660046131ad565b612337565b61032b6106b4366004613216565b6123c3565b3480156106c557600080fd5b5061032b6106d436600461324b565b6129a5565b804710156107295760405162461bcd60e51b815260206004820152601d60248201527f416464726573733a20696e73756666696369656e742062616c616e636500000060448201526064016101f9565b6000826001600160a01b03168260405160006040518083038185875af1925050503d8060008114610776576040519150601f19603f3d011682016040523d82523d6000602084013e61077b565b606091505b50509050806107f25760405162461bcd60e51b815260206004820152603a60248201527f416464726573733a20756e61626c6520746f2073656e642076616c75652c207260448201527f6563697069656e74206d6179206861766520726576657274656400000000000060648201526084016101f9565b505050565b60006001600160e01b03198216630271189760e51b148061082857506301ffc9a760e01b6001600160e01b03198316145b92915050565b61083781611309565b6108835760405162461bcd60e51b815260206004820152601b60248201527f536c696365723a20596f7520617265206e6f7420616c6c6f776564000000000060448201526064016101f9565b336001600160a01b037f000000000000000000000000000000000000000000000000000000000000000016146108f55760405162461bcd60e51b8152602060048201526017602482015276536c696365723a204f6e6c79206f6e207570677261646560481b60448201526064016101f9565b60405163a22cb46560e01b81526001600160a01b038281166004830152600160248301527f0000000000000000000000000000000000000000000000000000000000000000169063a22cb46590604401600060405180830381600087803b15801561095f57600080fd5b505af1158015610973573d6000803e3d6000fd5b5050505050565b6000600260045414156109cf5760405162461bcd60e51b815260206004820152601f60248201527f5265656e7472616e637947756172643a207265656e7472616e742063616c6c0060448201526064016101f9565b60026004556001600160a01b038216600090815260076020526040902054610a395760405162461bcd60e51b815260206004820152601d60248201527f536c696365723a206163636f756e7420686173206e6f2073686172657300000060448201526064016101f9565b6000610a4483610eb5565b905080610a935760405162461bcd60e51b815260206004820152601a60248201527f536c696365723a205061796d656e74206973206e6f742064756500000000000060448201526064016101f9565b6001600160a01b03831660009081526008602052604081208054839290610abb908490613847565b90915550506001600160a01b038316600090815260086020526040902081906001016000828254610aec9190613847565b925050819055508060066000828254610b059190613847565b90915550610b15905083826106d9565b604080516001600160a01b03851681527f000000000000000000000000000000000000000000000000000000000000000060208201529081018290527f1f9bce86e150bb414d02275a3f50f6fe0e6e7a98882a4f3daaeb7699b26676949060600160405180910390a1600160045592915050565b6000828152600260205260409020600101548290610bb95760405162461bcd60e51b81526004016101f990613762565b6000838152600260205260409020600501548390610bdf906001600160a01b0316611309565b15610c22576000818152600260205260409020600501546001600160a01b03163314610c1d5760405162461bcd60e51b81526004016101f9906136f4565b610c4c565b610c2b33611309565b1515600114610c4c5760405162461bcd60e51b81526004016101f99061372b565b6000848152600260208190526040909120015460ff1615158315151415610cb55760405162461bcd60e51b815260206004820152601760248201527f536c696365723a2053616d6520707269636520756e697400000000000000000060448201526064016101f9565b60007f00000000000000000000000000000000000000000000000000000000000000006001600160a01b0316638da5cb5b6040518163ffffffff1660e01b815260040160206040518083038186803b158015610d1057600080fd5b505afa158015610d24573d6000803e3d6000fd5b505050506040513d601f19601f82011682018060405250810190610d4891906130a1565b90506000816001600160a01b031663bb27e0ce6040518163ffffffff1660e01b815260040160206040518083038186803b158015610d8557600080fd5b505afa158015610d99573d6000803e3d6000fd5b505050506040513d601f19601f82011682018060405250810190610dbd9190613405565b6000878152600260205260409020600101549091508515610e1757600064e8d4a5100083610deb828561385f565b610df59190613881565b610dff919061385f565b60008981526002602052604090206001015550610e4c565b600082610e2e8369d3c21bcecceda1000000613881565b610e38919061385f565b600089815260026020526040902060010155505b600087815260026020818152604092839020909101805489151560ff19909116811790915582513381529182018a90528183015290517f6b1d5c6bd685a9850939463ba701476d70ab067412e13190b34549230b1675379181900360600190a150505050505050565b6005546001600160a01b03821660009081526007602052604081205490918291610edd611a82565b610ee79190613881565b610ef1919061385f565b6001600160a01b0384166000908152600860205260409020549091508111610f1a576000610f3d565b6001600160a01b038316600090815260086020526040902054610f3d90826138a0565b9392505050565b336001600160a01b037f00000000000000000000000000000000000000000000000000000000000000001614610fb65760405162461bcd60e51b8152602060048201526017602482015276536c696365723a204f6e6c79206f6e207570677261646560481b60448201526064016101f9565b610fc081476106d9565b610fc8612c40565b50565b60035460ff1615610fee5760405162461bcd60e51b81526004016101f9906136ca565b7f00000000000000000000000000000000000000000000000000000000000000006001600160a01b0316638da5cb5b6040518163ffffffff1660e01b815260040160206040518083038186803b15801561104757600080fd5b505afa15801561105b573d6000803e3d6000fd5b505050506040513d601f19601f8201168201806040525081019061107f91906130a1565b6001600160a01b0316336001600160a01b0316146110af5760405162461bcd60e51b81526004016101f99061369c565b6110ba600b82612cb5565b5050565b60098054604080516020808402820181019092528281526060939092909183018282801561110b57602002820191906000526020600020905b8154815260200190600101908083116110f7575b5050505050905090565b61111e33611309565b61113a5760405162461bcd60e51b81526004016101f99061372b565b7f00000000000000000000000000000000000000000000000000000000000000006000805b835181101561122757826001600160a01b0316632517c28085838151811061118957611189613939565b60200260200101516040518263ffffffff1660e01b81526004016111b9919063ffffffff91909116815260200190565b60206040518083038186803b1580156111d157600080fd5b505afa1580156111e5573d6000803e3d6000fd5b505050506040513d601f19601f820116820180604052508101906112099190613405565b6112139083613847565b91508061121f816138f2565b91505061115f565b5060405163a9059cbb60e01b81526001600160a01b037f0000000000000000000000000000000000000000000000000000000000000000811660048301526024820183905283169063a9059cbb90604401602060405180830381600087803b15801561129257600080fd5b505af11580156112a6573d6000803e3d6000fd5b505050506040513d601f19601f820116820180604052508101906112ca91906133be565b507f2f60d430a7fb33e0403788734dc2a2077634bc73a778b4c47b37e56a1083795e83826040516112fc92919061364e565b60405180910390a1505050565b60006113148261232a565b15611360576001600160a01b0382166000908152600760205260409020547f00000000000000000000000000000000000000000000000000000000000000001161136057506001919050565b600061136c600b612cc1565b111561158f5760007f00000000000000000000000000000000000000000000000000000000000000006001600160a01b0316638da5cb5b6040518163ffffffff1660e01b815260040160206040518083038186803b1580156113cd57600080fd5b505afa1580156113e1573d6000803e3d6000fd5b505050506040513d601f19601f8201168201806040525081019061140591906130a1565b90508060005b611415600b612cc1565b81101561158b5760006001600160a01b03831663175fa7ea611438600b85612ccb565b6040518263ffffffff1660e01b815260040161145691815260200190565b60206040518083038186803b15801561146e57600080fd5b505afa158015611482573d6000803e3d6000fd5b505050506040513d601f19601f820116820180604052508101906114a691906130a1565b6001600160a01b0381166000908152600760205260409020549091507f0000000000000000000000000000000000000000000000000000000000000000116115785760405163166eb15b60e21b81526001600160a01b0387811660048301528291908216906359bac56c9060240160206040518083038186803b15801561152c57600080fd5b505afa158015611540573d6000803e3d6000fd5b505050506040513d601f19601f8201168201806040525081019061156491906133be565b15611576575060019695505050505050565b505b5080611583816138f2565b91505061140b565b5050505b506000919050565b60008181526002602052604090206001015481906115c75760405162461bcd60e51b81526004016101f990613762565b60008281526002602052604090206005015482906115ed906001600160a01b0316611309565b15611630576000818152600260205260409020600501546001600160a01b0316331461162b5760405162461bcd60e51b81526004016101f9906136f4565b61165a565b61163933611309565b151560011461165a5760405162461bcd60e51b81526004016101f99061372b565b611665600084612cd7565b50600083815260026020908152604080832083815560018101849055600381018490556005810180546001600160a01b03191690558151928301918290529183905290916116b7916006840191612f09565b5060408051338152602081018690527f8d73b39fd1c1240bd6b0e38e6190cfa73f69346002fdbfa18c2156e6f91474d3910160405180910390a150505050565b600b8054604080516020808402820181019092528281526060939092909183018282801561110b57602002820191906000526020600020908154815260200190600101908083116110f7575050505050905090565b61175533611309565b6117715760405162461bcd60e51b81526004016101f99061372b565b861561193d57604051635563a16160e01b8152600481018890527f0000000000000000000000000000000000000000000000000000000000000000906000906001600160a01b03831690635563a1619060240160206040518083038186803b1580156117dc57600080fd5b505afa1580156117f0573d6000803e3d6000fd5b505050506040513d601f19601f8201168201806040525081019061181491906130a1565b6001600160a01b0316141561186b5760405162461bcd60e51b815260206004820181905260248201527f536c696365436f72653a204e6f6e2d6578697374656e742063617465676f727960448201526064016101f9565b806001600160a01b0316638da5cb5b6040518163ffffffff1660e01b815260040160206040518083038186803b1580156118a457600080fd5b505afa1580156118b8573d6000803e3d6000fd5b505050506040513d601f19601f820116820180604052508101906118dc91906130a1565b6001600160a01b031663ecb26264896040518263ffffffff1660e01b815260040161190991815260200190565b600060405180830381600087803b15801561192357600080fd5b505af1158015611937573d6000803e3d6000fd5b50505050505b6000861161198d5760405162461bcd60e51b815260206004820152601b60248201527f536c696365723a2041646420612070726f64756374207072696365000000000060448201526064016101f9565b61199b600d80546001019055565b60006119a6600d5490565b60008181526002602052604081209192506119c19083612cb5565b508881556001810188905560028101805461ffff191688151561ff00191617610100881515021790556003810185905560006004820155600581018054336001600160a01b03199091161790558351611a239060068301906020870190612f09565b508251611a399060078301906020860190612f09565b507fab839608f4f4047a42143dd467f4b119ebe97496c7477a71bad583328212451733838a87604051611a6f9493929190613586565b60405180910390a1505050505050505050565b600060065447611a929190613847565b905090565b60008181526002602090815260408083203384526008019091529020546060908190151580611b6757507f00000000000000000000000000000000000000000000000000000000000000006001600160a01b0316638da5cb5b6040518163ffffffff1660e01b815260040160206040518083038186803b158015611b1a57600080fd5b505afa158015611b2e573d6000803e3d6000fd5b505050506040513d601f19601f82011682018060405250810190611b5291906130a1565b6001600160a01b0316336001600160a01b0316145b611bb35760405162461bcd60e51b815260206004820152601960248201527f536c696365723a204e6f7420707572636861736564207965740000000000000060448201526064016101f9565b60008381526002602081815260408084203385526008810183528185209488905292825283548151818402810184019092528082526007909301929091849190830182828015611c2257602002820191906000526020600020905b815481526020019060010190808311611c0e575b50505050509150808054611c35906138b7565b80601f0160208091040260200160405190810160405280929190818152602001828054611c61906138b7565b8015611cae5780601f10611c8357610100808354040283529160200191611cae565b820191906000526020600020905b815481529060010190602001808311611c9157829003601f168201915b5050505050905091509150915091565b6000806000806000806000606088600260008281526020019081526020016000206001015460001415611d035760405162461bcd60e51b81526004016101f990613762565b60008a815260026020819052604090912080546001820154928201546003830154600484015460058501546006860180549697959660ff808716966101009004169493926001600160a01b031691908190611d5d906138b7565b80601f0160208091040260200160405190810160405280929190818152602001828054611d89906138b7565b8015611dd65780601f10611dab57610100808354040283529160200191611dd6565b820191906000526020600020905b815481529060010190602001808311611db957829003601f168201915b50505050509050995099509950995099509950995099505050919395975091939597565b60035460ff1615611e1d5760405162461bcd60e51b81526004016101f9906136ca565b7f00000000000000000000000000000000000000000000000000000000000000006001600160a01b0316638da5cb5b6040518163ffffffff1660e01b815260040160206040518083038186803b158015611e7657600080fd5b505afa158015611e8a573d6000803e3d6000fd5b505050506040513d601f19601f82011682018060405250810190611eae91906130a1565b6001600160a01b0316336001600160a01b031614611ede5760405162461bcd60e51b81526004016101f99061369c565b6001600160a01b0383166000908152600760209081526040808320546008909252822054611f0d908490613881565b611f17919061385f565b6001600160a01b03841660009081526008602052604081209192508291016000828254611f449190613847565b90915550506001600160a01b03841660009081526008602052604081208054839290611f719084906138a0565b90915550506001600160a01b03841660009081526007602052604081208054849290611f9e9084906138a0565b90915550506001600160a01b03831660009081526007602052604081208054849290611fcb908490613847565b90915550611fdc9050600984612ce3565b506001600160a01b03841660009081526007602052604090205461200557610973600985612cf8565b50505050565b600061201960035460ff1690565b156120365760405162461bcd60e51b81526004016101f9906136ca565b60005b84518110156120c55761206f85828151811061205757612057613939565b6020026020010151600b612d0d90919063ffffffff16565b156120b35760405162461bcd60e51b81526020600482015260146024820152730536c696365723a205061796d656e74206c6f6f760641b60448201526064016101f9565b806120bd816138f2565b915050612039565b5063bc197c8160e01b9695505050505050565b60008054604080516020808402820181019092528281526060939092909183018282801561110b57602002820191906000526020600020908154815260200190600101908083116110f7575050505050905090565b600083815260026020526040902060010154839061215d5760405162461bcd60e51b81526004016101f990613762565b6000848152600260205260409020600501548490612183906001600160a01b0316611309565b156121c6576000818152600260205260409020600501546001600160a01b031633146121c15760405162461bcd60e51b81526004016101f9906136f4565b6121f0565b6121cf33611309565b15156001146121f05760405162461bcd60e51b81526004016101f99061372b565b60008311801561221157506000858152600260205260409020600101548311155b61225d5760405162461bcd60e51b815260206004820152601d60248201527f536c696365723a20496e76616c69642070726f6475637420707269636500000060448201526064016101f9565b60008581526002602052604090206004015484118061227a575083155b6122c65760405162461bcd60e51b815260206004820152601b60248201527f536c696365723a20496e76616c696420756e6974732076616c7565000000000060448201526064016101f9565b6000858152600260209081526040918290206003810187905560010185905581513381529081018790529081018490527fe010e0ffb0edd9cec84ae11e21aae4c7d27ca6c7c4c353115e2024dddbfc81319060600160405180910390a15050505050565b6000610828600983612d25565b600061234560035460ff1690565b156123625760405162461bcd60e51b81526004016101f9906136ca565b61236d600b85612d0d565b156123b15760405162461bcd60e51b81526020600482015260146024820152730536c696365723a205061796d656e74206c6f6f760641b60448201526064016101f9565b5063f23a6e6160e01b95945050505050565b60008281526002602052604090206001015482906123f35760405162461bcd60e51b81526004016101f990613762565b336001600160a01b03851614806124ab57507f00000000000000000000000000000000000000000000000000000000000000006001600160a01b0316638da5cb5b6040518163ffffffff1660e01b815260040160206040518083038186803b15801561245e57600080fd5b505afa158015612472573d6000803e3d6000fd5b505050506040513d601f19601f8201168201806040525081019061249691906130a1565b6001600160a01b0316336001600160a01b0316145b6124c75760405162461bcd60e51b81526004016101f99061369c565b816125145760405162461bcd60e51b815260206004820152601a60248201527f536c696365723a20537065636966792061207175616e7469747900000000000060448201526064016101f9565b60008381526002602081905260409091200154610100900460ff166125f65760008381526002602090815260408083206001600160a01b0388168452600801909152902054156125a65760405162461bcd60e51b815260206004820152601960248201527f536c696365723a20416c7265616479207075726368617365640000000000000060448201526064016101f9565b816001146125f65760405162461bcd60e51b815260206004820152601a60248201527f536c696365723a204d6178696d756d203120707572636861736500000000000060448201526064016101f9565b6000838152600260205260409020600301541561267f5760008381526002602052604090206003810154600490910154612631908490613847565b111561267f5760405162461bcd60e51b815260206004820181905260248201527f536c696365723a20417661696c61626c6520756e69747320657863656564656460448201526064016101f9565b60008381526002602081905260408220015460ff16156127e25760007f00000000000000000000000000000000000000000000000000000000000000006001600160a01b0316638da5cb5b6040518163ffffffff1660e01b815260040160206040518083038186803b1580156126f457600080fd5b505afa158015612708573d6000803e3d6000fd5b505050506040513d601f19601f8201168201806040525081019061272c91906130a1565b90506000816001600160a01b031663bb27e0ce6040518163ffffffff1660e01b815260040160206040518083038186803b15801561276957600080fd5b505afa15801561277d573d6000803e3d6000fd5b505050506040513d601f19601f820116820180604052508101906127a19190613405565b6000878152600260205260408120600101549192509082906127cd9069d3c21bcecceda1000000613881565b6127d7919061385f565b93506127f692505050565b506000838152600260205260409020600101545b60006128028483613881565b905060005b848110156128735760008681526002602081815260408084206001600160a01b038c168552600881018352908420938a90529190526004015461284b908390613847565b815460018101835560009283526020909220909101558061286b816138f2565b915050612807565b5060008581526002602052604081206004018054869290612895908490613847565b9091555050604051637d5c36c960e11b81527f00000000000000000000000000000000000000000000000000000000000000006004820152602481018690526001600160a01b0387811660448301527f0000000000000000000000000000000000000000000000000000000000000000169063fab86d9290606401600060405180830381600087803b15801561292a57600080fd5b505af115801561293e573d6000803e3d6000fd5b5050505061294c30826106d9565b604080516001600160a01b038816815260208101879052908101859052606081018290527f60d6f49c386a464a1e459748383fc40506261360e7deafa59693623b19a716b59060800160405180910390a1505050505050565b60035460ff16156129c85760405162461bcd60e51b81526004016101f9906136ca565b7f00000000000000000000000000000000000000000000000000000000000000006001600160a01b0316638da5cb5b6040518163ffffffff1660e01b815260040160206040518083038186803b158015612a2157600080fd5b505afa158015612a35573d6000803e3d6000fd5b505050506040513d601f19601f82011682018060405250810190612a5991906130a1565b6001600160a01b0316336001600160a01b031614612a895760405162461bcd60e51b81526004016101f99061369c565b60005b82518110156107f25760006001600160a01b0316838281518110612ab257612ab2613939565b60200260200101516001600160a01b03161415612b115760405162461bcd60e51b815260206004820152601960248201527f536c696365723a204163636f756e74206e6f742076616c69640000000000000060448201526064016101f9565b6000828281518110612b2557612b25613939565b602002602001015111612b7a5760405162461bcd60e51b815260206004820152601d60248201527f536c696365723a20537065636966792073686172657320616d6f756e7400000060448201526064016101f9565b612ba7838281518110612b8f57612b8f613939565b60200260200101516009612ce390919063ffffffff16565b50818181518110612bba57612bba613939565b602002602001015160076000858481518110612bd857612bd8613939565b60200260200101516001600160a01b03166001600160a01b0316815260200190815260200160002081905550818181518110612c1657612c16613939565b6020026020010151600554612c2b9190613847565b60055580612c38816138f2565b915050612a8c565b60035460ff1615612c635760405162461bcd60e51b81526004016101f9906136ca565b6003805460ff191660011790557f62e78cea01bee320cd4e420270b5ea74000d11b0c9f74754ebdbfc544b05a258612c983390565b6040516001600160a01b03909116815260200160405180910390a1565b6000610f3d8383612d47565b6000610828825490565b6000610f3d8383612d96565b6000610f3d8383612e1c565b6000610f3d836001600160a01b038416612d47565b6000610f3d836001600160a01b038416612e1c565b60008181526001830160205260408120541515610f3d565b6001600160a01b03811660009081526001830160205260408120541515610f3d565b6000818152600183016020526040812054612d8e57508154600181810184556000848152602080822090930184905584548482528286019093526040902091909155610828565b506000610828565b81546000908210612df45760405162461bcd60e51b815260206004820152602260248201527f456e756d657261626c655365743a20696e646578206f7574206f6620626f756e604482015261647360f01b60648201526084016101f9565b826000018281548110612e0957612e09613939565b9060005260206000200154905092915050565b60008181526001830160205260408120548015612eff576000612e406001836138a0565b8554909150600090612e54906001906138a0565b90506000866000018281548110612e6d57612e6d613939565b9060005260206000200154905080876000018481548110612e9057612e90613939565b600091825260208083209091019290925582815260018901909152604090208490558654879080612ec357612ec3613923565b60019003818190600052602060002001600090559055866001016000878152602001908152602001600020600090556001945050505050610828565b6000915050610828565b828054612f15906138b7565b90600052602060002090601f016020900481019282612f375760008555612f7d565b82601f10612f5057805160ff1916838001178555612f7d565b82800160010185558215612f7d579182015b82811115612f7d578251825591602001919060010190612f62565b50612f89929150612f8d565b5090565b5b80821115612f895760008155600101612f8e565b600082601f830112612fb357600080fd5b81356020612fc8612fc383613823565b6137f2565b80838252828201915082860187848660051b8901011115612fe857600080fd5b60005b8581101561300757813584529284019290840190600101612feb565b5090979650505050505050565b600082601f83011261302557600080fd5b813567ffffffffffffffff81111561303f5761303f61394f565b613052601f8201601f19166020016137f2565b81815284602083860101111561306757600080fd5b816020850160208301376000918101602001919091529392505050565b60006020828403121561309657600080fd5b8135610f3d81613965565b6000602082840312156130b357600080fd5b8151610f3d81613965565b600080600080600060a086880312156130d657600080fd5b85356130e181613965565b945060208601356130f181613965565b9350604086013567ffffffffffffffff8082111561310e57600080fd5b61311a89838a01612fa2565b9450606088013591508082111561313057600080fd5b61313c89838a01612fa2565b9350608088013591508082111561315257600080fd5b5061315f88828901613014565b9150509295509295909350565b60008060006060848603121561318157600080fd5b833561318c81613965565b9250602084013561319c81613965565b929592945050506040919091013590565b600080600080600060a086880312156131c557600080fd5b85356131d081613965565b945060208601356131e081613965565b93506040860135925060608601359150608086013567ffffffffffffffff81111561320a57600080fd5b61315f88828901613014565b60008060006060848603121561322b57600080fd5b833561323681613965565b95602085013595506040909401359392505050565b6000806040838503121561325e57600080fd5b823567ffffffffffffffff8082111561327657600080fd5b818501915085601f83011261328a57600080fd5b8135602061329a612fc383613823565b8083825282820191508286018a848660051b89010111156132ba57600080fd5b600096505b848710156132e65780356132d281613965565b8352600196909601959183019183016132bf565b50965050860135925050808211156132fd57600080fd5b5061330a85828601612fa2565b9150509250929050565b6000602080838503121561332757600080fd5b823567ffffffffffffffff81111561333e57600080fd5b8301601f8101851361334f57600080fd5b803561335d612fc382613823565b80828252848201915084840188868560051b870101111561337d57600080fd5b60009450845b848110156133b057813563ffffffff8116811461339e578687fd5b84529286019290860190600101613383565b509098975050505050505050565b6000602082840312156133d057600080fd5b8151610f3d8161397a565b6000602082840312156133ed57600080fd5b81356001600160e01b031981168114610f3d57600080fd5b60006020828403121561341757600080fd5b5051919050565b60006020828403121561343057600080fd5b5035919050565b6000806040838503121561344a57600080fd5b82359150602083013561345c8161397a565b809150509250929050565b600080600080600080600060e0888a03121561348257600080fd5b8735965060208801359550604088013561349b8161397a565b945060608801356134ab8161397a565b93506080880135925060a088013567ffffffffffffffff808211156134cf57600080fd5b6134db8b838c01613014565b935060c08a01359150808211156134f157600080fd5b506134fe8a828b01613014565b91505092959891949750929550565b60008060006060848603121561352257600080fd5b505081359360208301359350604090920135919050565b6000815180845260005b8181101561355f57602081850181015186830182015201613543565b81811115613571576000602083870101525b50601f01601f19169290920160200192915050565b60018060a01b03851681528360208201528260408201526080606082015260006135b36080830184613539565b9695505050505050565b6020808252825182820181905260009190848201906040850190845b818110156135f5578351835292840192918401916001016135d9565b50909695505050505050565b604080825283519082018190526000906020906060840190828701845b8281101561363a5781518452928401929084019060010161361e565b505050838103828501526135b38186613539565b604080825283519082018190526000906020906060840190828701845b8281101561368d57815163ffffffff168452928401929084019060010161366b565b50505092019290925292915050565b60208082526014908201527314db1a58d95c8e88155b985d5d1a1bdc9a5e995960621b604082015260600190565b60208082526010908201526f14185d5cd8589b194e881c185d5cd95960821b604082015260600190565b6020808252601c908201527f536c696365723a204f6e6c792063726561746f7220616c6c6f77656400000000604082015260600190565b60208082526019908201527f536c696365723a204e6f7420656e6f7567682073686172657300000000000000604082015260600190565b6020808252601d908201527f536c696365723a2050726f6475637420646f65736e2774206578697374000000604082015260600190565b60006101008a8352896020840152881515604084015287151560608401528660808401528560a084015260018060a01b03851660c08401528060e08401526137e381840185613539565b9b9a5050505050505050505050565b604051601f8201601f1916810167ffffffffffffffff8111828210171561381b5761381b61394f565b604052919050565b600067ffffffffffffffff82111561383d5761383d61394f565b5060051b60200190565b6000821982111561385a5761385a61390d565b500190565b60008261387c57634e487b7160e01b600052601260045260246000fd5b500490565b600081600019048311821515161561389b5761389b61390d565b500290565b6000828210156138b2576138b261390d565b500390565b600181811c908216806138cb57607f821691505b602082108114156138ec57634e487b7160e01b600052602260045260246000fd5b50919050565b60006000198214156139065761390661390d565b5060010190565b634e487b7160e01b600052601160045260246000fd5b634e487b7160e01b600052603160045260246000fd5b634e487b7160e01b600052603260045260246000fd5b634e487b7160e01b600052604160045260246000fd5b6001600160a01b0381168114610fc857600080fd5b8015158114610fc857600080fdfea264697066735822122024cd6baeb13028075606ae3e024e9c842cfc66ed772a877692ebcd44a21d5a2c64736f6c63430008060033a2646970667358221220894a2baf8c2c499f84703b83d1934c372d7156a2441e9d373febf33525739da064736f6c63430008060033",
  "linkReferences": {},
  "deployedLinkReferences": {}
}