{
  "_format": "hh-sol-artifact-1",
  "contractName": "ProductsModule",
  "sourceName": "contracts/ProductsModule.sol",
  "abi": [
    {
      "inputs": [],
      "name": "ActiveListing",
      "type": "error"
    },
    {
      "inputs": [],
      "name": "ExceedsMaxValue",
      "type": "error"
    },
    {
      "inputs": [],
      "name": "InexistentPool",
      "type": "error"
    },
    {
      "inputs": [],
      "name": "InexistentProduct",
      "type": "error"
    },
    {
      "inputs": [],
      "name": "InsufficientPayment",
      "type": "error"
    },
    {
      "inputs": [],
      "name": "Invalid",
      "type": "error"
    },
    {
      "inputs": [],
      "name": "NoDelegatecall",
      "type": "error"
    },
    {
      "inputs": [],
      "name": "NotAuthorized",
      "type": "error"
    },
    {
      "inputs": [],
      "name": "NotPurchased",
      "type": "error"
    },
    {
      "inputs": [],
      "name": "NotSuccessful",
      "type": "error"
    },
    {
      "inputs": [],
      "name": "TooSoon",
      "type": "error"
    },
    {
      "inputs": [],
      "name": "WrongCurrency",
      "type": "error"
    },
    {
      "anonymous": false,
      "inputs": [
        {
          "indexed": false,
          "internalType": "address",
          "name": "previousAdmin",
          "type": "address"
        },
        {
          "indexed": false,
          "internalType": "address",
          "name": "newAdmin",
          "type": "address"
        }
      ],
      "name": "AdminChanged",
      "type": "event"
    },
    {
      "anonymous": false,
      "inputs": [
        {
          "indexed": true,
          "internalType": "address",
          "name": "beacon",
          "type": "address"
        }
      ],
      "name": "BeaconUpgraded",
      "type": "event"
    },
    {
      "anonymous": false,
      "inputs": [
        {
          "indexed": true,
          "internalType": "uint256",
          "name": "slicerId",
          "type": "uint256"
        },
        {
          "indexed": true,
          "internalType": "address",
          "name": "contractAddress",
          "type": "address"
        },
        {
          "indexed": true,
          "internalType": "uint256",
          "name": "tokenId",
          "type": "uint256"
        },
        {
          "indexed": false,
          "internalType": "uint256",
          "name": "currentAmount",
          "type": "uint256"
        }
      ],
      "name": "ERC1155ListingChanged",
      "type": "event"
    },
    {
      "anonymous": false,
      "inputs": [
        {
          "indexed": true,
          "internalType": "uint256",
          "name": "slicerId",
          "type": "uint256"
        },
        {
          "indexed": true,
          "internalType": "address",
          "name": "contractAddress",
          "type": "address"
        },
        {
          "indexed": true,
          "internalType": "uint256",
          "name": "tokenId",
          "type": "uint256"
        },
        {
          "indexed": false,
          "internalType": "bool",
          "name": "isActive",
          "type": "bool"
        }
      ],
      "name": "ERC721ListingChanged",
      "type": "event"
    },
    {
      "anonymous": false,
      "inputs": [
        {
          "indexed": true,
          "internalType": "address",
          "name": "previousOwner",
          "type": "address"
        },
        {
          "indexed": true,
          "internalType": "address",
          "name": "newOwner",
          "type": "address"
        }
      ],
      "name": "OwnershipTransferred",
      "type": "event"
    },
    {
      "anonymous": false,
      "inputs": [
        {
          "indexed": false,
          "internalType": "address",
          "name": "account",
          "type": "address"
        }
      ],
      "name": "Paused",
      "type": "event"
    },
    {
      "anonymous": false,
      "inputs": [
        {
          "indexed": true,
          "internalType": "uint256",
          "name": "slicerId",
          "type": "uint256"
        },
        {
          "indexed": true,
          "internalType": "uint256",
          "name": "productId",
          "type": "uint256"
        },
        {
          "indexed": true,
          "internalType": "uint256",
          "name": "categoryIndex",
          "type": "uint256"
        },
        {
          "indexed": false,
          "internalType": "address",
          "name": "creator",
          "type": "address"
        },
        {
          "components": [
            {
              "components": [
                {
                  "internalType": "uint128",
                  "name": "subSlicerId",
                  "type": "uint128"
                },
                {
                  "internalType": "uint32",
                  "name": "subProductId",
                  "type": "uint32"
                }
              ],
              "internalType": "struct SubSlicerProduct[]",
              "name": "subSlicerProducts",
              "type": "tuple[]"
            },
            {
              "components": [
                {
                  "internalType": "uint248",
                  "name": "value",
                  "type": "uint248"
                },
                {
                  "internalType": "bool",
                  "name": "dynamicPricing",
                  "type": "bool"
                },
                {
                  "internalType": "address",
                  "name": "externalAddress",
                  "type": "address"
                },
                {
                  "internalType": "address",
                  "name": "currency",
                  "type": "address"
                }
              ],
              "internalType": "struct CurrencyPrice[]",
              "name": "currencyPrices",
              "type": "tuple[]"
            },
            {
              "internalType": "bytes",
              "name": "data",
              "type": "bytes"
            },
            {
              "internalType": "bytes",
              "name": "purchaseData",
              "type": "bytes"
            },
            {
              "internalType": "uint32",
              "name": "availableUnits",
              "type": "uint32"
            },
            {
              "internalType": "uint8",
              "name": "maxUnitsPerBuyer",
              "type": "uint8"
            },
            {
              "internalType": "bool",
              "name": "isFree",
              "type": "bool"
            },
            {
              "internalType": "bool",
              "name": "isInfinite",
              "type": "bool"
            },
            {
              "internalType": "bool",
              "name": "isExternalCallPaymentRelative",
              "type": "bool"
            },
            {
              "internalType": "bool",
              "name": "isExternalCallPreferredToken",
              "type": "bool"
            }
          ],
          "indexed": false,
          "internalType": "struct ProductParams",
          "name": "params",
          "type": "tuple"
        },
        {
          "components": [
            {
              "internalType": "bytes",
              "name": "data",
              "type": "bytes"
            },
            {
              "internalType": "uint256",
              "name": "value",
              "type": "uint256"
            },
            {
              "internalType": "address",
              "name": "externalAddress",
              "type": "address"
            },
            {
              "internalType": "bytes4",
              "name": "checkFunctionSignature",
              "type": "bytes4"
            },
            {
              "internalType": "bytes4",
              "name": "execFunctionSignature",
              "type": "bytes4"
            }
          ],
          "indexed": false,
          "internalType": "struct Function",
          "name": "externalCall",
          "type": "tuple"
        }
      ],
      "name": "ProductAdded",
      "type": "event"
    },
    {
      "anonymous": false,
      "inputs": [
        {
          "indexed": true,
          "internalType": "uint256",
          "name": "slicerId",
          "type": "uint256"
        },
        {
          "indexed": true,
          "internalType": "uint256",
          "name": "productId",
          "type": "uint256"
        },
        {
          "indexed": false,
          "internalType": "uint8",
          "name": "maxUnitsPerBuyer",
          "type": "uint8"
        },
        {
          "indexed": false,
          "internalType": "bool",
          "name": "isFree",
          "type": "bool"
        },
        {
          "indexed": false,
          "internalType": "bool",
          "name": "isInfinite",
          "type": "bool"
        },
        {
          "indexed": false,
          "internalType": "uint256",
          "name": "newUnits",
          "type": "uint256"
        },
        {
          "components": [
            {
              "internalType": "uint248",
              "name": "value",
              "type": "uint248"
            },
            {
              "internalType": "bool",
              "name": "dynamicPricing",
              "type": "bool"
            },
            {
              "internalType": "address",
              "name": "externalAddress",
              "type": "address"
            },
            {
              "internalType": "address",
              "name": "currency",
              "type": "address"
            }
          ],
          "indexed": false,
          "internalType": "struct CurrencyPrice[]",
          "name": "currencyPrices",
          "type": "tuple[]"
        }
      ],
      "name": "ProductInfoChanged",
      "type": "event"
    },
    {
      "anonymous": false,
      "inputs": [
        {
          "indexed": true,
          "internalType": "uint256",
          "name": "slicerId",
          "type": "uint256"
        },
        {
          "indexed": true,
          "internalType": "uint256",
          "name": "productId",
          "type": "uint256"
        },
        {
          "indexed": false,
          "internalType": "uint256",
          "name": "quantity",
          "type": "uint256"
        },
        {
          "indexed": true,
          "internalType": "address",
          "name": "buyer",
          "type": "address"
        },
        {
          "indexed": false,
          "internalType": "address",
          "name": "currency",
          "type": "address"
        },
        {
          "components": [
            {
              "internalType": "uint256",
              "name": "eth",
              "type": "uint256"
            },
            {
              "internalType": "uint256",
              "name": "currency",
              "type": "uint256"
            },
            {
              "internalType": "uint256",
              "name": "ethExternalCall",
              "type": "uint256"
            },
            {
              "internalType": "uint256",
              "name": "currencyExternalCall",
              "type": "uint256"
            }
          ],
          "indexed": false,
          "internalType": "struct Price",
          "name": "price",
          "type": "tuple"
        }
      ],
      "name": "ProductPaid",
      "type": "event"
    },
    {
      "anonymous": false,
      "inputs": [
        {
          "indexed": true,
          "internalType": "uint256",
          "name": "slicerId",
          "type": "uint256"
        },
        {
          "indexed": true,
          "internalType": "uint256",
          "name": "productId",
          "type": "uint256"
        }
      ],
      "name": "ProductRemoved",
      "type": "event"
    },
    {
      "anonymous": false,
      "inputs": [
        {
          "indexed": true,
          "internalType": "uint256",
          "name": "slicerId",
          "type": "uint256"
        },
        {
          "indexed": false,
          "internalType": "uint256",
          "name": "ethToRelease",
          "type": "uint256"
        }
      ],
      "name": "ReleasedToSlicer",
      "type": "event"
    },
    {
      "anonymous": false,
      "inputs": [
        {
          "indexed": false,
          "internalType": "address",
          "name": "account",
          "type": "address"
        }
      ],
      "name": "Unpaused",
      "type": "event"
    },
    {
      "anonymous": false,
      "inputs": [
        {
          "indexed": true,
          "internalType": "address",
          "name": "implementation",
          "type": "address"
        }
      ],
      "name": "Upgraded",
      "type": "event"
    },
    {
      "inputs": [],
      "name": "_togglePause",
      "outputs": [],
      "stateMutability": "nonpayable",
      "type": "function"
    },
    {
      "inputs": [
        {
          "internalType": "uint256",
          "name": "slicerId",
          "type": "uint256"
        },
        {
          "components": [
            {
              "components": [
                {
                  "internalType": "uint128",
                  "name": "subSlicerId",
                  "type": "uint128"
                },
                {
                  "internalType": "uint32",
                  "name": "subProductId",
                  "type": "uint32"
                }
              ],
              "internalType": "struct SubSlicerProduct[]",
              "name": "subSlicerProducts",
              "type": "tuple[]"
            },
            {
              "components": [
                {
                  "internalType": "uint248",
                  "name": "value",
                  "type": "uint248"
                },
                {
                  "internalType": "bool",
                  "name": "dynamicPricing",
                  "type": "bool"
                },
                {
                  "internalType": "address",
                  "name": "externalAddress",
                  "type": "address"
                },
                {
                  "internalType": "address",
                  "name": "currency",
                  "type": "address"
                }
              ],
              "internalType": "struct CurrencyPrice[]",
              "name": "currencyPrices",
              "type": "tuple[]"
            },
            {
              "internalType": "bytes",
              "name": "data",
              "type": "bytes"
            },
            {
              "internalType": "bytes",
              "name": "purchaseData",
              "type": "bytes"
            },
            {
              "internalType": "uint32",
              "name": "availableUnits",
              "type": "uint32"
            },
            {
              "internalType": "uint8",
              "name": "maxUnitsPerBuyer",
              "type": "uint8"
            },
            {
              "internalType": "bool",
              "name": "isFree",
              "type": "bool"
            },
            {
              "internalType": "bool",
              "name": "isInfinite",
              "type": "bool"
            },
            {
              "internalType": "bool",
              "name": "isExternalCallPaymentRelative",
              "type": "bool"
            },
            {
              "internalType": "bool",
              "name": "isExternalCallPreferredToken",
              "type": "bool"
            }
          ],
          "internalType": "struct ProductParams",
          "name": "params",
          "type": "tuple"
        },
        {
          "components": [
            {
              "internalType": "bytes",
              "name": "data",
              "type": "bytes"
            },
            {
              "internalType": "uint256",
              "name": "value",
              "type": "uint256"
            },
            {
              "internalType": "address",
              "name": "externalAddress",
              "type": "address"
            },
            {
              "internalType": "bytes4",
              "name": "checkFunctionSignature",
              "type": "bytes4"
            },
            {
              "internalType": "bytes4",
              "name": "execFunctionSignature",
              "type": "bytes4"
            }
          ],
          "internalType": "struct Function",
          "name": "externalCall_",
          "type": "tuple"
        }
      ],
      "name": "addProduct",
      "outputs": [],
      "stateMutability": "nonpayable",
      "type": "function"
    },
    {
      "inputs": [
        {
          "internalType": "uint256",
          "name": "slicerId",
          "type": "uint256"
        },
        {
          "internalType": "uint256",
          "name": "productId",
          "type": "uint256"
        }
      ],
      "name": "availableUnits",
      "outputs": [
        {
          "internalType": "uint256",
          "name": "units",
          "type": "uint256"
        },
        {
          "internalType": "bool",
          "name": "isInfinite",
          "type": "bool"
        }
      ],
      "stateMutability": "view",
      "type": "function"
    },
    {
      "inputs": [
        {
          "internalType": "uint256",
          "name": "slicerId",
          "type": "uint256"
        }
      ],
      "name": "ethBalance",
      "outputs": [
        {
          "internalType": "uint256",
          "name": "",
          "type": "uint256"
        }
      ],
      "stateMutability": "view",
      "type": "function"
    },
    {
      "inputs": [],
      "name": "initialize",
      "outputs": [],
      "stateMutability": "nonpayable",
      "type": "function"
    },
    {
      "inputs": [
        {
          "internalType": "uint256",
          "name": "slicerId",
          "type": "uint256"
        },
        {
          "internalType": "uint256",
          "name": "productId",
          "type": "uint256"
        },
        {
          "internalType": "address",
          "name": "account",
          "type": "address"
        }
      ],
      "name": "isProductOwner",
      "outputs": [
        {
          "internalType": "bool",
          "name": "isAllowed",
          "type": "bool"
        }
      ],
      "stateMutability": "view",
      "type": "function"
    },
    {
      "inputs": [],
      "name": "owner",
      "outputs": [
        {
          "internalType": "address",
          "name": "",
          "type": "address"
        }
      ],
      "stateMutability": "view",
      "type": "function"
    },
    {
      "inputs": [],
      "name": "paused",
      "outputs": [
        {
          "internalType": "bool",
          "name": "",
          "type": "bool"
        }
      ],
      "stateMutability": "view",
      "type": "function"
    },
    {
      "inputs": [
        {
          "internalType": "address",
          "name": "buyer",
          "type": "address"
        },
        {
          "components": [
            {
              "internalType": "uint128",
              "name": "slicerId",
              "type": "uint128"
            },
            {
              "internalType": "uint32",
              "name": "quantity",
              "type": "uint32"
            },
            {
              "internalType": "address",
              "name": "currency",
              "type": "address"
            },
            {
              "internalType": "uint32",
              "name": "productId",
              "type": "uint32"
            },
            {
              "internalType": "bytes",
              "name": "buyerCustomData",
              "type": "bytes"
            }
          ],
          "internalType": "struct PurchaseParams[]",
          "name": "purchases",
          "type": "tuple[]"
        }
      ],
      "name": "payProducts",
      "outputs": [],
      "stateMutability": "payable",
      "type": "function"
    },
    {
      "inputs": [
        {
          "internalType": "uint256",
          "name": "slicerId",
          "type": "uint256"
        },
        {
          "internalType": "uint256",
          "name": "productId",
          "type": "uint256"
        },
        {
          "internalType": "address",
          "name": "currency",
          "type": "address"
        },
        {
          "internalType": "uint256",
          "name": "quantity",
          "type": "uint256"
        },
        {
          "internalType": "address",
          "name": "buyer",
          "type": "address"
        },
        {
          "internalType": "bytes",
          "name": "data",
          "type": "bytes"
        }
      ],
      "name": "productPrice",
      "outputs": [
        {
          "components": [
            {
              "internalType": "uint256",
              "name": "eth",
              "type": "uint256"
            },
            {
              "internalType": "uint256",
              "name": "currency",
              "type": "uint256"
            },
            {
              "internalType": "uint256",
              "name": "ethExternalCall",
              "type": "uint256"
            },
            {
              "internalType": "uint256",
              "name": "currencyExternalCall",
              "type": "uint256"
            }
          ],
          "internalType": "struct Price",
          "name": "price",
          "type": "tuple"
        }
      ],
      "stateMutability": "view",
      "type": "function"
    },
    {
      "inputs": [],
      "name": "proxiableUUID",
      "outputs": [
        {
          "internalType": "bytes32",
          "name": "",
          "type": "bytes32"
        }
      ],
      "stateMutability": "view",
      "type": "function"
    },
    {
      "inputs": [
        {
          "internalType": "uint256",
          "name": "slicerId",
          "type": "uint256"
        }
      ],
      "name": "releaseEthToSlicer",
      "outputs": [],
      "stateMutability": "nonpayable",
      "type": "function"
    },
    {
      "inputs": [
        {
          "internalType": "uint256",
          "name": "slicerId",
          "type": "uint256"
        },
        {
          "internalType": "uint256",
          "name": "productId",
          "type": "uint256"
        }
      ],
      "name": "removeProduct",
      "outputs": [],
      "stateMutability": "nonpayable",
      "type": "function"
    },
    {
      "inputs": [],
      "name": "renounceOwnership",
      "outputs": [],
      "stateMutability": "nonpayable",
      "type": "function"
    },
    {
      "inputs": [
        {
          "internalType": "uint256",
          "name": "slicerId",
          "type": "uint256"
        },
        {
          "internalType": "uint256",
          "name": "productId",
          "type": "uint256"
        },
        {
          "internalType": "uint8",
          "name": "newMaxUnits",
          "type": "uint8"
        },
        {
          "internalType": "bool",
          "name": "isFree",
          "type": "bool"
        },
        {
          "internalType": "bool",
          "name": "isInfinite",
          "type": "bool"
        },
        {
          "internalType": "uint32",
          "name": "newUnits",
          "type": "uint32"
        },
        {
          "components": [
            {
              "internalType": "uint248",
              "name": "value",
              "type": "uint248"
            },
            {
              "internalType": "bool",
              "name": "dynamicPricing",
              "type": "bool"
            },
            {
              "internalType": "address",
              "name": "externalAddress",
              "type": "address"
            },
            {
              "internalType": "address",
              "name": "currency",
              "type": "address"
            }
          ],
          "internalType": "struct CurrencyPrice[]",
          "name": "currencyPrices",
          "type": "tuple[]"
        }
      ],
      "name": "setProductInfo",
      "outputs": [],
      "stateMutability": "nonpayable",
      "type": "function"
    },
    {
      "inputs": [
        {
          "internalType": "address",
          "name": "newOwner",
          "type": "address"
        }
      ],
      "name": "transferOwnership",
      "outputs": [],
      "stateMutability": "nonpayable",
      "type": "function"
    },
    {
      "inputs": [
        {
          "internalType": "address",
          "name": "newImplementation",
          "type": "address"
        }
      ],
      "name": "upgradeTo",
      "outputs": [],
      "stateMutability": "nonpayable",
      "type": "function"
    },
    {
      "inputs": [
        {
          "internalType": "address",
          "name": "newImplementation",
          "type": "address"
        },
        {
          "internalType": "bytes",
          "name": "data",
          "type": "bytes"
        }
      ],
      "name": "upgradeToAndCall",
      "outputs": [],
      "stateMutability": "payable",
      "type": "function"
    },
    {
      "inputs": [
        {
          "internalType": "uint256",
          "name": "slicerId",
          "type": "uint256"
        },
        {
          "internalType": "uint256",
          "name": "productId",
          "type": "uint256"
        }
      ],
      "name": "validatePurchase",
      "outputs": [
        {
          "internalType": "uint256",
          "name": "purchases",
          "type": "uint256"
        },
        {
          "internalType": "bytes",
          "name": "purchaseData",
          "type": "bytes"
        }
      ],
      "stateMutability": "view",
      "type": "function"
    },
    {
      "inputs": [
        {
          "internalType": "address",
          "name": "account",
          "type": "address"
        },
        {
          "internalType": "uint256",
          "name": "slicerId",
          "type": "uint256"
        },
        {
          "internalType": "uint256",
          "name": "productId",
          "type": "uint256"
        }
      ],
      "name": "validatePurchaseUnits",
      "outputs": [
        {
          "internalType": "uint256",
          "name": "purchases",
          "type": "uint256"
        }
      ],
      "stateMutability": "view",
      "type": "function"
    }
  ],
  "bytecode": "0x60a06040523060805234801561001457600080fd5b50608051615a2e6200004d6000396000818161096d015281816109b601528181610bf001528181610c300152610f9f0152615a2e6000f3fe60806040526004361061011f5760003560e01c8063715018a6116100a0578063c993a08d11610064578063c993a08d14610340578063d7a3d0c814610360578063e6e928081461038d578063f2fde38b146103ad578063ff3ef63f146103cd57600080fd5b8063715018a6146102ae5780638129fc1c146102c35780638da5cb5b146102d857806395f2370414610300578063bf17f2f21461032057600080fd5b80634f1ef286116100e75780634f1ef286146102215780635287d5351461023457806352d1902d1461025457806354ed778b146102775780635c975abb1461028a57600080fd5b80630d24c670146101245780631eafafb4146101465780633659cfe6146101be578063405b4c36146101de5780634c04e9c6146101f3575b600080fd5b34801561013057600080fd5b5061014461013f366004614435565b6103ed565b005b34801561015257600080fd5b506101a4610161366004614505565b600091825260fb60209081526040808420928452600192830190915290912060080154600160c81b810463ffffffff1692600160f01b909104821c909116151590565b604080519283529015156020830152015b60405180910390f35b3480156101ca57600080fd5b506101446101d936600461453c565b610963565b3480156101ea57600080fd5b50610144610a4b565b3480156101ff57600080fd5b5061021361020e366004614505565b610a92565b6040516101b59291906145b1565b61014461022f3660046146ec565b610be6565b34801561024057600080fd5b5061014461024f366004614505565b610cb6565b34801561026057600080fd5b50610269610f92565b6040519081526020016101b5565b610144610285366004614775565b611045565b34801561029657600080fd5b5060c95460ff165b60405190151581526020016101b5565b3480156102ba57600080fd5b506101446110f6565b3480156102cf57600080fd5b5061014461112a565b3480156102e457600080fd5b506097546040516001600160a01b0390911681526020016101b5565b34801561030c57600080fd5b5061026961031b3660046148b9565b6111ea565b34801561032c57600080fd5b5061026961033b3660046148ee565b611226565b34801561034c57600080fd5b5061014461035b3660046148ee565b611263565b34801561036c57600080fd5b5061038061037b366004614907565b6112e6565b6040516101b59190614984565b34801561039957600080fd5b5061029e6103a83660046149af565b611348565b3480156103b957600080fd5b506101446103c836600461453c565b61138e565b3480156103d957600080fd5b506101446103e8366004614c1f565b611426565b600088815260fb6020908152604080832060038101548b855260019091019092529091206001600160a01b0390911690819061042a818333611ff1565b6104475760405163ea8e4eb560e01b815260040160405180910390fd5b83156107905760088101546201518064ffffffffff600160a01b9092048216011642101561048857604051636fed7d8560e01b815260040160405180910390fd5b60088101805464ffffffffff60a01b1916600160a01b4264ffffffffff160217905560408051608081018252600080825260208201819052918101829052606081019190915260005b8581101561078d578686828181106104eb576104eb614d8e565b9050608002018036038101906105019190614da4565b60608101519092506001600160a01b031615801590610541575060608201516001600160a01b0316736fa5ff63b2752265c6bd9350591f97a7dad9e91814155b156105d357606082015160405163b25e9c3960e01b81526001600160a01b0391821660048201529085169063b25e9c3990602401602060405180830381865afa158015610592573d6000803e3d6000fd5b505050506040513d601f19601f820116820180604052508101906105b69190614dc0565b6105d357604051630b27db6160e11b815260040160405180910390fd5b60608201516001600160a01b0316600090815260018401602052604090205482516001600160f81b0390811691161461064457815160608301516001600160a01b03166000908152600185016020526040902080546001600160f81b0319166001600160f81b039092169190911790555b60608201516001600160a01b0316600090815260018401602090815260409091205490830151600160f81b90910460ff161515901515146107135760608201516001600160a01b0316156106d15760006001600160a01b03166106aa83606001516120fc565b6001600160a01b0316036106d157604051632b9bb16560e11b815260040160405180910390fd5b60208083015160608401516001600160a01b031660009081526001860190925260409091208054911515600160f81b026001600160f81b039092169190911790555b60608201516001600160a01b039081166000908152600180860160205260409182902001549084015182169116146107855760408281015160608401516001600160a01b039081166000908152600187810160205293902090920180546001600160a01b031916929091169190911790555b6001016104d1565b50505b6107a38b84898963ffffffff168561224d565b8780156107bc57506008810154600160f01b9004600116155b806107dd5750871580156107dd57506008810154600160f01b900460011615155b156108085760088101805460ff600160f01b80830482166001189091160260ff60f01b199091161790555b86801561082457506008810154600160f01b9004600190811c16155b8061084857508615801561084857506008810154600160f01b9004600190811c1615155b156108735760088101805460ff600160f01b80830482166002189091160260ff60f01b199091161790555b600881015460ff8a8116600160e81b90920416146108a65760088101805460ff60e81b1916600160e81b60ff8c16021790555b86156108c35760088101805463ffffffff60c81b191690556108ff565b600881015463ffffffff878116600160c81b90920416146108ff5760088101805463ffffffff60c81b1916600160c81b63ffffffff8916021790555b898b7f47ed3606b96c516c076d9567a4deb8181f5da7370bdb1fedb883a7d3d5e890b98b8b8b8660080160199054906101000a900463ffffffff168b8b60405161094e96959493929190614ddd565b60405180910390a35050505050505050505050565b6001600160a01b037f00000000000000000000000000000000000000000000000000000000000000001630036109b45760405162461bcd60e51b81526004016109ab90614ea0565b60405180910390fd5b7f00000000000000000000000000000000000000000000000000000000000000006001600160a01b03166109fd600080516020615992833981519152546001600160a01b031690565b6001600160a01b031614610a235760405162461bcd60e51b81526004016109ab90614eec565b610a2c81612520565b60408051600080825260208201909252610a489183919061254a565b50565b6097546001600160a01b03163314610a755760405162461bcd60e51b81526004016109ab90614f38565b60c95460ff1615610a8a57610a886126b5565b565b610a88612748565b600060603073689bba0e25c259b205ece8e6152ee1eacf307f5f14610aca5760405163acbcffa760e01b815260040160405180910390fd5b600084815260fb60209081526040808320868452600101825280832033845290915281205463ffffffff169003610b14576040516363aae7a360e01b815260040160405180910390fd5b600084815260fb602090815260408083208684526001018083528184203385528084529184205493879052909152600701805463ffffffff909216918190610b5b90614f6d565b80601f0160208091040260200160405190810160405280929190818152602001828054610b8790614f6d565b8015610bd45780601f10610ba957610100808354040283529160200191610bd4565b820191906000526020600020905b815481529060010190602001808311610bb757829003601f168201915b50505050509050915091509250929050565b6001600160a01b037f0000000000000000000000000000000000000000000000000000000000000000163003610c2e5760405162461bcd60e51b81526004016109ab90614ea0565b7f00000000000000000000000000000000000000000000000000000000000000006001600160a01b0316610c77600080516020615992833981519152546001600160a01b031690565b6001600160a01b031614610c9d5760405162461bcd60e51b81526004016109ab90614eec565b610ca682612520565b610cb28282600161254a565b5050565b600082815260fb60209081526040808320600381015485855260019091019092529091206001600160a01b03909116908190610cf3818333611ff1565b610d105760405163ea8e4eb560e01b815260040160405180910390fd5b60058101546001600160a01b03808516911603610f3657600080826003016000018054610d3c90614f6d565b80601f0160208091040260200160405190810160405280929190818152602001828054610d6890614f6d565b8015610db55780601f10610d8a57610100808354040283529160200191610db5565b820191906000526020600020905b815481529060010190602001808311610d9857829003601f168201915b5050505050806020019051810190610dcd9190614fa7565b600585015491935091506302868bf960e11b600160c01b90910460e01b6001600160e01b03191601610e6857600087815260fc602090815260408083206001600160a01b0386168085529083528184208585528352818420805460ff191690559051928352839290918a917f76529e1c5add2962fbfae2a36bbcf688a5c01516b043ad429f1d81830687a2db910160405180910390a4610f33565b600583015462fc808960e71b600160c01b90910460e01b6001600160e01b03191601610f33576008830154600088815260fd602090815260408083206001600160a01b0387168452825280832085845290915281208054600160c81b90930463ffffffff1692909190610edc908490614feb565b9091555050600087815260fd602090815260408083206001600160a01b0386168085529083528184208585528352928190205490519081528392918a916000805160206159d9833981519152910160405180910390a45b50505b600881018054600168ffffffff000000000160a01b0319169055610f5e600682016000614316565b604051849086907fd647384cccbd8b477a7b02b9e866072937e9a23b473b9de13fc0c6cb1d392a0a90600090a35050505050565b6000306001600160a01b037f000000000000000000000000000000000000000000000000000000000000000016146110325760405162461bcd60e51b815260206004820152603860248201527f555550535570677261646561626c653a206d757374206e6f742062652063616c60448201527f6c6564207468726f7567682064656c656761746563616c6c000000000000000060648201526084016109ab565b5060008051602061599283398151915290565b60c95460ff161561108b5760405162461bcd60e51b815260206004820152601060248201526f14185d5cd8589b194e881c185d5cd95960821b60448201526064016109ab565b6000805b82518110156110cf576110bb848483815181106110ae576110ae614d8e565b60200260200101516127c3565b6110c59083615002565b915060010161108f565b50803410156110f15760405163cd1c886760e01b815260040160405180910390fd5b505050565b6097546001600160a01b031633146111205760405162461bcd60e51b81526004016109ab90614f38565b610a8860006132c6565b600054610100900460ff166111455760005460ff1615611149565b303b155b6111ac5760405162461bcd60e51b815260206004820152602e60248201527f496e697469616c697a61626c653a20636f6e747261637420697320616c72656160448201526d191e481a5b9a5d1a585b1a5e995960921b60648201526084016109ab565b600054610100900460ff161580156111ce576000805461ffff19166101011790555b6111d6613318565b8015610a48576000805461ff001916905550565b600082815260fb6020908152604080832084845260010182528083206001600160a01b038716845290915290205463ffffffff165b9392505050565b600081815260fb602052604081206002015460011061124657600061125d565b600082815260fb6020526040902060020154600019015b92915050565b600061126e82611226565b90508015610cb257600082815260fb60205260409020600381015460016002909201919091556001600160a01b03166112a78183613347565b827f04cc711f7db61e897a32f3fe3e3faa9861b68d7d19fd9a669348213087b22726836040516112d991815260200190565b60405180910390a2505050565b6113116040518060800160405280600081526020016000815260200160008152602001600081525090565b600087815260fb60209081526040808320898452600101909152902061133c81898989898989613398565b98975050505050505050565b600083815260fb6020818152604080842086855260018101835290842087855292909152600301546001600160a01b0316611384828286611ff1565b9695505050505050565b6097546001600160a01b031633146113b85760405162461bcd60e51b81526004016109ab90614f38565b6001600160a01b03811661141d5760405162461bcd60e51b815260206004820152602660248201527f4f776e61626c653a206e6577206f776e657220697320746865207a65726f206160448201526564647265737360d01b60648201526084016109ab565b610a48816132c6565b600083815260fb6020526040902080546001019081905563ffffffff81111561146257604051636dac6a0960e01b815260040160405180910390fd5b806001036115ac57604051630bafd3f560e11b8152600481018590526000907321da1b084175f95285b49b22c018889c45e1820d9063175fa7ea90602401602060405180830381865afa1580156114bd573d6000803e3d6000fd5b505050506040513d601f19601f820116820180604052508101906114e1919061501a565b6001600160a01b03160361150857604051636dac6a0960e01b815260040160405180910390fd5b604051630bafd3f560e11b8152600481018590527321da1b084175f95285b49b22c018889c45e1820d9063175fa7ea90602401602060405180830381865afa158015611558573d6000803e3d6000fd5b505050506040513d601f19601f8201168201806040525081019061157c919061501a565b600085815260fb6020526040902060030180546001600160a01b0319166001600160a01b03929092169190911790555b600084815260fb60205260409081902060030154905163166eb15b60e21b81523360048201526001600160a01b039091169081906359bac56c90602401602060405180830381865afa158015611606573d6000803e3d6000fd5b505050506040513d601f19601f8201168201806040525081019061162a9190614dc0565b6116475760405163ea8e4eb560e01b815260040160405180910390fd5b600085815260fb6020908152604080832063ffffffff861684526001019091529020845151156117705760005b85515181101561176e576116fe60fb60008860000151848151811061169b5761169b614d8e565b6020026020010151600001516001600160801b031681526020019081526020016000206001016000886000015184815181106116d9576116d9614d8e565b60200260200101516020015163ffffffff168152602001908152602001600020613830565b816002018660000151828151811061171857611718614d8e565b602090810291909101810151825460018181018555600094855293839020825191018054929093015163ffffffff16600160801b026001600160a01b03199092166001600160801b039091161717905501611674565b505b6040805160808101825260008082526020820181905291810182905260608101829052905b86602001515181101561199657866020015181815181106117b8576117b8614d8e565b6020026020010151915060006001600160a01b031682606001516001600160a01b03161415801561180a575060608201516001600160a01b0316736fa5ff63b2752265c6bd9350591f97a7dad9e91814155b80156118835750606082015160405163b25e9c3960e01b81526001600160a01b0391821660048201529085169063b25e9c3990602401602060405180830381865afa15801561185d573d6000803e3d6000fd5b505050506040513d601f19601f820116820180604052508101906118819190614dc0565b155b156118a157604051630b27db6160e11b815260040160405180910390fd5b81516001600160f81b0316156118ef57815160608301516001600160a01b03166000908152600185016020526040902080546001600160f81b0319166001600160f81b039092169190911790555b81602001511561193b5760208083015160608401516001600160a01b031660009081526001860190925260409091208054911515600160f81b026001600160f81b039092169190911790555b60408201516001600160a01b03161561198e5760408281015160608401516001600160a01b039081166000908152600187810160205293902090920180546001600160a01b031916929091169190911790555b600101611795565b5060408501516001600160a01b031615611e8657826001600160a01b031685604001516001600160a01b031603611d275760008086600001518060200190518101906119e29190614fa7565b608089015191935091506001600160e01b0319166302868bf960e11b01611b9057876080015163ffffffff166001141580611a2557508760a0015160ff16600114155b80611a3157508760e001515b80611ab157506040516331a9108f60e11b8152600481018290526001600160a01b038087169190841690636352211e90602401602060405180830381865afa158015611a81573d6000803e3d6000fd5b505050506040513d601f19601f82011682018060405250810190611aa5919061501a565b6001600160a01b031614155b15611acf5760405163ea8e4eb560e01b815260040160405180910390fd5b600089815260fc602090815260408083206001600160a01b0386168452825280832084845290915290205460ff1615611b1b576040516319e7a92b60e31b815260040160405180910390fd5b600089815260fc602090815260408083206001600160a01b038616808552908352818420858552835292819020805460ff1916600190811790915590519081528392918c917f76529e1c5add2962fbfae2a36bbcf688a5c01516b043ad429f1d81830687a2db910160405180910390a4611d24565b60808701516001600160e01b03191662fc808960e71b01611d24578760e0015180611c675750604051627eeac760e11b81526001600160a01b0386811660048301526024820183905283169062fdd58e90604401602060405180830381865afa158015611c01573d6000803e3d6000fd5b505050506040513d601f19601f82011682018060405250810190611c259190615037565b60008a815260fd602090815260408083206001600160a01b0387168452825280832085845290915290205460808a0151611c65919063ffffffff16615002565b115b15611c8557604051636dac6a0960e01b815260040160405180910390fd5b608088015160008a815260fd602090815260408083206001600160a01b038716845282528083208584529091528120805463ffffffff90931692909190611ccd908490615002565b9091555050600089815260fd602090815260408083206001600160a01b0386168085529083528184208585528352928190205490519081528392918c916000805160206159d9833981519152910160405180910390a45b50505b60408501516005830180546001600160a01b0319166001600160a01b0390921691909117905560808501516001600160e01b03191615611dc857608085015160058301805460e09290921c600160c01b0263ffffffff60c01b1990921691909117905560608501516001600160e01b03191615611dc857606085015160058301805460e09290921c600160a01b0263ffffffff60a01b199092169190911790555b84515115611dea5784518051611de8916003850191602090910190614350565b505b602085015115611dff57602085015160048301555b85610120015115611e2e5760088201805460ff60f01b1981166004600160f01b9283900460ff16179091021790555b85610100015115611e865761271085602001511115611e6057604051633806212b60e21b815260040160405180910390fd5b6008828101805460ff60f01b198116600160f01b9182900460ff16909317029190911790555b6008820180546001600160a01b0319163317905560c086015115611ec85760088201805460ff60f01b1981166001600160f01b9283900460ff16179091021790555b60a086015160ff1615611efb5760a086015160088301805460ff909216600160e81b0260ff60e81b199092169190911790555b8560e0015115611f2d5760088201805460ff60f01b1981166002600160f01b9283900460ff1617909102179055611f59565b608086015160088301805463ffffffff909216600160c81b0263ffffffff60c81b199092169190911790555b60408601515115611f815760408601518051611f7f916006850191602090910190614350565b505b60608601515115611fa95760608601518051611fa7916007850191602090910190614350565b505b600084887f029a4465749d55fe5b28a7e348370e8ef8083bf6deb663e933b59f8dbe7500e7338a8a604051611fe093929190615170565b60405180910390a450505050505050565b6000611ffc84613830565b600884015460405163166eb15b60e21b81526001600160a01b039182166004820152908416906359bac56c90602401602060405180830381865afa158015612048573d6000803e3d6000fd5b505050506040513d601f19601f8201168201806040525081019061206c9190614dc0565b1561208a575060088301546001600160a01b0382811691161461121f565b60405163166eb15b60e21b81526001600160a01b0383811660048301528416906359bac56c90602401602060405180830381865afa1580156120d0573d6000803e3d6000fd5b505050506040513d601f19601f820116820180604052508101906120f49190614dc0565b949350505050565b604051630b4c774160e11b81526001600160a01b038216600482015273c02aaa39b223fe8d0a0e5c4f27ead9083c756cc26024820152610bb860448201526000908190731f98431c8ad98523631ae4a59f267346ea31f98490631698ee8290606401602060405180830381865afa15801561217b573d6000803e3d6000fd5b505050506040513d601f19601f8201168201806040525081019061219f919061501a565b90506001600160a01b03811661125d57604051630b4c774160e11b81526001600160a01b038416600482015273c02aaa39b223fe8d0a0e5c4f27ead9083c756cc260248201526127106044820152731f98431c8ad98523631ae4a59f267346ea31f98490631698ee8290606401602060405180830381865afa158015612229573d6000803e3d6000fd5b505050506040513d601f19601f8201168201806040525081019061121f919061501a565b60058101546001600160a01b038086169116036125195760008082600301600001805461227990614f6d565b80601f01602080910402602001604051908101604052809291908181526020018280546122a590614f6d565b80156122f25780601f106122c7576101008083540402835291602001916122f2565b820191906000526020600020905b8154815290600101906020018083116122d557829003601f168201915b505050505080602001905181019061230a9190614fa7565b600585015491935091506302868bf960e11b600160c01b90910460e01b6001600160e01b03191601612376576008830154600160c81b900463ffffffff16841415806123535750845b1561237157604051636dac6a0960e01b815260040160405180910390fd5b612516565b600583015462fc808960e71b600160c01b90910460e01b6001600160e01b031916016125165784156123bb57604051636dac6a0960e01b815260040160405180910390fd5b6008830154600160c81b900463ffffffff16841461251657604051627eeac760e11b81526001600160a01b038781166004830152602482018390526000919084169062fdd58e90604401602060405180830381865afa158015612422573d6000803e3d6000fd5b505050506040513d601f19601f820116820180604052508101906124469190615037565b600885015460008a815260fd602090815260408083206001600160a01b0389168452825280832087845290915281205492935091600160c81b90910463ffffffff1690612494908890615002565b61249e9190614feb565b9050818111156124c157604051636dac6a0960e01b815260040160405180910390fd5b600089815260fd602090815260408083206001600160a01b038816808552908352818420878552835292819020849055518381528592918c916000805160206159d9833981519152910160405180910390a450505b50505b5050505050565b6097546001600160a01b03163314610a485760405162461bcd60e51b81526004016109ab90614f38565b7f4910fdfa16fed3260ed0e7147f7cc6da11a60208b5b9406d12a635614ffd91435460ff161561257d576110f18361385b565b826001600160a01b03166352d1902d6040518163ffffffff1660e01b8152600401602060405180830381865afa9250505080156125d7575060408051601f3d908101601f191682019092526125d491810190615037565b60015b61263a5760405162461bcd60e51b815260206004820152602e60248201527f45524331393637557067726164653a206e657720696d706c656d656e7461746960448201526d6f6e206973206e6f74205555505360901b60648201526084016109ab565b60008051602061599283398151915281146126a95760405162461bcd60e51b815260206004820152602960248201527f45524331393637557067726164653a20756e737570706f727465642070726f786044820152681a58589b195555525160ba1b60648201526084016109ab565b506110f18383836138f7565b60c95460ff166126fe5760405162461bcd60e51b815260206004820152601460248201527314185d5cd8589b194e881b9bdd081c185d5cd95960621b60448201526064016109ab565b60c9805460ff191690557f5db9ee0a495bf2e6ff9c91a7834c1ba4fdd244a5e8aa4e537bd38aeae4b073aa335b6040516001600160a01b03909116815260200160405180910390a1565b60c95460ff161561278e5760405162461bcd60e51b815260206004820152601060248201526f14185d5cd8589b194e881c185d5cd95960821b60448201526064016109ab565b60c9805460ff191660011790557f62e78cea01bee320cd4e420270b5ea74000d11b0c9f74754ebdbfc544b05a25861272b3390565b6000816020015163ffffffff1660001461125d57600060fb600084600001516001600160801b031681526020019081526020016000206001016000846060015163ffffffff168152602001908152602001600020905060006128538285600001516001600160801b0316866060015163ffffffff168760400151886020015163ffffffff168a8a60800151613398565b84516001600160801b0316600090815260fb602052604090206003015460088401549192506001600160a01b031690600160e81b900460ff16156128f65760088301546020868101516001600160a01b038916600090815291869052604090912054600160e81b90920460ff16916128d1919063ffffffff16615275565b63ffffffff1611156128f657604051636dac6a0960e01b815260040160405180910390fd5b6008830154600160f01b9004600190811c1660000361297e576008830154602086015163ffffffff600160c81b90920482169116111561294957604051636dac6a0960e01b815260040160405180910390fd5b602085015160088401805463ffffffff600160c81b8083048216949094031690920263ffffffff60c81b199092169190911790555b6040820151825161298f9190615002565b825186516001600160801b0316600090815260fb60205260408120600201805493975091926129bf908490615002565b90915550506020808601516001600160a01b038816600090815291859052604082208054919290916129f890849063ffffffff16615275565b92506101000a81548163ffffffff021916908363ffffffff1602179055508160200151600014612aaa57604080860151602084015191516323b872dd60e01b81526001600160a01b038981166004830152848116602483015260448201939093529116906323b872dd906064016020604051808303816000875af1158015612a84573d6000803e3d6000fd5b505050506040513d601f19601f82011682018060405250810190612aa89190614dc0565b505b600283015415612b7b5760005b6002840154811015612b7957612b65876040518060a00160405280876002018581548110612ae757612ae7614d8e565b600091825260209182902001546001600160801b031682528a81015163ffffffff16908201526040808b01516001600160a01b03169082015260028801805460609092019186908110612b3c57612b3c614d8e565b60009182526020918290200154600160801b900463ffffffff16825260808b01519101526127c3565b612b6f9086615002565b9450600101612ab7565b505b60058301546001600160a01b031615613257576005830154600090600160c01b900460e01b6001600160e01b03191615612fbd5760058401546001600160a01b03808416911603612ee457600080856003016000018054612bdb90614f6d565b80601f0160208091040260200160405190810160405280929190818152602001828054612c0790614f6d565b8015612c545780601f10612c2957610100808354040283529160200191612c54565b820191906000526020600020905b815481529060010190602001808311612c3757829003601f168201915b5050505050806020019051810190612c6c9190614fa7565b600588015491935091506302868bf960e11b600160c01b90910460e01b6001600160e01b03191601612d855760405163ce55982b60e01b81526001600160a01b038a8116600483015283811660248301526044820183905285169063ce55982b90606401600060405180830381600087803b158015612cea57600080fd5b505af1158015612cfe573d6000803e3d6000fd5b505089516001600160801b03908116600090815260fc602090815260408083206001600160a01b0389168085529083528184208885528352818420805460ff191690558e519151938452600199508796509450909216917f76529e1c5add2962fbfae2a36bbcf688a5c01516b043ad429f1d81830687a2db910160405180910390a4612edd565b600586015462fc808960e71b600160c01b90910460e01b6001600160e01b03191601612edd57602088015160405163296789eb60e11b81526001600160a01b038b81166004830152848116602483015263ffffffff909216604482015260648101839052908516906352cf13d690608401600060405180830381600087803b158015612e1057600080fd5b505af1158015612e24573d6000803e3d6000fd5b5050506020808a01518a516001600160801b0316600090815260fd835260408082206001600160a01b03881683528452808220868352909352918220805463ffffffff90921693509190612e79908490614feb565b909155505087516001600160801b0316600081815260fd602090815260408083206001600160a01b038716808552908352818420868552835292819020549051908152600196508493916000805160206159d9833981519152910160405180910390a45b5050613237565b6005840154604080850151885160608a015160208b015160808c015194516001600160a01b038716969495600160c01b90950460e01b94612f329493928f92909160038e019160240161529d565b60408051601f198184030181529181526020820180516001600160e01b03166001600160e01b0319909416939093179092529051612f709190615393565b60006040518083038185875af1925050503d8060008114612fad576040519150601f19603f3d011682016040523d82523d6000602084013e612fb2565b606091505b505080915050613237565b60608301511561311357736bca3dfd6c2b146dcdd460174de95fd1e26960bc6001600160a01b03166359fc470a87600001518660030160020160009054906101000a90046001600160a01b0316896040015187606001516103e8886001600160a01b031663ced72f876040518163ffffffff1660e01b8152600401602060405180830381865afa158015613055573d6000803e3d6000fd5b505050506040513d601f19601f820116820180604052508101906130799190615037565b8a6060015161308891906153af565b61309291906153e4565b6040516001600160e01b031960e088901b1681526001600160801b0390951660048601526001600160a01b0393841660248601529290911660448401526064830152608482015260a401600060405180830381600087803b1580156130f657600080fd5b505af115801561310a573d6000803e3d6000fd5b50505050613233565b736bca3dfd6c2b146dcdd460174de95fd1e26960bc6001600160a01b03166339ed512384604001518660030160020160009054906101000a90046001600160a01b03166103e8866001600160a01b031663ced72f876040518163ffffffff1660e01b8152600401602060405180830381865afa158015613197573d6000803e3d6000fd5b505050506040513d601f19601f820116820180604052508101906131bb9190615037565b88604001516131ca91906153af565b6131d491906153e4565b6040516001600160e01b031960e086901b1681526001600160a01b03909216600483015260248201526044016000604051808303818588803b15801561321957600080fd5b505af115801561322d573d6000803e3d6000fd5b50505050505b5060015b806132555760405163af6eefa360e01b815260040160405180910390fd5b505b856001600160a01b0316856060015163ffffffff1686600001516001600160801b03167fb5fcbfbc97629da9c45f418c65a8ed3e96873f8e54c6c435180455987431e7a088602001518960400151876040516132b5939291906153f8565b60405180910390a450505092915050565b609780546001600160a01b038381166001600160a01b0319831681179093556040519116919082907f8be0079c531659141344cd1fd0a4f28419497f9722a3daafe3b4186f6b6457e090600090a35050565b600054610100900460ff1661333f5760405162461bcd60e51b81526004016109ab90615442565b610a88613922565b600080600080600085875af19050806110f15760405162461bcd60e51b815260206004820152601360248201527211551217d514905394d1915497d19052531151606a1b60448201526064016109ab565b6133c36040518060800160405280600081526020016000815260200160008152602001600081525090565b6133cc88613830565b6001600160a01b0380861660009081526001808b016020908152604092839020835160608101855281546001600160f81b038116825260ff600160f81b909104811615159382019390935292015490931691810182905260088b01549092600160f01b909104169061367d576001600160a01b038716613467578561345683600184161515613952565b61346091906153af565b83526136ff565b8160200151156135ed57600080805260018b0160205260409020546001600160f81b03161515806134a1575081516001600160f81b031615155b156135c45781516000906001600160f81b0316810361351e57600080805260018c81016020908152604092839020835160608101855281546001600160f81b0381168252600160f81b900460ff161515928101929092528201546001600160a01b031692810192909252613519919084161515613952565b61352a565b82516001600160f81b03165b905086613539898360646139d3565b61354391906153af565b602085018190526000036135be57600080805260018c81016020908152604092839020835160608101855281546001600160f81b0381168252600160f81b900460ff161515928101929092528201546001600160a01b03169281019290925288916135b19185161515613952565b6135bb91906153af565b84525b506136ff565b600181166000036135e857604051630b27db6160e11b815260040160405180910390fd5b6136ff565b81516001600160f81b03161561361d5781516136139087906001600160f81b03166153af565b60208401526136ff565b600080805260018b81016020908152604092839020835160608101855281546001600160f81b0381168252600160f81b900460ff161515928101929092528201546001600160a01b03169281019290925287916134569184161515613952565b81604001516001600160a01b031663d7a3d0c88a8a8a8a8a8a6040518763ffffffff1660e01b81526004016136b79695949392919061548d565b6040805180830381865afa1580156136d3573d6000803e3d6000fd5b505050506040513d601f19601f820116820180604052508101906136f791906154cd565b602085015283525b60048a015415613823576001600382901c16158015613783576001600283901c161580159061376757846020015160000361374d57604051630b27db6160e11b815260040160405180910390fd5b60048c015461375d9089906153af565b606086015261377d565b60048c01546137779089906153af565b60408601525b50613821565b6020840151156137dc57866127108c6003016001015486602001516137a891906153af565b6137b291906153e4565b6137bc91906153af565b606085018190526020850180516137d4908390614feb565b905250613821565b60048b015484518891612710916137f391906153af565b6137fd91906153e4565b61380791906153af565b604085018190528451859061381d908390614feb565b9052505b505b5050979650505050505050565b60088101546001600160a01b0316610a48576040516329c2f8dd60e11b815260040160405180910390fd5b6001600160a01b0381163b6138c85760405162461bcd60e51b815260206004820152602d60248201527f455243313936373a206e657720696d706c656d656e746174696f6e206973206e60448201526c1bdd08184818dbdb9d1c9858dd609a1b60648201526084016109ab565b60008051602061599283398151915280546001600160a01b0319166001600160a01b0392909216919091179055565b61390083613d19565b60008251118061390d5750805b156110f15761391c8383613d59565b50505050565b600054610100900460ff166139495760405162461bcd60e51b81526004016109ab90615442565b610a88336132c6565b81516000906001600160f81b031615801561396b575081155b1561398957604051630b27db6160e11b815260040160405180910390fd5b82602001516139a25782516001600160f81b031661121f565b6139aa613e4d565b83516139c09069d3c21bcecceda10000006154f1565b6001600160f81b031661121f91906153e4565b6000806139df856120fc565b90506001600160a01b03811615613d0f576000856001600160a01b031663313ce5676040518163ffffffff1660e01b8152600401602060405180830381865afa158015613a30573d6000803e3d6000fd5b505050506040513d601f19601f82011682018060405250810190613a549190615520565b60ff16905060008460010b600003613ae157826001600160a01b0316633850c7bd6040518163ffffffff1660e01b815260040160e060405180830381865afa158015613aa4573d6000803e3d6000fd5b505050506040513d601f19601f82011682018060405250810190613ac8919061554f565b50506001600160a01b039094169450613c0a9350505050565b6040805160028082526060820183526000926020830190803683370190505090508561ffff1681600081518110613b1a57613b1a614d8e565b63ffffffff9092166020928302919091019091015260405163883bdbfd60e01b81526000906001600160a01b0386169063883bdbfd90613b5e9085906004016155e8565b600060405180830381865afa158015613b7b573d6000803e3d6000fd5b505050506040513d6000823e601f3d908101601f19168201604052613ba39190810190615696565b509050613bfc8760010b82600081518110613bc057613bc0614d8e565b602002602001015183600181518110613bdb57613bdb614d8e565b6020026020010151613bed9190615757565b613bf791906157a7565b613ed1565b6001600160a01b0316925050505b600060026060613c1e84633b9aca006153af565b613c2992911c6158c9565b9050876001600160a01b0316846001600160a01b0316630dfe16816040518163ffffffff1660e01b8152600401602060405180830381865afa158015613c73573d6000803e3d6000fd5b505050506040513d601f19601f82011682018060405250810190613c97919061501a565b6001600160a01b031614613ce357613cb0836018614feb565b613cbb90600a6158d8565b613cca64e8d4a51000896153e4565b613cd490836153af565b613cde91906153e4565b613d04565b8087613cf085600a6158d8565b613cfa91906153af565b613d0491906153e4565b94505050505061121f565b600091505061121f565b613d228161385b565b6040516001600160a01b038216907fbc7cd75a20ee27fd9adebab32041f755214dbc6bffa90cc0225b39da2e5c2d3b90600090a250565b60606001600160a01b0383163b613dc15760405162461bcd60e51b815260206004820152602660248201527f416464726573733a2064656c65676174652063616c6c20746f206e6f6e2d636f6044820152651b9d1c9858dd60d21b60648201526084016109ab565b600080846001600160a01b031684604051613ddc9190615393565b600060405180830381855af49150503d8060008114613e17576040519150601f19603f3d011682016040523d82523d6000602084013e613e1c565b606091505b5091509150613e4482826040518060600160405280602781526020016159b2602791396142dd565b95945050505050565b600080735f4ec3df9cbd43714fe2740f5e3616155c5b84196001600160a01b031663feaf968c6040518163ffffffff1660e01b815260040160a060405180830381865afa158015613ea2573d6000803e3d6000fd5b505050506040513d601f19601f82011682018060405250810190613ec691906158fe565b509195945050505050565b60008060008360020b12613ee8578260020b613ef5565b8260020b613ef59061594e565b9050620d89e8811115613f2e5760405162461bcd60e51b81526020600482015260016024820152601560fa1b60448201526064016109ab565b600081600116600003613f4557600160801b613f57565b6ffffcb933bd6fad37aa2d162d1a5940015b70ffffffffffffffffffffffffffffffffff1690506002821615613f96576080613f91826ffff97272373d413259a46990580e213a6153af565b901c90505b6004821615613fc0576080613fbb826ffff2e50f5f656932ef12357cf3c7fdcc6153af565b901c90505b6008821615613fea576080613fe5826fffe5caca7e10e4e61c3624eaa0941cd06153af565b901c90505b601082161561401457608061400f826fffcb9843d60f6159c9db58835c9266446153af565b901c90505b602082161561403e576080614039826fff973b41fa98c081472e6896dfb254c06153af565b901c90505b6040821615614068576080614063826fff2ea16466c96a3843ec78b326b528616153af565b901c90505b608082161561409257608061408d826ffe5dee046a99a2a811c461f1969c30536153af565b901c90505b6101008216156140bd5760806140b8826ffcbe86c7900a88aedcffc83b479aa3a46153af565b901c90505b6102008216156140e85760806140e3826ff987a7253ac413176f2b074cf7815e546153af565b901c90505b61040082161561411357608061410e826ff3392b0822b70005940c7a398e4b70f36153af565b901c90505b61080082161561413e576080614139826fe7159475a2c29b7443b29c7fa6e889d96153af565b901c90505b611000821615614169576080614164826fd097f3bdfd2022b8845ad8f792aa58256153af565b901c90505b61200082161561419457608061418f826fa9f746462d870fdf8a65dc1f90e061e56153af565b901c90505b6140008216156141bf5760806141ba826f70d869a156d2a1b890bb3df62baf32f76153af565b901c90505b6180008216156141ea5760806141e5826f31be135f97d08fd981231505542fcfa66153af565b901c90505b62010000821615614216576080614211826f09aa508b5b7a84e1c677de54f3e99bc96153af565b901c90505b6202000082161561424157608061423c826e5d6af8dedb81196699c329225ee6046153af565b901c90505b6204000082161561426b576080614266826d2216e584f5fa1ea926041bedfe986153af565b901c90505b6208000082161561429357608061428e826b048a170391f7dc42444e8fa26153af565b901c90505b60008460020b13156142ae576142ab816000196153e4565b90505b6142bd6401000000008261596a565b156142c95760016142cc565b60005b6120f49060ff16602083901c615002565b606083156142ec57508161121f565b8251156142fc5782518084602001fd5b8160405162461bcd60e51b81526004016109ab919061597e565b50805461432290614f6d565b6000825580601f10614332575050565b601f016020900490600052602060002090810190610a4891906143d4565b82805461435c90614f6d565b90600052602060002090601f01602090048101928261437e57600085556143c4565b82601f1061439757805160ff19168380011785556143c4565b828001600101855582156143c4579182015b828111156143c45782518255916020019190600101906143a9565b506143d09291506143d4565b5090565b5b808211156143d057600081556001016143d5565b60ff81168114610a4857600080fd5b8035614403816143e9565b919050565b8015158114610a4857600080fd5b803561440381614408565b803563ffffffff8116811461440357600080fd5b60008060008060008060008060e0898b03121561445157600080fd5b8835975060208901359650604089013561446a816143e9565b9550606089013561447a81614408565b9450608089013561448a81614408565b935061449860a08a01614421565b925060c08901356001600160401b03808211156144b457600080fd5b818b0191508b601f8301126144c857600080fd5b8135818111156144d757600080fd5b8c60208260071b85010111156144ec57600080fd5b6020830194508093505050509295985092959890939650565b6000806040838503121561451857600080fd5b50508035926020909101359150565b6001600160a01b0381168114610a4857600080fd5b60006020828403121561454e57600080fd5b813561121f81614527565b60005b8381101561457457818101518382015260200161455c565b8381111561391c5750506000910152565b6000815180845261459d816020860160208601614559565b601f01601f19169290920160200192915050565b8281526040602082015260006120f46040830184614585565b634e487b7160e01b600052604160045260246000fd5b60405160a081016001600160401b0381118282101715614602576146026145ca565b60405290565b604080519081016001600160401b0381118282101715614602576146026145ca565b60405161014081016001600160401b0381118282101715614602576146026145ca565b604051601f8201601f191681016001600160401b0381118282101715614675576146756145ca565b604052919050565b600082601f83011261468e57600080fd5b81356001600160401b038111156146a7576146a76145ca565b6146ba601f8201601f191660200161464d565b8181528460208386010111156146cf57600080fd5b816020850160208301376000918101602001919091529392505050565b600080604083850312156146ff57600080fd5b823561470a81614527565b915060208301356001600160401b0381111561472557600080fd5b6147318582860161467d565b9150509250929050565b60006001600160401b03821115614754576147546145ca565b5060051b60200190565b80356001600160801b038116811461440357600080fd5b6000806040838503121561478857600080fd5b823561479381614527565b91506020838101356001600160401b03808211156147b057600080fd5b818601915086601f8301126147c457600080fd5b81356147d76147d28261473b565b61464d565b81815260059190911b830184019084810190898311156147f657600080fd5b8585015b838110156148a85780358581111561481157600080fd5b860160a0818d03601f190112156148285760008081fd5b6148306145e0565b61483b89830161475e565b815261484960408301614421565b8982015260608083013561485c81614527565b6040830152608061486e848201614421565b8284015260a08401359150888211156148875760008081fd5b6148958f8c8487010161467d565b90830152508452509186019186016147fa565b508096505050505050509250929050565b6000806000606084860312156148ce57600080fd5b83356148d981614527565b95602085013595506040909401359392505050565b60006020828403121561490057600080fd5b5035919050565b60008060008060008060c0878903121561492057600080fd5b8635955060208701359450604087013561493981614527565b935060608701359250608087013561495081614527565b915060a08701356001600160401b0381111561496b57600080fd5b61497789828a0161467d565b9150509295509295509295565b815181526020808301519082015260408083015190820152606080830151908201526080810161125d565b6000806000606084860312156149c457600080fd5b833592506020840135915060408401356149dd81614527565b809150509250925092565b600082601f8301126149f957600080fd5b81356020614a096147d28361473b565b82815260069290921b84018101918181019086841115614a2857600080fd5b8286015b84811015614a755760408189031215614a455760008081fd5b614a4d614608565b614a568261475e565b8152614a63858301614421565b81860152835291830191604001614a2c565b509695505050505050565b80356001600160f81b038116811461440357600080fd5b600060808284031215614aa957600080fd5b604051608081018181106001600160401b0382111715614acb57614acb6145ca565b604052905080614ada83614a80565b81526020830135614aea81614408565b60208201526040830135614afd81614527565b60408201526060830135614b1081614527565b6060919091015292915050565b600082601f830112614b2e57600080fd5b81356020614b3e6147d28361473b565b82815260079290921b84018101918181019086841115614b5d57600080fd5b8286015b84811015614a7557614b738882614a97565b835291830191608001614b61565b80356001600160e01b03198116811461440357600080fd5b600060a08284031215614bab57600080fd5b614bb36145e0565b905081356001600160401b03811115614bcb57600080fd5b614bd78482850161467d565b825250602082013560208201526040820135614bf281614527565b6040820152614c0360608301614b81565b6060820152614c1460808301614b81565b608082015292915050565b600080600060608486031215614c3457600080fd5b8335925060208401356001600160401b0380821115614c5257600080fd5b908501906101408288031215614c6757600080fd5b614c6f61462a565b823582811115614c7e57600080fd5b614c8a898286016149e8565b825250602083013582811115614c9f57600080fd5b614cab89828601614b1d565b602083015250604083013582811115614cc357600080fd5b614ccf8982860161467d565b604083015250606083013582811115614ce757600080fd5b614cf38982860161467d565b606083015250614d0560808401614421565b6080820152614d1660a084016143f8565b60a0820152614d2760c08401614416565b60c0820152614d3860e08401614416565b60e0820152610100614d4b818501614416565b90820152610120614d5d848201614416565b9082015293506040860135915080821115614d7757600080fd5b50614d8486828701614b99565b9150509250925092565b634e487b7160e01b600052603260045260246000fd5b600060808284031215614db657600080fd5b61121f8383614a97565b600060208284031215614dd257600080fd5b815161121f81614408565b600060a0820160ff89168352602088151581850152604088151581860152606063ffffffff891681870152608060a0818801528488865260c08801905089955060005b89811015614e8e576001600160f81b03614e3988614a80565b16825285870135614e4981614408565b15158287015286850135614e5c81614527565b6001600160a01b03908116838701528785013590614e7982614527565b16828501529582019590820190600101614e20565b509d9c50505050505050505050505050565b6020808252602c908201527f46756e6374696f6e206d7573742062652063616c6c6564207468726f7567682060408201526b19195b1959d85d1958d85b1b60a21b606082015260800190565b6020808252602c908201527f46756e6374696f6e206d7573742062652063616c6c6564207468726f7567682060408201526b6163746976652070726f787960a01b606082015260800190565b6020808252818101527f4f776e61626c653a2063616c6c6572206973206e6f7420746865206f776e6572604082015260600190565b600181811c90821680614f8157607f821691505b602082108103614fa157634e487b7160e01b600052602260045260246000fd5b50919050565b60008060408385031215614fba57600080fd5b8251614fc581614527565b6020939093015192949293505050565b634e487b7160e01b600052601160045260246000fd5b600082821015614ffd57614ffd614fd5565b500390565b6000821982111561501557615015614fd5565b500190565b60006020828403121561502c57600080fd5b815161121f81614527565b60006020828403121561504957600080fd5b5051919050565b600081518084526020808501945080840160005b8381101561509a57815180516001600160801b0316885283015163ffffffff168388015260409096019590820190600101615064565b509495945050505050565b600081518084526020808501945080840160005b8381101561509a57815180516001600160f81b03168852838101511515848901526040808201516001600160a01b03908116918a01919091526060918201511690880152608090960195908201906001016150b9565b6000815160a0845261512460a0850182614585565b602084810151908601526040808501516001600160a01b0316908601526060808501516001600160e01b0319908116918701919091526080948501511693909401929092525090919050565b60018060a01b0384168152606060208201526000835161014080606085015261519d6101a0850183615050565b91506020860151605f19808685030160808701526151bb84836150a5565b935060408801519150808685030160a08701526151d88483614585565b935060608801519150808685030160c0870152506151f68382614585565b925050608086015161521060e086018263ffffffff169052565b5060a08601516101006152278187018360ff169052565b60c0880151915061012061523e8188018415159052565b60e089015115159387019390935287015115156101608601525085015115156101808401528281036040840152611384818561510f565b600063ffffffff80831681851680830382111561529457615294614fd5565b01949350505050565b6001600160801b038716815263ffffffff8681166020808401919091526001600160a01b0387166040840152908516606083015260c060808301528354600091908290600181811c90828116806152f557607f831692505b858310810361531257634e487b7160e01b85526022600452602485fd5b60c0880183905260e0880181801561533157600181146153425761536d565b60ff1986168252878201965061536d565b60008c81526020902060005b868110156153675781548482015290850190890161534e565b83019750505b50505050505083810360a08501526153858186614585565b9a9950505050505050505050565b600082516153a5818460208701614559565b9190910192915050565b60008160001904831182151516156153c9576153c9614fd5565b500290565b634e487b7160e01b600052601260045260246000fd5b6000826153f3576153f36153ce565b500490565b63ffffffff841681526001600160a01b038316602082015260c081016120f46040830184805182526020810151602083015260408101516040830152606081015160608301525050565b6020808252602b908201527f496e697469616c697a61626c653a20636f6e7472616374206973206e6f74206960408201526a6e697469616c697a696e6760a81b606082015260800190565b868152602081018690526001600160a01b038581166040830152606082018590528316608082015260c060a0820181905260009061133c90830184614585565b600080604083850312156154e057600080fd5b505080516020909101519092909150565b60006001600160f81b038281168482168115158284048211161561551757615517614fd5565b02949350505050565b60006020828403121561553257600080fd5b815161121f816143e9565b805161ffff8116811461440357600080fd5b600080600080600080600060e0888a03121561556a57600080fd5b875161557581614527565b8097505060208801518060020b811461558d57600080fd5b955061559b6040890161553d565b94506155a96060890161553d565b93506155b76080890161553d565b925060a08801516155c7816143e9565b60c08901519092506155d881614408565b8091505092959891949750929550565b6020808252825182820181905260009190848201906040850190845b8181101561562657835163ffffffff1683529284019291840191600101615604565b50909695505050505050565b600082601f83011261564357600080fd5b815160206156536147d28361473b565b82815260059290921b8401810191818101908684111561567257600080fd5b8286015b84811015614a7557805161568981614527565b8352918301918301615676565b600080604083850312156156a957600080fd5b82516001600160401b03808211156156c057600080fd5b818501915085601f8301126156d457600080fd5b815160206156e46147d28361473b565b82815260059290921b8401810191818101908984111561570357600080fd5b948201945b838610156157315785518060060b81146157225760008081fd5b82529482019490820190615708565b9188015191965090935050508082111561574a57600080fd5b5061473185828601615632565b60008160060b8360060b6000811281667fffffffffffff190183128115161561578257615782614fd5565b81667fffffffffffff01831381161561579d5761579d614fd5565b5090039392505050565b60008160060b8360060b806157be576157be6153ce565b667fffffffffffff198214600019821416156157dc576157dc614fd5565b90059392505050565b600181815b8085111561582057816000190482111561580657615806614fd5565b8085161561581357918102915b93841c93908002906157ea565b509250929050565b6000826158375750600161125d565b816158445750600061125d565b816001811461585a576002811461586457615880565b600191505061125d565b60ff84111561587557615875614fd5565b50506001821b61125d565b5060208310610133831016604e8410600b84101617156158a3575081810a61125d565b6158ad83836157e5565b80600019048211156158c1576158c1614fd5565b029392505050565b600061121f60ff841683615828565b600061121f8383615828565b805169ffffffffffffffffffff8116811461440357600080fd5b600080600080600060a0868803121561591657600080fd5b61591f866158e4565b9450602086015193506040860151925060608601519150615942608087016158e4565b90509295509295909350565b6000600160ff1b820161596357615963614fd5565b5060000390565b600082615979576159796153ce565b500690565b60208152600061121f602083018461458556fe360894a13ba1a3210667c828492db98dca3e2076cc3735a920a3ca505d382bbc416464726573733a206c6f772d6c6576656c2064656c65676174652063616c6c206661696c6564f0832fe058ed4ffda256632e9c3d7b50283fb2e36310b6beaf08f633b1407057a2646970667358221220fc448ecbc1f016bcc9f214fabca860bd2e43aa9fe5b214e1fd0cf3f116dd97b764736f6c634300080d0033",
  "linkReferences": {},
  "deployedLinkReferences": {}
}