{
  "_format": "hh-sol-artifact-1",
  "contractName": "ProductsModule",
  "sourceName": "contracts/ProductsModule.sol",
  "abi": [
    {
      "inputs": [],
      "name": "ActiveListing",
      "type": "error"
    },
    {
      "inputs": [],
      "name": "ExceedsMaxValue",
      "type": "error"
    },
    {
      "inputs": [],
      "name": "InexistentPool",
      "type": "error"
    },
    {
      "inputs": [],
      "name": "InexistentProduct",
      "type": "error"
    },
    {
      "inputs": [],
      "name": "InsufficientPayment",
      "type": "error"
    },
    {
      "inputs": [],
      "name": "Invalid",
      "type": "error"
    },
    {
      "inputs": [],
      "name": "NoDelegatecall",
      "type": "error"
    },
    {
      "inputs": [],
      "name": "NotAuthorized",
      "type": "error"
    },
    {
      "inputs": [],
      "name": "NotPurchased",
      "type": "error"
    },
    {
      "inputs": [],
      "name": "NotSuccessful",
      "type": "error"
    },
    {
      "inputs": [],
      "name": "TooSoon",
      "type": "error"
    },
    {
      "inputs": [],
      "name": "WrongCurrency",
      "type": "error"
    },
    {
      "anonymous": false,
      "inputs": [
        {
          "indexed": false,
          "internalType": "address",
          "name": "previousAdmin",
          "type": "address"
        },
        {
          "indexed": false,
          "internalType": "address",
          "name": "newAdmin",
          "type": "address"
        }
      ],
      "name": "AdminChanged",
      "type": "event"
    },
    {
      "anonymous": false,
      "inputs": [
        {
          "indexed": true,
          "internalType": "address",
          "name": "beacon",
          "type": "address"
        }
      ],
      "name": "BeaconUpgraded",
      "type": "event"
    },
    {
      "anonymous": false,
      "inputs": [
        {
          "indexed": true,
          "internalType": "uint256",
          "name": "slicerId",
          "type": "uint256"
        },
        {
          "indexed": true,
          "internalType": "address",
          "name": "contractAddress",
          "type": "address"
        },
        {
          "indexed": true,
          "internalType": "uint256",
          "name": "tokenId",
          "type": "uint256"
        },
        {
          "indexed": false,
          "internalType": "uint256",
          "name": "currentAmount",
          "type": "uint256"
        }
      ],
      "name": "ERC1155ListingChanged",
      "type": "event"
    },
    {
      "anonymous": false,
      "inputs": [
        {
          "indexed": true,
          "internalType": "uint256",
          "name": "slicerId",
          "type": "uint256"
        },
        {
          "indexed": true,
          "internalType": "address",
          "name": "contractAddress",
          "type": "address"
        },
        {
          "indexed": true,
          "internalType": "uint256",
          "name": "tokenId",
          "type": "uint256"
        },
        {
          "indexed": false,
          "internalType": "bool",
          "name": "isActive",
          "type": "bool"
        }
      ],
      "name": "ERC721ListingChanged",
      "type": "event"
    },
    {
      "anonymous": false,
      "inputs": [
        {
          "indexed": true,
          "internalType": "address",
          "name": "previousOwner",
          "type": "address"
        },
        {
          "indexed": true,
          "internalType": "address",
          "name": "newOwner",
          "type": "address"
        }
      ],
      "name": "OwnershipTransferred",
      "type": "event"
    },
    {
      "anonymous": false,
      "inputs": [
        {
          "indexed": false,
          "internalType": "address",
          "name": "account",
          "type": "address"
        }
      ],
      "name": "Paused",
      "type": "event"
    },
    {
      "anonymous": false,
      "inputs": [
        {
          "indexed": true,
          "internalType": "uint256",
          "name": "slicerId",
          "type": "uint256"
        },
        {
          "indexed": true,
          "internalType": "uint256",
          "name": "productId",
          "type": "uint256"
        },
        {
          "indexed": true,
          "internalType": "uint256",
          "name": "categoryIndex",
          "type": "uint256"
        },
        {
          "indexed": false,
          "internalType": "address",
          "name": "creator",
          "type": "address"
        },
        {
          "components": [
            {
              "components": [
                {
                  "internalType": "uint128",
                  "name": "subSlicerId",
                  "type": "uint128"
                },
                {
                  "internalType": "uint32",
                  "name": "subProductId",
                  "type": "uint32"
                }
              ],
              "internalType": "struct SubSlicerProduct[]",
              "name": "subSlicerProducts",
              "type": "tuple[]"
            },
            {
              "components": [
                {
                  "internalType": "uint248",
                  "name": "value",
                  "type": "uint248"
                },
                {
                  "internalType": "bool",
                  "name": "dynamicPricing",
                  "type": "bool"
                },
                {
                  "internalType": "address",
                  "name": "externalAddress",
                  "type": "address"
                },
                {
                  "internalType": "address",
                  "name": "currency",
                  "type": "address"
                }
              ],
              "internalType": "struct CurrencyPrice[]",
              "name": "currencyPrices",
              "type": "tuple[]"
            },
            {
              "internalType": "bytes",
              "name": "data",
              "type": "bytes"
            },
            {
              "internalType": "bytes",
              "name": "purchaseData",
              "type": "bytes"
            },
            {
              "internalType": "uint32",
              "name": "availableUnits",
              "type": "uint32"
            },
            {
              "internalType": "uint8",
              "name": "maxUnitsPerBuyer",
              "type": "uint8"
            },
            {
              "internalType": "bool",
              "name": "isFree",
              "type": "bool"
            },
            {
              "internalType": "bool",
              "name": "isInfinite",
              "type": "bool"
            },
            {
              "internalType": "bool",
              "name": "isExternalCallPaymentRelative",
              "type": "bool"
            },
            {
              "internalType": "bool",
              "name": "isExternalCallPreferredToken",
              "type": "bool"
            }
          ],
          "indexed": false,
          "internalType": "struct ProductParams",
          "name": "params",
          "type": "tuple"
        },
        {
          "components": [
            {
              "internalType": "bytes",
              "name": "data",
              "type": "bytes"
            },
            {
              "internalType": "uint256",
              "name": "value",
              "type": "uint256"
            },
            {
              "internalType": "address",
              "name": "externalAddress",
              "type": "address"
            },
            {
              "internalType": "bytes4",
              "name": "checkFunctionSignature",
              "type": "bytes4"
            },
            {
              "internalType": "bytes4",
              "name": "execFunctionSignature",
              "type": "bytes4"
            }
          ],
          "indexed": false,
          "internalType": "struct Function",
          "name": "externalCall",
          "type": "tuple"
        }
      ],
      "name": "ProductAdded",
      "type": "event"
    },
    {
      "anonymous": false,
      "inputs": [
        {
          "indexed": true,
          "internalType": "uint256",
          "name": "slicerId",
          "type": "uint256"
        },
        {
          "indexed": true,
          "internalType": "uint256",
          "name": "productId",
          "type": "uint256"
        },
        {
          "indexed": false,
          "internalType": "uint8",
          "name": "maxUnitsPerBuyer",
          "type": "uint8"
        },
        {
          "indexed": false,
          "internalType": "bool",
          "name": "isFree",
          "type": "bool"
        },
        {
          "indexed": false,
          "internalType": "bool",
          "name": "isInfinite",
          "type": "bool"
        },
        {
          "indexed": false,
          "internalType": "uint256",
          "name": "newUnits",
          "type": "uint256"
        },
        {
          "components": [
            {
              "internalType": "uint248",
              "name": "value",
              "type": "uint248"
            },
            {
              "internalType": "bool",
              "name": "dynamicPricing",
              "type": "bool"
            },
            {
              "internalType": "address",
              "name": "externalAddress",
              "type": "address"
            },
            {
              "internalType": "address",
              "name": "currency",
              "type": "address"
            }
          ],
          "indexed": false,
          "internalType": "struct CurrencyPrice[]",
          "name": "currencyPrices",
          "type": "tuple[]"
        }
      ],
      "name": "ProductInfoChanged",
      "type": "event"
    },
    {
      "anonymous": false,
      "inputs": [
        {
          "indexed": true,
          "internalType": "uint256",
          "name": "slicerId",
          "type": "uint256"
        },
        {
          "indexed": true,
          "internalType": "uint256",
          "name": "productId",
          "type": "uint256"
        },
        {
          "indexed": false,
          "internalType": "uint256",
          "name": "quantity",
          "type": "uint256"
        },
        {
          "indexed": true,
          "internalType": "address",
          "name": "buyer",
          "type": "address"
        },
        {
          "indexed": false,
          "internalType": "address",
          "name": "currency",
          "type": "address"
        },
        {
          "components": [
            {
              "internalType": "uint256",
              "name": "eth",
              "type": "uint256"
            },
            {
              "internalType": "uint256",
              "name": "currency",
              "type": "uint256"
            },
            {
              "internalType": "uint256",
              "name": "ethExternalCall",
              "type": "uint256"
            },
            {
              "internalType": "uint256",
              "name": "currencyExternalCall",
              "type": "uint256"
            }
          ],
          "indexed": false,
          "internalType": "struct Price",
          "name": "price",
          "type": "tuple"
        }
      ],
      "name": "ProductPaid",
      "type": "event"
    },
    {
      "anonymous": false,
      "inputs": [
        {
          "indexed": true,
          "internalType": "uint256",
          "name": "slicerId",
          "type": "uint256"
        },
        {
          "indexed": true,
          "internalType": "uint256",
          "name": "productId",
          "type": "uint256"
        }
      ],
      "name": "ProductRemoved",
      "type": "event"
    },
    {
      "anonymous": false,
      "inputs": [
        {
          "indexed": true,
          "internalType": "uint256",
          "name": "slicerId",
          "type": "uint256"
        },
        {
          "indexed": false,
          "internalType": "uint256",
          "name": "ethToRelease",
          "type": "uint256"
        }
      ],
      "name": "ReleasedToSlicer",
      "type": "event"
    },
    {
      "anonymous": false,
      "inputs": [
        {
          "indexed": false,
          "internalType": "address",
          "name": "account",
          "type": "address"
        }
      ],
      "name": "Unpaused",
      "type": "event"
    },
    {
      "anonymous": false,
      "inputs": [
        {
          "indexed": true,
          "internalType": "address",
          "name": "implementation",
          "type": "address"
        }
      ],
      "name": "Upgraded",
      "type": "event"
    },
    {
      "inputs": [],
      "name": "_togglePause",
      "outputs": [],
      "stateMutability": "nonpayable",
      "type": "function"
    },
    {
      "inputs": [
        {
          "internalType": "uint256",
          "name": "slicerId",
          "type": "uint256"
        },
        {
          "components": [
            {
              "components": [
                {
                  "internalType": "uint128",
                  "name": "subSlicerId",
                  "type": "uint128"
                },
                {
                  "internalType": "uint32",
                  "name": "subProductId",
                  "type": "uint32"
                }
              ],
              "internalType": "struct SubSlicerProduct[]",
              "name": "subSlicerProducts",
              "type": "tuple[]"
            },
            {
              "components": [
                {
                  "internalType": "uint248",
                  "name": "value",
                  "type": "uint248"
                },
                {
                  "internalType": "bool",
                  "name": "dynamicPricing",
                  "type": "bool"
                },
                {
                  "internalType": "address",
                  "name": "externalAddress",
                  "type": "address"
                },
                {
                  "internalType": "address",
                  "name": "currency",
                  "type": "address"
                }
              ],
              "internalType": "struct CurrencyPrice[]",
              "name": "currencyPrices",
              "type": "tuple[]"
            },
            {
              "internalType": "bytes",
              "name": "data",
              "type": "bytes"
            },
            {
              "internalType": "bytes",
              "name": "purchaseData",
              "type": "bytes"
            },
            {
              "internalType": "uint32",
              "name": "availableUnits",
              "type": "uint32"
            },
            {
              "internalType": "uint8",
              "name": "maxUnitsPerBuyer",
              "type": "uint8"
            },
            {
              "internalType": "bool",
              "name": "isFree",
              "type": "bool"
            },
            {
              "internalType": "bool",
              "name": "isInfinite",
              "type": "bool"
            },
            {
              "internalType": "bool",
              "name": "isExternalCallPaymentRelative",
              "type": "bool"
            },
            {
              "internalType": "bool",
              "name": "isExternalCallPreferredToken",
              "type": "bool"
            }
          ],
          "internalType": "struct ProductParams",
          "name": "params",
          "type": "tuple"
        },
        {
          "components": [
            {
              "internalType": "bytes",
              "name": "data",
              "type": "bytes"
            },
            {
              "internalType": "uint256",
              "name": "value",
              "type": "uint256"
            },
            {
              "internalType": "address",
              "name": "externalAddress",
              "type": "address"
            },
            {
              "internalType": "bytes4",
              "name": "checkFunctionSignature",
              "type": "bytes4"
            },
            {
              "internalType": "bytes4",
              "name": "execFunctionSignature",
              "type": "bytes4"
            }
          ],
          "internalType": "struct Function",
          "name": "externalCall_",
          "type": "tuple"
        }
      ],
      "name": "addProduct",
      "outputs": [],
      "stateMutability": "nonpayable",
      "type": "function"
    },
    {
      "inputs": [
        {
          "internalType": "uint256",
          "name": "slicerId",
          "type": "uint256"
        },
        {
          "internalType": "uint256",
          "name": "productId",
          "type": "uint256"
        }
      ],
      "name": "availableUnits",
      "outputs": [
        {
          "internalType": "uint256",
          "name": "units",
          "type": "uint256"
        },
        {
          "internalType": "bool",
          "name": "isInfinite",
          "type": "bool"
        }
      ],
      "stateMutability": "view",
      "type": "function"
    },
    {
      "inputs": [
        {
          "internalType": "uint256",
          "name": "slicerId",
          "type": "uint256"
        }
      ],
      "name": "ethBalance",
      "outputs": [
        {
          "internalType": "uint256",
          "name": "",
          "type": "uint256"
        }
      ],
      "stateMutability": "view",
      "type": "function"
    },
    {
      "inputs": [],
      "name": "initialize",
      "outputs": [],
      "stateMutability": "nonpayable",
      "type": "function"
    },
    {
      "inputs": [
        {
          "internalType": "uint256",
          "name": "slicerId",
          "type": "uint256"
        },
        {
          "internalType": "uint256",
          "name": "productId",
          "type": "uint256"
        },
        {
          "internalType": "address",
          "name": "account",
          "type": "address"
        }
      ],
      "name": "isProductOwner",
      "outputs": [
        {
          "internalType": "bool",
          "name": "isAllowed",
          "type": "bool"
        }
      ],
      "stateMutability": "view",
      "type": "function"
    },
    {
      "inputs": [],
      "name": "owner",
      "outputs": [
        {
          "internalType": "address",
          "name": "",
          "type": "address"
        }
      ],
      "stateMutability": "view",
      "type": "function"
    },
    {
      "inputs": [],
      "name": "paused",
      "outputs": [
        {
          "internalType": "bool",
          "name": "",
          "type": "bool"
        }
      ],
      "stateMutability": "view",
      "type": "function"
    },
    {
      "inputs": [
        {
          "internalType": "address",
          "name": "buyer",
          "type": "address"
        },
        {
          "components": [
            {
              "internalType": "uint128",
              "name": "slicerId",
              "type": "uint128"
            },
            {
              "internalType": "uint32",
              "name": "quantity",
              "type": "uint32"
            },
            {
              "internalType": "address",
              "name": "currency",
              "type": "address"
            },
            {
              "internalType": "uint32",
              "name": "productId",
              "type": "uint32"
            },
            {
              "internalType": "bytes",
              "name": "buyerCustomData",
              "type": "bytes"
            }
          ],
          "internalType": "struct PurchaseParams[]",
          "name": "purchases",
          "type": "tuple[]"
        }
      ],
      "name": "payProducts",
      "outputs": [],
      "stateMutability": "payable",
      "type": "function"
    },
    {
      "inputs": [
        {
          "internalType": "uint256",
          "name": "slicerId",
          "type": "uint256"
        },
        {
          "internalType": "uint256",
          "name": "productId",
          "type": "uint256"
        },
        {
          "internalType": "address",
          "name": "currency",
          "type": "address"
        },
        {
          "internalType": "uint256",
          "name": "quantity",
          "type": "uint256"
        }
      ],
      "name": "productPrice",
      "outputs": [
        {
          "components": [
            {
              "internalType": "uint256",
              "name": "eth",
              "type": "uint256"
            },
            {
              "internalType": "uint256",
              "name": "currency",
              "type": "uint256"
            },
            {
              "internalType": "uint256",
              "name": "ethExternalCall",
              "type": "uint256"
            },
            {
              "internalType": "uint256",
              "name": "currencyExternalCall",
              "type": "uint256"
            }
          ],
          "internalType": "struct Price",
          "name": "price",
          "type": "tuple"
        }
      ],
      "stateMutability": "view",
      "type": "function"
    },
    {
      "inputs": [],
      "name": "proxiableUUID",
      "outputs": [
        {
          "internalType": "bytes32",
          "name": "",
          "type": "bytes32"
        }
      ],
      "stateMutability": "view",
      "type": "function"
    },
    {
      "inputs": [
        {
          "internalType": "uint256",
          "name": "slicerId",
          "type": "uint256"
        }
      ],
      "name": "releaseEthToSlicer",
      "outputs": [],
      "stateMutability": "nonpayable",
      "type": "function"
    },
    {
      "inputs": [
        {
          "internalType": "uint256",
          "name": "slicerId",
          "type": "uint256"
        },
        {
          "internalType": "uint256",
          "name": "productId",
          "type": "uint256"
        }
      ],
      "name": "removeProduct",
      "outputs": [],
      "stateMutability": "nonpayable",
      "type": "function"
    },
    {
      "inputs": [],
      "name": "renounceOwnership",
      "outputs": [],
      "stateMutability": "nonpayable",
      "type": "function"
    },
    {
      "inputs": [
        {
          "internalType": "uint256",
          "name": "slicerId",
          "type": "uint256"
        },
        {
          "internalType": "uint256",
          "name": "productId",
          "type": "uint256"
        },
        {
          "internalType": "uint8",
          "name": "newMaxUnits",
          "type": "uint8"
        },
        {
          "internalType": "bool",
          "name": "isFree",
          "type": "bool"
        },
        {
          "internalType": "bool",
          "name": "isInfinite",
          "type": "bool"
        },
        {
          "internalType": "uint32",
          "name": "newUnits",
          "type": "uint32"
        },
        {
          "components": [
            {
              "internalType": "uint248",
              "name": "value",
              "type": "uint248"
            },
            {
              "internalType": "bool",
              "name": "dynamicPricing",
              "type": "bool"
            },
            {
              "internalType": "address",
              "name": "externalAddress",
              "type": "address"
            },
            {
              "internalType": "address",
              "name": "currency",
              "type": "address"
            }
          ],
          "internalType": "struct CurrencyPrice[]",
          "name": "currencyPrices",
          "type": "tuple[]"
        }
      ],
      "name": "setProductInfo",
      "outputs": [],
      "stateMutability": "nonpayable",
      "type": "function"
    },
    {
      "inputs": [
        {
          "internalType": "address",
          "name": "newOwner",
          "type": "address"
        }
      ],
      "name": "transferOwnership",
      "outputs": [],
      "stateMutability": "nonpayable",
      "type": "function"
    },
    {
      "inputs": [
        {
          "internalType": "address",
          "name": "newImplementation",
          "type": "address"
        }
      ],
      "name": "upgradeTo",
      "outputs": [],
      "stateMutability": "nonpayable",
      "type": "function"
    },
    {
      "inputs": [
        {
          "internalType": "address",
          "name": "newImplementation",
          "type": "address"
        },
        {
          "internalType": "bytes",
          "name": "data",
          "type": "bytes"
        }
      ],
      "name": "upgradeToAndCall",
      "outputs": [],
      "stateMutability": "payable",
      "type": "function"
    },
    {
      "inputs": [
        {
          "internalType": "uint256",
          "name": "slicerId",
          "type": "uint256"
        },
        {
          "internalType": "uint256",
          "name": "productId",
          "type": "uint256"
        }
      ],
      "name": "validatePurchase",
      "outputs": [
        {
          "internalType": "uint256",
          "name": "purchases",
          "type": "uint256"
        },
        {
          "internalType": "bytes",
          "name": "purchaseData",
          "type": "bytes"
        }
      ],
      "stateMutability": "view",
      "type": "function"
    },
    {
      "inputs": [
        {
          "internalType": "address",
          "name": "account",
          "type": "address"
        },
        {
          "internalType": "uint256",
          "name": "slicerId",
          "type": "uint256"
        },
        {
          "internalType": "uint256",
          "name": "productId",
          "type": "uint256"
        }
      ],
      "name": "validatePurchaseUnits",
      "outputs": [
        {
          "internalType": "uint256",
          "name": "purchases",
          "type": "uint256"
        }
      ],
      "stateMutability": "view",
      "type": "function"
    }
  ],
  "bytecode": "0x60a06040523060805234801561001457600080fd5b506080516159a46200004d6000396000818161096d015281816109b601528181610bf001528181610c300152610f9f01526159a46000f3fe60806040526004361061011f5760003560e01c8063715018a6116100a0578063bf17f2f211610064578063bf17f2f21461034d578063c993a08d1461036d578063e6e928081461038d578063f2fde38b146103ad578063ff3ef63f146103cd57600080fd5b8063715018a6146102ae5780638129fc1c146102c35780638da5cb5b146102d857806395f2370414610300578063a63dcb891461032057600080fd5b80634f1ef286116100e75780634f1ef286146102215780635287d5351461023457806352d1902d1461025457806354ed778b146102775780635c975abb1461028a57600080fd5b80630d24c670146101245780631eafafb4146101465780633659cfe6146101be578063405b4c36146101de5780634c04e9c6146101f3575b600080fd5b34801561013057600080fd5b5061014461013f366004614429565b6103ed565b005b34801561015257600080fd5b506101a46101613660046144f9565b600091825260fb60209081526040808420928452600192830190915290912060080154600160c81b810463ffffffff1692600160f01b909104821c909116151590565b604080519283529015156020830152015b60405180910390f35b3480156101ca57600080fd5b506101446101d9366004614530565b610963565b3480156101ea57600080fd5b50610144610a4b565b3480156101ff57600080fd5b5061021361020e3660046144f9565b610a92565b6040516101b59291906145a5565b61014461022f3660046146e0565b610be6565b34801561024057600080fd5b5061014461024f3660046144f9565b610cb6565b34801561026057600080fd5b50610269610f92565b6040519081526020016101b5565b610144610285366004614769565b611045565b34801561029657600080fd5b5060c95460ff165b60405190151581526020016101b5565b3480156102ba57600080fd5b506101446110f6565b3480156102cf57600080fd5b5061014461112a565b3480156102e457600080fd5b506097546040516001600160a01b0390911681526020016101b5565b34801561030c57600080fd5b5061026961031b3660046148ad565b6111ea565b34801561032c57600080fd5b5061034061033b3660046148e2565b611226565b6040516101b59190614921565b34801561035957600080fd5b5061026961036836600461494c565b611284565b34801561037957600080fd5b5061014461038836600461494c565b6112c1565b34801561039957600080fd5b5061029e6103a8366004614965565b611344565b3480156103b957600080fd5b506101446103c8366004614530565b611380565b3480156103d957600080fd5b506101446103e8366004614bd5565b611418565b600088815260fb6020908152604080832060038101548b855260019091019092529091206001600160a01b0390911690819061042a818333611fe3565b6104475760405163ea8e4eb560e01b815260040160405180910390fd5b83156107905760088101546201518064ffffffffff600160a01b9092048216011642101561048857604051636fed7d8560e01b815260040160405180910390fd5b60088101805464ffffffffff60a01b1916600160a01b4264ffffffffff160217905560408051608081018252600080825260208201819052918101829052606081019190915260005b8581101561078d578686828181106104eb576104eb614d44565b9050608002018036038101906105019190614d5a565b60608101519092506001600160a01b031615801590610541575060608201516001600160a01b03167356639db16ac50a89228026e42a316b30179a537614155b156105d357606082015160405163b25e9c3960e01b81526001600160a01b0391821660048201529085169063b25e9c3990602401602060405180830381865afa158015610592573d6000803e3d6000fd5b505050506040513d601f19601f820116820180604052508101906105b69190614d76565b6105d357604051630b27db6160e11b815260040160405180910390fd5b60608201516001600160a01b0316600090815260018401602052604090205482516001600160f81b0390811691161461064457815160608301516001600160a01b03166000908152600185016020526040902080546001600160f81b0319166001600160f81b039092169190911790555b60608201516001600160a01b0316600090815260018401602090815260409091205490830151600160f81b90910460ff161515901515146107135760608201516001600160a01b0316156106d15760006001600160a01b03166106aa83606001516120ee565b6001600160a01b0316036106d157604051632b9bb16560e11b815260040160405180910390fd5b60208083015160608401516001600160a01b031660009081526001860190925260409091208054911515600160f81b026001600160f81b039092169190911790555b60608201516001600160a01b039081166000908152600180860160205260409182902001549084015182169116146107855760408281015160608401516001600160a01b039081166000908152600187810160205293902090920180546001600160a01b031916929091169190911790555b6001016104d1565b50505b6107a38b84898963ffffffff168561223f565b8780156107bc57506008810154600160f01b9004600116155b806107dd5750871580156107dd57506008810154600160f01b900460011615155b156108085760088101805460ff600160f01b80830482166001189091160260ff60f01b199091161790555b86801561082457506008810154600160f01b9004600190811c16155b8061084857508615801561084857506008810154600160f01b9004600190811c1615155b156108735760088101805460ff600160f01b80830482166002189091160260ff60f01b199091161790555b600881015460ff8a8116600160e81b90920416146108a65760088101805460ff60e81b1916600160e81b60ff8c16021790555b86156108c35760088101805463ffffffff60c81b191690556108ff565b600881015463ffffffff878116600160c81b90920416146108ff5760088101805463ffffffff60c81b1916600160c81b63ffffffff8916021790555b898b7f47ed3606b96c516c076d9567a4deb8181f5da7370bdb1fedb883a7d3d5e890b98b8b8b8660080160199054906101000a900463ffffffff168b8b60405161094e96959493929190614d93565b60405180910390a35050505050505050505050565b6001600160a01b037f00000000000000000000000000000000000000000000000000000000000000001630036109b45760405162461bcd60e51b81526004016109ab90614e56565b60405180910390fd5b7f00000000000000000000000000000000000000000000000000000000000000006001600160a01b03166109fd600080516020615908833981519152546001600160a01b031690565b6001600160a01b031614610a235760405162461bcd60e51b81526004016109ab90614ea2565b610a2c81612512565b60408051600080825260208201909252610a489183919061253c565b50565b6097546001600160a01b03163314610a755760405162461bcd60e51b81526004016109ab90614eee565b60c95460ff1615610a8a57610a886126a7565b565b610a8861273a565b6000606030739fe46736679d2d9a65f0992f2272de9f3c7fa6e014610aca5760405163acbcffa760e01b815260040160405180910390fd5b600084815260fb60209081526040808320868452600101825280832033845290915281205463ffffffff169003610b14576040516363aae7a360e01b815260040160405180910390fd5b600084815260fb602090815260408083208684526001018083528184203385528084529184205493879052909152600701805463ffffffff909216918190610b5b90614f23565b80601f0160208091040260200160405190810160405280929190818152602001828054610b8790614f23565b8015610bd45780601f10610ba957610100808354040283529160200191610bd4565b820191906000526020600020905b815481529060010190602001808311610bb757829003601f168201915b50505050509050915091509250929050565b6001600160a01b037f0000000000000000000000000000000000000000000000000000000000000000163003610c2e5760405162461bcd60e51b81526004016109ab90614e56565b7f00000000000000000000000000000000000000000000000000000000000000006001600160a01b0316610c77600080516020615908833981519152546001600160a01b031690565b6001600160a01b031614610c9d5760405162461bcd60e51b81526004016109ab90614ea2565b610ca682612512565b610cb28282600161253c565b5050565b600082815260fb60209081526040808320600381015485855260019091019092529091206001600160a01b03909116908190610cf3818333611fe3565b610d105760405163ea8e4eb560e01b815260040160405180910390fd5b60058101546001600160a01b03808516911603610f3657600080826003016000018054610d3c90614f23565b80601f0160208091040260200160405190810160405280929190818152602001828054610d6890614f23565b8015610db55780601f10610d8a57610100808354040283529160200191610db5565b820191906000526020600020905b815481529060010190602001808311610d9857829003601f168201915b5050505050806020019051810190610dcd9190614f5d565b600585015491935091506302868bf960e11b600160c01b90910460e01b6001600160e01b03191601610e6857600087815260fc602090815260408083206001600160a01b0386168085529083528184208585528352818420805460ff191690559051928352839290918a917f76529e1c5add2962fbfae2a36bbcf688a5c01516b043ad429f1d81830687a2db910160405180910390a4610f33565b600583015462fc808960e71b600160c01b90910460e01b6001600160e01b03191601610f33576008830154600088815260fd602090815260408083206001600160a01b0387168452825280832085845290915281208054600160c81b90930463ffffffff1692909190610edc908490614fa1565b9091555050600087815260fd602090815260408083206001600160a01b0386168085529083528184208585528352928190205490519081528392918a9160008051602061594f833981519152910160405180910390a45b50505b600881018054600168ffffffff000000000160a01b0319169055610f5e60068201600061430a565b604051849086907fd647384cccbd8b477a7b02b9e866072937e9a23b473b9de13fc0c6cb1d392a0a90600090a35050505050565b6000306001600160a01b037f000000000000000000000000000000000000000000000000000000000000000016146110325760405162461bcd60e51b815260206004820152603860248201527f555550535570677261646561626c653a206d757374206e6f742062652063616c60448201527f6c6564207468726f7567682064656c656761746563616c6c000000000000000060648201526084016109ab565b5060008051602061590883398151915290565b60c95460ff161561108b5760405162461bcd60e51b815260206004820152601060248201526f14185d5cd8589b194e881c185d5cd95960821b60448201526064016109ab565b6000805b82518110156110cf576110bb848483815181106110ae576110ae614d44565b60200260200101516127b5565b6110c59083614fb8565b915060010161108f565b50803410156110f15760405163cd1c886760e01b815260040160405180910390fd5b505050565b6097546001600160a01b031633146111205760405162461bcd60e51b81526004016109ab90614eee565b610a8860006132b2565b600054610100900460ff166111455760005460ff1615611149565b303b155b6111ac5760405162461bcd60e51b815260206004820152602e60248201527f496e697469616c697a61626c653a20636f6e747261637420697320616c72656160448201526d191e481a5b9a5d1a585b1a5e995960921b60648201526084016109ab565b600054610100900460ff161580156111ce576000805461ffff19166101011790555b6111d6613304565b8015610a48576000805461ff001916905550565b600082815260fb6020908152604080832084845260010182528083206001600160a01b038716845290915290205463ffffffff165b9392505050565b6112516040518060800160405280600081526020016000815260200160008152602001600081525090565b600085815260fb60209081526040808320878452600101909152902061127a8187878787613333565b9695505050505050565b600081815260fb60205260408120600201546001106112a45760006112bb565b600082815260fb6020526040902060020154600019015b92915050565b60006112cc82611284565b90508015610cb257600082815260fb60205260409020600381015460016002909201919091556001600160a01b031661130581836137d3565b827f04cc711f7db61e897a32f3fe3e3faa9861b68d7d19fd9a669348213087b227268360405161133791815260200190565b60405180910390a2505050565b600083815260fb6020818152604080842086855260018101835290842087855292909152600301546001600160a01b031661127a828286611fe3565b6097546001600160a01b031633146113aa5760405162461bcd60e51b81526004016109ab90614eee565b6001600160a01b03811661140f5760405162461bcd60e51b815260206004820152602660248201527f4f776e61626c653a206e6577206f776e657220697320746865207a65726f206160448201526564647265737360d01b60648201526084016109ab565b610a48816132b2565b600083815260fb6020526040902080546001019081905563ffffffff81111561145457604051636dac6a0960e01b815260040160405180910390fd5b8060010361159e57604051630bafd3f560e11b81526004810185905260009073e7f1725e7734ce288f8367e1bb143e90bb3f05129063175fa7ea90602401602060405180830381865afa1580156114af573d6000803e3d6000fd5b505050506040513d601f19601f820116820180604052508101906114d39190614fd0565b6001600160a01b0316036114fa57604051636dac6a0960e01b815260040160405180910390fd5b604051630bafd3f560e11b81526004810185905273e7f1725e7734ce288f8367e1bb143e90bb3f05129063175fa7ea90602401602060405180830381865afa15801561154a573d6000803e3d6000fd5b505050506040513d601f19601f8201168201806040525081019061156e9190614fd0565b600085815260fb6020526040902060030180546001600160a01b0319166001600160a01b03929092169190911790555b600084815260fb60205260409081902060030154905163166eb15b60e21b81523360048201526001600160a01b039091169081906359bac56c90602401602060405180830381865afa1580156115f8573d6000803e3d6000fd5b505050506040513d601f19601f8201168201806040525081019061161c9190614d76565b6116395760405163ea8e4eb560e01b815260040160405180910390fd5b600085815260fb6020908152604080832063ffffffff861684526001019091529020845151156117625760005b855151811015611760576116f060fb60008860000151848151811061168d5761168d614d44565b6020026020010151600001516001600160801b031681526020019081526020016000206001016000886000015184815181106116cb576116cb614d44565b60200260200101516020015163ffffffff168152602001908152602001600020613824565b816002018660000151828151811061170a5761170a614d44565b602090810291909101810151825460018181018555600094855293839020825191018054929093015163ffffffff16600160801b026001600160a01b03199092166001600160801b039091161717905501611666565b505b6040805160808101825260008082526020820181905291810182905260608101829052905b86602001515181101561198857866020015181815181106117aa576117aa614d44565b6020026020010151915060006001600160a01b031682606001516001600160a01b0316141580156117fc575060608201516001600160a01b03167356639db16ac50a89228026e42a316b30179a537614155b80156118755750606082015160405163b25e9c3960e01b81526001600160a01b0391821660048201529085169063b25e9c3990602401602060405180830381865afa15801561184f573d6000803e3d6000fd5b505050506040513d601f19601f820116820180604052508101906118739190614d76565b155b1561189357604051630b27db6160e11b815260040160405180910390fd5b81516001600160f81b0316156118e157815160608301516001600160a01b03166000908152600185016020526040902080546001600160f81b0319166001600160f81b039092169190911790555b81602001511561192d5760208083015160608401516001600160a01b031660009081526001860190925260409091208054911515600160f81b026001600160f81b039092169190911790555b60408201516001600160a01b0316156119805760408281015160608401516001600160a01b039081166000908152600187810160205293902090920180546001600160a01b031916929091169190911790555b600101611787565b5060408501516001600160a01b031615611e7857826001600160a01b031685604001516001600160a01b031603611d195760008086600001518060200190518101906119d49190614f5d565b608089015191935091506001600160e01b0319166302868bf960e11b01611b8257876080015163ffffffff166001141580611a1757508760a0015160ff16600114155b80611a2357508760e001515b80611aa357506040516331a9108f60e11b8152600481018290526001600160a01b038087169190841690636352211e90602401602060405180830381865afa158015611a73573d6000803e3d6000fd5b505050506040513d601f19601f82011682018060405250810190611a979190614fd0565b6001600160a01b031614155b15611ac15760405163ea8e4eb560e01b815260040160405180910390fd5b600089815260fc602090815260408083206001600160a01b0386168452825280832084845290915290205460ff1615611b0d576040516319e7a92b60e31b815260040160405180910390fd5b600089815260fc602090815260408083206001600160a01b038616808552908352818420858552835292819020805460ff1916600190811790915590519081528392918c917f76529e1c5add2962fbfae2a36bbcf688a5c01516b043ad429f1d81830687a2db910160405180910390a4611d16565b60808701516001600160e01b03191662fc808960e71b01611d16578760e0015180611c595750604051627eeac760e11b81526001600160a01b0386811660048301526024820183905283169062fdd58e90604401602060405180830381865afa158015611bf3573d6000803e3d6000fd5b505050506040513d601f19601f82011682018060405250810190611c179190614fed565b60008a815260fd602090815260408083206001600160a01b0387168452825280832085845290915290205460808a0151611c57919063ffffffff16614fb8565b115b15611c7757604051636dac6a0960e01b815260040160405180910390fd5b608088015160008a815260fd602090815260408083206001600160a01b038716845282528083208584529091528120805463ffffffff90931692909190611cbf908490614fb8565b9091555050600089815260fd602090815260408083206001600160a01b0386168085529083528184208585528352928190205490519081528392918c9160008051602061594f833981519152910160405180910390a45b50505b60408501516005830180546001600160a01b0319166001600160a01b0390921691909117905560808501516001600160e01b03191615611dba57608085015160058301805460e09290921c600160c01b0263ffffffff60c01b1990921691909117905560608501516001600160e01b03191615611dba57606085015160058301805460e09290921c600160a01b0263ffffffff60a01b199092169190911790555b84515115611ddc5784518051611dda916003850191602090910190614344565b505b602085015115611df157602085015160048301555b85610120015115611e205760088201805460ff60f01b1981166004600160f01b9283900460ff16179091021790555b85610100015115611e785761271085602001511115611e5257604051633806212b60e21b815260040160405180910390fd5b6008828101805460ff60f01b198116600160f01b9182900460ff16909317029190911790555b6008820180546001600160a01b0319163317905560c086015115611eba5760088201805460ff60f01b1981166001600160f01b9283900460ff16179091021790555b60a086015160ff1615611eed5760a086015160088301805460ff909216600160e81b0260ff60e81b199092169190911790555b8560e0015115611f1f5760088201805460ff60f01b1981166002600160f01b9283900460ff1617909102179055611f4b565b608086015160088301805463ffffffff909216600160c81b0263ffffffff60c81b199092169190911790555b60408601515115611f735760408601518051611f71916006850191602090910190614344565b505b60608601515115611f9b5760608601518051611f99916007850191602090910190614344565b505b600084887f029a4465749d55fe5b28a7e348370e8ef8083bf6deb663e933b59f8dbe7500e7338a8a604051611fd293929190615126565b60405180910390a450505050505050565b6000611fee84613824565b600884015460405163166eb15b60e21b81526001600160a01b039182166004820152908416906359bac56c90602401602060405180830381865afa15801561203a573d6000803e3d6000fd5b505050506040513d601f19601f8201168201806040525081019061205e9190614d76565b1561207c575060088301546001600160a01b0382811691161461121f565b60405163166eb15b60e21b81526001600160a01b0383811660048301528416906359bac56c90602401602060405180830381865afa1580156120c2573d6000803e3d6000fd5b505050506040513d601f19601f820116820180604052508101906120e69190614d76565b949350505050565b604051630b4c774160e11b81526001600160a01b038216600482015273c778417e063141139fce010982780140aa0cd5ab6024820152610bb860448201526000908190731f98431c8ad98523631ae4a59f267346ea31f98490631698ee8290606401602060405180830381865afa15801561216d573d6000803e3d6000fd5b505050506040513d601f19601f820116820180604052508101906121919190614fd0565b90506001600160a01b0381166112bb57604051630b4c774160e11b81526001600160a01b038416600482015273c778417e063141139fce010982780140aa0cd5ab60248201526127106044820152731f98431c8ad98523631ae4a59f267346ea31f98490631698ee8290606401602060405180830381865afa15801561221b573d6000803e3d6000fd5b505050506040513d601f19601f8201168201806040525081019061121f9190614fd0565b60058101546001600160a01b0380861691160361250b5760008082600301600001805461226b90614f23565b80601f016020809104026020016040519081016040528092919081815260200182805461229790614f23565b80156122e45780601f106122b9576101008083540402835291602001916122e4565b820191906000526020600020905b8154815290600101906020018083116122c757829003601f168201915b50505050508060200190518101906122fc9190614f5d565b600585015491935091506302868bf960e11b600160c01b90910460e01b6001600160e01b03191601612368576008830154600160c81b900463ffffffff16841415806123455750845b1561236357604051636dac6a0960e01b815260040160405180910390fd5b612508565b600583015462fc808960e71b600160c01b90910460e01b6001600160e01b031916016125085784156123ad57604051636dac6a0960e01b815260040160405180910390fd5b6008830154600160c81b900463ffffffff16841461250857604051627eeac760e11b81526001600160a01b038781166004830152602482018390526000919084169062fdd58e90604401602060405180830381865afa158015612414573d6000803e3d6000fd5b505050506040513d601f19601f820116820180604052508101906124389190614fed565b600885015460008a815260fd602090815260408083206001600160a01b0389168452825280832087845290915281205492935091600160c81b90910463ffffffff1690612486908890614fb8565b6124909190614fa1565b9050818111156124b357604051636dac6a0960e01b815260040160405180910390fd5b600089815260fd602090815260408083206001600160a01b038816808552908352818420878552835292819020849055518381528592918c9160008051602061594f833981519152910160405180910390a450505b50505b5050505050565b6097546001600160a01b03163314610a485760405162461bcd60e51b81526004016109ab90614eee565b7f4910fdfa16fed3260ed0e7147f7cc6da11a60208b5b9406d12a635614ffd91435460ff161561256f576110f18361384f565b826001600160a01b03166352d1902d6040518163ffffffff1660e01b8152600401602060405180830381865afa9250505080156125c9575060408051601f3d908101601f191682019092526125c691810190614fed565b60015b61262c5760405162461bcd60e51b815260206004820152602e60248201527f45524331393637557067726164653a206e657720696d706c656d656e7461746960448201526d6f6e206973206e6f74205555505360901b60648201526084016109ab565b600080516020615908833981519152811461269b5760405162461bcd60e51b815260206004820152602960248201527f45524331393637557067726164653a20756e737570706f727465642070726f786044820152681a58589b195555525160ba1b60648201526084016109ab565b506110f18383836138eb565b60c95460ff166126f05760405162461bcd60e51b815260206004820152601460248201527314185d5cd8589b194e881b9bdd081c185d5cd95960621b60448201526064016109ab565b60c9805460ff191690557f5db9ee0a495bf2e6ff9c91a7834c1ba4fdd244a5e8aa4e537bd38aeae4b073aa335b6040516001600160a01b03909116815260200160405180910390a1565b60c95460ff16156127805760405162461bcd60e51b815260206004820152601060248201526f14185d5cd8589b194e881c185d5cd95960821b60448201526064016109ab565b60c9805460ff191660011790557f62e78cea01bee320cd4e420270b5ea74000d11b0c9f74754ebdbfc544b05a25861271d3390565b6000816020015163ffffffff166000146112bb57600060fb600084600001516001600160801b031681526020019081526020016000206001016000846060015163ffffffff1681526020019081526020016000209050600061283f8285600001516001600160801b0316866060015163ffffffff168760400151886020015163ffffffff16613333565b84516001600160801b0316600090815260fb602052604090206003015460088401549192506001600160a01b031690600160e81b900460ff16156128e25760088301546020868101516001600160a01b038916600090815291869052604090912054600160e81b90920460ff16916128bd919063ffffffff1661522b565b63ffffffff1611156128e257604051636dac6a0960e01b815260040160405180910390fd5b6008830154600160f01b9004600190811c1660000361296a576008830154602086015163ffffffff600160c81b90920482169116111561293557604051636dac6a0960e01b815260040160405180910390fd5b602085015160088401805463ffffffff600160c81b8083048216949094031690920263ffffffff60c81b199092169190911790555b6040820151825161297b9190614fb8565b825186516001600160801b0316600090815260fb60205260408120600201805493975091926129ab908490614fb8565b90915550506020808601516001600160a01b038816600090815291859052604082208054919290916129e490849063ffffffff1661522b565b92506101000a81548163ffffffff021916908363ffffffff1602179055508160200151600014612a9657604080860151602084015191516323b872dd60e01b81526001600160a01b038981166004830152848116602483015260448201939093529116906323b872dd906064016020604051808303816000875af1158015612a70573d6000803e3d6000fd5b505050506040513d601f19601f82011682018060405250810190612a949190614d76565b505b600283015415612b675760005b6002840154811015612b6557612b51876040518060a00160405280876002018581548110612ad357612ad3614d44565b600091825260209182902001546001600160801b031682528a81015163ffffffff16908201526040808b01516001600160a01b03169082015260028801805460609092019186908110612b2857612b28614d44565b60009182526020918290200154600160801b900463ffffffff16825260808b01519101526127b5565b612b5b9086614fb8565b9450600101612aa3565b505b60058301546001600160a01b031615613243576005830154600090600160c01b900460e01b6001600160e01b03191615612fa95760058401546001600160a01b03808416911603612ed057600080856003016000018054612bc790614f23565b80601f0160208091040260200160405190810160405280929190818152602001828054612bf390614f23565b8015612c405780601f10612c1557610100808354040283529160200191612c40565b820191906000526020600020905b815481529060010190602001808311612c2357829003601f168201915b5050505050806020019051810190612c589190614f5d565b600588015491935091506302868bf960e11b600160c01b90910460e01b6001600160e01b03191601612d715760405163ce55982b60e01b81526001600160a01b038a8116600483015283811660248301526044820183905285169063ce55982b90606401600060405180830381600087803b158015612cd657600080fd5b505af1158015612cea573d6000803e3d6000fd5b505089516001600160801b03908116600090815260fc602090815260408083206001600160a01b0389168085529083528184208885528352818420805460ff191690558e519151938452600199508796509450909216917f76529e1c5add2962fbfae2a36bbcf688a5c01516b043ad429f1d81830687a2db910160405180910390a4612ec9565b600586015462fc808960e71b600160c01b90910460e01b6001600160e01b03191601612ec957602088015160405163296789eb60e11b81526001600160a01b038b81166004830152848116602483015263ffffffff909216604482015260648101839052908516906352cf13d690608401600060405180830381600087803b158015612dfc57600080fd5b505af1158015612e10573d6000803e3d6000fd5b5050506020808a01518a516001600160801b0316600090815260fd835260408082206001600160a01b03881683528452808220868352909352918220805463ffffffff90921693509190612e65908490614fa1565b909155505087516001600160801b0316600081815260fd602090815260408083206001600160a01b0387168085529083528184208685528352928190205490519081526001965084939160008051602061594f833981519152910160405180910390a45b5050613223565b6005840154604080850151885160608a015160208b015160808c015194516001600160a01b038716969495600160c01b90950460e01b94612f1e9493928f92909160038e0191602401615253565b60408051601f198184030181529181526020820180516001600160e01b03166001600160e01b0319909416939093179092529051612f5c9190615349565b60006040518083038185875af1925050503d8060008114612f99576040519150601f19603f3d011682016040523d82523d6000602084013e612f9e565b606091505b505080915050613223565b6060830151156130ff5773cf7ed3acca5a467e9e704c703e8d87f634fb0fc96001600160a01b03166359fc470a87600001518660030160020160009054906101000a90046001600160a01b0316896040015187606001516103e8886001600160a01b031663ced72f876040518163ffffffff1660e01b8152600401602060405180830381865afa158015613041573d6000803e3d6000fd5b505050506040513d601f19601f820116820180604052508101906130659190614fed565b8a606001516130749190615365565b61307e919061539a565b6040516001600160e01b031960e088901b1681526001600160801b0390951660048601526001600160a01b0393841660248601529290911660448401526064830152608482015260a401600060405180830381600087803b1580156130e257600080fd5b505af11580156130f6573d6000803e3d6000fd5b5050505061321f565b73cf7ed3acca5a467e9e704c703e8d87f634fb0fc96001600160a01b03166339ed512384604001518660030160020160009054906101000a90046001600160a01b03166103e8866001600160a01b031663ced72f876040518163ffffffff1660e01b8152600401602060405180830381865afa158015613183573d6000803e3d6000fd5b505050506040513d601f19601f820116820180604052508101906131a79190614fed565b88604001516131b69190615365565b6131c0919061539a565b6040516001600160e01b031960e086901b1681526001600160a01b03909216600483015260248201526044016000604051808303818588803b15801561320557600080fd5b505af1158015613219573d6000803e3d6000fd5b50505050505b5060015b806132415760405163af6eefa360e01b815260040160405180910390fd5b505b856001600160a01b0316856060015163ffffffff1686600001516001600160801b03167fb5fcbfbc97629da9c45f418c65a8ed3e96873f8e54c6c435180455987431e7a088602001518960400151876040516132a1939291906153ae565b60405180910390a450505092915050565b609780546001600160a01b038381166001600160a01b0319831681179093556040519116919082907f8be0079c531659141344cd1fd0a4f28419497f9722a3daafe3b4186f6b6457e090600090a35050565b600054610100900460ff1661332b5760405162461bcd60e51b81526004016109ab906153f8565b610a88613916565b61335e6040518060800160405280600081526020016000815260200160008152602001600081525090565b61336786613824565b6001600160a01b03808416600090815260018089016020908152604092839020835160608101855281546001600160f81b038116825260ff600160f81b909104811615159382019390935292015490931691810182905260088901549092600160f01b9091041690613618576001600160a01b03851661340257836133f183600184161515613946565b6133fb9190615365565b83526136a4565b8160200151156135885760008080526001890160205260409020546001600160f81b031615158061343c575081516001600160f81b031615155b1561355f5781516000906001600160f81b031681036134b957600080805260018a81016020908152604092839020835160608101855281546001600160f81b0381168252600160f81b900460ff161515928101929092528201546001600160a01b0316928101929092526134b4919084161515613946565b6134c5565b82516001600160f81b03165b9050846134d4878360646139c7565b6134de9190615365565b6020850181905260000361355957600080805260018a81016020908152604092839020835160608101855281546001600160f81b0381168252600160f81b900460ff161515928101929092528201546001600160a01b031692810192909252869161354c9185161515613946565b6135569190615365565b84525b506136a4565b6001811660000361358357604051630b27db6160e11b815260040160405180910390fd5b6136a4565b81516001600160f81b0316156135b85781516135ae9085906001600160f81b0316615365565b60208401526136a4565b600080805260018981016020908152604092839020835160608101855281546001600160f81b0381168252600160f81b900460ff161515928101929092528201546001600160a01b03169281019290925285916133f19184161515613946565b604080830151905163a63dcb8960e01b815260048101899052602481018890526001600160a01b038781166044830152606482018790529091169063a63dcb89906084016040805180830381865afa158015613678573d6000803e3d6000fd5b505050506040513d601f19601f8201168201806040525081019061369c9190615443565b602085015283525b6004880154156137c8576001600382901c16158015613728576001600283901c161580159061370c5784602001516000036136f257604051630b27db6160e11b815260040160405180910390fd5b60048a0154613702908790615365565b6060860152613722565b60048a015461371c908790615365565b60408601525b506137c6565b60208401511561378157846127108a60030160010154866020015161374d9190615365565b613757919061539a565b6137619190615365565b60608501819052602085018051613779908390614fa1565b9052506137c6565b600489015484518691612710916137989190615365565b6137a2919061539a565b6137ac9190615365565b60408501819052845185906137c2908390614fa1565b9052505b505b505095945050505050565b600080600080600085875af19050806110f15760405162461bcd60e51b815260206004820152601360248201527211551217d514905394d1915497d19052531151606a1b60448201526064016109ab565b60088101546001600160a01b0316610a48576040516329c2f8dd60e11b815260040160405180910390fd5b6001600160a01b0381163b6138bc5760405162461bcd60e51b815260206004820152602d60248201527f455243313936373a206e657720696d706c656d656e746174696f6e206973206e60448201526c1bdd08184818dbdb9d1c9858dd609a1b60648201526084016109ab565b60008051602061590883398151915280546001600160a01b0319166001600160a01b0392909216919091179055565b6138f483613d0d565b6000825111806139015750805b156110f1576139108383613d4d565b50505050565b600054610100900460ff1661393d5760405162461bcd60e51b81526004016109ab906153f8565b610a88336132b2565b81516000906001600160f81b031615801561395f575081155b1561397d57604051630b27db6160e11b815260040160405180910390fd5b82602001516139965782516001600160f81b031661121f565b61399e613e41565b83516139b49069d3c21bcecceda1000000615467565b6001600160f81b031661121f919061539a565b6000806139d3856120ee565b90506001600160a01b03811615613d03576000856001600160a01b031663313ce5676040518163ffffffff1660e01b8152600401602060405180830381865afa158015613a24573d6000803e3d6000fd5b505050506040513d601f19601f82011682018060405250810190613a489190615496565b60ff16905060008460010b600003613ad557826001600160a01b0316633850c7bd6040518163ffffffff1660e01b815260040160e060405180830381865afa158015613a98573d6000803e3d6000fd5b505050506040513d601f19601f82011682018060405250810190613abc91906154c5565b50506001600160a01b039094169450613bfe9350505050565b6040805160028082526060820183526000926020830190803683370190505090508561ffff1681600081518110613b0e57613b0e614d44565b63ffffffff9092166020928302919091019091015260405163883bdbfd60e01b81526000906001600160a01b0386169063883bdbfd90613b5290859060040161555e565b600060405180830381865afa158015613b6f573d6000803e3d6000fd5b505050506040513d6000823e601f3d908101601f19168201604052613b97919081019061560c565b509050613bf08760010b82600081518110613bb457613bb4614d44565b602002602001015183600181518110613bcf57613bcf614d44565b6020026020010151613be191906156cd565b613beb919061571d565b613ec5565b6001600160a01b0316925050505b600060026060613c1284633b9aca00615365565b613c1d92911c61583f565b9050876001600160a01b0316846001600160a01b0316630dfe16816040518163ffffffff1660e01b8152600401602060405180830381865afa158015613c67573d6000803e3d6000fd5b505050506040513d601f19601f82011682018060405250810190613c8b9190614fd0565b6001600160a01b031614613cd757613ca4836018614fa1565b613caf90600a61584e565b613cbe64e8d4a510008961539a565b613cc89083615365565b613cd2919061539a565b613cf8565b8087613ce485600a61584e565b613cee9190615365565b613cf8919061539a565b94505050505061121f565b600091505061121f565b613d168161384f565b6040516001600160a01b038216907fbc7cd75a20ee27fd9adebab32041f755214dbc6bffa90cc0225b39da2e5c2d3b90600090a250565b60606001600160a01b0383163b613db55760405162461bcd60e51b815260206004820152602660248201527f416464726573733a2064656c65676174652063616c6c20746f206e6f6e2d636f6044820152651b9d1c9858dd60d21b60648201526084016109ab565b600080846001600160a01b031684604051613dd09190615349565b600060405180830381855af49150503d8060008114613e0b576040519150601f19603f3d011682016040523d82523d6000602084013e613e10565b606091505b5091509150613e388282604051806060016040528060278152602001615928602791396142d1565b95945050505050565b600080738a753747a1fa494ec906ce90e9f37563a8af630e6001600160a01b031663feaf968c6040518163ffffffff1660e01b815260040160a060405180830381865afa158015613e96573d6000803e3d6000fd5b505050506040513d601f19601f82011682018060405250810190613eba9190615874565b509195945050505050565b60008060008360020b12613edc578260020b613ee9565b8260020b613ee9906158c4565b9050620d89e8811115613f225760405162461bcd60e51b81526020600482015260016024820152601560fa1b60448201526064016109ab565b600081600116600003613f3957600160801b613f4b565b6ffffcb933bd6fad37aa2d162d1a5940015b70ffffffffffffffffffffffffffffffffff1690506002821615613f8a576080613f85826ffff97272373d413259a46990580e213a615365565b901c90505b6004821615613fb4576080613faf826ffff2e50f5f656932ef12357cf3c7fdcc615365565b901c90505b6008821615613fde576080613fd9826fffe5caca7e10e4e61c3624eaa0941cd0615365565b901c90505b6010821615614008576080614003826fffcb9843d60f6159c9db58835c926644615365565b901c90505b602082161561403257608061402d826fff973b41fa98c081472e6896dfb254c0615365565b901c90505b604082161561405c576080614057826fff2ea16466c96a3843ec78b326b52861615365565b901c90505b6080821615614086576080614081826ffe5dee046a99a2a811c461f1969c3053615365565b901c90505b6101008216156140b15760806140ac826ffcbe86c7900a88aedcffc83b479aa3a4615365565b901c90505b6102008216156140dc5760806140d7826ff987a7253ac413176f2b074cf7815e54615365565b901c90505b610400821615614107576080614102826ff3392b0822b70005940c7a398e4b70f3615365565b901c90505b61080082161561413257608061412d826fe7159475a2c29b7443b29c7fa6e889d9615365565b901c90505b61100082161561415d576080614158826fd097f3bdfd2022b8845ad8f792aa5825615365565b901c90505b612000821615614188576080614183826fa9f746462d870fdf8a65dc1f90e061e5615365565b901c90505b6140008216156141b35760806141ae826f70d869a156d2a1b890bb3df62baf32f7615365565b901c90505b6180008216156141de5760806141d9826f31be135f97d08fd981231505542fcfa6615365565b901c90505b6201000082161561420a576080614205826f09aa508b5b7a84e1c677de54f3e99bc9615365565b901c90505b62020000821615614235576080614230826e5d6af8dedb81196699c329225ee604615365565b901c90505b6204000082161561425f57608061425a826d2216e584f5fa1ea926041bedfe98615365565b901c90505b62080000821615614287576080614282826b048a170391f7dc42444e8fa2615365565b901c90505b60008460020b13156142a25761429f8160001961539a565b90505b6142b1640100000000826158e0565b156142bd5760016142c0565b60005b6120e69060ff16602083901c614fb8565b606083156142e057508161121f565b8251156142f05782518084602001fd5b8160405162461bcd60e51b81526004016109ab91906158f4565b50805461431690614f23565b6000825580601f10614326575050565b601f016020900490600052602060002090810190610a4891906143c8565b82805461435090614f23565b90600052602060002090601f01602090048101928261437257600085556143b8565b82601f1061438b57805160ff19168380011785556143b8565b828001600101855582156143b8579182015b828111156143b857825182559160200191906001019061439d565b506143c49291506143c8565b5090565b5b808211156143c457600081556001016143c9565b60ff81168114610a4857600080fd5b80356143f7816143dd565b919050565b8015158114610a4857600080fd5b80356143f7816143fc565b803563ffffffff811681146143f757600080fd5b60008060008060008060008060e0898b03121561444557600080fd5b8835975060208901359650604089013561445e816143dd565b9550606089013561446e816143fc565b9450608089013561447e816143fc565b935061448c60a08a01614415565b925060c08901356001600160401b03808211156144a857600080fd5b818b0191508b601f8301126144bc57600080fd5b8135818111156144cb57600080fd5b8c60208260071b85010111156144e057600080fd5b6020830194508093505050509295985092959890939650565b6000806040838503121561450c57600080fd5b50508035926020909101359150565b6001600160a01b0381168114610a4857600080fd5b60006020828403121561454257600080fd5b813561121f8161451b565b60005b83811015614568578181015183820152602001614550565b838111156139105750506000910152565b6000815180845261459181602086016020860161454d565b601f01601f19169290920160200192915050565b8281526040602082015260006120e66040830184614579565b634e487b7160e01b600052604160045260246000fd5b60405160a081016001600160401b03811182821017156145f6576145f66145be565b60405290565b604080519081016001600160401b03811182821017156145f6576145f66145be565b60405161014081016001600160401b03811182821017156145f6576145f66145be565b604051601f8201601f191681016001600160401b0381118282101715614669576146696145be565b604052919050565b600082601f83011261468257600080fd5b81356001600160401b0381111561469b5761469b6145be565b6146ae601f8201601f1916602001614641565b8181528460208386010111156146c357600080fd5b816020850160208301376000918101602001919091529392505050565b600080604083850312156146f357600080fd5b82356146fe8161451b565b915060208301356001600160401b0381111561471957600080fd5b61472585828601614671565b9150509250929050565b60006001600160401b03821115614748576147486145be565b5060051b60200190565b80356001600160801b03811681146143f757600080fd5b6000806040838503121561477c57600080fd5b82356147878161451b565b91506020838101356001600160401b03808211156147a457600080fd5b818601915086601f8301126147b857600080fd5b81356147cb6147c68261472f565b614641565b81815260059190911b830184019084810190898311156147ea57600080fd5b8585015b8381101561489c5780358581111561480557600080fd5b860160a0818d03601f1901121561481c5760008081fd5b6148246145d4565b61482f898301614752565b815261483d60408301614415565b898201526060808301356148508161451b565b60408301526080614862848201614415565b8284015260a084013591508882111561487b5760008081fd5b6148898f8c84870101614671565b90830152508452509186019186016147ee565b508096505050505050509250929050565b6000806000606084860312156148c257600080fd5b83356148cd8161451b565b95602085013595506040909401359392505050565b600080600080608085870312156148f857600080fd5b843593506020850135925060408501356149118161451b565b9396929550929360600135925050565b81518152602080830151908201526040808301519082015260608083015190820152608081016112bb565b60006020828403121561495e57600080fd5b5035919050565b60008060006060848603121561497a57600080fd5b833592506020840135915060408401356149938161451b565b809150509250925092565b600082601f8301126149af57600080fd5b813560206149bf6147c68361472f565b82815260069290921b840181019181810190868411156149de57600080fd5b8286015b84811015614a2b57604081890312156149fb5760008081fd5b614a036145fc565b614a0c82614752565b8152614a19858301614415565b818601528352918301916040016149e2565b509695505050505050565b80356001600160f81b03811681146143f757600080fd5b600060808284031215614a5f57600080fd5b604051608081018181106001600160401b0382111715614a8157614a816145be565b604052905080614a9083614a36565b81526020830135614aa0816143fc565b60208201526040830135614ab38161451b565b60408201526060830135614ac68161451b565b6060919091015292915050565b600082601f830112614ae457600080fd5b81356020614af46147c68361472f565b82815260079290921b84018101918181019086841115614b1357600080fd5b8286015b84811015614a2b57614b298882614a4d565b835291830191608001614b17565b80356001600160e01b0319811681146143f757600080fd5b600060a08284031215614b6157600080fd5b614b696145d4565b905081356001600160401b03811115614b8157600080fd5b614b8d84828501614671565b825250602082013560208201526040820135614ba88161451b565b6040820152614bb960608301614b37565b6060820152614bca60808301614b37565b608082015292915050565b600080600060608486031215614bea57600080fd5b8335925060208401356001600160401b0380821115614c0857600080fd5b908501906101408288031215614c1d57600080fd5b614c2561461e565b823582811115614c3457600080fd5b614c408982860161499e565b825250602083013582811115614c5557600080fd5b614c6189828601614ad3565b602083015250604083013582811115614c7957600080fd5b614c8589828601614671565b604083015250606083013582811115614c9d57600080fd5b614ca989828601614671565b606083015250614cbb60808401614415565b6080820152614ccc60a084016143ec565b60a0820152614cdd60c0840161440a565b60c0820152614cee60e0840161440a565b60e0820152610100614d0181850161440a565b90820152610120614d1384820161440a565b9082015293506040860135915080821115614d2d57600080fd5b50614d3a86828701614b4f565b9150509250925092565b634e487b7160e01b600052603260045260246000fd5b600060808284031215614d6c57600080fd5b61121f8383614a4d565b600060208284031215614d8857600080fd5b815161121f816143fc565b600060a0820160ff89168352602088151581850152604088151581860152606063ffffffff891681870152608060a0818801528488865260c08801905089955060005b89811015614e44576001600160f81b03614def88614a36565b16825285870135614dff816143fc565b15158287015286850135614e128161451b565b6001600160a01b03908116838701528785013590614e2f8261451b565b16828501529582019590820190600101614dd6565b509d9c50505050505050505050505050565b6020808252602c908201527f46756e6374696f6e206d7573742062652063616c6c6564207468726f7567682060408201526b19195b1959d85d1958d85b1b60a21b606082015260800190565b6020808252602c908201527f46756e6374696f6e206d7573742062652063616c6c6564207468726f7567682060408201526b6163746976652070726f787960a01b606082015260800190565b6020808252818101527f4f776e61626c653a2063616c6c6572206973206e6f7420746865206f776e6572604082015260600190565b600181811c90821680614f3757607f821691505b602082108103614f5757634e487b7160e01b600052602260045260246000fd5b50919050565b60008060408385031215614f7057600080fd5b8251614f7b8161451b565b6020939093015192949293505050565b634e487b7160e01b600052601160045260246000fd5b600082821015614fb357614fb3614f8b565b500390565b60008219821115614fcb57614fcb614f8b565b500190565b600060208284031215614fe257600080fd5b815161121f8161451b565b600060208284031215614fff57600080fd5b5051919050565b600081518084526020808501945080840160005b8381101561505057815180516001600160801b0316885283015163ffffffff16838801526040909601959082019060010161501a565b509495945050505050565b600081518084526020808501945080840160005b8381101561505057815180516001600160f81b03168852838101511515848901526040808201516001600160a01b03908116918a019190915260609182015116908801526080909601959082019060010161506f565b6000815160a084526150da60a0850182614579565b602084810151908601526040808501516001600160a01b0316908601526060808501516001600160e01b0319908116918701919091526080948501511693909401929092525090919050565b60018060a01b038416815260606020820152600083516101408060608501526151536101a0850183615006565b91506020860151605f1980868503016080870152615171848361505b565b935060408801519150808685030160a087015261518e8483614579565b935060608801519150808685030160c0870152506151ac8382614579565b92505060808601516151c660e086018263ffffffff169052565b5060a08601516101006151dd8187018360ff169052565b60c088015191506101206151f48188018415159052565b60e08901511515938701939093528701511515610160860152508501511515610180840152828103604084015261127a81856150c5565b600063ffffffff80831681851680830382111561524a5761524a614f8b565b01949350505050565b6001600160801b038716815263ffffffff8681166020808401919091526001600160a01b0387166040840152908516606083015260c060808301528354600091908290600181811c90828116806152ab57607f831692505b85831081036152c857634e487b7160e01b85526022600452602485fd5b60c0880183905260e088018180156152e757600181146152f857615323565b60ff19861682528782019650615323565b60008c81526020902060005b8681101561531d57815484820152908501908901615304565b83019750505b50505050505083810360a085015261533b8186614579565b9a9950505050505050505050565b6000825161535b81846020870161454d565b9190910192915050565b600081600019048311821515161561537f5761537f614f8b565b500290565b634e487b7160e01b600052601260045260246000fd5b6000826153a9576153a9615384565b500490565b63ffffffff841681526001600160a01b038316602082015260c081016120e66040830184805182526020810151602083015260408101516040830152606081015160608301525050565b6020808252602b908201527f496e697469616c697a61626c653a20636f6e7472616374206973206e6f74206960408201526a6e697469616c697a696e6760a81b606082015260800190565b6000806040838503121561545657600080fd5b505080516020909101519092909150565b60006001600160f81b038281168482168115158284048211161561548d5761548d614f8b565b02949350505050565b6000602082840312156154a857600080fd5b815161121f816143dd565b805161ffff811681146143f757600080fd5b600080600080600080600060e0888a0312156154e057600080fd5b87516154eb8161451b565b8097505060208801518060020b811461550357600080fd5b9550615511604089016154b3565b945061551f606089016154b3565b935061552d608089016154b3565b925060a088015161553d816143dd565b60c089015190925061554e816143fc565b8091505092959891949750929550565b6020808252825182820181905260009190848201906040850190845b8181101561559c57835163ffffffff168352928401929184019160010161557a565b50909695505050505050565b600082601f8301126155b957600080fd5b815160206155c96147c68361472f565b82815260059290921b840181019181810190868411156155e857600080fd5b8286015b84811015614a2b5780516155ff8161451b565b83529183019183016155ec565b6000806040838503121561561f57600080fd5b82516001600160401b038082111561563657600080fd5b818501915085601f83011261564a57600080fd5b8151602061565a6147c68361472f565b82815260059290921b8401810191818101908984111561567957600080fd5b948201945b838610156156a75785518060060b81146156985760008081fd5b8252948201949082019061567e565b918801519196509093505050808211156156c057600080fd5b50614725858286016155a8565b60008160060b8360060b6000811281667fffffffffffff19018312811516156156f8576156f8614f8b565b81667fffffffffffff01831381161561571357615713614f8b565b5090039392505050565b60008160060b8360060b8061573457615734615384565b667fffffffffffff1982146000198214161561575257615752614f8b565b90059392505050565b600181815b8085111561579657816000190482111561577c5761577c614f8b565b8085161561578957918102915b93841c9390800290615760565b509250929050565b6000826157ad575060016112bb565b816157ba575060006112bb565b81600181146157d057600281146157da576157f6565b60019150506112bb565b60ff8411156157eb576157eb614f8b565b50506001821b6112bb565b5060208310610133831016604e8410600b8410161715615819575081810a6112bb565b615823838361575b565b806000190482111561583757615837614f8b565b029392505050565b600061121f60ff84168361579e565b600061121f838361579e565b805169ffffffffffffffffffff811681146143f757600080fd5b600080600080600060a0868803121561588c57600080fd5b6158958661585a565b94506020860151935060408601519250606086015191506158b86080870161585a565b90509295509295909350565b6000600160ff1b82016158d9576158d9614f8b565b5060000390565b6000826158ef576158ef615384565b500690565b60208152600061121f602083018461457956fe360894a13ba1a3210667c828492db98dca3e2076cc3735a920a3ca505d382bbc416464726573733a206c6f772d6c6576656c2064656c65676174652063616c6c206661696c6564f0832fe058ed4ffda256632e9c3d7b50283fb2e36310b6beaf08f633b1407057a2646970667358221220e226a89c82a1bf5f1555ef5a08fc38b4a07c5340016688e6b0b8863ead9b011164736f6c634300080d0033",
  "linkReferences": {},
  "deployedLinkReferences": {}
}