{
  "_format": "hh-sol-artifact-1",
  "contractName": "AllowlistedFactory",
  "sourceName": "contracts/hooks/Allowlisted/immutable/AllowlistedFactory.sol",
  "abi": [
    {
      "anonymous": false,
      "inputs": [
        {
          "indexed": false,
          "internalType": "address",
          "name": "contractAddress",
          "type": "address"
        }
      ],
      "name": "ContractCreated",
      "type": "event"
    },
    {
      "inputs": [
        {
          "internalType": "address",
          "name": "productsModuleAddress_",
          "type": "address"
        },
        {
          "internalType": "uint256",
          "name": "slicerId_",
          "type": "uint256"
        },
        {
          "internalType": "bytes32",
          "name": "merkleRoot_",
          "type": "bytes32"
        }
      ],
      "name": "deploy",
      "outputs": [
        {
          "internalType": "address",
          "name": "contractAddress",
          "type": "address"
        }
      ],
      "stateMutability": "nonpayable",
      "type": "function"
    }
  ],
  "bytecode": "0x608060405234801561001057600080fd5b5061068c806100206000396000f3fe608060405234801561001057600080fd5b506004361061002b5760003560e01c8063e7008afa14610030575b600080fd5b61004361003e3660046100fd565b61005f565b6040516001600160a01b03909116815260200160405180910390f35b6000838383604051610070906100f0565b6001600160a01b03909316835260208301919091526040820152606001604051809103906000f0801580156100a9573d6000803e3d6000fd5b506040516001600160a01b03821681529091507fcf78cf0d6f3d8371e1075c69c492ab4ec5d8cf23a1a239b6a51a1d00be7ca3129060200160405180910390a19392505050565b6105188061013f83390190565b60008060006060848603121561011257600080fd5b83356001600160a01b038116811461012957600080fd5b9560208501359550604090940135939250505056fe608060405234801561001057600080fd5b5060405161051838038061051883398101604081905261002f9161005b565b600080546001600160a01b0319166001600160a01b03949094169390931790925560015560025561009e565b60008060006060848603121561007057600080fd5b83516001600160a01b038116811461008757600080fd5b602085015160409095015190969495509392505050565b61046b806100ad6000396000f3fe6080604052600436106100295760003560e01c806395db93681461002e578063a23fffb914610062575b600080fd5b34801561003a57600080fd5b5061004e6100493660046102b4565b610077565b604051901515815260200160405180910390f35b6100756100703660046102b4565b6100e5565b005b6000808280602001905181019061008e9190610352565b6040516bffffffffffffffffffffffff19606089901b1660208201529091506000906034016040516020818303038152906040528051906020012090506100d88260025483610123565b9998505050505050505050565b856100ef81610139565b6100fd878787878787610077565b61011a57604051631eb49d6d60e11b815260040160405180910390fd5b50505050505050565b6000826101308584610189565b14949350505050565b806001541461015b57604051632eafdb6960e01b815260040160405180910390fd5b6000546001600160a01b03163314610186576040516347322d0360e01b815260040160405180910390fd5b50565b600081815b84518110156101f55760008582815181106101ab576101ab6103f8565b602002602001015190508083116101d157600083815260208290526040902092506101e2565b600081815260208490526040902092505b50806101ed8161040e565b91505061018e565b509392505050565b634e487b7160e01b600052604160045260246000fd5b604051601f8201601f1916810167ffffffffffffffff8111828210171561023c5761023c6101fd565b604052919050565b600082601f83011261025557600080fd5b813567ffffffffffffffff81111561026f5761026f6101fd565b610282601f8201601f1916602001610213565b81815284602083860101111561029757600080fd5b816020850160208301376000918101602001919091529392505050565b60008060008060008060c087890312156102cd57600080fd5b863595506020870135945060408701356001600160a01b03811681146102f257600080fd5b935060608701359250608087013567ffffffffffffffff8082111561031657600080fd5b6103228a838b01610244565b935060a089013591508082111561033857600080fd5b5061034589828a01610244565b9150509295509295509295565b6000602080838503121561036557600080fd5b825167ffffffffffffffff8082111561037d57600080fd5b818501915085601f83011261039157600080fd5b8151818111156103a3576103a36101fd565b8060051b91506103b4848301610213565b81815291830184019184810190888411156103ce57600080fd5b938501935b838510156103ec578451825293850193908501906103d3565b98975050505050505050565b634e487b7160e01b600052603260045260246000fd5b60006001820161042e57634e487b7160e01b600052601160045260246000fd5b506001019056fea2646970667358221220499f9a268b3255c67411fbb60dc6f0da93d3937760637ad571e4d7dbe6e32eed64736f6c634300080d0033a2646970667358221220ffb222a600b08b01dd4273af7294dc4df98a07f0940f685e9f88cf6197e7d01464736f6c634300080d0033",
  "linkReferences": {},
  "deployedLinkReferences": {}
}