{
  "_format": "hh-sol-artifact-1",
  "contractName": "SLC",
  "sourceName": "contracts/slc_v0.sol",
  "abi": [
    {
      "anonymous": false,
      "inputs": [
        {
          "indexed": false,
          "internalType": "address",
          "name": "previousAdmin",
          "type": "address"
        },
        {
          "indexed": false,
          "internalType": "address",
          "name": "newAdmin",
          "type": "address"
        }
      ],
      "name": "AdminChanged",
      "type": "event"
    },
    {
      "anonymous": false,
      "inputs": [
        {
          "indexed": true,
          "internalType": "address",
          "name": "owner",
          "type": "address"
        },
        {
          "indexed": true,
          "internalType": "address",
          "name": "spender",
          "type": "address"
        },
        {
          "indexed": false,
          "internalType": "uint256",
          "name": "value",
          "type": "uint256"
        }
      ],
      "name": "Approval",
      "type": "event"
    },
    {
      "anonymous": false,
      "inputs": [
        {
          "indexed": true,
          "internalType": "address",
          "name": "beacon",
          "type": "address"
        }
      ],
      "name": "BeaconUpgraded",
      "type": "event"
    },
    {
      "anonymous": false,
      "inputs": [
        {
          "indexed": true,
          "internalType": "address",
          "name": "receiver",
          "type": "address"
        },
        {
          "indexed": false,
          "internalType": "uint256",
          "name": "amount",
          "type": "uint256"
        },
        {
          "indexed": true,
          "internalType": "address",
          "name": "slicerAddress",
          "type": "address"
        },
        {
          "indexed": false,
          "internalType": "uint8",
          "name": "slicerPercentage",
          "type": "uint8"
        }
      ],
      "name": "MintTriggered",
      "type": "event"
    },
    {
      "anonymous": false,
      "inputs": [
        {
          "indexed": true,
          "internalType": "address",
          "name": "receiver",
          "type": "address"
        },
        {
          "indexed": false,
          "internalType": "uint256",
          "name": "amount",
          "type": "uint256"
        }
      ],
      "name": "MintedSLC",
      "type": "event"
    },
    {
      "anonymous": false,
      "inputs": [
        {
          "indexed": true,
          "internalType": "address",
          "name": "previousOwner",
          "type": "address"
        },
        {
          "indexed": true,
          "internalType": "address",
          "name": "newOwner",
          "type": "address"
        }
      ],
      "name": "OwnershipTransferred",
      "type": "event"
    },
    {
      "anonymous": false,
      "inputs": [
        {
          "indexed": true,
          "internalType": "address",
          "name": "from",
          "type": "address"
        },
        {
          "indexed": true,
          "internalType": "address",
          "name": "to",
          "type": "address"
        },
        {
          "indexed": false,
          "internalType": "uint256",
          "name": "value",
          "type": "uint256"
        }
      ],
      "name": "Transfer",
      "type": "event"
    },
    {
      "anonymous": false,
      "inputs": [
        {
          "indexed": true,
          "internalType": "address",
          "name": "implementation",
          "type": "address"
        }
      ],
      "name": "Upgraded",
      "type": "event"
    },
    {
      "inputs": [
        {
          "internalType": "address",
          "name": "account",
          "type": "address"
        },
        {
          "internalType": "uint256",
          "name": "amount",
          "type": "uint256"
        },
        {
          "internalType": "uint32",
          "name": "categoryContractId",
          "type": "uint32"
        }
      ],
      "name": "_mintSLC",
      "outputs": [],
      "stateMutability": "nonpayable",
      "type": "function"
    },
    {
      "inputs": [
        {
          "internalType": "uint32",
          "name": "serviceId",
          "type": "uint32"
        },
        {
          "internalType": "uint256",
          "name": "slcPrice",
          "type": "uint256"
        }
      ],
      "name": "_setServicePrice",
      "outputs": [],
      "stateMutability": "nonpayable",
      "type": "function"
    },
    {
      "inputs": [
        {
          "internalType": "address",
          "name": "account",
          "type": "address"
        },
        {
          "internalType": "uint256",
          "name": "amount",
          "type": "uint256"
        },
        {
          "internalType": "address",
          "name": "slicerAddress",
          "type": "address"
        },
        {
          "internalType": "uint8",
          "name": "slicerPercentage",
          "type": "uint8"
        }
      ],
      "name": "_triggerMint",
      "outputs": [],
      "stateMutability": "nonpayable",
      "type": "function"
    },
    {
      "inputs": [
        {
          "internalType": "address",
          "name": "owner",
          "type": "address"
        },
        {
          "internalType": "address",
          "name": "spender",
          "type": "address"
        }
      ],
      "name": "allowance",
      "outputs": [
        {
          "internalType": "uint256",
          "name": "",
          "type": "uint256"
        }
      ],
      "stateMutability": "view",
      "type": "function"
    },
    {
      "inputs": [
        {
          "internalType": "address",
          "name": "spender",
          "type": "address"
        },
        {
          "internalType": "uint256",
          "name": "amount",
          "type": "uint256"
        }
      ],
      "name": "approve",
      "outputs": [
        {
          "internalType": "bool",
          "name": "",
          "type": "bool"
        }
      ],
      "stateMutability": "nonpayable",
      "type": "function"
    },
    {
      "inputs": [
        {
          "internalType": "address",
          "name": "account",
          "type": "address"
        }
      ],
      "name": "balanceOf",
      "outputs": [
        {
          "internalType": "uint256",
          "name": "",
          "type": "uint256"
        }
      ],
      "stateMutability": "view",
      "type": "function"
    },
    {
      "inputs": [],
      "name": "decimals",
      "outputs": [
        {
          "internalType": "uint8",
          "name": "",
          "type": "uint8"
        }
      ],
      "stateMutability": "view",
      "type": "function"
    },
    {
      "inputs": [
        {
          "internalType": "address",
          "name": "spender",
          "type": "address"
        },
        {
          "internalType": "uint256",
          "name": "subtractedValue",
          "type": "uint256"
        }
      ],
      "name": "decreaseAllowance",
      "outputs": [
        {
          "internalType": "bool",
          "name": "",
          "type": "bool"
        }
      ],
      "stateMutability": "nonpayable",
      "type": "function"
    },
    {
      "inputs": [
        {
          "internalType": "uint32",
          "name": "serviceId",
          "type": "uint32"
        }
      ],
      "name": "getServicePrice",
      "outputs": [
        {
          "internalType": "uint256",
          "name": "price",
          "type": "uint256"
        }
      ],
      "stateMutability": "view",
      "type": "function"
    },
    {
      "inputs": [
        {
          "internalType": "address",
          "name": "spender",
          "type": "address"
        },
        {
          "internalType": "uint256",
          "name": "addedValue",
          "type": "uint256"
        }
      ],
      "name": "increaseAllowance",
      "outputs": [
        {
          "internalType": "bool",
          "name": "",
          "type": "bool"
        }
      ],
      "stateMutability": "nonpayable",
      "type": "function"
    },
    {
      "inputs": [
        {
          "internalType": "address",
          "name": "sliceCoreAddress",
          "type": "address"
        }
      ],
      "name": "initialize",
      "outputs": [],
      "stateMutability": "nonpayable",
      "type": "function"
    },
    {
      "inputs": [],
      "name": "name",
      "outputs": [
        {
          "internalType": "string",
          "name": "",
          "type": "string"
        }
      ],
      "stateMutability": "view",
      "type": "function"
    },
    {
      "inputs": [],
      "name": "owner",
      "outputs": [
        {
          "internalType": "address",
          "name": "",
          "type": "address"
        }
      ],
      "stateMutability": "view",
      "type": "function"
    },
    {
      "inputs": [],
      "name": "symbol",
      "outputs": [
        {
          "internalType": "string",
          "name": "",
          "type": "string"
        }
      ],
      "stateMutability": "view",
      "type": "function"
    },
    {
      "inputs": [],
      "name": "totalSupply",
      "outputs": [
        {
          "internalType": "uint256",
          "name": "",
          "type": "uint256"
        }
      ],
      "stateMutability": "view",
      "type": "function"
    },
    {
      "inputs": [
        {
          "internalType": "address",
          "name": "recipient",
          "type": "address"
        },
        {
          "internalType": "uint256",
          "name": "amount",
          "type": "uint256"
        }
      ],
      "name": "transfer",
      "outputs": [
        {
          "internalType": "bool",
          "name": "",
          "type": "bool"
        }
      ],
      "stateMutability": "nonpayable",
      "type": "function"
    },
    {
      "inputs": [
        {
          "internalType": "address",
          "name": "sender",
          "type": "address"
        },
        {
          "internalType": "address",
          "name": "recipient",
          "type": "address"
        },
        {
          "internalType": "uint256",
          "name": "amount",
          "type": "uint256"
        }
      ],
      "name": "transferFrom",
      "outputs": [
        {
          "internalType": "bool",
          "name": "",
          "type": "bool"
        }
      ],
      "stateMutability": "nonpayable",
      "type": "function"
    },
    {
      "inputs": [
        {
          "internalType": "address",
          "name": "newOwner",
          "type": "address"
        }
      ],
      "name": "transferOwnership",
      "outputs": [],
      "stateMutability": "nonpayable",
      "type": "function"
    },
    {
      "inputs": [
        {
          "internalType": "address",
          "name": "newImplementation",
          "type": "address"
        }
      ],
      "name": "upgradeTo",
      "outputs": [],
      "stateMutability": "nonpayable",
      "type": "function"
    },
    {
      "inputs": [
        {
          "internalType": "address",
          "name": "newImplementation",
          "type": "address"
        },
        {
          "internalType": "bytes",
          "name": "data",
          "type": "bytes"
        }
      ],
      "name": "upgradeToAndCall",
      "outputs": [],
      "stateMutability": "payable",
      "type": "function"
    }
  ],
  "bytecode": "0x60a06040523060601b60805234801561001757600080fd5b5060805160601c611c8c61004b6000396000818161055f0152818161059f0152818161076901526107a90152611c8c6000f3fe60806040526004361061011f5760003560e01c806370a08231116100a0578063c4d66de811610064578063c4d66de814610335578063c50fc43714610355578063dd62ed3e14610375578063deb0e991146103bb578063f2fde38b146103db57600080fd5b806370a08231146102825780638da5cb5b146102b857806395d89b41146102e0578063a457c2d7146102f5578063a9059cbb1461031557600080fd5b80633659cfe6116100e75780633659cfe6146101da5780633941a604146101fc578063395093511461022f578063400d31fa1461024f5780634f1ef2861461026f57600080fd5b806306fdde0314610124578063095ea7b31461014f57806318160ddd1461017f57806323b872dd1461019e578063313ce567146101be575b600080fd5b34801561013057600080fd5b506101396103fb565b6040516101469190611742565b60405180910390f35b34801561015b57600080fd5b5061016f61016a36600461178a565b61048d565b6040519015158152602001610146565b34801561018b57600080fd5b506035545b604051908152602001610146565b3480156101aa57600080fd5b5061016f6101b93660046117b6565b6104a3565b3480156101ca57600080fd5b5060405160128152602001610146565b3480156101e657600080fd5b506101fa6101f53660046117f7565b610554565b005b34801561020857600080fd5b5061019061021736600461182d565b63ffffffff16600090815260fd602052604090205490565b34801561023b57600080fd5b5061016f61024a36600461178a565b61061d565b34801561025b57600080fd5b506101fa61026a366004611848565b610659565b6101fa61027d36600461189c565b61075e565b34801561028e57600080fd5b5061019061029d3660046117f7565b6001600160a01b031660009081526033602052604090205490565b3480156102c457600080fd5b5060ca546040516001600160a01b039091168152602001610146565b3480156102ec57600080fd5b50610139610818565b34801561030157600080fd5b5061016f61031036600461178a565b610827565b34801561032157600080fd5b5061016f61033036600461178a565b6108c0565b34801561034157600080fd5b506101fa6103503660046117f7565b6108cd565b34801561036157600080fd5b506101fa610370366004611960565b6109b6565b34801561038157600080fd5b5061019061039036600461197c565b6001600160a01b03918216600090815260346020908152604080832093909416825291909152205490565b3480156103c757600080fd5b506101fa6103d63660046119b5565b610a0e565b3480156103e757600080fd5b506101fa6103f63660046117f7565b610b90565b60606036805461040a90611a0e565b80601f016020809104026020016040519081016040528092919081815260200182805461043690611a0e565b80156104835780601f1061045857610100808354040283529160200191610483565b820191906000526020600020905b81548152906001019060200180831161046657829003601f168201915b5050505050905090565b600061049a338484610c81565b50600192915050565b60006104b0848484610da5565b6001600160a01b03841660009081526034602090815260408083203384529091529020548281101561053a5760405162461bcd60e51b815260206004820152602860248201527f45524332303a207472616e7366657220616d6f756e74206578636565647320616044820152676c6c6f77616e636560c01b60648201526084015b60405180910390fd5b6105478533858403610c81565b60019150505b9392505050565b306001600160a01b037f000000000000000000000000000000000000000000000000000000000000000016141561059d5760405162461bcd60e51b815260040161053190611a49565b7f00000000000000000000000000000000000000000000000000000000000000006001600160a01b03166105cf610f75565b6001600160a01b0316146105f55760405162461bcd60e51b815260040161053190611a95565b6105fe81610fa3565b6040805160008082526020820190925261061a91839190610fcd565b50565b3360008181526034602090815260408083206001600160a01b0387168452909152812054909161049a918590610654908690611af7565b610c81565b60ca546001600160a01b0316331480610703575060fc5460405163588d1be760e01b815263ffffffff831660048201526001600160a01b039091169063588d1be79060240160206040518083038186803b1580156106b657600080fd5b505afa1580156106ca573d6000803e3d6000fd5b505050506040513d601f19601f820116820180604052508101906106ee9190611b0f565b6001600160a01b0316336001600160a01b0316145b61070c57600080fd5b6107168383611118565b826001600160a01b03167f6b0f6e93733b0b0b8d5cf4087f58b25241f1a1a9a1d196004fef371df8b248248360405161075191815260200190565b60405180910390a2505050565b306001600160a01b037f00000000000000000000000000000000000000000000000000000000000000001614156107a75760405162461bcd60e51b815260040161053190611a49565b7f00000000000000000000000000000000000000000000000000000000000000006001600160a01b03166107d9610f75565b6001600160a01b0316146107ff5760405162461bcd60e51b815260040161053190611a95565b61080882610fa3565b61081482826001610fcd565b5050565b60606037805461040a90611a0e565b3360009081526034602090815260408083206001600160a01b0386168452909152812054828110156108a95760405162461bcd60e51b815260206004820152602560248201527f45524332303a2064656372656173656420616c6c6f77616e63652062656c6f77604482015264207a65726f60d81b6064820152608401610531565b6108b63385858403610c81565b5060019392505050565b600061049a338484610da5565b600054610100900460ff16806108e6575060005460ff16155b6109025760405162461bcd60e51b815260040161053190611b2c565b600054610100900460ff16158015610924576000805461ffff19166101011790555b61096660405180604001604052806005815260200164536c69636560d81b81525060405180604001604052806003815260200162534c4360e81b8152506111f7565b61096f33611277565b60fc80546001600160a01b0319166001600160a01b0384161790556109a1336c0c9f2c9cd04674edea40000000611118565b8015610814576000805461ff00191690555050565b60ca546001600160a01b03163314806109d9575060c9546001600160a01b031633145b6109f55760405162461bcd60e51b815260040161053190611b7a565b63ffffffff909116600090815260fd6020526040902055565b60ca546001600160a01b03163314610a385760405162461bcd60e51b815260040161053190611b7a565b60648160ff161115610a8c5760405162461bcd60e51b815260206004820152601960248201527f496e76616c696420536c696365722070657263656e74616765000000000000006044820152606401610531565b6000610a9760355490565b610ab16c0c9f2c9cd04674edea4000000062989680611baf565b610abb9190611bce565b610ac6906064611af7565b610ad09085611baf565b905060ff821615610b34578160ff16606414610b2a57610b12856064610af68582611bf0565b610b039060ff1685611baf565b610b0d9190611bce565b611118565b610b25836064610b0360ff861685611baf565b610b3e565b610b258382611118565b610b3e8582611118565b6040805182815260ff841660208201526001600160a01b0380861692908816917f370d437095ad9bf0ea811e8473ef1a6460e4e4d596a5c3c2970d1c0c6c4ed2da910160405180910390a35050505050565b60ca546001600160a01b0316331480610bb3575060c9546001600160a01b031633145b610bcf5760405162461bcd60e51b815260040161053190611b7a565b6001600160a01b038116610c255760405162461bcd60e51b815260206004820152601d60248201527f4e6577206f776e657220697320746865207a65726f20616464726573730000006044820152606401610531565b60ca546040516001600160a01b038084169216907f8be0079c531659141344cd1fd0a4f28419497f9722a3daafe3b4186f6b6457e090600090a360ca80546001600160a01b0319166001600160a01b0392909216919091179055565b6001600160a01b038316610ce35760405162461bcd60e51b8152602060048201526024808201527f45524332303a20617070726f76652066726f6d20746865207a65726f206164646044820152637265737360e01b6064820152608401610531565b6001600160a01b038216610d445760405162461bcd60e51b815260206004820152602260248201527f45524332303a20617070726f766520746f20746865207a65726f206164647265604482015261737360f01b6064820152608401610531565b6001600160a01b0383811660008181526034602090815260408083209487168084529482529182902085905590518481527f8c5be1e5ebec7d5bd14f71427d1e84f3dd0314c0f7b2291e5b200ac8c7c3b925910160405180910390a3505050565b6001600160a01b038316610e095760405162461bcd60e51b815260206004820152602560248201527f45524332303a207472616e736665722066726f6d20746865207a65726f206164604482015264647265737360d81b6064820152608401610531565b6001600160a01b038216610e6b5760405162461bcd60e51b815260206004820152602360248201527f45524332303a207472616e7366657220746f20746865207a65726f206164647260448201526265737360e81b6064820152608401610531565b6001600160a01b03831660009081526033602052604090205481811015610ee35760405162461bcd60e51b815260206004820152602660248201527f45524332303a207472616e7366657220616d6f756e7420657863656564732062604482015265616c616e636560d01b6064820152608401610531565b6001600160a01b03808516600090815260336020526040808220858503905591851681529081208054849290610f1a908490611af7565b92505081905550826001600160a01b0316846001600160a01b03167fddf252ad1be2c89b69c2b068fc378daa952ba7f163c4a11628f55a4df523b3ef84604051610f6691815260200190565b60405180910390a35b50505050565b7f360894a13ba1a3210667c828492db98dca3e2076cc3735a920a3ca505d382bbc546001600160a01b031690565b60ca546001600160a01b0316331461061a5760405162461bcd60e51b815260040161053190611b7a565b6000610fd7610f75565b9050610fe2846112df565b600083511180610fef5750815b1561100057610ffe8484611384565b505b7f4910fdfa16fed3260ed0e7147f7cc6da11a60208b5b9406d12a635614ffd9143805460ff1661111157805460ff191660011781556040516001600160a01b038316602482015261107f90869060440160408051601f198184030181529190526020810180516001600160e01b0316631b2ce7f360e11b179052611384565b50805460ff19168155611090610f75565b6001600160a01b0316826001600160a01b0316146111085760405162461bcd60e51b815260206004820152602f60248201527f45524331393637557067726164653a207570677261646520627265616b73206660448201526e75727468657220757067726164657360881b6064820152608401610531565b6111118561146f565b5050505050565b6001600160a01b03821661116e5760405162461bcd60e51b815260206004820152601f60248201527f45524332303a206d696e7420746f20746865207a65726f2061646472657373006044820152606401610531565b80603560008282546111809190611af7565b90915550506001600160a01b038216600090815260336020526040812080548392906111ad908490611af7565b90915550506040518181526001600160a01b038316906000907fddf252ad1be2c89b69c2b068fc378daa952ba7f163c4a11628f55a4df523b3ef9060200160405180910390a35050565b600054610100900460ff1680611210575060005460ff16155b61122c5760405162461bcd60e51b815260040161053190611b2c565b600054610100900460ff1615801561124e576000805461ffff19166101011790555b6112566114af565b611260838361151a565b8015611272576000805461ff00191690555b505050565b600054610100900460ff1680611290575060005460ff16155b6112ac5760405162461bcd60e51b815260040161053190611b2c565b600054610100900460ff161580156112ce576000805461ffff19166101011790555b6112d66114af565b6109a1826115af565b803b6113435760405162461bcd60e51b815260206004820152602d60248201527f455243313936373a206e657720696d706c656d656e746174696f6e206973206e60448201526c1bdd08184818dbdb9d1c9858dd609a1b6064820152608401610531565b7f360894a13ba1a3210667c828492db98dca3e2076cc3735a920a3ca505d382bbc80546001600160a01b0319166001600160a01b0392909216919091179055565b6060823b6113e35760405162461bcd60e51b815260206004820152602660248201527f416464726573733a2064656c65676174652063616c6c20746f206e6f6e2d636f6044820152651b9d1c9858dd60d21b6064820152608401610531565b600080846001600160a01b0316846040516113fe9190611c13565b600060405180830381855af49150503d8060008114611439576040519150601f19603f3d011682016040523d82523d6000602084013e61143e565b606091505b50915091506114668282604051806060016040528060278152602001611c3060279139611644565b95945050505050565b611478816112df565b6040516001600160a01b038216907fbc7cd75a20ee27fd9adebab32041f755214dbc6bffa90cc0225b39da2e5c2d3b90600090a250565b600054610100900460ff16806114c8575060005460ff16155b6114e45760405162461bcd60e51b815260040161053190611b2c565b600054610100900460ff16158015611506576000805461ffff19166101011790555b801561061a576000805461ff001916905550565b600054610100900460ff1680611533575060005460ff16155b61154f5760405162461bcd60e51b815260040161053190611b2c565b600054610100900460ff16158015611571576000805461ffff19166101011790555b825161158490603690602086019061167d565b50815161159890603790602085019061167d565b508015611272576000805461ff0019169055505050565b600054610100900460ff16806115c8575060005460ff16155b6115e45760405162461bcd60e51b815260040161053190611b2c565b600054610100900460ff16158015611606576000805461ffff19166101011790555b60c980546001600160a01b0384166001600160a01b03199182161790915560ca8054909116331790558015610814576000805461ff00191690555050565b6060831561165357508161054d565b8251156116635782518084602001fd5b8160405162461bcd60e51b81526004016105319190611742565b82805461168990611a0e565b90600052602060002090601f0160209004810192826116ab57600085556116f1565b82601f106116c457805160ff19168380011785556116f1565b828001600101855582156116f1579182015b828111156116f15782518255916020019190600101906116d6565b506116fd929150611701565b5090565b5b808211156116fd5760008155600101611702565b60005b83811015611731578181015183820152602001611719565b83811115610f6f5750506000910152565b6020815260008251806020840152611761816040850160208701611716565b601f01601f19169190910160400192915050565b6001600160a01b038116811461061a57600080fd5b6000806040838503121561179d57600080fd5b82356117a881611775565b946020939093013593505050565b6000806000606084860312156117cb57600080fd5b83356117d681611775565b925060208401356117e681611775565b929592945050506040919091013590565b60006020828403121561180957600080fd5b813561054d81611775565b803563ffffffff8116811461182857600080fd5b919050565b60006020828403121561183f57600080fd5b61054d82611814565b60008060006060848603121561185d57600080fd5b833561186881611775565b92506020840135915061187d60408501611814565b90509250925092565b634e487b7160e01b600052604160045260246000fd5b600080604083850312156118af57600080fd5b82356118ba81611775565b9150602083013567ffffffffffffffff808211156118d757600080fd5b818501915085601f8301126118eb57600080fd5b8135818111156118fd576118fd611886565b604051601f8201601f19908116603f0116810190838211818310171561192557611925611886565b8160405282815288602084870101111561193e57600080fd5b8260208601602083013760006020848301015280955050505050509250929050565b6000806040838503121561197357600080fd5b6117a883611814565b6000806040838503121561198f57600080fd5b823561199a81611775565b915060208301356119aa81611775565b809150509250929050565b600080600080608085870312156119cb57600080fd5b84356119d681611775565b93506020850135925060408501356119ed81611775565b9150606085013560ff81168114611a0357600080fd5b939692955090935050565b600181811c90821680611a2257607f821691505b60208210811415611a4357634e487b7160e01b600052602260045260246000fd5b50919050565b6020808252602c908201527f46756e6374696f6e206d7573742062652063616c6c6564207468726f7567682060408201526b19195b1959d85d1958d85b1b60a21b606082015260800190565b6020808252602c908201527f46756e6374696f6e206d7573742062652063616c6c6564207468726f7567682060408201526b6163746976652070726f787960a01b606082015260800190565b634e487b7160e01b600052601160045260246000fd5b60008219821115611b0a57611b0a611ae1565b500190565b600060208284031215611b2157600080fd5b815161054d81611775565b6020808252602e908201527f496e697469616c697a61626c653a20636f6e747261637420697320616c72656160408201526d191e481a5b9a5d1a585b1a5e995960921b606082015260800190565b6020808252818101527f4f776e61626c653a2063616c6c6572206973206e6f7420746865206f776e6572604082015260600190565b6000816000190483118215151615611bc957611bc9611ae1565b500290565b600082611beb57634e487b7160e01b600052601260045260246000fd5b500490565b600060ff821660ff841680821015611c0a57611c0a611ae1565b90039392505050565b60008251611c25818460208701611716565b919091019291505056fe416464726573733a206c6f772d6c6576656c2064656c65676174652063616c6c206661696c6564a2646970667358221220e319ec2e47f91a22b2802a6e8afcabee3a197ef6b33ac2f1123981902fb758e864736f6c63430008080033",
  "linkReferences": {},
  "deployedLinkReferences": {}
}