{
  "_format": "hh-sol-artifact-1",
  "contractName": "FundsModule",
  "sourceName": "contracts/FundsModule.sol",
  "abi": [
    {
      "inputs": [],
      "stateMutability": "nonpayable",
      "type": "constructor"
    },
    {
      "inputs": [],
      "name": "ExceedsMaxBalance",
      "type": "error"
    },
    {
      "inputs": [],
      "name": "Invalid",
      "type": "error"
    },
    {
      "inputs": [],
      "name": "NotAuthorized",
      "type": "error"
    },
    {
      "inputs": [],
      "name": "NotSuccessful",
      "type": "error"
    },
    {
      "anonymous": false,
      "inputs": [
        {
          "indexed": false,
          "internalType": "address",
          "name": "previousAdmin",
          "type": "address"
        },
        {
          "indexed": false,
          "internalType": "address",
          "name": "newAdmin",
          "type": "address"
        }
      ],
      "name": "AdminChanged",
      "type": "event"
    },
    {
      "anonymous": false,
      "inputs": [
        {
          "indexed": true,
          "internalType": "address",
          "name": "beacon",
          "type": "address"
        }
      ],
      "name": "BeaconUpgraded",
      "type": "event"
    },
    {
      "anonymous": false,
      "inputs": [
        {
          "indexed": true,
          "internalType": "address",
          "name": "account",
          "type": "address"
        },
        {
          "indexed": true,
          "internalType": "address",
          "name": "currency",
          "type": "address"
        },
        {
          "indexed": false,
          "internalType": "uint256",
          "name": "amount",
          "type": "uint256"
        },
        {
          "indexed": false,
          "internalType": "uint256",
          "name": "protocolAmount",
          "type": "uint256"
        }
      ],
      "name": "Deposited",
      "type": "event"
    },
    {
      "anonymous": false,
      "inputs": [
        {
          "indexed": false,
          "internalType": "uint8",
          "name": "version",
          "type": "uint8"
        }
      ],
      "name": "Initialized",
      "type": "event"
    },
    {
      "anonymous": false,
      "inputs": [
        {
          "indexed": true,
          "internalType": "address",
          "name": "previousOwner",
          "type": "address"
        },
        {
          "indexed": true,
          "internalType": "address",
          "name": "newOwner",
          "type": "address"
        }
      ],
      "name": "OwnershipTransferred",
      "type": "event"
    },
    {
      "anonymous": false,
      "inputs": [
        {
          "indexed": true,
          "internalType": "address",
          "name": "implementation",
          "type": "address"
        }
      ],
      "name": "Upgraded",
      "type": "event"
    },
    {
      "anonymous": false,
      "inputs": [
        {
          "indexed": true,
          "internalType": "address",
          "name": "account",
          "type": "address"
        },
        {
          "indexed": true,
          "internalType": "address",
          "name": "currency",
          "type": "address"
        },
        {
          "indexed": false,
          "internalType": "uint256",
          "name": "withdrawAmount",
          "type": "uint256"
        },
        {
          "indexed": false,
          "internalType": "uint256",
          "name": "protocolPayment",
          "type": "uint256"
        }
      ],
      "name": "Withdrawn",
      "type": "event"
    },
    {
      "inputs": [],
      "name": "JBProjectId",
      "outputs": [
        {
          "internalType": "uint256",
          "name": "",
          "type": "uint256"
        }
      ],
      "stateMutability": "view",
      "type": "function"
    },
    {
      "inputs": [],
      "name": "JBTerminal",
      "outputs": [
        {
          "internalType": "contract ITerminal",
          "name": "",
          "type": "address"
        }
      ],
      "stateMutability": "view",
      "type": "function"
    },
    {
      "inputs": [
        {
          "internalType": "address",
          "name": "",
          "type": "address"
        },
        {
          "internalType": "address",
          "name": "",
          "type": "address"
        }
      ],
      "name": "balances",
      "outputs": [
        {
          "internalType": "uint128",
          "name": "account",
          "type": "uint128"
        },
        {
          "internalType": "uint128",
          "name": "protocol",
          "type": "uint128"
        }
      ],
      "stateMutability": "view",
      "type": "function"
    },
    {
      "inputs": [
        {
          "internalType": "contract ISlicer[]",
          "name": "slicers",
          "type": "address[]"
        },
        {
          "internalType": "address",
          "name": "account",
          "type": "address"
        },
        {
          "internalType": "address",
          "name": "currency",
          "type": "address"
        },
        {
          "internalType": "bool",
          "name": "triggerWithdraw",
          "type": "bool"
        }
      ],
      "name": "batchReleaseSlicers",
      "outputs": [],
      "stateMutability": "nonpayable",
      "type": "function"
    },
    {
      "inputs": [
        {
          "internalType": "address",
          "name": "account",
          "type": "address"
        },
        {
          "internalType": "address[]",
          "name": "currencies",
          "type": "address[]"
        }
      ],
      "name": "batchWithdraw",
      "outputs": [],
      "stateMutability": "nonpayable",
      "type": "function"
    },
    {
      "inputs": [
        {
          "internalType": "address",
          "name": "account",
          "type": "address"
        },
        {
          "internalType": "uint256",
          "name": "protocolPayment",
          "type": "uint256"
        }
      ],
      "name": "depositEth",
      "outputs": [],
      "stateMutability": "payable",
      "type": "function"
    },
    {
      "inputs": [
        {
          "internalType": "uint256",
          "name": "tokenId",
          "type": "uint256"
        },
        {
          "internalType": "address",
          "name": "account",
          "type": "address"
        },
        {
          "internalType": "address",
          "name": "currency",
          "type": "address"
        },
        {
          "internalType": "uint256",
          "name": "amount",
          "type": "uint256"
        },
        {
          "internalType": "uint256",
          "name": "protocolPayment",
          "type": "uint256"
        }
      ],
      "name": "depositTokenFromSlicer",
      "outputs": [],
      "stateMutability": "nonpayable",
      "type": "function"
    },
    {
      "inputs": [],
      "name": "initialize",
      "outputs": [],
      "stateMutability": "nonpayable",
      "type": "function"
    },
    {
      "inputs": [],
      "name": "owner",
      "outputs": [
        {
          "internalType": "address",
          "name": "",
          "type": "address"
        }
      ],
      "stateMutability": "view",
      "type": "function"
    },
    {
      "inputs": [],
      "name": "proxiableUUID",
      "outputs": [
        {
          "internalType": "bytes32",
          "name": "",
          "type": "bytes32"
        }
      ],
      "stateMutability": "view",
      "type": "function"
    },
    {
      "inputs": [],
      "name": "renounceOwnership",
      "outputs": [],
      "stateMutability": "nonpayable",
      "type": "function"
    },
    {
      "inputs": [],
      "name": "sliceCore",
      "outputs": [
        {
          "internalType": "contract ISliceCore",
          "name": "",
          "type": "address"
        }
      ],
      "stateMutability": "view",
      "type": "function"
    },
    {
      "inputs": [
        {
          "internalType": "address",
          "name": "newOwner",
          "type": "address"
        }
      ],
      "name": "transferOwnership",
      "outputs": [],
      "stateMutability": "nonpayable",
      "type": "function"
    },
    {
      "inputs": [
        {
          "internalType": "address",
          "name": "newImplementation",
          "type": "address"
        }
      ],
      "name": "upgradeTo",
      "outputs": [],
      "stateMutability": "nonpayable",
      "type": "function"
    },
    {
      "inputs": [
        {
          "internalType": "address",
          "name": "newImplementation",
          "type": "address"
        },
        {
          "internalType": "bytes",
          "name": "data",
          "type": "bytes"
        }
      ],
      "name": "upgradeToAndCall",
      "outputs": [],
      "stateMutability": "payable",
      "type": "function"
    },
    {
      "inputs": [
        {
          "internalType": "address",
          "name": "account",
          "type": "address"
        },
        {
          "internalType": "address",
          "name": "currency",
          "type": "address"
        }
      ],
      "name": "withdraw",
      "outputs": [],
      "stateMutability": "nonpayable",
      "type": "function"
    },
    {
      "inputs": [
        {
          "internalType": "uint256",
          "name": "tokenId",
          "type": "uint256"
        },
        {
          "internalType": "address",
          "name": "account",
          "type": "address"
        },
        {
          "internalType": "address",
          "name": "currency",
          "type": "address"
        },
        {
          "internalType": "uint256",
          "name": "amount",
          "type": "uint256"
        },
        {
          "internalType": "uint256",
          "name": "protocolPayment",
          "type": "uint256"
        }
      ],
      "name": "withdrawOnRelease",
      "outputs": [],
      "stateMutability": "payable",
      "type": "function"
    },
    {
      "stateMutability": "payable",
      "type": "receive"
    }
  ],
  "bytecode": "0x60a06040523060805234801561001457600080fd5b5061001d610022565b6100e2565b600054610100900460ff161561008e5760405162461bcd60e51b815260206004820152602760248201527f496e697469616c697a61626c653a20636f6e747261637420697320696e697469604482015266616c697a696e6760c81b606482015260840160405180910390fd5b60005460ff90811610156100e0576000805460ff191660ff9081179091556040519081527f7f26b83ff96e1f2b6a682f133852f6798a09c465da95921460cefb38474024989060200160405180910390a15b565b608051611ccf61011960003960008181610368015281816103b101528181610482015281816104c201526105510152611ccf6000f3fe6080604052600436106101025760003560e01c80638da5cb5b11610095578063c23f001f11610064578063c23f001f14610262578063da9c47cb146102ce578063f2fde38b146102f6578063f4c7636314610316578063f940e3851461033e57600080fd5b80638da5cb5b146101db5780639d2edfac1461020d578063a936c6a01461022d578063ba96af321461024257600080fd5b806359fc470a116100d157806359fc470a1461017e578063715018a61461019e57806378ed7c78146101b35780638129fc1c146101c657600080fd5b80633659cfe61461010e57806339ed5123146101305780634f1ef2861461014357806352d1902d1461015657600080fd5b3661010957005b600080fd5b34801561011a57600080fd5b5061012e610129366004611676565b61035e565b005b61012e61013e366004611693565b610446565b61012e610151366004611706565b610478565b34801561016257600080fd5b5061016b610544565b6040519081526020015b60405180910390f35b34801561018a57600080fd5b5061012e6101993660046117ae565b6105f7565b3480156101aa57600080fd5b5061012e6106d1565b61012e6101c13660046117ae565b6106e5565b3480156101d257600080fd5b5061012e610876565b3480156101e757600080fd5b506097546001600160a01b03165b6040516001600160a01b039091168152602001610175565b34801561021957600080fd5b5061012e61022836600461183d565b610986565b34801561023957600080fd5b5061016b600181565b34801561024e57600080fd5b5061012e61025d36600461190f565b610c4e565b34801561026e57600080fd5b506102ae61027d3660046119be565b60c96020908152600092835260408084209091529082529020546001600160801b0380821691600160801b90041682565b604080516001600160801b03938416815292909116602083015201610175565b3480156102da57600080fd5b506101f573572c18c08108b8f54c6394d3965162619f3ad68081565b34801561030257600080fd5b5061012e610311366004611676565b610c8a565b34801561032257600080fd5b506101f573115978100953d0aa6f2f8865d11dc5888f72837081565b34801561034a57600080fd5b5061012e6103593660046119be565b610d00565b6001600160a01b037f00000000000000000000000000000000000000000000000000000000000000001630036103af5760405162461bcd60e51b81526004016103a6906119f7565b60405180910390fd5b7f00000000000000000000000000000000000000000000000000000000000000006001600160a01b03166103f8600080516020611c53833981519152546001600160a01b031690565b6001600160a01b03161461041e5760405162461bcd60e51b81526004016103a690611a43565b61042781610d47565b6040805160008082526020820190925261044391839190610d4f565b50565b3481111561046757604051636dac6a0960e01b815260040160405180910390fd5b6104743482846000610eba565b5050565b6001600160a01b037f00000000000000000000000000000000000000000000000000000000000000001630036104c05760405162461bcd60e51b81526004016103a6906119f7565b7f00000000000000000000000000000000000000000000000000000000000000006001600160a01b0316610509600080516020611c53833981519152546001600160a01b031690565b6001600160a01b03161461052f5760405162461bcd60e51b81526004016103a690611a43565b61053882610d47565b61047482826001610d4f565b6000306001600160a01b037f000000000000000000000000000000000000000000000000000000000000000016146105e45760405162461bcd60e51b815260206004820152603860248201527f555550535570677261646561626c653a206d757374206e6f742062652063616c60448201527f6c6564207468726f7567682064656c656761746563616c6c000000000000000060648201526084016103a6565b50600080516020611c5383398151915290565b604051630bafd3f560e11b81526004810186905273115978100953d0aa6f2f8865d11dc5888f7283709063175fa7ea90602401602060405180830381865afa158015610647573d6000803e3d6000fd5b505050506040513d601f19601f8201168201806040525081019061066b9190611a8f565b6001600160a01b0316336001600160a01b0316141580156106a057503373ca6b9d59849ec880e82210e9cb8237e1d0caa69e14155b156106be5760405163ea8e4eb560e01b815260040160405180910390fd5b6106ca82828686610eba565b5050505050565b6106d9611039565b6106e36000611093565b565b604051630bafd3f560e11b81526004810186905273115978100953d0aa6f2f8865d11dc5888f7283709063175fa7ea90602401602060405180830381865afa158015610735573d6000803e3d6000fd5b505050506040513d601f19601f820116820180604052508101906107599190611a8f565b6001600160a01b0316336001600160a01b03161461078a5760405163ea8e4eb560e01b815260040160405180910390fd5b826001600160a01b0316846001600160a01b03167ff5681f9d0db1b911ac18ee83d515a1cf1051853a9eae418316a2fdf7dea427c584846040516107d8929190918252602082015260400190565b60405180910390a36001600160a01b03808516600090815260c96020908152604080832093871683529290522054819061081b906001600160801b031684611ac2565b6108259190611ada565b6001600160a01b03858116600090815260c9602090815260408083209388168352929052205490925061086890600160801b90046001600160801b031682611ac2565b90506106ca848484846110e5565b600054610100900460ff16158080156108965750600054600160ff909116105b806108b05750303b1580156108b0575060005460ff166001145b6109135760405162461bcd60e51b815260206004820152602e60248201527f496e697469616c697a61626c653a20636f6e747261637420697320616c72656160448201526d191e481a5b9a5d1a585b1a5e995960921b60648201526084016103a6565b6000805460ff191660011790558015610936576000805461ff0019166101001790555b61093e611173565b8015610443576000805461ff0019169055604051600181527f7f26b83ff96e1f2b6a682f133852f6798a09c465da95921460cefb38474024989060200160405180910390a150565b60008060008060005b8851811015610a55578881815181106109aa576109aa611af1565b602090810291909101015160405163a468801760e01b81526001600160a01b038a8116600483015289811660248301529091169063a46880179060440160408051808303816000875af1158015610a05573d6000803e3d6000fd5b505050506040513d601f19601f82011682018060405250810190610a299190611b07565b90935091508215610a4d57610a3e8286611ac2565b9450610a4a8385611ac2565b93505b60010161098f565b50856001600160a01b0316876001600160a01b03167ff5681f9d0db1b911ac18ee83d515a1cf1051853a9eae418316a2fdf7dea427c58587604051610aa4929190918252602082015260400190565b60405180910390a3838303925084610bba576001600160801b03831180610ad157506001600160801b0384115b15610aef5760405163068b348d60e11b815260040160405180910390fd5b6001600160a01b03808816600090815260c960209081526040808320938a1683529290529081208054859290610b2f9084906001600160801b0316611b2b565b82546101009290920a6001600160801b038181021990931691831602179091556001600160a01b03898116600090815260c960209081526040808320938c1683529290522080548793509091601091610b91918591600160801b900416611b2b565b92506101000a8154816001600160801b0302191690836001600160801b03160217905550610c44565b6001600160a01b03878116600090815260c960209081526040808320938a1683529290522054610bfa90600160801b90046001600160801b031685611ac2565b6001600160a01b03808916600090815260c960209081526040808320938b1683529290522054909450610c36906001600160801b031684611ac2565b9250610c44878785876110e5565b5050505050505050565b60005b8151811015610c8557610c7d83838381518110610c7057610c70611af1565b6020026020010151610d00565b600101610c51565b505050565b610c92611039565b6001600160a01b038116610cf75760405162461bcd60e51b815260206004820152602660248201527f4f776e61626c653a206e6577206f776e657220697320746865207a65726f206160448201526564647265737360d01b60648201526084016103a6565b61044381611093565b6001600160a01b03828116600090815260c9602090815260408083209385168352929052205461047490839083906001600160801b0380821691600160801b9004166110e5565b610443611039565b7f4910fdfa16fed3260ed0e7147f7cc6da11a60208b5b9406d12a635614ffd91435460ff1615610d8257610c85836111a2565b826001600160a01b03166352d1902d6040518163ffffffff1660e01b8152600401602060405180830381865afa925050508015610ddc575060408051601f3d908101601f19168201909252610dd991810190611b56565b60015b610e3f5760405162461bcd60e51b815260206004820152602e60248201527f45524331393637557067726164653a206e657720696d706c656d656e7461746960448201526d6f6e206973206e6f74205555505360901b60648201526084016103a6565b600080516020611c538339815191528114610eae5760405162461bcd60e51b815260206004820152602960248201527f45524331393637557067726164653a20756e737570706f727465642070726f786044820152681a58589b195555525160ba1b60648201526084016103a6565b50610c8583838361123e565b806001600160a01b0316826001600160a01b03167ff5681f9d0db1b911ac18ee83d515a1cf1051853a9eae418316a2fdf7dea427c58686604051610f08929190918252602082015260400190565b60405180910390a3610f1a8385611ada565b93506001600160801b03841180610f3757506001600160801b0383115b15610f555760405163068b348d60e11b815260040160405180910390fd5b8315610fc0576001600160a01b03808316600090815260c96020908152604080832093851683529290529081208054869290610f9b9084906001600160801b0316611b2b565b92506101000a8154816001600160801b0302191690836001600160801b031602179055505b8215611033576001600160a01b03828116600090815260c960209081526040808320938516835292905220805484919060109061100e908490600160801b90046001600160801b0316611b2b565b92506101000a8154816001600160801b0302191690836001600160801b031602179055505b50505050565b6097546001600160a01b031633146106e35760405162461bcd60e51b815260206004820181905260248201527f4f776e61626c653a2063616c6c6572206973206e6f7420746865206f776e657260448201526064016103a6565b609780546001600160a01b038381166001600160a01b0319831681179093556040519116919082907f8be0079c531659141344cd1fd0a4f28419497f9722a3daafe3b4186f6b6457e090600090a35050565b60018111156110fd57600019016110fd848483611263565b6001821115611117576001820391506111178484846113c4565b826001600160a01b0316846001600160a01b03167f91fb9d98b786c57d74c099ccd2beca1739e9f6a81fb49001ca465c4b7591bbe28484604051611165929190918252602082015260400190565b60405180910390a350505050565b600054610100900460ff1661119a5760405162461bcd60e51b81526004016103a690611b6f565b6106e3611452565b6001600160a01b0381163b61120f5760405162461bcd60e51b815260206004820152602d60248201527f455243313936373a206e657720696d706c656d656e746174696f6e206973206e60448201526c1bdd08184818dbdb9d1c9858dd609a1b60648201526084016103a6565b600080516020611c5383398151915280546001600160a01b0319166001600160a01b0392909216919091179055565b61124783611482565b6000825111806112545750805b15610c855761103383836114c2565b6001600160a01b03808416600090815260c96020908152604080832093861680845293909152902080546001600160801b0316600160801b17905561133e576040516302c8986f60e01b81526001600482018190526001600160a01b03851660248301526080604483015260006084830152606482015273572c18c08108b8f54c6394d3965162619f3ad680906302c8986f90839060a40160206040518083038185885af1158015611319573d6000803e3d6000fd5b50505050506040513d601f19601f820116820180604052508101906110339190611b56565b60405163a9059cbb60e01b815273ae009d532328ff09e09e5d506ab5bbec3c25c0ff6004820152602481018290526001600160a01b0383169063a9059cbb906044015b6020604051808303816000875af11580156113a0573d6000803e3d6000fd5b505050506040513d601f19601f820116820180604052508101906110339190611bba565b6001600160a01b03808416600090815260c96020908152604080832093861680845293909152902080546fffffffffffffffffffffffffffffffff1916600117905561141d57610c856001600160a01b038416826115b6565b60405163a9059cbb60e01b81526001600160a01b0384811660048301526024820183905283169063a9059cbb90604401611381565b600054610100900460ff166114795760405162461bcd60e51b81526004016103a690611b6f565b6106e333611093565b61148b816111a2565b6040516001600160a01b038216907fbc7cd75a20ee27fd9adebab32041f755214dbc6bffa90cc0225b39da2e5c2d3b90600090a250565b60606001600160a01b0383163b61152a5760405162461bcd60e51b815260206004820152602660248201527f416464726573733a2064656c65676174652063616c6c20746f206e6f6e2d636f6044820152651b9d1c9858dd60d21b60648201526084016103a6565b600080846001600160a01b0316846040516115459190611c03565b600060405180830381855af49150503d8060008114611580576040519150601f19603f3d011682016040523d82523d6000602084013e611585565b606091505b50915091506115ad8282604051806060016040528060278152602001611c7360279139611607565b95945050505050565b600080600080600085875af1905080610c855760405162461bcd60e51b815260206004820152601360248201527211551217d514905394d1915497d19052531151606a1b60448201526064016103a6565b60608315611616575081611620565b6116208383611627565b9392505050565b8151156116375781518083602001fd5b8060405162461bcd60e51b81526004016103a69190611c1f565b6001600160a01b038116811461044357600080fd5b803561167181611651565b919050565b60006020828403121561168857600080fd5b813561162081611651565b600080604083850312156116a657600080fd5b82356116b181611651565b946020939093013593505050565b634e487b7160e01b600052604160045260246000fd5b604051601f8201601f1916810167ffffffffffffffff811182821017156116fe576116fe6116bf565b604052919050565b6000806040838503121561171957600080fd5b823561172481611651565b915060208381013567ffffffffffffffff8082111561174257600080fd5b818601915086601f83011261175657600080fd5b813581811115611768576117686116bf565b61177a601f8201601f191685016116d5565b9150808252878482850101111561179057600080fd5b80848401858401376000848284010152508093505050509250929050565b600080600080600060a086880312156117c657600080fd5b8535945060208601356117d881611651565b935060408601356117e881611651565b94979396509394606081013594506080013592915050565b600067ffffffffffffffff82111561181a5761181a6116bf565b5060051b60200190565b801515811461044357600080fd5b803561167181611824565b6000806000806080858703121561185357600080fd5b843567ffffffffffffffff81111561186a57600080fd5b8501601f8101871361187b57600080fd5b8035602061189061188b83611800565b6116d5565b82815260059290921b8301810191818101908a8411156118af57600080fd5b938201935b838510156118d65784356118c781611651565b825293820193908201906118b4565b97506118e59050888201611666565b95505050506118f660408601611666565b915061190460608601611832565b905092959194509250565b6000806040838503121561192257600080fd5b823561192d81611651565b915060208381013567ffffffffffffffff81111561194a57600080fd5b8401601f8101861361195b57600080fd5b803561196961188b82611800565b81815260059190911b8201830190838101908883111561198857600080fd5b928401925b828410156119af5783356119a081611651565b8252928401929084019061198d565b80955050505050509250929050565b600080604083850312156119d157600080fd5b82356119dc81611651565b915060208301356119ec81611651565b809150509250929050565b6020808252602c908201527f46756e6374696f6e206d7573742062652063616c6c6564207468726f7567682060408201526b19195b1959d85d1958d85b1b60a21b606082015260800190565b6020808252602c908201527f46756e6374696f6e206d7573742062652063616c6c6564207468726f7567682060408201526b6163746976652070726f787960a01b606082015260800190565b600060208284031215611aa157600080fd5b815161162081611651565b634e487b7160e01b600052601160045260246000fd5b60008219821115611ad557611ad5611aac565b500190565b600082821015611aec57611aec611aac565b500390565b634e487b7160e01b600052603260045260246000fd5b60008060408385031215611b1a57600080fd5b505080516020909101519092909150565b60006001600160801b03808316818516808303821115611b4d57611b4d611aac565b01949350505050565b600060208284031215611b6857600080fd5b5051919050565b6020808252602b908201527f496e697469616c697a61626c653a20636f6e7472616374206973206e6f74206960408201526a6e697469616c697a696e6760a81b606082015260800190565b600060208284031215611bcc57600080fd5b815161162081611824565b60005b83811015611bf2578181015183820152602001611bda565b838111156110335750506000910152565b60008251611c15818460208701611bd7565b9190910192915050565b6020815260008251806020840152611c3e816040850160208701611bd7565b601f01601f1916919091016040019291505056fe360894a13ba1a3210667c828492db98dca3e2076cc3735a920a3ca505d382bbc416464726573733a206c6f772d6c6576656c2064656c65676174652063616c6c206661696c6564a26469706673582212202e1e66b7d4d849799fcffefcee097893e4b0200bc833090ab6cb4160b5f42f5b64736f6c634300080d0033",
  "linkReferences": {},
  "deployedLinkReferences": {}
}