{
  "_format": "hh-sol-artifact-1",
  "contractName": "FundsModule",
  "sourceName": "contracts/FundsModule.sol",
  "abi": [
    {
      "inputs": [],
      "name": "ExceedsMaxBalance",
      "type": "error"
    },
    {
      "inputs": [],
      "name": "Invalid",
      "type": "error"
    },
    {
      "inputs": [],
      "name": "NotAuthorized",
      "type": "error"
    },
    {
      "inputs": [],
      "name": "NotSuccessful",
      "type": "error"
    },
    {
      "anonymous": false,
      "inputs": [
        {
          "indexed": false,
          "internalType": "address",
          "name": "previousAdmin",
          "type": "address"
        },
        {
          "indexed": false,
          "internalType": "address",
          "name": "newAdmin",
          "type": "address"
        }
      ],
      "name": "AdminChanged",
      "type": "event"
    },
    {
      "anonymous": false,
      "inputs": [
        {
          "indexed": true,
          "internalType": "address",
          "name": "beacon",
          "type": "address"
        }
      ],
      "name": "BeaconUpgraded",
      "type": "event"
    },
    {
      "anonymous": false,
      "inputs": [
        {
          "indexed": true,
          "internalType": "address",
          "name": "account",
          "type": "address"
        },
        {
          "indexed": true,
          "internalType": "address",
          "name": "currency",
          "type": "address"
        },
        {
          "indexed": false,
          "internalType": "uint256",
          "name": "amount",
          "type": "uint256"
        },
        {
          "indexed": false,
          "internalType": "uint256",
          "name": "protocolAmount",
          "type": "uint256"
        }
      ],
      "name": "Deposited",
      "type": "event"
    },
    {
      "anonymous": false,
      "inputs": [
        {
          "indexed": true,
          "internalType": "address",
          "name": "previousOwner",
          "type": "address"
        },
        {
          "indexed": true,
          "internalType": "address",
          "name": "newOwner",
          "type": "address"
        }
      ],
      "name": "OwnershipTransferred",
      "type": "event"
    },
    {
      "anonymous": false,
      "inputs": [
        {
          "indexed": true,
          "internalType": "address",
          "name": "implementation",
          "type": "address"
        }
      ],
      "name": "Upgraded",
      "type": "event"
    },
    {
      "anonymous": false,
      "inputs": [
        {
          "indexed": true,
          "internalType": "address",
          "name": "account",
          "type": "address"
        },
        {
          "indexed": true,
          "internalType": "address",
          "name": "currency",
          "type": "address"
        },
        {
          "indexed": false,
          "internalType": "uint256",
          "name": "withdrawAmount",
          "type": "uint256"
        },
        {
          "indexed": false,
          "internalType": "uint256",
          "name": "protocolPayment",
          "type": "uint256"
        }
      ],
      "name": "Withdrawn",
      "type": "event"
    },
    {
      "inputs": [
        {
          "internalType": "address",
          "name": "account",
          "type": "address"
        },
        {
          "internalType": "address",
          "name": "currency",
          "type": "address"
        }
      ],
      "name": "balance",
      "outputs": [
        {
          "internalType": "uint256",
          "name": "accountBalance",
          "type": "uint256"
        },
        {
          "internalType": "uint256",
          "name": "protocolPayment",
          "type": "uint256"
        }
      ],
      "stateMutability": "view",
      "type": "function"
    },
    {
      "inputs": [
        {
          "internalType": "contract ISlicer[]",
          "name": "slicers",
          "type": "address[]"
        },
        {
          "internalType": "address",
          "name": "account",
          "type": "address"
        },
        {
          "internalType": "address",
          "name": "currency",
          "type": "address"
        },
        {
          "internalType": "bool",
          "name": "triggerWithdraw",
          "type": "bool"
        }
      ],
      "name": "batchReleaseSlicers",
      "outputs": [],
      "stateMutability": "nonpayable",
      "type": "function"
    },
    {
      "inputs": [
        {
          "internalType": "address",
          "name": "account",
          "type": "address"
        },
        {
          "internalType": "address[]",
          "name": "currencies",
          "type": "address[]"
        }
      ],
      "name": "batchWithdraw",
      "outputs": [],
      "stateMutability": "nonpayable",
      "type": "function"
    },
    {
      "inputs": [
        {
          "internalType": "address",
          "name": "account",
          "type": "address"
        },
        {
          "internalType": "uint256",
          "name": "protocolPayment",
          "type": "uint256"
        }
      ],
      "name": "depositEth",
      "outputs": [],
      "stateMutability": "payable",
      "type": "function"
    },
    {
      "inputs": [
        {
          "internalType": "uint256",
          "name": "tokenId",
          "type": "uint256"
        },
        {
          "internalType": "address",
          "name": "account",
          "type": "address"
        },
        {
          "internalType": "address",
          "name": "currency",
          "type": "address"
        },
        {
          "internalType": "uint256",
          "name": "amount",
          "type": "uint256"
        },
        {
          "internalType": "uint256",
          "name": "protocolPayment",
          "type": "uint256"
        }
      ],
      "name": "depositTokenFromSlicer",
      "outputs": [],
      "stateMutability": "nonpayable",
      "type": "function"
    },
    {
      "inputs": [],
      "name": "initialize",
      "outputs": [],
      "stateMutability": "nonpayable",
      "type": "function"
    },
    {
      "inputs": [],
      "name": "owner",
      "outputs": [
        {
          "internalType": "address",
          "name": "",
          "type": "address"
        }
      ],
      "stateMutability": "view",
      "type": "function"
    },
    {
      "inputs": [],
      "name": "proxiableUUID",
      "outputs": [
        {
          "internalType": "bytes32",
          "name": "",
          "type": "bytes32"
        }
      ],
      "stateMutability": "view",
      "type": "function"
    },
    {
      "inputs": [],
      "name": "renounceOwnership",
      "outputs": [],
      "stateMutability": "nonpayable",
      "type": "function"
    },
    {
      "inputs": [
        {
          "internalType": "address",
          "name": "newOwner",
          "type": "address"
        }
      ],
      "name": "transferOwnership",
      "outputs": [],
      "stateMutability": "nonpayable",
      "type": "function"
    },
    {
      "inputs": [
        {
          "internalType": "address",
          "name": "newImplementation",
          "type": "address"
        }
      ],
      "name": "upgradeTo",
      "outputs": [],
      "stateMutability": "nonpayable",
      "type": "function"
    },
    {
      "inputs": [
        {
          "internalType": "address",
          "name": "newImplementation",
          "type": "address"
        },
        {
          "internalType": "bytes",
          "name": "data",
          "type": "bytes"
        }
      ],
      "name": "upgradeToAndCall",
      "outputs": [],
      "stateMutability": "payable",
      "type": "function"
    },
    {
      "inputs": [
        {
          "internalType": "address",
          "name": "account",
          "type": "address"
        },
        {
          "internalType": "address",
          "name": "currency",
          "type": "address"
        }
      ],
      "name": "withdraw",
      "outputs": [],
      "stateMutability": "nonpayable",
      "type": "function"
    },
    {
      "inputs": [
        {
          "internalType": "uint256",
          "name": "tokenId",
          "type": "uint256"
        },
        {
          "internalType": "address",
          "name": "account",
          "type": "address"
        },
        {
          "internalType": "address",
          "name": "currency",
          "type": "address"
        },
        {
          "internalType": "uint256",
          "name": "amount",
          "type": "uint256"
        },
        {
          "internalType": "uint256",
          "name": "protocolPayment",
          "type": "uint256"
        }
      ],
      "name": "withdrawOnRelease",
      "outputs": [],
      "stateMutability": "payable",
      "type": "function"
    },
    {
      "stateMutability": "payable",
      "type": "receive"
    }
  ],
  "bytecode": "0x60a06040523060805234801561001457600080fd5b50608051611c3361004c600039600081816102dc01528181610325015281816103f60152818161043601526104c50152611c336000f3fe6080604052600436106100e15760003560e01c80638129fc1c1161007f578063b203bb9911610059578063b203bb9914610202578063ba96af3214610272578063f2fde38b14610292578063f940e385146102b257600080fd5b80638129fc1c146101a55780638da5cb5b146101ba5780639d2edfac146101e257600080fd5b806352d1902d116100bb57806352d1902d1461013557806359fc470a1461015d578063715018a61461017d57806378ed7c781461019257600080fd5b80633659cfe6146100ed57806339ed51231461010f5780634f1ef2861461012257600080fd5b366100e857005b600080fd5b3480156100f957600080fd5b5061010d6101083660046115a5565b6102d2565b005b61010d61011d3660046115c2565b6103ba565b61010d610130366004611635565b6103ec565b34801561014157600080fd5b5061014a6104b8565b6040519081526020015b60405180910390f35b34801561016957600080fd5b5061010d6101783660046116dd565b61056b565b34801561018957600080fd5b5061010d610645565b61010d6101a03660046116dd565b61067b565b3480156101b157600080fd5b5061010d61080c565b3480156101c657600080fd5b506097546040516001600160a01b039091168152602001610154565b3480156101ee57600080fd5b5061010d6101fd36600461176c565b6108cc565b34801561020e57600080fd5b5061025d61021d36600461183e565b6001600160a01b03918216600090815260c9602090815260408083209390941682529190915220546001600160801b0380821692600160801b9092041690565b60408051928352602083019190915201610154565b34801561027e57600080fd5b5061010d61028d366004611877565b610b94565b34801561029e57600080fd5b5061010d6102ad3660046115a5565b610bd0565b3480156102be57600080fd5b5061010d6102cd36600461183e565b610c68565b6001600160a01b037f00000000000000000000000000000000000000000000000000000000000000001630036103235760405162461bcd60e51b815260040161031a90611926565b60405180910390fd5b7f00000000000000000000000000000000000000000000000000000000000000006001600160a01b031661036c600080516020611bb7833981519152546001600160a01b031690565b6001600160a01b0316146103925760405162461bcd60e51b815260040161031a90611972565b61039b81610caf565b604080516000808252602082019092526103b791839190610cd9565b50565b348111156103db57604051636dac6a0960e01b815260040160405180910390fd5b6103e83482846000610e44565b5050565b6001600160a01b037f00000000000000000000000000000000000000000000000000000000000000001630036104345760405162461bcd60e51b815260040161031a90611926565b7f00000000000000000000000000000000000000000000000000000000000000006001600160a01b031661047d600080516020611bb7833981519152546001600160a01b031690565b6001600160a01b0316146104a35760405162461bcd60e51b815260040161031a90611972565b6104ac82610caf565b6103e882826001610cd9565b6000306001600160a01b037f000000000000000000000000000000000000000000000000000000000000000016146105585760405162461bcd60e51b815260206004820152603860248201527f555550535570677261646561626c653a206d757374206e6f742062652063616c60448201527f6c6564207468726f7567682064656c656761746563616c6c0000000000000000606482015260840161031a565b50600080516020611bb783398151915290565b604051630bafd3f560e11b81526004810186905273180550826a266a9b9474539410b934b9a838d4b39063175fa7ea90602401602060405180830381865afa1580156105bb573d6000803e3d6000fd5b505050506040513d601f19601f820116820180604052508101906105df91906119be565b6001600160a01b0316336001600160a01b03161415801561061457503373c41b314bdf942d16f9bb796892f0a772e94bc72714155b156106325760405163ea8e4eb560e01b815260040160405180910390fd5b61063e82828686610e44565b5050505050565b6097546001600160a01b0316331461066f5760405162461bcd60e51b815260040161031a906119db565b6106796000610fc3565b565b604051630bafd3f560e11b81526004810186905273180550826a266a9b9474539410b934b9a838d4b39063175fa7ea90602401602060405180830381865afa1580156106cb573d6000803e3d6000fd5b505050506040513d601f19601f820116820180604052508101906106ef91906119be565b6001600160a01b0316336001600160a01b0316146107205760405163ea8e4eb560e01b815260040160405180910390fd5b826001600160a01b0316846001600160a01b03167ff5681f9d0db1b911ac18ee83d515a1cf1051853a9eae418316a2fdf7dea427c5848460405161076e929190918252602082015260400190565b60405180910390a36001600160a01b03808516600090815260c9602090815260408083209387168352929052205481906107b1906001600160801b031684611a26565b6107bb9190611a3e565b6001600160a01b03858116600090815260c960209081526040808320938816835292905220549092506107fe90600160801b90046001600160801b031682611a26565b905061063e84848484611015565b600054610100900460ff166108275760005460ff161561082b565b303b155b61088e5760405162461bcd60e51b815260206004820152602e60248201527f496e697469616c697a61626c653a20636f6e747261637420697320616c72656160448201526d191e481a5b9a5d1a585b1a5e995960921b606482015260840161031a565b600054610100900460ff161580156108b0576000805461ffff19166101011790555b6108b86110ab565b80156103b7576000805461ff001916905550565b60008060008060005b885181101561099b578881815181106108f0576108f0611a55565b602090810291909101015160405163a468801760e01b81526001600160a01b038a8116600483015289811660248301529091169063a46880179060440160408051808303816000875af115801561094b573d6000803e3d6000fd5b505050506040513d601f19601f8201168201806040525081019061096f9190611a6b565b90935091508215610993576109848286611a26565b94506109908385611a26565b93505b6001016108d5565b50856001600160a01b0316876001600160a01b03167ff5681f9d0db1b911ac18ee83d515a1cf1051853a9eae418316a2fdf7dea427c585876040516109ea929190918252602082015260400190565b60405180910390a3838303925084610b00576001600160801b03831180610a1757506001600160801b0384115b15610a355760405163068b348d60e11b815260040160405180910390fd5b6001600160a01b03808816600090815260c960209081526040808320938a1683529290529081208054859290610a759084906001600160801b0316611a8f565b82546101009290920a6001600160801b038181021990931691831602179091556001600160a01b03898116600090815260c960209081526040808320938c1683529290522080548793509091601091610ad7918591600160801b900416611a8f565b92506101000a8154816001600160801b0302191690836001600160801b03160217905550610b8a565b6001600160a01b03878116600090815260c960209081526040808320938a1683529290522054610b4090600160801b90046001600160801b031685611a26565b6001600160a01b03808916600090815260c960209081526040808320938b1683529290522054909450610b7c906001600160801b031684611a26565b9250610b8a87878587611015565b5050505050505050565b60005b8151811015610bcb57610bc383838381518110610bb657610bb6611a55565b6020026020010151610c68565b600101610b97565b505050565b6097546001600160a01b03163314610bfa5760405162461bcd60e51b815260040161031a906119db565b6001600160a01b038116610c5f5760405162461bcd60e51b815260206004820152602660248201527f4f776e61626c653a206e6577206f776e657220697320746865207a65726f206160448201526564647265737360d01b606482015260840161031a565b6103b781610fc3565b6001600160a01b03828116600090815260c960209081526040808320938516835292905220546103e890839083906001600160801b0380821691600160801b900416611015565b6097546001600160a01b031633146103b75760405162461bcd60e51b815260040161031a906119db565b7f4910fdfa16fed3260ed0e7147f7cc6da11a60208b5b9406d12a635614ffd91435460ff1615610d0c57610bcb836110da565b826001600160a01b03166352d1902d6040518163ffffffff1660e01b8152600401602060405180830381865afa925050508015610d66575060408051601f3d908101601f19168201909252610d6391810190611aba565b60015b610dc95760405162461bcd60e51b815260206004820152602e60248201527f45524331393637557067726164653a206e657720696d706c656d656e7461746960448201526d6f6e206973206e6f74205555505360901b606482015260840161031a565b600080516020611bb78339815191528114610e385760405162461bcd60e51b815260206004820152602960248201527f45524331393637557067726164653a20756e737570706f727465642070726f786044820152681a58589b195555525160ba1b606482015260840161031a565b50610bcb838383611176565b806001600160a01b0316826001600160a01b03167ff5681f9d0db1b911ac18ee83d515a1cf1051853a9eae418316a2fdf7dea427c58686604051610e92929190918252602082015260400190565b60405180910390a3610ea48385611a3e565b93506001600160801b03841180610ec157506001600160801b0383115b15610edf5760405163068b348d60e11b815260040160405180910390fd5b8315610f4a576001600160a01b03808316600090815260c96020908152604080832093851683529290529081208054869290610f259084906001600160801b0316611a8f565b92506101000a8154816001600160801b0302191690836001600160801b031602179055505b8215610fbd576001600160a01b03828116600090815260c9602090815260408083209385168352929052208054849190601090610f98908490600160801b90046001600160801b0316611a8f565b92506101000a8154816001600160801b0302191690836001600160801b031602179055505b50505050565b609780546001600160a01b038381166001600160a01b0319831681179093556040519116919082907f8be0079c531659141344cd1fd0a4f28419497f9722a3daafe3b4186f6b6457e090600090a35050565b801561102057600019015b811561102d576001820391505b801561103e5761103e84848361119b565b811561104f5761104f8484846112fd565b826001600160a01b0316846001600160a01b03167f91fb9d98b786c57d74c099ccd2beca1739e9f6a81fb49001ca465c4b7591bbe2848460405161109d929190918252602082015260400190565b60405180910390a350505050565b600054610100900460ff166110d25760405162461bcd60e51b815260040161031a90611ad3565b61067961138b565b6001600160a01b0381163b6111475760405162461bcd60e51b815260206004820152602d60248201527f455243313936373a206e657720696d706c656d656e746174696f6e206973206e60448201526c1bdd08184818dbdb9d1c9858dd609a1b606482015260840161031a565b600080516020611bb783398151915280546001600160a01b0319166001600160a01b0392909216919091179055565b61117f836113bb565b60008251118061118c5750805b15610bcb57610fbd83836113fb565b6001600160a01b03808416600090815260c96020908152604080832093861680845293909152902080546001600160801b0316600160801b179055611277576040516302c8986f60e01b81526101e860048201526001600160a01b038416602482015260806044820152600060848201526001606482015273e7432e80a75f957121cb523ba842db27c6c25f69906302c8986f90839060a40160206040518083038185885af1158015611252573d6000803e3d6000fd5b50505050506040513d601f19601f82011682018060405250810190610fbd9190611aba565b60405163a9059cbb60e01b815273ae009d532328ff09e09e5d506ab5bbec3c25c0ff6004820152602481018290526001600160a01b0383169063a9059cbb906044015b6020604051808303816000875af11580156112d9573d6000803e3d6000fd5b505050506040513d601f19601f82011682018060405250810190610fbd9190611b1e565b6001600160a01b03808416600090815260c96020908152604080832093861680845293909152902080546fffffffffffffffffffffffffffffffff1916600117905561135657610bcb6001600160a01b038416826114ef565b60405163a9059cbb60e01b81526001600160a01b0384811660048301526024820183905283169063a9059cbb906044016112ba565b600054610100900460ff166113b25760405162461bcd60e51b815260040161031a90611ad3565b61067933610fc3565b6113c4816110da565b6040516001600160a01b038216907fbc7cd75a20ee27fd9adebab32041f755214dbc6bffa90cc0225b39da2e5c2d3b90600090a250565b60606001600160a01b0383163b6114635760405162461bcd60e51b815260206004820152602660248201527f416464726573733a2064656c65676174652063616c6c20746f206e6f6e2d636f6044820152651b9d1c9858dd60d21b606482015260840161031a565b600080846001600160a01b03168460405161147e9190611b67565b600060405180830381855af49150503d80600081146114b9576040519150601f19603f3d011682016040523d82523d6000602084013e6114be565b606091505b50915091506114e68282604051806060016040528060278152602001611bd760279139611540565b95945050505050565b600080600080600085875af1905080610bcb5760405162461bcd60e51b815260206004820152601360248201527211551217d514905394d1915497d19052531151606a1b604482015260640161031a565b6060831561154f575081611579565b82511561155f5782518084602001fd5b8160405162461bcd60e51b815260040161031a9190611b83565b9392505050565b6001600160a01b03811681146103b757600080fd5b80356115a081611580565b919050565b6000602082840312156115b757600080fd5b813561157981611580565b600080604083850312156115d557600080fd5b82356115e081611580565b946020939093013593505050565b634e487b7160e01b600052604160045260246000fd5b604051601f8201601f1916810167ffffffffffffffff8111828210171561162d5761162d6115ee565b604052919050565b6000806040838503121561164857600080fd5b823561165381611580565b915060208381013567ffffffffffffffff8082111561167157600080fd5b818601915086601f83011261168557600080fd5b813581811115611697576116976115ee565b6116a9601f8201601f19168501611604565b915080825287848285010111156116bf57600080fd5b80848401858401376000848284010152508093505050509250929050565b600080600080600060a086880312156116f557600080fd5b85359450602086013561170781611580565b9350604086013561171781611580565b94979396509394606081013594506080013592915050565b600067ffffffffffffffff821115611749576117496115ee565b5060051b60200190565b80151581146103b757600080fd5b80356115a081611753565b6000806000806080858703121561178257600080fd5b843567ffffffffffffffff81111561179957600080fd5b8501601f810187136117aa57600080fd5b803560206117bf6117ba8361172f565b611604565b82815260059290921b8301810191818101908a8411156117de57600080fd5b938201935b838510156118055784356117f681611580565b825293820193908201906117e3565b97506118149050888201611595565b955050505061182560408601611595565b915061183360608601611761565b905092959194509250565b6000806040838503121561185157600080fd5b823561185c81611580565b9150602083013561186c81611580565b809150509250929050565b6000806040838503121561188a57600080fd5b823561189581611580565b915060208381013567ffffffffffffffff8111156118b257600080fd5b8401601f810186136118c357600080fd5b80356118d16117ba8261172f565b81815260059190911b820183019083810190888311156118f057600080fd5b928401925b8284101561191757833561190881611580565b825292840192908401906118f5565b80955050505050509250929050565b6020808252602c908201527f46756e6374696f6e206d7573742062652063616c6c6564207468726f7567682060408201526b19195b1959d85d1958d85b1b60a21b606082015260800190565b6020808252602c908201527f46756e6374696f6e206d7573742062652063616c6c6564207468726f7567682060408201526b6163746976652070726f787960a01b606082015260800190565b6000602082840312156119d057600080fd5b815161157981611580565b6020808252818101527f4f776e61626c653a2063616c6c6572206973206e6f7420746865206f776e6572604082015260600190565b634e487b7160e01b600052601160045260246000fd5b60008219821115611a3957611a39611a10565b500190565b600082821015611a5057611a50611a10565b500390565b634e487b7160e01b600052603260045260246000fd5b60008060408385031215611a7e57600080fd5b505080516020909101519092909150565b60006001600160801b03808316818516808303821115611ab157611ab1611a10565b01949350505050565b600060208284031215611acc57600080fd5b5051919050565b6020808252602b908201527f496e697469616c697a61626c653a20636f6e7472616374206973206e6f74206960408201526a6e697469616c697a696e6760a81b606082015260800190565b600060208284031215611b3057600080fd5b815161157981611753565b60005b83811015611b56578181015183820152602001611b3e565b83811115610fbd5750506000910152565b60008251611b79818460208701611b3b565b9190910192915050565b6020815260008251806020840152611ba2816040850160208701611b3b565b601f01601f1916919091016040019291505056fe360894a13ba1a3210667c828492db98dca3e2076cc3735a920a3ca505d382bbc416464726573733a206c6f772d6c6576656c2064656c65676174652063616c6c206661696c6564a2646970667358221220960193d4316bd32413a832a54004fd7620737eb85a7d3fc78c5b0920c2c496a364736f6c634300080d0033",
  "linkReferences": {},
  "deployedLinkReferences": {}
}