{
  "abi": [
    {
      "inputs": [
        {
          "internalType": "address",
          "name": "uniswapV3Factory_",
          "type": "address"
        }
      ],
      "stateMutability": "nonpayable",
      "type": "constructor"
    },
    {
      "inputs": [],
      "name": "T",
      "type": "error"
    },
    {
      "anonymous": false,
      "inputs": [
        {
          "components": [
            {
              "internalType": "address",
              "name": "poolAddress",
              "type": "address"
            },
            {
              "internalType": "uint24",
              "name": "fee",
              "type": "uint24"
            },
            {
              "internalType": "uint48",
              "name": "lastUpdatedTimestamp",
              "type": "uint48"
            }
          ],
          "indexed": false,
          "internalType": "struct PoolData",
          "name": "pool",
          "type": "tuple"
        }
      ],
      "name": "PoolUpdated",
      "type": "event"
    },
    {
      "inputs": [
        {
          "internalType": "address",
          "name": "tokenA",
          "type": "address"
        },
        {
          "internalType": "address",
          "name": "tokenB",
          "type": "address"
        }
      ],
      "name": "getPool",
      "outputs": [
        {
          "components": [
            {
              "internalType": "address",
              "name": "poolAddress",
              "type": "address"
            },
            {
              "internalType": "uint24",
              "name": "fee",
              "type": "uint24"
            },
            {
              "internalType": "uint48",
              "name": "lastUpdatedTimestamp",
              "type": "uint48"
            }
          ],
          "internalType": "struct PoolData",
          "name": "pool",
          "type": "tuple"
        }
      ],
      "stateMutability": "view",
      "type": "function"
    },
    {
      "inputs": [
        {
          "internalType": "uint128",
          "name": "baseAmount",
          "type": "uint128"
        },
        {
          "internalType": "address",
          "name": "baseToken",
          "type": "address"
        },
        {
          "internalType": "address",
          "name": "quoteToken",
          "type": "address"
        },
        {
          "internalType": "uint32",
          "name": "secondsAgo",
          "type": "uint32"
        }
      ],
      "name": "getQuote",
      "outputs": [
        {
          "internalType": "uint256",
          "name": "quoteAmount",
          "type": "uint256"
        }
      ],
      "stateMutability": "view",
      "type": "function"
    },
    {
      "inputs": [
        {
          "internalType": "uint128",
          "name": "baseAmount",
          "type": "uint128"
        },
        {
          "internalType": "address",
          "name": "baseToken",
          "type": "address"
        },
        {
          "internalType": "address",
          "name": "quoteToken",
          "type": "address"
        },
        {
          "internalType": "uint32",
          "name": "secondsAgo",
          "type": "uint32"
        },
        {
          "internalType": "uint256",
          "name": "updateInterval",
          "type": "uint256"
        }
      ],
      "name": "getQuoteAndUpdatePool",
      "outputs": [
        {
          "internalType": "uint256",
          "name": "quoteAmount",
          "type": "uint256"
        }
      ],
      "stateMutability": "nonpayable",
      "type": "function"
    },
    {
      "inputs": [
        {
          "internalType": "address",
          "name": "tokenA",
          "type": "address"
        },
        {
          "internalType": "address",
          "name": "tokenB",
          "type": "address"
        },
        {
          "internalType": "uint256",
          "name": "updateInterval",
          "type": "uint256"
        }
      ],
      "name": "getUpdatedPool",
      "outputs": [
        {
          "components": [
            {
              "internalType": "address",
              "name": "poolAddress",
              "type": "address"
            },
            {
              "internalType": "uint24",
              "name": "fee",
              "type": "uint24"
            },
            {
              "internalType": "uint48",
              "name": "lastUpdatedTimestamp",
              "type": "uint48"
            }
          ],
          "internalType": "struct PoolData",
          "name": "pool",
          "type": "tuple"
        }
      ],
      "stateMutability": "nonpayable",
      "type": "function"
    },
    {
      "inputs": [
        {
          "internalType": "address",
          "name": "",
          "type": "address"
        },
        {
          "internalType": "address",
          "name": "",
          "type": "address"
        }
      ],
      "name": "pools",
      "outputs": [
        {
          "internalType": "address",
          "name": "poolAddress",
          "type": "address"
        },
        {
          "internalType": "uint24",
          "name": "fee",
          "type": "uint24"
        },
        {
          "internalType": "uint48",
          "name": "lastUpdatedTimestamp",
          "type": "uint48"
        }
      ],
      "stateMutability": "view",
      "type": "function"
    },
    {
      "inputs": [],
      "name": "uniswapV3Factory",
      "outputs": [
        {
          "internalType": "address",
          "name": "",
          "type": "address"
        }
      ],
      "stateMutability": "view",
      "type": "function"
    },
    {
      "inputs": [
        {
          "internalType": "address",
          "name": "tokenA",
          "type": "address"
        },
        {
          "internalType": "address",
          "name": "tokenB",
          "type": "address"
        }
      ],
      "name": "updatePool",
      "outputs": [
        {
          "components": [
            {
              "internalType": "address",
              "name": "poolAddress",
              "type": "address"
            },
            {
              "internalType": "uint24",
              "name": "fee",
              "type": "uint24"
            },
            {
              "internalType": "uint48",
              "name": "lastUpdatedTimestamp",
              "type": "uint48"
            }
          ],
          "internalType": "struct PoolData",
          "name": "highestLiquidityPool",
          "type": "tuple"
        }
      ],
      "stateMutability": "nonpayable",
      "type": "function"
    }
  ],
  "bytecode": {
    "object": "0x61012060405261271060a0908152610bb860c0526101f460e0526064610100526200002f90600090600462000072565b503480156200003d57600080fd5b5060405162001bbb38038062001bbb83398101604081905262000060916200013b565b6001600160a01b03166080526200016d565b82805482825590600052602060002090600901600a90048101928215620001125791602002820160005b83821115620000df57835183826101000a81548162ffffff021916908361ffff16021790555092602001926003016020816002010492830192600103026200009c565b8015620001105782816101000a81549062ffffff0219169055600301602081600201049283019260010302620000df565b505b506200012092915062000124565b5090565b5b8082111562000120576000815560010162000125565b6000602082840312156200014e57600080fd5b81516001600160a01b03811681146200016657600080fd5b9392505050565b608051611a2c6200018f6000396000818160e4015261051c0152611a2c6000f3fe608060405234801561001057600080fd5b506004361061007d5760003560e01c80636cd62fb31161005b5780636cd62fb31461014c57806380e1ed821461015f578063901754d714610172578063cb41861d1461023457600080fd5b8063531aa03e146100825780635b549182146100df578063637113621461012b575b600080fd5b610095610090366004611393565b610247565b60408051825173ffffffffffffffffffffffffffffffffffffffff16815260208084015162ffffff16908201529181015165ffffffffffff16908201526060015b60405180910390f35b6101067f000000000000000000000000000000000000000000000000000000000000000081565b60405173ffffffffffffffffffffffffffffffffffffffff90911681526020016100d6565b61013e610139366004611405565b61033d565b6040519081526020016100d6565b61009561015a36600461145d565b610390565b61009561016d366004611393565b610427565b6101f6610180366004611393565b600160209081526000928352604080842090915290825290205473ffffffffffffffffffffffffffffffffffffffff81169074010000000000000000000000000000000000000000810462ffffff169077010000000000000000000000000000000000000000000000900465ffffffffffff1683565b6040805173ffffffffffffffffffffffffffffffffffffffff909416845262ffffff909216602084015265ffffffffffff16908201526060016100d6565b61013e61024236600461149e565b610777565b60408051606081018252600080825260208201819052918101919091526000808373ffffffffffffffffffffffffffffffffffffffff168573ffffffffffffffffffffffffffffffffffffffff16106102a15783856102a4565b84845b73ffffffffffffffffffffffffffffffffffffffff918216600090815260016020908152604080832093851683529281529082902082516060810184529054938416815274010000000000000000000000000000000000000000840462ffffff16918101919091527701000000000000000000000000000000000000000000000090920465ffffffffffff169082015295945050505050565b60008061034a8585610247565b51905073ffffffffffffffffffffffffffffffffffffffff81161561038757600061037582856107cc565b905061038381888888610a0c565b9250505b50949350505050565b6040805160608101825260008082526020820181905291810191909152816000036103c6576103bf8484610427565b9050610420565b6103d08484610247565b805190915073ffffffffffffffffffffffffffffffffffffffff16158061040e57504282826040015165ffffffffffff1661040b919061152d565b11155b156104205761041d8484610427565b90505b9392505050565b60408051606081018252600080825260208201819052918101919091526000808373ffffffffffffffffffffffffffffffffffffffff168573ffffffffffffffffffffffffffffffffffffffff1610610481578385610484565b84845b91509150600080600080548060200260200160405190810160405280929190818152602001828054801561050157602002820191906000526020600020906000905b82829054906101000a900462ffffff1662ffffff16815260200190600301906020826002010492830192600103820291508084116104c65790505b5050505050905060008060005b6004811015610651576105a57f000000000000000000000000000000000000000000000000000000000000000060405180606001604052808a73ffffffffffffffffffffffffffffffffffffffff1681526020018973ffffffffffffffffffffffffffffffffffffffff16815260200187858151811061059057610590611546565b602002602001015162ffffff16815250610bd9565b925073ffffffffffffffffffffffffffffffffffffffff83163b15610649576105d083610708610d32565b6fffffffffffffffffffffffffffffffff169150848211156106495781945060405180606001604052808473ffffffffffffffffffffffffffffffffffffffff16815260200185838151811061062857610628611546565b602002602001015162ffffff1681526020014265ffffffffffff1681525097505b60010161050e565b5073ffffffffffffffffffffffffffffffffffffffff868116600090815260016020908152604080832089851684528252918290208a5181548c840180518e87018051949098167fffffffffffffffffff000000000000000000000000000000000000000000000090931683177401000000000000000000000000000000000000000062ffffff92831602177fffffff000000000000ffffffffffffffffffffffffffffffffffffffffffffff167701000000000000000000000000000000000000000000000065ffffffffffff958616021790945585519182525190921692820192909252925116908201527fe04029824b233ce0ed16e01c61d0a4f69b7cca8564458765386e99179e0745bb9060600160405180910390a150505050505092915050565b600080610785868685610390565b51905073ffffffffffffffffffffffffffffffffffffffff8116156107c25760006107b082866107cc565b90506107be81898989610a0c565b9250505b5095945050505050565b60008163ffffffff16600003610842576040517f08c379a000000000000000000000000000000000000000000000000000000000815260206004820152600260248201527f4250000000000000000000000000000000000000000000000000000000000000604482015260640160405180910390fd5b604080516002808252606082018352600092602083019080368337019050509050828160008151811061087757610877611546565b602002602001019063ffffffff16908163ffffffff16815250506000816001815181106108a6576108a6611546565b63ffffffff909216602092830291909101909101526040517f883bdbfd00000000000000000000000000000000000000000000000000000000815260009073ffffffffffffffffffffffffffffffffffffffff86169063883bdbfd906109109085906004016115a4565b600060405180830381865afa15801561092d573d6000803e3d6000fd5b505050506040513d6000823e601f3d9081017fffffffffffffffffffffffffffffffffffffffffffffffffffffffffffffffe016820160405261097391908101906116d5565b50905060008160008151811061098b5761098b611546565b6020026020010151826001815181106109a6576109a6611546565b60200260200101516109b891906117a1565b90506109ca63ffffffff861682611815565b935060008160060b1280156109f057506109ea63ffffffff861682611889565b60060b15155b15610a0357836109ff816118ab565b9450505b50505092915050565b600080610a1886610f37565b90506fffffffffffffffffffffffffffffffff73ffffffffffffffffffffffffffffffffffffffff821611610b17576000610a6973ffffffffffffffffffffffffffffffffffffffff831680611908565b90508373ffffffffffffffffffffffffffffffffffffffff168573ffffffffffffffffffffffffffffffffffffffff1610610ad957610ad47801000000000000000000000000000000000000000000000000876fffffffffffffffffffffffffffffffff168361129e565b610b0f565b610b0f81876fffffffffffffffffffffffffffffffff16780100000000000000000000000000000000000000000000000061129e565b925050610387565b6000610b4373ffffffffffffffffffffffffffffffffffffffff8316806801000000000000000061129e565b90508373ffffffffffffffffffffffffffffffffffffffff168573ffffffffffffffffffffffffffffffffffffffff1610610bab57610ba6700100000000000000000000000000000000876fffffffffffffffffffffffffffffffff168361129e565b610383565b61038381876fffffffffffffffffffffffffffffffff1670010000000000000000000000000000000061129e565b6000816020015173ffffffffffffffffffffffffffffffffffffffff16826000015173ffffffffffffffffffffffffffffffffffffffff1610610c1b57600080fd5b8151602080840151604080860151815173ffffffffffffffffffffffffffffffffffffffff95861681860152949092168482015262ffffff90911660608085019190915281518085038201815260808501909252815191909201207fff0000000000000000000000000000000000000000000000000000000000000060a08401529085901b7fffffffffffffffffffffffffffffffffffffffff0000000000000000000000001660a183015260b58201527fe34f199b19b2b4f47f68442619d555527d244f78a3297ea89325f843f87b8b5460d582015260f501604080517fffffffffffffffffffffffffffffffffffffffffffffffffffffffffffffffe081840301815291905280516020909101209392505050565b604080516002808252606082018352600092839291906020830190803683370190505090508281600081518110610d6b57610d6b611546565b602002602001019063ffffffff16908163ffffffff1681525050600081600181518110610d9a57610d9a611546565b602002602001019063ffffffff16908163ffffffff16815250506000808573ffffffffffffffffffffffffffffffffffffffff1663883bdbfd84604051602401610de491906115a4565b6040516020818303038152906040529060e01b6020820180517bffffffffffffffffffffffffffffffffffffffffffffffffffffffff8381831617835250505050604051610e329190611945565b600060405180830381855afa9150503d8060008114610e6d576040519150601f19603f3d011682016040523d82523d6000602084013e610e72565b606091505b50915091508115610a0357600081806020019051810190610e9391906116d5565b915050600081600081518110610eab57610eab611546565b602002602001015182600181518110610ec657610ec6611546565b6020026020010151610ed89190611974565b90506000610f0073ffffffffffffffffffffffffffffffffffffffff63ffffffff8a166119a8565b9050610f2a77ffffffffffffffffffffffffffffffffffffffff00000000602084901b16826119e8565b9998505050505050505050565b60008060008360020b12610f4e578260020b610f56565b8260020b6000035b9050620d89e8811115610f95576040517f2bc80f3a00000000000000000000000000000000000000000000000000000000815260040160405180910390fd5b600081600116600003610fb957700100000000000000000000000000000000610fcb565b6ffffcb933bd6fad37aa2d162d1a5940015b70ffffffffffffffffffffffffffffffffff1690506002821615610fff576ffff97272373d413259a46990580e213a0260801c5b600482161561101e576ffff2e50f5f656932ef12357cf3c7fdcc0260801c5b600882161561103d576fffe5caca7e10e4e61c3624eaa0941cd00260801c5b601082161561105c576fffcb9843d60f6159c9db58835c9266440260801c5b602082161561107b576fff973b41fa98c081472e6896dfb254c00260801c5b604082161561109a576fff2ea16466c96a3843ec78b326b528610260801c5b60808216156110b9576ffe5dee046a99a2a811c461f1969c30530260801c5b6101008216156110d9576ffcbe86c7900a88aedcffc83b479aa3a40260801c5b6102008216156110f9576ff987a7253ac413176f2b074cf7815e540260801c5b610400821615611119576ff3392b0822b70005940c7a398e4b70f30260801c5b610800821615611139576fe7159475a2c29b7443b29c7fa6e889d90260801c5b611000821615611159576fd097f3bdfd2022b8845ad8f792aa58250260801c5b612000821615611179576fa9f746462d870fdf8a65dc1f90e061e50260801c5b614000821615611199576f70d869a156d2a1b890bb3df62baf32f70260801c5b6180008216156111b9576f31be135f97d08fd981231505542fcfa60260801c5b620100008216156111da576f09aa508b5b7a84e1c677de54f3e99bc90260801c5b620200008216156111fa576e5d6af8dedb81196699c329225ee6040260801c5b62040000821615611219576d2216e584f5fa1ea926041bedfe980260801c5b62080000821615611236576b048a170391f7dc42444e8fa20260801c5b60008460020b131561127557807fffffffffffffffffffffffffffffffffffffffffffffffffffffffffffffffff81611271576112716117e6565b0490505b64010000000081061561128957600161128c565b60005b60ff16602082901c0192505050919050565b600080807fffffffffffffffffffffffffffffffffffffffffffffffffffffffffffffffff858709858702925082811083820303915050806000036112f557600084116112ea57600080fd5b508290049050610420565b80841161130157600080fd5b6000848688096000868103871696879004966002600389028118808a02820302808a02820302808a02820302808a02820302808a02820302808a02909103029181900381900460010186841190950394909402919094039290920491909117919091029150509392505050565b73ffffffffffffffffffffffffffffffffffffffff8116811461139057600080fd5b50565b600080604083850312156113a657600080fd5b82356113b18161136e565b915060208301356113c18161136e565b809150509250929050565b80356fffffffffffffffffffffffffffffffff811681146113ec57600080fd5b919050565b803563ffffffff811681146113ec57600080fd5b6000806000806080858703121561141b57600080fd5b611424856113cc565b935060208501356114348161136e565b925060408501356114448161136e565b9150611452606086016113f1565b905092959194509250565b60008060006060848603121561147257600080fd5b833561147d8161136e565b9250602084013561148d8161136e565b929592945050506040919091013590565b600080600080600060a086880312156114b657600080fd5b6114bf866113cc565b945060208601356114cf8161136e565b935060408601356114df8161136e565b92506114ed606087016113f1565b949793965091946080013592915050565b7f4e487b7100000000000000000000000000000000000000000000000000000000600052601160045260246000fd5b80820180821115611540576115406114fe565b92915050565b7f4e487b7100000000000000000000000000000000000000000000000000000000600052603260045260246000fd5b7f4e487b7100000000000000000000000000000000000000000000000000000000600052604160045260246000fd5b6020808252825182820181905260009190848201906040850190845b818110156115e257835163ffffffff16835292840192918401916001016115c0565b50909695505050505050565b604051601f82017fffffffffffffffffffffffffffffffffffffffffffffffffffffffffffffffe016810167ffffffffffffffff8111828210171561163557611635611575565b604052919050565b600067ffffffffffffffff82111561165757611657611575565b5060051b60200190565b600082601f83011261167257600080fd5b815160206116876116828361163d565b6115ee565b82815260059290921b840181019181810190868411156116a657600080fd5b8286015b848110156116ca5780516116bd8161136e565b83529183019183016116aa565b509695505050505050565b600080604083850312156116e857600080fd5b825167ffffffffffffffff8082111561170057600080fd5b818501915085601f83011261171457600080fd5b815160206117246116828361163d565b82815260059290921b8401810191818101908984111561174357600080fd5b948201945b838610156117715785518060060b81146117625760008081fd5b82529482019490820190611748565b9188015191965090935050508082111561178a57600080fd5b5061179785828601611661565b9150509250929050565b600682810b9082900b037fffffffffffffffffffffffffffffffffffffffffffffffffff800000000000008112667fffffffffffff82131715611540576115406114fe565b7f4e487b7100000000000000000000000000000000000000000000000000000000600052601260045260246000fd5b60008160060b8360060b8061182c5761182c6117e6565b7fffffffffffffffffffffffffffffffffffffffffffffffffffffffffffffffff81147fffffffffffffffffffffffffffffffffffffffffffffffffff8000000000000083141615611880576118806114fe565b90059392505050565b60008260060b8061189c5761189c6117e6565b808360060b0791505092915050565b60008160020b7fffffffffffffffffffffffffffffffffffffffffffffffffffffffffff80000081036118e0576118e06114fe565b7fffffffffffffffffffffffffffffffffffffffffffffffffffffffffffffffff0192915050565b6000817fffffffffffffffffffffffffffffffffffffffffffffffffffffffffffffffff0483118215151615611940576119406114fe565b500290565b6000825160005b81811015611966576020818601810151858301520161194c565b506000920191825250919050565b73ffffffffffffffffffffffffffffffffffffffff8281168282160390808211156119a1576119a16114fe565b5092915050565b600077ffffffffffffffffffffffffffffffffffffffffffffffff808316818516818304811182151516156119df576119df6114fe565b02949350505050565b600077ffffffffffffffffffffffffffffffffffffffffffffffff80841680611a1357611a136117e6565b9216919091049291505056fea164736f6c6343000810000a",
    "linkReferences": {}
  },
  "methodIdentifiers": {
    "getPool(address,address)": "531aa03e",
    "getQuote(uint128,address,address,uint32)": "63711362",
    "getQuoteAndUpdatePool(uint128,address,address,uint32,uint256)": "cb41861d",
    "getUpdatedPool(address,address,uint256)": "6cd62fb3",
    "pools(address,address)": "901754d7",
    "uniswapV3Factory()": "5b549182",
    "updatePool(address,address)": "80e1ed82"
  },
  "id": 0
}