{
  "_format": "hh-sol-artifact-1",
  "contractName": "Slicer",
  "sourceName": "contracts/Slicer.sol",
  "abi": [
    {
      "inputs": [],
      "name": "Invalid",
      "type": "error"
    },
    {
      "inputs": [],
      "name": "NotAuthorized",
      "type": "error"
    },
    {
      "inputs": [],
      "name": "NotSuccessful",
      "type": "error"
    },
    {
      "inputs": [],
      "name": "PaymentLoop",
      "type": "error"
    },
    {
      "inputs": [],
      "name": "ReentrancyBlock",
      "type": "error"
    },
    {
      "inputs": [],
      "name": "releaseLocked",
      "type": "error"
    },
    {
      "anonymous": false,
      "inputs": [
        {
          "indexed": true,
          "internalType": "uint256",
          "name": "slicerId",
          "type": "uint256"
        },
        {
          "indexed": false,
          "internalType": "bool",
          "name": "addChildSlicerMode",
          "type": "bool"
        }
      ],
      "name": "ChildSlicerSet",
      "type": "event"
    },
    {
      "anonymous": false,
      "inputs": [
        {
          "indexed": false,
          "internalType": "address[]",
          "name": "currencies",
          "type": "address[]"
        }
      ],
      "name": "CurrenciesAdded",
      "type": "event"
    },
    {
      "anonymous": false,
      "inputs": [
        {
          "indexed": false,
          "internalType": "bool",
          "name": "customFeeActive",
          "type": "bool"
        },
        {
          "indexed": false,
          "internalType": "uint256",
          "name": "customFee",
          "type": "uint256"
        }
      ],
      "name": "CustomFeeSet",
      "type": "event"
    },
    {
      "anonymous": false,
      "inputs": [
        {
          "indexed": true,
          "internalType": "address",
          "name": "contractAddress",
          "type": "address"
        },
        {
          "indexed": true,
          "internalType": "address",
          "name": "from",
          "type": "address"
        },
        {
          "indexed": false,
          "internalType": "uint256[]",
          "name": "tokenIds",
          "type": "uint256[]"
        },
        {
          "indexed": false,
          "internalType": "uint256[]",
          "name": "amounts",
          "type": "uint256[]"
        }
      ],
      "name": "ERC1155BatchReceived",
      "type": "event"
    },
    {
      "anonymous": false,
      "inputs": [
        {
          "indexed": true,
          "internalType": "address",
          "name": "contractAddress",
          "type": "address"
        },
        {
          "indexed": true,
          "internalType": "address",
          "name": "from",
          "type": "address"
        },
        {
          "indexed": false,
          "internalType": "uint256",
          "name": "tokenId",
          "type": "uint256"
        },
        {
          "indexed": false,
          "internalType": "uint256",
          "name": "amount",
          "type": "uint256"
        }
      ],
      "name": "ERC1155Received",
      "type": "event"
    },
    {
      "anonymous": false,
      "inputs": [
        {
          "indexed": true,
          "internalType": "address",
          "name": "contractAddress",
          "type": "address"
        },
        {
          "indexed": true,
          "internalType": "address",
          "name": "from",
          "type": "address"
        },
        {
          "indexed": false,
          "internalType": "uint256",
          "name": "tokenId",
          "type": "uint256"
        }
      ],
      "name": "ERC721Received",
      "type": "event"
    },
    {
      "anonymous": false,
      "inputs": [
        {
          "indexed": false,
          "internalType": "uint8",
          "name": "version",
          "type": "uint8"
        }
      ],
      "name": "Initialized",
      "type": "event"
    },
    {
      "anonymous": false,
      "inputs": [
        {
          "indexed": true,
          "internalType": "address",
          "name": "payee",
          "type": "address"
        },
        {
          "indexed": true,
          "internalType": "address",
          "name": "currency",
          "type": "address"
        },
        {
          "indexed": false,
          "internalType": "uint256",
          "name": "amountReleased",
          "type": "uint256"
        },
        {
          "indexed": false,
          "internalType": "uint256",
          "name": "protocolPayment",
          "type": "uint256"
        }
      ],
      "name": "Released",
      "type": "event"
    },
    {
      "inputs": [
        {
          "internalType": "address[]",
          "name": "currencies",
          "type": "address[]"
        }
      ],
      "name": "_addCurrencies",
      "outputs": [],
      "stateMutability": "nonpayable",
      "type": "function"
    },
    {
      "inputs": [
        {
          "internalType": "address",
          "name": "buyer",
          "type": "address"
        },
        {
          "internalType": "address",
          "name": "contractAddress",
          "type": "address"
        },
        {
          "internalType": "uint256",
          "name": "quantity",
          "type": "uint256"
        },
        {
          "internalType": "uint256",
          "name": "tokenId",
          "type": "uint256"
        }
      ],
      "name": "_handle1155Purchase",
      "outputs": [],
      "stateMutability": "nonpayable",
      "type": "function"
    },
    {
      "inputs": [
        {
          "internalType": "address",
          "name": "buyer",
          "type": "address"
        },
        {
          "internalType": "address",
          "name": "contractAddress",
          "type": "address"
        },
        {
          "internalType": "uint256",
          "name": "tokenId",
          "type": "uint256"
        }
      ],
      "name": "_handle721Purchase",
      "outputs": [],
      "stateMutability": "nonpayable",
      "type": "function"
    },
    {
      "inputs": [
        {
          "internalType": "uint256",
          "name": "tokenId_",
          "type": "uint256"
        },
        {
          "internalType": "uint8",
          "name": "flags_",
          "type": "uint8"
        },
        {
          "internalType": "address",
          "name": "slicerCreator_",
          "type": "address"
        },
        {
          "internalType": "uint256",
          "name": "minimumShares_",
          "type": "uint256"
        },
        {
          "internalType": "uint256",
          "name": "releaseTimelock_",
          "type": "uint256"
        },
        {
          "internalType": "address[]",
          "name": "currencies_",
          "type": "address[]"
        }
      ],
      "name": "_initialize",
      "outputs": [],
      "stateMutability": "nonpayable",
      "type": "function"
    },
    {
      "inputs": [
        {
          "internalType": "address",
          "name": "account",
          "type": "address"
        },
        {
          "internalType": "address",
          "name": "currency",
          "type": "address"
        }
      ],
      "name": "_releaseFromFundsModule",
      "outputs": [
        {
          "internalType": "uint256",
          "name": "amount",
          "type": "uint256"
        },
        {
          "internalType": "uint256",
          "name": "protocolPayment",
          "type": "uint256"
        }
      ],
      "stateMutability": "nonpayable",
      "type": "function"
    },
    {
      "inputs": [
        {
          "internalType": "address",
          "name": "account",
          "type": "address"
        },
        {
          "internalType": "address",
          "name": "currency",
          "type": "address"
        },
        {
          "internalType": "uint256",
          "name": "accountSlices",
          "type": "uint256"
        }
      ],
      "name": "_releaseFromSliceCore",
      "outputs": [],
      "stateMutability": "nonpayable",
      "type": "function"
    },
    {
      "inputs": [
        {
          "internalType": "uint256",
          "name": "id",
          "type": "uint256"
        },
        {
          "internalType": "bool",
          "name": "isAdded",
          "type": "bool"
        }
      ],
      "name": "_setChildSlicer",
      "outputs": [],
      "stateMutability": "nonpayable",
      "type": "function"
    },
    {
      "inputs": [
        {
          "internalType": "bool",
          "name": "customFeeActive_",
          "type": "bool"
        },
        {
          "internalType": "uint256",
          "name": "customFee_",
          "type": "uint256"
        }
      ],
      "name": "_setCustomFee",
      "outputs": [],
      "stateMutability": "nonpayable",
      "type": "function"
    },
    {
      "inputs": [
        {
          "internalType": "uint256",
          "name": "totalShares_",
          "type": "uint256"
        }
      ],
      "name": "_setTotalShares",
      "outputs": [],
      "stateMutability": "nonpayable",
      "type": "function"
    },
    {
      "inputs": [
        {
          "internalType": "address payable",
          "name": "sender",
          "type": "address"
        },
        {
          "internalType": "address",
          "name": "receiver",
          "type": "address"
        },
        {
          "internalType": "bool",
          "name": "toRelease",
          "type": "bool"
        },
        {
          "internalType": "uint256",
          "name": "senderShares",
          "type": "uint256"
        },
        {
          "internalType": "uint256",
          "name": "transferredShares",
          "type": "uint256"
        }
      ],
      "name": "_updatePayees",
      "outputs": [],
      "stateMutability": "nonpayable",
      "type": "function"
    },
    {
      "inputs": [
        {
          "internalType": "address payable[]",
          "name": "accounts",
          "type": "address[]"
        },
        {
          "internalType": "int32[]",
          "name": "tokensDiffs",
          "type": "int32[]"
        },
        {
          "internalType": "uint32",
          "name": "totalSupply",
          "type": "uint32"
        }
      ],
      "name": "_updatePayeesReslice",
      "outputs": [],
      "stateMutability": "nonpayable",
      "type": "function"
    },
    {
      "inputs": [
        {
          "internalType": "address",
          "name": "currency",
          "type": "address"
        }
      ],
      "name": "acceptsCurrency",
      "outputs": [
        {
          "internalType": "bool",
          "name": "",
          "type": "bool"
        }
      ],
      "stateMutability": "view",
      "type": "function"
    },
    {
      "inputs": [],
      "name": "baseFee",
      "outputs": [
        {
          "internalType": "uint8",
          "name": "",
          "type": "uint8"
        }
      ],
      "stateMutability": "view",
      "type": "function"
    },
    {
      "inputs": [
        {
          "internalType": "address[]",
          "name": "accounts",
          "type": "address[]"
        },
        {
          "internalType": "address",
          "name": "currency",
          "type": "address"
        },
        {
          "internalType": "bool",
          "name": "withdraw",
          "type": "bool"
        }
      ],
      "name": "batchReleaseAccounts",
      "outputs": [],
      "stateMutability": "nonpayable",
      "type": "function"
    },
    {
      "inputs": [],
      "name": "creator",
      "outputs": [
        {
          "internalType": "address",
          "name": "",
          "type": "address"
        }
      ],
      "stateMutability": "view",
      "type": "function"
    },
    {
      "inputs": [],
      "name": "customFee",
      "outputs": [
        {
          "internalType": "uint16",
          "name": "",
          "type": "uint16"
        }
      ],
      "stateMutability": "view",
      "type": "function"
    },
    {
      "inputs": [],
      "name": "customFeeActive",
      "outputs": [
        {
          "internalType": "bool",
          "name": "",
          "type": "bool"
        }
      ],
      "stateMutability": "view",
      "type": "function"
    },
    {
      "inputs": [],
      "name": "flags",
      "outputs": [
        {
          "internalType": "uint8",
          "name": "",
          "type": "uint8"
        }
      ],
      "stateMutability": "view",
      "type": "function"
    },
    {
      "inputs": [],
      "name": "fundsModule",
      "outputs": [
        {
          "internalType": "contract IFundsModule",
          "name": "",
          "type": "address"
        }
      ],
      "stateMutability": "view",
      "type": "function"
    },
    {
      "inputs": [],
      "name": "getFee",
      "outputs": [
        {
          "internalType": "uint256",
          "name": "fee",
          "type": "uint256"
        }
      ],
      "stateMutability": "view",
      "type": "function"
    },
    {
      "inputs": [
        {
          "internalType": "address",
          "name": "account",
          "type": "address"
        }
      ],
      "name": "getFeeForAccount",
      "outputs": [
        {
          "internalType": "uint256",
          "name": "fee",
          "type": "uint256"
        }
      ],
      "stateMutability": "view",
      "type": "function"
    },
    {
      "inputs": [
        {
          "internalType": "address",
          "name": "payee",
          "type": "address"
        }
      ],
      "name": "isPayeeAllowed",
      "outputs": [
        {
          "internalType": "bool",
          "name": "",
          "type": "bool"
        }
      ],
      "stateMutability": "view",
      "type": "function"
    },
    {
      "inputs": [],
      "name": "minimumShares",
      "outputs": [
        {
          "internalType": "uint32",
          "name": "",
          "type": "uint32"
        }
      ],
      "stateMutability": "view",
      "type": "function"
    },
    {
      "inputs": [
        {
          "internalType": "address",
          "name": "",
          "type": "address"
        },
        {
          "internalType": "address",
          "name": "from",
          "type": "address"
        },
        {
          "internalType": "uint256[]",
          "name": "tokenIds",
          "type": "uint256[]"
        },
        {
          "internalType": "uint256[]",
          "name": "amounts",
          "type": "uint256[]"
        },
        {
          "internalType": "bytes",
          "name": "",
          "type": "bytes"
        }
      ],
      "name": "onERC1155BatchReceived",
      "outputs": [
        {
          "internalType": "bytes4",
          "name": "",
          "type": "bytes4"
        }
      ],
      "stateMutability": "nonpayable",
      "type": "function"
    },
    {
      "inputs": [
        {
          "internalType": "address",
          "name": "",
          "type": "address"
        },
        {
          "internalType": "address",
          "name": "from",
          "type": "address"
        },
        {
          "internalType": "uint256",
          "name": "tokenId",
          "type": "uint256"
        },
        {
          "internalType": "uint256",
          "name": "amount",
          "type": "uint256"
        },
        {
          "internalType": "bytes",
          "name": "",
          "type": "bytes"
        }
      ],
      "name": "onERC1155Received",
      "outputs": [
        {
          "internalType": "bytes4",
          "name": "",
          "type": "bytes4"
        }
      ],
      "stateMutability": "nonpayable",
      "type": "function"
    },
    {
      "inputs": [
        {
          "internalType": "address",
          "name": "",
          "type": "address"
        },
        {
          "internalType": "address",
          "name": "from",
          "type": "address"
        },
        {
          "internalType": "uint256",
          "name": "tokenId",
          "type": "uint256"
        },
        {
          "internalType": "bytes",
          "name": "",
          "type": "bytes"
        }
      ],
      "name": "onERC721Received",
      "outputs": [
        {
          "internalType": "bytes4",
          "name": "",
          "type": "bytes4"
        }
      ],
      "stateMutability": "nonpayable",
      "type": "function"
    },
    {
      "inputs": [],
      "name": "productsModule",
      "outputs": [
        {
          "internalType": "contract IProductsModule",
          "name": "",
          "type": "address"
        }
      ],
      "stateMutability": "view",
      "type": "function"
    },
    {
      "inputs": [
        {
          "internalType": "address",
          "name": "account",
          "type": "address"
        },
        {
          "internalType": "address",
          "name": "currency",
          "type": "address"
        },
        {
          "internalType": "bool",
          "name": "withdraw",
          "type": "bool"
        }
      ],
      "name": "release",
      "outputs": [],
      "stateMutability": "nonpayable",
      "type": "function"
    },
    {
      "inputs": [],
      "name": "releaseTimelock",
      "outputs": [
        {
          "internalType": "uint40",
          "name": "",
          "type": "uint40"
        }
      ],
      "stateMutability": "view",
      "type": "function"
    },
    {
      "inputs": [],
      "name": "sliceCore",
      "outputs": [
        {
          "internalType": "contract ISliceCore",
          "name": "",
          "type": "address"
        }
      ],
      "stateMutability": "view",
      "type": "function"
    },
    {
      "inputs": [],
      "name": "slicerId",
      "outputs": [
        {
          "internalType": "uint128",
          "name": "",
          "type": "uint128"
        }
      ],
      "stateMutability": "view",
      "type": "function"
    },
    {
      "inputs": [],
      "name": "slicerInfo",
      "outputs": [
        {
          "internalType": "uint256",
          "name": "",
          "type": "uint256"
        },
        {
          "internalType": "uint256",
          "name": "",
          "type": "uint256"
        },
        {
          "internalType": "address",
          "name": "",
          "type": "address"
        },
        {
          "internalType": "bool",
          "name": "isImmutable",
          "type": "bool"
        },
        {
          "internalType": "bool",
          "name": "currenciesControlled",
          "type": "bool"
        },
        {
          "internalType": "bool",
          "name": "productsControlled",
          "type": "bool"
        },
        {
          "internalType": "bool",
          "name": "acceptsAllCurrencies",
          "type": "bool"
        },
        {
          "internalType": "address[]",
          "name": "",
          "type": "address[]"
        }
      ],
      "stateMutability": "view",
      "type": "function"
    },
    {
      "inputs": [
        {
          "internalType": "bytes4",
          "name": "interfaceId",
          "type": "bytes4"
        }
      ],
      "name": "supportsInterface",
      "outputs": [
        {
          "internalType": "bool",
          "name": "",
          "type": "bool"
        }
      ],
      "stateMutability": "view",
      "type": "function"
    },
    {
      "inputs": [
        {
          "internalType": "address",
          "name": "",
          "type": "address"
        }
      ],
      "name": "totalReleased",
      "outputs": [
        {
          "internalType": "uint256",
          "name": "",
          "type": "uint256"
        }
      ],
      "stateMutability": "view",
      "type": "function"
    },
    {
      "inputs": [],
      "name": "totalShares",
      "outputs": [
        {
          "internalType": "uint32",
          "name": "",
          "type": "uint32"
        }
      ],
      "stateMutability": "view",
      "type": "function"
    },
    {
      "inputs": [
        {
          "internalType": "address",
          "name": "account",
          "type": "address"
        },
        {
          "internalType": "address",
          "name": "currency",
          "type": "address"
        }
      ],
      "name": "unreleased",
      "outputs": [
        {
          "internalType": "uint256",
          "name": "unreleasedAmount",
          "type": "uint256"
        }
      ],
      "stateMutability": "view",
      "type": "function"
    },
    {
      "stateMutability": "payable",
      "type": "receive"
    }
  ],
  "bytecode": "0x608060405234801561001057600080fd5b50613914806100206000396000f3fe6080604052600436106102135760003560e01c8063a468801711610118578063d3c65754116100a0578063e6a1be001161006f578063e6a1be00146106f3578063ecd3620a14610713578063f23a6e6114610733578063f4c7636314610753578063fc2686191461077557600080fd5b8063d3c6575414610666578063d79779b214610686578063d9749edf146106b3578063e32cf851146106d357600080fd5b8063bb3b0347116100e7578063bb3b0347146105b6578063bc197c81146105f1578063be9be3b614610611578063ce55982b14610631578063ced72f871461065157600080fd5b8063a468801714610519578063b230074a1461054e578063b25e9c391461056e578063b5441fe81461058e57600080fd5b806364cc4aa51161019b5780637ffa7f001161016a5780637ffa7f001461045e5780638d78fd0b1461048c578063926b0125146104b0578063957e07b6146104d05780639d24e186146104f957600080fd5b806364cc4aa5146103cd5780636740ff40146104005780636ef25c3a1461042857806378ea938a1461043d57600080fd5b80633a98ef39116101e25780633a98ef39146102e757806352cf13d61461032057806359bac56c146103405780635d8dc389146103605780635edafd5a1461039857600080fd5b806301ffc9a71461021f57806302d05d3f14610254578063150b7a021461028c57806319fc05b5146102c557600080fd5b3661021a57005b600080fd5b34801561022b57600080fd5b5061023f61023a366004612e04565b610795565b60405190151581526020015b60405180910390f35b34801561026057600080fd5b50606c54610274906001600160a01b031681565b6040516001600160a01b03909116815260200161024b565b34801561029857600080fd5b506102ac6102a7366004612efd565b6107cc565b6040516001600160e01b0319909116815260200161024b565b3480156102d157600080fd5b506102e56102e0366004612f77565b61082c565b005b3480156102f357600080fd5b50606b5461030b90600160801b900463ffffffff1681565b60405163ffffffff909116815260200161024b565b34801561032c57600080fd5b506102e561033b366004612fc2565b610979565b34801561034c57600080fd5b5061023f61035b366004613008565b610bab565b34801561036c57600080fd5b50606b54610380906001600160801b031681565b6040516001600160801b03909116815260200161024b565b3480156103a457600080fd5b50606b546103ba90600160e81b900461ffff1681565b60405161ffff909116815260200161024b565b3480156103d957600080fd5b50606c546103ee90600160a01b900460ff1681565b60405160ff909116815260200161024b565b34801561040c57600080fd5b50610274738bf3585b3740a2da2190f911ea8bc84dd7972dd681565b34801561043457600080fd5b506103ee601981565b34801561044957600080fd5b50606b5461023f90600160f81b900460ff1681565b34801561046a57600080fd5b5061047e610479366004613008565b610eb1565b60405190815260200161024b565b34801561049857600080fd5b50606b5461030b90600160a01b900463ffffffff1681565b3480156104bc57600080fd5b506102e56104cb366004613025565b610ed1565b3480156104dc57600080fd5b506104e561101d565b60405161024b989796959493929190613095565b34801561050557600080fd5b506102e56105143660046130f6565b6110bc565b34801561052557600080fd5b5061053961053436600461310f565b6110ea565b6040805192835260208301919091520161024b565b34801561055a57600080fd5b506102e5610569366004613148565b61139f565b34801561057a57600080fd5b5061023f610589366004613008565b61140c565b34801561059a57600080fd5b5061027473ca6b9d59849ec880e82210e9cb8237e1d0caa69e81565b3480156105c257600080fd5b50606b546105db90600160c01b900464ffffffffff1681565b60405164ffffffffff909116815260200161024b565b3480156105fd57600080fd5b506102ac61060c366004613232565b611432565b34801561061d57600080fd5b506102e561062c366004613344565b611510565b34801561063d57600080fd5b506102e561064c3660046133c8565b611673565b34801561065d57600080fd5b5061047e61170b565b34801561067257600080fd5b506102e56106813660046133c8565b61174c565b34801561069257600080fd5b5061047e6106a1366004613008565b60696020526000908152604090205481565b3480156106bf57600080fd5b5061047e6106ce36600461310f565b6117f7565b3480156106df57600080fd5b506102e56106ee366004613488565b611913565b3480156106ff57600080fd5b506102e561070e36600461355a565b611af9565b34801561071f57600080fd5b506102e561072e3660046135a3565b611f2e565b34801561073f57600080fd5b506102ac61074e3660046135c8565b612039565b34801561075f57600080fd5b506102746000805160206138bf83398151915281565b34801561078157600080fd5b506102e5610790366004613631565b6120d8565b60006001600160e01b03198216630271189760e51b14806107c657506301ffc9a760e01b6001600160e01b03198316145b92915050565b6000836001600160a01b0316336001600160a01b03167f941a9d9a9af7f97737c018d13918859e12f44e16c4b4c6ac922dacf021cfbf148560405161081391815260200190565b60405180910390a350630a85bd0160e11b949350505050565b606b54600160c01b900464ffffffffff1642101561085d5760405163510040cb60e01b815260040160405180910390fd5b600061086984846117f7565b905080156109735760008061087d86610eb1565b905080156108925761088f838261222d565b91505b6001600160a01b038516600090815260696020526040812080548592906108ba908490613684565b909155506108cd9050868685858861224d565b83156109705760006001600160a01b038616156108eb5760006108ed565b835b606b54604051630f1daf8f60e31b8152919250738bf3585b3740a2da2190f911ea8bc84dd7972dd6916378ed7c7891849161093c916001600160801b0316908c908c908b908b9060040161369c565b6000604051808303818588803b15801561095557600080fd5b505af1158015610969573d6000803e3d6000fd5b5050505050505b50505b50505050565b3373ca6b9d59849ec880e82210e9cb8237e1d0caa69e146109ad5760405163ea8e4eb560e01b815260040160405180910390fd5b73115978100953d0aa6f2f8865d11dc5888f72836f196001600160a01b03841601610b2857604051627eeac760e11b8152306004820152602481018290526000805160206138bf8339815191529062fdd58e90604401602060405180830381865afa158015610a20573d6000803e3d6000fd5b505050506040513d601f19601f82011682018060405250810190610a4491906136d6565b8203610b2857604051630bafd3f560e11b8152600481018290526000805160206138bf8339815191529063175fa7ea90602401602060405180830381865afa158015610a94573d6000803e3d6000fd5b505050506040513d601f19601f82011682018060405250810190610ab891906136ef565b606b54604051637669b10560e11b81526001600160801b039091166004820152600060248201526001600160a01b03919091169063ecd3620a90604401600060405180830381600087803b158015610b0f57600080fd5b505af1158015610b23573d6000803e3d6000fd5b505050505b604051637921219560e11b81523060048201526001600160a01b038581166024830152604482018390526064820184905260a06084830152600060a483015284169063f242432a9060c401600060405180830381600087803b158015610b8d57600080fd5b505af1158015610ba1573d6000803e3d6000fd5b5050505050505050565b606c54600090600160a01b900460021c60011615610c5857606b5460405163a468f1c760e01b81526001600160801b0390911660048201526000805160206138bf8339815191529063a468f1c790602401602060405180830381865afa158015610c19573d6000803e3d6000fd5b505050506040513d601f19601f82011682018060405250810190610c3d91906136ef565b6001600160a01b0316826001600160a01b0316149050919050565b606b54604051627eeac760e11b815263ffffffff600160a01b830416916000805160206138bf8339815191529162fdd58e91610ca29187916001600160801b03169060040161370c565b602060405180830381865afa158015610cbf573d6000803e3d6000fd5b505050506040513d601f19601f82011682018060405250810190610ce391906136d6565b10610cf057506001919050565b610cfa6067612595565b15610ea95760005b610d0c6067612595565b811015610ea75760006000805160206138bf83398151915263175fa7ea610d3460678561259f565b6040518263ffffffff1660e01b8152600401610d5291815260200190565b602060405180830381865afa158015610d6f573d6000803e3d6000fd5b505050506040513d601f19601f82011682018060405250810190610d9391906136ef565b606b54604051627eeac760e11b815291925063ffffffff600160a01b820416916000805160206138bf8339815191529162fdd58e91610de29186916001600160801b039091169060040161370c565b602060405180830381865afa158015610dff573d6000803e3d6000fd5b505050506040513d601f19601f82011682018060405250810190610e2391906136d6565b10610e9e5760405163166eb15b60e21b81526001600160a01b0385811660048301528291908216906359bac56c90602401602060405180830381865afa158015610e71573d6000803e3d6000fd5b505050506040513d601f19601f82011682018060405250810190610e95919061372e565b95945050505050565b50600101610d02565b505b506000919050565b6000610ebc826125ab565b15610ec957506000919050565b6107c661170b565b6000805160206138bf8339815191526001600160a01b0316638da5cb5b6040518163ffffffff1660e01b8152600401602060405180830381865afa158015610f1d573d6000803e3d6000fd5b505050506040513d601f19601f82011682018060405250810190610f4191906136ef565b6001600160a01b0316336001600160a01b031614610f725760405163ea8e4eb560e01b815260040160405180910390fd5b610f7e6019600461374b565b60ff16811180610f8f57506103e881115b15610fad57604051636dac6a0960e01b815260040160405180910390fd5b606b80546001600160e81b0316600160f81b84151590810261ffff60e81b191691909117600160e81b61ffff8516021790915560408051918252602082018390527fe2fdfbdee41a353c6bb67e41dccbcf559b5d0c120375397b10247dc13065ca45910160405180910390a15050565b606c54606b54600091829182916001600160a01b80830482811615159481841c8416151594600283901c8516151594600384901c1615159360609360ff16926001600160801b0381169263ffffffff9290910491909116906001600160a01b03168888888861108c60656126fa565b876001600160801b031697508663ffffffff16965098509850985098509850985098509850509091929394959697565b6110c4612707565b606b805463ffffffff909216600160801b0263ffffffff60801b19909216919091179055565b60008033738bf3585b3740a2da2190f911ea8bc84dd7972dd6146111215760405163ea8e4eb560e01b815260040160405180910390fd5b606b54600160c01b900464ffffffffff164210156111525760405163510040cb60e01b815260040160405180910390fd5b61115c84846117f7565b9150811561139857600061116f85610eb1565b9050801561118457611181838261222d565b91505b6001600160a01b038416600090815260696020526040812080548592906111ac908490613684565b90915550506001600160a01b038085166000818152606a60209081526040808320948a1683529390529190912080548501905561126657604051600090738bf3585b3740a2da2190f911ea8bc84dd7972dd69085908381818185875af1925050503d8060008114611239576040519150601f19603f3d011682016040523d82523d6000602084013e61123e565b606091505b50509050806112605760405163af6eefa360e01b815260040160405180910390fd5b50611340565b6001600160a01b038416731d3804fd06f09266153882bf391552befa2dbc051480159061129b5750611299606585612737565b155b156112b95760405163ea8e4eb560e01b815260040160405180910390fd5b60405163a9059cbb60e01b8152738bf3585b3740a2da2190f911ea8bc84dd7972dd66004820152602481018490526001600160a01b0385169063a9059cbb906044016020604051808303816000875af115801561131a573d6000803e3d6000fd5b505050506040513d601f19601f8201168201806040525081019061133e919061372e565b505b836001600160a01b0316856001600160a01b03167f29e9bc035f01bfa0da19263257dbbaeb34bf6c9c780d975b99cb802aecfcf1a2858560405161138e929190918252602082015260400190565b60405180910390a3505b9250929050565b6113a7612707565b6113b660008686848688612759565b6113d8731d3804fd06f09266153882bf391552befa2dbc058686848688612759565b60005b6113e56065612595565b811015610970576114046113fa60658361259f565b8787858789612759565b6001016113db565b606c54600090600160a01b900460031c6001161515806107c657506107c6606583612737565b600073115978100953d0aa6f2f8865d11dc5888f72836f1933016114b15760005b84518110156114af5761148985828151811061147157611471613774565b602002602001015160676128b590919063ffffffff16565b156114a7576040516368ee781960e11b815260040160405180910390fd5b600101611453565b505b846001600160a01b0316336001600160a01b03167f1edfbe4132ea17d8154ccc1c03cdbf3f2406087a6989a7d7ebe742504adeb54686866040516114f69291906137ba565b60405180910390a35063bc197c8160e01b95945050505050565b3373bd778c62531c11e88fd6bce7a1f0a5b955818498146115445760405163ea8e4eb560e01b815260040160405180910390fd5b606c546001600160a01b031615158061156357506001600160801b0386115b156115815760405163af6eefa360e01b815260040160405180910390fd5b606b805463ffffffff8516600160a01b0277ffffffff00000000ffffffffffffffffffffffffffffffff199091166001600160801b0389161717905581156115e457606b805464ffffffffff60c01b1916600160c01b64ffffffffff8516021790555b606c80546001600160a01b0319166001600160a01b03861617905560ff85161561162157606c805460ff60a01b1916600160a01b60ff8816021790555b8051156109705760005b815181101561166a5761166182828151811061164957611649613774565b602002602001015160656128cd90919063ffffffff16565b5060010161162b565b50505050505050565b3373ca6b9d59849ec880e82210e9cb8237e1d0caa69e146116a75760405163ea8e4eb560e01b815260040160405180910390fd5b604051632142170760e11b81523060048201526001600160a01b038481166024830152604482018390528316906342842e0e90606401600060405180830381600087803b1580156116f757600080fd5b505af115801561166a573d6000803e3d6000fd5b606b54600090600160f81b900460ff161561174657606b54600160e81b900461ffff16156117435750606b54600160e81b900461ffff165b90565b50601990565b611754612707565b606b54600160c01b900464ffffffffff164210156117855760405163510040cb60e01b815260040160405180910390fd5b60006117928484846128e2565b90508015610973576000806117a686610eb1565b905080156117bb576117b8838261222d565b91505b6001600160a01b038516600090815260696020526040812080548592906117e3908490613684565b90915550610970905086868585600061224d565b60008061180383612991565b9050801561190c57606b54604051627eeac760e11b815260009163ffffffff600160801b820416916000805160206138bf8339815191529162fdd58e9161185a918a916001600160801b039091169060040161370c565b602060405180830381865afa158015611877573d6000803e3d6000fd5b505050506040513d601f19601f8201168201806040525081019061189b91906136d6565b6118a590846137df565b6118af91906137fe565b6001600160a01b038086166000908152606a60209081526040808320938a168352929052205490915081111561190a576001600160a01b038085166000908152606a6020908152604080832093891683529290522054810392505b505b5092915050565b61191b612707565b606b54600160801b900463ffffffff1615611ad157600061193c6000612991565b9050600061195d731d3804fd06f09266153882bf391552befa2dbc05612991565b905060005b61196c6065612595565b811015611a9657600061198060658361259f565b9050600061198d82612991565b905060005b8851811015611a7a5783600003611a34576119e260008a83815181106119ba576119ba613774565b60200260200101518a84815181106119d4576119d4613774565b602002602001015189612a4e565b611a34731d3804fd06f09266153882bf391552befa2dbc058a8381518110611a0c57611a0c613774565b60200260200101518a8481518110611a2657611a26613774565b602002602001015188612a4e565b611a72838a8381518110611a4a57611a4a613774565b60200260200101518a8481518110611a6457611a64613774565b602002602001015185612a4e565b600101611992565b50611a8c828763ffffffff1683612b44565b5050600101611962565b50611aa960008463ffffffff1684612b44565b611ace731d3804fd06f09266153882bf391552befa2dbc058463ffffffff1683612b44565b50505b606b805463ffffffff909216600160801b0263ffffffff60801b199092169190911790555050565b606b54600160c01b900464ffffffffff16421015611b2a5760405163510040cb60e01b815260040160405180910390fd5b6000611b3461170b565b6001600160a01b038416600081815260696020526040812054929350829115611bd0576040516370a0823160e01b815230600482015282906001600160a01b038816906370a0823190602401602060405180830381865afa158015611b9d573d6000803e3d6000fd5b505050506040513d601f19601f82011682018060405250810190611bc191906136d6565b611bcb9190613684565b611bda565b611bda8247613684565b905060005b8751811015611ed157606b548851600091600160801b900463ffffffff16906000805160206138bf8339815191529062fdd58e908c9086908110611c2557611c25613774565b6020908102919091010151606b546040516001600160e01b031960e085901b168152611c5e92916001600160801b03169060040161370c565b602060405180830381865afa158015611c7b573d6000803e3d6000fd5b505050506040513d601f19601f82011682018060405250810190611c9f91906136d6565b611ca990856137df565b611cb391906137fe565b9050600080606a60008b6001600160a01b03166001600160a01b0316815260200190815260200160002060008c8681518110611cf157611cf1613774565b60200260200101516001600160a01b03166001600160a01b0316815260200190815260200160002054831115611d7e576001600160a01b038a166000908152606a602052604081208c519091908d9087908110611d5057611d50613774565b60200260200101516001600160a01b03166001600160a01b0316815260200190815260200160002054830391505b8115611df657611da68b8581518110611d9957611d99613774565b60200260200101516125ab565b158015611db257508715155b15611dc457611dc1828961222d565b90505b611dce8287613684565b9550611df68b8581518110611de557611de5613774565b60200260200101518b84848d61224d565b8815611ec35760006001600160a01b038b1615611e14576000611e16565b825b9050738bf3585b3740a2da2190f911ea8bc84dd7972dd66001600160a01b03166378ed7c7882606b60009054906101000a90046001600160801b03168f8981518110611e6457611e64613774565b60200260200101518f88886040518763ffffffff1660e01b8152600401611e8f95949392919061369c565b6000604051808303818588803b158015611ea857600080fd5b505af1158015611ebc573d6000803e3d6000fd5b5050505050505b836001019350505050611bdf565b506001600160a01b0386166000908152606960205260409020548314611f0a5760405163cdcbf42760e01b815260040160405180910390fd5b506001600160a01b0390941660009081526069602052604090209390935550505050565b8015611f4d57611f3c612707565b611f47606783612c24565b50611ff9565b604051630bafd3f560e11b8152600481018390526000805160206138bf8339815191529063175fa7ea90602401602060405180830381865afa158015611f97573d6000803e3d6000fd5b505050506040513d601f19601f82011682018060405250810190611fbb91906136ef565b6001600160a01b0316336001600160a01b031614611fec5760405163ea8e4eb560e01b815260040160405180910390fd5b611ff7606783612c30565b505b817f495f78c7b11cb5ca67202c06f9e12693d4882ef82c8248b59a740154ba8859f88260405161202d911515815260200190565b60405180910390a25050565b600073115978100953d0aa6f2f8865d11dc5888f72836f193301612080576120626067856128b5565b15612080576040516368ee781960e11b815260040160405180910390fd5b60408051858152602081018590526001600160a01b0387169133917ffae60880665b87af033fc873390c3749e126b4cd010b87a7f1191dbd2b32f197910160405180910390a35063f23a6e6160e01b95945050505050565b606c54600160a01b9004600190811c161561219d57606b5460405163a468f1c760e01b81526001600160801b0390911660048201526000805160206138bf8339815191529063a468f1c790602401602060405180830381865afa158015612143573d6000803e3d6000fd5b505050506040513d601f19601f8201168201806040525081019061216791906136ef565b6001600160a01b0316336001600160a01b0316146121985760405163ea8e4eb560e01b815260040160405180910390fd5b6121c8565b606c546001600160a01b031633146121c85760405163ea8e4eb560e01b815260040160405180910390fd5b60005b81518110156121f2576121e982828151811061164957611649613774565b506001016121cb565b507fa2f33c128ca00170a527ea94ce234c292389e4606240101eb1e7966442646f6a816040516122229190613820565b60405180910390a150565b60006103e861223c83856137df565b61224691906137fe565b9392505050565b6001600160a01b038085166000818152606a60209081526040808320948a1683529390529190912080548501905561230057806122fb576040516339ed512360e01b81526001600160a01b038616600482015260248101839052738bf3585b3740a2da2190f911ea8bc84dd7972dd6906339ed51239085906044016000604051808303818588803b1580156122e157600080fd5b505af11580156122f5573d6000803e3d6000fd5b50505050505b612538565b6001600160a01b038416731d3804fd06f09266153882bf391552befa2dbc05148015906123355750612333606585612737565b155b1561243057606c54600160a01b900460031c6001161561241757336001600160a01b038616146123785760405163ea8e4eb560e01b815260040160405180910390fd5b6123836065856128cd565b506040805160018082528183019092526000916020808301908036833701905050905084816000815181106123ba576123ba613774565b60200260200101906001600160a01b031690816001600160a01b0316815250507fa2f33c128ca00170a527ea94ce234c292389e4606240101eb1e7966442646f6a816040516124099190613820565b60405180910390a150612430565b60405163ea8e4eb560e01b815260040160405180910390fd5b60405163a9059cbb60e01b8152738bf3585b3740a2da2190f911ea8bc84dd7972dd66004820152602481018490526001600160a01b0385169063a9059cbb906044016020604051808303816000875af1158015612491573d6000803e3d6000fd5b505050506040513d601f19601f820116820180604052508101906124b5919061372e565b508061253857606b54604051632cfe238560e11b8152738bf3585b3740a2da2190f911ea8bc84dd7972dd6916359fc470a91612505916001600160801b031690899089908990899060040161369c565b600060405180830381600087803b15801561251f57600080fd5b505af1158015612533573d6000803e3d6000fd5b505050505b836001600160a01b0316856001600160a01b03167f29e9bc035f01bfa0da19263257dbbaeb34bf6c9c780d975b99cb802aecfcf1a28585604051612586929190918252602082015260400190565b60405180910390a35050505050565b60006107c6825490565b60006122468383612c3c565b60006001600160a01b0382163b156126f55760408051600481526024810182526020810180516001600160e01b0316635d8dc38960e01b179052905160009182916001600160a01b0386169161260091613833565b600060405180830381855afa9150503d806000811461263b576040519150601f19603f3d011682016040523d82523d6000602084013e612640565b606091505b509150915081156126f25760008180602001905181019061266191906136d6565b604051630bafd3f560e11b8152600481018290529091506001600160a01b038616906000805160206138bf8339815191529063175fa7ea90602401602060405180830381865afa1580156126b9573d6000803e3d6000fd5b505050506040513d601f19601f820116820180604052508101906126dd91906136ef565b6001600160a01b0316036126f057600193505b505b50505b919050565b6060600061224683612c66565b336000805160206138bf833981519152146127355760405163ea8e4eb560e01b815260040160405180910390fd5b565b6001600160a01b03811660009081526001830160205260408120541515612246565b801561280757606b54600160c01b900464ffffffffff164210156127905760405163510040cb60e01b815260040160405180910390fd5b600061279d8688856128e2565b90508015612805576000806127b188610eb1565b905080156127c6576127c3838261222d565b91505b6001600160a01b038916600090815260696020526040812080548592906127ee908490613684565b909155506128029050888a8585600061224d565b50505b505b6001600160a01b038087166000908152606a602090815260408083209389168352929052205415610970576001600160a01b038087166000908152606a6020908152604080832093891683529290529081205483906128679086906137df565b61287191906137fe565b6001600160a01b039788166000908152606a60209081526040808320988b168352979052868120805483019055969097168652505050912080549290920390915550565b60008181526001830160205260408120541515612246565b6000612246836001600160a01b038416612cc2565b600081156122465760006128f584612991565b9050801561298957606b54600090600160801b900463ffffffff1661291a85846137df565b61292491906137fe565b6001600160a01b038087166000908152606a60209081526040808320938b1683529290522054909150811115612987576001600160a01b038086166000908152606a60209081526040808320938a1683529290522054612984908261386e565b92505b505b509392505050565b60006001600160a01b03821615612a2b576001600160a01b038216600081815260696020526040908190205490516370a0823160e01b81523060048201529091906370a0823190602401602060405180830381865afa1580156129f8573d6000803e3d6000fd5b505050506040513d601f19601f82011682018060405250810190612a1c91906136d6565b612a269190613684565b6107c6565b6001600160a01b0382166000908152606960205260409020546107c69047613684565b80156109735760008260030b13612ad557606b54600160801b900463ffffffff1681612a7984613885565b63ffffffff16612a8991906137df565b612a9391906137fe565b6001600160a01b038086166000908152606a6020908152604080832093881683529290529081208054909190612aca90849061386e565b925050819055612b3d565b606b5463ffffffff600160801b909104811690612af590839085166137df565b612aff91906137fe565b6001600160a01b038086166000908152606a6020908152604080832093881683529290529081208054909190612b36908490613684565b9250508190555b5050505050565b8015612c1f57606b54600160801b900463ffffffff168211612bc257606b54600160801b900463ffffffff1681612b7b848361386e565b612b8591906137df565b612b8f91906137fe565b6001600160a01b03841660009081526069602052604081208054909190612bb790849061386e565b925050819055610973565b606b54600160801b900463ffffffff1681612bdd828561386e565b612be791906137df565b612bf191906137fe565b6001600160a01b03841660009081526069602052604081208054909190612c19908490613684565b90915550505b505050565b60006122468383612cc2565b60006122468383612d11565b6000826000018281548110612c5357612c53613774565b9060005260206000200154905092915050565b606081600001805480602002602001604051908101604052809291908181526020018280548015612cb657602002820191906000526020600020905b815481526020019060010190808311612ca2575b50505050509050919050565b6000818152600183016020526040812054612d09575081546001818101845560008481526020808220909301849055845484825282860190935260409020919091556107c6565b5060006107c6565b60008181526001830160205260408120548015612dfa576000612d3560018361386e565b8554909150600090612d499060019061386e565b9050818114612dae576000866000018281548110612d6957612d69613774565b9060005260206000200154905080876000018481548110612d8c57612d8c613774565b6000918252602080832090910192909255918252600188019052604090208390555b8554869080612dbf57612dbf6138a8565b6001900381819060005260206000200160009055905585600101600086815260200190815260200160002060009055600193505050506107c6565b60009150506107c6565b600060208284031215612e1657600080fd5b81356001600160e01b03198116811461224657600080fd5b6001600160a01b0381168114612e4357600080fd5b50565b634e487b7160e01b600052604160045260246000fd5b604051601f8201601f1916810167ffffffffffffffff81118282101715612e8557612e85612e46565b604052919050565b600082601f830112612e9e57600080fd5b813567ffffffffffffffff811115612eb857612eb8612e46565b612ecb601f8201601f1916602001612e5c565b818152846020838601011115612ee057600080fd5b816020850160208301376000918101602001919091529392505050565b60008060008060808587031215612f1357600080fd5b8435612f1e81612e2e565b93506020850135612f2e81612e2e565b925060408501359150606085013567ffffffffffffffff811115612f5157600080fd5b612f5d87828801612e8d565b91505092959194509250565b8015158114612e4357600080fd5b600080600060608486031215612f8c57600080fd5b8335612f9781612e2e565b92506020840135612fa781612e2e565b91506040840135612fb781612f69565b809150509250925092565b60008060008060808587031215612fd857600080fd5b8435612fe381612e2e565b93506020850135612ff381612e2e565b93969395505050506040820135916060013590565b60006020828403121561301a57600080fd5b813561224681612e2e565b6000806040838503121561303857600080fd5b823561304381612f69565b946020939093013593505050565b600081518084526020808501945080840160005b8381101561308a5781516001600160a01b031687529582019590820190600101613065565b509495945050505050565b888152602081018890526001600160a01b03871660408201528515156060820152841515608082015283151560a082015282151560c082015261010060e082018190526000906130e783820185613051565b9b9a5050505050505050505050565b60006020828403121561310857600080fd5b5035919050565b6000806040838503121561312257600080fd5b823561312d81612e2e565b9150602083013561313d81612e2e565b809150509250929050565b600080600080600060a0868803121561316057600080fd5b853561316b81612e2e565b9450602086013561317b81612e2e565b9350604086013561318b81612f69565b94979396509394606081013594506080013592915050565b600067ffffffffffffffff8211156131bd576131bd612e46565b5060051b60200190565b600082601f8301126131d857600080fd5b813560206131ed6131e8836131a3565b612e5c565b82815260059290921b8401810191818101908684111561320c57600080fd5b8286015b848110156132275780358352918301918301613210565b509695505050505050565b600080600080600060a0868803121561324a57600080fd5b853561325581612e2e565b9450602086013561326581612e2e565b9350604086013567ffffffffffffffff8082111561328257600080fd5b61328e89838a016131c7565b945060608801359150808211156132a457600080fd5b6132b089838a016131c7565b935060808801359150808211156132c657600080fd5b506132d388828901612e8d565b9150509295509295909350565b600082601f8301126132f157600080fd5b813560206133016131e8836131a3565b82815260059290921b8401810191818101908684111561332057600080fd5b8286015b8481101561322757803561333781612e2e565b8352918301918301613324565b60008060008060008060c0878903121561335d57600080fd5b86359550602087013560ff8116811461337557600080fd5b9450604087013561338581612e2e565b9350606087013592506080870135915060a087013567ffffffffffffffff8111156133af57600080fd5b6133bb89828a016132e0565b9150509295509295509295565b6000806000606084860312156133dd57600080fd5b83356133e881612e2e565b925060208401356133f881612e2e565b929592945050506040919091013590565b600082601f83011261341a57600080fd5b8135602061342a6131e8836131a3565b82815260059290921b8401810191818101908684111561344957600080fd5b8286015b848110156132275780358060030b81146134675760008081fd5b835291830191830161344d565b803563ffffffff811681146126f557600080fd5b60008060006060848603121561349d57600080fd5b833567ffffffffffffffff808211156134b557600080fd5b818601915086601f8301126134c957600080fd5b813560206134d96131e8836131a3565b82815260059290921b8401810191818101908a8411156134f857600080fd5b948201945b8386101561351f57853561351081612e2e565b825294820194908201906134fd565b9750508701359250508082111561353557600080fd5b5061354286828701613409565b92505061355160408501613474565b90509250925092565b60008060006060848603121561356f57600080fd5b833567ffffffffffffffff81111561358657600080fd5b613592868287016132e0565b9350506020840135612fa781612e2e565b600080604083850312156135b657600080fd5b82359150602083013561313d81612f69565b600080600080600060a086880312156135e057600080fd5b85356135eb81612e2e565b945060208601356135fb81612e2e565b93506040860135925060608601359150608086013567ffffffffffffffff81111561362557600080fd5b6132d388828901612e8d565b60006020828403121561364357600080fd5b813567ffffffffffffffff81111561365a57600080fd5b613666848285016132e0565b949350505050565b634e487b7160e01b600052601160045260246000fd5b600082198211156136975761369761366e565b500190565b6001600160801b039590951685526001600160a01b0393841660208601529190921660408401526060830191909152608082015260a00190565b6000602082840312156136e857600080fd5b5051919050565b60006020828403121561370157600080fd5b815161224681612e2e565b6001600160a01b039290921682526001600160801b0316602082015260400190565b60006020828403121561374057600080fd5b815161224681612f69565b600060ff821660ff84168160ff048111821515161561376c5761376c61366e565b029392505050565b634e487b7160e01b600052603260045260246000fd5b600081518084526020808501945080840160005b8381101561308a5781518752958201959082019060010161379e565b6040815260006137cd604083018561378a565b8281036020840152610e95818561378a565b60008160001904831182151516156137f9576137f961366e565b500290565b60008261381b57634e487b7160e01b600052601260045260246000fd5b500490565b6020815260006122466020830184613051565b6000825160005b81811015613854576020818601810151858301520161383a565b81811115613863576000828501525b509190910192915050565b6000828210156138805761388061366e565b500390565b60008160030b637fffffff19810361389f5761389f61366e565b60000392915050565b634e487b7160e01b600052603160045260246000fdfe000000000000000000000000115978100953d0aa6f2f8865d11dc5888f728370a2646970667358221220f5a3bc9d920c386d1647f53336c5ff8b318466832e5c172c99ff84e54da9092064736f6c634300080d0033",
  "linkReferences": {},
  "deployedLinkReferences": {}
}