{
  "_format": "hh-sol-artifact-1",
  "contractName": "Slicer",
  "sourceName": "contracts/slicer_v0.sol",
  "abi": [
    {
      "anonymous": false,
      "inputs": [
        {
          "indexed": true,
          "internalType": "uint256",
          "name": "slicerId",
          "type": "uint256"
        }
      ],
      "name": "AddedChildrenSlicer",
      "type": "event"
    },
    {
      "anonymous": false,
      "inputs": [
        {
          "indexed": false,
          "internalType": "address",
          "name": "account",
          "type": "address"
        }
      ],
      "name": "Paused",
      "type": "event"
    },
    {
      "anonymous": false,
      "inputs": [
        {
          "indexed": true,
          "internalType": "address",
          "name": "from",
          "type": "address"
        },
        {
          "indexed": false,
          "internalType": "uint256",
          "name": "amount",
          "type": "uint256"
        }
      ],
      "name": "PaymentReceived",
      "type": "event"
    },
    {
      "anonymous": false,
      "inputs": [
        {
          "indexed": true,
          "internalType": "uint32",
          "name": "productId",
          "type": "uint32"
        },
        {
          "indexed": true,
          "internalType": "uint32",
          "name": "categoryIndex",
          "type": "uint32"
        },
        {
          "indexed": false,
          "internalType": "uint256",
          "name": "price",
          "type": "uint256"
        },
        {
          "indexed": false,
          "internalType": "bool",
          "name": "isUSD",
          "type": "bool"
        },
        {
          "indexed": false,
          "internalType": "bool",
          "name": "isMultiple",
          "type": "bool"
        },
        {
          "indexed": false,
          "internalType": "bool",
          "name": "isInfinite",
          "type": "bool"
        },
        {
          "indexed": false,
          "internalType": "uint32",
          "name": "availableUnits",
          "type": "uint32"
        },
        {
          "indexed": true,
          "internalType": "address",
          "name": "creator",
          "type": "address"
        },
        {
          "indexed": false,
          "internalType": "bytes",
          "name": "data",
          "type": "bytes"
        },
        {
          "indexed": false,
          "internalType": "uint256[]",
          "name": "subSlicersId",
          "type": "uint256[]"
        },
        {
          "indexed": false,
          "internalType": "uint32[]",
          "name": "subProducts",
          "type": "uint32[]"
        }
      ],
      "name": "ProductAdded",
      "type": "event"
    },
    {
      "anonymous": false,
      "inputs": [
        {
          "indexed": true,
          "internalType": "uint32",
          "name": "productId",
          "type": "uint32"
        },
        {
          "indexed": false,
          "internalType": "uint32",
          "name": "categoryIndex",
          "type": "uint32"
        }
      ],
      "name": "ProductCategoryChanged",
      "type": "event"
    },
    {
      "anonymous": false,
      "inputs": [
        {
          "indexed": true,
          "internalType": "uint32",
          "name": "productId",
          "type": "uint32"
        },
        {
          "indexed": false,
          "internalType": "uint256",
          "name": "productPrice",
          "type": "uint256"
        },
        {
          "indexed": false,
          "internalType": "bool",
          "name": "isUSD",
          "type": "bool"
        }
      ],
      "name": "ProductCurrencyChanged",
      "type": "event"
    },
    {
      "anonymous": false,
      "inputs": [
        {
          "indexed": true,
          "internalType": "uint32",
          "name": "productId",
          "type": "uint32"
        },
        {
          "indexed": false,
          "internalType": "bool",
          "name": "isInfinite",
          "type": "bool"
        },
        {
          "indexed": false,
          "internalType": "uint32",
          "name": "units",
          "type": "uint32"
        },
        {
          "indexed": false,
          "internalType": "uint256",
          "name": "productPrice",
          "type": "uint256"
        }
      ],
      "name": "ProductInfoChanged",
      "type": "event"
    },
    {
      "anonymous": false,
      "inputs": [
        {
          "indexed": true,
          "internalType": "address",
          "name": "from",
          "type": "address"
        },
        {
          "indexed": true,
          "internalType": "uint32",
          "name": "productId",
          "type": "uint32"
        },
        {
          "indexed": false,
          "internalType": "uint16",
          "name": "quantity",
          "type": "uint16"
        },
        {
          "indexed": false,
          "internalType": "uint256",
          "name": "productPrice",
          "type": "uint256"
        }
      ],
      "name": "ProductPaid",
      "type": "event"
    },
    {
      "anonymous": false,
      "inputs": [
        {
          "indexed": true,
          "internalType": "uint32",
          "name": "productId",
          "type": "uint32"
        }
      ],
      "name": "ProductRemoved",
      "type": "event"
    },
    {
      "anonymous": false,
      "inputs": [
        {
          "indexed": false,
          "internalType": "uint32[]",
          "name": "serviceIds",
          "type": "uint32[]"
        },
        {
          "indexed": false,
          "internalType": "uint16[]",
          "name": "quantities",
          "type": "uint16[]"
        },
        {
          "indexed": false,
          "internalType": "uint256",
          "name": "amount",
          "type": "uint256"
        }
      ],
      "name": "SLCPaid",
      "type": "event"
    },
    {
      "anonymous": false,
      "inputs": [
        {
          "indexed": true,
          "internalType": "address",
          "name": "payee",
          "type": "address"
        },
        {
          "indexed": false,
          "internalType": "uint256",
          "name": "released",
          "type": "uint256"
        }
      ],
      "name": "TriggeredRelease",
      "type": "event"
    },
    {
      "anonymous": false,
      "inputs": [
        {
          "indexed": false,
          "internalType": "address",
          "name": "account",
          "type": "address"
        }
      ],
      "name": "Unpaused",
      "type": "event"
    },
    {
      "inputs": [
        {
          "internalType": "uint256",
          "name": "id",
          "type": "uint256"
        }
      ],
      "name": "_addChildrenSlicer",
      "outputs": [],
      "stateMutability": "nonpayable",
      "type": "function"
    },
    {
      "inputs": [
        {
          "internalType": "address[]",
          "name": "accounts",
          "type": "address[]"
        },
        {
          "internalType": "uint256[]",
          "name": "shares_",
          "type": "uint256[]"
        }
      ],
      "name": "_addPayees",
      "outputs": [],
      "stateMutability": "nonpayable",
      "type": "function"
    },
    {
      "inputs": [
        {
          "internalType": "uint256",
          "name": "tokenId_",
          "type": "uint256"
        },
        {
          "internalType": "address",
          "name": "slicerCreator_",
          "type": "address"
        },
        {
          "internalType": "uint256",
          "name": "minimumShares_",
          "type": "uint256"
        },
        {
          "internalType": "bool",
          "name": "isCollectible_",
          "type": "bool"
        }
      ],
      "name": "_initialize",
      "outputs": [],
      "stateMutability": "nonpayable",
      "type": "function"
    },
    {
      "inputs": [
        {
          "internalType": "address",
          "name": "account",
          "type": "address"
        },
        {
          "internalType": "uint32",
          "name": "productId",
          "type": "uint32"
        },
        {
          "internalType": "uint16",
          "name": "quantity",
          "type": "uint16"
        }
      ],
      "name": "_payProductFromSlice",
      "outputs": [],
      "stateMutability": "payable",
      "type": "function"
    },
    {
      "inputs": [
        {
          "internalType": "uint256",
          "name": "tokenId",
          "type": "uint256"
        },
        {
          "internalType": "address",
          "name": "account",
          "type": "address"
        },
        {
          "internalType": "uint32",
          "name": "productId",
          "type": "uint32"
        },
        {
          "internalType": "uint16",
          "name": "quantity",
          "type": "uint16"
        }
      ],
      "name": "_payProductFromSlicer",
      "outputs": [],
      "stateMutability": "payable",
      "type": "function"
    },
    {
      "inputs": [
        {
          "internalType": "address",
          "name": "accountFrom",
          "type": "address"
        },
        {
          "internalType": "address",
          "name": "accountTo",
          "type": "address"
        },
        {
          "internalType": "uint256",
          "name": "transferredShares",
          "type": "uint256"
        }
      ],
      "name": "_updatePayees",
      "outputs": [],
      "stateMutability": "nonpayable",
      "type": "function"
    },
    {
      "inputs": [
        {
          "internalType": "uint32",
          "name": "categoryIndex",
          "type": "uint32"
        },
        {
          "internalType": "uint256",
          "name": "price",
          "type": "uint256"
        },
        {
          "internalType": "bool",
          "name": "isUSD",
          "type": "bool"
        },
        {
          "internalType": "bool",
          "name": "isMultiple",
          "type": "bool"
        },
        {
          "internalType": "bool",
          "name": "isInfinite",
          "type": "bool"
        },
        {
          "internalType": "uint32",
          "name": "units",
          "type": "uint32"
        },
        {
          "internalType": "bytes",
          "name": "data",
          "type": "bytes"
        },
        {
          "internalType": "bytes",
          "name": "purchaseData",
          "type": "bytes"
        },
        {
          "internalType": "uint256[]",
          "name": "subSlicersId_",
          "type": "uint256[]"
        },
        {
          "internalType": "uint32[]",
          "name": "subProducts_",
          "type": "uint32[]"
        }
      ],
      "name": "addProduct",
      "outputs": [],
      "stateMutability": "nonpayable",
      "type": "function"
    },
    {
      "inputs": [
        {
          "internalType": "address",
          "name": "payee",
          "type": "address"
        }
      ],
      "name": "isPayeeAllowed",
      "outputs": [
        {
          "internalType": "bool",
          "name": "",
          "type": "bool"
        }
      ],
      "stateMutability": "view",
      "type": "function"
    },
    {
      "inputs": [
        {
          "internalType": "uint32",
          "name": "productId",
          "type": "uint32"
        }
      ],
      "name": "isProduct",
      "outputs": [],
      "stateMutability": "view",
      "type": "function"
    },
    {
      "inputs": [
        {
          "internalType": "address",
          "name": "",
          "type": "address"
        },
        {
          "internalType": "address",
          "name": "",
          "type": "address"
        },
        {
          "internalType": "uint256[]",
          "name": "ids",
          "type": "uint256[]"
        },
        {
          "internalType": "uint256[]",
          "name": "",
          "type": "uint256[]"
        },
        {
          "internalType": "bytes",
          "name": "",
          "type": "bytes"
        }
      ],
      "name": "onERC1155BatchReceived",
      "outputs": [
        {
          "internalType": "bytes4",
          "name": "",
          "type": "bytes4"
        }
      ],
      "stateMutability": "nonpayable",
      "type": "function"
    },
    {
      "inputs": [
        {
          "internalType": "address",
          "name": "",
          "type": "address"
        },
        {
          "internalType": "address",
          "name": "",
          "type": "address"
        },
        {
          "internalType": "uint256",
          "name": "id",
          "type": "uint256"
        },
        {
          "internalType": "uint256",
          "name": "",
          "type": "uint256"
        },
        {
          "internalType": "bytes",
          "name": "",
          "type": "bytes"
        }
      ],
      "name": "onERC1155Received",
      "outputs": [
        {
          "internalType": "bytes4",
          "name": "",
          "type": "bytes4"
        }
      ],
      "stateMutability": "nonpayable",
      "type": "function"
    },
    {
      "inputs": [
        {
          "internalType": "address",
          "name": "",
          "type": "address"
        },
        {
          "internalType": "address",
          "name": "from",
          "type": "address"
        },
        {
          "internalType": "uint256",
          "name": "",
          "type": "uint256"
        },
        {
          "internalType": "bytes",
          "name": "",
          "type": "bytes"
        }
      ],
      "name": "onERC721Received",
      "outputs": [
        {
          "internalType": "bytes4",
          "name": "",
          "type": "bytes4"
        }
      ],
      "stateMutability": "nonpayable",
      "type": "function"
    },
    {
      "inputs": [],
      "name": "paused",
      "outputs": [
        {
          "internalType": "bool",
          "name": "",
          "type": "bool"
        }
      ],
      "stateMutability": "view",
      "type": "function"
    },
    {
      "inputs": [
        {
          "internalType": "uint32[]",
          "name": "serviceIds",
          "type": "uint32[]"
        },
        {
          "internalType": "uint16[]",
          "name": "quantities",
          "type": "uint16[]"
        }
      ],
      "name": "paySLC",
      "outputs": [],
      "stateMutability": "nonpayable",
      "type": "function"
    },
    {
      "inputs": [
        {
          "internalType": "uint32",
          "name": "productId",
          "type": "uint32"
        }
      ],
      "name": "productPrice",
      "outputs": [
        {
          "internalType": "uint256",
          "name": "price",
          "type": "uint256"
        }
      ],
      "stateMutability": "view",
      "type": "function"
    },
    {
      "inputs": [
        {
          "internalType": "address payable",
          "name": "account",
          "type": "address"
        }
      ],
      "name": "release",
      "outputs": [
        {
          "internalType": "uint256",
          "name": "",
          "type": "uint256"
        }
      ],
      "stateMutability": "nonpayable",
      "type": "function"
    },
    {
      "inputs": [
        {
          "internalType": "address",
          "name": "account",
          "type": "address"
        }
      ],
      "name": "released",
      "outputs": [
        {
          "internalType": "uint256",
          "name": "",
          "type": "uint256"
        }
      ],
      "stateMutability": "view",
      "type": "function"
    },
    {
      "inputs": [
        {
          "internalType": "uint32",
          "name": "productId",
          "type": "uint32"
        }
      ],
      "name": "removeProduct",
      "outputs": [],
      "stateMutability": "nonpayable",
      "type": "function"
    },
    {
      "inputs": [
        {
          "internalType": "uint32",
          "name": "productId",
          "type": "uint32"
        },
        {
          "internalType": "uint32",
          "name": "categoryIndex",
          "type": "uint32"
        }
      ],
      "name": "setProductCategory",
      "outputs": [],
      "stateMutability": "nonpayable",
      "type": "function"
    },
    {
      "inputs": [
        {
          "internalType": "uint32",
          "name": "productId",
          "type": "uint32"
        },
        {
          "internalType": "bool",
          "name": "isInfinite",
          "type": "bool"
        },
        {
          "internalType": "uint32",
          "name": "newUnits",
          "type": "uint32"
        },
        {
          "internalType": "uint256",
          "name": "newPrice",
          "type": "uint256"
        }
      ],
      "name": "setProductInfo",
      "outputs": [],
      "stateMutability": "nonpayable",
      "type": "function"
    },
    {
      "inputs": [],
      "name": "slicerInfo",
      "outputs": [
        {
          "internalType": "uint256",
          "name": "",
          "type": "uint256"
        },
        {
          "internalType": "uint8",
          "name": "version",
          "type": "uint8"
        },
        {
          "internalType": "address",
          "name": "creator",
          "type": "address"
        },
        {
          "internalType": "uint256",
          "name": "",
          "type": "uint256"
        }
      ],
      "stateMutability": "view",
      "type": "function"
    },
    {
      "inputs": [
        {
          "internalType": "bytes4",
          "name": "interfaceId",
          "type": "bytes4"
        }
      ],
      "name": "supportsInterface",
      "outputs": [
        {
          "internalType": "bool",
          "name": "",
          "type": "bool"
        }
      ],
      "stateMutability": "view",
      "type": "function"
    },
    {
      "inputs": [
        {
          "internalType": "uint32",
          "name": "productId",
          "type": "uint32"
        },
        {
          "internalType": "bool",
          "name": "isUSD",
          "type": "bool"
        }
      ],
      "name": "toggleUSDPrice",
      "outputs": [],
      "stateMutability": "nonpayable",
      "type": "function"
    },
    {
      "inputs": [],
      "name": "totalReceived",
      "outputs": [
        {
          "internalType": "uint256",
          "name": "",
          "type": "uint256"
        }
      ],
      "stateMutability": "view",
      "type": "function"
    },
    {
      "inputs": [
        {
          "internalType": "address",
          "name": "account",
          "type": "address"
        }
      ],
      "name": "unreleased",
      "outputs": [
        {
          "internalType": "uint256",
          "name": "",
          "type": "uint256"
        }
      ],
      "stateMutability": "view",
      "type": "function"
    },
    {
      "inputs": [
        {
          "internalType": "uint32",
          "name": "productId",
          "type": "uint32"
        }
      ],
      "name": "validatePurchase",
      "outputs": [
        {
          "internalType": "uint256",
          "name": "purchases",
          "type": "uint256"
        },
        {
          "internalType": "bytes",
          "name": "purchaseData",
          "type": "bytes"
        }
      ],
      "stateMutability": "view",
      "type": "function"
    },
    {
      "stateMutability": "payable",
      "type": "receive"
    }
  ],
  "bytecode": "0x608060405234801561001057600080fd5b506001805460ff191681556002556139588061002d6000396000f3fe6080604052600436106101855760003560e01c8063957e07b6116100d1578063bc197c811161008a578063dd102d5e11610064578063dd102d5e14610548578063f23a6e6114610568578063f664929d14610588578063fd5e12e3146105a857600080fd5b8063bc197c81146104f5578063bf271aa614610515578063bfe5d8351461052857600080fd5b8063957e07b6146104045780639852595c14610447578063a3c2c46214610480578063b1b4735714610495578063b78ee767146104b5578063bbf2b488146104d557600080fd5b80633739e11b1161013e57806359bac56c1161011857806359bac56c146103995780635c975abb146103b95780636a54ead8146103d1578063800ddcaa146103e457600080fd5b80633739e11b1461033957806344eecfd014610359578063525e2ad51461037957600080fd5b806301ffc9a71461022d5780630c170ffd14610262578063150b7a021461028457806319165587146102bd5780632a67293d146102eb578063344603231461030b57600080fd5b366102285760015460ff16156101b65760405162461bcd60e51b81526004016101ad906135d8565b60405180910390fd5b60006103e86101c66019346137a1565b6101d0919061377f565b90506101f073ae009d532328ff09e09e5d506ab5bbec3c25c0ff826105c8565b60405134815233907f6ef95f06320e7a25a04a175ca677b7052bdd97131872c2192525a629f51be7709060200160405180910390a250005b600080fd5b34801561023957600080fd5b5061024d610248366004613198565b6106e6565b60405190151581526020015b60405180910390f35b34801561026e57600080fd5b5061028261027d36600461328d565b61071d565b005b34801561029057600080fd5b506102a461029f366004612ecf565b61089c565b6040516001600160e01b03199091168152602001610259565b3480156102c957600080fd5b506102dd6102d8366004612da6565b6108d7565b604051908152602001610259565b3480156102f757600080fd5b506102dd610306366004612da6565b610a4e565b34801561031757600080fd5b5061032b61032636600461328d565b610add565b6040516102599291906136c9565b34801561034557600080fd5b5061028261035436600461328d565b610c0f565b34801561036557600080fd5b506102826103743660046131db565b610c4a565b34801561038557600080fd5b5061028261039436600461332c565b610cda565b3480156103a557600080fd5b5061024d6103b4366004612da6565b6111c2565b3480156103c557600080fd5b5060015460ff1661024d565b6102826103df36600461323e565b61138b565b3480156103f057600080fd5b506102826103ff366004613438565b61143c565b34801561041057600080fd5b5060045460035460055460408051938452600160208501526001600160a01b03909216918301919091526060820152608001610259565b34801561045357600080fd5b506102dd610462366004612da6565b6001600160a01b031660009081526009602052604090206001015490565b34801561048c57600080fd5b506102dd611613565b3480156104a157600080fd5b506102826104b03660046130b2565b611628565b3480156104c157600080fd5b506102826104d03660046132df565b611839565b3480156104e157600080fd5b506102826104f0366004612e8e565b611a9a565b34801561050157600080fd5b506102a4610510366004612de0565b611be8565b610282610523366004612fa4565b611ce1565b34801561053457600080fd5b506102dd61054336600461328d565b611d0c565b34801561055457600080fd5b506102826105633660046132a8565b611fca565b34801561057457600080fd5b506102a4610583366004612f3b565b6122c8565b34801561059457600080fd5b506102826105a33660046131f4565b61237f565b3480156105b457600080fd5b506102826105c3366004612fe9565b6123eb565b804710156106185760405162461bcd60e51b815260206004820152601d60248201527f416464726573733a20696e73756666696369656e742062616c616e636500000060448201526064016101ad565b6000826001600160a01b03168260405160006040518083038185875af1925050503d8060008114610665576040519150601f19603f3d011682016040523d82523d6000602084013e61066a565b606091505b50509050806106e15760405162461bcd60e51b815260206004820152603a60248201527f416464726573733a20756e61626c6520746f2073656e642076616c75652c207260448201527f6563697069656e74206d6179206861766520726576657274656400000000000060648201526084016101ad565b505050565b60006001600160e01b03198216630271189760e51b148061071757506301ffc9a760e01b6001600160e01b03198316145b92915050565b63ffffffff811660009081526020819052604090206001015481906107545760405162461bcd60e51b81526004016101ad90613558565b63ffffffff8216600090815260208190526040902060020154829061078890600160381b90046001600160a01b03166111c2565b156107d95763ffffffff8116600090815260208190526040902060020154600160381b90046001600160a01b031633146107d45760405162461bcd60e51b81526004016101ad90613602565b610803565b6107e2336111c2565b15156001146108035760405162461bcd60e51b81526004016101ad906135ad565b63ffffffff8316600081815260208181526040808320805463ffffffff19168155600181018490556002810180546301000000600160d81b03191690558151808401928390528481529484529290915291516108659260039092019190612b8e565b5060405163ffffffff8416907f761b291efc1cf42f36eac86ac2f397b06b9606dfb16059c83eb3ab8cc7e53e3090600090a2505050565b600354600090600160a01b900460ff161580156108bd57506108bd846111c2565b6108c657600080fd5b50630a85bd0160e11b949350505050565b600060028054141561092b5760405162461bcd60e51b815260206004820152601f60248201527f5265656e7472616e637947756172643a207265656e7472616e742063616c6c0060448201526064016101ad565b60028055600061093a83610a4e565b90508061097e5760405162461bcd60e51b81526020600482015260126024820152715061796d656e74206973206e6f742064756560701b60448201526064016101ad565b6001600160a01b038316600090815260096020526040812080548392906109a690849061373f565b90915550506001600160a01b0383166000908152600960205260409020819060010160008282546109d7919061373f565b9250508190555080600760008282546109f0919061373f565b90915550610a00905083826105c8565b826001600160a01b03167fd01a8cc9ab129109f449ed0a777705c57b0aa086d3e08fe4a8de773b397143e782604051610a3b91815260200190565b60405180910390a2600160025592915050565b6006546001600160a01b03821660009081526008602052604081205490918291610a76611613565b610a8091906137a1565b610a8a919061377f565b6001600160a01b0384166000908152600960205260409020549091508111610ab3576000610ad6565b6001600160a01b038316600090815260096020526040902054610ad690826137c0565b9392505050565b63ffffffff808216600090815260208181526040808320338452600501909152812054909160609116610b465760405162461bcd60e51b8152602060048201526011602482015270139bdd081c1d5c98da185cd959081e595d607a1b60448201526064016101ad565b63ffffffff8084166000818152602081815260408083203384526005810183529083205493835291905260040180549190921691908190610b8690613828565b80601f0160208091040260200160405190810160405280929190818152602001828054610bb290613828565b8015610bff5780601f10610bd457610100808354040283529160200191610bff565b820191906000526020600020905b815481529060010190602001808311610be257829003601f168201915b5050505050905091509150915091565b63ffffffff81166000908152602081905260409020600101548190610c465760405162461bcd60e51b81526004016101ad90613558565b5050565b60015460ff1615610c6d5760405162461bcd60e51b81526004016101ad906135d8565b3373eb46e6d1f0620fe7bb255b83eff9b844edc9784114610ca05760405162461bcd60e51b81526004016101ad90613587565b610cab600a8261255c565b5060405181907f0d29335611f0a3110c445dd4bbfb88a2cde38f18cf9cf36d6154d714cb097c5b90600090a250565b610ce3336111c2565b610cff5760405162461bcd60e51b81526004016101ad906135ad565b60008911610d455760405162461bcd60e51b815260206004820152601360248201527241646420612070726f6475637420707269636560681b60448201526064016101ad565b610d53600c80546001019055565b6000610d5e600c5490565b63ffffffff80821660009081526020819052604090209192508c1615610d8857610d88828d61143c565b83511561102d57835160141015610de15760405162461bcd60e51b815260206004820152601760248201527f4d617820737562736c696365727320657863656564656400000000000000000060448201526064016101ad565b8251845114610e325760405162461bcd60e51b815260206004820152601760248201527f496e7075747320646f6e277420636f72726573706f6e6400000000000000000060448201526064016101ad565b73fb57bf285f041b4d24b5dfa53c090b334029a64a60005b85518160ff16101561102a576000826001600160a01b031663175fa7ea888460ff1681518110610e7c57610e7c6138d0565b60200260200101516040518263ffffffff1660e01b8152600401610ea291815260200190565b60206040518083038186803b158015610eba57600080fd5b505afa158015610ece573d6000803e3d6000fd5b505050506040513d601f19601f82011682018060405250810190610ef29190612dc3565b9050806001600160a01b0316633739e11b878460ff1681518110610f1857610f186138d0565b60200260200101516040518263ffffffff1660e01b8152600401610f48919063ffffffff91909116815260200190565b60006040518083038186803b158015610f6057600080fd5b505afa158015610f74573d6000803e3d6000fd5b505050506006840180546001810182556000918252602080832090910180546001600160a01b0319166001600160a01b0385169081179091558252600786019052604090208651879060ff8516908110610fd057610fd06138d0565b60209081029190910181015182546001810184556000938452919092206008820401805460079092166004026101000a63ffffffff81810219909316929093169290920217905550806110228161389a565b915050610e4a565b50505b8b8160000160006101000a81548163ffffffff021916908363ffffffff1602179055508a8160010181905550898160020160006101000a81548160ff021916908315150217905550888160020160016101000a81548160ff021916908315150217905550878160020160026101000a81548160ff021916908315150217905550338160020160076101000a8154816001600160a01b0302191690836001600160a01b03160217905550858160030190805190602001906110ee929190612b8e565b5084516111049060048301906020880190612b8e565b5087156111225760028101805466ffffffff00000019169055611143565b60028101805466ffffffff0000001916630100000063ffffffff8a16021790555b336001600160a01b03168c63ffffffff168363ffffffff167f187c18d66acd4fc31dae101d63e1343e7c24743a802cbb44b8b813101cf58b788e8e8e8e8860020160039054906101000a900463ffffffff168e8d8d6040516111ac989796959493929190613630565b60405180910390a4505050505050505050505050565b6005546001600160a01b0382166000908152600860205260408120549091116111ed57506001919050565b60006111f9600a612568565b11156113835773eb46e6d1f0620fe7bb255b83eff9b844edc9784160005b611221600a612568565b8161ffff1610156113805760006001600160a01b03831663175fa7ea61124c600a61ffff8616612572565b6040518263ffffffff1660e01b815260040161126a91815260200190565b60206040518083038186803b15801561128257600080fd5b505afa158015611296573d6000803e3d6000fd5b505050506040513d601f19601f820116820180604052508101906112ba9190612dc3565b6005546001600160a01b0382166000908152600860205260409020549192501161136d5760405163166eb15b60e21b81526001600160a01b0386811660048301528291908216906359bac56c9060240160206040518083038186803b15801561132257600080fd5b505afa158015611336573d6000803e3d6000fd5b505050506040513d601f19601f8201168201806040525081019061135a919061317b565b1561136b5750600195945050505050565b505b50806113788161385d565b915050611217565b50505b506000919050565b604051630bafd3f560e11b81526004810185905273eb46e6d1f0620fe7bb255b83eff9b844edc978419063175fa7ea9060240160206040518083038186803b1580156113d657600080fd5b505afa1580156113ea573d6000803e3d6000fd5b505050506040513d601f19601f8201168201806040525081019061140e9190612dc3565b6001600160a01b0316336001600160a01b03161461142b57600080fd5b61143683838361257e565b50505050565b611445336111c2565b8061144f57503330145b61146b5760405162461bcd60e51b81526004016101ad906135ad565b73fb57bf285f041b4d24b5dfa53c090b334029a64a63ffffffff8216158061151a575060405163588d1be760e01b815263ffffffff831660048201526000906001600160a01b0383169063588d1be79060240160206040518083038186803b1580156114d657600080fd5b505afa1580156114ea573d6000803e3d6000fd5b505050506040513d601f19601f8201168201806040525081019061150e9190612dc3565b6001600160a01b031614155b61155e5760405162461bcd60e51b81526020600482015260156024820152744e6f6e2d6578697374656e742063617465676f727960581b60448201526064016101ad565b60405163392d518560e21b815263ffffffff8316600482015273eb46e6d1f0620fe7bb255b83eff9b844edc978419063e4b5461490602401600060405180830381600087803b1580156115b057600080fd5b505af11580156115c4573d6000803e3d6000fd5b505033301491506106e190505760405163ffffffff83811682528416907f06430051821ecb8819b754999dfd1a452d9907849169f3ca411dc854bdb0f2b29060200160405180910390a2505050565b600060075447611623919061373f565b905090565b611631336111c2565b61164d5760405162461bcd60e51b81526004016101ad906135ad565b73b9187815baffac73ddcceb9866ace8e5137a21e56000805b84518161ffff16101561176257838161ffff1681518110611689576116896138d0565b602002602001015161ffff16836001600160a01b0316633941a604878461ffff16815181106116ba576116ba6138d0565b60200260200101516040518263ffffffff1660e01b81526004016116ea919063ffffffff91909116815260200190565b60206040518083038186803b15801561170257600080fd5b505afa158015611716573d6000803e3d6000fd5b505050506040513d601f19601f8201168201806040525081019061173a91906131c2565b61174491906137a1565b61174e908361373f565b91508061175a8161385d565b915050611666565b5060405163a9059cbb60e01b815273ae009d532328ff09e09e5d506ab5bbec3c25c0ff6004820152602481018290526001600160a01b0383169063a9059cbb90604401602060405180830381600087803b1580156117bf57600080fd5b505af11580156117d3573d6000803e3d6000fd5b505050506040513d601f19601f820116820180604052508101906117f7919061317b565b507fd0e7280fe218f387be224105631180630e7d8cdb9d48bbc504aa1584cf8d62d584848360405161182b939291906134f4565b60405180910390a150505050565b63ffffffff841660009081526020819052604090206001015484906118705760405162461bcd60e51b81526004016101ad90613558565b63ffffffff851660009081526020819052604090206002015485906118a490600160381b90046001600160a01b03166111c2565b156118f55763ffffffff8116600090815260208190526040902060020154600160381b90046001600160a01b031633146118f05760405162461bcd60e51b81526004016101ad90613602565b61191f565b6118fe336111c2565b151560011461191f5760405162461bcd60e51b81526004016101ad906135ad565b600083118015611947575063ffffffff86166000908152602081905260409020600101548311155b61198b5760405162461bcd60e51b8152602060048201526015602482015274496e76616c69642070726f6475637420707269636560581b60448201526064016101ad565b63ffffffff8616600090815260208190526040902060028101805487158015620100000262ff0000199092169190911790915560019091018490556119f55763ffffffff86166000908152602081905260409020600201805466ffffffff00000019169055611a2c565b63ffffffff8087166000908152602081905260409020600201805491861663010000000266ffffffff000000199092169190911790555b63ffffffff868116600081815260208181526040918290206002015482518a151581526301000000909104909416908401528201859052907f1abdbaff3523be69e62e6a19e7ec8f2972a1e6f84f79517dbca0f63b8d852df3906060015b60405180910390a2505050505050565b60015460ff1615611abd5760405162461bcd60e51b81526004016101ad906135d8565b3373eb46e6d1f0620fe7bb255b83eff9b844edc9784114611af05760405162461bcd60e51b81526004016101ad90613587565b6001600160a01b0383166000908152600860209081526040808320546009909252822054611b1f9084906137a1565b611b29919061377f565b6001600160a01b03841660009081526009602052604081209192508291016000828254611b56919061373f565b90915550506001600160a01b03841660009081526009602052604081208054839290611b839084906137c0565b90915550506001600160a01b03841660009081526008602052604081208054849290611bb09084906137c0565b90915550506001600160a01b03831660009081526008602052604081208054849290611bdd90849061373f565b909155505050505050565b6000611bf660015460ff1690565b15611c135760405162461bcd60e51b81526004016101ad906135d8565b600354600160a01b900460ff1615611c2a57600080fd5b3373fb57bf285f041b4d24b5dfa53c090b334029a64a1415611ccf5760005b8451811015611ccd57611c7f858281518110611c6757611c676138d0565b6020026020010151600a612aa190919063ffffffff16565b15611cbb5760405162461bcd60e51b815260206004820152600c60248201526b05061796d656e74206c6f6f760a41b60448201526064016101ad565b80611cc58161387f565b915050611c49565b505b5063bc197c8160e01b95945050505050565b3373eb46e6d1f0620fe7bb255b83eff9b844edc9784114611d0157600080fd5b6106e183838361257e565b63ffffffff81166000908152602081905260408120600101548290611d435760405162461bcd60e51b81526004016101ad90613558565b63ffffffff83166000908152602081905260408120600181015460029091015490919060ff1615611e3857600073eb46e6d1f0620fe7bb255b83eff9b844edc978419050806001600160a01b031663bb27e0ce6040518163ffffffff1660e01b815260040160206040518083038186803b158015611dc057600080fd5b505afa158015611dd4573d6000803e3d6000fd5b505050506040513d601f19601f82011682018060405250810190611df891906131c2565b63ffffffff87166000908152602081905260409020600101549092508290611e2a9069d3c21bcecceda10000006137a1565b611e34919061377f565b9250505b63ffffffff851660009081526020819052604090206006015415611fc05760005b63ffffffff861660009081526020819052604090206006015460ff82161015611fbe5763ffffffff86166000908152602081905260408120600601805460ff8416908110611ea957611ea96138d0565b600091825260208083209091015463ffffffff8a16835282825260408084206001600160a01b03909216808552600790920190925290822080549193509060ff8516908110611efa57611efa6138d0565b6000918252602090912060088204015460405163bfe5d83560e01b8152600790921660049081026101000a90910463ffffffff16908201819052915082906001600160a01b0382169063bfe5d8359060240160206040518083038186803b158015611f6457600080fd5b505afa158015611f78573d6000803e3d6000fd5b505050506040513d601f19601f82011682018060405250810190611f9c91906131c2565b611fa6908761373f565b95505050508080611fb69061389a565b915050611e59565b505b5091505b50919050565b63ffffffff821660009081526020819052604090206001015482906120015760405162461bcd60e51b81526004016101ad90613558565b63ffffffff8316600090815260208190526040902060020154839061203590600160381b90046001600160a01b03166111c2565b156120865763ffffffff8116600090815260208190526040902060020154600160381b90046001600160a01b031633146120815760405162461bcd60e51b81526004016101ad90613602565b6120b0565b61208f336111c2565b15156001146120b05760405162461bcd60e51b81526004016101ad906135ad565b63ffffffff841660009081526020819052604090206002015460ff16151583151514156121115760405162461bcd60e51b815260206004820152600f60248201526e14d85b59481c1c9a58d9481d5b9a5d608a1b60448201526064016101ad565b600073eb46e6d1f0620fe7bb255b83eff9b844edc978416001600160a01b031663bb27e0ce6040518163ffffffff1660e01b815260040160206040518083038186803b15801561216057600080fd5b505afa158015612174573d6000803e3d6000fd5b505050506040513d601f19601f8201168201806040525081019061219891906131c2565b63ffffffff8616600090815260208190526040902060010154909150841561222b57600064e8d4a51000836121cd828561377f565b6121d791906137a1565b6121e1919061377f565b905080156122095763ffffffff87166000908152602081905260409020600101819055612225565b63ffffffff871660009081526020819052604090206001908101555b50612267565b6000826122428369d3c21bcecceda10000006137a1565b61224c919061377f565b63ffffffff8816600090815260208190526040902060010155505b63ffffffff86166000818152602081815260409182902060028101805460ff19168a15159081179091556001909101548351908152918201527f9313b010c2388a1c2903afa4afe83485c3f52d0a177eda33cc12b480cee4be309101611a8a565b60006122d660015460ff1690565b156122f35760405162461bcd60e51b81526004016101ad906135d8565b600354600160a01b900460ff161561230a57600080fd5b3373fb57bf285f041b4d24b5dfa53c090b334029a64a141561236d57612331600a85612aa1565b1561236d5760405162461bcd60e51b815260206004820152600c60248201526b05061796d656e74206c6f6f760a41b60448201526064016101ad565b5063f23a6e6160e01b95945050505050565b3373eb46e6d1f0620fe7bb255b83eff9b844edc97841146123b25760405162461bcd60e51b81526004016101ad90613587565b60049390935560038054600592909255921515600160a01b026001600160a81b03199091166001600160a01b0390921691909117179055565b60015460ff161561240e5760405162461bcd60e51b81526004016101ad906135d8565b3373eb46e6d1f0620fe7bb255b83eff9b844edc97841146124415760405162461bcd60e51b81526004016101ad90613587565b60005b82518161ffff1610156106e15760006001600160a01b0316838261ffff1681518110612472576124726138d0565b60200260200101516001600160a01b0316141561248e57600080fd5b6000828261ffff16815181106124a6576124a66138d0565b6020026020010151116124b857600080fd5b818161ffff16815181106124ce576124ce6138d0565b602002602001015160086000858461ffff16815181106124f0576124f06138d0565b60200260200101516001600160a01b03166001600160a01b0316815260200190815260200160002081905550818161ffff1681518110612532576125326138d0565b6020026020010151600654612547919061373f565b600655806125548161385d565b915050612444565b6000610ad68383612ab9565b6000610717825490565b6000610ad68383612b08565b63ffffffff821660009081526020819052604090206001015482906125b55760405162461bcd60e51b81526004016101ad90613558565b61ffff82166125c357600080fd5b63ffffffff8316600090815260208190526040902060020154610100900460ff166126795763ffffffff8084166000908152602081815260408083206001600160a01b03891684526005019091529020546126249161ffff85169116613757565b63ffffffff166001146126795760405162461bcd60e51b815260206004820152601960248201527f4d6178696d756d207175616e746974792065786365656465640000000000000060448201526064016101ad565b63ffffffff8084166000908152602081815260408083206001600160a01b03891684526005019091528120805461ffff8616939192916126bb91859116613757565b92506101000a81548163ffffffff021916908363ffffffff1602179055506000808463ffffffff1663ffffffff16815260200190815260200160002060020160029054906101000a900460ff166127d75763ffffffff808416600090815260208190526040902060020154630100000090041661ffff831611156127815760405162461bcd60e51b815260206004820152601860248201527f417661696c61626c6520756e697473206578636565646564000000000000000060448201526064016101ad565b63ffffffff8084166000908152602081905260409020600201805461ffff8516926003916127b891859163010000009004166137d7565b92506101000a81548163ffffffff021916908363ffffffff1602179055505b63ffffffff831660009081526020819052604081206006015415612a385760005b63ffffffff851660009081526020819052604090206006015460ff82161015612a365763ffffffff85166000908152602081905260408120600601805460ff8416908110612848576128486138d0565b600091825260208083209091015463ffffffff8916835282825260408084206001600160a01b03909216808552600790920190925290822080549193509060ff8516908110612899576128996138d0565b60009182526020822060088204015460405163bfe5d83560e01b8152600790921660049081026101000a90910463ffffffff16908201819052925083919061ffff8916906001600160a01b0384169063bfe5d8359060240160206040518083038186803b15801561290957600080fd5b505afa15801561291d573d6000803e3d6000fd5b505050506040513d601f19601f8201168201806040525081019061294191906131c2565b61294b91906137a1565b60045460405160248101919091526001600160a01b038c8116604483015263ffffffff8616606483015261ffff8b166084830152919250600091861690839060a40160408051601f198184030181529181526020820180516001600160e01b0316630d4a9d5b60e31b179052516129c291906134d8565b60006040518083038185875af1925050503d80600081146129ff576040519150601f19603f3d011682016040523d82523d6000602084013e612a04565b606091505b5050905080612a1257600080fd5b612a1c828861373f565b965050505050508080612a2e9061389a565b9150506127f8565b505b612a4b30612a4683346137c0565b6105c8565b6040805161ffff8516815234602082015263ffffffff8616916001600160a01b038816917fcb35e6328d171aabe8c666c3fcc2ba3401887c5504bf5dfaa8b8c3be5ced01bc910160405180910390a35050505050565b60008181526001830160205260408120541515610ad6565b6000818152600183016020526040812054612b0057508154600181810184556000848152602080822090930184905584548482528286019093526040902091909155610717565b506000610717565b81546000908210612b665760405162461bcd60e51b815260206004820152602260248201527f456e756d657261626c655365743a20696e646578206f7574206f6620626f756e604482015261647360f01b60648201526084016101ad565b826000018281548110612b7b57612b7b6138d0565b9060005260206000200154905092915050565b828054612b9a90613828565b90600052602060002090601f016020900481019282612bbc5760008555612c02565b82601f10612bd557805160ff1916838001178555612c02565b82800160010185558215612c02579182015b82811115612c02578251825591602001919060010190612be7565b50612c0e929150612c12565b5090565b5b80821115612c0e5760008155600101612c13565b600082601f830112612c3857600080fd5b81356020612c4d612c488361371b565b6136ea565b80838252828201915082860187848660051b8901011115612c6d57600080fd5b60005b85811015612c8c57813584529284019290840190600101612c70565b5090979650505050505050565b600082601f830112612caa57600080fd5b81356020612cba612c488361371b565b80838252828201915082860187848660051b8901011115612cda57600080fd5b60005b85811015612c8c57612cee82612d92565b84529284019290840190600101612cdd565b8035612d0b81613914565b919050565b600082601f830112612d2157600080fd5b813567ffffffffffffffff811115612d3b57612d3b6138e6565b612d4e601f8201601f19166020016136ea565b818152846020838601011115612d6357600080fd5b816020850160208301376000918101602001919091529392505050565b803561ffff81168114612d0b57600080fd5b803563ffffffff81168114612d0b57600080fd5b600060208284031215612db857600080fd5b8135610ad6816138fc565b600060208284031215612dd557600080fd5b8151610ad6816138fc565b600080600080600060a08688031215612df857600080fd5b8535612e03816138fc565b94506020860135612e13816138fc565b9350604086013567ffffffffffffffff80821115612e3057600080fd5b612e3c89838a01612c27565b94506060880135915080821115612e5257600080fd5b612e5e89838a01612c27565b93506080880135915080821115612e7457600080fd5b50612e8188828901612d10565b9150509295509295909350565b600080600060608486031215612ea357600080fd5b8335612eae816138fc565b92506020840135612ebe816138fc565b929592945050506040919091013590565b60008060008060808587031215612ee557600080fd5b8435612ef0816138fc565b93506020850135612f00816138fc565b925060408501359150606085013567ffffffffffffffff811115612f2357600080fd5b612f2f87828801612d10565b91505092959194509250565b600080600080600060a08688031215612f5357600080fd5b8535612f5e816138fc565b94506020860135612f6e816138fc565b93506040860135925060608601359150608086013567ffffffffffffffff811115612f9857600080fd5b612e8188828901612d10565b600080600060608486031215612fb957600080fd5b8335612fc4816138fc565b9250612fd260208501612d92565b9150612fe060408501612d80565b90509250925092565b60008060408385031215612ffc57600080fd5b823567ffffffffffffffff8082111561301457600080fd5b818501915085601f83011261302857600080fd5b81356020613038612c488361371b565b8083825282820191508286018a848660051b890101111561305857600080fd5b600096505b84871015613084578035613070816138fc565b83526001969096019591830191830161305d565b509650508601359250508082111561309b57600080fd5b506130a885828601612c27565b9150509250929050565b600080604083850312156130c557600080fd5b823567ffffffffffffffff808211156130dd57600080fd5b6130e986838701612c99565b935060209150818501358181111561310057600080fd5b85019050601f8101861361311357600080fd5b8035613121612c488261371b565b80828252848201915084840189868560051b870101111561314157600080fd5b600094505b8385101561316b5761315781612d80565b835260019490940193918501918501613146565b5080955050505050509250929050565b60006020828403121561318d57600080fd5b8151610ad681613914565b6000602082840312156131aa57600080fd5b81356001600160e01b031981168114610ad657600080fd5b6000602082840312156131d457600080fd5b5051919050565b6000602082840312156131ed57600080fd5b5035919050565b6000806000806080858703121561320a57600080fd5b84359350602085013561321c816138fc565b925060408501359150606085013561323381613914565b939692955090935050565b6000806000806080858703121561325457600080fd5b843593506020850135613266816138fc565b925061327460408601612d92565b915061328260608601612d80565b905092959194509250565b60006020828403121561329f57600080fd5b610ad682612d92565b600080604083850312156132bb57600080fd5b6132c483612d92565b915060208301356132d481613914565b809150509250929050565b600080600080608085870312156132f557600080fd5b6132fe85612d92565b9350602085013561330e81613914565b925061331c60408601612d92565b9396929550929360600135925050565b6000806000806000806000806000806101408b8d03121561334c57600080fd5b6133558b612d92565b995060208b0135985061336a60408c01612d00565b975061337860608c01612d00565b965061338660808c01612d00565b955061339460a08c01612d92565b945060c08b013567ffffffffffffffff808211156133b157600080fd5b6133bd8e838f01612d10565b955060e08d01359150808211156133d357600080fd5b6133df8e838f01612d10565b94506101008d01359150808211156133f657600080fd5b6134028e838f01612c27565b93506101208d013591508082111561341957600080fd5b506134268d828e01612c99565b9150509295989b9194979a5092959850565b6000806040838503121561344b57600080fd5b61345483612d92565b915061346260208401612d92565b90509250929050565b600081518084526020808501945080840160005b838110156134a157815163ffffffff168752958201959082019060010161347f565b509495945050505050565b600081518084526134c48160208601602086016137fc565b601f01601f19169290920160200192915050565b600082516134ea8184602087016137fc565b9190910192915050565b606081526000613507606083018661346b565b82810360208481019190915285518083528682019282019060005b8181101561354257845161ffff1683529383019391830191600101613522565b5050809350505050826040830152949350505050565b602080825260159082015274141c9bd91d58dd08191bd95cdb89dd08195e1a5cdd605a1b604082015260600190565b6020808252600c908201526b155b985d5d1a1bdc9a5e995960a21b604082015260600190565b6020808252601190820152704e6f7420656e6f75676820736c6963657360781b604082015260600190565b60208082526010908201526f14185d5cd8589b194e881c185d5cd95960821b604082015260600190565b60208082526014908201527313db9b1e4818dc99585d1bdc88185b1b1bddd95960621b604082015260600190565b60006101008a835260208a1515818501528915156040850152881515606085015263ffffffff881660808501528160a085015261366f828501886134ac565b84810360c0860152865180825282880193509082019060005b818110156136a457845183529383019391830191600101613688565b505084810360e08601526136b8818761346b565b9d9c50505050505050505050505050565b8281526040602082015260006136e260408301846134ac565b949350505050565b604051601f8201601f1916810167ffffffffffffffff81118282101715613713576137136138e6565b604052919050565b600067ffffffffffffffff821115613735576137356138e6565b5060051b60200190565b60008219821115613752576137526138ba565b500190565b600063ffffffff808316818516808303821115613776576137766138ba565b01949350505050565b60008261379c57634e487b7160e01b600052601260045260246000fd5b500490565b60008160001904831182151516156137bb576137bb6138ba565b500290565b6000828210156137d2576137d26138ba565b500390565b600063ffffffff838116908316818110156137f4576137f46138ba565b039392505050565b60005b838110156138175781810151838201526020016137ff565b838111156114365750506000910152565b600181811c9082168061383c57607f821691505b60208210811415611fc457634e487b7160e01b600052602260045260246000fd5b600061ffff80831681811415613875576138756138ba565b6001019392505050565b6000600019821415613893576138936138ba565b5060010190565b600060ff821660ff8114156138b1576138b16138ba565b60010192915050565b634e487b7160e01b600052601160045260246000fd5b634e487b7160e01b600052603260045260246000fd5b634e487b7160e01b600052604160045260246000fd5b6001600160a01b038116811461391157600080fd5b50565b801515811461391157600080fdfea2646970667358221220088c84423766ea742ac1bdbd2e2c02593e94041e5b5fa025b626890f1a7acdb364736f6c63430008070033",
  "linkReferences": {},
  "deployedLinkReferences": {}
}