{
  "_format": "hh-sol-artifact-1",
  "contractName": "Slice_OLD",
  "sourceName": "contracts/slice_v0-old.sol",
  "abi": [
    {
      "anonymous": false,
      "inputs": [
        {
          "indexed": false,
          "internalType": "address",
          "name": "previousAdmin",
          "type": "address"
        },
        {
          "indexed": false,
          "internalType": "address",
          "name": "newAdmin",
          "type": "address"
        }
      ],
      "name": "AdminChanged",
      "type": "event"
    },
    {
      "anonymous": false,
      "inputs": [
        {
          "indexed": true,
          "internalType": "address",
          "name": "beacon",
          "type": "address"
        }
      ],
      "name": "BeaconUpgraded",
      "type": "event"
    },
    {
      "anonymous": false,
      "inputs": [
        {
          "indexed": true,
          "internalType": "address",
          "name": "previousOwner",
          "type": "address"
        },
        {
          "indexed": true,
          "internalType": "address",
          "name": "newOwner",
          "type": "address"
        }
      ],
      "name": "OwnershipTransferred",
      "type": "event"
    },
    {
      "anonymous": false,
      "inputs": [
        {
          "indexed": false,
          "internalType": "address",
          "name": "account",
          "type": "address"
        }
      ],
      "name": "Paused",
      "type": "event"
    },
    {
      "anonymous": false,
      "inputs": [
        {
          "indexed": false,
          "internalType": "address payable[]",
          "name": "slicerAddresses",
          "type": "address[]"
        },
        {
          "indexed": false,
          "internalType": "uint32[]",
          "name": "productIds",
          "type": "uint32[]"
        },
        {
          "indexed": false,
          "internalType": "uint16[]",
          "name": "quantities",
          "type": "uint16[]"
        },
        {
          "indexed": false,
          "internalType": "uint256",
          "name": "totalPaid",
          "type": "uint256"
        }
      ],
      "name": "ProductsPaid",
      "type": "event"
    },
    {
      "anonymous": false,
      "inputs": [
        {
          "indexed": false,
          "internalType": "address",
          "name": "slicerAddress",
          "type": "address"
        },
        {
          "indexed": false,
          "internalType": "uint256",
          "name": "tokenId",
          "type": "uint256"
        },
        {
          "indexed": false,
          "internalType": "address[]",
          "name": "payees",
          "type": "address[]"
        },
        {
          "indexed": false,
          "internalType": "uint256[]",
          "name": "shares",
          "type": "uint256[]"
        },
        {
          "indexed": false,
          "internalType": "uint256",
          "name": "minimumShares",
          "type": "uint256"
        },
        {
          "indexed": false,
          "internalType": "bool",
          "name": "isCollectible",
          "type": "bool"
        }
      ],
      "name": "TokenSliced",
      "type": "event"
    },
    {
      "anonymous": false,
      "inputs": [
        {
          "indexed": true,
          "internalType": "address",
          "name": "account",
          "type": "address"
        },
        {
          "indexed": false,
          "internalType": "uint256",
          "name": "totalReleased",
          "type": "uint256"
        },
        {
          "indexed": false,
          "internalType": "uint8",
          "name": "slicerPercentage",
          "type": "uint8"
        }
      ],
      "name": "TriggeredRelease",
      "type": "event"
    },
    {
      "anonymous": false,
      "inputs": [
        {
          "indexed": false,
          "internalType": "address",
          "name": "account",
          "type": "address"
        }
      ],
      "name": "Unpaused",
      "type": "event"
    },
    {
      "anonymous": false,
      "inputs": [
        {
          "indexed": true,
          "internalType": "address",
          "name": "implementation",
          "type": "address"
        }
      ],
      "name": "Upgraded",
      "type": "event"
    },
    {
      "inputs": [
        {
          "internalType": "uint32",
          "name": "categoryIndex",
          "type": "uint32"
        }
      ],
      "name": "_addToSliceCategory",
      "outputs": [],
      "stateMutability": "nonpayable",
      "type": "function"
    },
    {
      "inputs": [
        {
          "internalType": "address",
          "name": "from",
          "type": "address"
        },
        {
          "internalType": "address",
          "name": "to",
          "type": "address"
        },
        {
          "internalType": "address[]",
          "name": "slicerAddresses",
          "type": "address[]"
        },
        {
          "internalType": "uint256[]",
          "name": "amounts",
          "type": "uint256[]"
        }
      ],
      "name": "_beforeTransfer",
      "outputs": [],
      "stateMutability": "nonpayable",
      "type": "function"
    },
    {
      "inputs": [
        {
          "internalType": "uint256",
          "name": "id",
          "type": "uint256"
        },
        {
          "internalType": "uint256",
          "name": "minimumShares",
          "type": "uint256"
        },
        {
          "internalType": "bool",
          "name": "isCollectible",
          "type": "bool"
        }
      ],
      "name": "_createSlicer",
      "outputs": [
        {
          "internalType": "address payable",
          "name": "",
          "type": "address"
        }
      ],
      "stateMutability": "nonpayable",
      "type": "function"
    },
    {
      "inputs": [],
      "name": "_implementation",
      "outputs": [
        {
          "internalType": "address",
          "name": "",
          "type": "address"
        }
      ],
      "stateMutability": "view",
      "type": "function"
    },
    {
      "inputs": [
        {
          "internalType": "uint16",
          "name": "newValueSlice",
          "type": "uint16"
        },
        {
          "internalType": "uint16",
          "name": "newValueRelease",
          "type": "uint16"
        }
      ],
      "name": "_setMaximumBatch",
      "outputs": [],
      "stateMutability": "nonpayable",
      "type": "function"
    },
    {
      "inputs": [],
      "name": "_togglePause",
      "outputs": [],
      "stateMutability": "nonpayable",
      "type": "function"
    },
    {
      "inputs": [
        {
          "internalType": "address",
          "name": "newLogicImpl",
          "type": "address"
        }
      ],
      "name": "_upgradeSlicers",
      "outputs": [],
      "stateMutability": "nonpayable",
      "type": "function"
    },
    {
      "inputs": [],
      "name": "getEthUsd",
      "outputs": [
        {
          "internalType": "int256",
          "name": "",
          "type": "int256"
        }
      ],
      "stateMutability": "view",
      "type": "function"
    },
    {
      "inputs": [
        {
          "internalType": "address",
          "name": "SLCAddress",
          "type": "address"
        },
        {
          "internalType": "address",
          "name": "sliceCoreAddress",
          "type": "address"
        }
      ],
      "name": "initialize",
      "outputs": [],
      "stateMutability": "nonpayable",
      "type": "function"
    },
    {
      "inputs": [],
      "name": "owner",
      "outputs": [
        {
          "internalType": "address",
          "name": "",
          "type": "address"
        }
      ],
      "stateMutability": "view",
      "type": "function"
    },
    {
      "inputs": [],
      "name": "paused",
      "outputs": [
        {
          "internalType": "bool",
          "name": "",
          "type": "bool"
        }
      ],
      "stateMutability": "view",
      "type": "function"
    },
    {
      "inputs": [
        {
          "internalType": "address payable[]",
          "name": "slicerAddresses",
          "type": "address[]"
        },
        {
          "internalType": "uint32[]",
          "name": "productIds",
          "type": "uint32[]"
        },
        {
          "internalType": "uint16[]",
          "name": "quantities",
          "type": "uint16[]"
        }
      ],
      "name": "payProducts",
      "outputs": [],
      "stateMutability": "payable",
      "type": "function"
    },
    {
      "inputs": [],
      "name": "renounceOwnership",
      "outputs": [],
      "stateMutability": "nonpayable",
      "type": "function"
    },
    {
      "inputs": [
        {
          "internalType": "address[]",
          "name": "accounts",
          "type": "address[]"
        },
        {
          "internalType": "uint256[]",
          "name": "shares",
          "type": "uint256[]"
        },
        {
          "internalType": "uint256",
          "name": "minimumShares",
          "type": "uint256"
        },
        {
          "internalType": "bool",
          "name": "isCollectible",
          "type": "bool"
        }
      ],
      "name": "slice",
      "outputs": [],
      "stateMutability": "nonpayable",
      "type": "function"
    },
    {
      "inputs": [
        {
          "internalType": "uint256",
          "name": "id",
          "type": "uint256"
        }
      ],
      "name": "slicers",
      "outputs": [
        {
          "internalType": "address",
          "name": "",
          "type": "address"
        }
      ],
      "stateMutability": "view",
      "type": "function"
    },
    {
      "inputs": [],
      "name": "totalTokens",
      "outputs": [
        {
          "internalType": "uint256",
          "name": "",
          "type": "uint256"
        }
      ],
      "stateMutability": "view",
      "type": "function"
    },
    {
      "inputs": [
        {
          "internalType": "address",
          "name": "newOwner",
          "type": "address"
        }
      ],
      "name": "transferOwnership",
      "outputs": [],
      "stateMutability": "nonpayable",
      "type": "function"
    },
    {
      "inputs": [
        {
          "internalType": "address",
          "name": "account",
          "type": "address"
        },
        {
          "internalType": "address[]",
          "name": "slicerAddresses",
          "type": "address[]"
        },
        {
          "internalType": "uint8",
          "name": "slicerPercentage",
          "type": "uint8"
        }
      ],
      "name": "triggerRelease",
      "outputs": [],
      "stateMutability": "nonpayable",
      "type": "function"
    },
    {
      "inputs": [
        {
          "internalType": "address",
          "name": "account",
          "type": "address"
        },
        {
          "internalType": "address[]",
          "name": "slicerAddresses",
          "type": "address[]"
        }
      ],
      "name": "unreleasedBatch",
      "outputs": [
        {
          "internalType": "uint256[]",
          "name": "",
          "type": "uint256[]"
        }
      ],
      "stateMutability": "view",
      "type": "function"
    },
    {
      "inputs": [
        {
          "internalType": "address",
          "name": "newImplementation",
          "type": "address"
        }
      ],
      "name": "upgradeTo",
      "outputs": [],
      "stateMutability": "nonpayable",
      "type": "function"
    },
    {
      "inputs": [
        {
          "internalType": "address",
          "name": "newImplementation",
          "type": "address"
        },
        {
          "internalType": "bytes",
          "name": "data",
          "type": "bytes"
        }
      ],
      "name": "upgradeToAndCall",
      "outputs": [],
      "stateMutability": "payable",
      "type": "function"
    }
  ],
  "bytecode": "0x60a06040523060601b60805234801561001757600080fd5b5060805160601c613d2861004b600039600081816108a8015281816108eb01528181610b0d0152610b500152613d286000f3fe608060405260043610620001435760003560e01c8063715018a611620000b9578063bb27e0ce1162000078578063bb27e0ce146200034c578063dae7d5181462000364578063e4b546141462000389578063edeb64ba14620003ab578063efab35b814620003df578063f2fde38b146200040457600080fd5b8063715018a614620002a35780637e1c0c0914620002bb578063817115f114620002e25780638913ea4214620003075780638da5cb5b146200032c57600080fd5b8063485cc9551162000106578063485cc95514620002055780634f1ef286146200022a57806359679b0f14620002415780635c975abb14620002595780635e3c959f146200027e57600080fd5b8063175fa7ea1462000148578063277794e4146200018a5780632f1f315414620001af5780633659cfe614620001c8578063405b4c3614620001ed575b600080fd5b3480156200015557600080fd5b506200016d6200016736600462002189565b62000429565b6040516001600160a01b0390911681526020015b60405180910390f35b3480156200019757600080fd5b506200016d620001a9366004620021b9565b620004b1565b620001c6620001c036600462002387565b62000554565b005b348015620001d557600080fd5b50620001c6620001e73660046200247e565b6200089d565b348015620001fa57600080fd5b50620001c66200096f565b3480156200021257600080fd5b50620001c6620002243660046200249e565b620009be565b620001c66200023b366004620024dc565b62000b02565b3480156200024e57600080fd5b506200016d62000bc8565b3480156200026657600080fd5b5060c95460ff16604051901515815260200162000181565b3480156200028b57600080fd5b50620001c66200029d3660046200265e565b62000c88565b348015620002b057600080fd5b50620001c6620010b0565b348015620002c857600080fd5b50620002d3620010e9565b60405190815260200162000181565b348015620002ef57600080fd5b50620001c662000301366004620026f5565b620010f6565b3480156200031457600080fd5b50620001c66200032636600462002761565b6200140a565b3480156200033957600080fd5b506097546001600160a01b03166200016d565b3480156200035957600080fd5b50620002d362001460565b3480156200037157600080fd5b50620001c66200038336600462002799565b620014f9565b3480156200039657600080fd5b50620001c6620003a83660046200282d565b50565b348015620003b857600080fd5b50620003d0620003ca3660046200284b565b620016e1565b604051620001819190620028de565b348015620003ec57600080fd5b50620001c6620003fe3660046200247e565b62001829565b3480156200041157600080fd5b50620001c6620004233660046200247e565b620018bb565b61012f54604051630bafd3f560e11b8152600481018390526000916001600160a01b03169063175fa7ea9060240160206040518083038186803b1580156200047057600080fd5b505afa15801562000485573d6000803e3d6000fd5b505050506040513d601f19601f82011682018060405250810190620004ab9190620028f3565b92915050565b61012d546040516024810185905233604482015260648101849052821515608482015260009182916001600160a01b039091169060a40160408051601f198184030181529181526020820180516001600160e01b031663f664929d60e01b179052516200051e906200216d565b6200052b92919062002974565b604051809103906000f08015801562000548573d6000803e3d6000fd5b509150505b9392505050565b600260fb541415620005835760405162461bcd60e51b81526004016200057a90620029a2565b60405180910390fd5b600260fb55815183511480156200059b575080518351145b620005e95760405162461bcd60e51b815260206004820152601860248201527f4c656e6774687320646f6e277420636f72726573706f6e64000000000000000060448201526064016200057a565b6000805b84518161ffff16101562000852576000858261ffff1681518110620006165762000616620029d9565b602002602001015190506000848361ffff16815181106200063b576200063b620029d9565b602002602001015161ffff16826001600160a01b031663bfe5d835888661ffff16815181106200066f576200066f620029d9565b60200260200101516040518263ffffffff1660e01b8152600401620006a0919063ffffffff91909116815260200190565b60206040518083038186803b158015620006b957600080fd5b505afa158015620006ce573d6000803e3d6000fd5b505050506040513d601f19601f82011682018060405250810190620006f49190620029ef565b62000700919062002a1f565b90506000878461ffff16815181106200071d576200071d620029d9565b60200260200101516001600160a01b03168233898761ffff1681518110620007495762000749620029d9565b6020026020010151898861ffff16815181106200076a576200076a620029d9565b60209081029190910101516040516001600160a01b03909316602484015263ffffffff909116604483015261ffff16606482015260840160408051601f198184030181529181526020820180516001600160e01b0316635f938d5360e11b17905251620007d8919062002a41565b60006040518083038185875af1925050503d806000811462000817576040519150601f19603f3d011682016040523d82523d6000602084013e6200081c565b606091505b50509050806200082b57600080fd5b62000837828662002a5f565b94505050508080620008499062002a7a565b915050620005ed565b507ff9c0c1c7138692bd4bff6843cde7f313f634c42eca9375fbd6ae91c4f3269a8c848484846040516200088a949392919062002ad5565b60405180910390a15050600160fb555050565b306001600160a01b037f0000000000000000000000000000000000000000000000000000000000000000161415620008e95760405162461bcd60e51b81526004016200057a9062002b80565b7f00000000000000000000000000000000000000000000000000000000000000006001600160a01b03166200091d6200195a565b6001600160a01b031614620009465760405162461bcd60e51b81526004016200057a9062002bcc565b620009518162001988565b60408051600080825260208201909252620003a891839190620019b5565b6097546001600160a01b031633146200099c5760405162461bcd60e51b81526004016200057a9062002c18565b60c95460ff1615620009b457620009b262001b0a565b565b620009b262001b9f565b600054610100900460ff1680620009d8575060005460ff16155b620009f75760405162461bcd60e51b81526004016200057a9062002c4d565b600054610100900460ff1615801562000a1a576000805461ffff19166101011790555b62000a2462001c1d565b61012e80546001600160a01b038086166001600160a01b03199283161790925561012f8054928516928216929092179091556101328054621e001e63ffffffff199091161790556101308054909116735f4ec3df9cbd43714fe2740f5e3616155c5b8419179055604051839062000a9b906200217b565b6001600160a01b039091168152602001604051809103906000f08015801562000ac8573d6000803e3d6000fd5b5061012d80546001600160a01b0319166001600160a01b0392909216919091179055801562000afd576000805461ff00191690555b505050565b306001600160a01b037f000000000000000000000000000000000000000000000000000000000000000016141562000b4e5760405162461bcd60e51b81526004016200057a9062002b80565b7f00000000000000000000000000000000000000000000000000000000000000006001600160a01b031662000b826200195a565b6001600160a01b03161462000bab5760405162461bcd60e51b81526004016200057a9062002bcc565b62000bb68262001988565b62000bc482826001620019b5565b5050565b6097546000906001600160a01b0316331462000bf85760405162461bcd60e51b81526004016200057a9062002c18565b61012d60009054906101000a90046001600160a01b03166001600160a01b0316635c60da1b6040518163ffffffff1660e01b815260040160206040518083038186803b15801562000c4857600080fd5b505afa15801562000c5d573d6000803e3d6000fd5b505050506040513d601f19601f8201168201806040525081019062000c839190620028f3565b905090565b60c95460ff161562000cd05760405162461bcd60e51b815260206004820152601060248201526f14185d5cd8589b194e881c185d5cd95960821b60448201526064016200057a565b600260fb54141562000cf65760405162461bcd60e51b81526004016200057a90620029a2565b600260fb55600062000d086101315490565b61013254865191925060009161ffff909116101562000d5e5760405162461bcd60e51b8152602060048201526011602482015270546f6f206d616e79206163636f756e747360781b60448201526064016200057a565b845186511462000db15760405162461bcd60e51b815260206004820152601760248201527f496e7075747320646f6e277420636f72726573706f6e6400000000000000000060448201526064016200057a565b6000841162000dfc5760405162461bcd60e51b815260206004820152601660248201527553706563696679206d696e696d756d2073686172657360501b60448201526064016200057a565b600062000e0b838686620004b1565b90508060005b88518161ffff16101562000f9a5762000e4a898261ffff168151811062000e3c5762000e3c620029d9565b60200260200101513b151590565b1562000e7c5762000e7c838a8361ffff168151811062000e6e5762000e6e620029d9565b602002602001015162001ca2565b8315801562000eab575086888261ffff168151811062000ea05762000ea0620029d9565b602002602001015110155b1562000eb657600193505b61012f5489516001600160a01b039091169063303cd08a908b9061ffff851690811062000ee75762000ee7620029d9565b6020026020010151878b8561ffff168151811062000f095762000f09620029d9565b60209081029190910101516040516001600160e01b031960e086901b1681526001600160a01b039384166004820152602481019290925260448201529086166064820152608401600060405180830381600087803b15801562000f6b57600080fd5b505af115801562000f80573d6000803e3d6000fd5b50505050808062000f919062002a7a565b91505062000e11565b508262000fea5760405162461bcd60e51b815260206004820152601c60248201527f4e6f206163636f756e742068617320656e6f756768207368617265730000000060448201526064016200057a565b60405163fd5e12e360e01b81526001600160a01b0382169063fd5e12e3906200101a908b908b9060040162002cd6565b600060405180830381600087803b1580156200103557600080fd5b505af11580156200104a573d6000803e3d6000fd5b505050506200105e61013180546001019055565b7fd090405b8e03d5caf9d1479740c43f24f9aec7f529dccf613ae93e7187eadfed82858a8a8a8a604051620010999695949392919062002cff565b60405180910390a15050600160fb55505050505050565b6097546001600160a01b03163314620010dd5760405162461bcd60e51b81526004016200057a9062002c18565b620009b2600062001de8565b600062000c836101315490565b600260fb5414156200111c5760405162461bcd60e51b81526004016200057a90620029a2565b600260fb556101325482516201000090910461ffff161015620011825760405162461bcd60e51b815260206004820152601960248201527f546f6f206d616e7920736c69636572732072656c65617365640000000000000060448201526064016200057a565b823b156000805b84518161ffff161015620013af576000858261ffff1681518110620011b257620011b2620029d9565b6020908102919091010151604051632a67293d60e01b81526001600160a01b038981166004830152919250600091831690632a67293d9060240160206040518083038186803b1580156200120557600080fd5b505afa1580156200121a573d6000803e3d6000fd5b505050506040513d601f19601f82011682018060405250810190620012409190620029ef565b11156200139957604051631916558760e01b81526001600160a01b03888116600483015260009190831690631916558790602401602060405180830381600087803b1580156200128f57600080fd5b505af1158015620012a4573d6000803e3d6000fd5b505050506040513d601f19601f82011682018060405250810190620012ca9190620029ef565b90508415620013895761012e5487516001600160a01b039091169063deb0e991908a9084908b9061ffff8916908110620013085762001308620029d9565b60209081029190910101516040516001600160e01b031960e086901b1681526001600160a01b039384166004820152602481019290925291909116604482015260ff89166064820152608401600060405180830381600087803b1580156200136f57600080fd5b505af115801562001384573d6000803e3d6000fd5b505050505b62001395818562002a5f565b9350505b5080620013a68162002a7a565b91505062001189565b508015620013fe576040805182815260ff851660208201526001600160a01b038716917fc3fb528a4237f3152c096612970ef465ede8418e8e76bf125a4af53c8284ec43910160405180910390a25b5050600160fb55505050565b6097546001600160a01b03163314620014375760405162461bcd60e51b81526004016200057a9062002c18565b610132805461ffff928316620100000263ffffffff199091169290931691909117919091179055565b60008061013060009054906101000a90046001600160a01b03166001600160a01b031663feaf968c6040518163ffffffff1660e01b815260040160a06040518083038186803b158015620014b357600080fd5b505afa158015620014c8573d6000803e3d6000fd5b505050506040513d601f19601f82011682018060405250810190620014ee919062002d72565b509195945050505050565b61012f546001600160a01b03163314620015455760405162461bcd60e51b815260206004820152600c60248201526b155b985d5d1a1bdc9a5e995960a21b60448201526064016200057a565b823b15156200155785846000620010f6565b60005b83518161ffff161015620016d957828161ffff1681518110620015815762001581620029d9565b602002602001015160001415620015d05760405162461bcd60e51b81526020600482015260126024820152710416d6f756e742063616e6e6f7420626520360741b60448201526064016200057a565b81156200167657838161ffff1681518110620015f057620015f0620029d9565b60200260200101516001600160a01b0316856001600160a01b031614156200164a5760405162461bcd60e51b815260206004820152600c60248201526b05061796d656e74206c6f6f760a41b60448201526064016200057a565b62001676848261ffff1681518110620016675762001667620029d9565b60200260200101518662001ca2565b620016c48686868461ffff1681518110620016955762001695620029d9565b6020026020010151868561ffff1681518110620016b657620016b6620029d9565b602002602001015162001e3a565b80620016d08162002a7a565b9150506200155a565b505050505050565b60606000825167ffffffffffffffff811115620017025762001702620021f1565b6040519080825280602002602001820160405280156200172c578160200160208202803683370190505b50905060005b83518161ffff16101562001821576000848261ffff16815181106200175b576200175b620029d9565b6020908102919091010151604051632a67293d60e01b81526001600160a01b03888116600483015291925090821690632a67293d9060240160206040518083038186803b158015620017ac57600080fd5b505afa158015620017c1573d6000803e3d6000fd5b505050506040513d601f19601f82011682018060405250810190620017e79190620029ef565b838361ffff1681518110620018005762001800620029d9565b60209081029190910101525080620018188162002a7a565b91505062001732565b509392505050565b6097546001600160a01b03163314620018565760405162461bcd60e51b81526004016200057a9062002c18565b61012d54604051631b2ce7f360e11b81526001600160a01b03838116600483015290911690633659cfe690602401600060405180830381600087803b1580156200189f57600080fd5b505af1158015620018b4573d6000803e3d6000fd5b5050505050565b6097546001600160a01b03163314620018e85760405162461bcd60e51b81526004016200057a9062002c18565b6001600160a01b0381166200194f5760405162461bcd60e51b815260206004820152602660248201527f4f776e61626c653a206e6577206f776e657220697320746865207a65726f206160448201526564647265737360d01b60648201526084016200057a565b620003a88162001de8565b7f360894a13ba1a3210667c828492db98dca3e2076cc3735a920a3ca505d382bbc546001600160a01b031690565b6097546001600160a01b03163314620003a85760405162461bcd60e51b81526004016200057a9062002c18565b6000620019c16200195a565b9050620019ce8462001e7b565b600083511180620019dc5750815b15620019f057620019ee848462001f22565b505b7f4910fdfa16fed3260ed0e7147f7cc6da11a60208b5b9406d12a635614ffd9143805460ff16620018b457805460ff191660011781556040516001600160a01b038316602482015262001a7290869060440160408051601f198184030181529190526020810180516001600160e01b0316631b2ce7f360e11b17905262001f22565b50805460ff1916815562001a856200195a565b6001600160a01b0316826001600160a01b03161462001aff5760405162461bcd60e51b815260206004820152602f60248201527f45524331393637557067726164653a207570677261646520627265616b73206660448201526e75727468657220757067726164657360881b60648201526084016200057a565b620018b48562002016565b60c95460ff1662001b555760405162461bcd60e51b815260206004820152601460248201527314185d5cd8589b194e881b9bdd081c185d5cd95960621b60448201526064016200057a565b60c9805460ff191690557f5db9ee0a495bf2e6ff9c91a7834c1ba4fdd244a5e8aa4e537bd38aeae4b073aa335b6040516001600160a01b03909116815260200160405180910390a1565b60c95460ff161562001be75760405162461bcd60e51b815260206004820152601060248201526f14185d5cd8589b194e881c185d5cd95960821b60448201526064016200057a565b60c9805460ff191660011790557f62e78cea01bee320cd4e420270b5ea74000d11b0c9f74754ebdbfc544b05a25862001b823390565b600054610100900460ff168062001c37575060005460ff16155b62001c565760405162461bcd60e51b81526004016200057a9062002c4d565b600054610100900460ff1615801562001c79576000805461ffff19166101011790555b62001c8362002058565b62001c8d620020c8565b8015620003a8576000805461ff001916905550565b600082905060008290506000816001600160a01b031663957e07b66040518163ffffffff1660e01b815260040160806040518083038186803b15801562001ce857600080fd5b505afa15801562001cfd573d6000803e3d6000fd5b505050506040513d601f19601f8201168201806040525081019062001d23919062002dc7565b5050509050836001600160a01b031662001d3d8262000429565b6001600160a01b03161462001d845760405162461bcd60e51b815260206004820152600c60248201526b2737ba10309029b634b1b2b960a11b60448201526064016200057a565b60405163044eecfd60e41b8152600481018290526001600160a01b038416906344eecfd0906024015b600060405180830381600087803b15801562001dc857600080fd5b505af115801562001ddd573d6000803e3d6000fd5b505050505050505050565b609780546001600160a01b038381166001600160a01b0319831681179093556040519116919082907f8be0079c531659141344cd1fd0a4f28419497f9722a3daafe3b4186f6b6457e090600090a35050565b60405163177e569160e31b81526001600160a01b03858116600483015284811660248301526044820183905283919082169063bbf2b4889060640162001dad565b803b62001ee15760405162461bcd60e51b815260206004820152602d60248201527f455243313936373a206e657720696d706c656d656e746174696f6e206973206e60448201526c1bdd08184818dbdb9d1c9858dd609a1b60648201526084016200057a565b7f360894a13ba1a3210667c828492db98dca3e2076cc3735a920a3ca505d382bbc80546001600160a01b0319166001600160a01b0392909216919091179055565b6060823b62001f835760405162461bcd60e51b815260206004820152602660248201527f416464726573733a2064656c65676174652063616c6c20746f206e6f6e2d636f6044820152651b9d1c9858dd60d21b60648201526084016200057a565b600080846001600160a01b03168460405162001fa0919062002a41565b600060405180830381855af49150503d806000811462001fdd576040519150601f19603f3d011682016040523d82523d6000602084013e62001fe2565b606091505b50915091506200200d828260405180606001604052806027815260200162003ccc602791396200212f565b95945050505050565b620020218162001e7b565b6040516001600160a01b038216907fbc7cd75a20ee27fd9adebab32041f755214dbc6bffa90cc0225b39da2e5c2d3b90600090a250565b600054610100900460ff168062002072575060005460ff16155b620020915760405162461bcd60e51b81526004016200057a9062002c4d565b600054610100900460ff1615801562001c8d576000805461ffff19166101011790558015620003a8576000805461ff001916905550565b600054610100900460ff1680620020e2575060005460ff16155b620021015760405162461bcd60e51b81526004016200057a9062002c4d565b600054610100900460ff1615801562002124576000805461ffff19166101011790555b62001c8d3362001de8565b60608315620021405750816200054d565b825115620021515782518084602001fd5b8160405162461bcd60e51b81526004016200057a919062002e15565b6109938062002e2b83390190565b61050e80620037be83390190565b6000602082840312156200219c57600080fd5b5035919050565b80358015158114620021b457600080fd5b919050565b600080600060608486031215620021cf57600080fd5b8335925060208401359150620021e860408501620021a3565b90509250925092565b634e487b7160e01b600052604160045260246000fd5b604051601f8201601f1916810167ffffffffffffffff81118282101715620022335762002233620021f1565b604052919050565b600067ffffffffffffffff821115620022585762002258620021f1565b5060051b60200190565b6001600160a01b0381168114620003a857600080fd5b803563ffffffff81168114620021b457600080fd5b600082601f8301126200229f57600080fd5b81356020620022b8620022b2836200223b565b62002207565b82815260059290921b84018101918181019086841115620022d857600080fd5b8286015b84811015620022fe57620022f08162002278565b8352918301918301620022dc565b509695505050505050565b803561ffff81168114620021b457600080fd5b600082601f8301126200232e57600080fd5b8135602062002341620022b2836200223b565b82815260059290921b840181019181810190868411156200236157600080fd5b8286015b84811015620022fe57620023798162002309565b835291830191830162002365565b6000806000606084860312156200239d57600080fd5b833567ffffffffffffffff80821115620023b657600080fd5b818601915086601f830112620023cb57600080fd5b81356020620023de620022b2836200223b565b82815260059290921b8401810191818101908a841115620023fe57600080fd5b948201945b8386101562002429578535620024198162002262565b8252948201949082019062002403565b975050870135925050808211156200244057600080fd5b6200244e878388016200228d565b935060408601359150808211156200246557600080fd5b5062002474868287016200231c565b9150509250925092565b6000602082840312156200249157600080fd5b81356200054d8162002262565b60008060408385031215620024b257600080fd5b8235620024bf8162002262565b91506020830135620024d18162002262565b809150509250929050565b60008060408385031215620024f057600080fd5b8235620024fd8162002262565b915060208381013567ffffffffffffffff808211156200251c57600080fd5b818601915086601f8301126200253157600080fd5b813581811115620025465762002546620021f1565b6200255a601f8201601f1916850162002207565b915080825287848285010111156200257157600080fd5b80848401858401376000848284010152508093505050509250929050565b600082601f830112620025a157600080fd5b81356020620025b4620022b2836200223b565b82815260059290921b84018101918181019086841115620025d457600080fd5b8286015b84811015620022fe578035620025ee8162002262565b8352918301918301620025d8565b600082601f8301126200260e57600080fd5b8135602062002621620022b2836200223b565b82815260059290921b840181019181810190868411156200264157600080fd5b8286015b84811015620022fe578035835291830191830162002645565b600080600080608085870312156200267557600080fd5b843567ffffffffffffffff808211156200268e57600080fd5b6200269c888389016200258f565b95506020870135915080821115620026b357600080fd5b50620026c287828801620025fc565b93505060408501359150620026da60608601620021a3565b905092959194509250565b60ff81168114620003a857600080fd5b6000806000606084860312156200270b57600080fd5b8335620027188162002262565b9250602084013567ffffffffffffffff8111156200273557600080fd5b62002743868287016200258f565b92505060408401356200275681620026e5565b809150509250925092565b600080604083850312156200277557600080fd5b620027808362002309565b9150620027906020840162002309565b90509250929050565b60008060008060808587031215620027b057600080fd5b8435620027bd8162002262565b93506020850135620027cf8162002262565b9250604085013567ffffffffffffffff80821115620027ed57600080fd5b620027fb888389016200258f565b935060608701359150808211156200281257600080fd5b506200282187828801620025fc565b91505092959194509250565b6000602082840312156200284057600080fd5b6200054d8262002278565b600080604083850312156200285f57600080fd5b82356200286c8162002262565b9150602083013567ffffffffffffffff8111156200288957600080fd5b62002897858286016200258f565b9150509250929050565b600081518084526020808501945080840160005b83811015620028d357815187529582019590820190600101620028b5565b509495945050505050565b6020815260006200054d6020830184620028a1565b6000602082840312156200290657600080fd5b81516200054d8162002262565b60005b838110156200293057818101518382015260200162002916565b8381111562002940576000848401525b50505050565b600081518084526200296081602086016020860162002913565b601f01601f19169290920160200192915050565b6001600160a01b03831681526040602082018190526000906200299a9083018462002946565b949350505050565b6020808252601f908201527f5265656e7472616e637947756172643a207265656e7472616e742063616c6c00604082015260600190565b634e487b7160e01b600052603260045260246000fd5b60006020828403121562002a0257600080fd5b5051919050565b634e487b7160e01b600052601160045260246000fd5b600081600019048311821515161562002a3c5762002a3c62002a09565b500290565b6000825162002a5581846020870162002913565b9190910192915050565b6000821982111562002a755762002a7562002a09565b500190565b600061ffff8083168181141562002a955762002a9562002a09565b6001019392505050565b600081518084526020808501945080840160005b83811015620028d357815161ffff168752958201959082019060010162002ab3565b6080808252855190820181905260009060209060a0840190828901845b8281101562002b195781516001600160a01b03168452928401929084019060010162002af2565b5050508381038285015286518082528783019183019060005b8181101562002b5657835163ffffffff168352928401929184019160010162002b32565b5050848103604086015262002b6c818862002a9f565b935050505082606083015295945050505050565b6020808252602c908201527f46756e6374696f6e206d7573742062652063616c6c6564207468726f7567682060408201526b19195b1959d85d1958d85b1b60a21b606082015260800190565b6020808252602c908201527f46756e6374696f6e206d7573742062652063616c6c6564207468726f7567682060408201526b6163746976652070726f787960a01b606082015260800190565b6020808252818101527f4f776e61626c653a2063616c6c6572206973206e6f7420746865206f776e6572604082015260600190565b6020808252602e908201527f496e697469616c697a61626c653a20636f6e747261637420697320616c72656160408201526d191e481a5b9a5d1a585b1a5e995960921b606082015260800190565b600081518084526020808501945080840160005b83811015620028d35781516001600160a01b03168752958201959082019060010162002caf565b60408152600062002ceb604083018562002c9b565b82810360208401526200200d8185620028a1565b60018060a01b038716815285602082015260c06040820152600062002d2860c083018762002c9b565b828103606084015262002d3c8187620028a1565b6080840195909552505090151560a090910152949350505050565b805169ffffffffffffffffffff81168114620021b457600080fd5b600080600080600060a0868803121562002d8b57600080fd5b62002d968662002d57565b945060208601519350604086015192506060860151915062002dbb6080870162002d57565b90509295509295909350565b6000806000806080858703121562002dde57600080fd5b84519350602085015162002df281620026e5565b604086015190935062002e058162002262565b6060959095015193969295505050565b6020815260006200054d60208301846200294656fe608060405260405161099338038061099383398101604081905261002291610497565b61004d60017fa3f0ad74e5423aebfd80d3ef4346578335a9a72aeaee59ff6cb3582b35133d51610557565b60008051602061094c833981519152146100695761006961057c565b6100758282600061007c565b50506105fc565b61008583610156565b6040516001600160a01b038416907f1cf3b03a6cf19fa2baba4df148e9dcabedea7f8a5c07840e207e5c089be95d3e90600090a26000825111806100c65750805b156101515761014f836001600160a01b0316635c60da1b6040518163ffffffff1660e01b815260040160206040518083038186803b15801561010757600080fd5b505afa15801561011b573d6000803e3d6000fd5b505050506040513d601f19601f8201168201806040525081019061013f9190610592565b836102f660201b6100291760201c565b505b505050565b6101698161032260201b6100551760201c565b6101c85760405162461bcd60e51b815260206004820152602560248201527f455243313936373a206e657720626561636f6e206973206e6f74206120636f6e6044820152641d1c9858dd60da1b60648201526084015b60405180910390fd5b61024b816001600160a01b0316635c60da1b6040518163ffffffff1660e01b815260040160206040518083038186803b15801561020457600080fd5b505afa158015610218573d6000803e3d6000fd5b505050506040513d601f19601f8201168201806040525081019061023c9190610592565b61032260201b6100551760201c565b6102b05760405162461bcd60e51b815260206004820152603060248201527f455243313936373a20626561636f6e20696d706c656d656e746174696f6e206960448201526f1cc81b9bdd08184818dbdb9d1c9858dd60821b60648201526084016101bf565b806102d560008051602061094c83398151915260001b61032860201b61005b1760201c565b80546001600160a01b0319166001600160a01b039290921691909117905550565b606061031b838360405180606001604052806027815260200161096c6027913961032b565b9392505050565b3b151590565b90565b6060833b61038a5760405162461bcd60e51b815260206004820152602660248201527f416464726573733a2064656c65676174652063616c6c20746f206e6f6e2d636f6044820152651b9d1c9858dd60d21b60648201526084016101bf565b600080856001600160a01b0316856040516103a591906105ad565b600060405180830381855af49150503d80600081146103e0576040519150601f19603f3d011682016040523d82523d6000602084013e6103e5565b606091505b5090925090506103f6828286610400565b9695505050505050565b6060831561040f57508161031b565b82511561041f5782518084602001fd5b8160405162461bcd60e51b81526004016101bf91906105c9565b80516001600160a01b038116811461045057600080fd5b919050565b634e487b7160e01b600052604160045260246000fd5b60005b8381101561048657818101518382015260200161046e565b8381111561014f5750506000910152565b600080604083850312156104aa57600080fd5b6104b383610439565b60208401519092506001600160401b03808211156104d057600080fd5b818501915085601f8301126104e457600080fd5b8151818111156104f6576104f6610455565b604051601f8201601f19908116603f0116810190838211818310171561051e5761051e610455565b8160405282815288602084870101111561053757600080fd5b61054883602083016020880161046b565b80955050505050509250929050565b60008282101561057757634e487b7160e01b600052601160045260246000fd5b500390565b634e487b7160e01b600052600160045260246000fd5b6000602082840312156105a457600080fd5b61031b82610439565b600082516105bf81846020870161046b565b9190910192915050565b60208152600082518060208401526105e881604085016020870161046b565b601f01601f19169190910160400192915050565b6103418061060b6000396000f3fe60806040523661001357610011610017565b005b6100115b61002761002261005e565b610106565b565b606061004e83836040518060600160405280602781526020016102e56027913961012a565b9392505050565b3b151590565b90565b60006100917fa3f0ad74e5423aebfd80d3ef4346578335a9a72aeaee59ff6cb3582b35133d50546001600160a01b031690565b6001600160a01b0316635c60da1b6040518163ffffffff1660e01b815260040160206040518083038186803b1580156100c957600080fd5b505afa1580156100dd573d6000803e3d6000fd5b505050506040513d601f19601f82011682018060405250810190610101919061023c565b905090565b3660008037600080366000845af43d6000803e808015610125573d6000f35b3d6000fd5b6060833b61018e5760405162461bcd60e51b815260206004820152602660248201527f416464726573733a2064656c65676174652063616c6c20746f206e6f6e2d636f6044820152651b9d1c9858dd60d21b60648201526084015b60405180910390fd5b600080856001600160a01b0316856040516101a99190610295565b600060405180830381855af49150503d80600081146101e4576040519150601f19603f3d011682016040523d82523d6000602084013e6101e9565b606091505b50915091506101f9828286610203565b9695505050505050565b6060831561021257508161004e565b8251156102225782518084602001fd5b8160405162461bcd60e51b815260040161018591906102b1565b60006020828403121561024e57600080fd5b81516001600160a01b038116811461004e57600080fd5b60005b83811015610280578181015183820152602001610268565b8381111561028f576000848401525b50505050565b600082516102a7818460208701610265565b9190910192915050565b60208152600082518060208401526102d0816040850160208701610265565b601f01601f1916919091016040019291505056fe416464726573733a206c6f772d6c6576656c2064656c65676174652063616c6c206661696c6564a2646970667358221220fae3cdddb10810ed113b9502162880a3e68ff3b0fca7548d2060b922bf64b9ff64736f6c63430008080033a3f0ad74e5423aebfd80d3ef4346578335a9a72aeaee59ff6cb3582b35133d50416464726573733a206c6f772d6c6576656c2064656c65676174652063616c6c206661696c6564608060405234801561001057600080fd5b5060405161050e38038061050e83398101604081905261002f91610148565b61003833610047565b61004181610097565b50610178565b600080546001600160a01b038381166001600160a01b0319831681178455604051919092169283917f8be0079c531659141344cd1fd0a4f28419497f9722a3daafe3b4186f6b6457e09190a35050565b6100aa8161014260201b61020a1760201c565b6101205760405162461bcd60e51b815260206004820152603360248201527f5570677261646561626c65426561636f6e3a20696d706c656d656e746174696f60448201527f6e206973206e6f74206120636f6e747261637400000000000000000000000000606482015260840160405180910390fd5b600180546001600160a01b0319166001600160a01b0392909216919091179055565b3b151590565b60006020828403121561015a57600080fd5b81516001600160a01b038116811461017157600080fd5b9392505050565b610387806101876000396000f3fe608060405234801561001057600080fd5b50600436106100575760003560e01c80633659cfe61461005c5780635c60da1b14610071578063715018a61461009a5780638da5cb5b146100a2578063f2fde38b146100b3575b600080fd5b61006f61006a3660046102ec565b6100c6565b005b6001546001600160a01b03165b6040516001600160a01b03909116815260200160405180910390f35b61006f610139565b6000546001600160a01b031661007e565b61006f6100c13660046102ec565b61016f565b6000546001600160a01b031633146100f95760405162461bcd60e51b81526004016100f09061031c565b60405180910390fd5b61010281610210565b6040516001600160a01b038216907fbc7cd75a20ee27fd9adebab32041f755214dbc6bffa90cc0225b39da2e5c2d3b90600090a250565b6000546001600160a01b031633146101635760405162461bcd60e51b81526004016100f09061031c565b61016d600061029c565b565b6000546001600160a01b031633146101995760405162461bcd60e51b81526004016100f09061031c565b6001600160a01b0381166101fe5760405162461bcd60e51b815260206004820152602660248201527f4f776e61626c653a206e6577206f776e657220697320746865207a65726f206160448201526564647265737360d01b60648201526084016100f0565b6102078161029c565b50565b3b151590565b803b61027a5760405162461bcd60e51b815260206004820152603360248201527f5570677261646561626c65426561636f6e3a20696d706c656d656e746174696f6044820152721b881a5cc81b9bdd08184818dbdb9d1c9858dd606a1b60648201526084016100f0565b600180546001600160a01b0319166001600160a01b0392909216919091179055565b600080546001600160a01b038381166001600160a01b0319831681178455604051919092169283917f8be0079c531659141344cd1fd0a4f28419497f9722a3daafe3b4186f6b6457e09190a35050565b6000602082840312156102fe57600080fd5b81356001600160a01b038116811461031557600080fd5b9392505050565b6020808252818101527f4f776e61626c653a2063616c6c6572206973206e6f7420746865206f776e657260408201526060019056fea264697066735822122083ad6cb6fa6a19bc4fdd834c47ccbd8e108171d4c48fdb9fa20c42614a448f9864736f6c63430008080033416464726573733a206c6f772d6c6576656c2064656c65676174652063616c6c206661696c6564a2646970667358221220d0662b88d62825e0dd644e197d1fe198f3535a6b729e554fdac14bfc56a9c58e64736f6c63430008080033",
  "linkReferences": {},
  "deployedLinkReferences": {}
}