{
  "_format": "hh-sol-artifact-1",
  "contractName": "SliceCore",
  "sourceName": "contracts/sliceCore_v0.sol",
  "abi": [
    {
      "anonymous": false,
      "inputs": [
        {
          "indexed": false,
          "internalType": "address",
          "name": "previousAdmin",
          "type": "address"
        },
        {
          "indexed": false,
          "internalType": "address",
          "name": "newAdmin",
          "type": "address"
        }
      ],
      "name": "AdminChanged",
      "type": "event"
    },
    {
      "anonymous": false,
      "inputs": [
        {
          "indexed": true,
          "internalType": "address",
          "name": "account",
          "type": "address"
        },
        {
          "indexed": true,
          "internalType": "address",
          "name": "operator",
          "type": "address"
        },
        {
          "indexed": false,
          "internalType": "bool",
          "name": "approved",
          "type": "bool"
        }
      ],
      "name": "ApprovalForAll",
      "type": "event"
    },
    {
      "anonymous": false,
      "inputs": [
        {
          "indexed": true,
          "internalType": "address",
          "name": "beacon",
          "type": "address"
        }
      ],
      "name": "BeaconUpgraded",
      "type": "event"
    },
    {
      "anonymous": false,
      "inputs": [
        {
          "indexed": true,
          "internalType": "address",
          "name": "previousOwner",
          "type": "address"
        },
        {
          "indexed": true,
          "internalType": "address",
          "name": "newOwner",
          "type": "address"
        }
      ],
      "name": "OwnershipTransferred",
      "type": "event"
    },
    {
      "anonymous": false,
      "inputs": [
        {
          "indexed": false,
          "internalType": "address",
          "name": "account",
          "type": "address"
        }
      ],
      "name": "Paused",
      "type": "event"
    },
    {
      "anonymous": false,
      "inputs": [
        {
          "indexed": true,
          "internalType": "address",
          "name": "operator",
          "type": "address"
        },
        {
          "indexed": true,
          "internalType": "address",
          "name": "from",
          "type": "address"
        },
        {
          "indexed": true,
          "internalType": "address",
          "name": "to",
          "type": "address"
        },
        {
          "indexed": false,
          "internalType": "uint256[]",
          "name": "ids",
          "type": "uint256[]"
        },
        {
          "indexed": false,
          "internalType": "uint256[]",
          "name": "values",
          "type": "uint256[]"
        }
      ],
      "name": "TransferBatch",
      "type": "event"
    },
    {
      "anonymous": false,
      "inputs": [
        {
          "indexed": true,
          "internalType": "address",
          "name": "operator",
          "type": "address"
        },
        {
          "indexed": true,
          "internalType": "address",
          "name": "from",
          "type": "address"
        },
        {
          "indexed": true,
          "internalType": "address",
          "name": "to",
          "type": "address"
        },
        {
          "indexed": false,
          "internalType": "uint256",
          "name": "id",
          "type": "uint256"
        },
        {
          "indexed": false,
          "internalType": "uint256",
          "name": "value",
          "type": "uint256"
        }
      ],
      "name": "TransferSingle",
      "type": "event"
    },
    {
      "anonymous": false,
      "inputs": [
        {
          "indexed": false,
          "internalType": "string",
          "name": "value",
          "type": "string"
        },
        {
          "indexed": true,
          "internalType": "uint256",
          "name": "id",
          "type": "uint256"
        }
      ],
      "name": "URI",
      "type": "event"
    },
    {
      "anonymous": false,
      "inputs": [
        {
          "indexed": false,
          "internalType": "address",
          "name": "account",
          "type": "address"
        }
      ],
      "name": "Unpaused",
      "type": "event"
    },
    {
      "anonymous": false,
      "inputs": [
        {
          "indexed": true,
          "internalType": "address",
          "name": "implementation",
          "type": "address"
        }
      ],
      "name": "Upgraded",
      "type": "event"
    },
    {
      "inputs": [
        {
          "internalType": "address",
          "name": "categoryAddress_",
          "type": "address"
        }
      ],
      "name": "_addCategory",
      "outputs": [],
      "stateMutability": "nonpayable",
      "type": "function"
    },
    {
      "inputs": [
        {
          "internalType": "uint32",
          "name": "categoryIndex",
          "type": "uint32"
        },
        {
          "internalType": "address",
          "name": "newCategoryAddress",
          "type": "address"
        }
      ],
      "name": "_changeCategoryAddress",
      "outputs": [],
      "stateMutability": "nonpayable",
      "type": "function"
    },
    {
      "inputs": [
        {
          "internalType": "address",
          "name": "account",
          "type": "address"
        },
        {
          "internalType": "uint256",
          "name": "id",
          "type": "uint256"
        },
        {
          "internalType": "uint256",
          "name": "amount",
          "type": "uint256"
        },
        {
          "internalType": "address",
          "name": "slicerAddress",
          "type": "address"
        }
      ],
      "name": "_mintSlice",
      "outputs": [],
      "stateMutability": "nonpayable",
      "type": "function"
    },
    {
      "inputs": [
        {
          "internalType": "string",
          "name": "basePath_",
          "type": "string"
        }
      ],
      "name": "_setBasePath",
      "outputs": [],
      "stateMutability": "nonpayable",
      "type": "function"
    },
    {
      "inputs": [
        {
          "internalType": "uint16",
          "name": "newValue",
          "type": "uint16"
        }
      ],
      "name": "_setMaximumTransferBatch",
      "outputs": [],
      "stateMutability": "nonpayable",
      "type": "function"
    },
    {
      "inputs": [],
      "name": "_togglePause",
      "outputs": [],
      "stateMutability": "nonpayable",
      "type": "function"
    },
    {
      "inputs": [
        {
          "internalType": "address",
          "name": "account",
          "type": "address"
        },
        {
          "internalType": "uint256",
          "name": "id",
          "type": "uint256"
        }
      ],
      "name": "balanceOf",
      "outputs": [
        {
          "internalType": "uint256",
          "name": "",
          "type": "uint256"
        }
      ],
      "stateMutability": "view",
      "type": "function"
    },
    {
      "inputs": [
        {
          "internalType": "address[]",
          "name": "accounts",
          "type": "address[]"
        },
        {
          "internalType": "uint256[]",
          "name": "ids",
          "type": "uint256[]"
        }
      ],
      "name": "balanceOfBatch",
      "outputs": [
        {
          "internalType": "uint256[]",
          "name": "",
          "type": "uint256[]"
        }
      ],
      "stateMutability": "view",
      "type": "function"
    },
    {
      "inputs": [
        {
          "internalType": "uint32",
          "name": "categoryIndex",
          "type": "uint32"
        }
      ],
      "name": "categoryAddress",
      "outputs": [
        {
          "internalType": "address",
          "name": "",
          "type": "address"
        }
      ],
      "stateMutability": "view",
      "type": "function"
    },
    {
      "inputs": [
        {
          "internalType": "uint256",
          "name": "id",
          "type": "uint256"
        }
      ],
      "name": "exists",
      "outputs": [
        {
          "internalType": "bool",
          "name": "",
          "type": "bool"
        }
      ],
      "stateMutability": "view",
      "type": "function"
    },
    {
      "inputs": [],
      "name": "initialize",
      "outputs": [],
      "stateMutability": "nonpayable",
      "type": "function"
    },
    {
      "inputs": [
        {
          "internalType": "address",
          "name": "account",
          "type": "address"
        },
        {
          "internalType": "address",
          "name": "operator",
          "type": "address"
        }
      ],
      "name": "isApprovedForAll",
      "outputs": [
        {
          "internalType": "bool",
          "name": "",
          "type": "bool"
        }
      ],
      "stateMutability": "view",
      "type": "function"
    },
    {
      "inputs": [],
      "name": "owner",
      "outputs": [
        {
          "internalType": "address",
          "name": "",
          "type": "address"
        }
      ],
      "stateMutability": "view",
      "type": "function"
    },
    {
      "inputs": [],
      "name": "paused",
      "outputs": [
        {
          "internalType": "bool",
          "name": "",
          "type": "bool"
        }
      ],
      "stateMutability": "view",
      "type": "function"
    },
    {
      "inputs": [
        {
          "internalType": "address",
          "name": "from",
          "type": "address"
        },
        {
          "internalType": "address",
          "name": "to",
          "type": "address"
        },
        {
          "internalType": "uint256[]",
          "name": "ids",
          "type": "uint256[]"
        },
        {
          "internalType": "uint256[]",
          "name": "amounts",
          "type": "uint256[]"
        },
        {
          "internalType": "bytes",
          "name": "data",
          "type": "bytes"
        }
      ],
      "name": "safeBatchTransferFrom",
      "outputs": [],
      "stateMutability": "nonpayable",
      "type": "function"
    },
    {
      "inputs": [
        {
          "internalType": "address",
          "name": "from",
          "type": "address"
        },
        {
          "internalType": "address",
          "name": "to",
          "type": "address"
        },
        {
          "internalType": "uint256",
          "name": "id",
          "type": "uint256"
        },
        {
          "internalType": "uint256",
          "name": "amount",
          "type": "uint256"
        },
        {
          "internalType": "bytes",
          "name": "data",
          "type": "bytes"
        }
      ],
      "name": "safeTransferFrom",
      "outputs": [],
      "stateMutability": "nonpayable",
      "type": "function"
    },
    {
      "inputs": [
        {
          "internalType": "address",
          "name": "operator",
          "type": "address"
        },
        {
          "internalType": "bool",
          "name": "approved",
          "type": "bool"
        }
      ],
      "name": "setApprovalForAll",
      "outputs": [],
      "stateMutability": "nonpayable",
      "type": "function"
    },
    {
      "inputs": [
        {
          "internalType": "address",
          "name": "from",
          "type": "address"
        },
        {
          "internalType": "address[]",
          "name": "recipients",
          "type": "address[]"
        },
        {
          "internalType": "uint256",
          "name": "id",
          "type": "uint256"
        },
        {
          "internalType": "uint256[]",
          "name": "amounts",
          "type": "uint256[]"
        }
      ],
      "name": "slicerBatchTransfer",
      "outputs": [],
      "stateMutability": "nonpayable",
      "type": "function"
    },
    {
      "inputs": [
        {
          "internalType": "uint256",
          "name": "id",
          "type": "uint256"
        }
      ],
      "name": "slicers",
      "outputs": [
        {
          "internalType": "address",
          "name": "",
          "type": "address"
        }
      ],
      "stateMutability": "view",
      "type": "function"
    },
    {
      "inputs": [
        {
          "internalType": "bytes4",
          "name": "interfaceId",
          "type": "bytes4"
        }
      ],
      "name": "supportsInterface",
      "outputs": [
        {
          "internalType": "bool",
          "name": "",
          "type": "bool"
        }
      ],
      "stateMutability": "view",
      "type": "function"
    },
    {
      "inputs": [
        {
          "internalType": "uint256",
          "name": "id",
          "type": "uint256"
        }
      ],
      "name": "totalSupply",
      "outputs": [
        {
          "internalType": "uint256",
          "name": "",
          "type": "uint256"
        }
      ],
      "stateMutability": "view",
      "type": "function"
    },
    {
      "inputs": [
        {
          "internalType": "address",
          "name": "newOwner",
          "type": "address"
        }
      ],
      "name": "transferOwnership",
      "outputs": [],
      "stateMutability": "nonpayable",
      "type": "function"
    },
    {
      "inputs": [
        {
          "internalType": "address",
          "name": "newImplementation",
          "type": "address"
        }
      ],
      "name": "upgradeTo",
      "outputs": [],
      "stateMutability": "nonpayable",
      "type": "function"
    },
    {
      "inputs": [
        {
          "internalType": "address",
          "name": "newImplementation",
          "type": "address"
        },
        {
          "internalType": "bytes",
          "name": "data",
          "type": "bytes"
        }
      ],
      "name": "upgradeToAndCall",
      "outputs": [],
      "stateMutability": "payable",
      "type": "function"
    },
    {
      "inputs": [
        {
          "internalType": "uint256",
          "name": "",
          "type": "uint256"
        }
      ],
      "name": "uri",
      "outputs": [
        {
          "internalType": "string",
          "name": "",
          "type": "string"
        }
      ],
      "stateMutability": "view",
      "type": "function"
    }
  ],
  "bytecode": "0x60a06040523060601b60805234801561001757600080fd5b5060805160601c612fdc61004b60003960008181610ab601528181610af601528181610ddb0152610e1b0152612fdc6000f3fe6080604052600436106101655760003560e01c80634e1273f4116100d15780638da5cb5b1161008a578063e0ba52b911610064578063e0ba52b914610470578063e985e9c514610490578063f242432a146104d9578063f2fde38b146104f957600080fd5b80638da5cb5b14610404578063a22cb46514610422578063bd85b0391461044257600080fd5b80634e1273f4146103295780634f1ef286146103565780634f558e7914610369578063588d1be7146103995780635c975abb146103d65780638129fc1c146103ef57600080fd5b806328eeb3e91161012357806328eeb3e9146102745780632eb2c2d614610294578063303cd08a146102b45780633659cfe6146102d45780633ee70cb9146102f4578063405b4c361461031457600080fd5b8062fdd58e1461016a57806301ffc9a71461019d578063059f424f146101cd57806308edd70c146101ef5780630e89341c1461020f578063175fa7ea1461023c575b600080fd5b34801561017657600080fd5b5061018a6101853660046123cf565b610519565b6040519081526020015b60405180910390f35b3480156101a957600080fd5b506101bd6101b836600461240f565b6105b2565b6040519015158152602001610194565b3480156101d957600080fd5b506101ed6101e83660046124cd565b610604565b005b3480156101fb57600080fd5b506101ed61020a36600461251e565b610683565b34801561021b57600080fd5b5061022f61022a366004612539565b610718565b60405161019491906125ae565b34801561024857600080fd5b5061025c610257366004612539565b6107ac565b6040516001600160a01b039091168152602001610194565b34801561028057600080fd5b506101ed61028f3660046125c1565b610821565b3480156102a057600080fd5b506101ed6102af36600461269a565b610879565b3480156102c057600080fd5b506101ed6102cf366004612744565b610a34565b3480156102e057600080fd5b506101ed6102ef36600461251e565b610aab565b34801561030057600080fd5b506101ed61030f36600461279e565b610b71565b34801561032057600080fd5b506101ed610c49565b34801561033557600080fd5b5061034961034436600461283e565b610ca6565b60405161019491906128dd565b6101ed6103643660046128f0565b610dd0565b34801561037557600080fd5b506101bd610384366004612539565b60009081526101946020526040902054151590565b3480156103a557600080fd5b5061025c6103b4366004612934565b63ffffffff16600090815261019760205260409020546001600160a01b031690565b3480156103e257600080fd5b5061012e5460ff166101bd565b3480156103fb57600080fd5b506101ed610e8a565b34801561041057600080fd5b5060fc546001600160a01b031661025c565b34801561042e57600080fd5b506101ed61043d36600461294f565b610f91565b34801561044e57600080fd5b5061018a61045d366004612539565b6000908152610194602052604090205490565b34801561047c57600080fd5b506101ed61048b36600461298b565b611068565b34801561049c57600080fd5b506101bd6104ab366004612a09565b6001600160a01b03918216600090815260666020908152604080832093909416825291909152205460ff1690565b3480156104e557600080fd5b506101ed6104f4366004612a25565b611198565b34801561050557600080fd5b506101ed61051436600461251e565b6112c5565b60006001600160a01b03831661058a5760405162461bcd60e51b815260206004820152602b60248201527f455243313135353a2062616c616e636520717565727920666f7220746865207a60448201526a65726f206164647265737360a81b60648201526084015b60405180910390fd5b5060009081526065602090815260408083206001600160a01b03949094168352929052205490565b60006001600160e01b03198216636cdb3d1360e11b14806105e357506001600160e01b031982166303a24d0760e21b145b806105fe57506301ffc9a760e01b6001600160e01b03198316145b92915050565b60fc546001600160a01b0316331480610627575060fb546001600160a01b031633145b6106435760405162461bcd60e51b815260040161058190612a8a565b80516106579061019390602084019061231a565b506106808160405160200161066c9190612abf565b6040516020818303038152906040526113b6565b50565b60fc546001600160a01b03163314806106a6575060fb546001600160a01b031633145b6106c25760405162461bcd60e51b815260040161058190612a8a565b6106d161019680546001019055565b8061019760006106e16101965490565b63ffffffff168152602081019190915260400160002080546001600160a01b0319166001600160a01b039290921691909117905550565b60606067805461072790612ae7565b80601f016020809104026020016040519081016040528092919081815260200182805461075390612ae7565b80156107a05780601f10610775576101008083540402835291602001916107a0565b820191906000526020600020905b81548152906001019060200180831161078357829003601f168201915b50505050509050919050565b6000818152610194602052604081205415156001146108045760405162461bcd60e51b815260206004820152601460248201527314db1a58d95c88191bd95cdb89dd08195e1a5cdd60621b6044820152606401610581565b50600090815261019560205260409020546001600160a01b031690565b60fc546001600160a01b0316331480610844575060fb546001600160a01b031633145b6108605760405162461bcd60e51b815260040161058190612a8a565b610192805461ffff191661ffff92909216919091179055565b61019254835161ffff90911610156108d35760405162461bcd60e51b815260206004820152601b60248201527f546f6f206d616e7920746f6b656e73207472616e7366657272656400000000006044820152606401610581565b6000835167ffffffffffffffff8111156108ef576108ef61242c565b604051908082528060200260200182016040528015610918578160200160208202803683370190505b50905060005b84518163ffffffff1610156109b6576101956000868363ffffffff168151811061094a5761094a612b22565b6020026020010151815260200190815260200160002060009054906101000a90046001600160a01b0316828263ffffffff168151811061098c5761098c612b22565b6001600160a01b0390921660209283029190910190910152806109ae81612b4e565b91505061091e565b5060fc54604051631b5cfaa360e31b81526001600160a01b039091169063dae7d518906109ed908990899086908990600401612b72565b600060405180830381600087803b158015610a0757600080fd5b505af1158015610a1b573d6000803e3d6000fd5b50505050610a2c86868686866113c9565b505050505050565b60fc546001600160a01b03163314610a5e5760405162461bcd60e51b815260040161058190612a8a565b610a7984848460405180602001604052806000815250611459565b6000928352610195602052604090922080546001600160a01b0319166001600160a01b03909316929092179091555050565b306001600160a01b037f0000000000000000000000000000000000000000000000000000000000000000161415610af45760405162461bcd60e51b815260040161058190612be8565b7f00000000000000000000000000000000000000000000000000000000000000006001600160a01b0316610b2661148f565b6001600160a01b031614610b4c5760405162461bcd60e51b815260040161058190612c34565b610b55816114bd565b60408051600080825260208201909252610680918391906114e7565b60fc546001600160a01b0316331480610b94575060fb546001600160a01b031633145b610bb05760405162461bcd60e51b815260040161058190612a8a565b63ffffffff821615801590610bce5750610196548263ffffffff1611155b610c125760405162461bcd60e51b81526020600482015260156024820152744e6f6e2d6578697374656e742063617465676f727960581b6044820152606401610581565b63ffffffff9190911660009081526101976020526040902080546001600160a01b0319166001600160a01b03909216919091179055565b60fc546001600160a01b0316331480610c6c575060fb546001600160a01b031633145b610c885760405162461bcd60e51b815260040161058190612a8a565b61012e5460ff1615610c9e57610c9c61162b565b565b610c9c6116c0565b60608151835114610d0b5760405162461bcd60e51b815260206004820152602960248201527f455243313135353a206163636f756e747320616e6420696473206c656e677468604482015268040dad2e6dac2e8c6d60bb1b6064820152608401610581565b6000835167ffffffffffffffff811115610d2757610d2761242c565b604051908082528060200260200182016040528015610d50578160200160208202803683370190505b50905060005b8451811015610dc857610d9b858281518110610d7457610d74612b22565b6020026020010151858381518110610d8e57610d8e612b22565b6020026020010151610519565b828281518110610dad57610dad612b22565b6020908102919091010152610dc181612c80565b9050610d56565b509392505050565b306001600160a01b037f0000000000000000000000000000000000000000000000000000000000000000161415610e195760405162461bcd60e51b815260040161058190612be8565b7f00000000000000000000000000000000000000000000000000000000000000006001600160a01b0316610e4b61148f565b6001600160a01b031614610e715760405162461bcd60e51b815260040161058190612c34565b610e7a826114bd565b610e86828260016114e7565b5050565b600054610100900460ff1680610ea3575060005460ff16155b610ebf5760405162461bcd60e51b815260040161058190612c9b565b600054610100900460ff16158015610ee1576000805461ffff19166101011790555b610f1f6040518060400160405280602081526020017f68747470733a2f2f736c6963652e736f2f6170692f736c696365722f7b69647d81525061173d565b610f28336117c2565b610192805461ffff1916601e17905560408051808201909152601c8082527f68747470733a2f2f736c6963652e736f2f6170692f736c696365722f000000006020909201918252610f7c916101939161231a565b508015610680576000805461ff001916905550565b336001600160a01b0383161415610ffc5760405162461bcd60e51b815260206004820152602960248201527f455243313135353a2073657474696e6720617070726f76616c20737461747573604482015268103337b91039b2b63360b91b6064820152608401610581565b3360008181526066602090815260408083206001600160a01b03871680855290835292819020805460ff191686151590811790915590519081529192917f17307eab39ab6107e8899845ad3d59bd9653f200f220920489ca2b5937696c31910160405180910390a35050565b80518351146110b95760405162461bcd60e51b815260206004820152601760248201527f496e7075747320646f6e277420636f72726573706f6e640000000000000000006044820152606401610581565b61019254835161ffff90911610156111135760405162461bcd60e51b815260206004820152601b60248201527f546f6f206d616e7920746f6b656e73207472616e7366657272656400000000006044820152606401610581565b60005b83518163ffffffff1610156111915761117f85858363ffffffff168151811061114157611141612b22565b602002602001015185858563ffffffff168151811061116257611162612b22565b602002602001015160405180602001604052806000815250611198565b8061118981612b4e565b915050611116565b5050505050565b6040805160018082528183019092526000916020808301908036833750506040805160018082528183019092529293506000929150602080830190803683375050506000868152610195602052604081205484519293506001600160a01b03169184919061120857611208612b22565b60200260200101906001600160a01b031690816001600160a01b031681525050838160008151811061123c5761123c612b22565b602090810291909101015260fc54604051631b5cfaa360e31b81526001600160a01b039091169063dae7d5189061127d908a908a9087908790600401612b72565b600060405180830381600087803b15801561129757600080fd5b505af11580156112ab573d6000803e3d6000fd5b505050506112bc878787878761182a565b50505050505050565b60fc546001600160a01b03163314806112e8575060fb546001600160a01b031633145b6113045760405162461bcd60e51b815260040161058190612a8a565b6001600160a01b03811661135a5760405162461bcd60e51b815260206004820152601d60248201527f4e6577206f776e657220697320746865207a65726f20616464726573730000006044820152606401610581565b60fc546040516001600160a01b038084169216907f8be0079c531659141344cd1fd0a4f28419497f9722a3daafe3b4186f6b6457e090600090a360fc80546001600160a01b0319166001600160a01b0392909216919091179055565b8051610e8690606790602084019061231a565b6001600160a01b0385163314806113e557506113e585336104ab565b61144c5760405162461bcd60e51b815260206004820152603260248201527f455243313135353a207472616e736665722063616c6c6572206973206e6f74206044820152711bdddb995c881b9bdc88185c1c1c9bdd995960721b6064820152608401610581565b61119185858585856118b1565b61146584848484611a97565b6000838152610194602052604081208054849290611484908490612ce9565b909155505050505050565b7f360894a13ba1a3210667c828492db98dca3e2076cc3735a920a3ca505d382bbc546001600160a01b031690565b60fc546001600160a01b031633146106805760405162461bcd60e51b815260040161058190612a8a565b60006114f161148f565b90506114fc84611ba9565b6000835111806115095750815b1561151a576115188484611c4e565b505b7f4910fdfa16fed3260ed0e7147f7cc6da11a60208b5b9406d12a635614ffd9143805460ff1661119157805460ff191660011781556040516001600160a01b038316602482015261159990869060440160408051601f198184030181529190526020810180516001600160e01b0316631b2ce7f360e11b179052611c4e565b50805460ff191681556115aa61148f565b6001600160a01b0316826001600160a01b0316146116225760405162461bcd60e51b815260206004820152602f60248201527f45524331393637557067726164653a207570677261646520627265616b73206660448201526e75727468657220757067726164657360881b6064820152608401610581565b61119185611d39565b61012e5460ff166116755760405162461bcd60e51b815260206004820152601460248201527314185d5cd8589b194e881b9bdd081c185d5cd95960621b6044820152606401610581565b61012e805460ff191690557f5db9ee0a495bf2e6ff9c91a7834c1ba4fdd244a5e8aa4e537bd38aeae4b073aa335b6040516001600160a01b03909116815260200160405180910390a1565b61012e5460ff16156117075760405162461bcd60e51b815260206004820152601060248201526f14185d5cd8589b194e881c185d5cd95960821b6044820152606401610581565b61012e805460ff191660011790557f62e78cea01bee320cd4e420270b5ea74000d11b0c9f74754ebdbfc544b05a2586116a33390565b600054610100900460ff1680611756575060005460ff16155b6117725760405162461bcd60e51b815260040161058190612c9b565b600054610100900460ff16158015611794576000805461ffff19166101011790555b61179c611d79565b6117a4611d79565b6117ad82611de4565b8015610e86576000805461ff00191690555050565b600054610100900460ff16806117db575060005460ff16155b6117f75760405162461bcd60e51b815260040161058190612c9b565b600054610100900460ff16158015611819576000805461ffff19166101011790555b611821611d79565b6117ad82611e44565b6001600160a01b038516331480611846575061184685336104ab565b6118a45760405162461bcd60e51b815260206004820152602960248201527f455243313135353a2063616c6c6572206973206e6f74206f776e6572206e6f7260448201526808185c1c1c9bdd995960ba1b6064820152608401610581565b6111918585858585611ed9565b81518351146119135760405162461bcd60e51b815260206004820152602860248201527f455243313135353a2069647320616e6420616d6f756e7473206c656e677468206044820152670dad2e6dac2e8c6d60c31b6064820152608401610581565b6001600160a01b0384166119395760405162461bcd60e51b815260040161058190612d01565b33611948818787878787611ff1565b60005b8451811015611a3157600085828151811061196857611968612b22565b60200260200101519050600085838151811061198657611986612b22565b60209081029190910181015160008481526065835260408082206001600160a01b038e1683529093529190912054909150818110156119d75760405162461bcd60e51b815260040161058190612d46565b60008381526065602090815260408083206001600160a01b038e8116855292528083208585039055908b16825281208054849290611a16908490612ce9565b9250508190555050505080611a2a90612c80565b905061194b565b50846001600160a01b0316866001600160a01b0316826001600160a01b03167f4a39dc06d4c0dbc64b70af90fd698a233a518aa5d07e595d983b8c0526c8f7fb8787604051611a81929190612d90565b60405180910390a4610a2c81878787878761205a565b6001600160a01b038416611af75760405162461bcd60e51b815260206004820152602160248201527f455243313135353a206d696e7420746f20746865207a65726f206164647265736044820152607360f81b6064820152608401610581565b33611b1781600087611b08886121c5565b611b11886121c5565b87611ff1565b60008481526065602090815260408083206001600160a01b038916845290915281208054859290611b49908490612ce9565b909155505060408051858152602081018590526001600160a01b0380881692600092918516917fc3d58168c5ae7397731d063d5bbf3d657854427343f4c083240f7aacaa2d0f62910160405180910390a461119181600087878787612210565b803b611c0d5760405162461bcd60e51b815260206004820152602d60248201527f455243313936373a206e657720696d706c656d656e746174696f6e206973206e60448201526c1bdd08184818dbdb9d1c9858dd609a1b6064820152608401610581565b7f360894a13ba1a3210667c828492db98dca3e2076cc3735a920a3ca505d382bbc80546001600160a01b0319166001600160a01b0392909216919091179055565b6060823b611cad5760405162461bcd60e51b815260206004820152602660248201527f416464726573733a2064656c65676174652063616c6c20746f206e6f6e2d636f6044820152651b9d1c9858dd60d21b6064820152608401610581565b600080846001600160a01b031684604051611cc89190612db5565b600060405180830381855af49150503d8060008114611d03576040519150601f19603f3d011682016040523d82523d6000602084013e611d08565b606091505b5091509150611d308282604051806060016040528060278152602001612f80602791396122da565b95945050505050565b611d4281611ba9565b6040516001600160a01b038216907fbc7cd75a20ee27fd9adebab32041f755214dbc6bffa90cc0225b39da2e5c2d3b90600090a250565b600054610100900460ff1680611d92575060005460ff16155b611dae5760405162461bcd60e51b815260040161058190612c9b565b600054610100900460ff16158015611dd0576000805461ffff19166101011790555b8015610680576000805461ff001916905550565b600054610100900460ff1680611dfd575060005460ff16155b611e195760405162461bcd60e51b815260040161058190612c9b565b600054610100900460ff16158015611e3b576000805461ffff19166101011790555b6117ad826113b6565b600054610100900460ff1680611e5d575060005460ff16155b611e795760405162461bcd60e51b815260040161058190612c9b565b600054610100900460ff16158015611e9b576000805461ffff19166101011790555b60fb80546001600160a01b0384166001600160a01b03199182161790915560fc8054909116331790558015610e86576000805461ff00191690555050565b6001600160a01b038416611eff5760405162461bcd60e51b815260040161058190612d01565b33611f0f818787611b08886121c5565b60008481526065602090815260408083206001600160a01b038a16845290915290205483811015611f525760405162461bcd60e51b815260040161058190612d46565b60008581526065602090815260408083206001600160a01b038b8116855292528083208785039055908816825281208054869290611f91908490612ce9565b909155505060408051868152602081018690526001600160a01b03808916928a821692918616917fc3d58168c5ae7397731d063d5bbf3d657854427343f4c083240f7aacaa2d0f62910160405180910390a46112bc828888888888612210565b61012e5460ff1615610a2c5760405162461bcd60e51b815260206004820152602c60248201527f455243313135355061757361626c653a20746f6b656e207472616e736665722060448201526b1dda1a5b19481c185d5cd95960a21b6064820152608401610581565b6001600160a01b0384163b15610a2c5760405163bc197c8160e01b81526001600160a01b0385169063bc197c819061209e9089908990889088908890600401612dd1565b602060405180830381600087803b1580156120b857600080fd5b505af19250505080156120e8575060408051601f3d908101601f191682019092526120e591810190612e2f565b60015b612195576120f4612e4c565b806308c379a0141561212e5750612109612e68565b806121145750612130565b8060405162461bcd60e51b815260040161058191906125ae565b505b60405162461bcd60e51b815260206004820152603460248201527f455243313135353a207472616e7366657220746f206e6f6e20455243313135356044820152732932b1b2b4bb32b91034b6b83632b6b2b73a32b960611b6064820152608401610581565b6001600160e01b0319811663bc197c8160e01b146112bc5760405162461bcd60e51b815260040161058190612ef2565b604080516001808252818301909252606091600091906020808301908036833701905050905082816000815181106121ff576121ff612b22565b602090810291909101015292915050565b6001600160a01b0384163b15610a2c5760405163f23a6e6160e01b81526001600160a01b0385169063f23a6e61906122549089908990889088908890600401612f3a565b602060405180830381600087803b15801561226e57600080fd5b505af192505050801561229e575060408051601f3d908101601f1916820190925261229b91810190612e2f565b60015b6122aa576120f4612e4c565b6001600160e01b0319811663f23a6e6160e01b146112bc5760405162461bcd60e51b815260040161058190612ef2565b606083156122e9575081612313565b8251156122f95782518084602001fd5b8160405162461bcd60e51b815260040161058191906125ae565b9392505050565b82805461232690612ae7565b90600052602060002090601f016020900481019282612348576000855561238e565b82601f1061236157805160ff191683800117855561238e565b8280016001018555821561238e579182015b8281111561238e578251825591602001919060010190612373565b5061239a92915061239e565b5090565b5b8082111561239a576000815560010161239f565b80356001600160a01b03811681146123ca57600080fd5b919050565b600080604083850312156123e257600080fd5b6123eb836123b3565b946020939093013593505050565b6001600160e01b03198116811461068057600080fd5b60006020828403121561242157600080fd5b8135612313816123f9565b634e487b7160e01b600052604160045260246000fd5b601f8201601f1916810167ffffffffffffffff811182821017156124685761246861242c565b6040525050565b600067ffffffffffffffff8311156124895761248961242c565b6040516124a0601f8501601f191660200182612442565b8091508381528484840111156124b557600080fd5b83836020830137600060208583010152509392505050565b6000602082840312156124df57600080fd5b813567ffffffffffffffff8111156124f657600080fd5b8201601f8101841361250757600080fd5b6125168482356020840161246f565b949350505050565b60006020828403121561253057600080fd5b612313826123b3565b60006020828403121561254b57600080fd5b5035919050565b60005b8381101561256d578181015183820152602001612555565b8381111561257c576000848401525b50505050565b6000815180845261259a816020860160208601612552565b601f01601f19169290920160200192915050565b6020815260006123136020830184612582565b6000602082840312156125d357600080fd5b813561ffff8116811461231357600080fd5b600067ffffffffffffffff8211156125ff576125ff61242c565b5060051b60200190565b600082601f83011261261a57600080fd5b81356020612627826125e5565b6040516126348282612442565b83815260059390931b850182019282810191508684111561265457600080fd5b8286015b8481101561266f5780358352918301918301612658565b509695505050505050565b600082601f83011261268b57600080fd5b6123138383356020850161246f565b600080600080600060a086880312156126b257600080fd5b6126bb866123b3565b94506126c9602087016123b3565b9350604086013567ffffffffffffffff808211156126e657600080fd5b6126f289838a01612609565b9450606088013591508082111561270857600080fd5b61271489838a01612609565b9350608088013591508082111561272a57600080fd5b506127378882890161267a565b9150509295509295909350565b6000806000806080858703121561275a57600080fd5b612763856123b3565b9350602085013592506040850135915061277f606086016123b3565b905092959194509250565b803563ffffffff811681146123ca57600080fd5b600080604083850312156127b157600080fd5b6127ba8361278a565b91506127c8602084016123b3565b90509250929050565b600082601f8301126127e257600080fd5b813560206127ef826125e5565b6040516127fc8282612442565b83815260059390931b850182019282810191508684111561281c57600080fd5b8286015b8481101561266f57612831816123b3565b8352918301918301612820565b6000806040838503121561285157600080fd5b823567ffffffffffffffff8082111561286957600080fd5b612875868387016127d1565b9350602085013591508082111561288b57600080fd5b5061289885828601612609565b9150509250929050565b600081518084526020808501945080840160005b838110156128d2578151875295820195908201906001016128b6565b509495945050505050565b60208152600061231360208301846128a2565b6000806040838503121561290357600080fd5b61290c836123b3565b9150602083013567ffffffffffffffff81111561292857600080fd5b6128988582860161267a565b60006020828403121561294657600080fd5b6123138261278a565b6000806040838503121561296257600080fd5b61296b836123b3565b91506020830135801515811461298057600080fd5b809150509250929050565b600080600080608085870312156129a157600080fd5b6129aa856123b3565b9350602085013567ffffffffffffffff808211156129c757600080fd5b6129d3888389016127d1565b94506040870135935060608701359150808211156129f057600080fd5b506129fd87828801612609565b91505092959194509250565b60008060408385031215612a1c57600080fd5b6127ba836123b3565b600080600080600060a08688031215612a3d57600080fd5b612a46866123b3565b9450612a54602087016123b3565b93506040860135925060608601359150608086013567ffffffffffffffff811115612a7e57600080fd5b6127378882890161267a565b6020808252818101527f4f776e61626c653a2063616c6c6572206973206e6f7420746865206f776e6572604082015260600190565b60008251612ad1818460208701612552565b637b69647d60e01b920191825250600401919050565b600181811c90821680612afb57607f821691505b60208210811415612b1c57634e487b7160e01b600052602260045260246000fd5b50919050565b634e487b7160e01b600052603260045260246000fd5b634e487b7160e01b600052601160045260246000fd5b600063ffffffff80831681811415612b6857612b68612b38565b6001019392505050565b60006080820160018060a01b0380881684526020818816818601526080604086015282875180855260a087019150828901945060005b81811015612bc6578551851683529483019491830191600101612ba8565b50508581036060870152612bda81886128a2565b9a9950505050505050505050565b6020808252602c908201527f46756e6374696f6e206d7573742062652063616c6c6564207468726f7567682060408201526b19195b1959d85d1958d85b1b60a21b606082015260800190565b6020808252602c908201527f46756e6374696f6e206d7573742062652063616c6c6564207468726f7567682060408201526b6163746976652070726f787960a01b606082015260800190565b6000600019821415612c9457612c94612b38565b5060010190565b6020808252602e908201527f496e697469616c697a61626c653a20636f6e747261637420697320616c72656160408201526d191e481a5b9a5d1a585b1a5e995960921b606082015260800190565b60008219821115612cfc57612cfc612b38565b500190565b60208082526025908201527f455243313135353a207472616e7366657220746f20746865207a65726f206164604082015264647265737360d81b606082015260800190565b6020808252602a908201527f455243313135353a20696e73756666696369656e742062616c616e636520666f60408201526939103a3930b739b332b960b11b606082015260800190565b604081526000612da360408301856128a2565b8281036020840152611d3081856128a2565b60008251612dc7818460208701612552565b9190910192915050565b6001600160a01b0386811682528516602082015260a060408201819052600090612dfd908301866128a2565b8281036060840152612e0f81866128a2565b90508281036080840152612e238185612582565b98975050505050505050565b600060208284031215612e4157600080fd5b8151612313816123f9565b600060033d1115612e655760046000803e5060005160e01c5b90565b600060443d1015612e765790565b6040516003193d81016004833e81513d67ffffffffffffffff8160248401118184111715612ea657505050505090565b8285019150815181811115612ebe5750505050505090565b843d8701016020828501011115612ed85750505050505090565b612ee760208286010187612442565b509095945050505050565b60208082526028908201527f455243313135353a204552433131353552656365697665722072656a656374656040820152676420746f6b656e7360c01b606082015260800190565b6001600160a01b03868116825285166020820152604081018490526060810183905260a060808201819052600090612f7490830184612582565b97965050505050505056fe416464726573733a206c6f772d6c6576656c2064656c65676174652063616c6c206661696c6564a2646970667358221220be34d9c0e580f1a2eaac2c82ba3d6686a80d6748fe19ac4448637eb14be61f0f64736f6c63430008080033",
  "linkReferences": {},
  "deployedLinkReferences": {}
}