{
  "abi": [
    {
      "inputs": [
        {
          "internalType": "address",
          "name": "productsModuleAddress",
          "type": "address"
        }
      ],
      "stateMutability": "nonpayable",
      "type": "constructor"
    },
    {
      "inputs": [
        {
          "internalType": "int256",
          "name": "targetPrice",
          "type": "int256"
        },
        {
          "internalType": "int256",
          "name": "decayConstant",
          "type": "int256"
        },
        {
          "internalType": "int256",
          "name": "timeSinceStart",
          "type": "int256"
        },
        {
          "internalType": "uint256",
          "name": "sold",
          "type": "uint256"
        },
        {
          "internalType": "int256",
          "name": "timeFactor",
          "type": "int256"
        },
        {
          "internalType": "uint256",
          "name": "quantity",
          "type": "uint256"
        }
      ],
      "name": "getAdjustedVRGDAPrice",
      "outputs": [
        {
          "internalType": "uint256",
          "name": "price",
          "type": "uint256"
        }
      ],
      "stateMutability": "view",
      "type": "function"
    },
    {
      "inputs": [
        {
          "internalType": "int256",
          "name": "sold",
          "type": "int256"
        },
        {
          "internalType": "int256",
          "name": "timeFactor",
          "type": "int256"
        }
      ],
      "name": "getTargetSaleTime",
      "outputs": [
        {
          "internalType": "int256",
          "name": "",
          "type": "int256"
        }
      ],
      "stateMutability": "pure",
      "type": "function"
    },
    {
      "inputs": [
        {
          "internalType": "int256",
          "name": "targetPrice",
          "type": "int256"
        },
        {
          "internalType": "int256",
          "name": "decayConstant",
          "type": "int256"
        },
        {
          "internalType": "int256",
          "name": "timeSinceStart",
          "type": "int256"
        },
        {
          "internalType": "uint256",
          "name": "sold",
          "type": "uint256"
        },
        {
          "internalType": "int256",
          "name": "timeFactor",
          "type": "int256"
        }
      ],
      "name": "getVRGDAPrice",
      "outputs": [
        {
          "internalType": "uint256",
          "name": "",
          "type": "uint256"
        }
      ],
      "stateMutability": "view",
      "type": "function"
    },
    {
      "inputs": [
        {
          "internalType": "uint256",
          "name": "slicerId",
          "type": "uint256"
        },
        {
          "internalType": "uint256",
          "name": "productId",
          "type": "uint256"
        },
        {
          "internalType": "address",
          "name": "currency",
          "type": "address"
        },
        {
          "internalType": "uint256",
          "name": "quantity",
          "type": "uint256"
        },
        {
          "internalType": "address",
          "name": "",
          "type": "address"
        },
        {
          "internalType": "bytes",
          "name": "",
          "type": "bytes"
        }
      ],
      "name": "productPrice",
      "outputs": [
        {
          "internalType": "uint256",
          "name": "ethPrice",
          "type": "uint256"
        },
        {
          "internalType": "uint256",
          "name": "currencyPrice",
          "type": "uint256"
        }
      ],
      "stateMutability": "view",
      "type": "function"
    },
    {
      "inputs": [
        {
          "internalType": "uint256",
          "name": "slicerId",
          "type": "uint256"
        },
        {
          "internalType": "uint256",
          "name": "productId",
          "type": "uint256"
        },
        {
          "internalType": "address",
          "name": "currency",
          "type": "address"
        },
        {
          "internalType": "int256",
          "name": "targetPrice",
          "type": "int256"
        },
        {
          "internalType": "int256",
          "name": "priceDecayPercent",
          "type": "int256"
        },
        {
          "internalType": "int256",
          "name": "perTimeUnit",
          "type": "int256"
        }
      ],
      "name": "setProductPrice",
      "outputs": [],
      "stateMutability": "nonpayable",
      "type": "function"
    }
  ],
  "bytecode": {
    "object": "0x60a060405234801561001057600080fd5b5060405161104338038061104383398101604081905261002f91610040565b6001600160a01b0316608052610070565b60006020828403121561005257600080fd5b81516001600160a01b038116811461006957600080fd5b9392505050565b608051610faa610099600039600081816101930152818161034101526105d80152610faa6000f3fe608060405234801561001057600080fd5b50600436106100675760003560e01c8063a82cbf1911610050578063a82cbf19146100a7578063c62cf1db146100ba578063d7a3d0c8146100cd57600080fd5b806314af96531461006c5780639701014814610092575b600080fd5b61007f61007a366004610c1f565b6100f5565b6040519081526020015b60405180910390f35b6100a56100a0366004610c83565b61013e565b005b61007f6100b5366004610cd4565b610488565b61007f6100c8366004610d17565b6104c9565b6100e06100db366004610d68565b6104e1565b60408051928352602083019190915201610089565b60006101348661012f61012a88610119670de0b6b3a764000060018a0102886104c9565b8903670de0b6b3a764000091020590565b6106fd565b61093c565b9695505050505050565b6040517fe6e9280800000000000000000000000000000000000000000000000000000000815260048101879052602481018690523360448201528690869073ffffffffffffffffffffffffffffffffffffffff7f0000000000000000000000000000000000000000000000000000000000000000169063e6e9280890606401602060405180830381865afa1580156101da573d6000803e3d6000fd5b505050506040513d601f19601f820116820180604052508101906101fe9190610e84565b610269576040517f08c379a000000000000000000000000000000000000000000000000000000000815260206004820152601160248201527f4e4f545f50524f445543545f4f574e455200000000000000000000000000000060448201526064015b60405180910390fd5b600061028561028086670de0b6b3a7640000610ece565b610961565b9050600081126102f1576040517f08c379a000000000000000000000000000000000000000000000000000000000815260206004820152601b60248201527f4e4f4e5f4e454741544956455f44454341595f434f4e5354414e5400000000006044820152606401610260565b6040517f1eafafb4000000000000000000000000000000000000000000000000000000008152600481018a905260248101899052600090819073ffffffffffffffffffffffffffffffffffffffff7f00000000000000000000000000000000000000000000000000000000000000001690631eafafb4906044016040805180830381865afa158015610387573d6000803e3d6000fd5b505050506040513d601f19601f820116820180604052508101906103ab9190610f42565b915091508015610417576040517f08c379a000000000000000000000000000000000000000000000000000000000815260206004820152601760248201527f4e4f545f46494e4954455f415641494c4142494c4954590000000000000000006044820152606401610260565b506000998a5260208a81526040808c209a8c52998152898b2042815560018082019390935560028101939093558951808b018b5297885287810195865273ffffffffffffffffffffffffffffffffffffffff9098168a52600390910190965250509390942090518155915191015550565b6000805b828110156104be576104aa8888886104a4858a610f6e565b886100f5565b6104b49083610f6e565b915060010161048c565b509695505050505050565b6000670de0b6b3a764000083028290055b9392505050565b600086815260208181526040808320888452825280832073ffffffffffffffffffffffffffffffffffffffff881684526003810183528184208251808401909352805483526001015492820192909252815483929190830361059f576040517f08c379a000000000000000000000000000000000000000000000000000000000815260206004820152600d60248201527f50524f445543545f554e534554000000000000000000000000000000000000006044820152606401610260565b6040517f1eafafb4000000000000000000000000000000000000000000000000000000008152600481018b9052602481018a90526000907f000000000000000000000000000000000000000000000000000000000000000073ffffffffffffffffffffffffffffffffffffffff1690631eafafb4906044016040805180830381865afa158015610633573d6000803e3d6000fd5b505050506040513d601f19601f820116820180604052508101906106579190610f42565b509050600081846001015461066c9190610f86565b905073ffffffffffffffffffffffffffffffffffffffff8a166106ce578251600285015485546106c79291906106bb906106a69042610f86565b62015180670de0b6b3a7640000919091020490565b8487602001518e610488565b95506106ee565b8251600285015485546106eb9291906106bb906106a69042610f86565b94505b50505050965096945050505050565b60007ffffffffffffffffffffffffffffffffffffffffffffffffdb731c958f34d94c1821361072e57506000919050565b680755bf798b4a1bf1e582126107a0576040517f08c379a000000000000000000000000000000000000000000000000000000000815260206004820152600c60248201527f4558505f4f564552464c4f5700000000000000000000000000000000000000006044820152606401610260565b6503782dace9d9604e83901b059150600060606bb17217f7d1cf79abc9e3b39884821b056b80000000000000000000000001901d6bb17217f7d1cf79abc9e3b39881029093037fffffffffffffffffffffffffffffffffffffffdbf3ccf1604d263450f02a550481018102606090811d6d0277594991cfc85f6e2461837cd9018202811d7fffffffffffffffffffffffffffffffffffffe5adedaa1cb095af9e4da10e363c018202811d6db1bbb201f443cf962f1a1d3db4a5018202811d7ffffffffffffffffffffffffffffffffffffd38dc772608b0ae56cce01296c0eb018202811d6e05180bb14799ab47a8a8cb2a527d57016d02d16720577bd19bf614176fe9ea6c10fe68e7fd37d0007b713f765084018402831d9081019084017ffffffffffffffffffffffffffffffffffffffe2c69812cf03b0763fd454a8f7e010290911d6e0587f503bb6ea29d25fcb7401964500190910279d835ebba824c98fb31b83b2ca45c000000000000000000000000010574029d9dc38563c32e5c2f6dc192ee70ef65f9978af30260c3939093039290921c92915050565b818102821583820583141761095057600080fd5b670de0b6b3a7640000900592915050565b60008082136109cc576040517f08c379a000000000000000000000000000000000000000000000000000000000815260206004820152600960248201527f554e444546494e454400000000000000000000000000000000000000000000006044820152606401610260565b5060606fffffffffffffffffffffffffffffffff821160071b82811c67ffffffffffffffff1060061b1782811c63ffffffff1060051b1782811c61ffff1060041b1782811c60ff10600390811b90911783811c600f1060021b1783811c909110600190811b90911783811c90911017609f81810383019390931b90921c6c465772b2bbbb5f824b15207a3081018102821d6d0388eaa27412d5aca026815d636e018102821d6d0df99ac502031bf953eff472fdcc018102821d6d13cdffb29d51d99322bdff5f2211018102821d6d0a0f742023def783a307a986912e018102821d6d01920d8043ca89b5239253284e42018102821d6c0b7a86d7375468fac667a0a527016c29508e458543d8aa4df2abee7882018202831d6d0139601a2efabe717e604cbb4894018202831d6d02247f7a7b6594320649aa03aba1018202831d7fffffffffffffffffffffffffffffffffffffff73c0c716a594e00d54e3c4cbc9018202831d7ffffffffffffffffffffffffffffffffffffffdc7b88c420e53a9890533129f6f01820290921d7fffffffffffffffffffffffffffffffffffffff465fda27eb4d63ded474e5f83201027ffffffffffffffff5f6af8f7b3396644f18e157960000000000000000000000000105711340daa0d5f769dba1915cef59f0815a5506027fffffffffffffffffffffffffffffffffffffffffffffffffffffffffffffffa0919091017d0267a36c0c95b3975ab3ee5b203a7614a3f75373f047d803ae7b6687f2b302017d57115e47018c7177eebf7cd370a3356a1b7863008a5ae8028c72b88642840160ae1d90565b600080600080600060a08688031215610c3757600080fd5b505083359560208501359550604085013594606081013594506080013592509050565b803573ffffffffffffffffffffffffffffffffffffffff81168114610c7e57600080fd5b919050565b60008060008060008060c08789031215610c9c57600080fd5b8635955060208701359450610cb360408801610c5a565b9350606087013592506080870135915060a087013590509295509295509295565b60008060008060008060c08789031215610ced57600080fd5b505084359660208601359650604086013595606081013595506080810135945060a0013592509050565b60008060408385031215610d2a57600080fd5b50508035926020909101359150565b7f4e487b7100000000000000000000000000000000000000000000000000000000600052604160045260246000fd5b60008060008060008060c08789031215610d8157600080fd5b8635955060208701359450610d9860408801610c5a565b935060608701359250610dad60808801610c5a565b915060a087013567ffffffffffffffff80821115610dca57600080fd5b818901915089601f830112610dde57600080fd5b813581811115610df057610df0610d39565b604051601f82017fffffffffffffffffffffffffffffffffffffffffffffffffffffffffffffffe0908116603f01168101908382118183101715610e3657610e36610d39565b816040528281528c6020848701011115610e4f57600080fd5b8260208601602083013760006020848301015280955050505050509295509295509295565b80518015158114610c7e57600080fd5b600060208284031215610e9657600080fd5b6104da82610e74565b7f4e487b7100000000000000000000000000000000000000000000000000000000600052601160045260246000fd5b6000808312837f800000000000000000000000000000000000000000000000000000000000000001831281151615610f0857610f08610e9f565b837f7fffffffffffffffffffffffffffffffffffffffffffffffffffffffffffffff018313811615610f3c57610f3c610e9f565b50500390565b60008060408385031215610f5557600080fd5b82519150610f6560208401610e74565b90509250929050565b60008219821115610f8157610f81610e9f565b500190565b600082821015610f9857610f98610e9f565b50039056fea164736f6c634300080f000a",
    "linkReferences": {}
  },
  "methodIdentifiers": {
    "getAdjustedVRGDAPrice(int256,int256,int256,uint256,int256,uint256)": "a82cbf19",
    "getTargetSaleTime(int256,int256)": "c62cf1db",
    "getVRGDAPrice(int256,int256,int256,uint256,int256)": "14af9653",
    "productPrice(uint256,uint256,address,uint256,address,bytes)": "d7a3d0c8",
    "setProductPrice(uint256,uint256,address,int256,int256,int256)": "97010148"
  },
  "id": 14
}