{
  "abi": [
    {
      "inputs": [
        {
          "internalType": "address",
          "name": "productsModuleAddress",
          "type": "address"
        }
      ],
      "stateMutability": "nonpayable",
      "type": "constructor"
    },
    {
      "inputs": [
        {
          "internalType": "int256",
          "name": "targetPrice",
          "type": "int256"
        },
        {
          "internalType": "int256",
          "name": "decayConstant",
          "type": "int256"
        },
        {
          "internalType": "int256",
          "name": "timeSinceStart",
          "type": "int256"
        },
        {
          "internalType": "uint256",
          "name": "sold",
          "type": "uint256"
        },
        {
          "internalType": "int256",
          "name": "timeFactor",
          "type": "int256"
        },
        {
          "internalType": "uint256",
          "name": "min",
          "type": "uint256"
        },
        {
          "internalType": "uint256",
          "name": "quantity",
          "type": "uint256"
        }
      ],
      "name": "getAdjustedVRGDAPrice",
      "outputs": [
        {
          "internalType": "uint256",
          "name": "price",
          "type": "uint256"
        }
      ],
      "stateMutability": "view",
      "type": "function"
    },
    {
      "inputs": [
        {
          "internalType": "int256",
          "name": "sold",
          "type": "int256"
        },
        {
          "internalType": "int256",
          "name": "timeFactor",
          "type": "int256"
        }
      ],
      "name": "getTargetSaleTime",
      "outputs": [
        {
          "internalType": "int256",
          "name": "",
          "type": "int256"
        }
      ],
      "stateMutability": "pure",
      "type": "function"
    },
    {
      "inputs": [
        {
          "internalType": "int256",
          "name": "targetPrice",
          "type": "int256"
        },
        {
          "internalType": "int256",
          "name": "decayConstant",
          "type": "int256"
        },
        {
          "internalType": "int256",
          "name": "timeSinceStart",
          "type": "int256"
        },
        {
          "internalType": "uint256",
          "name": "sold",
          "type": "uint256"
        },
        {
          "internalType": "int256",
          "name": "timeFactor",
          "type": "int256"
        },
        {
          "internalType": "uint256",
          "name": "min",
          "type": "uint256"
        }
      ],
      "name": "getVRGDAPrice",
      "outputs": [
        {
          "internalType": "uint256",
          "name": "",
          "type": "uint256"
        }
      ],
      "stateMutability": "view",
      "type": "function"
    },
    {
      "inputs": [
        {
          "internalType": "uint256",
          "name": "slicerId",
          "type": "uint256"
        },
        {
          "internalType": "uint256",
          "name": "productId",
          "type": "uint256"
        },
        {
          "internalType": "address",
          "name": "currency",
          "type": "address"
        },
        {
          "internalType": "uint256",
          "name": "quantity",
          "type": "uint256"
        },
        {
          "internalType": "address",
          "name": "",
          "type": "address"
        },
        {
          "internalType": "bytes",
          "name": "",
          "type": "bytes"
        }
      ],
      "name": "productPrice",
      "outputs": [
        {
          "internalType": "uint256",
          "name": "ethPrice",
          "type": "uint256"
        },
        {
          "internalType": "uint256",
          "name": "currencyPrice",
          "type": "uint256"
        }
      ],
      "stateMutability": "view",
      "type": "function"
    },
    {
      "inputs": [
        {
          "internalType": "uint256",
          "name": "slicerId",
          "type": "uint256"
        },
        {
          "internalType": "uint256",
          "name": "productId",
          "type": "uint256"
        },
        {
          "internalType": "address[]",
          "name": "currencies",
          "type": "address[]"
        },
        {
          "components": [
            {
              "internalType": "int128",
              "name": "targetPrice",
              "type": "int128"
            },
            {
              "internalType": "uint128",
              "name": "min",
              "type": "uint128"
            },
            {
              "internalType": "int256",
              "name": "perTimeUnit",
              "type": "int256"
            }
          ],
          "internalType": "struct LinearVRGDAParams[]",
          "name": "linearParams",
          "type": "tuple[]"
        },
        {
          "internalType": "int256",
          "name": "priceDecayPercent",
          "type": "int256"
        }
      ],
      "name": "setProductPrice",
      "outputs": [],
      "stateMutability": "nonpayable",
      "type": "function"
    }
  ],
  "bytecode": {
    "object": "0x60a060405234801561001057600080fd5b5060405161143238038061143283398101604081905261002f91610040565b6001600160a01b0316608052610070565b60006020828403121561005257600080fd5b81516001600160a01b038116811461006957600080fd5b9392505050565b608051611399610099600039600081816102e0015281816104a9015261074501526113996000f3fe608060405234801561001057600080fd5b50600436106100675760003560e01c8063c7596d2811610050578063c7596d28146100a5578063d7a3d0c8146100b8578063e60f3e11146100e057600080fd5b8063bbf86a0c1461006c578063c62cf1db14610092575b600080fd5b61007f61007a366004610e80565b6100f5565b6040519081526020015b60405180910390f35b61007f6100a0366004610ec3565b610152565b61007f6100b3366004610ee5565b61016a565b6100cb6100c6366004610f89565b6101ad565b60408051928352602083019190915201610089565b6100f36100ee3660046110e1565b610454565b005b6000806101358861013061012b8a61011a670de0b6b3a764000060018c01028a610152565b8b03670de0b6b3a764000091020590565b61095e565b610b9d565b90508281116101445782610146565b805b98975050505050505050565b6000670de0b6b3a764000083028290055b9392505050565b6000805b828110156101a15761018d898989610186858b6111cd565b89896100f5565b61019790836111cd565b915060010161016e565b50979650505050505050565b600086815260208181526040808320888452825280832073ffffffffffffffffffffffffffffffffffffffff881684526001808201845282852083516060810185528154600f81900b825270010000000000000000000000000000000090046fffffffffffffffffffffffffffffffff1695810195909552015491830191909152805483929064ffffffffff1683036102a7576040517f08c379a000000000000000000000000000000000000000000000000000000000815260206004820152600d60248201527f50524f445543545f554e5345540000000000000000000000000000000000000060448201526064015b60405180910390fd5b6040517f1eafafb4000000000000000000000000000000000000000000000000000000008152600481018b9052602481018a90526000907f000000000000000000000000000000000000000000000000000000000000000073ffffffffffffffffffffffffffffffffffffffff1690631eafafb4906044016040805180830381865afa15801561033b573d6000803e3d6000fd5b505050506040513d601f19601f8201168201806040525081019061035f91906111f5565b50835490915060009061038290839065010000000000900463ffffffff16611221565b905073ffffffffffffffffffffffffffffffffffffffff8a16610410578251845461040991600f0b906901000000000000000000810460160b906103e6906103d19064ffffffffff1642611221565b62015180670de0b6b3a7640000919091020490565b84876040015188602001516fffffffffffffffffffffffffffffffff168f61016a565b9550610445565b8251845461044291600f0b906901000000000000000000810460160b906103e6906103d19064ffffffffff1642611221565b94505b50505050965096945050505050565b6040517fe6e9280800000000000000000000000000000000000000000000000000000000815260048101889052602481018790523360448201528790879073ffffffffffffffffffffffffffffffffffffffff7f0000000000000000000000000000000000000000000000000000000000000000169063e6e9280890606401602060405180830381865afa1580156104f0573d6000803e3d6000fd5b505050506040513d601f19601f820116820180604052508101906105149190611238565b61057a576040517f08c379a000000000000000000000000000000000000000000000000000000000815260206004820152601160248201527f4e4f545f50524f445543545f4f574e4552000000000000000000000000000000604482015260640161029e565b8386146105e3576040517f08c379a000000000000000000000000000000000000000000000000000000000815260206004820152600e60248201527f494e56414c49445f494e50555453000000000000000000000000000000000000604482015260640161029e565b60006105ff6105fa85670de0b6b3a7640000611253565b610bc2565b90506000811261066b576040517f08c379a000000000000000000000000000000000000000000000000000000000815260206004820152601b60248201527f4e4f4e5f4e454741544956455f44454341595f434f4e5354414e540000000000604482015260640161029e565b7fffffffffffffffffff80000000000000000000000000000000000000000000008112156106f5576040517f08c379a000000000000000000000000000000000000000000000000000000000815260206004820152601b60248201527f4d494e5f44454341595f434f4e5354414e545f45584345454445440000000000604482015260640161029e565b6040517f1eafafb4000000000000000000000000000000000000000000000000000000008152600481018b9052602481018a9052600090819073ffffffffffffffffffffffffffffffffffffffff7f00000000000000000000000000000000000000000000000000000000000000001690631eafafb4906044016040805180830381865afa15801561078b573d6000803e3d6000fd5b505050506040513d601f19601f820116820180604052508101906107af91906111f5565b91509150801561081b576040517f08c379a000000000000000000000000000000000000000000000000000000000815260206004820152601760248201527f4e4f545f46494e4954455f415641494c4142494c495459000000000000000000604482015260640161029e565b60008c8152602081815260408083208e8452909152812080544264ffffffffff167fffffffffffffffffffffffffffffffffffffffffffffff000000000000000000909116176501000000000063ffffffff8616021768ffffffffffffffffff16690100000000000000000076ffffffffffffffffffffffffffffffffffffffffffffff8716021790555b8981101561094f578888828181106108c0576108c06112c7565b9050606002016000808f815260200190815260200160002060008e815260200190815260200160002060010160008d8d85818110610900576109006112c7565b905060200201602081019061091591906112f6565b73ffffffffffffffffffffffffffffffffffffffff16815260208101919091526040016000206109458282611311565b50506001016108a6565b50505050505050505050505050565b60007ffffffffffffffffffffffffffffffffffffffffffffffffdb731c958f34d94c1821361098f57506000919050565b680755bf798b4a1bf1e58212610a01576040517f08c379a000000000000000000000000000000000000000000000000000000000815260206004820152600c60248201527f4558505f4f564552464c4f570000000000000000000000000000000000000000604482015260640161029e565b6503782dace9d9604e83901b059150600060606bb17217f7d1cf79abc9e3b39884821b056b80000000000000000000000001901d6bb17217f7d1cf79abc9e3b39881029093037fffffffffffffffffffffffffffffffffffffffdbf3ccf1604d263450f02a550481018102606090811d6d0277594991cfc85f6e2461837cd9018202811d7fffffffffffffffffffffffffffffffffffffe5adedaa1cb095af9e4da10e363c018202811d6db1bbb201f443cf962f1a1d3db4a5018202811d7ffffffffffffffffffffffffffffffffffffd38dc772608b0ae56cce01296c0eb018202811d6e05180bb14799ab47a8a8cb2a527d57016d02d16720577bd19bf614176fe9ea6c10fe68e7fd37d0007b713f765084018402831d9081019084017ffffffffffffffffffffffffffffffffffffffe2c69812cf03b0763fd454a8f7e010290911d6e0587f503bb6ea29d25fcb7401964500190910279d835ebba824c98fb31b83b2ca45c000000000000000000000000010574029d9dc38563c32e5c2f6dc192ee70ef65f9978af30260c3939093039290921c92915050565b8181028215838205831417610bb157600080fd5b670de0b6b3a7640000900592915050565b6000808213610c2d576040517f08c379a000000000000000000000000000000000000000000000000000000000815260206004820152600960248201527f554e444546494e45440000000000000000000000000000000000000000000000604482015260640161029e565b5060606fffffffffffffffffffffffffffffffff821160071b82811c67ffffffffffffffff1060061b1782811c63ffffffff1060051b1782811c61ffff1060041b1782811c60ff10600390811b90911783811c600f1060021b1783811c909110600190811b90911783811c90911017609f81810383019390931b90921c6c465772b2bbbb5f824b15207a3081018102821d6d0388eaa27412d5aca026815d636e018102821d6d0df99ac502031bf953eff472fdcc018102821d6d13cdffb29d51d99322bdff5f2211018102821d6d0a0f742023def783a307a986912e018102821d6d01920d8043ca89b5239253284e42018102821d6c0b7a86d7375468fac667a0a527016c29508e458543d8aa4df2abee7882018202831d6d0139601a2efabe717e604cbb4894018202831d6d02247f7a7b6594320649aa03aba1018202831d7fffffffffffffffffffffffffffffffffffffff73c0c716a594e00d54e3c4cbc9018202831d7ffffffffffffffffffffffffffffffffffffffdc7b88c420e53a9890533129f6f01820290921d7fffffffffffffffffffffffffffffffffffffff465fda27eb4d63ded474e5f83201027ffffffffffffffff5f6af8f7b3396644f18e157960000000000000000000000000105711340daa0d5f769dba1915cef59f0815a5506027fffffffffffffffffffffffffffffffffffffffffffffffffffffffffffffffa0919091017d0267a36c0c95b3975ab3ee5b203a7614a3f75373f047d803ae7b6687f2b302017d57115e47018c7177eebf7cd370a3356a1b7863008a5ae8028c72b88642840160ae1d90565b60008060008060008060c08789031215610e9957600080fd5b505084359660208601359650604086013595606081013595506080810135945060a0013592509050565b60008060408385031215610ed657600080fd5b50508035926020909101359150565b600080600080600080600060e0888a031215610f0057600080fd5b505085359760208701359750604087013596606081013596506080810135955060a0810135945060c0013592509050565b803573ffffffffffffffffffffffffffffffffffffffff81168114610f5557600080fd5b919050565b7f4e487b7100000000000000000000000000000000000000000000000000000000600052604160045260246000fd5b60008060008060008060c08789031215610fa257600080fd5b8635955060208701359450610fb960408801610f31565b935060608701359250610fce60808801610f31565b915060a087013567ffffffffffffffff80821115610feb57600080fd5b818901915089601f830112610fff57600080fd5b81358181111561101157611011610f5a565b604051601f82017fffffffffffffffffffffffffffffffffffffffffffffffffffffffffffffffe0908116603f0116810190838211818310171561105757611057610f5a565b816040528281528c602084870101111561107057600080fd5b8260208601602083013760006020848301015280955050505050509295509295509295565b60008083601f8401126110a757600080fd5b50813567ffffffffffffffff8111156110bf57600080fd5b6020830191508360206060830285010111156110da57600080fd5b9250929050565b600080600080600080600060a0888a0312156110fc57600080fd5b8735965060208801359550604088013567ffffffffffffffff8082111561112257600080fd5b818a0191508a601f83011261113657600080fd5b81358181111561114557600080fd5b8b60208260051b850101111561115a57600080fd5b6020830197508096505060608a013591508082111561117857600080fd5b506111858a828b01611095565b989b979a50959894979596608090950135949350505050565b7f4e487b7100000000000000000000000000000000000000000000000000000000600052601160045260246000fd5b600082198211156111e0576111e061119e565b500190565b80518015158114610f5557600080fd5b6000806040838503121561120857600080fd5b82519150611218602084016111e5565b90509250929050565b6000828210156112335761123361119e565b500390565b60006020828403121561124a57600080fd5b610163826111e5565b6000808312837f80000000000000000000000000000000000000000000000000000000000000000183128115161561128d5761128d61119e565b837f7fffffffffffffffffffffffffffffffffffffffffffffffffffffffffffffff0183138116156112c1576112c161119e565b50500390565b7f4e487b7100000000000000000000000000000000000000000000000000000000600052603260045260246000fd5b60006020828403121561130857600080fd5b61016382610f31565b813580600f0b811461132257600080fd5b81546fffffffffffffffffffffffffffffffff9182167fffffffffffffffffffffffffffffffff000000000000000000000000000000009182168117845591602085013590818116821461137557600080fd5b5060801b161781556040919091013560019091015556fea164736f6c634300080f000a",
    "linkReferences": {}
  },
  "methodIdentifiers": {
    "getAdjustedVRGDAPrice(int256,int256,int256,uint256,int256,uint256,uint256)": "c7596d28",
    "getTargetSaleTime(int256,int256)": "c62cf1db",
    "getVRGDAPrice(int256,int256,int256,uint256,int256,uint256)": "bbf86a0c",
    "productPrice(uint256,uint256,address,uint256,address,bytes)": "d7a3d0c8",
    "setProductPrice(uint256,uint256,address[],(int128,uint128,int256)[],int256)": "e60f3e11"
  },
  "id": 39
}