{
  "abi": [
    {
      "inputs": [
        {
          "internalType": "address",
          "name": "productsModuleAddress",
          "type": "address"
        }
      ],
      "stateMutability": "nonpayable",
      "type": "constructor"
    },
    {
      "inputs": [
        {
          "internalType": "int256",
          "name": "targetPrice",
          "type": "int256"
        },
        {
          "internalType": "int256",
          "name": "decayConstant",
          "type": "int256"
        },
        {
          "internalType": "int256",
          "name": "timeSinceStart",
          "type": "int256"
        },
        {
          "internalType": "int256",
          "name": "logisticLimit",
          "type": "int256"
        },
        {
          "internalType": "uint256",
          "name": "sold",
          "type": "uint256"
        },
        {
          "internalType": "int256",
          "name": "timeFactor",
          "type": "int256"
        },
        {
          "internalType": "uint256",
          "name": "quantity",
          "type": "uint256"
        }
      ],
      "name": "getAdjustedVRGDALogisticPrice",
      "outputs": [
        {
          "internalType": "uint256",
          "name": "price",
          "type": "uint256"
        }
      ],
      "stateMutability": "pure",
      "type": "function"
    },
    {
      "inputs": [
        {
          "internalType": "int256",
          "name": "targetPrice",
          "type": "int256"
        },
        {
          "internalType": "int256",
          "name": "decayConstant",
          "type": "int256"
        },
        {
          "internalType": "int256",
          "name": "timeSinceStart",
          "type": "int256"
        },
        {
          "internalType": "uint256",
          "name": "sold",
          "type": "uint256"
        },
        {
          "internalType": "int256",
          "name": "timeFactor",
          "type": "int256"
        },
        {
          "internalType": "uint256",
          "name": "quantity",
          "type": "uint256"
        }
      ],
      "name": "getAdjustedVRGDAPrice",
      "outputs": [
        {
          "internalType": "uint256",
          "name": "price",
          "type": "uint256"
        }
      ],
      "stateMutability": "view",
      "type": "function"
    },
    {
      "inputs": [
        {
          "internalType": "int256",
          "name": "saleFactor",
          "type": "int256"
        },
        {
          "internalType": "int256",
          "name": "timeFactor",
          "type": "int256"
        }
      ],
      "name": "getTargetSaleTime",
      "outputs": [
        {
          "internalType": "int256",
          "name": "",
          "type": "int256"
        }
      ],
      "stateMutability": "pure",
      "type": "function"
    },
    {
      "inputs": [
        {
          "internalType": "int256",
          "name": "targetPrice",
          "type": "int256"
        },
        {
          "internalType": "int256",
          "name": "decayConstant",
          "type": "int256"
        },
        {
          "internalType": "int256",
          "name": "timeSinceStart",
          "type": "int256"
        },
        {
          "internalType": "int256",
          "name": "logisticLimit",
          "type": "int256"
        },
        {
          "internalType": "int256",
          "name": "logisticLimitDouble",
          "type": "int256"
        },
        {
          "internalType": "uint256",
          "name": "sold",
          "type": "uint256"
        },
        {
          "internalType": "int256",
          "name": "timeFactor",
          "type": "int256"
        }
      ],
      "name": "getVRGDALogisticPrice",
      "outputs": [
        {
          "internalType": "uint256",
          "name": "",
          "type": "uint256"
        }
      ],
      "stateMutability": "pure",
      "type": "function"
    },
    {
      "inputs": [
        {
          "internalType": "int256",
          "name": "targetPrice",
          "type": "int256"
        },
        {
          "internalType": "int256",
          "name": "decayConstant",
          "type": "int256"
        },
        {
          "internalType": "int256",
          "name": "timeSinceStart",
          "type": "int256"
        },
        {
          "internalType": "uint256",
          "name": "sold",
          "type": "uint256"
        },
        {
          "internalType": "int256",
          "name": "timeFactor",
          "type": "int256"
        }
      ],
      "name": "getVRGDAPrice",
      "outputs": [
        {
          "internalType": "uint256",
          "name": "",
          "type": "uint256"
        }
      ],
      "stateMutability": "view",
      "type": "function"
    },
    {
      "inputs": [
        {
          "internalType": "uint256",
          "name": "slicerId",
          "type": "uint256"
        },
        {
          "internalType": "uint256",
          "name": "productId",
          "type": "uint256"
        },
        {
          "internalType": "address",
          "name": "currency",
          "type": "address"
        },
        {
          "internalType": "uint256",
          "name": "quantity",
          "type": "uint256"
        },
        {
          "internalType": "address",
          "name": "",
          "type": "address"
        },
        {
          "internalType": "bytes",
          "name": "",
          "type": "bytes"
        }
      ],
      "name": "productPrice",
      "outputs": [
        {
          "internalType": "uint256",
          "name": "ethPrice",
          "type": "uint256"
        },
        {
          "internalType": "uint256",
          "name": "currencyPrice",
          "type": "uint256"
        }
      ],
      "stateMutability": "view",
      "type": "function"
    },
    {
      "inputs": [
        {
          "internalType": "uint256",
          "name": "slicerId",
          "type": "uint256"
        },
        {
          "internalType": "uint256",
          "name": "productId",
          "type": "uint256"
        },
        {
          "internalType": "address",
          "name": "currency",
          "type": "address"
        },
        {
          "internalType": "int256",
          "name": "targetPrice",
          "type": "int256"
        },
        {
          "internalType": "int256",
          "name": "priceDecayPercent",
          "type": "int256"
        },
        {
          "internalType": "int256",
          "name": "timeScale",
          "type": "int256"
        }
      ],
      "name": "setProductPrice",
      "outputs": [],
      "stateMutability": "nonpayable",
      "type": "function"
    }
  ],
  "bytecode": {
    "object": "0x60a060405234801561001057600080fd5b5060405161126338038061126383398101604081905261002f91610040565b6001600160a01b0316608052610070565b60006020828403121561005257600080fd5b81516001600160a01b038116811461006957600080fd5b9392505050565b6080516111ca61009960003960008181610214015281816103c2015261067301526111ca6000f3fe608060405234801561001057600080fd5b506004361061007d5760003560e01c8063a82cbf191161005b578063a82cbf19146100d0578063c62cf1db146100e3578063d7a3d0c8146100f6578063df72257d1461011e57600080fd5b806314af96531461008257806336e136d1146100a857806397010148146100bb575b600080fd5b610095610090366004610d30565b610131565b6040519081526020015b60405180910390f35b6100956100b6366004610d6b565b61017b565b6100ce6100c9366004610de0565b6101bf565b005b6100956100de366004610e31565b610509565b6100956100f1366004610e74565b61054a565b610109610104366004610ec5565b61057c565b6040805192835260208301919091520161009f565b61009561012c366004610d6b565b6107b3565b60006101718661016c61016788610156670de0b6b3a764000060018a01025b8861054a565b8903670de0b6b3a764000091020590565b61080e565b610a4d565b9695505050505050565b60006101b38861016c6101678a6101a260018901670de0b6b3a7640000028b018a05610150565b8b03670de0b6b3a764000091020590565b98975050505050505050565b6040517fe6e9280800000000000000000000000000000000000000000000000000000000815260048101879052602481018690523360448201528690869073ffffffffffffffffffffffffffffffffffffffff7f0000000000000000000000000000000000000000000000000000000000000000169063e6e9280890606401602060405180830381865afa15801561025b573d6000803e3d6000fd5b505050506040513d601f19601f8201168201806040525081019061027f9190610fe1565b6102ea576040517f08c379a000000000000000000000000000000000000000000000000000000000815260206004820152601160248201527f4e4f545f50524f445543545f4f574e455200000000000000000000000000000060448201526064015b60405180910390fd5b600061030661030186670de0b6b3a7640000611032565b610a72565b905060008112610372576040517f08c379a000000000000000000000000000000000000000000000000000000000815260206004820152601b60248201527f4e4f4e5f4e454741544956455f44454341595f434f4e5354414e54000000000060448201526064016102e1565b6040517f1eafafb4000000000000000000000000000000000000000000000000000000008152600481018a905260248101899052600090819073ffffffffffffffffffffffffffffffffffffffff7f00000000000000000000000000000000000000000000000000000000000000001690631eafafb4906044016040805180830381865afa158015610408573d6000803e3d6000fd5b505050506040513d601f19601f8201168201806040525081019061042c91906110a6565b915091508015610498576040517f08c379a000000000000000000000000000000000000000000000000000000000815260206004820152601760248201527f4e4f4e5f46494e4954455f415641494c4142494c49545900000000000000000060448201526064016102e1565b506000998a5260208a81526040808c209a8c52998152898b2042815560018082019390935560028101939093558951808b018b5297885287810195865273ffffffffffffffffffffffffffffffffffffffff9098168a52600390910190965250509390942090518155915191015550565b6000805b8281101561053f5761052b888888610525858a6110d2565b88610131565b61053590836110d2565b915060010161050d565b509695505050505050565b6000610572610562670de0b6b3a76400008503610a72565b670de0b6b3a76400000283900590565b6000039392505050565b600086815260208181526040808320888452825280832073ffffffffffffffffffffffffffffffffffffffff881684526003810183528184208251808401909352805483526001015492820192909252815483929190830361063a576040517f08c379a000000000000000000000000000000000000000000000000000000000815260206004820152600d60248201527f50524f445543545f554e5345540000000000000000000000000000000000000060448201526064016102e1565b6040517f1eafafb4000000000000000000000000000000000000000000000000000000008152600481018b9052602481018a90526000907f000000000000000000000000000000000000000000000000000000000000000073ffffffffffffffffffffffffffffffffffffffff1690631eafafb4906044016040805180830381865afa1580156106ce573d6000803e3d6000fd5b505050506040513d601f19601f820116820180604052508101906106f291906110a6565b50905073ffffffffffffffffffffffffffffffffffffffff89166107855781516002840154845461077e9291906107429061072d90426110ea565b62015180670de0b6b3a7640000919091020490565b6107638760010154600161075691906110d2565b670de0b6b3a76400000290565b85886001015461077391906110ea565b87602001518e6107b3565b94506107a5565b8151600284015484546107a29291906107429061072d90426110ea565b93505b505050965096945050505050565b6000806107c886671bc16d674ec80000611101565b905060005b83811015610801576107ed8a8a8a8a866107e7878d6110d2565b8b61017b565b6107f790846110d2565b92506001016107cd565b5050979650505050505050565b60007ffffffffffffffffffffffffffffffffffffffffffffffffdb731c958f34d94c1821361083f57506000919050565b680755bf798b4a1bf1e582126108b1576040517f08c379a000000000000000000000000000000000000000000000000000000000815260206004820152600c60248201527f4558505f4f564552464c4f57000000000000000000000000000000000000000060448201526064016102e1565b6503782dace9d9604e83901b059150600060606bb17217f7d1cf79abc9e3b39884821b056b80000000000000000000000001901d6bb17217f7d1cf79abc9e3b39881029093037fffffffffffffffffffffffffffffffffffffffdbf3ccf1604d263450f02a550481018102606090811d6d0277594991cfc85f6e2461837cd9018202811d7fffffffffffffffffffffffffffffffffffffe5adedaa1cb095af9e4da10e363c018202811d6db1bbb201f443cf962f1a1d3db4a5018202811d7ffffffffffffffffffffffffffffffffffffd38dc772608b0ae56cce01296c0eb018202811d6e05180bb14799ab47a8a8cb2a527d57016d02d16720577bd19bf614176fe9ea6c10fe68e7fd37d0007b713f765084018402831d9081019084017ffffffffffffffffffffffffffffffffffffffe2c69812cf03b0763fd454a8f7e010290911d6e0587f503bb6ea29d25fcb7401964500190910279d835ebba824c98fb31b83b2ca45c000000000000000000000000010574029d9dc38563c32e5c2f6dc192ee70ef65f9978af30260c3939093039290921c92915050565b8181028215838205831417610a6157600080fd5b670de0b6b3a7640000900592915050565b6000808213610add576040517f08c379a000000000000000000000000000000000000000000000000000000000815260206004820152600960248201527f554e444546494e4544000000000000000000000000000000000000000000000060448201526064016102e1565b5060606fffffffffffffffffffffffffffffffff821160071b82811c67ffffffffffffffff1060061b1782811c63ffffffff1060051b1782811c61ffff1060041b1782811c60ff10600390811b90911783811c600f1060021b1783811c909110600190811b90911783811c90911017609f81810383019390931b90921c6c465772b2bbbb5f824b15207a3081018102821d6d0388eaa27412d5aca026815d636e018102821d6d0df99ac502031bf953eff472fdcc018102821d6d13cdffb29d51d99322bdff5f2211018102821d6d0a0f742023def783a307a986912e018102821d6d01920d8043ca89b5239253284e42018102821d6c0b7a86d7375468fac667a0a527016c29508e458543d8aa4df2abee7882018202831d6d0139601a2efabe717e604cbb4894018202831d6d02247f7a7b6594320649aa03aba1018202831d7fffffffffffffffffffffffffffffffffffffff73c0c716a594e00d54e3c4cbc9018202831d7ffffffffffffffffffffffffffffffffffffffdc7b88c420e53a9890533129f6f01820290921d7fffffffffffffffffffffffffffffffffffffff465fda27eb4d63ded474e5f83201027ffffffffffffffff5f6af8f7b3396644f18e157960000000000000000000000000105711340daa0d5f769dba1915cef59f0815a5506027fffffffffffffffffffffffffffffffffffffffffffffffffffffffffffffffa0919091017d0267a36c0c95b3975ab3ee5b203a7614a3f75373f047d803ae7b6687f2b302017d57115e47018c7177eebf7cd370a3356a1b7863008a5ae8028c72b88642840160ae1d90565b600080600080600060a08688031215610d4857600080fd5b505083359560208501359550604085013594606081013594506080013592509050565b600080600080600080600060e0888a031215610d8657600080fd5b505085359760208701359750604087013596606081013596506080810135955060a0810135945060c0013592509050565b803573ffffffffffffffffffffffffffffffffffffffff81168114610ddb57600080fd5b919050565b60008060008060008060c08789031215610df957600080fd5b8635955060208701359450610e1060408801610db7565b9350606087013592506080870135915060a087013590509295509295509295565b60008060008060008060c08789031215610e4a57600080fd5b505084359660208601359650604086013595606081013595506080810135945060a0013592509050565b60008060408385031215610e8757600080fd5b50508035926020909101359150565b7f4e487b7100000000000000000000000000000000000000000000000000000000600052604160045260246000fd5b60008060008060008060c08789031215610ede57600080fd5b8635955060208701359450610ef560408801610db7565b935060608701359250610f0a60808801610db7565b915060a087013567ffffffffffffffff80821115610f2757600080fd5b818901915089601f830112610f3b57600080fd5b813581811115610f4d57610f4d610e96565b604051601f82017fffffffffffffffffffffffffffffffffffffffffffffffffffffffffffffffe0908116603f01168101908382118183101715610f9357610f93610e96565b816040528281528c6020848701011115610fac57600080fd5b8260208601602083013760006020848301015280955050505050509295509295509295565b80518015158114610ddb57600080fd5b600060208284031215610ff357600080fd5b610ffc82610fd1565b9392505050565b7f4e487b7100000000000000000000000000000000000000000000000000000000600052601160045260246000fd5b6000808312837f80000000000000000000000000000000000000000000000000000000000000000183128115161561106c5761106c611003565b837f7fffffffffffffffffffffffffffffffffffffffffffffffffffffffffffffff0183138116156110a0576110a0611003565b50500390565b600080604083850312156110b957600080fd5b825191506110c960208401610fd1565b90509250929050565b600082198211156110e5576110e5611003565b500190565b6000828210156110fc576110fc611003565b500390565b60007f7fffffffffffffffffffffffffffffffffffffffffffffffffffffffffffffff60008413600084138583048511828216161561114257611142611003565b7f8000000000000000000000000000000000000000000000000000000000000000600087128682058812818416161561117d5761117d611003565b6000871292508782058712848416161561119957611199611003565b878505871281841616156111af576111af611003565b50505092909302939250505056fea164736f6c634300080f000a",
    "linkReferences": {}
  },
  "methodIdentifiers": {
    "getAdjustedVRGDALogisticPrice(int256,int256,int256,int256,uint256,int256,uint256)": "df72257d",
    "getAdjustedVRGDAPrice(int256,int256,int256,uint256,int256,uint256)": "a82cbf19",
    "getTargetSaleTime(int256,int256)": "c62cf1db",
    "getVRGDALogisticPrice(int256,int256,int256,int256,int256,uint256,int256)": "36e136d1",
    "getVRGDAPrice(int256,int256,int256,uint256,int256)": "14af9653",
    "productPrice(uint256,uint256,address,uint256,address,bytes)": "d7a3d0c8",
    "setProductPrice(uint256,uint256,address,int256,int256,int256)": "97010148"
  },
  "id": 12
}