{
  "abi": [
    {
      "inputs": [
        {
          "internalType": "address",
          "name": "productsModuleAddress",
          "type": "address"
        }
      ],
      "stateMutability": "nonpayable",
      "type": "constructor"
    },
    {
      "inputs": [
        {
          "internalType": "int256",
          "name": "targetPrice",
          "type": "int256"
        },
        {
          "internalType": "int256",
          "name": "decayConstant",
          "type": "int256"
        },
        {
          "internalType": "int256",
          "name": "timeSinceStart",
          "type": "int256"
        },
        {
          "internalType": "int256",
          "name": "logisticLimit",
          "type": "int256"
        },
        {
          "internalType": "uint256",
          "name": "sold",
          "type": "uint256"
        },
        {
          "internalType": "int256",
          "name": "timeFactor",
          "type": "int256"
        },
        {
          "internalType": "uint256",
          "name": "min",
          "type": "uint256"
        },
        {
          "internalType": "uint256",
          "name": "quantity",
          "type": "uint256"
        }
      ],
      "name": "getAdjustedVRGDALogisticPrice",
      "outputs": [
        {
          "internalType": "uint256",
          "name": "price",
          "type": "uint256"
        }
      ],
      "stateMutability": "pure",
      "type": "function"
    },
    {
      "inputs": [
        {
          "internalType": "int256",
          "name": "targetPrice",
          "type": "int256"
        },
        {
          "internalType": "int256",
          "name": "decayConstant",
          "type": "int256"
        },
        {
          "internalType": "int256",
          "name": "timeSinceStart",
          "type": "int256"
        },
        {
          "internalType": "uint256",
          "name": "sold",
          "type": "uint256"
        },
        {
          "internalType": "int256",
          "name": "timeFactor",
          "type": "int256"
        },
        {
          "internalType": "uint256",
          "name": "min",
          "type": "uint256"
        },
        {
          "internalType": "uint256",
          "name": "quantity",
          "type": "uint256"
        }
      ],
      "name": "getAdjustedVRGDAPrice",
      "outputs": [
        {
          "internalType": "uint256",
          "name": "price",
          "type": "uint256"
        }
      ],
      "stateMutability": "view",
      "type": "function"
    },
    {
      "inputs": [
        {
          "internalType": "int256",
          "name": "saleFactor",
          "type": "int256"
        },
        {
          "internalType": "int256",
          "name": "timeFactor",
          "type": "int256"
        }
      ],
      "name": "getTargetSaleTime",
      "outputs": [
        {
          "internalType": "int256",
          "name": "",
          "type": "int256"
        }
      ],
      "stateMutability": "pure",
      "type": "function"
    },
    {
      "inputs": [
        {
          "internalType": "int256",
          "name": "targetPrice",
          "type": "int256"
        },
        {
          "internalType": "int256",
          "name": "decayConstant",
          "type": "int256"
        },
        {
          "internalType": "int256",
          "name": "timeSinceStart",
          "type": "int256"
        },
        {
          "internalType": "int256",
          "name": "logisticLimit",
          "type": "int256"
        },
        {
          "internalType": "int256",
          "name": "logisticLimitDouble",
          "type": "int256"
        },
        {
          "internalType": "uint256",
          "name": "sold",
          "type": "uint256"
        },
        {
          "internalType": "int256",
          "name": "timeFactor",
          "type": "int256"
        },
        {
          "internalType": "uint256",
          "name": "min",
          "type": "uint256"
        }
      ],
      "name": "getVRGDALogisticPrice",
      "outputs": [
        {
          "internalType": "uint256",
          "name": "",
          "type": "uint256"
        }
      ],
      "stateMutability": "pure",
      "type": "function"
    },
    {
      "inputs": [
        {
          "internalType": "int256",
          "name": "targetPrice",
          "type": "int256"
        },
        {
          "internalType": "int256",
          "name": "decayConstant",
          "type": "int256"
        },
        {
          "internalType": "int256",
          "name": "timeSinceStart",
          "type": "int256"
        },
        {
          "internalType": "uint256",
          "name": "sold",
          "type": "uint256"
        },
        {
          "internalType": "int256",
          "name": "timeFactor",
          "type": "int256"
        },
        {
          "internalType": "uint256",
          "name": "min",
          "type": "uint256"
        }
      ],
      "name": "getVRGDAPrice",
      "outputs": [
        {
          "internalType": "uint256",
          "name": "",
          "type": "uint256"
        }
      ],
      "stateMutability": "view",
      "type": "function"
    },
    {
      "inputs": [
        {
          "internalType": "uint256",
          "name": "slicerId",
          "type": "uint256"
        },
        {
          "internalType": "uint256",
          "name": "productId",
          "type": "uint256"
        },
        {
          "internalType": "address",
          "name": "currency",
          "type": "address"
        },
        {
          "internalType": "uint256",
          "name": "quantity",
          "type": "uint256"
        },
        {
          "internalType": "address",
          "name": "",
          "type": "address"
        },
        {
          "internalType": "bytes",
          "name": "",
          "type": "bytes"
        }
      ],
      "name": "productPrice",
      "outputs": [
        {
          "internalType": "uint256",
          "name": "ethPrice",
          "type": "uint256"
        },
        {
          "internalType": "uint256",
          "name": "currencyPrice",
          "type": "uint256"
        }
      ],
      "stateMutability": "view",
      "type": "function"
    },
    {
      "inputs": [
        {
          "internalType": "uint256",
          "name": "slicerId",
          "type": "uint256"
        },
        {
          "internalType": "uint256",
          "name": "productId",
          "type": "uint256"
        },
        {
          "internalType": "address[]",
          "name": "currencies",
          "type": "address[]"
        },
        {
          "components": [
            {
              "internalType": "int128",
              "name": "targetPrice",
              "type": "int128"
            },
            {
              "internalType": "uint128",
              "name": "min",
              "type": "uint128"
            },
            {
              "internalType": "int256",
              "name": "timeScale",
              "type": "int256"
            }
          ],
          "internalType": "struct LogisticVRGDAParams[]",
          "name": "logisticParams",
          "type": "tuple[]"
        },
        {
          "internalType": "int256",
          "name": "priceDecayPercent",
          "type": "int256"
        }
      ],
      "name": "setProductPrice",
      "outputs": [],
      "stateMutability": "nonpayable",
      "type": "function"
    }
  ],
  "bytecode": {
    "object": "0x60a060405234801561001057600080fd5b506040516116a93803806116a983398101604081905261002f91610040565b6001600160a01b0316608052610070565b60006020828403121561005257600080fd5b81516001600160a01b038116811461006957600080fd5b9392505050565b608051611610610099600039600081816103ec015281816105e0015261087c01526116106000f3fe608060405234801561001057600080fd5b506004361061007d5760003560e01c8063c62cf1db1161005b578063c62cf1db146100ce578063c7596d28146100e1578063d7a3d0c8146100f4578063e60f3e111461011c57600080fd5b80633cd2e88414610082578063669186fb146100a8578063bbf86a0c146100bb575b600080fd5b610095610090366004610fb7565b610131565b6040519081526020015b60405180910390f35b6100956100b6366004610fb7565b610195565b6100956100c936600461100c565b6101f2565b6100956100dc36600461104f565b610244565b6100956100ef366004611071565b610276565b610107610102366004611115565b6102b9565b6040805192835260208301919091520161009f565b61012f61012a36600461126d565b61058b565b005b6000806101768a61017161016c8c61015b60018b01670de0b6b3a7640000028d018c055b8a610244565b8d03670de0b6b3a764000091020590565b610a95565b610cd4565b90508281116101855782610187565b805b9a9950505050505050505050565b6000806101aa87671bc16d674ec80000611359565b905060005b838110156101e4576101d08b8b8b8b866101c9878e611415565b8c8c610131565b6101da9084611415565b92506001016101af565b505098975050505050505050565b6000806102278861017161016c8a610216670de0b6b3a764000060018c0102610155565b8b03670de0b6b3a764000091020590565b90508281116102365782610238565b805b98975050505050505050565b600061026c61025c670de0b6b3a76400008503610cf9565b670de0b6b3a76400000283900590565b6000039392505050565b6000805b828110156102ad57610299898989610292858b611415565b89896101f2565b6102a39083611415565b915060010161027a565b50979650505050505050565b600086815260208181526040808320888452825280832073ffffffffffffffffffffffffffffffffffffffff881684526001808201845282852083516060810185528154600f81900b825270010000000000000000000000000000000090046fffffffffffffffffffffffffffffffff1695810195909552015491830191909152805483929064ffffffffff1683036103b3576040517f08c379a000000000000000000000000000000000000000000000000000000000815260206004820152600d60248201527f50524f445543545f554e5345540000000000000000000000000000000000000060448201526064015b60405180910390fd5b6040517f1eafafb4000000000000000000000000000000000000000000000000000000008152600481018b9052602481018a90526000907f000000000000000000000000000000000000000000000000000000000000000073ffffffffffffffffffffffffffffffffffffffff1690631eafafb4906044016040805180830381865afa158015610447573d6000803e3d6000fd5b505050506040513d601f19601f8201168201806040525081019061046b919061143d565b50905073ffffffffffffffffffffffffffffffffffffffff8916610548578151835461054191600f0b906901000000000000000000810460160b906104d0906104bb9064ffffffffff1642611469565b62015180670de0b6b3a7640000919091020490565b8654610503906104f09065010000000000900463ffffffff166001611480565b63ffffffff16670de0b6b3a76400000290565b875461051f90879065010000000000900463ffffffff16611469565b876040015188602001516fffffffffffffffffffffffffffffffff168f610195565b945061057d565b8151835461057a91600f0b906901000000000000000000810460160b906104d0906104bb9064ffffffffff1642611469565b93505b505050965096945050505050565b6040517fe6e9280800000000000000000000000000000000000000000000000000000000815260048101889052602481018790523360448201528790879073ffffffffffffffffffffffffffffffffffffffff7f0000000000000000000000000000000000000000000000000000000000000000169063e6e9280890606401602060405180830381865afa158015610627573d6000803e3d6000fd5b505050506040513d601f19601f8201168201806040525081019061064b91906114a8565b6106b1576040517f08c379a000000000000000000000000000000000000000000000000000000000815260206004820152601160248201527f4e4f545f50524f445543545f4f574e455200000000000000000000000000000060448201526064016103aa565b83861461071a576040517f08c379a000000000000000000000000000000000000000000000000000000000815260206004820152600e60248201527f494e56414c49445f494e5055545300000000000000000000000000000000000060448201526064016103aa565b600061073661073185670de0b6b3a76400006114ca565b610cf9565b9050600081126107a2576040517f08c379a000000000000000000000000000000000000000000000000000000000815260206004820152601b60248201527f4e4f4e5f4e454741544956455f44454341595f434f4e5354414e54000000000060448201526064016103aa565b7fffffffffffffffffff800000000000000000000000000000000000000000000081121561082c576040517f08c379a000000000000000000000000000000000000000000000000000000000815260206004820152601b60248201527f4d494e5f44454341595f434f4e5354414e545f4558434545444544000000000060448201526064016103aa565b6040517f1eafafb4000000000000000000000000000000000000000000000000000000008152600481018b9052602481018a9052600090819073ffffffffffffffffffffffffffffffffffffffff7f00000000000000000000000000000000000000000000000000000000000000001690631eafafb4906044016040805180830381865afa1580156108c2573d6000803e3d6000fd5b505050506040513d601f19601f820116820180604052508101906108e6919061143d565b915091508015610952576040517f08c379a000000000000000000000000000000000000000000000000000000000815260206004820152601760248201527f4e4f4e5f46494e4954455f415641494c4142494c49545900000000000000000060448201526064016103aa565b60008c8152602081815260408083208e8452909152812080544264ffffffffff167fffffffffffffffffffffffffffffffffffffffffffffff000000000000000000909116176501000000000063ffffffff8616021768ffffffffffffffffff16690100000000000000000076ffffffffffffffffffffffffffffffffffffffffffffff8716021790555b89811015610a86578888828181106109f7576109f761153e565b9050606002016000808f815260200190815260200160002060008e815260200190815260200160002060010160008d8d85818110610a3757610a3761153e565b9050602002016020810190610a4c919061156d565b73ffffffffffffffffffffffffffffffffffffffff1681526020810191909152604001600020610a7c8282611588565b50506001016109dd565b50505050505050505050505050565b60007ffffffffffffffffffffffffffffffffffffffffffffffffdb731c958f34d94c18213610ac657506000919050565b680755bf798b4a1bf1e58212610b38576040517f08c379a000000000000000000000000000000000000000000000000000000000815260206004820152600c60248201527f4558505f4f564552464c4f57000000000000000000000000000000000000000060448201526064016103aa565b6503782dace9d9604e83901b059150600060606bb17217f7d1cf79abc9e3b39884821b056b80000000000000000000000001901d6bb17217f7d1cf79abc9e3b39881029093037fffffffffffffffffffffffffffffffffffffffdbf3ccf1604d263450f02a550481018102606090811d6d0277594991cfc85f6e2461837cd9018202811d7fffffffffffffffffffffffffffffffffffffe5adedaa1cb095af9e4da10e363c018202811d6db1bbb201f443cf962f1a1d3db4a5018202811d7ffffffffffffffffffffffffffffffffffffd38dc772608b0ae56cce01296c0eb018202811d6e05180bb14799ab47a8a8cb2a527d57016d02d16720577bd19bf614176fe9ea6c10fe68e7fd37d0007b713f765084018402831d9081019084017ffffffffffffffffffffffffffffffffffffffe2c69812cf03b0763fd454a8f7e010290911d6e0587f503bb6ea29d25fcb7401964500190910279d835ebba824c98fb31b83b2ca45c000000000000000000000000010574029d9dc38563c32e5c2f6dc192ee70ef65f9978af30260c3939093039290921c92915050565b8181028215838205831417610ce857600080fd5b670de0b6b3a7640000900592915050565b6000808213610d64576040517f08c379a000000000000000000000000000000000000000000000000000000000815260206004820152600960248201527f554e444546494e4544000000000000000000000000000000000000000000000060448201526064016103aa565b5060606fffffffffffffffffffffffffffffffff821160071b82811c67ffffffffffffffff1060061b1782811c63ffffffff1060051b1782811c61ffff1060041b1782811c60ff10600390811b90911783811c600f1060021b1783811c909110600190811b90911783811c90911017609f81810383019390931b90921c6c465772b2bbbb5f824b15207a3081018102821d6d0388eaa27412d5aca026815d636e018102821d6d0df99ac502031bf953eff472fdcc018102821d6d13cdffb29d51d99322bdff5f2211018102821d6d0a0f742023def783a307a986912e018102821d6d01920d8043ca89b5239253284e42018102821d6c0b7a86d7375468fac667a0a527016c29508e458543d8aa4df2abee7882018202831d6d0139601a2efabe717e604cbb4894018202831d6d02247f7a7b6594320649aa03aba1018202831d7fffffffffffffffffffffffffffffffffffffff73c0c716a594e00d54e3c4cbc9018202831d7ffffffffffffffffffffffffffffffffffffffdc7b88c420e53a9890533129f6f01820290921d7fffffffffffffffffffffffffffffffffffffff465fda27eb4d63ded474e5f83201027ffffffffffffffff5f6af8f7b3396644f18e157960000000000000000000000000105711340daa0d5f769dba1915cef59f0815a5506027fffffffffffffffffffffffffffffffffffffffffffffffffffffffffffffffa0919091017d0267a36c0c95b3975ab3ee5b203a7614a3f75373f047d803ae7b6687f2b302017d57115e47018c7177eebf7cd370a3356a1b7863008a5ae8028c72b88642840160ae1d90565b600080600080600080600080610100898b031215610fd457600080fd5b505086359860208801359850604088013597606081013597506080810135965060a0810135955060c0810135945060e0013592509050565b60008060008060008060c0878903121561102557600080fd5b505084359660208601359650604086013595606081013595506080810135945060a0013592509050565b6000806040838503121561106257600080fd5b50508035926020909101359150565b600080600080600080600060e0888a03121561108c57600080fd5b505085359760208701359750604087013596606081013596506080810135955060a0810135945060c0013592509050565b803573ffffffffffffffffffffffffffffffffffffffff811681146110e157600080fd5b919050565b7f4e487b7100000000000000000000000000000000000000000000000000000000600052604160045260246000fd5b60008060008060008060c0878903121561112e57600080fd5b8635955060208701359450611145604088016110bd565b93506060870135925061115a608088016110bd565b915060a087013567ffffffffffffffff8082111561117757600080fd5b818901915089601f83011261118b57600080fd5b81358181111561119d5761119d6110e6565b604051601f82017fffffffffffffffffffffffffffffffffffffffffffffffffffffffffffffffe0908116603f011681019083821181831017156111e3576111e36110e6565b816040528281528c60208487010111156111fc57600080fd5b8260208601602083013760006020848301015280955050505050509295509295509295565b60008083601f84011261123357600080fd5b50813567ffffffffffffffff81111561124b57600080fd5b60208301915083602060608302850101111561126657600080fd5b9250929050565b600080600080600080600060a0888a03121561128857600080fd5b8735965060208801359550604088013567ffffffffffffffff808211156112ae57600080fd5b818a0191508a601f8301126112c257600080fd5b8135818111156112d157600080fd5b8b60208260051b85010111156112e657600080fd5b6020830197508096505060608a013591508082111561130457600080fd5b506113118a828b01611221565b989b979a50959894979596608090950135949350505050565b7f4e487b7100000000000000000000000000000000000000000000000000000000600052601160045260246000fd5b60007f7fffffffffffffffffffffffffffffffffffffffffffffffffffffffffffffff60008413600084138583048511828216161561139a5761139a61132a565b7f800000000000000000000000000000000000000000000000000000000000000060008712868205881281841616156113d5576113d561132a565b600087129250878205871284841616156113f1576113f161132a565b878505871281841616156114075761140761132a565b505050929093029392505050565b600082198211156114285761142861132a565b500190565b805180151581146110e157600080fd5b6000806040838503121561145057600080fd5b825191506114606020840161142d565b90509250929050565b60008282101561147b5761147b61132a565b500390565b600063ffffffff80831681851680830382111561149f5761149f61132a565b01949350505050565b6000602082840312156114ba57600080fd5b6114c38261142d565b9392505050565b6000808312837f8000000000000000000000000000000000000000000000000000000000000000018312811516156115045761150461132a565b837f7fffffffffffffffffffffffffffffffffffffffffffffffffffffffffffffff0183138116156115385761153861132a565b50500390565b7f4e487b7100000000000000000000000000000000000000000000000000000000600052603260045260246000fd5b60006020828403121561157f57600080fd5b6114c3826110bd565b813580600f0b811461159957600080fd5b81546fffffffffffffffffffffffffffffffff9182167fffffffffffffffffffffffffffffffff00000000000000000000000000000000918216811784559160208501359081811682146115ec57600080fd5b5060801b161781556040919091013560019091015556fea164736f6c634300080f000a",
    "linkReferences": {}
  },
  "methodIdentifiers": {
    "getAdjustedVRGDALogisticPrice(int256,int256,int256,int256,uint256,int256,uint256,uint256)": "669186fb",
    "getAdjustedVRGDAPrice(int256,int256,int256,uint256,int256,uint256,uint256)": "c7596d28",
    "getTargetSaleTime(int256,int256)": "c62cf1db",
    "getVRGDALogisticPrice(int256,int256,int256,int256,int256,uint256,int256,uint256)": "3cd2e884",
    "getVRGDAPrice(int256,int256,int256,uint256,int256,uint256)": "bbf86a0c",
    "productPrice(uint256,uint256,address,uint256,address,bytes)": "d7a3d0c8",
    "setProductPrice(uint256,uint256,address[],(int128,uint128,int256)[],int256)": "e60f3e11"
  },
  "id": 40
}