{
  "_format": "hh-sol-artifact-1",
  "contractName": "Slice",
  "sourceName": "contracts/slice_v0.sol",
  "abi": [
    {
      "anonymous": false,
      "inputs": [
        {
          "indexed": false,
          "internalType": "address",
          "name": "previousAdmin",
          "type": "address"
        },
        {
          "indexed": false,
          "internalType": "address",
          "name": "newAdmin",
          "type": "address"
        }
      ],
      "name": "AdminChanged",
      "type": "event"
    },
    {
      "anonymous": false,
      "inputs": [
        {
          "indexed": true,
          "internalType": "address",
          "name": "beacon",
          "type": "address"
        }
      ],
      "name": "BeaconUpgraded",
      "type": "event"
    },
    {
      "anonymous": false,
      "inputs": [
        {
          "indexed": true,
          "internalType": "address",
          "name": "previousOwner",
          "type": "address"
        },
        {
          "indexed": true,
          "internalType": "address",
          "name": "newOwner",
          "type": "address"
        }
      ],
      "name": "OwnershipTransferred",
      "type": "event"
    },
    {
      "anonymous": false,
      "inputs": [
        {
          "indexed": false,
          "internalType": "address",
          "name": "account",
          "type": "address"
        }
      ],
      "name": "Paused",
      "type": "event"
    },
    {
      "anonymous": false,
      "inputs": [
        {
          "indexed": false,
          "internalType": "address payable[]",
          "name": "slicerAddresses",
          "type": "address[]"
        },
        {
          "indexed": false,
          "internalType": "uint32[]",
          "name": "productIds",
          "type": "uint32[]"
        },
        {
          "indexed": false,
          "internalType": "uint16[]",
          "name": "quantities",
          "type": "uint16[]"
        },
        {
          "indexed": false,
          "internalType": "uint256",
          "name": "totalPaid",
          "type": "uint256"
        }
      ],
      "name": "ProductsPaid",
      "type": "event"
    },
    {
      "anonymous": false,
      "inputs": [
        {
          "indexed": false,
          "internalType": "address",
          "name": "slicerAddress",
          "type": "address"
        },
        {
          "indexed": false,
          "internalType": "uint256",
          "name": "tokenId",
          "type": "uint256"
        },
        {
          "indexed": false,
          "internalType": "address[]",
          "name": "payees",
          "type": "address[]"
        },
        {
          "indexed": false,
          "internalType": "uint256[]",
          "name": "shares",
          "type": "uint256[]"
        },
        {
          "indexed": false,
          "internalType": "uint256",
          "name": "minimumShares",
          "type": "uint256"
        }
      ],
      "name": "TokenSliced",
      "type": "event"
    },
    {
      "anonymous": false,
      "inputs": [
        {
          "indexed": true,
          "internalType": "address",
          "name": "account",
          "type": "address"
        },
        {
          "indexed": false,
          "internalType": "uint256",
          "name": "totalReleased",
          "type": "uint256"
        },
        {
          "indexed": false,
          "internalType": "uint8",
          "name": "slicerPercentage",
          "type": "uint8"
        }
      ],
      "name": "TriggeredRelease",
      "type": "event"
    },
    {
      "anonymous": false,
      "inputs": [
        {
          "indexed": false,
          "internalType": "address",
          "name": "account",
          "type": "address"
        }
      ],
      "name": "Unpaused",
      "type": "event"
    },
    {
      "anonymous": false,
      "inputs": [
        {
          "indexed": true,
          "internalType": "address",
          "name": "implementation",
          "type": "address"
        }
      ],
      "name": "Upgraded",
      "type": "event"
    },
    {
      "inputs": [
        {
          "internalType": "uint32",
          "name": "categoryIndex",
          "type": "uint32"
        }
      ],
      "name": "_addToSliceCategory",
      "outputs": [],
      "stateMutability": "nonpayable",
      "type": "function"
    },
    {
      "inputs": [
        {
          "internalType": "address",
          "name": "from",
          "type": "address"
        },
        {
          "internalType": "address",
          "name": "to",
          "type": "address"
        },
        {
          "internalType": "address[]",
          "name": "slicerAddresses",
          "type": "address[]"
        },
        {
          "internalType": "uint256[]",
          "name": "amounts",
          "type": "uint256[]"
        }
      ],
      "name": "_beforeTransfer",
      "outputs": [],
      "stateMutability": "nonpayable",
      "type": "function"
    },
    {
      "inputs": [
        {
          "internalType": "uint256",
          "name": "id",
          "type": "uint256"
        },
        {
          "internalType": "uint256",
          "name": "minimumShares",
          "type": "uint256"
        }
      ],
      "name": "_createSlicer",
      "outputs": [
        {
          "internalType": "address payable",
          "name": "",
          "type": "address"
        }
      ],
      "stateMutability": "nonpayable",
      "type": "function"
    },
    {
      "inputs": [
        {
          "internalType": "uint16",
          "name": "newValueSlice",
          "type": "uint16"
        },
        {
          "internalType": "uint16",
          "name": "newValueRelease",
          "type": "uint16"
        }
      ],
      "name": "_setMaximumBatch",
      "outputs": [],
      "stateMutability": "nonpayable",
      "type": "function"
    },
    {
      "inputs": [
        {
          "internalType": "address",
          "name": "newLogicImpl",
          "type": "address"
        }
      ],
      "name": "_upgradeSlicers",
      "outputs": [],
      "stateMutability": "nonpayable",
      "type": "function"
    },
    {
      "inputs": [],
      "name": "getEthUsd",
      "outputs": [
        {
          "internalType": "int256",
          "name": "",
          "type": "int256"
        }
      ],
      "stateMutability": "view",
      "type": "function"
    },
    {
      "inputs": [],
      "name": "implementation",
      "outputs": [
        {
          "internalType": "address",
          "name": "",
          "type": "address"
        }
      ],
      "stateMutability": "view",
      "type": "function"
    },
    {
      "inputs": [
        {
          "internalType": "address",
          "name": "SLCAddress",
          "type": "address"
        },
        {
          "internalType": "address",
          "name": "sliceCoreAddress",
          "type": "address"
        }
      ],
      "name": "initialize",
      "outputs": [],
      "stateMutability": "nonpayable",
      "type": "function"
    },
    {
      "inputs": [],
      "name": "owner",
      "outputs": [
        {
          "internalType": "address",
          "name": "",
          "type": "address"
        }
      ],
      "stateMutability": "view",
      "type": "function"
    },
    {
      "inputs": [],
      "name": "paused",
      "outputs": [
        {
          "internalType": "bool",
          "name": "",
          "type": "bool"
        }
      ],
      "stateMutability": "view",
      "type": "function"
    },
    {
      "inputs": [
        {
          "internalType": "address payable[]",
          "name": "slicerAddresses",
          "type": "address[]"
        },
        {
          "internalType": "uint32[]",
          "name": "productIds",
          "type": "uint32[]"
        },
        {
          "internalType": "uint16[]",
          "name": "quantities",
          "type": "uint16[]"
        }
      ],
      "name": "payProducts",
      "outputs": [],
      "stateMutability": "payable",
      "type": "function"
    },
    {
      "inputs": [],
      "name": "renounceOwnership",
      "outputs": [],
      "stateMutability": "nonpayable",
      "type": "function"
    },
    {
      "inputs": [
        {
          "internalType": "address[]",
          "name": "accounts",
          "type": "address[]"
        },
        {
          "internalType": "uint256[]",
          "name": "shares",
          "type": "uint256[]"
        },
        {
          "internalType": "uint256",
          "name": "minimumShares",
          "type": "uint256"
        }
      ],
      "name": "slice",
      "outputs": [],
      "stateMutability": "nonpayable",
      "type": "function"
    },
    {
      "inputs": [
        {
          "internalType": "uint256",
          "name": "id",
          "type": "uint256"
        }
      ],
      "name": "slicers",
      "outputs": [
        {
          "internalType": "address",
          "name": "",
          "type": "address"
        }
      ],
      "stateMutability": "view",
      "type": "function"
    },
    {
      "inputs": [],
      "name": "togglePause",
      "outputs": [],
      "stateMutability": "nonpayable",
      "type": "function"
    },
    {
      "inputs": [],
      "name": "totalTokens",
      "outputs": [
        {
          "internalType": "uint256",
          "name": "",
          "type": "uint256"
        }
      ],
      "stateMutability": "view",
      "type": "function"
    },
    {
      "inputs": [
        {
          "internalType": "address",
          "name": "newOwner",
          "type": "address"
        }
      ],
      "name": "transferOwnership",
      "outputs": [],
      "stateMutability": "nonpayable",
      "type": "function"
    },
    {
      "inputs": [
        {
          "internalType": "address",
          "name": "account",
          "type": "address"
        },
        {
          "internalType": "address[]",
          "name": "slicerAddresses",
          "type": "address[]"
        },
        {
          "internalType": "uint8",
          "name": "slicerPercentage",
          "type": "uint8"
        }
      ],
      "name": "triggerRelease",
      "outputs": [],
      "stateMutability": "nonpayable",
      "type": "function"
    },
    {
      "inputs": [
        {
          "internalType": "address",
          "name": "account",
          "type": "address"
        },
        {
          "internalType": "address[]",
          "name": "slicerAddresses",
          "type": "address[]"
        }
      ],
      "name": "unreleasedBatch",
      "outputs": [
        {
          "internalType": "uint256[]",
          "name": "",
          "type": "uint256[]"
        }
      ],
      "stateMutability": "view",
      "type": "function"
    },
    {
      "inputs": [
        {
          "internalType": "address",
          "name": "newImplementation",
          "type": "address"
        }
      ],
      "name": "upgradeTo",
      "outputs": [],
      "stateMutability": "nonpayable",
      "type": "function"
    },
    {
      "inputs": [
        {
          "internalType": "address",
          "name": "newImplementation",
          "type": "address"
        },
        {
          "internalType": "bytes",
          "name": "data",
          "type": "bytes"
        }
      ],
      "name": "upgradeToAndCall",
      "outputs": [],
      "stateMutability": "payable",
      "type": "function"
    }
  ],
  "bytecode": "0x608060405234801561001057600080fd5b50613c0e806100206000396000f3fe608060405260043610620001435760003560e01c8063817115f111620000b9578063d33f58451162000078578063d33f5845146200033f578063dae7d5181462000364578063e4b546141462000389578063edeb64ba14620003ab578063efab35b814620003df578063f2fde38b146200040457600080fd5b8063817115f114620002a55780638913ea4214620002ca5780638da5cb5b14620002ef578063bb27e0ce146200030f578063c4ae3168146200032757600080fd5b80634f1ef28611620001065780634f1ef28614620002125780635c60da1b14620002295780635c975abb1462000241578063715018a614620002665780637e1c0c09146200027e57600080fd5b8063175fa7ea14620001485780632f1f3154146200018a57806334d5ca0714620001a35780633659cfe614620001c8578063485cc95514620001ed575b600080fd5b3480156200015557600080fd5b506200016d62000167366004620026fc565b62000429565b6040516001600160a01b0390911681526020015b60405180910390f35b620001a16200019b366004620025c6565b620004b1565b005b348015620001b057600080fd5b506200016d620001c23660046200275c565b62000877565b348015620001d557600080fd5b50620001a1620001e7366004620022cb565b6200090f565b348015620001fa57600080fd5b50620001a16200020c3660046200230b565b62000937565b620001a1620002233660046200249f565b62000a7b565b3480156200023657600080fd5b506200016d62000a98565b3480156200024e57600080fd5b5060c95460ff16604051901515815260200162000181565b3480156200027357600080fd5b50620001a162000b58565b3480156200028b57600080fd5b506200029662000b93565b60405190815260200162000181565b348015620002b257600080fd5b50620001a1620002c436600462002433565b62000ba0565b348015620002d757600080fd5b50620001a1620002e9366004620026c4565b62000eb4565b348015620002fc57600080fd5b506097546001600160a01b03166200016d565b3480156200031c57600080fd5b506200029662000f0a565b3480156200033457600080fd5b50620001a162000fa3565b3480156200034c57600080fd5b50620001a16200035e36600462002552565b62000ff0565b3480156200037157600080fd5b50620001a16200038336600462002349565b62001414565b3480156200039657600080fd5b50620001a1620003a8366004620027cd565b50565b348015620003b857600080fd5b50620003d0620003ca366004620023dd565b620015fc565b60405162000181919062002a8c565b348015620003ec57600080fd5b50620001a1620003fe366004620022cb565b62001744565b3480156200041157600080fd5b50620001a162000423366004620022cb565b620017d6565b61012f54604051630bafd3f560e11b8152600481018390526000916001600160a01b03169063175fa7ea9060240160206040518083038186803b1580156200047057600080fd5b505afa15801562000485573d6000803e3d6000fd5b505050506040513d601f19601f82011682018060405250810190620004ab9190620022eb565b92915050565b600260fb541415620004e05760405162461bcd60e51b8152600401620004d79062002b39565b60405180910390fd5b600260fb5581518351148015620004f8575080518351145b620005465760405162461bcd60e51b815260206004820152601860248201527f4c656e6774687320646f6e277420636f72726573706f6e6400000000000000006044820152606401620004d7565b6000805b84518161ffff1610156200082c576000858261ffff168151811062000573576200057362002c99565b60200260200101519050600080826001600160a01b031663bfe5d835888661ffff1681518110620005a857620005a862002c99565b60200260200101516040518263ffffffff1660e01b8152600401620005d9919063ffffffff91909116815260200190565b604080518083038186803b158015620005f157600080fd5b505afa15801562000606573d6000803e3d6000fd5b505050506040513d601f19601f820116820180604052508101906200062c919062002730565b9150915060008115620006a55760006200064562000f0a565b905080888761ffff168151811062000661576200066162002c99565b602002602001015161ffff16856200067a919062002c09565b620006909069d3c21bcecceda100000062002c09565b6200069c919062002be6565b915050620006da565b868561ffff1681518110620006be57620006be62002c99565b602002602001015161ffff1683620006d7919062002c09565b90505b6000898661ffff1681518110620006f557620006f562002c99565b60200260200101516001600160a01b031682338b8961ffff168151811062000721576200072162002c99565b60200260200101518b8a61ffff168151811062000742576200074262002c99565b60209081029190910101516040516001600160a01b03909316602484015263ffffffff909116604483015261ffff16606482015260840160408051601f198184030181529181526020820180516001600160e01b031663061caa4960e31b17905251620007b091906200291c565b60006040518083038185875af1925050503d8060008114620007ef576040519150601f19603f3d011682016040523d82523d6000602084013e620007f4565b606091505b50509050806200080357600080fd5b6200080f828862002bcb565b965050505050508080620008239062002c5e565b9150506200054a565b507ff9c0c1c7138692bd4bff6843cde7f313f634c42eca9375fbd6ae91c4f3269a8c84848484604051620008649493929190620029e1565b60405180910390a15050600160fb555050565b61012d54604051602481018490523360448201526064810183905260009182916001600160a01b039091169060840160408051601f198184030181529181526020820180516001600160e01b0316631530a81360e21b17905251620008dc906200209b565b620008e99291906200298a565b604051809103906000f08015801562000906573d6000803e3d6000fd5b50949350505050565b6200091a8162001875565b620003a881604051806020016040528060008152506000620018a2565b600054610100900460ff168062000951575060005460ff16155b620009705760405162461bcd60e51b8152600401620004d79062002ab6565b600054610100900460ff1615801562000993576000805461ffff19166101011790555b6200099d62001a31565b61012e80546001600160a01b038086166001600160a01b03199283161790925561012f8054928516928216929092179091556101328054621e001e63ffffffff199091161790556101308054909116738a753747a1fa494ec906ce90e9f37563a8af630e179055604051839062000a1490620020a9565b6001600160a01b039091168152602001604051809103906000f08015801562000a41573d6000803e3d6000fd5b5061012d80546001600160a01b0319166001600160a01b0392909216919091179055801562000a76576000805461ff00191690555b505050565b62000a868262001875565b62000a9482826001620018a2565b5050565b6097546000906001600160a01b0316331462000ac85760405162461bcd60e51b8152600401620004d79062002b04565b61012d60009054906101000a90046001600160a01b03166001600160a01b0316635c60da1b6040518163ffffffff1660e01b815260040160206040518083038186803b15801562000b1857600080fd5b505afa15801562000b2d573d6000803e3d6000fd5b505050506040513d601f19601f8201168201806040525081019062000b539190620022eb565b905090565b6097546001600160a01b0316331462000b855760405162461bcd60e51b8152600401620004d79062002b04565b62000b91600062001ab6565b565b600062000b536101315490565b600260fb54141562000bc65760405162461bcd60e51b8152600401620004d79062002b39565b600260fb556101325482516201000090910461ffff16101562000c2c5760405162461bcd60e51b815260206004820152601960248201527f546f6f206d616e7920736c69636572732072656c6561736564000000000000006044820152606401620004d7565b823b156000805b84518161ffff16101562000e59576000858261ffff168151811062000c5c5762000c5c62002c99565b6020908102919091010151604051632a67293d60e01b81526001600160a01b038981166004830152919250600091831690632a67293d9060240160206040518083038186803b15801562000caf57600080fd5b505afa15801562000cc4573d6000803e3d6000fd5b505050506040513d601f19601f8201168201806040525081019062000cea919062002716565b111562000e4357604051631916558760e01b81526001600160a01b03888116600483015260009190831690631916558790602401602060405180830381600087803b15801562000d3957600080fd5b505af115801562000d4e573d6000803e3d6000fd5b505050506040513d601f19601f8201168201806040525081019062000d74919062002716565b9050841562000e335761012e5487516001600160a01b039091169063deb0e991908a9084908b9061ffff891690811062000db25762000db262002c99565b60209081029190910101516040516001600160e01b031960e086901b1681526001600160a01b039384166004820152602481019290925291909116604482015260ff89166064820152608401600060405180830381600087803b15801562000e1957600080fd5b505af115801562000e2e573d6000803e3d6000fd5b505050505b62000e3f818562002bcb565b9350505b508062000e508162002c5e565b91505062000c33565b50801562000ea8576040805182815260ff851660208201526001600160a01b038716917fc3fb528a4237f3152c096612970ef465ede8418e8e76bf125a4af53c8284ec43910160405180910390a25b5050600160fb55505050565b6097546001600160a01b0316331462000ee15760405162461bcd60e51b8152600401620004d79062002b04565b610132805461ffff928316620100000263ffffffff199091169290931691909117919091179055565b60008061013060009054906101000a90046001600160a01b03166001600160a01b031663feaf968c6040518163ffffffff1660e01b815260040160a06040518083038186803b15801562000f5d57600080fd5b505afa15801562000f72573d6000803e3d6000fd5b505050506040513d601f19601f8201168201806040525081019062000f989190620027eb565b509195945050505050565b6097546001600160a01b0316331462000fd05760405162461bcd60e51b8152600401620004d79062002b04565b60c95460ff161562000fe65762000b9162001b08565b62000b9162001b9d565b60c95460ff1615620010385760405162461bcd60e51b815260206004820152601060248201526f14185d5cd8589b194e881c185d5cd95960821b6044820152606401620004d7565b600260fb5414156200105e5760405162461bcd60e51b8152600401620004d79062002b39565b600260fb556000620010706101315490565b61013254855191925060009161ffff9091161015620010c65760405162461bcd60e51b8152602060048201526011602482015270546f6f206d616e79206163636f756e747360781b6044820152606401620004d7565b8351855114620011195760405162461bcd60e51b815260206004820152601760248201527f496e7075747320646f6e277420636f72726573706f6e640000000000000000006044820152606401620004d7565b60008311620011645760405162461bcd60e51b815260206004820152601660248201527553706563696679206d696e696d756d2073686172657360501b6044820152606401620004d7565b600062001172838562000877565b90508060005b87518161ffff1610156200130157620011b1888261ffff1681518110620011a357620011a362002c99565b60200260200101513b151590565b15620011e357620011e383898361ffff1681518110620011d557620011d562002c99565b602002602001015162001c1b565b8315801562001212575085878261ffff168151811062001207576200120762002c99565b602002602001015110155b156200121d57600193505b61012f5488516001600160a01b039091169063303cd08a908a9061ffff85169081106200124e576200124e62002c99565b6020026020010151878a8561ffff168151811062001270576200127062002c99565b60209081029190910101516040516001600160e01b031960e086901b1681526001600160a01b039384166004820152602481019290925260448201529086166064820152608401600060405180830381600087803b158015620012d257600080fd5b505af1158015620012e7573d6000803e3d6000fd5b505050508080620012f89062002c5e565b91505062001178565b5082620013515760405162461bcd60e51b815260206004820152601c60248201527f4e6f206163636f756e742068617320656e6f75676820736861726573000000006044820152606401620004d7565b60405163fd5e12e360e01b81526001600160a01b0382169063fd5e12e39062001381908a908a90600401620029b8565b600060405180830381600087803b1580156200139c57600080fd5b505af1158015620013b1573d6000803e3d6000fd5b50505050620013c561013180546001019055565b7fabb4a0d49573e631c30bbcf7a3c6e5cf60283225f4a12dcd3d75a603760960698285898989604051620013fe9594939291906200293a565b60405180910390a15050600160fb555050505050565b61012f546001600160a01b03163314620014605760405162461bcd60e51b815260206004820152600c60248201526b155b985d5d1a1bdc9a5e995960a21b6044820152606401620004d7565b823b1515620014728584600062000ba0565b60005b83518161ffff161015620015f457828161ffff16815181106200149c576200149c62002c99565b602002602001015160001415620014eb5760405162461bcd60e51b81526020600482015260126024820152710416d6f756e742063616e6e6f7420626520360741b6044820152606401620004d7565b81156200159157838161ffff16815181106200150b576200150b62002c99565b60200260200101516001600160a01b0316856001600160a01b03161415620015655760405162461bcd60e51b815260206004820152600c60248201526b05061796d656e74206c6f6f760a41b6044820152606401620004d7565b62001591848261ffff168151811062001582576200158262002c99565b60200260200101518662001c1b565b620015df8686868461ffff1681518110620015b057620015b062002c99565b6020026020010151868561ffff1681518110620015d157620015d162002c99565b602002602001015162001d61565b80620015eb8162002c5e565b91505062001475565b505050505050565b60606000825167ffffffffffffffff8111156200161d576200161d62002caf565b60405190808252806020026020018201604052801562001647578160200160208202803683370190505b50905060005b83518161ffff1610156200173c576000848261ffff168151811062001676576200167662002c99565b6020908102919091010151604051632a67293d60e01b81526001600160a01b03888116600483015291925090821690632a67293d9060240160206040518083038186803b158015620016c757600080fd5b505afa158015620016dc573d6000803e3d6000fd5b505050506040513d601f19601f8201168201806040525081019062001702919062002716565b838361ffff16815181106200171b576200171b62002c99565b60209081029190910101525080620017338162002c5e565b9150506200164d565b509392505050565b6097546001600160a01b03163314620017715760405162461bcd60e51b8152600401620004d79062002b04565b61012d54604051631b2ce7f360e11b81526001600160a01b03838116600483015290911690633659cfe690602401600060405180830381600087803b158015620017ba57600080fd5b505af1158015620017cf573d6000803e3d6000fd5b5050505050565b6097546001600160a01b03163314620018035760405162461bcd60e51b8152600401620004d79062002b04565b6001600160a01b0381166200186a5760405162461bcd60e51b815260206004820152602660248201527f4f776e61626c653a206e6577206f776e657220697320746865207a65726f206160448201526564647265737360d01b6064820152608401620004d7565b620003a88162001ab6565b6097546001600160a01b03163314620003a85760405162461bcd60e51b8152600401620004d79062002b04565b6000620018d67f360894a13ba1a3210667c828492db98dca3e2076cc3735a920a3ca505d382bbc546001600160a01b031690565b9050620018e38462001da2565b600083511180620018f15750815b15620019055762001903848462001e49565b505b7f4910fdfa16fed3260ed0e7147f7cc6da11a60208b5b9406d12a635614ffd9143805460ff16620017cf57805460ff191660011781556040516001600160a01b03831660248201526200198790869060440160408051601f198184030181529190526020810180516001600160e01b0316631b2ce7f360e11b17905262001e49565b50805460ff191681557f360894a13ba1a3210667c828492db98dca3e2076cc3735a920a3ca505d382bbc546001600160a01b0383811691161462001a265760405162461bcd60e51b815260206004820152602f60248201527f45524331393637557067726164653a207570677261646520627265616b73206660448201526e75727468657220757067726164657360881b6064820152608401620004d7565b620017cf8562001f3d565b600054610100900460ff168062001a4b575060005460ff16155b62001a6a5760405162461bcd60e51b8152600401620004d79062002ab6565b600054610100900460ff1615801562001a8d576000805461ffff19166101011790555b62001a9762001f7f565b62001aa162001fef565b8015620003a8576000805461ff001916905550565b609780546001600160a01b038381166001600160a01b0319831681179093556040519116919082907f8be0079c531659141344cd1fd0a4f28419497f9722a3daafe3b4186f6b6457e090600090a35050565b60c95460ff1662001b535760405162461bcd60e51b815260206004820152601460248201527314185d5cd8589b194e881b9bdd081c185d5cd95960621b6044820152606401620004d7565b60c9805460ff191690557f5db9ee0a495bf2e6ff9c91a7834c1ba4fdd244a5e8aa4e537bd38aeae4b073aa335b6040516001600160a01b03909116815260200160405180910390a1565b60c95460ff161562001be55760405162461bcd60e51b815260206004820152601060248201526f14185d5cd8589b194e881c185d5cd95960821b6044820152606401620004d7565b60c9805460ff191660011790557f62e78cea01bee320cd4e420270b5ea74000d11b0c9f74754ebdbfc544b05a25862001b803390565b600082905060008290506000816001600160a01b031663957e07b66040518163ffffffff1660e01b815260040160806040518083038186803b15801562001c6157600080fd5b505afa15801562001c76573d6000803e3d6000fd5b505050506040513d601f19601f8201168201806040525081019062001c9c91906200277f565b5050509050836001600160a01b031662001cb68262000429565b6001600160a01b03161462001cfd5760405162461bcd60e51b815260206004820152600c60248201526b2737ba10309029b634b1b2b960a11b6044820152606401620004d7565b60405163044eecfd60e41b8152600481018290526001600160a01b038416906344eecfd0906024015b600060405180830381600087803b15801562001d4157600080fd5b505af115801562001d56573d6000803e3d6000fd5b505050505050505050565b60405163177e569160e31b81526001600160a01b03858116600483015284811660248301526044820183905283919082169063bbf2b4889060640162001d26565b803b62001e085760405162461bcd60e51b815260206004820152602d60248201527f455243313936373a206e657720696d706c656d656e746174696f6e206973206e60448201526c1bdd08184818dbdb9d1c9858dd609a1b6064820152608401620004d7565b7f360894a13ba1a3210667c828492db98dca3e2076cc3735a920a3ca505d382bbc80546001600160a01b0319166001600160a01b0392909216919091179055565b6060823b62001eaa5760405162461bcd60e51b815260206004820152602660248201527f416464726573733a2064656c65676174652063616c6c20746f206e6f6e2d636f6044820152651b9d1c9858dd60d21b6064820152608401620004d7565b600080846001600160a01b03168460405162001ec791906200291c565b600060405180830381855af49150503d806000811462001f04576040519150601f19603f3d011682016040523d82523d6000602084013e62001f09565b606091505b509150915062001f34828260405180606001604052806027815260200162003bb26027913962002056565b95945050505050565b62001f488162001da2565b6040516001600160a01b038216907fbc7cd75a20ee27fd9adebab32041f755214dbc6bffa90cc0225b39da2e5c2d3b90600090a250565b600054610100900460ff168062001f99575060005460ff16155b62001fb85760405162461bcd60e51b8152600401620004d79062002ab6565b600054610100900460ff1615801562001aa1576000805461ffff19166101011790558015620003a8576000805461ff001916905550565b600054610100900460ff168062002009575060005460ff16155b620020285760405162461bcd60e51b8152600401620004d79062002ab6565b600054610100900460ff161580156200204b576000805461ffff19166101011790555b62001aa13362001ab6565b606083156200206757508162002094565b825115620020785782518084602001fd5b8160405162461bcd60e51b8152600401620004d7919062002aa1565b9392505050565b6109938062002cec83390190565b610533806200367f83390190565b600082601f830112620020c957600080fd5b81356020620020e2620020dc8362002ba4565b62002b70565b80838252828201915082860187848660051b89010111156200210357600080fd5b60005b858110156200212f5781356200211c8162002cc5565b8452928401929084019060010162002106565b5090979650505050505050565b600082601f8301126200214e57600080fd5b8135602062002161620020dc8362002ba4565b80838252828201915082860187848660051b89010111156200218257600080fd5b60005b858110156200212f57620021998262002283565b8452928401929084019060010162002185565b600082601f830112620021be57600080fd5b81356020620021d1620020dc8362002ba4565b80838252828201915082860187848660051b8901011115620021f257600080fd5b60005b858110156200212f57813584529284019290840190600101620021f5565b600082601f8301126200222557600080fd5b8135602062002238620020dc8362002ba4565b80838252828201915082860187848660051b89010111156200225957600080fd5b60005b858110156200212f5762002270826200229b565b845292840192908401906001016200225c565b803561ffff811681146200229657600080fd5b919050565b803563ffffffff811681146200229657600080fd5b805169ffffffffffffffffffff811681146200229657600080fd5b600060208284031215620022de57600080fd5b8135620020948162002cc5565b600060208284031215620022fe57600080fd5b8151620020948162002cc5565b600080604083850312156200231f57600080fd5b82356200232c8162002cc5565b915060208301356200233e8162002cc5565b809150509250929050565b600080600080608085870312156200236057600080fd5b84356200236d8162002cc5565b935060208501356200237f8162002cc5565b9250604085013567ffffffffffffffff808211156200239d57600080fd5b620023ab88838901620020b7565b93506060870135915080821115620023c257600080fd5b50620023d187828801620021ac565b91505092959194509250565b60008060408385031215620023f157600080fd5b8235620023fe8162002cc5565b9150602083013567ffffffffffffffff8111156200241b57600080fd5b6200242985828601620020b7565b9150509250929050565b6000806000606084860312156200244957600080fd5b8335620024568162002cc5565b9250602084013567ffffffffffffffff8111156200247357600080fd5b6200248186828701620020b7565b9250506040840135620024948162002cdb565b809150509250925092565b60008060408385031215620024b357600080fd5b8235620024c08162002cc5565b915060208381013567ffffffffffffffff80821115620024df57600080fd5b818601915086601f830112620024f457600080fd5b81358181111562002509576200250962002caf565b6200251d601f8201601f1916850162002b70565b915080825287848285010111156200253457600080fd5b80848401858401376000848284010152508093505050509250929050565b6000806000606084860312156200256857600080fd5b833567ffffffffffffffff808211156200258157600080fd5b6200258f87838801620020b7565b94506020860135915080821115620025a657600080fd5b50620025b586828701620021ac565b925050604084013590509250925092565b600080600060608486031215620025dc57600080fd5b833567ffffffffffffffff80821115620025f557600080fd5b818601915086601f8301126200260a57600080fd5b813560206200261d620020dc8362002ba4565b8083825282820191508286018b848660051b89010111156200263e57600080fd5b600096505b848710156200266e578035620026598162002cc5565b83526001969096019591830191830162002643565b50975050870135925050808211156200268657600080fd5b620026948783880162002213565b93506040860135915080821115620026ab57600080fd5b50620026ba868287016200213c565b9150509250925092565b60008060408385031215620026d857600080fd5b620026e38362002283565b9150620026f36020840162002283565b90509250929050565b6000602082840312156200270f57600080fd5b5035919050565b6000602082840312156200272957600080fd5b5051919050565b600080604083850312156200274457600080fd5b82519150602083015180151581146200233e57600080fd5b600080604083850312156200277057600080fd5b50508035926020909101359150565b600080600080608085870312156200279657600080fd5b845193506020850151620027aa8162002cdb565b6040860151909350620027bd8162002cc5565b6060959095015193969295505050565b600060208284031215620027e057600080fd5b62002094826200229b565b600080600080600060a086880312156200280457600080fd5b6200280f86620022b0565b94506020860151935060408601519250606086015191506200283460808701620022b0565b90509295509295909350565b600081518084526020808501945080840160005b838110156200287b5781516001600160a01b03168752958201959082019060010162002854565b509495945050505050565b600081518084526020808501945080840160005b838110156200287b57815161ffff16875295820195908201906001016200289a565b600081518084526020808501945080840160005b838110156200287b57815187529582019590820190600101620028d0565b600081518084526200290881602086016020860162002c2b565b601f01601f19169290920160200192915050565b600082516200293081846020870162002c2b565b9190910192915050565b60018060a01b038616815284602082015260a0604082015260006200296360a083018662002840565b8281036060840152620029778186620028bc565b9150508260808301529695505050505050565b6001600160a01b0383168152604060208201819052600090620029b090830184620028ee565b949350505050565b604081526000620029cd604083018562002840565b828103602084015262001f348185620028bc565b6080808252855190820181905260009060209060a0840190828901845b8281101562002a255781516001600160a01b031684529284019290840190600101620029fe565b5050508381038285015286518082528783019183019060005b8181101562002a6257835163ffffffff168352928401929184019160010162002a3e565b5050848103604086015262002a78818862002886565b935050505082606083015295945050505050565b602081526000620020946020830184620028bc565b602081526000620020946020830184620028ee565b6020808252602e908201527f496e697469616c697a61626c653a20636f6e747261637420697320616c72656160408201526d191e481a5b9a5d1a585b1a5e995960921b606082015260800190565b6020808252818101527f4f776e61626c653a2063616c6c6572206973206e6f7420746865206f776e6572604082015260600190565b6020808252601f908201527f5265656e7472616e637947756172643a207265656e7472616e742063616c6c00604082015260600190565b604051601f8201601f1916810167ffffffffffffffff8111828210171562002b9c5762002b9c62002caf565b604052919050565b600067ffffffffffffffff82111562002bc15762002bc162002caf565b5060051b60200190565b6000821982111562002be15762002be162002c83565b500190565b60008262002c0457634e487b7160e01b600052601260045260246000fd5b500490565b600081600019048311821515161562002c265762002c2662002c83565b500290565b60005b8381101562002c4857818101518382015260200162002c2e565b8381111562002c58576000848401525b50505050565b600061ffff8083168181141562002c795762002c7962002c83565b6001019392505050565b634e487b7160e01b600052601160045260246000fd5b634e487b7160e01b600052603260045260246000fd5b634e487b7160e01b600052604160045260246000fd5b6001600160a01b0381168114620003a857600080fd5b60ff81168114620003a857600080fdfe608060405260405161099338038061099383398101604081905261002291610470565b61004d60017fa3f0ad74e5423aebfd80d3ef4346578335a9a72aeaee59ff6cb3582b35133d5161057f565b60008051602061094c83398151915214610069576100696105d0565b6100758282600061007c565b50506105fc565b61008583610156565b6040516001600160a01b038416907f1cf3b03a6cf19fa2baba4df148e9dcabedea7f8a5c07840e207e5c089be95d3e90600090a26000825111806100c65750805b156101515761014f836001600160a01b0316635c60da1b6040518163ffffffff1660e01b815260040160206040518083038186803b15801561010757600080fd5b505afa15801561011b573d6000803e3d6000fd5b505050506040513d601f19601f8201168201806040525081019061013f9190610455565b836102f660201b6100291760201c565b505b505050565b6101698161032260201b6100551760201c565b6101c85760405162461bcd60e51b815260206004820152602560248201527f455243313936373a206e657720626561636f6e206973206e6f74206120636f6e6044820152641d1c9858dd60da1b60648201526084015b60405180910390fd5b61024b816001600160a01b0316635c60da1b6040518163ffffffff1660e01b815260040160206040518083038186803b15801561020457600080fd5b505afa158015610218573d6000803e3d6000fd5b505050506040513d601f19601f8201168201806040525081019061023c9190610455565b61032260201b6100551760201c565b6102b05760405162461bcd60e51b815260206004820152603060248201527f455243313936373a20626561636f6e20696d706c656d656e746174696f6e206960448201526f1cc81b9bdd08184818dbdb9d1c9858dd60821b60648201526084016101bf565b806102d560008051602061094c83398151915260001b61032860201b61005b1760201c565b80546001600160a01b0319166001600160a01b039290921691909117905550565b606061031b838360405180606001604052806027815260200161096c6027913961032b565b9392505050565b3b151590565b90565b6060833b61038a5760405162461bcd60e51b815260206004820152602660248201527f416464726573733a2064656c65676174652063616c6c20746f206e6f6e2d636f6044820152651b9d1c9858dd60d21b60648201526084016101bf565b600080856001600160a01b0316856040516103a59190610530565b600060405180830381855af49150503d80600081146103e0576040519150601f19603f3d011682016040523d82523d6000602084013e6103e5565b606091505b5090925090506103f6828286610400565b9695505050505050565b6060831561040f57508161031b565b82511561041f5782518084602001fd5b8160405162461bcd60e51b81526004016101bf919061054c565b80516001600160a01b038116811461045057600080fd5b919050565b60006020828403121561046757600080fd5b61031b82610439565b6000806040838503121561048357600080fd5b61048c83610439565b60208401519092506001600160401b03808211156104a957600080fd5b818501915085601f8301126104bd57600080fd5b8151818111156104cf576104cf6105e6565b604051601f8201601f19908116603f011681019083821181831017156104f7576104f76105e6565b8160405282815288602084870101111561051057600080fd5b6105218360208301602088016105a4565b80955050505050509250929050565b600082516105428184602087016105a4565b9190910192915050565b602081526000825180602084015261056b8160408501602087016105a4565b601f01601f19169190910160400192915050565b60008282101561059f57634e487b7160e01b600052601160045260246000fd5b500390565b60005b838110156105bf5781810151838201526020016105a7565b8381111561014f5750506000910152565b634e487b7160e01b600052600160045260246000fd5b634e487b7160e01b600052604160045260246000fd5b6103418061060b6000396000f3fe60806040523661001357610011610017565b005b6100115b61002761002261005e565b610106565b565b606061004e83836040518060600160405280602781526020016102e56027913961012a565b9392505050565b3b151590565b90565b60006100917fa3f0ad74e5423aebfd80d3ef4346578335a9a72aeaee59ff6cb3582b35133d50546001600160a01b031690565b6001600160a01b0316635c60da1b6040518163ffffffff1660e01b815260040160206040518083038186803b1580156100c957600080fd5b505afa1580156100dd573d6000803e3d6000fd5b505050506040513d601f19601f82011682018060405250810190610101919061023c565b905090565b3660008037600080366000845af43d6000803e808015610125573d6000f35b3d6000fd5b6060833b61018e5760405162461bcd60e51b815260206004820152602660248201527f416464726573733a2064656c65676174652063616c6c20746f206e6f6e2d636f6044820152651b9d1c9858dd60d21b60648201526084015b60405180910390fd5b600080856001600160a01b0316856040516101a99190610265565b600060405180830381855af49150503d80600081146101e4576040519150601f19603f3d011682016040523d82523d6000602084013e6101e9565b606091505b50915091506101f9828286610203565b9695505050505050565b6060831561021257508161004e565b8251156102225782518084602001fd5b8160405162461bcd60e51b81526004016101859190610281565b60006020828403121561024e57600080fd5b81516001600160a01b038116811461004e57600080fd5b600082516102778184602087016102b4565b9190910192915050565b60208152600082518060208401526102a08160408501602087016102b4565b601f01601f19169190910160400192915050565b60005b838110156102cf5781810151838201526020016102b7565b838111156102de576000848401525b5050505056fe416464726573733a206c6f772d6c6576656c2064656c65676174652063616c6c206661696c6564a2646970667358221220083f5423fec368aabbb0acd6db8adae396291ef41caa6b7829ce8e6ae4b7618364736f6c63430008070033a3f0ad74e5423aebfd80d3ef4346578335a9a72aeaee59ff6cb3582b35133d50416464726573733a206c6f772d6c6576656c2064656c65676174652063616c6c206661696c6564608060405234801561001057600080fd5b5060405161053338038061053383398101604081905261002f91610130565b600080546001600160a01b031916339081178255604051909182917f8be0079c531659141344cd1fd0a4f28419497f9722a3daafe3b4186f6b6457e0908290a3506100798161007f565b50610160565b6100928161012a60201b6102971760201c565b6101085760405162461bcd60e51b815260206004820152603360248201527f5570677261646561626c65426561636f6e3a20696d706c656d656e746174696f60448201527f6e206973206e6f74206120636f6e747261637400000000000000000000000000606482015260840160405180910390fd5b600180546001600160a01b0319166001600160a01b0392909216919091179055565b3b151590565b60006020828403121561014257600080fd5b81516001600160a01b038116811461015957600080fd5b9392505050565b6103c48061016f6000396000f3fe608060405234801561001057600080fd5b50600436106100575760003560e01c80633659cfe61461005c5780635c60da1b14610071578063715018a61461009a5780638da5cb5b146100a2578063f2fde38b146100b3575b600080fd5b61006f61006a366004610329565b6100c6565b005b6001546001600160a01b03165b6040516001600160a01b03909116815260200160405180910390f35b61006f610139565b6000546001600160a01b031661007e565b61006f6100c1366004610329565b6101ad565b6000546001600160a01b031633146100f95760405162461bcd60e51b81526004016100f090610359565b60405180910390fd5b6101028161029d565b6040516001600160a01b038216907fbc7cd75a20ee27fd9adebab32041f755214dbc6bffa90cc0225b39da2e5c2d3b90600090a250565b6000546001600160a01b031633146101635760405162461bcd60e51b81526004016100f090610359565b600080546040516001600160a01b03909116907f8be0079c531659141344cd1fd0a4f28419497f9722a3daafe3b4186f6b6457e0908390a3600080546001600160a01b0319169055565b6000546001600160a01b031633146101d75760405162461bcd60e51b81526004016100f090610359565b6001600160a01b03811661023c5760405162461bcd60e51b815260206004820152602660248201527f4f776e61626c653a206e6577206f776e657220697320746865207a65726f206160448201526564647265737360d01b60648201526084016100f0565b600080546040516001600160a01b03808516939216917f8be0079c531659141344cd1fd0a4f28419497f9722a3daafe3b4186f6b6457e091a3600080546001600160a01b0319166001600160a01b0392909216919091179055565b3b151590565b803b6103075760405162461bcd60e51b815260206004820152603360248201527f5570677261646561626c65426561636f6e3a20696d706c656d656e746174696f6044820152721b881a5cc81b9bdd08184818dbdb9d1c9858dd606a1b60648201526084016100f0565b600180546001600160a01b0319166001600160a01b0392909216919091179055565b60006020828403121561033b57600080fd5b81356001600160a01b038116811461035257600080fd5b9392505050565b6020808252818101527f4f776e61626c653a2063616c6c6572206973206e6f7420746865206f776e657260408201526060019056fea26469706673582212207275df78dfd66d143bcc8b7c3154fdd858d9beab0bf0447ae30d752300bb428764736f6c63430008070033416464726573733a206c6f772d6c6576656c2064656c65676174652063616c6c206661696c6564a2646970667358221220a33f67bda28cbe6e6f826d9da3d230ea8e34b368b9ac90570e416d61af700f3164736f6c63430008070033",
  "linkReferences": {},
  "deployedLinkReferences": {}
}