{
  "_format": "hh-sol-artifact-1",
  "contractName": "Slice",
  "sourceName": "contracts/slice_v0.sol",
  "abi": [
    {
      "anonymous": false,
      "inputs": [
        {
          "indexed": false,
          "internalType": "address",
          "name": "previousAdmin",
          "type": "address"
        },
        {
          "indexed": false,
          "internalType": "address",
          "name": "newAdmin",
          "type": "address"
        }
      ],
      "name": "AdminChanged",
      "type": "event"
    },
    {
      "anonymous": false,
      "inputs": [
        {
          "indexed": true,
          "internalType": "address",
          "name": "beacon",
          "type": "address"
        }
      ],
      "name": "BeaconUpgraded",
      "type": "event"
    },
    {
      "anonymous": false,
      "inputs": [
        {
          "indexed": true,
          "internalType": "address",
          "name": "previousOwner",
          "type": "address"
        },
        {
          "indexed": true,
          "internalType": "address",
          "name": "newOwner",
          "type": "address"
        }
      ],
      "name": "OwnershipTransferred",
      "type": "event"
    },
    {
      "anonymous": false,
      "inputs": [
        {
          "indexed": false,
          "internalType": "address",
          "name": "account",
          "type": "address"
        }
      ],
      "name": "Paused",
      "type": "event"
    },
    {
      "anonymous": false,
      "inputs": [
        {
          "indexed": false,
          "internalType": "address payable[]",
          "name": "slicerAddresses",
          "type": "address[]"
        },
        {
          "indexed": false,
          "internalType": "uint32[]",
          "name": "productIds",
          "type": "uint32[]"
        },
        {
          "indexed": false,
          "internalType": "uint16[]",
          "name": "quantities",
          "type": "uint16[]"
        },
        {
          "indexed": false,
          "internalType": "uint256",
          "name": "totalPaid",
          "type": "uint256"
        }
      ],
      "name": "ProductsPaid",
      "type": "event"
    },
    {
      "anonymous": false,
      "inputs": [
        {
          "indexed": false,
          "internalType": "address",
          "name": "slicerAddress",
          "type": "address"
        },
        {
          "indexed": false,
          "internalType": "uint256",
          "name": "tokenId",
          "type": "uint256"
        },
        {
          "indexed": false,
          "internalType": "address[]",
          "name": "payees",
          "type": "address[]"
        },
        {
          "indexed": false,
          "internalType": "uint256[]",
          "name": "shares",
          "type": "uint256[]"
        },
        {
          "indexed": false,
          "internalType": "uint256",
          "name": "minimumShares",
          "type": "uint256"
        }
      ],
      "name": "TokenSliced",
      "type": "event"
    },
    {
      "anonymous": false,
      "inputs": [
        {
          "indexed": true,
          "internalType": "address",
          "name": "account",
          "type": "address"
        },
        {
          "indexed": false,
          "internalType": "uint256",
          "name": "totalReleased",
          "type": "uint256"
        },
        {
          "indexed": false,
          "internalType": "uint8",
          "name": "slicerPercentage",
          "type": "uint8"
        }
      ],
      "name": "TriggeredRelease",
      "type": "event"
    },
    {
      "anonymous": false,
      "inputs": [
        {
          "indexed": false,
          "internalType": "address",
          "name": "account",
          "type": "address"
        }
      ],
      "name": "Unpaused",
      "type": "event"
    },
    {
      "anonymous": false,
      "inputs": [
        {
          "indexed": true,
          "internalType": "address",
          "name": "implementation",
          "type": "address"
        }
      ],
      "name": "Upgraded",
      "type": "event"
    },
    {
      "inputs": [
        {
          "internalType": "uint32",
          "name": "categoryIndex",
          "type": "uint32"
        }
      ],
      "name": "_addToSliceCategory",
      "outputs": [],
      "stateMutability": "nonpayable",
      "type": "function"
    },
    {
      "inputs": [
        {
          "internalType": "address",
          "name": "from",
          "type": "address"
        },
        {
          "internalType": "address",
          "name": "to",
          "type": "address"
        },
        {
          "internalType": "address[]",
          "name": "slicerAddresses",
          "type": "address[]"
        },
        {
          "internalType": "uint256[]",
          "name": "amounts",
          "type": "uint256[]"
        }
      ],
      "name": "_beforeTransfer",
      "outputs": [],
      "stateMutability": "nonpayable",
      "type": "function"
    },
    {
      "inputs": [
        {
          "internalType": "uint256",
          "name": "id",
          "type": "uint256"
        },
        {
          "internalType": "uint256",
          "name": "minimumShares",
          "type": "uint256"
        }
      ],
      "name": "_createSlicer",
      "outputs": [
        {
          "internalType": "address payable",
          "name": "",
          "type": "address"
        }
      ],
      "stateMutability": "nonpayable",
      "type": "function"
    },
    {
      "inputs": [],
      "name": "_implementation",
      "outputs": [
        {
          "internalType": "address",
          "name": "",
          "type": "address"
        }
      ],
      "stateMutability": "view",
      "type": "function"
    },
    {
      "inputs": [
        {
          "internalType": "uint16",
          "name": "newValueSlice",
          "type": "uint16"
        },
        {
          "internalType": "uint16",
          "name": "newValueRelease",
          "type": "uint16"
        }
      ],
      "name": "_setMaximumBatch",
      "outputs": [],
      "stateMutability": "nonpayable",
      "type": "function"
    },
    {
      "inputs": [],
      "name": "_togglePause",
      "outputs": [],
      "stateMutability": "nonpayable",
      "type": "function"
    },
    {
      "inputs": [
        {
          "internalType": "address",
          "name": "newLogicImpl",
          "type": "address"
        }
      ],
      "name": "_upgradeSlicers",
      "outputs": [],
      "stateMutability": "nonpayable",
      "type": "function"
    },
    {
      "inputs": [],
      "name": "getEthUsd",
      "outputs": [
        {
          "internalType": "int256",
          "name": "",
          "type": "int256"
        }
      ],
      "stateMutability": "view",
      "type": "function"
    },
    {
      "inputs": [
        {
          "internalType": "address",
          "name": "SLCAddress",
          "type": "address"
        },
        {
          "internalType": "address",
          "name": "sliceCoreAddress",
          "type": "address"
        }
      ],
      "name": "initialize",
      "outputs": [],
      "stateMutability": "nonpayable",
      "type": "function"
    },
    {
      "inputs": [],
      "name": "owner",
      "outputs": [
        {
          "internalType": "address",
          "name": "",
          "type": "address"
        }
      ],
      "stateMutability": "view",
      "type": "function"
    },
    {
      "inputs": [],
      "name": "paused",
      "outputs": [
        {
          "internalType": "bool",
          "name": "",
          "type": "bool"
        }
      ],
      "stateMutability": "view",
      "type": "function"
    },
    {
      "inputs": [
        {
          "internalType": "address payable[]",
          "name": "slicerAddresses",
          "type": "address[]"
        },
        {
          "internalType": "uint32[]",
          "name": "productIds",
          "type": "uint32[]"
        },
        {
          "internalType": "uint16[]",
          "name": "quantities",
          "type": "uint16[]"
        }
      ],
      "name": "payProducts",
      "outputs": [],
      "stateMutability": "payable",
      "type": "function"
    },
    {
      "inputs": [],
      "name": "renounceOwnership",
      "outputs": [],
      "stateMutability": "nonpayable",
      "type": "function"
    },
    {
      "inputs": [
        {
          "internalType": "address[]",
          "name": "accounts",
          "type": "address[]"
        },
        {
          "internalType": "uint256[]",
          "name": "shares",
          "type": "uint256[]"
        },
        {
          "internalType": "uint256",
          "name": "minimumShares",
          "type": "uint256"
        }
      ],
      "name": "slice",
      "outputs": [],
      "stateMutability": "nonpayable",
      "type": "function"
    },
    {
      "inputs": [
        {
          "internalType": "uint256",
          "name": "id",
          "type": "uint256"
        }
      ],
      "name": "slicers",
      "outputs": [
        {
          "internalType": "address",
          "name": "",
          "type": "address"
        }
      ],
      "stateMutability": "view",
      "type": "function"
    },
    {
      "inputs": [],
      "name": "totalTokens",
      "outputs": [
        {
          "internalType": "uint256",
          "name": "",
          "type": "uint256"
        }
      ],
      "stateMutability": "view",
      "type": "function"
    },
    {
      "inputs": [
        {
          "internalType": "address",
          "name": "newOwner",
          "type": "address"
        }
      ],
      "name": "transferOwnership",
      "outputs": [],
      "stateMutability": "nonpayable",
      "type": "function"
    },
    {
      "inputs": [
        {
          "internalType": "address",
          "name": "account",
          "type": "address"
        },
        {
          "internalType": "address[]",
          "name": "slicerAddresses",
          "type": "address[]"
        },
        {
          "internalType": "uint8",
          "name": "slicerPercentage",
          "type": "uint8"
        }
      ],
      "name": "triggerRelease",
      "outputs": [],
      "stateMutability": "nonpayable",
      "type": "function"
    },
    {
      "inputs": [
        {
          "internalType": "address",
          "name": "account",
          "type": "address"
        },
        {
          "internalType": "address[]",
          "name": "slicerAddresses",
          "type": "address[]"
        }
      ],
      "name": "unreleasedBatch",
      "outputs": [
        {
          "internalType": "uint256[]",
          "name": "",
          "type": "uint256[]"
        }
      ],
      "stateMutability": "view",
      "type": "function"
    },
    {
      "inputs": [
        {
          "internalType": "address",
          "name": "newImplementation",
          "type": "address"
        }
      ],
      "name": "upgradeTo",
      "outputs": [],
      "stateMutability": "nonpayable",
      "type": "function"
    },
    {
      "inputs": [
        {
          "internalType": "address",
          "name": "newImplementation",
          "type": "address"
        },
        {
          "internalType": "bytes",
          "name": "data",
          "type": "bytes"
        }
      ],
      "name": "upgradeToAndCall",
      "outputs": [],
      "stateMutability": "payable",
      "type": "function"
    }
  ],
  "bytecode": "0x608060405234801561001057600080fd5b50613b42806100206000396000f3fe608060405260043610620001435760003560e01c80637e1c0c0911620000b9578063d33f58451162000078578063d33f5845146200033f578063dae7d5181462000364578063e4b546141462000389578063edeb64ba14620003ab578063efab35b814620003df578063f2fde38b146200040457600080fd5b80637e1c0c091462000296578063817115f114620002bd5780638913ea4214620002e25780638da5cb5b1462000307578063bb27e0ce146200032757600080fd5b8063485cc9551162000106578063485cc95514620002055780634f1ef286146200022a57806359679b0f14620002415780635c975abb1462000259578063715018a6146200027e57600080fd5b8063175fa7ea14620001485780632f1f3154146200018a57806334d5ca0714620001a35780633659cfe614620001c8578063405b4c3614620001ed575b600080fd5b3480156200015557600080fd5b506200016d620001673660046200267f565b62000429565b6040516001600160a01b0390911681526020015b60405180910390f35b620001a16200019b36600462002549565b620004b1565b005b348015620001b057600080fd5b506200016d620001c2366004620026b3565b620007fa565b348015620001d557600080fd5b50620001a1620001e73660046200224e565b62000892565b348015620001fa57600080fd5b50620001a1620008ba565b3480156200021257600080fd5b50620001a1620002243660046200228e565b62000909565b620001a16200023b36600462002422565b62000a4d565b3480156200024e57600080fd5b506200016d62000a6a565b3480156200026657600080fd5b5060c95460ff16604051901515815260200162000181565b3480156200028b57600080fd5b50620001a162000b2a565b348015620002a357600080fd5b50620002ae62000b63565b60405190815260200162000181565b348015620002ca57600080fd5b50620001a1620002dc366004620023b6565b62000b70565b348015620002ef57600080fd5b50620001a16200030136600462002647565b62000e84565b3480156200031457600080fd5b506097546001600160a01b03166200016d565b3480156200033457600080fd5b50620002ae62000eda565b3480156200034c57600080fd5b50620001a16200035e366004620024d5565b62000f73565b3480156200037157600080fd5b50620001a162000383366004620022cc565b62001397565b3480156200039657600080fd5b50620001a1620003a836600462002724565b50565b348015620003b857600080fd5b50620003d0620003ca36600462002360565b6200157f565b604051620001819190620029e3565b348015620003ec57600080fd5b50620001a1620003fe3660046200224e565b620016c7565b3480156200041157600080fd5b50620001a1620004233660046200224e565b62001759565b61012f54604051630bafd3f560e11b8152600481018390526000916001600160a01b03169063175fa7ea9060240160206040518083038186803b1580156200047057600080fd5b505afa15801562000485573d6000803e3d6000fd5b505050506040513d601f19601f82011682018060405250810190620004ab91906200226e565b92915050565b600260fb541415620004e05760405162461bcd60e51b8152600401620004d79062002a90565b60405180910390fd5b600260fb5581518351148015620004f8575080518351145b620005465760405162461bcd60e51b815260206004820152601860248201527f4c656e6774687320646f6e277420636f72726573706f6e6400000000000000006044820152606401620004d7565b6000805b84518161ffff161015620007af576000858261ffff168151811062000573576200057362002bcd565b602002602001015190506000848361ffff168151811062000598576200059862002bcd565b602002602001015161ffff16826001600160a01b031663bfe5d835888661ffff1681518110620005cc57620005cc62002bcd565b60200260200101516040518263ffffffff1660e01b8152600401620005fd919063ffffffff91909116815260200190565b60206040518083038186803b1580156200061657600080fd5b505afa1580156200062b573d6000803e3d6000fd5b505050506040513d601f19601f8201168201806040525081019062000651919062002699565b6200065d919062002b3d565b90506000878461ffff16815181106200067a576200067a62002bcd565b60200260200101516001600160a01b03168233898761ffff1681518110620006a657620006a662002bcd565b6020026020010151898861ffff1681518110620006c757620006c762002bcd565b60209081029190910101516040516001600160a01b03909316602484015263ffffffff909116604483015261ffff16606482015260840160408051601f198184030181529181526020820180516001600160e01b0316635f938d5360e11b1790525162000735919062002873565b60006040518083038185875af1925050503d806000811462000774576040519150601f19603f3d011682016040523d82523d6000602084013e62000779565b606091505b50509050806200078857600080fd5b62000794828662002b22565b94505050508080620007a69062002b92565b9150506200054a565b507ff9c0c1c7138692bd4bff6843cde7f313f634c42eca9375fbd6ae91c4f3269a8c84848484604051620007e7949392919062002938565b60405180910390a15050600160fb555050565b61012d54604051602481018490523360448201526064810183905260009182916001600160a01b039091169060840160408051601f198184030181529181526020820180516001600160e01b0316631530a81360e21b179052516200085f906200201e565b6200086c929190620028e1565b604051809103906000f08015801562000889573d6000803e3d6000fd5b50949350505050565b6200089d81620017f8565b620003a88160405180602001604052806000815250600062001825565b6097546001600160a01b03163314620008e75760405162461bcd60e51b8152600401620004d79062002a5b565b60c95460ff1615620008ff57620008fd620019b4565b565b620008fd62001a49565b600054610100900460ff168062000923575060005460ff16155b620009425760405162461bcd60e51b8152600401620004d79062002a0d565b600054610100900460ff1615801562000965576000805461ffff19166101011790555b6200096f62001ac7565b61012e80546001600160a01b038086166001600160a01b03199283161790925561012f8054928516928216929092179091556101328054621e001e63ffffffff199091161790556101308054909116738a753747a1fa494ec906ce90e9f37563a8af630e1790556040518390620009e6906200202c565b6001600160a01b039091168152602001604051809103906000f08015801562000a13573d6000803e3d6000fd5b5061012d80546001600160a01b0319166001600160a01b0392909216919091179055801562000a48576000805461ff00191690555b505050565b62000a5882620017f8565b62000a668282600162001825565b5050565b6097546000906001600160a01b0316331462000a9a5760405162461bcd60e51b8152600401620004d79062002a5b565b61012d60009054906101000a90046001600160a01b03166001600160a01b0316635c60da1b6040518163ffffffff1660e01b815260040160206040518083038186803b15801562000aea57600080fd5b505afa15801562000aff573d6000803e3d6000fd5b505050506040513d601f19601f8201168201806040525081019062000b2591906200226e565b905090565b6097546001600160a01b0316331462000b575760405162461bcd60e51b8152600401620004d79062002a5b565b620008fd600062001b4c565b600062000b256101315490565b600260fb54141562000b965760405162461bcd60e51b8152600401620004d79062002a90565b600260fb556101325482516201000090910461ffff16101562000bfc5760405162461bcd60e51b815260206004820152601960248201527f546f6f206d616e7920736c69636572732072656c6561736564000000000000006044820152606401620004d7565b823b156000805b84518161ffff16101562000e29576000858261ffff168151811062000c2c5762000c2c62002bcd565b6020908102919091010151604051632a67293d60e01b81526001600160a01b038981166004830152919250600091831690632a67293d9060240160206040518083038186803b15801562000c7f57600080fd5b505afa15801562000c94573d6000803e3d6000fd5b505050506040513d601f19601f8201168201806040525081019062000cba919062002699565b111562000e1357604051631916558760e01b81526001600160a01b03888116600483015260009190831690631916558790602401602060405180830381600087803b15801562000d0957600080fd5b505af115801562000d1e573d6000803e3d6000fd5b505050506040513d601f19601f8201168201806040525081019062000d44919062002699565b9050841562000e035761012e5487516001600160a01b039091169063deb0e991908a9084908b9061ffff891690811062000d825762000d8262002bcd565b60209081029190910101516040516001600160e01b031960e086901b1681526001600160a01b039384166004820152602481019290925291909116604482015260ff89166064820152608401600060405180830381600087803b15801562000de957600080fd5b505af115801562000dfe573d6000803e3d6000fd5b505050505b62000e0f818562002b22565b9350505b508062000e208162002b92565b91505062000c03565b50801562000e78576040805182815260ff851660208201526001600160a01b038716917fc3fb528a4237f3152c096612970ef465ede8418e8e76bf125a4af53c8284ec43910160405180910390a25b5050600160fb55505050565b6097546001600160a01b0316331462000eb15760405162461bcd60e51b8152600401620004d79062002a5b565b610132805461ffff928316620100000263ffffffff199091169290931691909117919091179055565b60008061013060009054906101000a90046001600160a01b03166001600160a01b031663feaf968c6040518163ffffffff1660e01b815260040160a06040518083038186803b15801562000f2d57600080fd5b505afa15801562000f42573d6000803e3d6000fd5b505050506040513d601f19601f8201168201806040525081019062000f68919062002742565b509195945050505050565b60c95460ff161562000fbb5760405162461bcd60e51b815260206004820152601060248201526f14185d5cd8589b194e881c185d5cd95960821b6044820152606401620004d7565b600260fb54141562000fe15760405162461bcd60e51b8152600401620004d79062002a90565b600260fb55600062000ff36101315490565b61013254855191925060009161ffff9091161015620010495760405162461bcd60e51b8152602060048201526011602482015270546f6f206d616e79206163636f756e747360781b6044820152606401620004d7565b83518551146200109c5760405162461bcd60e51b815260206004820152601760248201527f496e7075747320646f6e277420636f72726573706f6e640000000000000000006044820152606401620004d7565b60008311620010e75760405162461bcd60e51b815260206004820152601660248201527553706563696679206d696e696d756d2073686172657360501b6044820152606401620004d7565b6000620010f58385620007fa565b90508060005b87518161ffff161015620012845762001134888261ffff168151811062001126576200112662002bcd565b60200260200101513b151590565b1562001166576200116683898361ffff168151811062001158576200115862002bcd565b602002602001015162001b9e565b8315801562001195575085878261ffff16815181106200118a576200118a62002bcd565b602002602001015110155b15620011a057600193505b61012f5488516001600160a01b039091169063303cd08a908a9061ffff8516908110620011d157620011d162002bcd565b6020026020010151878a8561ffff1681518110620011f357620011f362002bcd565b60209081029190910101516040516001600160e01b031960e086901b1681526001600160a01b039384166004820152602481019290925260448201529086166064820152608401600060405180830381600087803b1580156200125557600080fd5b505af11580156200126a573d6000803e3d6000fd5b5050505080806200127b9062002b92565b915050620010fb565b5082620012d45760405162461bcd60e51b815260206004820152601c60248201527f4e6f206163636f756e742068617320656e6f75676820736861726573000000006044820152606401620004d7565b60405163fd5e12e360e01b81526001600160a01b0382169063fd5e12e39062001304908a908a906004016200290f565b600060405180830381600087803b1580156200131f57600080fd5b505af115801562001334573d6000803e3d6000fd5b505050506200134861013180546001019055565b7fabb4a0d49573e631c30bbcf7a3c6e5cf60283225f4a12dcd3d75a6037609606982858989896040516200138195949392919062002891565b60405180910390a15050600160fb555050505050565b61012f546001600160a01b03163314620013e35760405162461bcd60e51b815260206004820152600c60248201526b155b985d5d1a1bdc9a5e995960a21b6044820152606401620004d7565b823b1515620013f58584600062000b70565b60005b83518161ffff1610156200157757828161ffff16815181106200141f576200141f62002bcd565b6020026020010151600014156200146e5760405162461bcd60e51b81526020600482015260126024820152710416d6f756e742063616e6e6f7420626520360741b6044820152606401620004d7565b81156200151457838161ffff16815181106200148e576200148e62002bcd565b60200260200101516001600160a01b0316856001600160a01b03161415620014e85760405162461bcd60e51b815260206004820152600c60248201526b05061796d656e74206c6f6f760a41b6044820152606401620004d7565b62001514848261ffff168151811062001505576200150562002bcd565b60200260200101518662001b9e565b620015628686868461ffff168151811062001533576200153362002bcd565b6020026020010151868561ffff168151811062001554576200155462002bcd565b602002602001015162001ce4565b806200156e8162002b92565b915050620013f8565b505050505050565b60606000825167ffffffffffffffff811115620015a057620015a062002be3565b604051908082528060200260200182016040528015620015ca578160200160208202803683370190505b50905060005b83518161ffff161015620016bf576000848261ffff1681518110620015f957620015f962002bcd565b6020908102919091010151604051632a67293d60e01b81526001600160a01b03888116600483015291925090821690632a67293d9060240160206040518083038186803b1580156200164a57600080fd5b505afa1580156200165f573d6000803e3d6000fd5b505050506040513d601f19601f8201168201806040525081019062001685919062002699565b838361ffff16815181106200169e576200169e62002bcd565b60209081029190910101525080620016b68162002b92565b915050620015d0565b509392505050565b6097546001600160a01b03163314620016f45760405162461bcd60e51b8152600401620004d79062002a5b565b61012d54604051631b2ce7f360e11b81526001600160a01b03838116600483015290911690633659cfe690602401600060405180830381600087803b1580156200173d57600080fd5b505af115801562001752573d6000803e3d6000fd5b5050505050565b6097546001600160a01b03163314620017865760405162461bcd60e51b8152600401620004d79062002a5b565b6001600160a01b038116620017ed5760405162461bcd60e51b815260206004820152602660248201527f4f776e61626c653a206e6577206f776e657220697320746865207a65726f206160448201526564647265737360d01b6064820152608401620004d7565b620003a88162001b4c565b6097546001600160a01b03163314620003a85760405162461bcd60e51b8152600401620004d79062002a5b565b6000620018597f360894a13ba1a3210667c828492db98dca3e2076cc3735a920a3ca505d382bbc546001600160a01b031690565b9050620018668462001d25565b600083511180620018745750815b15620018885762001886848462001dcc565b505b7f4910fdfa16fed3260ed0e7147f7cc6da11a60208b5b9406d12a635614ffd9143805460ff166200175257805460ff191660011781556040516001600160a01b03831660248201526200190a90869060440160408051601f198184030181529190526020810180516001600160e01b0316631b2ce7f360e11b17905262001dcc565b50805460ff191681557f360894a13ba1a3210667c828492db98dca3e2076cc3735a920a3ca505d382bbc546001600160a01b03838116911614620019a95760405162461bcd60e51b815260206004820152602f60248201527f45524331393637557067726164653a207570677261646520627265616b73206660448201526e75727468657220757067726164657360881b6064820152608401620004d7565b620017528562001ec0565b60c95460ff16620019ff5760405162461bcd60e51b815260206004820152601460248201527314185d5cd8589b194e881b9bdd081c185d5cd95960621b6044820152606401620004d7565b60c9805460ff191690557f5db9ee0a495bf2e6ff9c91a7834c1ba4fdd244a5e8aa4e537bd38aeae4b073aa335b6040516001600160a01b03909116815260200160405180910390a1565b60c95460ff161562001a915760405162461bcd60e51b815260206004820152601060248201526f14185d5cd8589b194e881c185d5cd95960821b6044820152606401620004d7565b60c9805460ff191660011790557f62e78cea01bee320cd4e420270b5ea74000d11b0c9f74754ebdbfc544b05a25862001a2c3390565b600054610100900460ff168062001ae1575060005460ff16155b62001b005760405162461bcd60e51b8152600401620004d79062002a0d565b600054610100900460ff1615801562001b23576000805461ffff19166101011790555b62001b2d62001f02565b62001b3762001f72565b8015620003a8576000805461ff001916905550565b609780546001600160a01b038381166001600160a01b0319831681179093556040519116919082907f8be0079c531659141344cd1fd0a4f28419497f9722a3daafe3b4186f6b6457e090600090a35050565b600082905060008290506000816001600160a01b031663957e07b66040518163ffffffff1660e01b815260040160806040518083038186803b15801562001be457600080fd5b505afa15801562001bf9573d6000803e3d6000fd5b505050506040513d601f19601f8201168201806040525081019062001c1f9190620026d6565b5050509050836001600160a01b031662001c398262000429565b6001600160a01b03161462001c805760405162461bcd60e51b815260206004820152600c60248201526b2737ba10309029b634b1b2b960a11b6044820152606401620004d7565b60405163044eecfd60e41b8152600481018290526001600160a01b038416906344eecfd0906024015b600060405180830381600087803b15801562001cc457600080fd5b505af115801562001cd9573d6000803e3d6000fd5b505050505050505050565b60405163177e569160e31b81526001600160a01b03858116600483015284811660248301526044820183905283919082169063bbf2b4889060640162001ca9565b803b62001d8b5760405162461bcd60e51b815260206004820152602d60248201527f455243313936373a206e657720696d706c656d656e746174696f6e206973206e60448201526c1bdd08184818dbdb9d1c9858dd609a1b6064820152608401620004d7565b7f360894a13ba1a3210667c828492db98dca3e2076cc3735a920a3ca505d382bbc80546001600160a01b0319166001600160a01b0392909216919091179055565b6060823b62001e2d5760405162461bcd60e51b815260206004820152602660248201527f416464726573733a2064656c65676174652063616c6c20746f206e6f6e2d636f6044820152651b9d1c9858dd60d21b6064820152608401620004d7565b600080846001600160a01b03168460405162001e4a919062002873565b600060405180830381855af49150503d806000811462001e87576040519150601f19603f3d011682016040523d82523d6000602084013e62001e8c565b606091505b509150915062001eb7828260405180606001604052806027815260200162003ae66027913962001fd9565b95945050505050565b62001ecb8162001d25565b6040516001600160a01b038216907fbc7cd75a20ee27fd9adebab32041f755214dbc6bffa90cc0225b39da2e5c2d3b90600090a250565b600054610100900460ff168062001f1c575060005460ff16155b62001f3b5760405162461bcd60e51b8152600401620004d79062002a0d565b600054610100900460ff1615801562001b37576000805461ffff19166101011790558015620003a8576000805461ff001916905550565b600054610100900460ff168062001f8c575060005460ff16155b62001fab5760405162461bcd60e51b8152600401620004d79062002a0d565b600054610100900460ff1615801562001fce576000805461ffff19166101011790555b62001b373362001b4c565b6060831562001fea57508162002017565b82511562001ffb5782518084602001fd5b8160405162461bcd60e51b8152600401620004d79190620029f8565b9392505050565b6109938062002c2083390190565b61053380620035b383390190565b600082601f8301126200204c57600080fd5b81356020620020656200205f8362002afb565b62002ac7565b80838252828201915082860187848660051b89010111156200208657600080fd5b60005b85811015620020b25781356200209f8162002bf9565b8452928401929084019060010162002089565b5090979650505050505050565b600082601f830112620020d157600080fd5b81356020620020e46200205f8362002afb565b80838252828201915082860187848660051b89010111156200210557600080fd5b60005b85811015620020b2576200211c8262002206565b8452928401929084019060010162002108565b600082601f8301126200214157600080fd5b81356020620021546200205f8362002afb565b80838252828201915082860187848660051b89010111156200217557600080fd5b60005b85811015620020b25781358452928401929084019060010162002178565b600082601f830112620021a857600080fd5b81356020620021bb6200205f8362002afb565b80838252828201915082860187848660051b8901011115620021dc57600080fd5b60005b85811015620020b257620021f3826200221e565b84529284019290840190600101620021df565b803561ffff811681146200221957600080fd5b919050565b803563ffffffff811681146200221957600080fd5b805169ffffffffffffffffffff811681146200221957600080fd5b6000602082840312156200226157600080fd5b8135620020178162002bf9565b6000602082840312156200228157600080fd5b8151620020178162002bf9565b60008060408385031215620022a257600080fd5b8235620022af8162002bf9565b91506020830135620022c18162002bf9565b809150509250929050565b60008060008060808587031215620022e357600080fd5b8435620022f08162002bf9565b93506020850135620023028162002bf9565b9250604085013567ffffffffffffffff808211156200232057600080fd5b6200232e888389016200203a565b935060608701359150808211156200234557600080fd5b5062002354878288016200212f565b91505092959194509250565b600080604083850312156200237457600080fd5b8235620023818162002bf9565b9150602083013567ffffffffffffffff8111156200239e57600080fd5b620023ac858286016200203a565b9150509250929050565b600080600060608486031215620023cc57600080fd5b8335620023d98162002bf9565b9250602084013567ffffffffffffffff811115620023f657600080fd5b62002404868287016200203a565b9250506040840135620024178162002c0f565b809150509250925092565b600080604083850312156200243657600080fd5b8235620024438162002bf9565b915060208381013567ffffffffffffffff808211156200246257600080fd5b818601915086601f8301126200247757600080fd5b8135818111156200248c576200248c62002be3565b620024a0601f8201601f1916850162002ac7565b91508082528784828501011115620024b757600080fd5b80848401858401376000848284010152508093505050509250929050565b600080600060608486031215620024eb57600080fd5b833567ffffffffffffffff808211156200250457600080fd5b62002512878388016200203a565b945060208601359150808211156200252957600080fd5b5062002538868287016200212f565b925050604084013590509250925092565b6000806000606084860312156200255f57600080fd5b833567ffffffffffffffff808211156200257857600080fd5b818601915086601f8301126200258d57600080fd5b81356020620025a06200205f8362002afb565b8083825282820191508286018b848660051b8901011115620025c157600080fd5b600096505b84871015620025f1578035620025dc8162002bf9565b835260019690960195918301918301620025c6565b50975050870135925050808211156200260957600080fd5b620026178783880162002196565b935060408601359150808211156200262e57600080fd5b506200263d86828701620020bf565b9150509250925092565b600080604083850312156200265b57600080fd5b620026668362002206565b9150620026766020840162002206565b90509250929050565b6000602082840312156200269257600080fd5b5035919050565b600060208284031215620026ac57600080fd5b5051919050565b60008060408385031215620026c757600080fd5b50508035926020909101359150565b60008060008060808587031215620026ed57600080fd5b845193506020850151620027018162002c0f565b6040860151909350620027148162002bf9565b6060959095015193969295505050565b6000602082840312156200273757600080fd5b62002017826200221e565b600080600080600060a086880312156200275b57600080fd5b620027668662002233565b94506020860151935060408601519250606086015191506200278b6080870162002233565b90509295509295909350565b600081518084526020808501945080840160005b83811015620027d25781516001600160a01b031687529582019590820190600101620027ab565b509495945050505050565b600081518084526020808501945080840160005b83811015620027d257815161ffff1687529582019590820190600101620027f1565b600081518084526020808501945080840160005b83811015620027d25781518752958201959082019060010162002827565b600081518084526200285f81602086016020860162002b5f565b601f01601f19169290920160200192915050565b600082516200288781846020870162002b5f565b9190910192915050565b60018060a01b038616815284602082015260a060408201526000620028ba60a083018662002797565b8281036060840152620028ce818662002813565b9150508260808301529695505050505050565b6001600160a01b0383168152604060208201819052600090620029079083018462002845565b949350505050565b60408152600062002924604083018562002797565b828103602084015262001eb7818562002813565b6080808252855190820181905260009060209060a0840190828901845b828110156200297c5781516001600160a01b03168452928401929084019060010162002955565b5050508381038285015286518082528783019183019060005b81811015620029b957835163ffffffff168352928401929184019160010162002995565b50508481036040860152620029cf8188620027dd565b935050505082606083015295945050505050565b60208152600062002017602083018462002813565b60208152600062002017602083018462002845565b6020808252602e908201527f496e697469616c697a61626c653a20636f6e747261637420697320616c72656160408201526d191e481a5b9a5d1a585b1a5e995960921b606082015260800190565b6020808252818101527f4f776e61626c653a2063616c6c6572206973206e6f7420746865206f776e6572604082015260600190565b6020808252601f908201527f5265656e7472616e637947756172643a207265656e7472616e742063616c6c00604082015260600190565b604051601f8201601f1916810167ffffffffffffffff8111828210171562002af35762002af362002be3565b604052919050565b600067ffffffffffffffff82111562002b185762002b1862002be3565b5060051b60200190565b6000821982111562002b385762002b3862002bb7565b500190565b600081600019048311821515161562002b5a5762002b5a62002bb7565b500290565b60005b8381101562002b7c57818101518382015260200162002b62565b8381111562002b8c576000848401525b50505050565b600061ffff8083168181141562002bad5762002bad62002bb7565b6001019392505050565b634e487b7160e01b600052601160045260246000fd5b634e487b7160e01b600052603260045260246000fd5b634e487b7160e01b600052604160045260246000fd5b6001600160a01b0381168114620003a857600080fd5b60ff81168114620003a857600080fdfe608060405260405161099338038061099383398101604081905261002291610470565b61004d60017fa3f0ad74e5423aebfd80d3ef4346578335a9a72aeaee59ff6cb3582b35133d5161057f565b60008051602061094c83398151915214610069576100696105d0565b6100758282600061007c565b50506105fc565b61008583610156565b6040516001600160a01b038416907f1cf3b03a6cf19fa2baba4df148e9dcabedea7f8a5c07840e207e5c089be95d3e90600090a26000825111806100c65750805b156101515761014f836001600160a01b0316635c60da1b6040518163ffffffff1660e01b815260040160206040518083038186803b15801561010757600080fd5b505afa15801561011b573d6000803e3d6000fd5b505050506040513d601f19601f8201168201806040525081019061013f9190610455565b836102f660201b6100291760201c565b505b505050565b6101698161032260201b6100551760201c565b6101c85760405162461bcd60e51b815260206004820152602560248201527f455243313936373a206e657720626561636f6e206973206e6f74206120636f6e6044820152641d1c9858dd60da1b60648201526084015b60405180910390fd5b61024b816001600160a01b0316635c60da1b6040518163ffffffff1660e01b815260040160206040518083038186803b15801561020457600080fd5b505afa158015610218573d6000803e3d6000fd5b505050506040513d601f19601f8201168201806040525081019061023c9190610455565b61032260201b6100551760201c565b6102b05760405162461bcd60e51b815260206004820152603060248201527f455243313936373a20626561636f6e20696d706c656d656e746174696f6e206960448201526f1cc81b9bdd08184818dbdb9d1c9858dd60821b60648201526084016101bf565b806102d560008051602061094c83398151915260001b61032860201b61005b1760201c565b80546001600160a01b0319166001600160a01b039290921691909117905550565b606061031b838360405180606001604052806027815260200161096c6027913961032b565b9392505050565b3b151590565b90565b6060833b61038a5760405162461bcd60e51b815260206004820152602660248201527f416464726573733a2064656c65676174652063616c6c20746f206e6f6e2d636f6044820152651b9d1c9858dd60d21b60648201526084016101bf565b600080856001600160a01b0316856040516103a59190610530565b600060405180830381855af49150503d80600081146103e0576040519150601f19603f3d011682016040523d82523d6000602084013e6103e5565b606091505b5090925090506103f6828286610400565b9695505050505050565b6060831561040f57508161031b565b82511561041f5782518084602001fd5b8160405162461bcd60e51b81526004016101bf919061054c565b80516001600160a01b038116811461045057600080fd5b919050565b60006020828403121561046757600080fd5b61031b82610439565b6000806040838503121561048357600080fd5b61048c83610439565b60208401519092506001600160401b03808211156104a957600080fd5b818501915085601f8301126104bd57600080fd5b8151818111156104cf576104cf6105e6565b604051601f8201601f19908116603f011681019083821181831017156104f7576104f76105e6565b8160405282815288602084870101111561051057600080fd5b6105218360208301602088016105a4565b80955050505050509250929050565b600082516105428184602087016105a4565b9190910192915050565b602081526000825180602084015261056b8160408501602087016105a4565b601f01601f19169190910160400192915050565b60008282101561059f57634e487b7160e01b600052601160045260246000fd5b500390565b60005b838110156105bf5781810151838201526020016105a7565b8381111561014f5750506000910152565b634e487b7160e01b600052600160045260246000fd5b634e487b7160e01b600052604160045260246000fd5b6103418061060b6000396000f3fe60806040523661001357610011610017565b005b6100115b61002761002261005e565b610106565b565b606061004e83836040518060600160405280602781526020016102e56027913961012a565b9392505050565b3b151590565b90565b60006100917fa3f0ad74e5423aebfd80d3ef4346578335a9a72aeaee59ff6cb3582b35133d50546001600160a01b031690565b6001600160a01b0316635c60da1b6040518163ffffffff1660e01b815260040160206040518083038186803b1580156100c957600080fd5b505afa1580156100dd573d6000803e3d6000fd5b505050506040513d601f19601f82011682018060405250810190610101919061023c565b905090565b3660008037600080366000845af43d6000803e808015610125573d6000f35b3d6000fd5b6060833b61018e5760405162461bcd60e51b815260206004820152602660248201527f416464726573733a2064656c65676174652063616c6c20746f206e6f6e2d636f6044820152651b9d1c9858dd60d21b60648201526084015b60405180910390fd5b600080856001600160a01b0316856040516101a99190610265565b600060405180830381855af49150503d80600081146101e4576040519150601f19603f3d011682016040523d82523d6000602084013e6101e9565b606091505b50915091506101f9828286610203565b9695505050505050565b6060831561021257508161004e565b8251156102225782518084602001fd5b8160405162461bcd60e51b81526004016101859190610281565b60006020828403121561024e57600080fd5b81516001600160a01b038116811461004e57600080fd5b600082516102778184602087016102b4565b9190910192915050565b60208152600082518060208401526102a08160408501602087016102b4565b601f01601f19169190910160400192915050565b60005b838110156102cf5781810151838201526020016102b7565b838111156102de576000848401525b5050505056fe416464726573733a206c6f772d6c6576656c2064656c65676174652063616c6c206661696c6564a2646970667358221220083f5423fec368aabbb0acd6db8adae396291ef41caa6b7829ce8e6ae4b7618364736f6c63430008070033a3f0ad74e5423aebfd80d3ef4346578335a9a72aeaee59ff6cb3582b35133d50416464726573733a206c6f772d6c6576656c2064656c65676174652063616c6c206661696c6564608060405234801561001057600080fd5b5060405161053338038061053383398101604081905261002f91610130565b600080546001600160a01b031916339081178255604051909182917f8be0079c531659141344cd1fd0a4f28419497f9722a3daafe3b4186f6b6457e0908290a3506100798161007f565b50610160565b6100928161012a60201b6102971760201c565b6101085760405162461bcd60e51b815260206004820152603360248201527f5570677261646561626c65426561636f6e3a20696d706c656d656e746174696f60448201527f6e206973206e6f74206120636f6e747261637400000000000000000000000000606482015260840160405180910390fd5b600180546001600160a01b0319166001600160a01b0392909216919091179055565b3b151590565b60006020828403121561014257600080fd5b81516001600160a01b038116811461015957600080fd5b9392505050565b6103c48061016f6000396000f3fe608060405234801561001057600080fd5b50600436106100575760003560e01c80633659cfe61461005c5780635c60da1b14610071578063715018a61461009a5780638da5cb5b146100a2578063f2fde38b146100b3575b600080fd5b61006f61006a366004610329565b6100c6565b005b6001546001600160a01b03165b6040516001600160a01b03909116815260200160405180910390f35b61006f610139565b6000546001600160a01b031661007e565b61006f6100c1366004610329565b6101ad565b6000546001600160a01b031633146100f95760405162461bcd60e51b81526004016100f090610359565b60405180910390fd5b6101028161029d565b6040516001600160a01b038216907fbc7cd75a20ee27fd9adebab32041f755214dbc6bffa90cc0225b39da2e5c2d3b90600090a250565b6000546001600160a01b031633146101635760405162461bcd60e51b81526004016100f090610359565b600080546040516001600160a01b03909116907f8be0079c531659141344cd1fd0a4f28419497f9722a3daafe3b4186f6b6457e0908390a3600080546001600160a01b0319169055565b6000546001600160a01b031633146101d75760405162461bcd60e51b81526004016100f090610359565b6001600160a01b03811661023c5760405162461bcd60e51b815260206004820152602660248201527f4f776e61626c653a206e6577206f776e657220697320746865207a65726f206160448201526564647265737360d01b60648201526084016100f0565b600080546040516001600160a01b03808516939216917f8be0079c531659141344cd1fd0a4f28419497f9722a3daafe3b4186f6b6457e091a3600080546001600160a01b0319166001600160a01b0392909216919091179055565b3b151590565b803b6103075760405162461bcd60e51b815260206004820152603360248201527f5570677261646561626c65426561636f6e3a20696d706c656d656e746174696f6044820152721b881a5cc81b9bdd08184818dbdb9d1c9858dd606a1b60648201526084016100f0565b600180546001600160a01b0319166001600160a01b0392909216919091179055565b60006020828403121561033b57600080fd5b81356001600160a01b038116811461035257600080fd5b9392505050565b6020808252818101527f4f776e61626c653a2063616c6c6572206973206e6f7420746865206f776e657260408201526060019056fea26469706673582212207275df78dfd66d143bcc8b7c3154fdd858d9beab0bf0447ae30d752300bb428764736f6c63430008070033416464726573733a206c6f772d6c6576656c2064656c65676174652063616c6c206661696c6564a26469706673582212207c92ee2f02e4eb9f8ed758cb5238423ff45f8a002b8723159d5b5fd950256c2264736f6c63430008070033",
  "linkReferences": {},
  "deployedLinkReferences": {}
}