{
  "_format": "hh-sol-artifact-1",
  "contractName": "Slice",
  "sourceName": "contracts/slice_v0.sol",
  "abi": [
    {
      "anonymous": false,
      "inputs": [
        {
          "indexed": false,
          "internalType": "address",
          "name": "previousAdmin",
          "type": "address"
        },
        {
          "indexed": false,
          "internalType": "address",
          "name": "newAdmin",
          "type": "address"
        }
      ],
      "name": "AdminChanged",
      "type": "event"
    },
    {
      "anonymous": false,
      "inputs": [
        {
          "indexed": true,
          "internalType": "address",
          "name": "beacon",
          "type": "address"
        }
      ],
      "name": "BeaconUpgraded",
      "type": "event"
    },
    {
      "anonymous": false,
      "inputs": [
        {
          "indexed": true,
          "internalType": "address",
          "name": "previousOwner",
          "type": "address"
        },
        {
          "indexed": true,
          "internalType": "address",
          "name": "newOwner",
          "type": "address"
        }
      ],
      "name": "OwnershipTransferred",
      "type": "event"
    },
    {
      "anonymous": false,
      "inputs": [
        {
          "indexed": false,
          "internalType": "address",
          "name": "account",
          "type": "address"
        }
      ],
      "name": "Paused",
      "type": "event"
    },
    {
      "anonymous": false,
      "inputs": [
        {
          "indexed": false,
          "internalType": "address payable[]",
          "name": "slicerAddresses",
          "type": "address[]"
        },
        {
          "indexed": false,
          "internalType": "uint32[]",
          "name": "productIds",
          "type": "uint32[]"
        },
        {
          "indexed": false,
          "internalType": "uint16[]",
          "name": "quantities",
          "type": "uint16[]"
        },
        {
          "indexed": false,
          "internalType": "uint256",
          "name": "totalPaid",
          "type": "uint256"
        }
      ],
      "name": "ProductsPaid",
      "type": "event"
    },
    {
      "anonymous": false,
      "inputs": [
        {
          "indexed": false,
          "internalType": "address",
          "name": "slicerAddress",
          "type": "address"
        },
        {
          "indexed": false,
          "internalType": "uint256",
          "name": "tokenId",
          "type": "uint256"
        },
        {
          "indexed": false,
          "internalType": "address[]",
          "name": "payees",
          "type": "address[]"
        },
        {
          "indexed": false,
          "internalType": "uint256[]",
          "name": "shares",
          "type": "uint256[]"
        },
        {
          "indexed": false,
          "internalType": "uint256",
          "name": "minimumShares",
          "type": "uint256"
        },
        {
          "indexed": false,
          "internalType": "bool",
          "name": "isCollectible",
          "type": "bool"
        }
      ],
      "name": "TokenSliced",
      "type": "event"
    },
    {
      "anonymous": false,
      "inputs": [
        {
          "indexed": true,
          "internalType": "address",
          "name": "account",
          "type": "address"
        },
        {
          "indexed": false,
          "internalType": "uint256",
          "name": "totalReleased",
          "type": "uint256"
        },
        {
          "indexed": false,
          "internalType": "uint8",
          "name": "slicerPercentage",
          "type": "uint8"
        }
      ],
      "name": "TriggeredRelease",
      "type": "event"
    },
    {
      "anonymous": false,
      "inputs": [
        {
          "indexed": false,
          "internalType": "address",
          "name": "account",
          "type": "address"
        }
      ],
      "name": "Unpaused",
      "type": "event"
    },
    {
      "anonymous": false,
      "inputs": [
        {
          "indexed": true,
          "internalType": "address",
          "name": "implementation",
          "type": "address"
        }
      ],
      "name": "Upgraded",
      "type": "event"
    },
    {
      "inputs": [
        {
          "internalType": "uint32",
          "name": "categoryIndex",
          "type": "uint32"
        }
      ],
      "name": "_addToSliceCategory",
      "outputs": [],
      "stateMutability": "nonpayable",
      "type": "function"
    },
    {
      "inputs": [
        {
          "internalType": "address",
          "name": "from",
          "type": "address"
        },
        {
          "internalType": "address",
          "name": "to",
          "type": "address"
        },
        {
          "internalType": "address[]",
          "name": "slicerAddresses",
          "type": "address[]"
        },
        {
          "internalType": "uint256[]",
          "name": "amounts",
          "type": "uint256[]"
        }
      ],
      "name": "_beforeTransfer",
      "outputs": [],
      "stateMutability": "nonpayable",
      "type": "function"
    },
    {
      "inputs": [
        {
          "internalType": "uint256",
          "name": "id",
          "type": "uint256"
        },
        {
          "internalType": "uint256",
          "name": "minimumShares",
          "type": "uint256"
        },
        {
          "internalType": "bool",
          "name": "isCollectible",
          "type": "bool"
        }
      ],
      "name": "_createSlicer",
      "outputs": [
        {
          "internalType": "address payable",
          "name": "",
          "type": "address"
        }
      ],
      "stateMutability": "nonpayable",
      "type": "function"
    },
    {
      "inputs": [],
      "name": "_implementation",
      "outputs": [
        {
          "internalType": "address",
          "name": "",
          "type": "address"
        }
      ],
      "stateMutability": "view",
      "type": "function"
    },
    {
      "inputs": [],
      "name": "_togglePause",
      "outputs": [],
      "stateMutability": "nonpayable",
      "type": "function"
    },
    {
      "inputs": [
        {
          "internalType": "address",
          "name": "newLogicImpl",
          "type": "address"
        }
      ],
      "name": "_upgradeSlicers",
      "outputs": [],
      "stateMutability": "nonpayable",
      "type": "function"
    },
    {
      "inputs": [],
      "name": "getEthUsd",
      "outputs": [
        {
          "internalType": "int256",
          "name": "",
          "type": "int256"
        }
      ],
      "stateMutability": "view",
      "type": "function"
    },
    {
      "inputs": [
        {
          "internalType": "address",
          "name": "SLCAddress",
          "type": "address"
        },
        {
          "internalType": "address",
          "name": "sliceCoreAddress",
          "type": "address"
        }
      ],
      "name": "initialize",
      "outputs": [],
      "stateMutability": "nonpayable",
      "type": "function"
    },
    {
      "inputs": [],
      "name": "owner",
      "outputs": [
        {
          "internalType": "address",
          "name": "",
          "type": "address"
        }
      ],
      "stateMutability": "view",
      "type": "function"
    },
    {
      "inputs": [],
      "name": "paused",
      "outputs": [
        {
          "internalType": "bool",
          "name": "",
          "type": "bool"
        }
      ],
      "stateMutability": "view",
      "type": "function"
    },
    {
      "inputs": [
        {
          "internalType": "address payable[]",
          "name": "slicerAddresses",
          "type": "address[]"
        },
        {
          "internalType": "uint32[]",
          "name": "productIds",
          "type": "uint32[]"
        },
        {
          "internalType": "uint16[]",
          "name": "quantities",
          "type": "uint16[]"
        }
      ],
      "name": "payProducts",
      "outputs": [],
      "stateMutability": "payable",
      "type": "function"
    },
    {
      "inputs": [],
      "name": "renounceOwnership",
      "outputs": [],
      "stateMutability": "nonpayable",
      "type": "function"
    },
    {
      "inputs": [
        {
          "internalType": "address[]",
          "name": "accounts",
          "type": "address[]"
        },
        {
          "internalType": "uint256[]",
          "name": "shares",
          "type": "uint256[]"
        },
        {
          "internalType": "uint256",
          "name": "minimumShares",
          "type": "uint256"
        },
        {
          "internalType": "bool",
          "name": "isCollectible",
          "type": "bool"
        }
      ],
      "name": "slice",
      "outputs": [],
      "stateMutability": "nonpayable",
      "type": "function"
    },
    {
      "inputs": [
        {
          "internalType": "uint256",
          "name": "id",
          "type": "uint256"
        }
      ],
      "name": "slicers",
      "outputs": [
        {
          "internalType": "address",
          "name": "",
          "type": "address"
        }
      ],
      "stateMutability": "view",
      "type": "function"
    },
    {
      "inputs": [],
      "name": "totalTokens",
      "outputs": [
        {
          "internalType": "uint256",
          "name": "",
          "type": "uint256"
        }
      ],
      "stateMutability": "view",
      "type": "function"
    },
    {
      "inputs": [
        {
          "internalType": "address",
          "name": "newOwner",
          "type": "address"
        }
      ],
      "name": "transferOwnership",
      "outputs": [],
      "stateMutability": "nonpayable",
      "type": "function"
    },
    {
      "inputs": [
        {
          "internalType": "address",
          "name": "account",
          "type": "address"
        },
        {
          "internalType": "address[]",
          "name": "slicerAddresses",
          "type": "address[]"
        },
        {
          "internalType": "uint8",
          "name": "slicerPercentage",
          "type": "uint8"
        }
      ],
      "name": "triggerRelease",
      "outputs": [],
      "stateMutability": "nonpayable",
      "type": "function"
    },
    {
      "inputs": [
        {
          "internalType": "address",
          "name": "account",
          "type": "address"
        },
        {
          "internalType": "address[]",
          "name": "slicerAddresses",
          "type": "address[]"
        }
      ],
      "name": "unreleasedBatch",
      "outputs": [
        {
          "internalType": "uint256[]",
          "name": "",
          "type": "uint256[]"
        }
      ],
      "stateMutability": "view",
      "type": "function"
    },
    {
      "inputs": [
        {
          "internalType": "address",
          "name": "newImplementation",
          "type": "address"
        }
      ],
      "name": "upgradeTo",
      "outputs": [],
      "stateMutability": "nonpayable",
      "type": "function"
    },
    {
      "inputs": [
        {
          "internalType": "address",
          "name": "newImplementation",
          "type": "address"
        },
        {
          "internalType": "bytes",
          "name": "data",
          "type": "bytes"
        }
      ],
      "name": "upgradeToAndCall",
      "outputs": [],
      "stateMutability": "payable",
      "type": "function"
    }
  ],
  "bytecode": "0x60a06040523060601b60805234801561001757600080fd5b5060805160601c613bd561004b60003960008181610877015281816108ba01528181610adc0152610b1f0152613bd56000f3fe608060405260043610620001375760003560e01c8063715018a611620000ad578063dae7d518116200006c578063dae7d5181462000333578063e4b546141462000358578063edeb64ba146200037a578063efab35b814620003ae578063f2fde38b14620003d357600080fd5b8063715018a614620002975780637e1c0c0914620002af578063817115f114620002d65780638da5cb5b14620002fb578063bb27e0ce146200031b57600080fd5b8063485cc95511620000fa578063485cc95514620001f95780634f1ef286146200021e57806359679b0f14620002355780635c975abb146200024d5780635e3c959f146200027257600080fd5b8063175fa7ea146200013c578063277794e4146200017e5780632f1f315414620001a35780633659cfe614620001bc578063405b4c3614620001e1575b600080fd5b3480156200014957600080fd5b50620001616200015b3660046200207c565b620003f8565b6040516001600160a01b0390911681526020015b60405180910390f35b3480156200018b57600080fd5b50620001616200019d366004620020ac565b62000480565b620001ba620001b436600462002270565b62000523565b005b348015620001c957600080fd5b50620001ba620001db36600462002367565b6200086c565b348015620001ee57600080fd5b50620001ba6200093e565b3480156200020657600080fd5b50620001ba6200021836600462002387565b6200098d565b620001ba6200022f366004620023c5565b62000ad1565b3480156200024257600080fd5b506200016162000b97565b3480156200025a57600080fd5b5060c95460ff16604051901515815260200162000175565b3480156200027f57600080fd5b50620001ba6200029136600462002547565b62000c57565b348015620002a457600080fd5b50620001ba6200102d565b348015620002bc57600080fd5b50620002c762001066565b60405190815260200162000175565b348015620002e357600080fd5b50620001ba620002f5366004620025de565b62001073565b3480156200030857600080fd5b506097546001600160a01b031662000161565b3480156200032857600080fd5b50620002c762001326565b3480156200034057600080fd5b50620001ba620003523660046200264a565b620013bf565b3480156200036557600080fd5b50620001ba62000377366004620026de565b50565b3480156200038757600080fd5b506200039f62000399366004620026fc565b620015a7565b6040516200017591906200278f565b348015620003bb57600080fd5b50620001ba620003cd36600462002367565b620016ef565b348015620003e057600080fd5b50620001ba620003f236600462002367565b62001781565b61012f54604051630bafd3f560e11b8152600481018390526000916001600160a01b03169063175fa7ea9060240160206040518083038186803b1580156200043f57600080fd5b505afa15801562000454573d6000803e3d6000fd5b505050506040513d601f19601f820116820180604052508101906200047a9190620027a4565b92915050565b61012d546040516024810185905233604482015260648101849052821515608482015260009182916001600160a01b039091169060a40160408051601f198184030181529181526020820180516001600160e01b031663f664929d60e01b17905251620004ed9062002060565b620004fa92919062002821565b604051809103906000f08015801562000517573d6000803e3d6000fd5b509150505b9392505050565b600260fb541415620005525760405162461bcd60e51b815260040162000549906200284f565b60405180910390fd5b600260fb55815183511480156200056a575080518351145b620005b85760405162461bcd60e51b815260206004820152601860248201527f4c656e6774687320646f6e277420636f72726573706f6e640000000000000000604482015260640162000549565b6000805b84518161ffff16101562000821576000858261ffff1681518110620005e557620005e562002886565b602002602001015190506000848361ffff16815181106200060a576200060a62002886565b602002602001015161ffff16826001600160a01b031663bfe5d835888661ffff16815181106200063e576200063e62002886565b60200260200101516040518263ffffffff1660e01b81526004016200066f919063ffffffff91909116815260200190565b60206040518083038186803b1580156200068857600080fd5b505afa1580156200069d573d6000803e3d6000fd5b505050506040513d601f19601f82011682018060405250810190620006c391906200289c565b620006cf9190620028cc565b90506000878461ffff1681518110620006ec57620006ec62002886565b60200260200101516001600160a01b03168233898761ffff168151811062000718576200071862002886565b6020026020010151898861ffff168151811062000739576200073962002886565b60209081029190910101516040516001600160a01b03909316602484015263ffffffff909116604483015261ffff16606482015260840160408051601f198184030181529181526020820180516001600160e01b0316635f938d5360e11b17905251620007a79190620028ee565b60006040518083038185875af1925050503d8060008114620007e6576040519150601f19603f3d011682016040523d82523d6000602084013e620007eb565b606091505b5050905080620007fa57600080fd5b6200080682866200290c565b94505050508080620008189062002927565b915050620005bc565b507ff9c0c1c7138692bd4bff6843cde7f313f634c42eca9375fbd6ae91c4f3269a8c8484848460405162000859949392919062002982565b60405180910390a15050600160fb555050565b306001600160a01b037f0000000000000000000000000000000000000000000000000000000000000000161415620008b85760405162461bcd60e51b8152600401620005499062002a2d565b7f00000000000000000000000000000000000000000000000000000000000000006001600160a01b0316620008ec62001820565b6001600160a01b031614620009155760405162461bcd60e51b8152600401620005499062002a79565b62000920816200184e565b6040805160008082526020820190925262000377918391906200187b565b6097546001600160a01b031633146200096b5760405162461bcd60e51b8152600401620005499062002ac5565b60c95460ff1615620009835762000981620019d0565b565b6200098162001a65565b600054610100900460ff1680620009a7575060005460ff16155b620009c65760405162461bcd60e51b8152600401620005499062002afa565b600054610100900460ff16158015620009e9576000805461ffff19166101011790555b620009f362001ae3565b61012e80546001600160a01b038086166001600160a01b03199283161790925561012f8054928516928216929092179091556101328054621e001e63ffffffff199091161790556101308054909116738a753747a1fa494ec906ce90e9f37563a8af630e179055604051839062000a6a906200206e565b6001600160a01b039091168152602001604051809103906000f08015801562000a97573d6000803e3d6000fd5b5061012d80546001600160a01b0319166001600160a01b0392909216919091179055801562000acc576000805461ff00191690555b505050565b306001600160a01b037f000000000000000000000000000000000000000000000000000000000000000016141562000b1d5760405162461bcd60e51b8152600401620005499062002a2d565b7f00000000000000000000000000000000000000000000000000000000000000006001600160a01b031662000b5162001820565b6001600160a01b03161462000b7a5760405162461bcd60e51b8152600401620005499062002a79565b62000b85826200184e565b62000b93828260016200187b565b5050565b6097546000906001600160a01b0316331462000bc75760405162461bcd60e51b8152600401620005499062002ac5565b61012d60009054906101000a90046001600160a01b03166001600160a01b0316635c60da1b6040518163ffffffff1660e01b815260040160206040518083038186803b15801562000c1757600080fd5b505afa15801562000c2c573d6000803e3d6000fd5b505050506040513d601f19601f8201168201806040525081019062000c529190620027a4565b905090565b60c95460ff161562000c9f5760405162461bcd60e51b815260206004820152601060248201526f14185d5cd8589b194e881c185d5cd95960821b604482015260640162000549565b600260fb54141562000cc55760405162461bcd60e51b815260040162000549906200284f565b600260fb55600062000cd76101315490565b90506000845186511462000d2e5760405162461bcd60e51b815260206004820152601760248201527f496e7075747320646f6e277420636f72726573706f6e64000000000000000000604482015260640162000549565b6000841162000d795760405162461bcd60e51b815260206004820152601660248201527553706563696679206d696e696d756d2073686172657360501b604482015260640162000549565b600062000d8883868662000480565b90508060005b88518161ffff16101562000f175762000dc7898261ffff168151811062000db95762000db962002886565b60200260200101513b151590565b1562000df95762000df9838a8361ffff168151811062000deb5762000deb62002886565b602002602001015162001b68565b8315801562000e28575086888261ffff168151811062000e1d5762000e1d62002886565b602002602001015110155b1562000e3357600193505b61012f5489516001600160a01b039091169063303cd08a908b9061ffff851690811062000e645762000e6462002886565b6020026020010151878b8561ffff168151811062000e865762000e8662002886565b60209081029190910101516040516001600160e01b031960e086901b1681526001600160a01b039384166004820152602481019290925260448201529086166064820152608401600060405180830381600087803b15801562000ee857600080fd5b505af115801562000efd573d6000803e3d6000fd5b50505050808062000f0e9062002927565b91505062000d8e565b508262000f675760405162461bcd60e51b815260206004820152601c60248201527f4e6f206163636f756e742068617320656e6f7567682073686172657300000000604482015260640162000549565b60405163fd5e12e360e01b81526001600160a01b0382169063fd5e12e39062000f97908b908b9060040162002b83565b600060405180830381600087803b15801562000fb257600080fd5b505af115801562000fc7573d6000803e3d6000fd5b5050505062000fdb61013180546001019055565b7fd090405b8e03d5caf9d1479740c43f24f9aec7f529dccf613ae93e7187eadfed82858a8a8a8a604051620010169695949392919062002bac565b60405180910390a15050600160fb55505050505050565b6097546001600160a01b031633146200105a5760405162461bcd60e51b8152600401620005499062002ac5565b62000981600062001ca6565b600062000c526101315490565b600260fb541415620010995760405162461bcd60e51b815260040162000549906200284f565b600260fb55823b156000805b84518161ffff161015620012cb576000858261ffff1681518110620010ce57620010ce62002886565b6020908102919091010151604051632a67293d60e01b81526001600160a01b038981166004830152919250600091831690632a67293d9060240160206040518083038186803b1580156200112157600080fd5b505afa15801562001136573d6000803e3d6000fd5b505050506040513d601f19601f820116820180604052508101906200115c91906200289c565b1115620012b557604051631916558760e01b81526001600160a01b03888116600483015260009190831690631916558790602401602060405180830381600087803b158015620011ab57600080fd5b505af1158015620011c0573d6000803e3d6000fd5b505050506040513d601f19601f82011682018060405250810190620011e691906200289c565b90508415620012a55761012e5487516001600160a01b039091169063deb0e991908a9084908b9061ffff891690811062001224576200122462002886565b60209081029190910101516040516001600160e01b031960e086901b1681526001600160a01b039384166004820152602481019290925291909116604482015260ff89166064820152608401600060405180830381600087803b1580156200128b57600080fd5b505af1158015620012a0573d6000803e3d6000fd5b505050505b620012b181856200290c565b9350505b5080620012c28162002927565b915050620010a5565b5080156200131a576040805182815260ff851660208201526001600160a01b038716917fc3fb528a4237f3152c096612970ef465ede8418e8e76bf125a4af53c8284ec43910160405180910390a25b5050600160fb55505050565b60008061013060009054906101000a90046001600160a01b03166001600160a01b031663feaf968c6040518163ffffffff1660e01b815260040160a06040518083038186803b1580156200137957600080fd5b505afa1580156200138e573d6000803e3d6000fd5b505050506040513d601f19601f82011682018060405250810190620013b4919062002c1f565b509195945050505050565b61012f546001600160a01b031633146200140b5760405162461bcd60e51b815260206004820152600c60248201526b155b985d5d1a1bdc9a5e995960a21b604482015260640162000549565b823b15156200141d8584600062001073565b60005b83518161ffff1610156200159f57828161ffff168151811062001447576200144762002886565b602002602001015160001415620014965760405162461bcd60e51b81526020600482015260126024820152710416d6f756e742063616e6e6f7420626520360741b604482015260640162000549565b81156200153c57838161ffff1681518110620014b657620014b662002886565b60200260200101516001600160a01b0316856001600160a01b03161415620015105760405162461bcd60e51b815260206004820152600c60248201526b05061796d656e74206c6f6f760a41b604482015260640162000549565b6200153c848261ffff16815181106200152d576200152d62002886565b60200260200101518662001b68565b6200158a8686868461ffff16815181106200155b576200155b62002886565b6020026020010151868561ffff16815181106200157c576200157c62002886565b602002602001015162001cf8565b80620015968162002927565b91505062001420565b505050505050565b60606000825167ffffffffffffffff811115620015c857620015c8620020e4565b604051908082528060200260200182016040528015620015f2578160200160208202803683370190505b50905060005b83518161ffff161015620016e7576000848261ffff168151811062001621576200162162002886565b6020908102919091010151604051632a67293d60e01b81526001600160a01b03888116600483015291925090821690632a67293d9060240160206040518083038186803b1580156200167257600080fd5b505afa15801562001687573d6000803e3d6000fd5b505050506040513d601f19601f82011682018060405250810190620016ad91906200289c565b838361ffff1681518110620016c657620016c662002886565b60209081029190910101525080620016de8162002927565b915050620015f8565b509392505050565b6097546001600160a01b031633146200171c5760405162461bcd60e51b8152600401620005499062002ac5565b61012d54604051631b2ce7f360e11b81526001600160a01b03838116600483015290911690633659cfe690602401600060405180830381600087803b1580156200176557600080fd5b505af11580156200177a573d6000803e3d6000fd5b5050505050565b6097546001600160a01b03163314620017ae5760405162461bcd60e51b8152600401620005499062002ac5565b6001600160a01b038116620018155760405162461bcd60e51b815260206004820152602660248201527f4f776e61626c653a206e6577206f776e657220697320746865207a65726f206160448201526564647265737360d01b606482015260840162000549565b620003778162001ca6565b7f360894a13ba1a3210667c828492db98dca3e2076cc3735a920a3ca505d382bbc546001600160a01b031690565b6097546001600160a01b03163314620003775760405162461bcd60e51b8152600401620005499062002ac5565b60006200188762001820565b9050620018948462001d6e565b600083511180620018a25750815b15620018b657620018b4848462001e15565b505b7f4910fdfa16fed3260ed0e7147f7cc6da11a60208b5b9406d12a635614ffd9143805460ff166200177a57805460ff191660011781556040516001600160a01b03831660248201526200193890869060440160408051601f198184030181529190526020810180516001600160e01b0316631b2ce7f360e11b17905262001e15565b50805460ff191681556200194b62001820565b6001600160a01b0316826001600160a01b031614620019c55760405162461bcd60e51b815260206004820152602f60248201527f45524331393637557067726164653a207570677261646520627265616b73206660448201526e75727468657220757067726164657360881b606482015260840162000549565b6200177a8562001f09565b60c95460ff1662001a1b5760405162461bcd60e51b815260206004820152601460248201527314185d5cd8589b194e881b9bdd081c185d5cd95960621b604482015260640162000549565b60c9805460ff191690557f5db9ee0a495bf2e6ff9c91a7834c1ba4fdd244a5e8aa4e537bd38aeae4b073aa335b6040516001600160a01b03909116815260200160405180910390a1565b60c95460ff161562001aad5760405162461bcd60e51b815260206004820152601060248201526f14185d5cd8589b194e881c185d5cd95960821b604482015260640162000549565b60c9805460ff191660011790557f62e78cea01bee320cd4e420270b5ea74000d11b0c9f74754ebdbfc544b05a25862001a483390565b600054610100900460ff168062001afd575060005460ff16155b62001b1c5760405162461bcd60e51b8152600401620005499062002afa565b600054610100900460ff1615801562001b3f576000805461ffff19166101011790555b62001b4962001f4b565b62001b5362001fbb565b801562000377576000805461ff001916905550565b60408051600481526024810182526020810180516001600160e01b0316634abf03db60e11b179052905160009182916001600160a01b0385169162001bad91620028ee565b6000604051808303816000865af19150503d806000811462001bec576040519150601f19603f3d011682016040523d82523d6000602084013e62001bf1565b606091505b5091509150811562001ca05760008180602001905181019062001c15919062002c74565b5050509050836001600160a01b031662001c2f82620003f8565b6001600160a01b031614156200177a5760405163044eecfd60e41b81526004810182905285906001600160a01b038216906344eecfd090602401600060405180830381600087803b15801562001c8457600080fd5b505af115801562001c99573d6000803e3d6000fd5b5050505050505b50505050565b609780546001600160a01b038381166001600160a01b0319831681179093556040519116919082907f8be0079c531659141344cd1fd0a4f28419497f9722a3daafe3b4186f6b6457e090600090a35050565b60405163177e569160e31b81526001600160a01b03858116600483015284811660248301526044820183905283919082169063bbf2b48890606401600060405180830381600087803b15801562001d4e57600080fd5b505af115801562001d63573d6000803e3d6000fd5b505050505050505050565b803b62001dd45760405162461bcd60e51b815260206004820152602d60248201527f455243313936373a206e657720696d706c656d656e746174696f6e206973206e60448201526c1bdd08184818dbdb9d1c9858dd609a1b606482015260840162000549565b7f360894a13ba1a3210667c828492db98dca3e2076cc3735a920a3ca505d382bbc80546001600160a01b0319166001600160a01b0392909216919091179055565b6060823b62001e765760405162461bcd60e51b815260206004820152602660248201527f416464726573733a2064656c65676174652063616c6c20746f206e6f6e2d636f6044820152651b9d1c9858dd60d21b606482015260840162000549565b600080846001600160a01b03168460405162001e939190620028ee565b600060405180830381855af49150503d806000811462001ed0576040519150601f19603f3d011682016040523d82523d6000602084013e62001ed5565b606091505b509150915062001f00828260405180606001604052806027815260200162003b796027913962002022565b95945050505050565b62001f148162001d6e565b6040516001600160a01b038216907fbc7cd75a20ee27fd9adebab32041f755214dbc6bffa90cc0225b39da2e5c2d3b90600090a250565b600054610100900460ff168062001f65575060005460ff16155b62001f845760405162461bcd60e51b8152600401620005499062002afa565b600054610100900460ff1615801562001b53576000805461ffff1916610101179055801562000377576000805461ff001916905550565b600054610100900460ff168062001fd5575060005460ff16155b62001ff45760405162461bcd60e51b8152600401620005499062002afa565b600054610100900460ff1615801562002017576000805461ffff19166101011790555b62001b533362001ca6565b60608315620020335750816200051c565b825115620020445782518084602001fd5b8160405162461bcd60e51b815260040162000549919062002cc2565b6109938062002cd883390190565b61050e806200366b83390190565b6000602082840312156200208f57600080fd5b5035919050565b80358015158114620020a757600080fd5b919050565b600080600060608486031215620020c257600080fd5b8335925060208401359150620020db6040850162002096565b90509250925092565b634e487b7160e01b600052604160045260246000fd5b604051601f8201601f1916810167ffffffffffffffff81118282101715620021265762002126620020e4565b604052919050565b600067ffffffffffffffff8211156200214b576200214b620020e4565b5060051b60200190565b6001600160a01b03811681146200037757600080fd5b803563ffffffff81168114620020a757600080fd5b600082601f8301126200219257600080fd5b81356020620021ab620021a5836200212e565b620020fa565b82815260059290921b84018101918181019086841115620021cb57600080fd5b8286015b84811015620021f157620021e3816200216b565b8352918301918301620021cf565b509695505050505050565b600082601f8301126200220e57600080fd5b8135602062002221620021a5836200212e565b82815260059290921b840181019181810190868411156200224157600080fd5b8286015b84811015620021f157803561ffff81168114620022625760008081fd5b835291830191830162002245565b6000806000606084860312156200228657600080fd5b833567ffffffffffffffff808211156200229f57600080fd5b818601915086601f830112620022b457600080fd5b81356020620022c7620021a5836200212e565b82815260059290921b8401810191818101908a841115620022e757600080fd5b948201945b8386101562002312578535620023028162002155565b82529482019490820190620022ec565b975050870135925050808211156200232957600080fd5b620023378783880162002180565b935060408601359150808211156200234e57600080fd5b506200235d86828701620021fc565b9150509250925092565b6000602082840312156200237a57600080fd5b81356200051c8162002155565b600080604083850312156200239b57600080fd5b8235620023a88162002155565b91506020830135620023ba8162002155565b809150509250929050565b60008060408385031215620023d957600080fd5b8235620023e68162002155565b915060208381013567ffffffffffffffff808211156200240557600080fd5b818601915086601f8301126200241a57600080fd5b8135818111156200242f576200242f620020e4565b62002443601f8201601f19168501620020fa565b915080825287848285010111156200245a57600080fd5b80848401858401376000848284010152508093505050509250929050565b600082601f8301126200248a57600080fd5b813560206200249d620021a5836200212e565b82815260059290921b84018101918181019086841115620024bd57600080fd5b8286015b84811015620021f1578035620024d78162002155565b8352918301918301620024c1565b600082601f830112620024f757600080fd5b813560206200250a620021a5836200212e565b82815260059290921b840181019181810190868411156200252a57600080fd5b8286015b84811015620021f157803583529183019183016200252e565b600080600080608085870312156200255e57600080fd5b843567ffffffffffffffff808211156200257757600080fd5b620025858883890162002478565b955060208701359150808211156200259c57600080fd5b50620025ab87828801620024e5565b93505060408501359150620025c36060860162002096565b905092959194509250565b60ff811681146200037757600080fd5b600080600060608486031215620025f457600080fd5b8335620026018162002155565b9250602084013567ffffffffffffffff8111156200261e57600080fd5b6200262c8682870162002478565b92505060408401356200263f81620025ce565b809150509250925092565b600080600080608085870312156200266157600080fd5b84356200266e8162002155565b93506020850135620026808162002155565b9250604085013567ffffffffffffffff808211156200269e57600080fd5b620026ac8883890162002478565b93506060870135915080821115620026c357600080fd5b50620026d287828801620024e5565b91505092959194509250565b600060208284031215620026f157600080fd5b6200051c826200216b565b600080604083850312156200271057600080fd5b82356200271d8162002155565b9150602083013567ffffffffffffffff8111156200273a57600080fd5b620027488582860162002478565b9150509250929050565b600081518084526020808501945080840160005b83811015620027845781518752958201959082019060010162002766565b509495945050505050565b6020815260006200051c602083018462002752565b600060208284031215620027b757600080fd5b81516200051c8162002155565b60005b83811015620027e1578181015183820152602001620027c7565b8381111562001ca05750506000910152565b600081518084526200280d816020860160208601620027c4565b601f01601f19169290920160200192915050565b6001600160a01b03831681526040602082018190526000906200284790830184620027f3565b949350505050565b6020808252601f908201527f5265656e7472616e637947756172643a207265656e7472616e742063616c6c00604082015260600190565b634e487b7160e01b600052603260045260246000fd5b600060208284031215620028af57600080fd5b5051919050565b634e487b7160e01b600052601160045260246000fd5b6000816000190483118215151615620028e957620028e9620028b6565b500290565b6000825162002902818460208701620027c4565b9190910192915050565b60008219821115620029225762002922620028b6565b500190565b600061ffff80831681811415620029425762002942620028b6565b6001019392505050565b600081518084526020808501945080840160005b838110156200278457815161ffff168752958201959082019060010162002960565b6080808252855190820181905260009060209060a0840190828901845b82811015620029c65781516001600160a01b0316845292840192908401906001016200299f565b5050508381038285015286518082528783019183019060005b8181101562002a0357835163ffffffff1683529284019291840191600101620029df565b5050848103604086015262002a1981886200294c565b935050505082606083015295945050505050565b6020808252602c908201527f46756e6374696f6e206d7573742062652063616c6c6564207468726f7567682060408201526b19195b1959d85d1958d85b1b60a21b606082015260800190565b6020808252602c908201527f46756e6374696f6e206d7573742062652063616c6c6564207468726f7567682060408201526b6163746976652070726f787960a01b606082015260800190565b6020808252818101527f4f776e61626c653a2063616c6c6572206973206e6f7420746865206f776e6572604082015260600190565b6020808252602e908201527f496e697469616c697a61626c653a20636f6e747261637420697320616c72656160408201526d191e481a5b9a5d1a585b1a5e995960921b606082015260800190565b600081518084526020808501945080840160005b83811015620027845781516001600160a01b03168752958201959082019060010162002b5c565b60408152600062002b98604083018562002b48565b828103602084015262001f00818562002752565b60018060a01b038716815285602082015260c06040820152600062002bd560c083018762002b48565b828103606084015262002be9818762002752565b6080840195909552505090151560a090910152949350505050565b805169ffffffffffffffffffff81168114620020a757600080fd5b600080600080600060a0868803121562002c3857600080fd5b62002c438662002c04565b945060208601519350604086015192506060860151915062002c686080870162002c04565b90509295509295909350565b6000806000806080858703121562002c8b57600080fd5b84519350602085015162002c9f81620025ce565b604086015190935062002cb28162002155565b6060959095015193969295505050565b6020815260006200051c6020830184620027f356fe608060405260405161099338038061099383398101604081905261002291610497565b61004d60017fa3f0ad74e5423aebfd80d3ef4346578335a9a72aeaee59ff6cb3582b35133d51610557565b60008051602061094c833981519152146100695761006961057c565b6100758282600061007c565b50506105fc565b61008583610156565b6040516001600160a01b038416907f1cf3b03a6cf19fa2baba4df148e9dcabedea7f8a5c07840e207e5c089be95d3e90600090a26000825111806100c65750805b156101515761014f836001600160a01b0316635c60da1b6040518163ffffffff1660e01b815260040160206040518083038186803b15801561010757600080fd5b505afa15801561011b573d6000803e3d6000fd5b505050506040513d601f19601f8201168201806040525081019061013f9190610592565b836102f660201b6100291760201c565b505b505050565b6101698161032260201b6100551760201c565b6101c85760405162461bcd60e51b815260206004820152602560248201527f455243313936373a206e657720626561636f6e206973206e6f74206120636f6e6044820152641d1c9858dd60da1b60648201526084015b60405180910390fd5b61024b816001600160a01b0316635c60da1b6040518163ffffffff1660e01b815260040160206040518083038186803b15801561020457600080fd5b505afa158015610218573d6000803e3d6000fd5b505050506040513d601f19601f8201168201806040525081019061023c9190610592565b61032260201b6100551760201c565b6102b05760405162461bcd60e51b815260206004820152603060248201527f455243313936373a20626561636f6e20696d706c656d656e746174696f6e206960448201526f1cc81b9bdd08184818dbdb9d1c9858dd60821b60648201526084016101bf565b806102d560008051602061094c83398151915260001b61032860201b61005b1760201c565b80546001600160a01b0319166001600160a01b039290921691909117905550565b606061031b838360405180606001604052806027815260200161096c6027913961032b565b9392505050565b3b151590565b90565b6060833b61038a5760405162461bcd60e51b815260206004820152602660248201527f416464726573733a2064656c65676174652063616c6c20746f206e6f6e2d636f6044820152651b9d1c9858dd60d21b60648201526084016101bf565b600080856001600160a01b0316856040516103a591906105ad565b600060405180830381855af49150503d80600081146103e0576040519150601f19603f3d011682016040523d82523d6000602084013e6103e5565b606091505b5090925090506103f6828286610400565b9695505050505050565b6060831561040f57508161031b565b82511561041f5782518084602001fd5b8160405162461bcd60e51b81526004016101bf91906105c9565b80516001600160a01b038116811461045057600080fd5b919050565b634e487b7160e01b600052604160045260246000fd5b60005b8381101561048657818101518382015260200161046e565b8381111561014f5750506000910152565b600080604083850312156104aa57600080fd5b6104b383610439565b60208401519092506001600160401b03808211156104d057600080fd5b818501915085601f8301126104e457600080fd5b8151818111156104f6576104f6610455565b604051601f8201601f19908116603f0116810190838211818310171561051e5761051e610455565b8160405282815288602084870101111561053757600080fd5b61054883602083016020880161046b565b80955050505050509250929050565b60008282101561057757634e487b7160e01b600052601160045260246000fd5b500390565b634e487b7160e01b600052600160045260246000fd5b6000602082840312156105a457600080fd5b61031b82610439565b600082516105bf81846020870161046b565b9190910192915050565b60208152600082518060208401526105e881604085016020870161046b565b601f01601f19169190910160400192915050565b6103418061060b6000396000f3fe60806040523661001357610011610017565b005b6100115b61002761002261005e565b610106565b565b606061004e83836040518060600160405280602781526020016102e56027913961012a565b9392505050565b3b151590565b90565b60006100917fa3f0ad74e5423aebfd80d3ef4346578335a9a72aeaee59ff6cb3582b35133d50546001600160a01b031690565b6001600160a01b0316635c60da1b6040518163ffffffff1660e01b815260040160206040518083038186803b1580156100c957600080fd5b505afa1580156100dd573d6000803e3d6000fd5b505050506040513d601f19601f82011682018060405250810190610101919061023c565b905090565b3660008037600080366000845af43d6000803e808015610125573d6000f35b3d6000fd5b6060833b61018e5760405162461bcd60e51b815260206004820152602660248201527f416464726573733a2064656c65676174652063616c6c20746f206e6f6e2d636f6044820152651b9d1c9858dd60d21b60648201526084015b60405180910390fd5b600080856001600160a01b0316856040516101a99190610295565b600060405180830381855af49150503d80600081146101e4576040519150601f19603f3d011682016040523d82523d6000602084013e6101e9565b606091505b50915091506101f9828286610203565b9695505050505050565b6060831561021257508161004e565b8251156102225782518084602001fd5b8160405162461bcd60e51b815260040161018591906102b1565b60006020828403121561024e57600080fd5b81516001600160a01b038116811461004e57600080fd5b60005b83811015610280578181015183820152602001610268565b8381111561028f576000848401525b50505050565b600082516102a7818460208701610265565b9190910192915050565b60208152600082518060208401526102d0816040850160208701610265565b601f01601f1916919091016040019291505056fe416464726573733a206c6f772d6c6576656c2064656c65676174652063616c6c206661696c6564a2646970667358221220fae3cdddb10810ed113b9502162880a3e68ff3b0fca7548d2060b922bf64b9ff64736f6c63430008080033a3f0ad74e5423aebfd80d3ef4346578335a9a72aeaee59ff6cb3582b35133d50416464726573733a206c6f772d6c6576656c2064656c65676174652063616c6c206661696c6564608060405234801561001057600080fd5b5060405161050e38038061050e83398101604081905261002f91610148565b61003833610047565b61004181610097565b50610178565b600080546001600160a01b038381166001600160a01b0319831681178455604051919092169283917f8be0079c531659141344cd1fd0a4f28419497f9722a3daafe3b4186f6b6457e09190a35050565b6100aa8161014260201b61020a1760201c565b6101205760405162461bcd60e51b815260206004820152603360248201527f5570677261646561626c65426561636f6e3a20696d706c656d656e746174696f60448201527f6e206973206e6f74206120636f6e747261637400000000000000000000000000606482015260840160405180910390fd5b600180546001600160a01b0319166001600160a01b0392909216919091179055565b3b151590565b60006020828403121561015a57600080fd5b81516001600160a01b038116811461017157600080fd5b9392505050565b610387806101876000396000f3fe608060405234801561001057600080fd5b50600436106100575760003560e01c80633659cfe61461005c5780635c60da1b14610071578063715018a61461009a5780638da5cb5b146100a2578063f2fde38b146100b3575b600080fd5b61006f61006a3660046102ec565b6100c6565b005b6001546001600160a01b03165b6040516001600160a01b03909116815260200160405180910390f35b61006f610139565b6000546001600160a01b031661007e565b61006f6100c13660046102ec565b61016f565b6000546001600160a01b031633146100f95760405162461bcd60e51b81526004016100f09061031c565b60405180910390fd5b61010281610210565b6040516001600160a01b038216907fbc7cd75a20ee27fd9adebab32041f755214dbc6bffa90cc0225b39da2e5c2d3b90600090a250565b6000546001600160a01b031633146101635760405162461bcd60e51b81526004016100f09061031c565b61016d600061029c565b565b6000546001600160a01b031633146101995760405162461bcd60e51b81526004016100f09061031c565b6001600160a01b0381166101fe5760405162461bcd60e51b815260206004820152602660248201527f4f776e61626c653a206e6577206f776e657220697320746865207a65726f206160448201526564647265737360d01b60648201526084016100f0565b6102078161029c565b50565b3b151590565b803b61027a5760405162461bcd60e51b815260206004820152603360248201527f5570677261646561626c65426561636f6e3a20696d706c656d656e746174696f6044820152721b881a5cc81b9bdd08184818dbdb9d1c9858dd606a1b60648201526084016100f0565b600180546001600160a01b0319166001600160a01b0392909216919091179055565b600080546001600160a01b038381166001600160a01b0319831681178455604051919092169283917f8be0079c531659141344cd1fd0a4f28419497f9722a3daafe3b4186f6b6457e09190a35050565b6000602082840312156102fe57600080fd5b81356001600160a01b038116811461031557600080fd5b9392505050565b6020808252818101527f4f776e61626c653a2063616c6c6572206973206e6f7420746865206f776e657260408201526060019056fea264697066735822122083ad6cb6fa6a19bc4fdd834c47ccbd8e108171d4c48fdb9fa20c42614a448f9864736f6c63430008080033416464726573733a206c6f772d6c6576656c2064656c65676174652063616c6c206661696c6564a264697066735822122004b18bc309094841e59ba56cc9b791abcf36e856c1ae98f0e86fe5037891bb9864736f6c63430008080033",
  "linkReferences": {},
  "deployedLinkReferences": {}
}